:020000040800F2
:10000000385C00209D010008755300086148000815
:100010000B530008C5240008A5CF0008000000000D
:100020000000000000000000000000001FA6000803
:10003000F138000800000000A307000835A80008F8
:10004000B7010008B7010008B7010008B7010008B0
:10005000B7010008B7010008B7010008B7010008A0
:10006000B7010008B7010008B7010008B701000890
:10007000B7010008B7010008B7010008ED33000818
:10008000B7010008FD330008B7010008B7010008F8
:10009000B7010008B7010008B7010008B701000860
:1000A000B7010008B7010008B7010008B701000850
:1000B0007DAC0008B7010008B7010008B7010008CF
:1000C000B7010008B7010008B7010008B701000830
:1000D000B7010008B70100089FAE0008B70100088B
:1000E000B7010008B7010008B7010008B701000810
:1000F000B7010008B7010008B7010008B701000800
:10010000B7010008B7010008B7010008B7010008EF
:100110008FAE0008B7010008B7010008B70100085A
:10012000B7010008B7010008B7010008B7010008CF
:10013000B7010008B7010008B7010008B7010008BF
:10014000B7010008B7010008B7010008E19E0008E8
:10015000B7010008B7010008B7010008B70100089F
:10016000B7010008B7010008B7010008B70100088F
:10017000B7010008B7010008B7010008B70100087F
:10018000B7010008B7010008DFF80CD000F0B0FAA2
:10019000004800476DD40008385C002006488047BE
:1001A00006480047FEE7FEE7FEE7FEE7FEE7FEE75C
:1001B000FEE7FEE7FEE7FEE7A5A8000889010008C4
:1001C00072B6704762B67047EFF3108072B6704730
:1001D00080F31088704730BF704720BF7047B0FA77
:1001E00080F0704790FAA0F0B0FA80F0704790FA73
:1001F000A0F07047D2B201E000F8012B491EFBD2FB
:1002000070470022F6E710B513460A460446194621
:10021000FFF7F0FF204610BD2DE9FE4F804681EA32
:100220000300C00F0C46009021F0004123F0004570
:10023000B8EB0200A94105D24046214690461C4633
:100240000B46024623F00040104347D0270DC7F36A
:100250000A00C3F30A510290401A019040286BDA59
:10026000C3F3130040F4801B0098924620B1002392
:10027000D2EB030A63EB0B0B01985946C0F1400225
:10028000504600F0A7F906460D4650465946019AD9
:1002900000F0BFF910EB08006141002487EA115219
:1002A00084EAE7731A4340D0009A62B3019A012AA4
:1002B0004FEA075215DC001B61EB02014FF00042D0
:1002C00002EA0752CDE90042001C41F58011324696
:1002D0002B4600F0BFF903B0BDE8F08F4046214641
:1002E000F9E7001B61EB0201001C41F580130018C7
:1002F0005B412018A2F5001747EB030140EAD570D7
:10030000B6196D4111E06D084FEA360645EAC07531
:100310004FEA0752001B61EB0201001C41F58011FE
:1003200049084FEA30000019514132462B4603B0CC
:10033000BDE8F04F00F07FB9009801224000002393
:10034000D0EB020263EBE073009821464FEAE074C1
:10035000B8EB000061EB0401E9E783F000435BE7E1
:1003600081F0004158E72DE9FE4F81EA030404F0D3
:10037000004421F0004100944FF0000B23F00043B3
:1003800050EA01045ED052EA03045BD0C3F30A547E
:10039000C1F30A552C44A4F2F3340194A0FB025497
:1003A000C1F3130141F48011C3F3130343F4801329
:1003B00001FB024400FB034E840A970A44EA81547D
:1003C00047EA8357A4FB076802958D0A05FB07855A
:1003D0004FEA932C04FB0C542705029D4FEA065864
:1003E00047EA1637B5EB08056EEB070C870E920E41
:1003F00047EA811742EA8312A7FB0201B6EB0B0121
:1004000064EB00042B0D43EA0C335E1844EB1C50E4
:10041000DA465146E7FB0201C5F313044FEA0B33FA
:1004200043EA14534FEA0432019C43EA0603A4F161
:100430000C040294009CCDE900B400F00BF903B069
:10044000BDE8F08F00200146F9E72DE9F04D81EA83
:10045000030404F0004B21F0004514464FF0000A5D
:1004600023F0004150EA050220D054EA01021DD0D9
:10047000C5F30A570246C5F31303C1F31300C1F3D2
:100480000A5640F4801543F48013A7EB0608101BAE
:10049000D64608F2FD3873EB050002D308F10108D7
:1004A00001E092185B41B8F1000F03DA0020014629
:1004B000BDE8F08D00204FF48011064684460EE022
:1004C000171B73EB050705D3121B63EB05030643EC
:1004D0004CEA010C49084FEA300092185B4150EA9F
:1004E0000107EDD152EA030012D082EA040083EA48
:1004F0000501084305D0101BAB4106D201220023A1
:1005000006E000224FF0004302E06FF001025310BA
:100510001AEB06004CEB085110EB0A0041EB0B0103
:10052000BDE8F04D00F087B80EB5C10F80EAE0706D
:100530000844CA07002140F233438DE80E000A4602
:100540000B4600F087F803B000BD0EB540F2334112
:1005500002910021CDE900110A460B4600F07AF81D
:1005600003B000BD70B5C1F30A5201F0004500248C
:10057000C1F3130140F2FF3341F480119A4201DAD2
:10058000002070BD40F233439A42A2F2334203DCB2
:10059000524200F02EF800E090402C43F1D040424F
:1005A00070BDC1F30A5210B5C1F3130140F2FF331D
:1005B00041F480119A4201DA002010BD40F2334329
:1005C0009A42A2F2334203DC524200F012F810BD0C
:1005D000904010BD202A04DB203A00FA02F10020EE
:1005E00070479140C2F1200320FA03F31943904071
:1005F0007047202A04DB203A21FA02F000217047DC
:1006000021FA02F3D040C2F120029140084319467A
:100610007047202A06DBCB17203A41FA02F043EA62
:10062000E07306E041FA02F3D040C2F120029140AB
:1006300008431946704710B5141E73F1000408DA18
:10064000401C41F1000192185B411A4301D120F096
:10065000010010BD2DE9F04D92469B4611B1B1FA53
:1006600081F202E0B0FA80F220329046FFF7B2FF4A
:1006700004460F4640EA0A0041EA0B0153465A4637
:10068000084313D0114653EA010019D0C8F14002C3
:100690005046FFF7AEFF05460E46504659464246C5
:1006A000FFF798FF084305D0012004E020463946B3
:1006B000BDE8F08D0020054346EAE0762C43374341
:1006C0000A986305E40AA0EB08000022FD0A44EA48
:1006D00047540A3002D500200146E9E70105101908
:1006E0006941DDE9084500196941BDE8F04DA2E71F
:1006F000064C074D06E0E06840F0010394E807006F
:1007000098471034AC42F6D3FFF742FDB4D9000845
:10071000D4D9000870B58C1810F8015B15F00703E8
:1007200001D110F8013B2A1106D110F8012B03E08A
:1007300010F8016B01F8016B5B1EF9D12B0705D492
:100740000023521E0DD401F8013BFAE710F8013BDB
:10075000CB1A921C03E013F8015B01F8015B521EF7
:10076000F9D5A142D8D3002070BD000022484FF631
:10077000FF710170002080F309882048016881F32F
:1007800008881F484FF08051016062B6FEE71C48A0
:100790004FF080510160704719484FF0805101605F
:1007A000704772B6EFF3098050B11EF0100F08BF0A
:1007B00020ED108A203880E8F00F1249096808609F
:1007C00000B5114880475DF804EB104810490A78DD
:1007D00002700C480F490A680260106890E8F00F38
:1007E00020301EF0100F08BFB0EC108A80F309888B
:1007F0004EF0040E62B6704722ED00E09003002038
:1008000004ED00E088030020156D0008FE020020C2
:10081000FF0200208C03002021B1826842F0010217
:10082000826003E0826822F001028260704700006B
:100830000021084A1168084A1140D0E900231A43F0
:1008400083681A43C3681A431143044AC2F8041365
:100850007047000004230140E030FCFF002001400D
:1008600021B1826842F48072826003E0826822F4DF
:1008700080728260704721B1826842F400728260A7
:1008800003E0826822F400728260704730B502464D
:10089000002000235068104C20400D790C6844EA79
:1008A00005242043506090680C4C2040D1E903544B
:1008B0002C438D682C434D7944EA450420439060D5
:1008C000D06A20F470000C7D641EE4B2234340EA39
:1008D0000350D06230BD0000FFFEFFFCFDF7FFC0FB
:1008E000F0B504460D4600200021092D11DDE06819
:1008F000A5F10A0606EB4607072606FA07F1884324
:10090000A5F10A0606EB460603FA06F10843E06085
:100910000CE0206905EB4507072606FA07F1884336
:1009200005EB450603FA06F108432061072A0FDAB2
:10093000606B561E06EB86071F2606FA07F18843F2
:10094000561E06EB860605FA06F10843606322E0B0
:100950000D2A0FDA206BD61F06EB86071F2606FA34
:1009600007F18843D61F06EB860605FA06F1084311
:10097000206310E0E06AA2F10D0606EB86071F2651
:1009800006FA07F18843A2F10D0606EB860605FA82
:1009900006F10843E062F0BD816841F0804181606A
:1009A0007047000038B10849096841F40001074A5E
:1009B000C2F8041306E00449096821F40001034A5F
:1009C000C2F80413704700000423014000200140D6
:1009D00010B50221094800F0B3FC0120FFF7E2FF47
:1009E000072301220F210548FFF77AFF0723022280
:1009F00010210248FFF774FF10BD000000200140E5
:100A000010B52DED0C8B022000F04CF80446FFF7DA
:100A10009CFD41EC1D0B9FED180B53EC102BFFF7C9
:100A2000A2FC41EC1C0B9FED160B53EC102BFFF7B7
:100A30000CFD41EC1B0B9FED140B53EC102BFFF73F
:100A40008CFC41EC1A0B9FED120B53EC102BFFF7B3
:100A5000FCFC41EC190B9FED100B53EC102BFFF736
:100A6000DBFB41EC180BFFF79CFDC1B20C4880F892
:100A70004010BDEC0C8B10BD6666666666660A406B
:100A80000000000000FEAF4052B81E85EB51E83F69
:100A90007B14AE47E17A643F00000000000039405B
:100AA0007C000020F0B58AB004460023002109E054
:100AB0001B4800EB8106601E36F810002DF811006F
:100AC000481CC1B21429F3DB00211AE0002212E015
:100AD0003DF81260501C3DF81000864209DD3DF8DB
:100AE0001250501C3DF810002DF81200501C2DF82B
:100AF0001050501CC2B2C1F113009042E8DC481CF7
:100B0000C1B21429E2DB022104E03DF811000344E4
:100B1000481CC1B21229F8DB1B0998B20AB0F0BD1B
:100B2000D833002010B50E212B4800F009FC072314
:100B300001220A212848FFF7D3FE072302220B21B6
:100B40002548FFF7CDFE072303220C212248FFF79B
:100B5000C7FE072304220D211F48FFF7C1FE07230C
:100B600005220E211C48FFF7BBFE072306220921A0
:100B70001948FFF7B5FE07231A4604211648FFF768
:100B8000AFFE0723082206211348FFF7A9FE07231B
:100B900009220F211048FFF7A3FE07230A22022192
:100BA0000D48FFF79DFE07230B2205210A48FFF79A
:100BB00097FE07230C2203210748FFF791FE072326
:100BC0000D2219460448FFF78BFE07230E22082149
:100BD0000148FFF785FE10BD0022014010B52DED44
:100BE000108B012000F06AFB0446FFF7AEFC41ECDD
:100BF0001D0B9FED750B53EC102BFFF7B4FB41EC75
:100C00001C0B9FED730B53EC102BFFF71EFC41ECFC
:100C10001B0B9FED710B53EC102BFFF716FC41ECF7
:100C20001A0B9FED6F0B53EC102BFFF79CFB41EC65
:100C3000190B9FED6D0B53EC102BFFF794FB41EC60
:100C4000180BFFF7AEFC6A490884022000F036FB5F
:100C50000446FFF77AFC41EC1F0B9FED5B0B53EC56
:100C6000102BFFF780FB41EC1E0B9FED590B53EC53
:100C7000102BFFF7EAFB41EC1D0B9FED530B53ECE0
:100C8000102BFFF76DFB41EC1C0B9FED5A0B53EC47
:100C9000102BFFF7DAFB41EC1B0B9FED580B53ECCD
:100CA000102BFFF760FB41EC1A0B9FED470B53EC49
:100CB000102BFFF752FB41EC190B9FED4B0B53EC44
:100CC000102BFFF750FB41EC180BFFF76AFC48496B
:100CD0004884032000F0F2FA0446FFF736FC41ECAA
:100CE0001D0B9FED390B53EC102BFFF73CFB41EC38
:100CF0001C0B9FED370B53EC102BFFF7A6FB41ECC1
:100D00001B0B9FED350B53EC102BFFF79EFB41ECBB
:100D10001A0B9FED330B53EC102BFFF724FB41EC28
:100D2000190B9FED310B53EC102BFFF71CFB41EC23
:100D3000180BFFF736FC2E498884042000F0BEFA19
:100D40000446FFF702FC41EC1F0B9FED1F0B53EC19
:100D5000102BFFF708FB41EC1E0B9FED1D0B53EC16
:100D6000102BFFF772FB41EC1D0B9FED170B53ECA3
:100D7000102BFFF7F5FA41EC1C0B9FED1E0B53EC0B
:100D8000102BFFF762FB41EC1B0B9FED1C0B53EC90
:100D9000102BFFF7E8FA41EC1A0B9FED0B0B53EC0D
:100DA000102BFFF7DAFA41EC190B9FED0F0B53EC08
:100DB000102BFFF7D8FA41EC180BFFF7F2FB0C49A8
:100DC000C884BDEC108B10BD6666666666660A4018
:100DD0000000000000FEAF40E17A14AE47E1104091
:100DE000AE47E17A140E5A4000000000000059405E
:100DF0007C0000205C8FC2F5285C05407B14AE4768
:100E0000E1AA594010B52DED108B052000F056FADF
:100E10000446FFF79AFB41EC1D0B9FEDFE0B53ECD4
:100E2000102BFFF7A0FA41EC1C0B9FEDFC0B53ECD1
:100E3000102BFFF70AFB41EC1B0B9FEDFA0B53EC59
:100E4000102BFFF702FB41EC1A0B9FEDF80B53EC54
:100E5000102BFFF788FA41EC190B9FEDF60B53ECC2
:100E6000102BFFF780FA41EC180BFFF79AFBF349C0
:100E70004886062000F022FA0446FFF766FB41ECA4
:100E80001D0B9FEDE40B53EC102BFFF76CFA41ECBC
:100E90001C0B9FEDE20B53EC102BFFF7D6FA41EC45
:100EA0001B0B9FEDE00B53EC102BFFF7CEFA41EC40
:100EB0001A0B9FEDDE0B53EC102BFFF754FA41ECAD
:100EC000190B9FEDDC0B53EC102BFFF74CFA41ECA8
:100ED000180BFFF766FBD9498886072000F0EEF96A
:100EE0000446FFF732FB41EC1D0B9FEDCA0B53ECA0
:100EF000102BFFF738FA41EC1C0B9FEDC80B53EC9D
:100F0000102BFFF7A2FA41EC1B0B9FEDCD0B53EC1E
:100F1000102BFFF79AFA41EC1A0B9FEDCB0B53EC19
:100F2000102BFFF720FA41EC190B9FEDC20B53EC8D
:100F3000102BFFF718FA41EC180BFFF732FBBF49F3
:100F40000885082000F0BAF90446FFF7FEFA41ECE4
:100F50001F0B9FEDB00B53EC102BFFF704FA41EC85
:100F60001E0B9FEDAE0B53EC102BFFF76EFA41EC0E
:100F70001D0B9FEDA80B53EC102BFFF7F1F941EC83
:100F80001C0B9FEDAF0B53EC102BFFF75EFA41ECFF
:100F90001B0B9FEDAF0B53EC102BFFF7E4F941EC6B
:100FA0001A0B9FED9C0B53EC102BFFF7D6F941EC7D
:100FB000190B9FEDA00B53EC102BFFF7D4F941EC6C
:100FC000180BFFF7EEFA9D494885092000F076F9E5
:100FD0000446FFF7BAFA41EC1D0B9FED8E0B53EC64
:100FE000102BFFF7C0F941EC1C0B9FED8C0B53EC61
:100FF000102BFFF72AFA41EC1B0B9FED8A0B53ECE9
:10100000102BFFF722FA41EC1A0B9FED880B53ECE3
:10101000102BFFF7A8F941EC190B9FED860B53EC51
:10102000102BFFF7A0F941EC180BFFF7BAFA834930
:1010300088850A2000F042F90446FFF786FA41EC61
:101040001D0B9FED740B53EC102BFFF78CF941EC4B
:101050001C0B9FED720B53EC102BFFF7F6F941ECD4
:10106000180B9FED700B53EC102BFFF7EEF941ECD2
:101070001B0B9FED6E0B53EC102BFFF774F941EC3B
:101080001A0B9FED6C0B53EC102BFFF76CF941EC36
:10109000190BFFF786FA6949C8850B2000F00EF995
:1010A0000446FFF752FA41EC1F0B9FED5A0B53EC2D
:1010B000102BFFF758F941EC1E0B9FED580B53EC2A
:1010C000102BFFF7C2F941EC1D0B9FED520B53ECB7
:1010D000102BFFF745F941EC1C0B9FED590B53EC1E
:1010E000102BFFF7B2F941EC1B0B9FED590B53ECA2
:1010F000102BFFF738F941EC1A0B9FED460B53EC20
:10110000102BFFF72AF941EC190B9FED4A0B53EC1A
:10111000102BFFF728F941EC180BFFF742FA47496B
:1011200008860C2000F0CAF80446FFF70EFA41ECDE
:101130001D0B9FED380B53EC102BFFF714F941EC0E
:101140001C0B9FED360B53EC102BFFF77EF941EC97
:101150001B0B9FED340B53EC102BFFF776F941EC92
:101160001A0B9FED320B53EC102BFFF7FCF841EC00
:10117000180B9FED300B53EC102BFFF7F4F841ECFC
:10118000190BFFF70EFA2D4908870D2000F096F88D
:101190000446FFF7DAF941EC1D0B9FED1E0B53ECF3
:1011A000102BFFF7E0F841EC1C0B9FED1C0B53ECF0
:1011B000102BFFF74AF941EC180B9FED270B53EC6E
:1011C000102BFFF742F941EC1B0B9FED250B53EC65
:1011D000102BFFF7C8F841EC1A0B9FED160B53ECE0
:1011E000102BFFF7C0F841EC190BFFF7DAF91349A0
:1011F00048870E2000F062F80446FFF7A6F941EC9C
:101200001D0B9FED040B53EC102BFFF7ACF841ECDA
:101210001A0B29E06666666666660A4000000000F2
:1012200000FEAF400000000000002E403333333397
:1012300033F3434000000000000059407C000020D0
:10124000F6285C8FC2F51340A4703D0AD7E33D40F9
:101250008FC2F5285CBF5C40000000000000244005
:1012600000000000000034401FED140B53EC102B65
:10127000FFF7EBF841EC190B1FED090B53EC102BAA
:10128000FFF7E3F841EC1C0B1FED0B0B53EC102B9D
:10129000FFF769F841EC1B0B1FED1A0B53EC102BF9
:1012A000FFF761F841EC180BFFF77BF90249C8869C
:1012B000BDEC108B10BD00007C000020F0B58AB0A2
:1012C0000446002300210BE0C1EBC1001B4E06EBDE
:1012D0008006601E36F810002DF81100481CC1B2BF
:1012E0001429F1DB00211AE0002212E03DF812601F
:1012F000501C3DF81000864209DD3DF81250501C8C
:101300003DF810002DF81200501C2DF81050501C04
:10131000C2B2C1F113009042E8DC481CC1B21429EA
:10132000E2DB022104E03DF811000344481CC1B295
:101330001229F8DB1B0998B20AB0F0BDA8310020D1
:1013400030B58BB004460D461C48844203D10121C0
:10135000801508F081FF1A48844203D1012140150D
:1013600008F07AFF1748844203D10121001508F0E4
:1013700073FF002007904FF4803008900020099000
:101380000A9007A8FFF754FA0020019001208DF879
:1013900008008DF80900002003904FF07060049061
:1013A000002005908DF8185001A92046FFF76EFA2D
:1013B00001212046FFF730FA0BB030BD002001407C
:1013C000002101400022014010B5FA21084600F03A
:1013D000D3F810BD10B540F6FF7000F0F1F80349E6
:1013E0004889FF2100F0DAF810BD00007C000020E1
:1013F00010B540F6FF71002001F058FA01210020DD
:1014000001F074FA40F6FF71002001F05FFA01214B
:10141000102001F06BFAFF21084600F0BFF84FF4EE
:101420000041044802F084FD4FF48041014802F07D
:101430007FFD10BD0018024010B52548008941F617
:101440004C51884243DC22480089B0F57A7F3EDB6C
:101450001F48408988423ADC1D484089B0F57A7FB0
:1014600035DB1B488089B0F5FA7F30DC184880896D
:10147000FA282CDB1648C089B0F5FA7F27DC14481F
:10148000C089FA2823DB4FF40041124802F050FDD6
:101490004FF480410F4802F04BFDFFF79BFF0C49D2
:1014A000088900F08DF80A4AD189508900F076F851
:1014B000074AD189908900F05FF84FF40041054850
:1014C00002F034FD4FF48041024802F031FD10BDBE
:1014D0007C0000200018024010B52548008941F624
:1014E0004C51884242DC22480089B0F57A7F3DDBCE
:1014F0001F484089884239DC1D484089B0F57A7F11
:1015000034DB1B488089884230DC19488089B0F57B
:10151000FA7F2BDB1648C089884227DC1448C08933
:10152000B0F5FA7F22DB4FF40041124802F000FDD3
:101530004FF480410F4802F0FBFCFFF745FF0C49D8
:10154000088900F03DF80A49888900F048F8084AFF
:10155000D189508900F022F84FF40041054802F08B
:10156000E5FC4FF48041034802F0E0FC10BD0000B0
:101570007C000020001802402DE9F04105460C4691
:10158000284608F0F3FC0646204603F045FF0746D0
:10159000F9B2F0B202F0FAF8BDE8F0812DE9F041BD
:1015A00005460C4628460BF0B5FD064620460BF0D6
:1015B000B1FD0746F9B2F0B202F036F9BDE8F081AC
:1015C00070B5044620460BF0F5FD0546294600207F
:1015D00001F06CF90121002001F088F970BD70B5AF
:1015E000044620460BF0E6FD05462946002001F0A2
:1015F0006DF90121102001F079F970BD0EB537E0C9
:101600001C4A1179106808F0C9FE01280AD102218C
:10161000194880F85B10174A11791068FEF7F1FD40
:1016200000F0F8FF144890F85B00022816D1124829
:1016300090F85800012811D100210F4880F8581067
:10164000A0200E4988703120C8700D4848600D49AF
:10165000086802F0B5FB0C4808F0E2FF02A8082178
:1016600032230022CDE900101146104605F01CFC83
:10167000C6E70000140100207C0000203400002098
:10168000400000201C010020A060024000B58BB08B
:101690000AA8032100220592CDE9062108901046F0
:1016A0004FF480711922074BCDE90132CDE90310C7
:1016B00006200023044A05A10090084804F0E6FD36
:1016C0000BB000BD14130020FD1500084170705FC1
:1016D000436F6D5F5461736B000000005412002073
:1016E0000EB50DE002F002FA02F0D4FA02A80821C9
:1016F00000230222CDE900101946184605F0D4FB5C
:10170000F0E7000000B58BB00AA803210022059283
:10171000CDE90621089010464FF480711922074B3D
:10172000CDE90132CDE9031007200023044A05A1C9
:101730000090084804F0AAFD0BB000BDD4170020AB
:10174000E11600084170705F46616E5F5461736B13
:1017500000000000141700200EB53CE04FF480613B
:101760001D4802F0E7FB02A808214FF4FA7300229B
:10177000CDE900101146104605F096FB17490020F0
:1017800001F0B2FF02A8082132230022CDE90010A7
:101790001146104605F088FB10490831082001F079
:1017A000A3FF02A808214FF4FA730022CDE900102C
:1017B0001146104605F078FB0949002001F01AFF98
:1017C00002A808214FF4FA730022CDE90010114657
:1017D000104605F069FBC1E7000C02400000002044
:1017E000440D002000B58BB00AA803210022059209
:1017F000CDE90621089010464FF480711922074B5D
:10180000CDE90132CDE9031003200023044A05A1EC
:101810000090084804F03AFD0BB000BD44090020D8
:10182000591700084170705F4C65645F5461736BB9
:1018300000000000840800200EB50CE000F0A2FCBF
:1018400002A808214FF4FA730022CDE900101146D6
:10185000104605F029FBF1E700B58BB00AA803217B
:1018600000220592CDE90621089010464FF48071C0
:101870001922074BCDE90132CDE903100B200023DB
:10188000044A05A10090094804F000FD0BB000BD1A
:1018900014260020391800084170705F5077724D8F
:1018A000616E616765725F5461736B00542500203F
:1018B00010B586B0002400F007FE05A804F064FC13
:1018C00005AA0121084604F013FB00BF00BF00BFBA
:1018D000FEF77AFC044600BF00BF30480078401C89
:1018E0002E49087000BF00BF2046FEF771FC00BF04
:1018F00000BF00BFFFF776FF00F0CEFBFFF7C6FE8C
:10190000FFF700FF00F09AF8FFF7A6FF00F0D2F80B
:1019100005A80021224A0223CDE90032CDE90210B8
:1019200001231A461FA1244805F0DEFB05A9224821
:1019300005F034FC05A9214805F0BCF900BF00BF43
:1019400000BFFEF741FC044600BF00BF134800780B
:10195000401E1249087008460078A0B9184800884F
:10196000002809DD00BF00BF2046FEF731FC00BFA4
:1019700000BF06F0B1FD0DE000BF00BF2046FEF73E
:1019800027FC00BF06E000BF00BF2046FEF720FC9A
:1019900000BF00BF00BF06B010BD0000180300204C
:1019A000B1D200085379735F537461746543686BF7
:1019B0005F546D7200000000540400209403002066
:1019C000DC02002000B58BB00AA80321002205929A
:1019D000CDE90621089010464FF480711922074B7B
:1019E000CDE90132CDE903101E200023044A05A1F0
:1019F0000090084804F04AFC0BB000BD84040020AD
:101A0000B11800084170705F53746172745F546163
:101A1000736B0000940300200EB50DE009F03EF852
:101A200008F0F2FF02A808210A230022CDE90010E5
:101A30001146104605F038FAF0E7000000B58BB00B
:101A40000AA8032100220592CDE90621089010463C
:101A50004FF480711922074BCDE90132CDE9031013
:101A600008200023044A05A10090084804F00EFC59
:101A70000BB000BD941C0020191A00085379734F55
:101A80006E4F66665461736B54636200D41B002012
:101A90000EB50DE008F02CFAFEF7B2FF02A80821FF
:101AA00000230122CDE900101946184605F0FCF983
:101AB000F0E7000000B58BB00AA8032100220592D0
:101AC000CDE90621089010464FF480711922074B8A
:101AD000CDE90132CDE9031009200023044A05A114
:101AE00000900A4804F0D2FB0BB000BD5421002046
:101AF000911A00084170705F54656D706572617471
:101B00007572655F5461736B0000000094200020C3
:101B10000EB5B5E20BF094FA80B1FE480068C1B290
:101B2000FD4808F03BFC012805D10121FB4880F865
:101B30005B1000F06FFD0020F6490860F74890F850
:101B40005B0001287ED1F54890F84D00012850D166
:101B50000021F24880F84D100220F14988700A20D7
:101B6000C870EE48008C001249680870EB4890F885
:101B70002000EB4949684870E848408C0012E84969
:101B800049688870E54890F82200E5494968C870BE
:101B9000E248808C0012E24949680871DF4890F8F9
:101BA0002400DF4949684871DC48C08C0012DC49D8
:101BB00049688871D94890F82600D9494968C871A0
:101BC000D648C0880012D64949680872D34880793F
:101BD000D34949684872D34802F0F2F8D148C07836
:101BE000811DD148C268CF4890470020CB49087179
:101BF000C880CA4890F84E00012852D10021C74839
:101C000080F84E100320C64988700A20C870C34867
:101C1000008C001249680870C04890F82000C04944
:101C200049684870BD48408C0012BD4949688870B9
:101C3000BA4890F82200BA494968C870B748808C01
:101C4000001200E012E2B64949680871B34890F802
:101C50002400B34949684871B048C08C0012B049AB
:101C600049688871AD4890F82600AD494968C87147
:101C7000AA48C0880012AA4949680872A748807912
:101C8000A74949684872A74802F09AF8A548C07861
:101C9000811DA548C268A348904700209F4908714C
:101CA000C8809E4890F84F00A8B100219B4880F85A
:101CB0004F1000209A4988700120C87000204968A0
:101CC0000870984802F07CF89648C078811D9648C4
:101CD000C26894489047914890F8500018B300218A
:101CE0008E4880F8501013208D49C870084641680E
:101CF0008E4802680A6042684A6002890A81807AD6
:101D00008872874840688A490A6840F80B2F4968FA
:101D10004160844802F054F88248C078811D8248AE
:101D2000C268804890477D4890F85200002852D001
:101D300000217A4880F852100520794988700F20D8
:101D4000C8707648B0F842000012496808707348BD
:101D500090F842007249496848707048B0F84400F1
:101D600000126F49496888706C4890F844006C49CB
:101D70004968C8706948B0F8460000126849496867
:101D80000871664890F8460065494968487163489B
:101D9000B0F8480000126249496888715F4890F8BD
:101DA00048005F494968C8715C48B0F84A000012B1
:101DB0005B4949680872594890F84A00584949688F
:101DC0004872584801F0FCFF5648C078811D5648BB
:101DD000C26854489047514890F85300D8B3002146
:101DE0004E4880F8531006204D4988700720C8706F
:101DF0004A4890F85C0049680870484890F85D00CF
:101E0000474949684870454890F85F004449496827
:101E10008870424890F8610041494968C8703F485D
:101E200090F85E003E49496808713C4890F86000AF
:101E30003B4949684871394890F862003849496817
:101E40008871384801F0BCFF3648C078811D36489B
:101E5000C26834489047314890F85400A8B1002136
:101E60002E4880F8541007202D4988700120C87032
:101E70000020496808702B4801F0A2FF2948C0786B
:101E8000811D2948C26827489047244890F855008A
:101E9000A8B10021214880F85510082020498870F9
:101EA0000120C8700020496808701E4801F088FFB2
:101EB0001C48C078811D1C48C2681A4890471748C2
:101EC00090F85600A8B10021144880F85610092057
:101ED000134988700120C8700020496808701148B3
:101EE00001F06EFF0F48C078811D0F48C2680D4891
:101EF00090470A4890F8570030B30021074880F80F
:101F000057100A20064988700120C87000204968CF
:101F100008700FE0340100206A3500207C000020AA
:101F200034000020540D002040010020100000204B
:101F30001B000020534801F043FF5248C078811D28
:101F40005148C2684F489047504890F85900A8B18E
:101F500000214E4880F859100B204D49887001200F
:101F6000C870002049680870464801F029FF4548BC
:101F7000C078811D4448C26842489047434890F861
:101F80005A00E8B10021414880F85A100C2040491D
:101F900088700D20C870002006E03E49095C3C4A6C
:101FA00052681154411CC8B20D28F6DB354801F0C7
:101FB00007FF3448C078811D3348C26831489047D4
:101FC000324890F84C00012850D100202F4981F868
:101FD0004C00F0202E4988700A20C8702B48008CD5
:101FE000001249680870294890F82000284949687B
:101FF00048702648408C001225494968887023485B
:1020000090F8220022494968C8702048808C00124C
:102010001F49496808711D4890F824001C49496807
:1020200048711A48C08C00121949496888711748CC
:1020300090F8260016494968C8711448C0880012F3
:1020400013494968087211488079114949684872F2
:102050000C4801F0B5FE0B48C078811D0A48C268E3
:1020600008489047002009490871C88002A8082143
:102070000A230022CDE900101146104604F014FF97
:1020800048E50000540D0020400100207C000020A5
:10209000340000204000002000B58BB00AA80321C6
:1020A00000220592CDE90621089010464FF4807178
:1020B0001922074BCDE90132CDE90310042000239A
:1020C000044A05A10090084804F0E0F80BB000BDF8
:1020D000540E0020111B00084170705F5573625F41
:1020E0005461736B00000000940D00201FB568461A
:1020F00008F0C2F8019804B010BD000008B5002037
:1021000000900E4890F85D00012811D103236A4623
:102110000D21162002F0D0FB01280DD19DF8000002
:10212000642809DC9DF80010044880F85F1003E083
:102130000021024880F85F1008BD00007C000020EC
:1021400008B5002000900E4890F85E00012811D1DB
:1021500003236A460D21162002F0F8FC01280DD158
:102160009DF80000642809DC9DF80010044880F800
:10217000601003E00021024880F8601008BD0000F4
:102180007C00002010B508F00BF8FFF7B7FFFFF751
:10219000D7FF00F02DFA0446A94890F85C0001280A
:1021A0007ED1A74890F85D00012804D0A44890F89B
:1021B0005E00012875D1A24890F85D0001285AD12F
:1021C0009F4890F85F0064280FD1022C01D0032CA7
:1021D0000AD101219B4801F0A9FE00209A4908700C
:1021E0000221974880F86110BCE0954890F85F00A4
:1021F000642821D0032C1FD194480088401C80B251
:102200009249088064280BDB01218E4801F08EFE84
:1022100000208D4908700321894880F86110A1E0F1
:102220000121884801F084FE0120874908700121BE
:10223000834880F8611095E0814890F85F00642839
:102240000DD0012C0BD101217E4801F071FE01203F
:102250007D49087001217A4880F8611082E00121EF
:10226000784801F063FE0020774908700321744824
:1022700080F8611076E0724890F86000642815D10B
:10228000022C01D0032C6DD102216E4801F04EFECC
:1022900000206F4908700221694880F8621001E04F
:1022A000ACE04FE000206B4908805BE0644890F8A8
:1022B0006000642821D0032C1FD166480088401C90
:1022C00080B26449088064280BDB02215D4801F07C
:1022D0002DFE00205E4908700321594880F86210E5
:1022E00040E00221574801F023FE012058490870C0
:1022F0000121534880F8621034E0514890F86000A2
:10230000642810D0012C0ED102214E4801F010FE9D
:1023100001204F4908700121494880F862100020CF
:102320004C4908801EE00221464801F0FFFD0020D4
:10233000474908700321424880F86210002045494F
:1023400008800FE0002040490870414908700321CF
:102350003B4880F8611080F8621000203B490880FB
:102360003C49088038480078012803D03848007874
:10237000012831D13448007801280AD13448007846
:1023800038B901212F4801F0D3FD02212D4801F079
:10239000CDFD2D48007858B92D480078012807D187
:1023A0000121284801F0C2FD0221264801F0C0FDAC
:1023B000234890F86300012804D1C102264801F0A7
:1023C000B5FD04E04FF40061234801F0B1FD0221A6
:1023D000214801F0ADFD31E001211A4801F0A6FDD0
:1023E0000221184801F0A2FD4FF400611A4801F0E3
:1023F0009DFD0221184801F099FD1FE003211048BE
:1024000080F8611080F8621000201049088011499E
:1024100008800D4908700E4908700121094801F033
:1024200085FD0221074801F081FD4FF400610A4853
:1024300001F07CFD0221084801F078FD10BD00008C
:102440007C00002000180240F4000020F60000206C
:10245000F5000020F8000020000C024008B5002123
:102460004FF0006002F0CEFF03F00AF801F064FEC6
:102470001048114B114A01210090114809F091F8C0
:1024800008F0E2F900F07EF908F050F9FEF7B0FF2D
:10249000FEF79AFF0AF00AFE02F0DCFE002001F0CF
:1024A00011FA102001F00EFA01F017FB08F08EFC73
:1024B00008BD0000AC010020EC0100205401002008
:1024C000EC2A002000BFFEE710B500F01FF800F076
:1024D00019F810BD10B5002400BF00BFFDF774FE51
:1024E000044600BF00BF1021054802F010FF00BFE6
:1024F00000BF2046FDF76CFE00BF00BF10BD00000E
:10250000AA3D002010B5FFF7E5FF10BD10B5002073
:102510000249086000F00AF810BD0000A402002083
:102520000149086070470000A402002010B5FFF7C1
:10253000DDFD04460848006840F0807006490860E8
:102540000020064948600846006840F00100086025
:102550002046FFF7E5FF10BDFCED00E0001000E0B5
:102560000149486870470000001000E01F480089DA
:1025700096301E49088208460089963848820846E7
:10258000008996308882084600899638C8820846B5
:102590000078012811D10020087008468089963003
:1025A0000883084680899638488308468089963093
:1025B0008883084680899638C8830C48407801286B
:1025C00012D1002009494870084680896430088388
:1025D0000846808964384883084680896430888347
:1025E000084680896438C883704700007C0000205A
:1025F00070B51021064801F090FC054608210448FA
:1026000001F08BFC05EB4000C4B2204670BD000019
:102610000010024010B52548807807282ED007DC2E
:1026200007283DD2DFE800F015181B1E21242700E3
:102630000B282FD006DC082823D0092824D00A280C
:102640002ED124E00C2828D0A02829D101F0F2FCBA
:1026500029E001F0FFFC26E001F0E4FC23E001F0BA
:10266000A7FC20E001F06AFC1DE001F01DFD1AE06E
:1026700001F0E8FC17E001F0F5FC14E001F02CFD9E
:1026800011E001F019FD0EE001F046FD0BE001F054
:1026900033FD08E00AF0E0FD05E007F077FE02E018
:1026A00002F00AFE00BF00BF10BD0000280000209D
:1026B00010B540F224412D4808F01DFC18B340F23B
:1026C00024412A4808F0F3FB284800882748001DC9
:1026D00000880021264800F0CDFE2649244800F05D
:1026E00095FE234800F0D1FEC0F164002249087134
:1026F000084600681E494039C864642048640121C6
:102700001B4800F0B7FE40F224411C4808F0F3FBE0
:1027100050B340F22441194808F0C9FB174800881B
:102720001648001D008800211148483000F0A2FE24
:1027300010490F48483000F069FE0D48483000F05D
:10274000A4FEC0F164000E490871084600680849FB
:1027500054310860642006494039C1F88C000121D9
:102760000348483000F086FE10BD0000004C0040D9
:10277000406002402000002004010020004400408E
:102780001401002000B587B04FF4E1312C480AF065
:102790000BFC002240F22551294808F0D6FB00220C
:1027A00040F22771264808F0D0FB012240F2244174
:1027B000234808F0CAFB01224021214808F092FB7F
:1027C000012280211E4808F08DFB4FF440304FF469
:1027D000807100220292CDE9032105906420CDE9A9
:1027E00000201848164A121DC9040368164801F053
:1027F00087F84FF440304FF4807100220292CDE907
:102800000321059064204021CDE900100F480C4AB7
:10281000121D490503680C48183001F071F80121B8
:10282000094800F027FE00210748183000F022FE7A
:10283000012210210448183000F05EFE07B000BDF0
:102840000044004014010020886002401C01002068
:1028500039B1084A1268012383401A43054B1A60B4
:1028600006E0044A1268012383409A43014B1A6030
:10287000704700000074004030B5002200230A4C6D
:10288000226840F6FE748440A243D1E900452C43FF
:102890008D682C43CD6844EA050303FA00F4224313
:1028A000014C226030BD00000074004008B50022D9
:1028B0000092054A009200F10802009B1A4400921F
:1028C000009A116008BD00000074004008B50022A5
:1028D0000092054A009200F11402009B1A440092F3
:1028E000009A116008BD00000074004010B541B1AD
:1028F000084A126804090123A3401A43054B1A60D1
:1029000007E0044A126804090123A3409A43014BDB
:102910001A6010BD0474004070B506460C4604F001
:102920008000802808D104F07F0000EB800106F5CC
:102930008E7000EBC10507E004F07F0000EB800122
:1029400006F55D7000EBC10504F07F00287004F00F
:102950008000C00968702946304609F0F6FD002065
:1029600070BD70B506460C4604F08000802808D182
:1029700004F07F0000EB800106F58E7000EBC105CE
:1029800005E004EB840106F55D7000EBC105002055
:10299000A87004F07F002870C4F3C0106870294646
:1029A000304609F0AAFD002070BD2DE9F041064631
:1029B0000D4690461F4605F08000802808D105F09E
:1029C0007F0000EB800106F58E7000EBC10407E08C
:1029D00005F07F0000EB800106F55D7000EBC1049F
:1029E00005F07F00207005F08000C0096070C4F819
:1029F0000880E770607808B12078E080022F01D16C
:102A0000002020712146304609F02BFD0020BDE852
:102A1000F0812DE9F04105460E461746984606F02E
:102A20007F0000EB800105F55D7000EBC104E760FD
:102A3000C4F814800020A061607006F07F00207050
:102A4000E878012800D12761207820B9214628465E
:102A500009F02BFC03E02146284609F0F5FD002093
:102A6000BDE8F08108B500220092009A61F30A12D5
:102A7000009202691268009B1A4303691A6008BD3C
:102A800070B506460C4604F08000802808D104F09A
:102A90007F0000EB800106F58E7000EBC10505E0BC
:102AA00004EB840106F55D7000EBC1050120A87000
:102AB00004F07F002870C4F3C010687029463046C7
:102AC00009F090FD002070BD2DE9F04107460D464C
:102AD0001646984605F07F0000EB800107F58E70E2
:102AE00000EBC1040120607005F07F002070E660FB
:102AF00026610020A061C4F81480207820B9214606
:102B0000384609F0D2FB03E02146384609F09CFD27
:102B10000020BDE8F081000030B587B00546594C73
:102B2000284609F088FB01A807F0A6FB029CE8688C
:102B3000C0680590059820F4705005900598E968E4
:102B4000C860284609F052FF03280BD10020A87066
:102B50004FF40070A880059820F4705000F51050D4
:102B600005907EE00120A8704020A880464884425D
:102B700009D34648844206D2059820F4705000F5E7
:102B8000605005906DE04148844209D3404884423A
:102B900006D2059820F4705000F55050059060E082
:102BA0003B48844209D33B48844206D2059820F42E
:102BB000705000F54050059053E03648844209D3E8
:102BC0003548844206D2059820F4705000F5305004
:102BD000059046E03048844209D33048844206D20A
:102BE000059820F4705000F52050059039E02B48EE
:102BF000844209D32A48844206D2059820F47050B2
:102C000000F5105005902CE02548844209D3254852
:102C1000844206D2059820F4705000F500500590CB
:102C20001FE02048844209D31F48844206D20598F9
:102C300020F4705000F5E050059012E01A488442EC
:102C400009D31A48844206D2059820F4705000F542
:102C5000C050059005E0059820F4705000F5A05094
:102C600005900598E968C86000200690069820F451
:102C7000005000F5005006900698E9684861012070
:102C800007B030BD007A030AC0E1E4000024F4007C
:102C9000E0EC040100C31801002D310140A44C01F7
:102CA00000366E0140E2950180C3C90160600B02ED
:102CB000F8B50546002400200090284609F0D7FE0C
:102CC000064681E006F0010000287BD0E1B22846EC
:102CD00000F00CFB0090009800F0010030B30120E0
:102CE00000FA04F72869406BB8432969486300205B
:102CF0000090009820F00100401C009005F11800A1
:102D000050F8240000998160E1B2324800684268BE
:102D100028469047E878012808D13CB940F21110C4
:102D2000405D042802D1284609F06AFB0098C0F3F0
:102D3000C00060B100200090009820F0080008302A
:102D4000009005F1180050F8240000998160009867
:102D5000C0F3001060B100200090009820F0100037
:102D60001030009005F1180050F82400009981609F
:102D70000098C0F3801060B100200090009820F00F
:102D800040004030009005F1180050F824000099F0
:102D900081600098C0F3400060B10020009000986E
:102DA00020F00200801C009005F1180050F824006B
:102DB000009981600098C0F3C01018B121462846E0
:102DC00000F0BEFA641C7608002E7FF47BAF012071
:102DD000F8BD0000900200207CB5044600250020CC
:102DE0000190204609F04BFE06466FE006F0010018
:102DF000002869D0E9B2204609F049FE0190019807
:102E000000F00100C8B300200190019820F00100FB
:102E1000401C019004F1540050F825000199816094
:102E2000E078012817D104F1540050F8250000691A
:102E3000009005EB850104F55D7000EBC100806832
:102E40000099C1F31201411A05EB850204F55D708A
:102E500000EBC2008161E9B21E48006802682046AA
:102E60009047E078012808D13DB940F21110005D8B
:102E7000052802D1204609F0C3FA0198C0F34000AA
:102E800060B100200190019820F00200801C0190A8
:102E900004F1540050F82500019981600198C0F3B5
:102EA000C00088B10B480068816820468847002030
:102EB0000190019820F008000830019004F15400BE
:102EC00050F82500019981606D1C7608002E8DD187
:102ED00001207CBD900200203EB50446A07A78B166
:102EE000D4F80C0100680090009820F002000090D7
:102EF000009820F0010000900099D4F80C010160C6
:102F000000200190019820F00100401C01902069F0
:102F100040680199884321694860094800688169CF
:102F20002046884700200290029820F0004000F1DF
:102F3000004002900298E168486101203EBD000017
:102F4000900200207CB5044600200190019820F0FA
:102F5000100010300190E068806901998843E168B1
:102F60008861E068006A0090009800F00F0000EBB4
:102F7000800104F55D7000EBC1050098C0F343408B
:102F800007282DD2DFE800F02C04051D1E2C1F00A1
:102F900027E00098C0F30A1090B10098C0F30A121D
:102FA0002046E96809F07DFDE8680099C1F30A113F
:102FB0000844E860A8690099C1F30A110844A861AF
:102FC0000FE00EE00DE0082204F2CC51204609F09B
:102FD00068FDA8690099C1F30A110844A86100E0DE
:102FE00000BF00BFE068806901990843E16888611B
:102FF00001207CBD38B5044608480068C1682046F9
:10300000884700200090009820F0080008300090C9
:103010000098E1684861012038BD0000900200205E
:103020001FB50446002000904FF48970005D0090A9
:1030300023480068416920468847206980680190DC
:1030400000200390039820F4006000F500600390D6
:103050000398E1684861A07A70B3019800F001001C
:1030600050B340F21510005D012825D19DF80000F5
:10307000032821D100200290029820F00100401C7A
:103080000290D4F80C01006802990843D4F80C119E
:103090000860029820F00200801C0290D4F80C0115
:1030A000006802990843D4F80C11086005480068CC
:1030B00040F0060003490860012004B010BD000084
:1030C0009002002010ED00E030B587B004460020EB
:1030D000029006900590049003900190029820F0D1
:1030E0000100401C029020694068029988432169D0
:1030F00048600021204609F04FFC00250BE0FF212D
:1031000004F1180050F82500816004F1540050F8D3
:10311000250081606D1C6078A842F0D84FF0FF3127
:103120002069816106986FF30F00401C0690069895
:1031300080B200F58030069006992069C16105983B
:1031400020F0080008300590059820F00100401C90
:103150000590059820F00200801C059005992069D3
:103160004161049820F00100401C0490049820F074
:10317000080008300490049820F00200801C04909D
:10318000049920690161206900680390039820F484
:10319000FE600390039920690160204609F030F930
:1031A00000200190019820F4805000F5805001909B
:1031B0000198E16848610448006801692046884731
:1031C000012007B030BD0000900200202DE9F04141
:1031D00006460F463946304609F078FC01214FF487
:1031E000897081550021801C8155002511E005EB77
:1031F000850106F58E7000EBC1040120607025701A
:10320000E5800020E0704020A0600020E060606168
:103210006D1C7078A842EAD8002510E005EB850106
:1032200006F55D7000EBC104002060702570E5803C
:10323000E0704020A0600020E06060616D1C70784C
:10324000A842EBD8304608F0E5FF304608F015FEFE
:103250000021304609F0A2FC304608F09BFE3046C3
:1032600009F063FBBDE8F08138B50446002000900A
:1032700007480068C16920468847009820F48010FC
:1032800000F5801000900098E1684861012038BD89
:103290009002002038B504460020009007480068DE
:1032A000016A20468847009820F4001000F50010BD
:1032B00000900098E1684861012038BD900200202C
:1032C00038B50446E068406800900098C0F380007C
:1032D00020B105480068816A204688470098E16867
:1032E0004860012038BD00009002002030B5024641
:1032F00015692B6915696C6B24FA01F505F0010558
:1033000043EAC51302F1180555F82150AD6805EAE6
:10331000030030BD38B5044608480068416A2046BD
:10332000884700200090009820F0804000F1804005
:1033300000900098E1684861012038BD90020020AB
:103340002DE9F84306460F4600250020009007EBC4
:10335000870106F58E7000EBC104D4E90501451A1A
:10336000A068A84200D2A568E81C4FEA900806F1C0
:10337000180050F827008069009029E0D4E9050181
:10338000451AA068A84200D2A568E81C4FEA900838
:10339000ABB2FAB23046E16809F027FCE068284495
:1033A000E060A0692844A06106F1180050F82700E9
:1033B00080690090D4E90501884209D12178012073
:1033C00000FA01F93069406B20EA0900316948636D
:1033D000009880B2404506D9D4E90510884202D24F
:1033E00060690028CAD10120BDE8F88310B502F059
:1033F0007DF900F0C5FA02F08FF910BD10B502F0AA
:1034000075F900F0BDFA02F087F910BD0246094BCC
:103410009A4201D2084801E00648103801F00053F2
:103420001BB1064B0B40C36002E0044B0B408360B2
:103430007047000010640240006002407D0F7D0F65
:103440000246094B9A4201D2084801E0064810386A
:1034500001F000531BB1064B0B40C36002E0044B6C
:103460000B4083607047000010640240006002401F
:103470007D0F7D0F21B1026842F00102026003E07E
:10348000026822F00102026070470146486880B27B
:103490007047000070B50246002000240025124E3F
:1034A000B24201D2114B01E00F4B103B104E0E40C7
:1034B00036B11E2606EAD124166806EA040502E0A3
:1034C000566906F0800501F000560EB15C6800E018
:1034D0001C68084E344004EA010616B10DB1012003
:1034E00000E0002070BD0000106402400060024057
:1034F0003C0F3C0F7D0F7D0F10B501F080034BB1E9
:1035000022B1436943F08003436103E0436923F040
:103510008003436180290BD02AB1036801F01E04A7
:103520002343036004E0036801F01E04A343036027
:1035300010BD000010B500220268134B1A40CC6881
:103540000B6823434C6923438C692343CC69234391
:103550000C6A23434C6A23438C6A23434C6B2343FA
:103560008C6B23431A430260426922F00702D1E9BF
:103570000B3423431A4342610B6943604B688360F9
:103580008B68C36010BD00003F801CF04160704735
:1035900070B500240125002625E009F061FB4FF4F9
:1035A0000061134800F0C4FC022009F035FF4FF41D
:1035B00000610F4800F0BAFC022009F02DFF09F06D
:1035C00033FB052009F028FF4FF40061084800F0A4
:1035D000A4FC08B12C4300E0AC433C2009F01CFFE4
:1035E0006806050E761C082ED7DB204670BD00004D
:1035F0000010024070B506460D4600F01FF808B1F5
:10360000012070BDCC2000F041F8F02000F03EF821
:10361000304600F03BF8002000F038F8002404E0C9
:10362000FFF7B6FF2855601CC4B2102CF8DB00F081
:1036300005F808B10120E4E70020E2E710B509F041
:103640000FFB4FF40061104800F072FCC82009F035
:10365000E3FE4FF400610C4800F068FC4FF4167074
:1036600009F0DAFE09F0E0FA3C2009F0D5FE4FF44B
:103670000061054800F051FC04464FF4967009F0D3
:10368000CBFE204610BD00000010024070B504467D
:1036900009F0E6FA002522E04FF40061114800F03D
:1036A00047FC022009F0B8FE4FF400610D4800F01D
:1036B0003DFC0A2009F0B0FE04F0010028B14FF4EF
:1036C0000061084800F034FC04E04FF40061054854
:1036D00000F02CFC3C2009F09FFE64106D1C082DAE
:1036E000DADB70BD001002402DE9F04107460E46BE
:1036F000FFF7A4FF10B10120BDE8F081CC20FFF757
:10370000C5FF0F20FFF7C2FF3846FFF7BFFF0020BD
:10371000FFF7BCFF002504E0705DFFF7B7FF681CF2
:10372000C5B2082DF8DBFFF733FF8046FFF730FF07
:1037300048EA0028FFF782FF08B10120DCE7CC202F
:10374000FFF7A4FF5520FFF7A1FF3846FFF79EFFC4
:103750000020FFF79BFF0720FFF798FF4FF4006161
:10376000094800F0E5FB4FF4487009F055FEFFF7FB
:103770000FFF0446AA2C04D14FF40061024800F068
:10378000D7FB0020B8E700000010024070B50446E7
:103790000D464FF48041224800F0C8FB49F2010178
:1037A000204806F024FF4FF47A6000F0A2F84FF4AE
:1037B00080411B4800F0BCFB4FF4FA6000F099F820
:1037C0004FF48041164800F0B1FB4FF4805040EABE
:1037D0000511144806F00BFF4FF47A6000F089F8E9
:1037E0004FF480410E4800F0A3FB4FF4FA6000F064
:1037F00080F84FF480410A4800F098FB4FF40040F5
:1038000040EA0411074806F0F2FE4FF47A6000F037
:1038100070F84FF48041024800F08AFB70BD000050
:1038200000040240003C004070B504460D464FF4D1
:103830000051224800F07AFB49F20101204806F0CD
:10384000D6FE4FF47A6000F054F84FF400511B4854
:1038500000F06EFB4FF4FA6000F04BF84FF40051AB
:10386000164800F063FB4FF4805040EA05111448FD
:1038700006F0BDFE4FF47A6000F03BF84FF40051C3
:103880000E4800F055FB4FF4FA6000F032F84FF4A8
:1038900000510A4800F04AFB4FF4004040EA04118E
:1038A000074806F0A4FE4FF47A6000F022F84FF4C7
:1038B0000051024800F03CFB70BD000000040240D3
:1038C000003C00401FB504460121480706F0B4FC47
:1038D0003C20009000200190029002200390694655
:1038E0002046FEF7C9FF01212046FEF7B1FF1FBDAC
:1038F000704700BF411E89B2081EFBD1704700000F
:103900002DE9F04F8FB004460D4616461F46DDE9FF
:103910001AABDDE918891948844204D2012148050F
:1039200006F06AFC03E00121880506F065FC0095BD
:1039300001960297CDF80C80CDF8109000200590EC
:103940004FF480600690CDF81CA0CDF820B01C98F4
:1039500009901D980A9000200B9003200C900020E5
:103960000D900E9069462046FFF7E4FD00212046A9
:10397000FFF780FD0FB0BDE8F08F0000006402404B
:1039800010B509490948FFF785FD58B100210748DE
:10399000FFF770FD64210548FFF7F8FD0249034871
:1039A000FFF74EFD10BD000000802020A060024007
:1039B00070B504460D46164601F09AFAFE2101EA5A
:1039C000440001F049FA01F0D5FA08B1012070BDB8
:1039D000284601F041FA01F0CDFA08B10120F6E7DE
:1039E00001F086FA012101EB4401C8B201F034FA7A
:1039F00001F0C0FA08B10120E9E701F0E1F9307007
:103A000001F054FA01F096FA0020E0E72DE9F041C8
:103A100004460F4615461E464FF0000801F068FAAE
:103A2000FE2101EA440001F017FA01F0A3FA10B1F7
:103A30000120BDE8F081384601F00EFA01F09AFA53
:103A400008B10120F5E701F053FA012101EB44012F
:103A5000C8B201F001FA01F08DFA08B10120E8E7DF
:103A600000BF0A2009F0D8FC01F0AAF905F8010B03
:103A700008F10100C0B28046B04202D101F016FA4E
:103A800001E001F0C7F9B045EBD101F053FA002095
:103A9000CFE770B504460D46164601F029FAFE211F
:103AA00001EA440001F0D8F901F064FA08B10120FC
:103AB00070BD284601F0D0F901F05CFA08B1012090
:103AC000F6E7304601F0C8F901F054FA08B10120D8
:103AD000EEE701F02FFA0020EAE710B509F092FCBA
:103AE00000F09AF809F093FC10BD000010B54748AB
:103AF00090F83F00454991F83E10884205DB434865
:103B000090F83F004249087004E0404890F83E00B9
:103B10003F4908703D4890F840003D490978884287
:103B200004DC3B4800783A49087004E0374890F8D4
:103B3000400037490870364800783649097888428D
:103B400062D0334800783349087031480078322811
:103B500019DC1C2230212C20FFF79BFF1C22402166
:103B60002C20FFF796FF1C2250212C20FFF791FFFD
:103B70001C2260212C20FFF78CFF1C2270212C209E
:103B8000FFF787FF40E022480078322823DD2048F5
:103B900000785F281FDA1E48007800EB80001C3098
:103BA000C4B2224630212C20FFF773FF2246402169
:103BB0002C20FFF76EFF224650212C20FFF769FFD3
:103BC000224660212C20FFF764FF224670212C2022
:103BD000FFF75FFF18E0FF2230212C20FFF759FF8D
:103BE000FF2240212C20FFF754FFFF2250212C20E0
:103BF000FFF74FFFFF2260212C20FFF74AFFFF2233
:103C000070212C20FFF745FF10BD00007C00002034
:103C1000F2000020F300002008B5802220212C2093
:103C2000FFF737FF6A4620212C20FFF7C1FE002254
:103C30002A212C20FFF72DFF1F222B212C20FFF7FC
:103C400028FF1F222B212C20FFF723FF00222C21ED
:103C50000846FFF71EFF00222D212C20FFF719FF39
:103C60001C2230212C20FFF714FF1C2240212C2085
:103C7000FFF70FFF1C2250212C20FFF70AFF1C2208
:103C800060212C20FFF705FF1C2270212C20FFF75C
:103C900000FF08BD2DE9F04186B0FF2230212C2025
:103CA000FFF7F7FE022305AA3E212C20FFF7AEFE08
:103CB000022304AA4E212C20FFF7A8FE022303AA08
:103CC0005E212C20FFF7A2FE022302AA6E212C20E7
:103CD000FFF79CFE022301AA7E212C20FFF796FE0F
:103CE0009DF815009DF8141000EB0120C0104FF452
:103CF000F00191FBF0F084B29DF811009DF81010D6
:103D000000EB0120C0104FF4F00191FBF0F085B200
:103D10009DF80D009DF80C1000EB0120C0104FF431
:103D2000F00191FBF0F086B29DF809009DF80810B3
:103D300000EB0120C0104FF4F00191FBF0F087B2CE
:103D40009DF805009DF8041000EB0120C0104FF411
:103D5000F00191FBF0F01FFA80F8B4F5707F01DDFF
:103D6000204600E000201549A1F84200B5F5707F1B
:103D700001DD294600E000211048A0F84410B6F506
:103D8000707F01DD314600E000210C48A0F84610AC
:103D9000B7F5707F01DD394600E000210748A0F843
:103DA0004810B8F5707F01DD414600E0002103486E
:103DB000A0F84A1006B0BDE8F08100007C000020A9
:103DC00010B500221E4949781D4B9B7819441C4BA5
:103DD000DB7819441A4B197200BF09E01849097AB7
:103DE000174B5B689B5C1944154B1972511CCAB286
:103DF0001349C9789142F1DC1149097801701049E1
:103E0000497841700E49897881700D49C978C1702F
:103E1000002105E00A4B5B685C5C0B1DC454491C27
:103E2000074BDB788B42F5DC05490B7AC978091D15
:103E3000435403494B7AC978491D435410BD0000CF
:103E400034000020F0B50A4600210023002400BF02
:103E50003DE0012505FA01F3156805EA03049C42DB
:103E600034D105684F000326BE40B543056015797F
:103E70004E00B5400668354305601579012D02D026
:103E80001579022D16D185684F000326BE40B54333
:103E9000856055794E00B540866835438560456834
:103EA00001268E40B5434560456896798E40B6B28E
:103EB00035434560C5684F000326BE40B543C56025
:103EC000D5794E00B540C6683543C560491C1029F8
:103ED000BFD3F0BDF0B5002300244D07ED0E02FA6C
:103EE00005F3CE1000F1200555F826504E07F70EC9
:103EF0000F26BE40B543CF1000F1200646F82750EC
:103F0000CE1000F1200555F8265045EA0304CE10E6
:103F100000F1200545F82640F0BD02460020136957
:103F20000B400BB1012000E0002070474183704737
:103F30000183704742694A404261704710B50120D1
:103F40001949087119484068407818494968097842
:103F500040EA01201449088114484068C078134998
:103F60004968897840EA01200F4948810F48406834
:103F700040790E494968097940EA01200A49888157
:103F80000A484068C07909494968897940EA0120AE
:103F90000549C88101204870FEF7E8FAFDF74CFAA0
:103FA00001200149C87010BD7C00002028000020BD
:103FB00010B501201949087119484068407818491E
:103FC0004968097840EA012014490881144840688A
:103FD000C07813494968897840EA01200F4948812F
:103FE0000F48406840790E494968097940EA012044
:103FF0000A4988810A484068C0790949496889792D
:1040000040EA01200549C88101200870FEF7AEFA98
:10401000FDF762FA01200149887010BD7C00002084
:10402000280000200121024880F85010704700004D
:104030007C0000200121024880F8581070470000E1
:104040007C0000200121024880F8521070470000D7
:104050007C0000200121024880F84F1070470000CA
:104060007C0000200121024880F8531070470000B6
:104070007C00002070B50A480468001D0568001D1A
:104080000668344454B108220649204601F01EF95E
:10409000042204491031284601F018F970BD0000CF
:1040A000107AFF1F920100200121024880F8511070
:1040B000704700007C00002010B54FF40041044818
:1040C000FFF736FF0121034880F8551010BD0000AE
:1040D000001802407C00002010B54FF40041044855
:1040E000FFF724FF0121034880F8541010BD0000A1
:1040F000001802407C00002010B54FF480410448B5
:10410000FFF716FF0121034880F8571010BD00008B
:10411000001802407C00002010B54FF48041044894
:10412000FFF704FF0121034880F8561010BD00007E
:10413000001802407C00002008B501217F2006F015
:104140005BF80121080706F077F8012005F008FF69
:10415000002006F005F9002005F002FF08220021EA
:10416000FE48FFF7B7FE08220121FC48FFF7B2FE28
:1041700000200346022201210090F84800F0EAFAEC
:1041800000200346022211460090F44800F0E2FAB3
:1041900000200346032204210090F04800F0DAFAE0
:1041A00000200346032208210090EC4800F0D2FAD8
:1041B00002200023032210210090E84800F0CAFAF0
:1041C00002200023032220210090E44800F0C2FADC
:1041D000002001231A4619020090E04800F0BAFAC4
:1041E00000200346012291020090DC4800F0B2FA60
:1041F0004FF48061D948FFF79BFE0120002302465F
:1042000001460090D64800F0A5FA002001231A4686
:1042100040210090D24800F09DFA002001231A4668
:1042200080210090CE4800F095FA0120002302463C
:1042300001020090CA4800F08DFA012000230246D6
:1042400041020090C64800F085FA0120034602466C
:1042500081020090C24800F07DFA01200346024628
:10426000C1020090BE4800F075FA0120002302460A
:1042700041030090BA4800F06DFA01200023024685
:1042800081030090B64800F065FA0020034603223F
:1042900001210090B34800F05DFA0020034603229C
:1042A00002210090AF4800F055FA00200346032297
:1042B00004210090AB4800F04DFA00200346032291
:1042C00008210090A74800F045FA00200346032289
:1042D00020210090A34800F03DFA002001231A4657
:1042E000590200909F4800F035FA06220A219D48A5
:1042F000FFF7F0FD0120002302228102009099487F
:1043000000F028FA06220B219648FFF7E3FD012072
:1043100000230222C1020090924800F01BFA0622FC
:104320000C219048FFF7D6FD012000230222010353
:1043300000908C4800F00EFA002003460122510341
:104340000090884800F006FA4FF400518548FFF7C6
:10435000EFFD00200346012291030090814800F008
:10436000F9F94FF480417F48FFF7E2FD0020034652
:104370000122D10300907B4800F0ECF900200346B5
:10438000012202210090784800F0E4F90020034661
:10439000012204210090744800F0DCF904217248E5
:1043A000FFF7C6FD002003460122082100906E4859
:1043B00000F0D0F908216C48FFF7BAFD0020034651
:1043C000012210210090684800F0C4F910216648CD
:1043D000FFF7AEFD072205216348FFF77BFD0722AB
:1043E00006216148FFF776FD0020034602222021C6
:1043F00000905D4800F0AEF9002003460222402103
:104400000090594800F0A6F90020034601228021BF
:104410000090554800F09EF980215348FFF788FD31
:10442000002003460122110200904F4800F092F94B
:104430004FF480714C48FFF77BFD002003460122BA
:1044400051020090484800F085F94FF40071464849
:10445000FFF76EFD002003460122910200904248C2
:1044600000F078F9002003460122D10200903E4876
:1044700000F070F9002003460122110300903A4831
:1044800000F068F94FF480513748FFF751FD0020E4
:104490000346012251030090334800F05BF90020ED
:1044A00003460122910300902F4800F053F90120A8
:1044B00000231A46C10300902B4800F04BF901205D
:1044C00000231A4601460090284800F043F90220D4
:1044D00000231A4601460090244800F03BF90020D2
:1044E0000346012204210090204800F033F9002007
:1044F00003460246082100901C4800F02BF90020DA
:104500000346024610210090184800F023F90020CD
:104510000346024620210090144800F01BF90020B9
:104520000346012211020090104800F013F9002008
:10453000034602464FF4007100900C4800F00AF95F
:10454000002001231A4699020090084800F002F961
:104550004FF480610548FFF7EBFC09E000000240E2
:104560000004024000080240000C0240001002401B
:10457000002001231A46D9020090734800F0EAF89F
:104580000020034602464FF4805100906E4800F030
:10459000E1F80020034602464FF4005100906A48BB
:1045A00000F0D8F8002001231A4619460090674809
:1045B00000F0D0F8002001231A4602210090634841
:1045C00000F0C8F8002003460122042100905F4853
:1045D00000F0C0F8002003460322082100905B4849
:1045E00000F0B8F80020034603221021009057483D
:1045F00000F0B0F800200346032220210090534829
:1046000000F0A8F8002003460322402100904F4804
:1046100000F0A0F8002003460322802100904B48C0
:1046200000F098F80020034603224FF480710090B8
:10463000464800F08FF80020034603224FF4007133
:104640000090424800F086F80020034603224FF411
:10465000806100903D4800F07DF800200346012273
:10466000D1020090394800F075F80020034601227D
:1046700011030090354800F06DF800200346012238
:1046800051030090314800F065F8002003460122F4
:10469000910300902D4800F05DF8002003460122B0
:1046A000D1030090294800F055F80020034601226C
:1046B00011460090264800F04DF8002003460122E4
:1046C00002210090224800F045F800200346012214
:1046D000042100901E4800F03DF80020034601220E
:1046E000082100901A4800F035F800200346012206
:1046F00010210090164800F02DF8002003460122FA
:1047000080210090124800F025F880211048FFF722
:104710000DFC002003460122910300900C4800F09C
:1047200019F84FF480410A48FFF702FC00200346C5
:104730000122D1030090064800F00CF84FF400412C
:104740000348FFF7F5FB08BD0010024000140240CB
:10475000001802402DE9FC4107460C4615461E464E
:10476000DDF8208000948DF8045003208DF80500BA
:104770008DF806608DF8078069463846FFF762FBC2
:10478000BDE8FC8170B506463048007800285BD152
:104790002F480068B0F5006F02D100202C49086056
:1047A0002B4800682B490968884203D1002027491B
:1047B000087070BD2648006826490968884206D9F5
:1047C00023480068C0F500602349086006E02148DE
:1047D00000681F490968401A1F4908601E480068A0
:1047E000402811D91A48008885B24024184800682A
:1047F000403017490860184800684038164908607A
:1048000001201249087018E01148008885B212484A
:10481000008884B20E4800680F49096808440C49B2
:10482000086000200C490860402C03D10220074991
:10483000087002E001200549087008484219234623
:1048400081213046FEF740F900BFB2E7E0010020C9
:10485000D8010020D4010020DC010020AA3500206E
:1048600000BFFEE770B505F021FE02211148FFF7F9
:104870005DFB802419E001210E48FFF74EFB08B9CB
:10488000A54300E02543052008F0C6FD02210948A4
:10489000FFF74EFB052008F0BFFD02210548FFF79A
:1048A00045FB052008F0B8FD6410002CE3D1284634
:1048B00070BD0000001402402DE9F04106460F468D
:1048C00014461D464FF0000800F0A8F8304600F0EE
:1048D00057F800F0E3F810B10020BDE8F081384649
:1048E00000F04EF800F0DAF808B10020F5E700F02B
:1048F00095F846F0010000F043F800F0CFF808B159
:104900000020EAE700BF322008F086FDFFF7AAFF8B
:1049100004F8010B08F10100C0B28046A84202D1A0
:1049200000F05AF801E000F009F8A845EBD10520A5
:1049300008F072FD00F092F80120CEE710B505F006
:10494000CFFD02210D48FFF7F1FA052008F064FDC4
:1049500001210A48FFF7EAFA052008F05DFD02216F
:104960000648FFF7E5FA052008F056FD0221034846
:10497000FFF7DCFA052008F04FFD10BD00140240DF
:1049800070B5054605F0ACFD052008F045FD802416
:104990001DE004EA050020B901210E48FFF7C6FA20
:1049A00003E001210B48FFF7C3FA052008F034FDAE
:1049B00002210848FFF7BCFA052008F02DFD02216E
:1049C0000448FFF7B3FA052008F026FD6410002C18
:1049D000DFD170BD0014024010B505F081FD022149
:1049E0000D48FFF7A3FA052008F016FD01210A483B
:1049F000FFF79EFA052008F00FFD02210648FFF799
:104A000097FA052008F008FD02210348FFF78EFA07
:104A1000052008F001FD10BD0014024010B505F09E
:104A20005FFD02210C48FFF783FA01210A48FFF7D6
:104A30007FFA052008F0F0FC01210748FFF776FA1D
:104A4000052008F0E9FC02210348FFF76FFA052072
:104A500008F0E2FC10BD00000014024010B505F0A3
:104A60003FFD02210C48FFF761FA01210A48FFF7D8
:104A70005DFA052008F0D0FC02210748FFF758FA3C
:104A8000052008F0C9FC01210348FFF751FA052071
:104A900008F0C2FC10BD00000014024010B54FF435
:104AA000FA6405F003FD052008F0B6FC05E0601E81
:104AB00080B2041E01D1012010BD01210A48FFF778
:104AC0002CFA0028F3D102210748FFF731FA05201C
:104AD00008F0A2FC02210448FFF728FA052008F09C
:104AE0009BFC0020E8E700000014024070B505F0D0
:104AF00011FD4FF480711348FFF718FA80241CE071
:104B00004FF400711048FFF708FA08B9A54300E018
:104B10002543052008F080FC4FF480710948FFF719
:104B200007FA052008F078FC4FF480710548FFF77C
:104B3000FDF9052008F070FC6410002CE0D1284637
:104B400070BD000000000240000802402DE9F04165
:104B500006460F4614461D464FF0000800F0B8F810
:104B6000304600F05DF800F0FFF810B10020BDE81D
:104B7000F081384600F054F800F0F6F808B1002053
:104B8000F5E700F0A5F846F0010000F049F800F064
:104B9000EBF808B10020EAE700BF502008F03CFC29
:104BA000FFF7A4FF04F8010B08F10100C0B2804632
:104BB000A84202D100F064F801E000F009F8A8452D
:104BC000EBD1052008F028FC00F0A8F80120CEE782
:104BD00010B505F0BBFC4FF480710F48FFF7A6F944
:104BE000052008F019FC4FF400710C48FFF79EF9FE
:104BF000052008F011FC4FF480710748FFF798F981
:104C0000052008F009FC4FF480710348FFF78EF986
:104C1000052008F001FC10BD000002400008024021
:104C200070B5054605F092FC802421E004EA0500F9
:104C300028B94FF400711048FFF778F904E04FF4F9
:104C400000710D48FFF774F9052008F0E5FB4FF4FB
:104C500080710A48FFF76CF9052008F0DDFB4FF47E
:104C600080710648FFF762F9052008F0D5FB641053
:104C7000002CDBD170BD00000008024000000240A3
:104C800010B505F063FC4FF480710F48FFF74EF943
:104C9000052008F0C1FB4FF400710C48FFF748F9FC
:104CA000052008F0B9FB4FF480710748FFF740F981
:104CB000052008F0B1FB4FF480710348FFF736F987
:104CC000052008F0A9FB10BD0000024000080240CA
:104CD00010B505F03BFC4FF480710E48FFF728F942
:104CE0004FF400710C48FFF723F9052008F094FBFE
:104CF0004FF400710848FFF719F9052008F08CFB04
:104D00004FF480710348FFF711F9052008F084FB88
:104D100010BD0000000002400008024010B505F080
:104D200015FC4FF480710E48FFF700F94FF4007145
:104D30000C48FFF7FBF8052008F06EFB4FF480717C
:104D40000748FFF7F5F8052008F066FB4FF40071FF
:104D50000448FFF7EDF8052008F05EFB10BD0000E9
:104D6000000002400008024010B54FF4FA6405F05C
:104D7000D1FB052008F050FB05E0601E80B2041E48
:104D800001D1012010BD4FF400710B48FFF7C5F8A9
:104D90000028F2D14FF480710848FFF7C9F80520C8
:104DA00008F03AFB4FF480710448FFF7BFF8052084
:104DB00008F032FB0020E5E7000802400000024056
:104DC00070B505F03BFB40211148FFF7AFF8802498
:104DD00019E080210E48FFF7A0F808B9A54300E0CC
:104DE00025430A2008F018FB40210948FFF7A0F8E6
:104DF0000A2008F011FB40210548FFF797F80A2028
:104E000008F00AFB6410002CE3D1284670BD0000B6
:104E10000004024010B505F02BFB40210D48FFF7C0
:104E200085F80A2008F0F8FA80210A48FFF77EF892
:104E30000A2008F0F1FA40210648FFF779F80A2025
:104E400008F0EAFA40210348FFF770F80A2008F05A
:104E5000E3FA10BD0004024070B5054605F008FBFA
:104E600080241DE004EA050020B980210E48FFF7E8
:104E70005DF803E080210C48FFF75AF80A2008F09B
:104E8000CBFA40210848FFF753F80A2008F0C4FA8B
:104E900040210548FFF74AF80A2008F0BDFA6410DF
:104EA000002CDFD170BD00000004024010B505F0F9
:104EB000DFFA40210D48FFF739F80A2008F0ACFA74
:104EC00080210A48FFF734F80A2008F0A5FA4021AB
:104ED0000648FFF72DF80A2008F09EFA4021034803
:104EE000FFF724F80A2008F097FA10BD00040240EA
:104EF00010B505F0BDFA40210D48FFF719F80A205A
:104F000008F08AFA80210A48FFF712F80A2008F010
:104F100083FA80210648FFF709F80A2008F07CFA96
:104F200040210348FFF702F80A2008F075FA10BD87
:104F30000004024010B505F09BFA40210C48FEF732
:104F4000F5FF80210A48FEF7F1FF0A2008F064FA15
:104F500040210748FEF7ECFF0A2008F05DFA8021A7
:104F60000348FEF7E5FF0A2008F056FA10BD0000DE
:104F70000004024010B5022405F060FA052008F094
:104F80004BFA05E0601E80B2041E01D1012010BD65
:104F900080210A48FEF7C1FF0028F3D140210748CD
:104FA000FEF7C6FF0A2008F037FA40210348FEF753
:104FB000BDFF0A2008F030FA0020E8E700040240B4
:104FC00070B500F017F94FF480711348FEF7AEFF8B
:104FD00080241CE04FF400710F48FEF79EFF08B9D3
:104FE000A54300E02543C820FEF783FC4FF4807101
:104FF0000948FEF79DFFC820FEF77BFC4FF4807147
:105000000548FEF793FFC820FEF773FC6410002CE0
:10501000E0D1284670BD00000004024010B500F049
:1050200001F94FF480710F48FEF780FFC820FEF7AA
:1050300060FC4FF400710B48FEF778FFC820FEF7C4
:1050400058FC4FF480710748FEF772FFC820FEF746
:1050500050FC4FF480710348FEF768FFC820FEF74C
:1050600048FC10BD0004024070B5054600F0DAF8B7
:10507000C820FEF73EFC802421E004EA050028B9A0
:105080004FF400710F48FEF751FF04E04FF4007138
:105090000C48FEF74DFFC820FEF72BFC4FF4807143
:1050A0000848FEF745FFC820FEF723FC4FF4807147
:1050B0000448FEF73BFFC820FEF71BFC6410002CE1
:1050C000DBD170BD0004024010B500F0ABF84FF426
:1050D00080710F48FEF72AFFC820FEF70AFC4FF444
:1050E00000710B48FEF724FFC820FEF702FC4FF4C6
:1050F00080710748FEF71CFFC820FEF7FAFB4FF44B
:1051000080710348FEF712FFC820FEF7F2FB10BDC6
:105110000004024010B500F085F84FF480710E488D
:10512000FEF706FF4FF400710B48FEF701FFC820A1
:10513000FEF7DFFB4FF400710748FEF7F7FEC820CB
:10514000FEF7D7FB4FF480710348FEF7EFFEC8204F
:10515000FEF7CFFB10BD00000004024010B500F0C8
:1051600061F84FF480710E48FEF7E0FE4FF40071D5
:105170000B48FEF7DBFEC820FEF7BBFB4FF4807147
:105180000748FEF7D5FEC820FEF7B3FB4FF40071C9
:105190000348FEF7CDFEC820FEF7ABFB10BD0000B4
:1051A0000004024010B541F2883400F023F805E015
:1051B000601E80B2041E01D1012010BD4FF40071A9
:1051C0000B48FEF7AAFE0028F2D14FF48071084880
:1051D000FEF7AEFEC820FEF78CFB4FF4807104484A
:1051E000FEF7A4FEC820FEF784FB0020E5E70000E0
:1051F000000402401CB54FF40070009000208DF8B0
:10520000040003208DF8050000208DF80600012021
:105210008DF8070069460248FEF714FE1CBD000029
:10522000000402401CB54FF40070009001208DF87E
:10523000040003208DF8050000208DF806000120F1
:105240008DF8070069460248FEF7FCFD1CBD000012
:105250000004024000B587B0FBF7BAFB4FF44030C2
:105260004FF480714A01CB00CDE90232CDE9041040
:10527000282000210D4B0E4ACDE900100D48FEF705
:105280003FFB01210B48FEF7F5F8012108484C3897
:10529000FBF7F1FA012106484C38FBF7E1FA044824
:1052A0004C38FBF779FB07B000BD0000D833002075
:1052B0004C2001401064024001200349C870F120D5
:1052C00049680870704700003400002030B50B4674
:1052D000002100BF16E00A24B4EB107F05D930246A
:1052E00004EB107403F8114005E0412404EB107442
:1052F0000A3C03F81140000100254C00641C1D55B8
:105300004C1CE1B29142E6DB30BD00BFFEE730B598
:1053100005460C4622460021284600F001F830BD23
:105320002DE9F04105460B4694460027002402E093
:105330003F021F43641C042CFAD3604605F00306A9
:10534000294646B1344603E001F8013B401E641C87
:1053500008B1042CF8D30A4601E080C2001F0428DB
:10536000FBD2114602E001F8013B401E0028FAD1B1
:10537000BDE8F0817047000070B5002100230F22C6
:10538000C4781CB3174C246804F4E064C4F5E064EA
:10539000C4F30721C1F10404E3B20A4144789C40FC
:1053A000E1B28478144021430C07210E0E4C05789D
:1053B0006155047804F01F050124AC4005786D1197
:1053C000AD0005F1E025C5F8004109E0047804F0DE
:1053D0001F050124AC40054D0678761145F826409E
:1053E00070BD00000CED00E000E400E080E100E0B2
:1053F00002490143024A1160704700000000FA05AB
:105400000CED00E0024A0A400243024B1A6070476A
:1054100080FFFF1F08ED00E070B52DED088B0446FE
:105420002046FBF792F841EC1B0B9FED0F0B53EC62
:10543000102BFAF798FF41EC1A0B9FED0D0B53EC74
:10544000102BFBF702F841EC190B9FED0B0B53EC03
:10545000102BFAF785FF41EC180BFBF7A2F885B289
:105460002846BDEC088B70BD3333333333333D40B6
:1054700000000000000059400000000000E0734000
:1054800008B54FF4E060FFF7B3FF34208DF800005B
:1054900000208DF8010001208DF802008DF8030036
:1054A0006846FFF769FF11208DF8000000208DF895
:1054B000010002208DF8020001208DF803006846EB
:1054C000FFF75AFF0F208DF8000000208DF8010033
:1054D00003208DF8020001208DF803006846FFF7D5
:1054E0004BFF26208DF8000000208DF801000420DD
:1054F0008DF8020001208DF803006846FFF73CFF9D
:105500001C208DF8000000208DF8010005208DF88A
:10551000020001208DF803006846FFF72DFF08BD4B
:105520007047000010B50348006810B101480068DA
:10553000804710BDBC02002070B5044600F0C2F8E0
:10554000002048490870484908704849087048498F
:105550000860484908604849087048490870484947
:105560000870484908604849086048490860484947
:105570000870484800680A21B0FBF1F0464908600D
:105580004648006858B14648056845B14348066832
:1055900003E0761E002028602D1D002EF9D100208A
:1055A0004049086040490860404908604049086037
:1055B0004049086040490860404908604049087017
:1055C00002F0F2FD02F0D2FE204601F03DFF2088FD
:1055D00000B170BD204602F01DFB208800B1F8E745
:1055E000204602F023FB208800B1F2E7204602F0BB
:1055F0001FFC208800B1ECE7204602F005FE208861
:1056000000B1E6E7204603F025F8208800B1E0E786
:10561000204603F03FFB208800B1DAE7204602F085
:1056200065FA208800B1D4E7204602F07FF8208890
:1056300000B1CEE7204604F0BDFA208800B1C8E7EB
:10564000204603F071FA208800B1C2E7204604F03A
:1056500029FB208800B1BCE701F020FEFFF760FFC6
:1056600000BFB6E7D0020020D102002018030020BE
:10567000880300208C030020FE020020FF0200208F
:10568000000300200C03002010030020140300205E
:105690002003002008D800081C030020D8D70008E9
:1056A000D4D70008B0020020B4020020B8020020C5
:1056B000BC020020C0020020C4020020C80200205A
:1056C0004E030020064800680649096800EB810087
:1056D000054908600846006820F007000860704728
:1056E000D4D70008D8D700089003002008480078D5
:1056F000012800D0704707480078FA2800DBF9E756
:1057000004480078401C0349087000BFF2E700001D
:10571000D1020020D002002010B500242D480078CE
:10572000012800D010BD00BFFAF74EFD044600BFAF
:105730002948007828B900BF2046FAF749FD00BF84
:10574000F0E725480078401E234908700846007895
:10575000002805DD00BF2046FAF73AFD00BFE1E76B
:105760001E480078002805DD00BF2046FAF730FD0E
:1057700000BFD7E702F004FD194908700846007819
:1057800000EB4000174951F820001749086008460F
:10579000006816490968884205D100BF2046FAF71B
:1057A00017FD00BFBEE710480068D0F88C00401C11
:1057B0000D490968C1F88C000D480068401C0C496F
:1057C0000860FAF7E9FF00BF2046FAF701FD00BFC5
:1057D00000BFA7E7D1020020D0020020180300205C
:1057E000FF020020C85200208C0300208803002004
:1057F000440300202DE9F04104460E4615460027DB
:1058000029480078002804DD42F6E1602880BDE8E0
:10581000F0811CB945F6C3502880F8E700BF00BFEF
:1058200000BFFAF7D1FC074600BF00BF1F48007851
:10583000401C1E49087000BF00BF3846FAF7C8FC7C
:1058400000BF00BF00BF1A482060666000202062D1
:1058500084F82500A062402084F8240004F10800A8
:1058600002F09DFB204602F0CBFA12480088401C53
:105870001049088000BF00BF00BFFAF7A5FC07462B
:1058800000BF00BF09480078401E0849087000BFEB
:1058900000BF3846FAF79CFC00BF00BF00BF0020E5
:1058A000288000BFB3E70000D002002018030020CA
:1058B0004D555458FC0200202DE9F04788B00546AC
:1058C000894690461C46109E4FF0000AAB4800786F
:1058D000002805DD46F2AE10308008B0BDE8F08744
:1058E0001DB945F6C3503080F7E7B8F1000F03D07B
:1058F000B8F5004F02D100E000BF03E045F6256097
:105900003080EAE700BF9E492868884203D045F608
:10591000C4503080E1E70CB10020206000BF00BF20
:10592000FAF752FC824600BF00BF95F82500C0B9C7
:105930009448006828629348006890F8370085F81A
:105940002400012085F825000CB1A86A206000BF62
:1059500000BF5046FAF73CFC00BF00BF002030807B
:10596000BBE78849286A0968884212D195F8250062
:10597000401C85F825000CB1A86A206000BF00BF5C
:105980005046FAF725FC00BF00BF45F28270308018
:10599000A3E708F4004050B100BF00BF5046FAF73B
:1059A00017FC00BF00BF46F2B010308095E7764884
:1059B000007800280ADD00BF00BF5046FAF708FC57
:1059C00000BF00BF46F66350308086E700BF6E48D8
:1059D0000078401C6C49087000BF00BF5046FAF7C1
:1059E000F7FB00BF00BF00BF2F6A97F8370065497B
:1059F000096891F83710884260DD97F8360008286A
:105A00002AD2DFE800F004151E1F171620213846A1
:105A100002F034FD5B48006890F8370087F83700E3
:105A200097F8370002F0CCFB384602F0C7FC44E0A0
:105A300000BF00BF5348006890F8370087F8370070
:105A40003BE000BF00BF00BF4E48006890F8371031
:105A5000384602F081FA30E000BF00BF00BFFAF71D
:105A6000B3FB824600BF00BF47480078401E46494E
:105A7000087008460078A0B944480088002809DD6D
:105A800000BF00BF5046FAF7A3FB00BF00BF02F003
:105A900023FD0DE000BF00BF5046FAF799FB00BFA1
:105AA00006E000BF00BF5046FAF792FB00BF00BF00
:105AB00000BF46F62D6030800FE700BF4B46042242
:105AC0002946684602F0C0F900BF00BF00BFFAF7E0
:105AD0007BFB824600BF00BF2B480078401E2A494E
