:020000040800F2
:10000000A04F00206902000889370008C93600089F
:100010001F370008C5190008C1A90008000000002A
:10002000000000000000000000000000A3850008A0
:100030008D2B0008000000001F040008B98700088D
:10004000830200088302000883020008830200087C
:10005000830200088302000883020008830200086C
:10006000830200088302000883020008830200085C
:100070008302000883020008830200086928000840
:100080008302000879280008830200088302000820
:10009000830200088302000883020008830200082C
:1000A000830200088302000883020008830200081C
:1000B000830200088302000883020008830200080C
:1000C00083020008830200088302000883020008FC
:1000D0008302000883020008358C000883020008B0
:1000E00083020008830200088302000883020008DC
:1000F00083020008830200088302000883020008CC
:1001000083020008830200088302000883020008BB
:10011000258C00088302000883020008830200087F
:10012000830200088302000883020008830200089B
:10013000830200088302000883020008830200088B
:10014000830200088302000883020008318200084D
:10015000830200088302000883020008830200086B
:10016000830200088302000883020008830200085B
:10017000830200088302000883020008830200084B
:10018000830200088302000800F002F800F05CF827
:100190000AA090E8000C82448344AAF10107DA45E2
:1001A00001D100F051F8AFF2090EBAE80F0013F0D8
:1001B000010F18BFFB1A43F001031847F8BA0000FB
:1001C00018BB00000A444FF0000C10F8013B13F07C
:1001D000070408BF10F8014B1D1108BF10F8015BA0
:1001E000641E05D010F8016B641E01F8016BF9D193
:1001F00013F0080F1EBF10F8014BAD1C0C1B09D1EA
:100200006D1E58BF01F801CBFAD505E014F8016B5B
:1002100001F8016B6D1EF9D59142D6D370470000ED
:100220000023002400250026103A28BF78C1FBD8FF
:10023000520728BF30C148BF0B6070471FB50BF095
:1002400035FC1FBD10B510BD00F094F81146FFF746
:10025000F5FF0AF011FE00F0B2F803B4FFF7F2FF69
:1002600003BC00F0B9F8000009488047094800477E
:10027000FEE7FEE7FEE7FEE7FEE7FEE7FEE7FEE756
:10028000FEE7FEE704480549054A064B70470000B3
:100290002988000889010008A0490020A04F0020FB
:1002A000A04B0020A04B002072B6704762B670478A
:1002B000EFF3108072B6704780F31088704730BF3C
:1002C000704720BF7047B0FA80F0704790FAA0F0F6
:1002D000B0FA80F0704790FAA0F070474FF000023B
:1002E0000429C0F0128010F0030C00F01E80CCF145
:1002F000040CBCF1020F18BF00F8012BA8BF20F8B6
:10030000022BA1EB0C0100F010B85FEAC17C24BF06
:1003100000F8012B00F8012B48BF00F8012B7047B3
:100320007047704770474FF0000200B5134694467F
:100330009646203922BFA0E80C50A0E80C50B1F13D
:100340002001BFF4F7AF090728BFA0E80C5048BF51
:100350000CC05DF804EB890028BF40F8042B08BFEF
:10036000704748BF20F8022B11F0804F18BF00F8EB
:10037000012B7047754600F02BF8AE460500694624
:10038000534620F00700854618B020B5FFF77AFFE6
:10039000BDE820404FF000064FF000074FF0000886
:1003A0004FF0000B21F00701AC46ACE8C009ACE807
:1003B000C009ACE8C009ACE8C0098D46704710B56B
:1003C0000446AFF300802046BDE81040FFF745BF6C
:1003D000004870473C49002001491820ABBEFEE7A9
:1003E000260002007047000022484FF6FF7101709E
:1003F000002080F309882048016881F308881F489D
:100400004FF08051016062B6FEE71C484FF080510A
:100410000160704719484FF080510160704772B613
:10042000EFF3098050B11EF0100F08BF20ED108AC5
:10043000203880E8F00F12490968086000B51148BB
:1004400080475DF804EB104810490A7802700C48A8
:100450000F490A680260106890E8F00F20301EF023
:10046000100F08BFB0EC108A80F309884EF0040E1C
:1004700062B6704722ED00E0CC02002004ED00E0FF
:10048000C4020020655000083A0200203B02002010
:10049000C802002021B1826842F00102826003E0BC
:1004A000826822F001028260704700000021084A41
:1004B0001168084A1140D0E900231A4383681A439F
:1004C000C3681A431143044AC2F80413704700007A
:1004D00004230140E030FCFF0020014021B182688C
:1004E00042F48072826003E0826822F4807282604B
:1004F000704721B1826842F40072826003E0826832
:1005000022F400728260704730B50246002000235A
:100510005068104C20400D790C6844EA05242043B3
:10052000506090680C4C2040D1E903542C438D68F6
:100530002C434D7944EA450420439060D06A20F46E
:1005400070000C7D641EE4B2234340EA0350D06285
:1005500030BD0000FFFEFFFCFDF7FFC0F0B5044614
:100560000D4600200021092D11DDE068A5F10A06E5
:1005700006EB4607072606FA07F18843A5F10A06A7
:1005800006EB460603FA06F10843E0600CE020693A
:1005900005EB4507072606FA07F1884305EB4506F4
:1005A00003FA06F108432061072A0FDA606B561E32
:1005B00006EB86071F2606FA07F18843561E06EB50
:1005C000860605FA06F10843606322E00D2A0FDA79
:1005D000206BD61F06EB86071F2606FA07F1884315
:1005E000D61F06EB860605FA06F10843206310E0E5
:1005F000E06AA2F10D0606EB86071F2606FA07F150
:100600008843A2F10D0606EB860605FA06F10843BB
:10061000E062F0BD816841F0804181607047000078
:1006200000B593B0012000F00FFD05900BF036F8F7
:100630009FEDFE0B53EC102BCDE906019DED060B53
:1006400051EC100B0BF03EF89FEDFA0B53EC102B16
:10065000CDE908019DED080B51EC100B0AF052FE9C
:100660009FEDF60B53EC102BCDE90A019DED0A0B23
:1006700051EC100B0AF046FE9FEDF20B53EC102BE1
:10068000CDE90C019DED0C0B51EC100B0BF01AF8A1
:100690009FEDEE0B53EC102BCDE90E019DED0E0BF3
:1006A00051EC100B0BF00EF8CDE910019DED100B85
:1006B00051EC100B0AF0AEFFE6498883022000F0EF
:1006C000C3FC01900AF0EAFF9FEDD80B53EC102B0E
:1006D000CDE902019DED020B51EC100B0AF0F2FF87
:1006E0009FEDD40B53EC102BCDE904019DED040BD1
:1006F00051EC100B0AF006FE9FEDCC0B53EC102BC7
:10070000CDE906019DED060B51EC100B0BF0D8F86E
:100710009FEDD10B53EC102BCDE908019DED080B9B
:1007200051EC100B0AF0EEFD9FEDCD0B53EC102BAE
:10073000CDE90A019DED0A0B51EC100B0AF0C2FF46
:100740009FEDBA0B53EC102BCDE90C019DED0C0B7A
:1007500051EC100B0BF0B4F89FEDB40B53EC102BD5
:10076000CDE90E019DED0E0B51EC100B0BF0B4F822
:10077000CDE910019DED100B51EC100B0AF04AFF72
:10078000B449C883032000F05FFC05900AF086FF9F
:100790009FEDA60B53EC102BCDE906019DED060B4A
:1007A00051EC100B0AF08EFF9FEDA20B53EC102BB7
:1007B000CDE908019DED080B51EC100B0AF0A2FDEC
:1007C0009FED9E0B53EC102BCDE90A019DED0A0B1A
:1007D00051EC100B0AF096FD9FED9A0B53EC102B89
:1007E000CDE90C019DED0C0B51EC100B0AF06AFFEA
:1007F0009FED960B53EC102BCDE90E019DED0E0BEA
:1008000051EC100B0AF05EFFCDE910019DED100BCD
:1008100051EC100B0AF0FEFE8E490884042000F013
:1008200013FC01900AF03AFF9FED800B53EC102B64
:10083000CDE902019DED020B51EC100B0AF042FFD5
:100840009FED7C0B53EC102BCDE904019DED040BC7
:1008500051EC100B0AF056FD9FED740B53EC102B6E
:10086000CDE906019DED060B51EC100B0BF028F8BD
:100870009FED790B53EC102BCDE908019DED080B92
:1008800051EC100B0AF03EFD9FED750B53EC102B55
:10089000CDE90A019DED0A0B51EC100B0AF012FF95
:1008A0009FED620B53EC102BCDE90C019DED0C0B71
:1008B00051EC100B0BF004F89FED5C0B53EC102B7C
:1008C000CDE90E019DED0E0B51EC100B0BF004F871
:1008D000CDE910019DED100B51EC100B0AF09AFEC2
:1008E0005C494884052000F0AFFB05900AF0D6FE75
:1008F0009FED4E0B53EC102BCDE906019DED060B41
:1009000051EC100B0AF0DEFE9FED4A0B53EC102B5E
:10091000CDE908019DED080B51EC100B0AF0F2FC3B
:100920009FED510B53EC102BCDE90A019DED0A0B05
:1009300051EC100B0AF0E6FC9FED4D0B53EC102B25
:10094000CDE90C019DED0C0B51EC100B0AF0BAFE39
:100950009FED3E0B53EC102BCDE90E019DED0E0BE0
:1009600051EC100B0AF0AEFECDE910019DED100B1D
:1009700051EC100B0AF04EFE36498884062000F038
:1009800063FB05900AF08AFE9FED280B53EC102BB9
:10099000CDE906019DED060B51EC100B0AF092FE1D
:1009A0009FED240B53EC102BCDE908019DED080BB6
:1009B00051EC100B0AF0A6FC9FED2B0B53EC102B07
:1009C000CDE90A019DED0A0B51EC100B0AF09AFCDF
:1009D0009FED270B53EC102BCDE90C019DED0C0B7B
:1009E00051EC100B0AF06EFE9FED180B53EC102B20
:1009F000CDE90E019DED0E0B51EC100B0AF062FEDD
:100A0000CDE910019DED100B51EC100B0AF002FE28
:100A10001049C884072000F017FB05900AF03EFE3D
:100A20009FED020B53EC102B26E000006666666615
:100A300066660A400000000000FEAF40E17A14AE96
:100A400047E11040AE47E17A140E5A400000000022
:100A500000005940C81B00205C8FC2F5285C05408F
:100A60007B14AE47E1AA59400000000000002E4070
:100A70003333333333F34340CDE906019DED060BA9
:100A800051EC100B0AF01EFE1FED160B53EC102B51
:100A9000CDE908019DED080B51EC100B0AF032FC7A
:100AA0009FEDFE0B53EC102BCDE90A019DED0A0BD7
:100AB00051EC100B0AF026FC9FEDFA0B53EC102BB7
:100AC000CDE90C019DED0C0B51EC100B0AF0FAFD79
:100AD0001FED220B53EC102BCDE90E019DED0E0BFB
:100AE00051EC100B0AF0EEFDCDE910019DED100B5D
:100AF00051EC100B0AF08EFDEC490885082000F03F
:100B0000A3FA01900AF0CAFD1FED380B53EC102B2D
:100B1000CDE902019DED020B51EC100B0AF0D2FD64
:100B20001FED3C0B53EC102BCDE904019DED040BA4
:100B300051EC100B0AF0E6FB1FED440B53EC102BAD
:100B4000CDE906019DED060B51EC100B0AF0B8FE45
:100B50009FEDD20B53EC102BCDE908019DED080B56
:100B600051EC100B0AF0CEFB9FEDD10B53EC102B88
:100B7000CDE90A019DED0A0B51EC100B0AF0A2FD24
:100B80001FED560B53EC102BCDE90C019DED0C0B1A
:100B900051EC100B0AF0A0FE1FED540B53EC102B80
:100BA000CDE90E019DED0E0B51EC100B0AF08AFD04
:100BB000CDE910019DED100B51EC100B0AF02AFD50
:100BC000BA494885092000F03FFA05900AF066FD11
:100BD0001FED6A0B53EC102BCDE906019DED060BC2
:100BE00051EC100B0AF06EFD1FED6E0B53EC102B49
:100BF000CDE908019DED080B51EC100B0AF082FBCA
:100C00001FED670B53EC102BCDE90A019DED0A0B8C
:100C100051EC100B0AF076FB1FED6B0B53EC102B15
:100C2000CDE90C019DED0C0B51EC100B0AF04AFDC7
:100C30001FED7A0B53EC102BCDE90E019DED0E0B41
:100C400051EC100B0AF03EFDCDE910019DED100BAB
:100C500051EC100B0AF0DEFC944988850A2000F064
:100C6000F3F905900AF01AFD1FED900B53EC102BD1
:100C7000CDE906019DED060B51EC100B0AF022FDAB
:100C80001FED940B53EC102BCDE908019DED080BE3
:100C900051EC100B0AF036FB1FED8D0B53EC102BB3
:100CA000CDE90A019DED0A0B51EC100B0AF02AFB6D
:100CB0001FED910B53EC102BCDE90C019DED0C0BAE
:100CC00051EC100B0AF0FEFC1FEDA00B53EC102BA7
:100CD000CDE90E019DED0E0B51EC100B0AF0F2FC6C
:100CE000CDE910019DED100B51EC100B0AF092FCB8
:100CF0006E49C8850B2000F0A7F905900AF0CEFCDC
:100D00001FEDB60B53EC102BCDE906019DED060B44
:100D100051EC100B0AF0D6FC1FEDBA0B53EC102B64
:100D2000CDE908019DED080B51EC100B0AF0EAFA31
:100D30009FED5A0B53EC102BCDE90A019DED0A0BE8
:100D400051EC100B0AF0DEFA9FED5B0B53EC102B0D
:100D5000CDE90C019DED0C0B51EC100B0AF0B2FC2F
:100D60001FEDC60B53EC102BCDE90E019DED0E0BC4
:100D700051EC100B0AF0A6FCCDE910019DED100B13
:100D800051EC100B0AF046FC484908860C2000F094
:100D90005BF905900AF082FC1FEDDC0B53EC102B85
:100DA000CDE906019DED060B51EC100B0AF08AFC13
:100DB0001FEDE00B53EC102BCDE908019DED080B66
:100DC00051EC100B0AF09EFA1FEDD90B53EC102BCF
:100DD000CDE90A019DED0A0B51EC100B0AF092FAD5
:100DE0001FEDDD0B53EC102BCDE90C019DED0C0B31
:100DF00051EC100B0AF066FC1FEDEC0B53EC102BC2
:100E0000CDE90E019DED0E0B51EC100B0AF05AFCD2
:100E1000CDE910019DED100B51EC100B0AF0FAFB1F
:100E2000224948860D2000F00FF905900AF036FCA3
:100E30009FED230B53EC102BCDE906019DED060B26
:100E400051EC100B0AF03EFC9FED1F0B53EC102BE6
:100E5000CDE908019DED080B51EC100B0AF052FA98
:100E60009FED1B0B53EC102BCDE90A019DED0A0BF6
:100E700051EC100B0AF046FA9FED170B53EC102BB8
:100E8000CDE90C019DED0C0B51EC100B0AF01AFC96
:100E90009FED130B53EC102B26E00000F6285C8F1F
:100EA000C2F51340A4703D0AD7E33D40C81B0020A3
:100EB0008FC2F5285CBF5C407B14AE47E1FA2D4041
:100EC0006666666666660A400000000000FEAF4087
:100ED000000000000000244000000000000034403A
:100EE0000000000000005940CDE90E019DED0E0B01
:100EF00051EC100B0AF0E6FBCDE910019DED100B53
:100F000051EC100B0AF086FB274988860E2000F072
:100F10009BF805900AF0C2FB1FED170B53EC102B4A
:100F2000CDE906019DED060B51EC100B0AF0CAFB52
:100F30001FED1B0B53EC102BCDE908019DED080BA9
:100F400051EC100B0AF0DEF91FED1F0B53EC102BC8
:100F5000CDE90A019DED0A0B51EC100B0AF0D2F914
:100F60001FED230B53EC102BCDE90C019DED0C0B69
:100F700051EC100B0AF0A6FB1FED270B53EC102BC6
:100F8000CDE90E019DED0E0B51EC100B0AF09AFB12
:100F9000CDE910019DED100B51EC100B0AF03AFB5E
:100FA0000149C88613B000BDC81B002030B58BB006
:100FB00004460D462148844203D10121801507F0E3
:100FC000A9F91F48844203D10121401507F0A2F975
:100FD0001C48844203D10121001507F09BF901212F
:100FE0004FF4A06007F0A6F900214FF4A06007F0CD
:100FF000A1F9002007904FF480300890002009905C
:101000000A9007A8FFF752FA0020019001208DF8FE
:1010100008008DF80900002003904FF070600490E4
:10102000002005908DF8185001A92046FFF76CFAB2
:1010300001212046FFF72EFA0BB030BD0020014001
:101040000021014000220140F0B58AB0034600248F
:1010500000210BE0C1EBC1001B4E06EB8006581EC1
:1010600036F810002DF81100481CC1B21429F1DB2C
:1010700000211AE0002212E03DF81260501C3DF8F9
:101080001000864209DD3DF81250501C3DF810005A
:101090002DF81200501C2DF81050501CC2B2C1F196
:1010A00013009042E8DC481CC1B21429E2DB0221A3
:1010B00004E03DF811000444481CC1B21229F8DBD9
:1010C000C4F30F100AB0F0BDD822002010B51C48A0
:1010D000808841F64C51884230DD19488088B0F54F
:1010E0007A7F2BDA1648C088884227DD1448C088EA
:1010F000B0F57A7F22DA12480089B0F5FA7F1DDD5B
:101100000F480089FA2819DA0D484089B0F5FA7FAE
:1011100014DD0B484089FA2810DA0949888800F064
:101120007CF8074A5189D08800F065F8044908899D
:1011300000F056F80249488900F052F810BD00004E
:10114000C81B002010B52448808841F64C518842C5
:1011500040DC21488088B0F57A7F3BDB1E48C088A0
:10116000884237DC1C48C088B0F57A7F32DB1A48E9
:10117000008988422EDC18480089B0F5FA7F29DB07
:1011800015484089884225DC13484089B0F5FA7F2C
:1011900020DB4FF40041114801F08AFE4FF48041FA
:1011A0000E4801F085FE0C49888800F036F80A499F
:1011B000088900F041F8084A5189D08800F01BF8EE
:1011C0004FF40041054801F071FE4FF4804103489F
:1011D00001F06CFE10BD0000C81B0020001802408A
:1011E00070B50446204607F031F80546E9B2012003
:1011F00001F00CFC70BD2DE9F04105460C46284677
:1012000009F0F2FC0646204609F0EEFC0746F9B26A
:10121000F0B201F057FCBDE8F08170B504462046FD
:1012200009F032FD05462946002000F07DFD012130
:10123000002000F099FD70BD70B50446204609F00D
:1012400023FD05462946002000F07EFD01211020E7
:1012500000F08AFD70BD00000EB5F5E07B4A117903
:10126000106807F001F901280DD1794A1179106849
:10127000FFF734F800F03CFC7549086801F060FDA8
:10128000744807F08FF9744A1179106807F0ECF888
:10129000012806D1704A11791068FFF71FF800F095
:1012A00027FC6E4890F8470001283DD100216B488B
:1012B00080F8471002206A4988700820C870674883
:1012C000808B0012496808706448007F644949684F
:1012D00048706248C08B00126149496888705F4855
:1012E000807F5F494968C8705C48008C00125C4987
:1012F00049680871594890F820005949496848716F
:101300005648408C0012564949688871534890F8F5
:10131000220053494968C8714D49086801F010FD21
:101320004C48303807F03EF94C4890F84800012806
:101330003DD10021494880F8481003204849887071
:101340000820C8704548808B0012496808704348DF
:10135000007F4349496848704048C08B00124049AB
:10136000496888703D48807F3D494968C8703B485E
:10137000008C00123A4949680871384890F82000FA
:101380003749496848713548408C001234494968EA
:101390008871324890F8220031494968C8712C4957
:1013A000086801F0CDFC2B48303807F0FBF82B48DB
:1013B00090F8460001283DD10020284981F84600D8
:1013C000F020274988700820C8702448808B0012BC
:1013D000496808702148007F2149496848701F48C2
:1013E000C08B00121E49496888701C48807F1C49C8
:1013F0004968C8701948008C001219494968087179
:10140000164890F820001649496848711348408CE6
:101410000012134949688871104890F82200104959
:101420004968C8710A49086801F08AFC09483038DF
:1014300007F0B8F802A808210A230022CDE900101D
:101440001146104603F0D8FE08E7000050000020C7
:1014500058000020A060024040000020C81B00206F
:101460002400002000B58BB00AA8032100220592B9
:10147000CDE90621089010464FF480711922074BE0
:10148000CDE90132CDE9031006200023044A05A16D
:101490000090084803F0A2F80BB000BD40120020F5
:1014A000591200084170705F436F6D5F5461736B38
:1014B00000000000801100200EB50FE04FF48061A5
:1014C000074801F0F7FC02A808214FF4FA73002244
:1014D000CDE900101146104603F08EFEEEE7000045
:1014E000000C024000B58BB00AA80321002205922F
:1014F000CDE90621089010464FF480711922074B60
:10150000CDE90132CDE9031003200023044A05A1EF
:101510000090084803F062F80BB000BD800800207E
:10152000B91400084170705F4C65645F5461736B5F
:1015300000000000C007002010B586B0002400F0B5
:1015400043FA05A802F0C8FF05AA0121084602F0E7
:1015500077FE00BF00BF00BFFEF7AAFE044600BF33
:1015600000BF2D480078401C2B49087000BF00BF09
:101570002046FEF7A1FE00BF00BF00BFFFF7B2FF8D
:1015800000F0C2F9FFF76EFF00F09AF805A80021FD
:10159000224A0223CDE90032CDE9021001231A4686
:1015A0001FA1244803F048FF05A9224803F09EFF2D
:1015B00005A9214803F026FD00BF00BF00BFFEF7CC
:1015C00077FE044600BF00BF13480078401E124952
:1015D000087008460078A0B918480088002809DD7E
:1015E00000BF00BF2046FEF767FE00BF00BF05F04A
:1015F0001BF90DE000BF00BF2046FEF75DFE00BFF7
:1016000006E000BF00BF2046FEF756FE00BF00BF49
:1016100000BF06B010BD0000540200202DAD000830
:101620005379735F537461746543686B5F546D7273
:101630000000000090030020D002002018020020CB
:1016400000B58BB00AA8032100220592CDE906213E
:10165000089010464FF480711922074BCDE90132F2
:10166000CDE903101E200023044A05A1009008487C
:1016700002F0B4FF0BB000BDC00300203915000814
:101680004170705F53746172745F5461736B0000DA
:10169000D00200200EB511E0BDF8080007F024F9D3
:1016A000BDF8080007F028FA02A808210A23002242
:1016B000CDE900101146104603F09EFDECE7000056
:1016C00000B58BB00AA8032100220592CDE90621BE
:1016D000089010464FF480711922074BCDE9013272
:1016E000CDE9031008200023044A05A10090084812
:1016F00002F074FF0BB000BD001700209516000823
:101700005379734F6E4F66665461736B5463620016
:10171000401600200EB5E5E009F0A0F960B172486E
:101720000068C1B2714806F09FFE012801D100F0A7
:10173000DFF900206C4908606D4890F847000128E7
:101740003FD100216A4880F847100220694988701B
:101750000820C8706648808B001249680870644889
:10176000007F6449496848706148C08B0012614934
:10177000496888705E48807F5E494968C8705C48E7
:10178000008C00125B4949680871594890F82000A4
:101790005849496848715648408C00125549496873
:1017A0008871534890F8220052494968C8715248DC
:1017B00001F0C6FA5048C078811D5048C2684E48B2
:1017C00090474B4890F8480001283FD100214848F5
:1017D00080F848100320474988700820C8704448A2
:1017E000808B0012496808704148007F4149496870
:1017F00048703F48C08B00123E49496888703C4899
:10180000807F3C494968C8703948008C00123949CA
:1018100049680871364890F820003649496848718F
:101820003348408C0012334949688871304890F839
:10183000220030494968C8712F4801F081FA2E48CA
:10184000C078811D2D48C2682B489047284890F8E1
:101850004900A8B10121264880F8491000202549F7
:1018600088700120C870002049680870224801F083
:1018700067FA2148C078811D2048C2681E489047F9
:101880001B4890F84A0018B30121194880F84A1003
:1018900013201849C87008464168194802680A6050
:1018A00042684A6002890A81807A887211484068D9
:1018B00014490A6840F80B2F496841600E4801F04E
:1018C0003FFA0D48C078811D0C48C2680A4890470D
:1018D00002A808210A230022CDE900101146104673
:1018E00003F08AFC18E70000700000207226002038
:1018F000C81B002024000020800C00207C00002059
:10190000000000200B00002000B58BB00AA80321C6
:1019100000220592CDE90621089010464FF480710F
:101920001922074BCDE90132CDE903100420002331
:10193000044A05A10090084802F050FE0BB000BD1B
:10194000800D0020151700084170705F5573625FAD
:101950005461736B00000000C00C00201FB5684686
:1019600006F0F8FC019804B010BD000008B5002195
:101970004FF0006001F050FF01F058FF01F038FB1C
:101980000C480D4B0D4A012100900D4807F0D5FC85
:1019900006F01CFF00F034F901F0FAF806F088FEBA
:1019A00009F092F8002001F0DBF8102001F0D8F8DF
:1019B00008BD0000E8000020280100209000002061
:1019C0001C1C002000BFFEE710B500F01FF800F05F
:1019D00019F810BD10B5002400BF00BFFEF768FC69
:1019E000044600BF00BF1021054801F09AFE00BF69
:1019F00000BF2046FEF760FC00BF00BF10BD000026
:101A0000B22E002010B5FFF7E5FF10BD10B5002085
:101A10000249086000F00AF810BD0000E001002053
:101A20000149086070470000E001002010B5FFF791
:101A300095FF04460848006840F080700649086039
:101A40000020064948600846006840F00100086030
:101A50002046FFF7E5FF10BDFCED00E0001000E0C0
:101A60000149486870470000001000E01F48808866
:101A700096301E498881084680889638C881084675
:101A800080889630088208468088963848820846C2
:101A90000078012811D1002008700846008996308E
:101AA0008882084600899638C882084600899630A0
:101AB000088308460089963848830C4840780128F6
:101AC00012D1002009494870084600896430888294
:101AD000084600896438C882084600896430088353
:101AE000084600896438488370470000C81B0020FE
:101AF00010B50D48807830B1012807D0022808D0F1
:101B000003280CD108E001F051FA0BE001F046FA8D
:101B100008E001F00BFA05E001F0D0F902E001F075
:101B2000D5FD00BF00BF10BD1800002010B540F269
:101B300024412D4807F0AAF818B340F224412A485E
:101B400007F080F8284800882748001D00880021F9
:101B5000264800F0CDFE2649244800F095FE234893
:101B600000F0D1FEC0F16400224908710846006807
:101B70001E494039C8646420486401211B4800F0B4
:101B8000B7FE40F224411C4807F080F850B340F201
:101B90002441194807F056F8174800881648001DD8
:101BA000008800211148483000F0A2FE10490F487B
:101BB000483000F069FE0D48483000F0A4FEC0F146
:101BC00064000E49087108460068084954310860ED
:101BD000642006494039C1F88C000121034848308F
:101BE00000F086FE10BD0000004C00404060024046
:101BF0002000002040000020004400405000002051
:101C000000B587B04FF4E1312C4808F0DBFE00222C
:101C100040F22551294807F063F8002240F227716D
:101C2000264807F05DF8012240F22441234807F0DE
:101C300057F801224021214807F01FF80122802196
:101C40001E4807F01AF84FF440304FF4807100221C
:101C50000292CDE9032105900420CDE90020184827
:101C6000164A121DC9040368164800F0FDFF4FF420
:101C700040304FF4807100220292CDE9032105909B
:101C800004204021CDE900100F480C4A121D4905DF
:101C900003680C48183000F0E7FF0121094800F004
:101CA00027FE00210748183000F022FE01221021F3
:101CB0000448183000F05EFE07B000BD004400404C
:101CC00050000020886002405800002039B1084AC6
:101CD0001268012383401A43054B1A6006E0044A48
:101CE0001268012383409A43014B1A607047000039
:101CF0000074004030B5002200230A4C226840F6F0
:101D0000FE748440A243D1E900452C438D682C43E6
:101D1000CD6844EA050303FA00F42243014C226033
:101D200030BD00000074004008B500220092054A52
:101D3000009200F10802009B1A440092009A116080
:101D400008BD00000074004008B500220092054A5A
:101D5000009200F11402009B1A440092009A116054
:101D600008BD00000074004010B541B1084A126877
:101D700004090123A3401A43054B1A6007E0044AF3
:101D8000126804090123A3409A43014B1A6010BD55
:101D90000474004070B506460C4604F080008028AC
:101DA00008D104F07F0000EB800106F58E7000EB97
:101DB000C10507E004F07F0000EB800106F55D70CF
:101DC00000EBC10504F07F00287004F08000C0091A
:101DD00068702946304608F084FA002070BD70B55E
:101DE00006460C4604F08000802808D104F07F00ED
:101DF00000EB800106F58E7000EBC10505E004EBF9
:101E0000840106F55D7000EBC1050020A87004F0A8
:101E10007F002870C4F3C01068702946304608F06F
:101E200038FA002070BD2DE9F04106460D46904677
:101E30001F4605F08000802808D105F07F0000EBE8
:101E4000800106F58E7000EBC10407E005F07F000D
:101E500000EB800106F55D7000EBC10405F07F002A
:101E6000207005F08000C0096070C4F80880E77039
:101E7000607808B12078E080022F01D10020207125
:101E80002146304608F0B9F90020BDE8F0812DE97F
:101E9000F04105460E461746984606F07F0000EBD7
:101EA000800105F55D7000EBC104E760C4F81480A3
:101EB0000020A061607006F07F002070E8780128A3
:101EC00000D12761207820B92146284608F0B9F8CA
:101ED00003E02146284608F083FA0020BDE8F0819F
:101EE00008B500220092009A61F30A12009202697A
:101EF0001268009B1A4303691A6008BD70B5064654
:101F00000C4604F08000802808D104F07F0000EB2C
:101F1000800106F58E7000EBC10505E004EB84013D
:101F200006F55D7000EBC1050120A87004F07F008C
:101F30002870C4F3C01068702946304608F01EFAB5
:101F4000002070BD2DE9F04107460D461646984623
:101F500005F07F0000EB800107F58E7000EBC104F7
:101F60000120607005F07F002070E660266100208F
:101F7000A061C4F81480207820B92146384608F0C2
:101F800060F803E02146384608F02AFA0020BDE850
:101F9000F081000030B587B00546594C284608F05E
:101FA00016F801A806F0D6F9029CE868C06805900A
:101FB000059820F4705005900598E968C860284697
:101FC00008F0E0FB03280BD10020A8704FF400704C
:101FD000A880059820F4705000F5105005907EE020
:101FE0000120A8704020A8804648844209D3464872
:101FF000844206D2059820F4705000F56050059098
:102000006DE04148844209D34048844206D2059895
:1020100020F4705000F55050059060E03B48844239
:1020200009D33B48844206D2059820F4705000F54D
:102030004050059053E03648844209D335488442E5
:1020400006D2059820F4705000F53050059046E017
:102050003048844209D33048844206D2059820F49F
:10206000705000F52050059039E02B48844209D388
:102070002A48844206D2059820F4705000F510508A
:1020800005902CE02548844209D32548844206D295
:10209000059820F4705000F5005005901FE020488E
:1020A000844209D31F48844206D2059820F4705018
:1020B00000F5E050059012E01A48844209D31A480E
:1020C000844206D2059820F4705000F5C050059067
:1020D00005E0059820F4705000F5A0500590059893
:1020E000E968C86000200690069820F4005000F5CA
:1020F000005006900698E9684861012007B030BD9D
:10210000007A030AC0E1E4000024F400E0EC0401DA
:1021100000C31801002D310140A44C0100366E01AE
:1021200040E2950180C3C90160600B02F8B5054625
:10213000002400200090284608F065FB064681E058
:1021400006F0010000287BD0E1B2284600F00CFB2D
:102150000090009800F0010030B3012000FA04F76D
:102160002869406BB84329694863002000900098B3
:1021700020F00100401C009005F1180050F82400E8
:1021800000998160E1B23248006842682846904771
:10219000E878012808D13CB940F21110405D0428CC
:1021A00002D1284607F0F8FF0098C0F3C00060B1E4
:1021B00000200090009820F008000830009005F101
:1021C000180050F82400009981600098C0F30010B6
:1021D00060B100200090009820F0100010300090B6
:1021E00005F1180050F82400009981600098C0F3B0
:1021F000801060B100200090009820F04000403036
:10220000009005F1180050F82400009981600098B2
:10221000C0F3400060B100200090009820F0020060
:10222000801C009005F1180050F82400009981608E
:102230000098C0F3C01018B12146284600F0BEFA3D
:10224000641C7608002E7FF47BAF0120F8BD0000EF
:10225000CC0100207CB504460025002001902046DA
:1022600008F0D9FA06466FE006F00100002869D0B0
:10227000E9B2204608F0D7FA0190019800F0010079
:10228000C8B300200190019820F00100401C01908B
:1022900004F1540050F8250001998160E07801288C
:1022A00017D104F1540050F825000069009005EBA7
:1022B000850104F55D7000EBC10080680099C1F3F1
:1022C0001201411A05EB850204F55D7000EBC200B6
:1022D0008161E9B21E480068026820469047E078B4
:1022E000012808D13DB940F21110005D052802D146
:1022F000204607F051FF0198C0F3400060B1002074
:102300000190019820F00200801C019004F154001B
:1023100050F82500019981600198C0F3C00088B190
:102320000B4800688168204688470020019001988A
:1023300020F008000830019004F1540050F8250006
:10234000019981606D1C7608002E8DD101207CBD25
:10235000CC0100203EB50446A07A78B1D4F80C0137
:1023600000680090009820F002000090009820F093
:10237000010000900099D4F80C0101600020019048
:10238000019820F00100401C0190206940680199EB
:102390008843216948600948006881692046884768
:1023A00000200290029820F0004000F100400290CE
:1023B0000298E168486101203EBD0000CC01002088
:1023C0007CB5044600200190019820F010001030E8
:1023D0000190E068806901998843E1688861E0685C
:1023E000006A0090009800F00F0000EB800104F5F7
:1023F0005D7000EBC1050098C0F3434007282DD263
:10240000DFE800F02C04051D1E2C1F0027E00098BB
:10241000C0F30A1090B10098C0F30A122046E96890
:1024200008F00BFAE8680099C1F30A110844E86063
:10243000A8690099C1F30A110844A8610FE00EE0F1
:102440000DE0082204F2CC51204608F0F6F9A86904
:102450000099C1F30A110844A86100E000BF00BF61
:10246000E068806901990843E168886101207CBDCA
:1024700038B5044608480068C168204688470020EF
:102480000090009820F00800083000900098E16863
:102490004861012038BD0000CC0100201FB5044672
:1024A000002000904FF48970005D00902348006880
:1024B0004169204688472069806801900020039088
:1024C000039820F4006000F5006003900398E16831
:1024D0004861A07A70B3019800F0010050B340F257
:1024E0001510005D012825D19DF80000032821D199
:1024F00000200290029820F00100401C0290D4F8C5
:102500000C01006802990843D4F80C110860029885
:1025100020F00200801C0290D4F80C01006802999F
:102520000843D4F80C1108600548006840F0060024
:1025300003490860012004B010BD0000CC01002058
:1025400010ED00E030B587B0044600200290069000
:102550000590049003900190029820F00100401C27
:1025600002902069406802998843216948600021EF
:10257000204608F0DDF800250BE0FF2104F11800EB
:1025800050F82500816004F1540050F82500816066
:102590006D1C6078A842F0D84FF0FF31206981614E
:1025A00006986FF30F00401C0690069880B200F565
:1025B0008030069006992069C161059820F00800D6
:1025C00008300590059820F00100401C0590059802
:1025D00020F00200801C0590059920694161049853
:1025E00020F00100401C0490049820F008000830FE
:1025F0000490049820F00200801C04900499206943
:102600000161206900680390039820F4FE60039044
:10261000039920690160204607F0BEFD002001906B
:10262000019820F4805000F5805001900198E168F5
:10263000486104480068016920468847012007B0C6
:1026400030BD0000CC0100202DE9F04106460F46C8
:102650003946304608F006F901214FF4897081555A
:102660000021801C8155002511E005EB850106F550
:102670008E7000EBC104012060702570E5800020A1
:10268000E0704020A0600020E06060616D1C707808
:10269000A842EAD8002510E005EB850106F55D703B
:1026A00000EBC104002060702570E580E0704020E0
:1026B000A0600020E06060616D1C7078A842EBD8DB
:1026C000304607F073FC304607F0A3FA002130468D
:1026D00008F030F9304607F029FB304607F0F1FFEB
:1026E000BDE8F08138B50446002000900748006836
:1026F000C16920468847009820F4801000F58010BA
:1027000000900098E1684861012038BDCC010020AC
:1027100038B504460020009007480068016A20464A
:102720008847009820F4001000F5001000900098F1
:10273000E1684861012038BDCC01002038B504466D
:10274000E068406800900098C0F3800020B1054820
:102750000068816A204688470098E1684860012047
:1027600038BD0000CC01002030B5024615692B6948
:1027700015696C6B24FA01F505F0010543EAC513F0
:1027800002F1180555F82150AD6805EA030030BD87
:1027900038B5044608480068416A2046884700204A
:1027A0000090009820F0804000F180400090009858
:1027B000E1684861012038BDCC0100202DE9F843D3
:1027C00006460F4600250020009007EB870106F51E
:1027D0008E7000EBC104D4E90501451AA068A84237
:1027E00000D2A568E81C4FEA900806F1180050F8DE
:1027F00027008069009029E0D4E90501451AA06806
:10280000A84200D2A568E81C4FEA9008ABB2FAB221
:102810003046E16808F0B5F8E0682844E060A06957
:102820002844A06106F1180050F827008069009044
:10283000D4E90501884209D12178012000FA01F983
:102840003069406B20EA090031694863009880B222
:10285000404506D9D4E90510884202D260690028B3
:10286000CAD10120BDE8F88310B501F0E7F800F007
:102870003BFA01F0F9F810BD10B501F0DFF800F0F7
:1028800033FA01F0F1F810BD0246094B9A4201D229
:10289000084801E00648103801F000531BB1064B10
:1028A0000B40C36002E0044B0B40836070470000A4
:1028B00010640240006002407D0F7D0F0246094B0C
:1028C0009A4201D2084801E00648103801F000534E
:1028D0001BB1064B0B40C36002E0044B0B4083600E
:1028E0007047000010640240006002407D0F7D0FC1
:1028F00021B1026842F00102026003E0026822F0A6
:102900000102026070470146486880B270470000CB
:1029100070B50246002000240025124EB24201D2BA
:10292000114B01E00F4B103B104E0E4036B11E26EE
:1029300006EAD124166806EA040502E0566906F0A4
:10294000800501F000560EB15C6800E01C68084E7E
:10295000344004EA010616B10DB1012000E0002068
:1029600070BD000010640240006002403C0F3C0F4C
:102970007D0F7D0F10B501F080034BB122B143698B
:1029800043F08003436103E0436923F08003436124
:1029900080290BD02AB1036801F01E042343036091
:1029A00004E0036801F01E04A343036010BD0000AF
:1029B00010B500220268134B1A40CC680B68234301
:1029C0004C6923438C692343CC6923430C6A23431A
:1029D0004C6A23438C6A23434C6B23438C6B234305
:1029E0001A430260426922F00702D1E90B34234303
:1029F0001A4342610B6943604B6883608B68C36014
:102A000010BD00003F801CF04160704770B5044667
:102A10000D46012C27D18103284800F047FA49F2DE
:102A20000101274805F0A5FD4FF47A6000F016F982
:102A3000A103224800F03CFA4FF4FA6000F00EF9CE
:102A4000A1031E4800F032FA4FF4404040EA05115D
:102A50001B4805F08EFD4FF47A6000F0FFF8A103EB
:102A6000164800F025FA022C26D16103134800F025
:102A70001DFA49F20101124805F07BFD4FF47A601E
:102A800000F0ECF861030D4800F012FA4FF4FA6020
:102A900000F0E4F86103094800F008FA600340EA36
:102AA0000511074805F065FD4FF47A6000F0D6F88F
:102AB0006103024800F0FCF970BD00000004024010
:102AC000003C004070B504460D464FF400512248CA
:102AD00000F0ECF949F20101204805F04AFD4FF4FD
:102AE0007A6000F0BBF84FF400511B4800F0E0F9A9
:102AF0004FF4FA6000F0B2F84FF40051164800F0BD
:102B0000D5F94FF4805040EA0511144805F031FD25
:102B10004FF47A6000F0A2F84FF400510E4800F034
:102B2000C7F94FF4FA6000F099F84FF400510A48E1
:102B300000F0BCF94FF4004040EA0411074805F0EA
:102B400018FD4FF47A6000F089F84FF40051024804
:102B500000F0AEF970BD000000040240003C0040EF
:102B60001FB504460121480705F0C4FB3C20009036
:102B70000020019002900220039069462046FFF752
:102B8000B9F801212046FFF7A1F81FBD70470000EA
:102B900000B587B04FF4E1312C4807F013FF002255
:102BA00040F22551294806F09BF8002240F2277197
:102BB000264806F095F8012240F22441234806F009
:102BC0008FF801224021214806F057F80122802188
:102BD0001E4806F052F84FF440304FF48071002246
:102BE0000292CDE9032105906420CDE90020184828
:102BF000164A121DC9040368164800F035F84FF450
:102C000040304FF4807100220292CDE903210590FB
:102C100064204021CDE900100F480C4A121D4905DF
:102C200003680C48303000F01FF801210948FFF715
:102C30005FFE002107483030FFF75AFE01221021C5
:102C400004483030FFF796FE07B000BD004C00404E
:102C500040000020406002404800002000BF411EAC
:102C600089B2081EFBD170472DE9F04F8FB00446A2
:102C70000D4616461F46DDE91AABDDE918891948ED
:102C8000844204D20121480505F014FB03E0012130
:102C9000880505F00FFB009501960297CDF80C8092
:102CA000CDF81090002005904FF480600690CDF88C
:102CB0001CA0CDF820B01C9809901D980A90002007
:102CC0000B9003200C9000200D900E90694620463A
:102CD000FFF76EFE00212046FFF70AFE0FB0BDE8A9
:102CE000F08F00000064024010B513491348FFF74D
:102CF0000FFE58B100211148FFF7FAFD64210F487B
:102D0000FFF782FE0C490D48FFF7D8FD0A490B4832
:102D10003030FFF7FDFD70B1002108483030FFF77B
:102D2000E7FD642105483030FFF76EFE0249034895
:102D30003030FFF7C3FD10BD2080002070600240DE
:102D400010B500221E4949781D4B9B7819441C4B35
:102D5000DB7819441A4B197200BF09E01849097A47
:102D6000174B5B689B5C1944154B1972511CCAB216
:102D70001349C9789142F1DC114909780170104971
:102D8000497841700E49897881700D49C978C170C0
:102D9000002105E00A4B5B685C5C0B1DC454491CB8
:102DA000074BDB788B42F5DC05490B7AC978091DA6
:102DB000435403494B7AC978491D435410BD000060
:102DC00024000020F0B50A4600210023002400BFA3
:102DD0003DE0012505FA01F3156805EA03049C426C
:102DE00034D105684F000326BE40B5430560157910
:102DF0004E00B5400668354305601579012D02D0B7
:102E00001579022D16D185684F000326BE40B543C3
:102E1000856055794E00B5408668354385604568C4
:102E200001268E40B5434560456896798E40B6B21E
:102E300035434560C5684F000326BE40B543C560B5
:102E4000D5794E00B540C6683543C560491C102988
:102E5000BFD3F0BDF0B5002300244D07ED0E02FAFC
:102E600005F3CE1000F1200555F826504E07F70E59
:102E70000F26BE40B543CF1000F1200646F827507C
:102E8000CE1000F1200555F8265045EA0304CE1077
:102E900000F1200545F82640F0BD024600201369E8
:102EA0000B400BB1012000E00020704741837047C8
:102EB0000183704742694A404261704710B5194822
:102EC0004068407817494968097840EA0120164966
:102ED000888014484068C07812494968897840EA77
:102EE00001201149C8800F48406840790D49496860
:102EF000097940EA01200C4908810A484068C079F4
:102F000008494968897940EA012007494881012038
:102F10004870FEF7ABFDFEF7D9F801200249C870F2
:102F200010BD000018000020C81B002010B5194873
:102F30004068407817494968097840EA01201649F5
:102F4000888014484068C07812494968897840EA06
:102F500001201149C8800F48406840790D494968EF
:102F6000097940EA01200C4908810A484068C07983
:102F700008494968897940EA0120074948810120C8
:102F80000870FEF773FDFEF7DDF801200249887036
:102F900010BD000018000020C81B002001210248BD
:102FA00080F84A1070470000C81B00200121024829
:102FB00080F8491070470000C81B002070B50A480F
:102FC0000468001D0568001D0668344454B10822D9
:102FD0000649204600F084FB0422044910312846AB
:102FE00000F07EFB70BD0000107AFF1FCE000020B5
:102FF00008B501217F2005F05DF90121080705F0E2
:1030000079F9012005F01CF9002005F017FA0020DD
:1030100005F016F908220021FE48FFF71BFF0822E1
:103020000121FC48FFF716FF002003460222012180
:103030000090F84800F0C0FA002003460222114632
:103040000090F44800F0B8FA002003460222042160
:103050000090F04800F0B0FA002003460222082158
:103060000090EC4800F0A8FA02200023032210216F
:103070000090E84800F0A0FA02200023032220215B
:103080000090E44800F098FA002003460122110263
:103090000090E04800F090FA01200023024601462B
:1030A0000090DD4800F088FA00200346012240210C
:1030B0000090D94800F080FA0020034601228021C8
:1030C0000090D54800F078FA002003460122110252
:1030D0000090D14800F070FA00200346012251020E
:1030E0000090CD4800F068FA012000230246410319
:1030F0000090C94800F060FA0120002302468103D5
:103100000090C54800F058FA002003460322012130
:103110000090C24800F050FA00200346032202212A
:103120000090BE4800F048FA002003460322042124
:103130000090BA4800F040FA00200346032208211C
:103140000090B64800F038FA002003460322202100
:103150000090B24800F030FA0020034601225102EC
:103160000090AE4800F028FA06220A21AB48FFF78B
:1031700071FE01200023022281020090A74800F086
:103180001BFA06220B21A548FFF764FE012000234D
:103190000222C1020090A14800F00EFA06220C2182
:1031A0009E48FFF757FE01200023022201030090F2
:1031B0009A4800F001FA00200346012251030090D2
:1031C000964800F0F9F94FF400519448FFF770FE6B
:1031D00000200346012291030090904800F0ECF992
:1031E0004FF480418D48FFF763FE00200346012223
:1031F000D1030090894800F0DFF900200346012246
:1032000002210090864800F0D7F9002003460122F1
:1032100004210090824800F0CFF904218048FFF794
:1032200047FE002003460122082100907C4800F060
:10323000C3F908217A48FFF73BFE0020034601222C
:1032400010210090764800F0B7F910217448FFF77C
:103250002FFE072205217248FFF7FCFD07220621F9
:103260006F48FFF7F7FD002003460222202100905F
:103270006B4800F0A1F90020034602224021009093
:10328000674800F099F90020034601228021009050
:10329000634800F091F980216148FFF709FE0020A2
:1032A00003460122110200905D4800F085F94FF4B9
:1032B00080715B48FFF7FCFD0020034601225102AC
:1032C0000090574800F078F94FF400715448FFF728
:1032D000EFFD00200346012291020090504800F0CB
:1032E0006BF9002003460122D10200904C4800F007
:1032F00063F900200346012211030090484800F0C2
:103300005BF94FF480514648FFF7D2FD0020034699
:10331000012251030090424800F04EF9002003467C
:103320000122910300903E4800F046F90020034638
:1033300002464FF400410090394800F03DF900206A
:103340000346024601210090364800F035F902207C
:1033500000231A4601460090324800F02DF9002063
:1033600003460122042100902E4800F025F9002098
:1033700003460246082100902A4800F01DF900206B
:103380000346024610210090264800F015F900205F
:103390000346024620210090224800F00DF900204B
:1033A00003460122110200901E4800F005F900209A
:1033B000034602464FF4007100901A4800F0FCF8F2
:1033C00000200346012291020090164800F0F4F814
:1033D0004FF480611348FFF76BFD00200346012284
:1033E000D10200900F4800F0E7F8002003460246A3
:1033F0004FF4805100900B4800F0DEF800200346A7
:1034000002464FF400510090064800F0D5F8002025
:10341000034609E0000002400004024000080240A8
:10342000000C02400010024001220221009060487E
:1034300000F0C2F8002003460122114600905C48CB
:1034400000F0BAF8002003460122042100905848F9
:1034500000F0B2F8002003460322082100905448EF
:1034600000F0AAF8002003460322102100905048E3
:1034700000F0A2F8002003460322202100904C48CF
:1034800000F09AF8002003460322402100904848AB
:1034900000F092F800200346032280210090444867
:1034A00000F08AF80020034603224FF48071009058
:1034B0003F4800F081F80020034603224FF40071DA
:1034C00000903B4800F078F80020034603224FF4B8
:1034D00080610090364800F06FF80020034601221A
:1034E000D1020090324800F067F800200346012224
:1034F000110300902E4800F05FF8002003460122DF
:10350000510300902A4800F057F80020034601229A
:1035100091030090264800F04FF800200346012256
:10352000D1030090224800F047F800200346012212
:10353000114600901F4800F03FF80020034601228A
:10354000022100901B4800F037F8002003460122BA
:1035500004210090174800F02FF8002003460122B4
:1035600008210090134800F027F8002003460122AC
:10357000102100900F4800F01FF8002003460122A0
:10358000910300900B4800F017F84FF48041094870
:10359000FFF78EFC002003460122D103009005486E
:1035A00000F00AF84FF400410248FFF781FC08BD23
:1035B00000140240001802402DE9FC4106460C466A
:1035C00015469846089F00948DF8045003208DF806
:1035D000050000208DF8060001208DF807006946DF
:1035E0003046FFF7EFFBBDE8FC81000070B50646F2
:1035F0003048007800285BD12F480068B0F5006F94
:1036000002D100202C4908602B4800682B4909682A
:10361000884203D100202749087070BD2648006801
:1036200026490968884206D923480068C0F5006029
:103630002349086006E0214800681F490968401ACC
:103640001F4908601E480068402811D91A480088A0
:1036500085B240241848006840301749086018486F
:10366000006840381649086001201249087018E0C7
:103670001148008885B21248008884B20E4800685C
:103680000F49096808440C49086000200C4908608B
:10369000402C03D102200749087002E001200549AF
:1036A000087008484219234681213046FEF74AFC3B
:1036B00000BFB2E71C01002014010020100100200F
:1036C00018010020B226002000BFFEE701200349B8
:1036D000C870F1204968087070470000240000207D
:1036E00030B50B46002100BF16E00A24B4EB107F72
:1036F00005D9302404EB107403F8114005E041248F
:1037000004EB10740A3C03F81140000100254C0042
:10371000641C1D554C1CE1B29142E6DB30BD00BF7C
:10372000FEE730B505460C4622460021284600F04B
:1037300001F830BD2DE9F04105460B4694460027BF
:10374000002402E03F021F43641C042CFAD36046AD
:1037500005F00306294646B1344603E001F8013B73
:10376000401E641C08B1042CF8D30A4601E080C254
:10377000001F0428FBD2114602E001F8013B401E65
:103780000028FAD1BDE8F0817047000070B5002133
:1037900000230F22C4781CB3174C246804F4E0649F
:1037A000C4F5E064C4F30721C1F10404E3B20A41A3
:1037B00044789C40E1B28478144021430C07210EE8
:1037C0000E4C05786155047804F01F050124AC40C7
:1037D00005786D11AD0005F1E025C5F8004109E05F
:1037E000047804F01F050124AC40054D06787611DD
:1037F00045F8264070BD00000CED00E000E400E05C
:1038000080E100E002490143024A11607047000074
:103810000000FA050CED00E0024A0A400243024BA8
:103820001A60704780FFFF1F08ED00E008B54FF4F5
:10383000E060FFF7E7FF34208DF8000000208DF8EE
:10384000010002208DF8020001208DF80300684677
:10385000FFF79CFF0F208DF8000000208DF801007D
:103860008DF8020001208DF803006846FFF78EFFF7
:1038700008BD704710B50348006810B101480068E2
:10388000804710BDF801002070B5044600F0C2F872
:10389000002048490870484908704849087048495C
:1038A0000860484908604849087048490870484914
:1038B0000870484908604849086048490860484914
:1038C0000870484800680A21B0FBF1F046490860DA
:1038D0004648006858B14648056845B143480668FF
:1038E00003E0761E002028602D1D002EF9D1002057
:1038F0004049086040490860404908604049086004
:1039000040490860404908604049086040490870E3
:1039100002F0F2FD02F0D2FE204601F03DFF2088C9
:1039200000B170BD204602F01DFB208800B1F8E711
:10393000204602F023FB208800B1F2E7204602F087
:103940001FFC208800B1ECE7204602F005FE20882D
:1039500000B1E6E7204603F025F8208800B1E0E753
:10396000204603F03FFB208800B1DAE7204602F052
:1039700065FA208800B1D4E7204602F07FF820885D
:1039800000B1CEE7204604F0BDFA208800B1C8E7B8
:10399000204603F071FA208800B1C2E7204604F007
:1039A00029FB208800B1BCE701F020FEFFF761FF92
:1039B00000BFB6E70C0200200D02002054020020D8
:1039C000C4020020C80200203A0200203B0200206E
:1039D0003C020020480200204C020020500200203F
:1039E0005C02002018BB000858020020E8BA00085A
:1039F000E4BA0008EC010020F0010020F4010020EE
:103A0000F8010020FC010020000200200402002038
:103A10008A020020064800680649096800EB810018
:103A2000054908600846006820F0070008607047F4
:103A3000E4BA0008E8BA0008CC0200200848007880
:103A4000012800D0704707480078FA2800DBF9E722
:103A500004480078401C0349087000BFF2E70000EA
:103A60000D0200200C02002010B500242D48007823
:103A7000012800D010BD00BFFCF71AFC044600BFAF
:103A80002948007828B900BF2046FCF715FC00BF84
:103A9000F0E725480078401E234908700846007862
:103AA000002805DD00BF2046FCF706FC00BFE1E76B
:103AB0001E480078002805DD00BF2046FCF7FCFB0F
:103AC00000BFD7E702F004FD1949087008460078E6
:103AD00000EB4000174951F82000174908600846DC
:103AE000006816490968884205D100BF2046FCF7E6
:103AF000E3FB00BFBEE710480068D0F88C00401C14
:103B00000D490968C1F88C000D480068401C0C493B
:103B10000860FCF77FFC00BF2046FCF7CDFB00BF30
:103B200000BFA7E70D0200200C0200205402002075
:103B30003B020020D0430020C8020020C402002025
:103B4000800200202DE9F04104460E46154600276C
:103B500029480078002804DD42F6E1602880BDE8AD
:103B6000F0811CB945F6C3502880F8E700BF00BFBC
:103B700000BFFCF79DFB074600BF00BF1F48007851
:103B8000401C1E49087000BF00BF3846FCF794FB7C
:103B900000BF00BF00BF1A4820606660002020629E
:103BA00084F82500A062402084F8240004F1080075
:103BB00002F09DFB204602F0CBFA12480088401C20
:103BC0001049088000BF00BF00BFFCF771FB07462B
:103BD00000BF00BF09480078401E0849087000BFB8
:103BE00000BF3846FCF768FB00BF00BF00BF0020E5
:103BF000288000BFB3E700000C0200205402002020
:103C00004D555458380200202DE9F04788B005463C
:103C1000894690461C46109E4FF0000AAB4800783B
:103C2000002805DD46F2AE10308008B0BDE8F08710
:103C30001DB945F6C3503080F7E7B8F1000F03D047
:103C4000B8F5004F02D100E000BF03E045F6256063
:103C50003080EAE700BF9E492868884203D045F6D5
:103C6000C4503080E1E70CB10020206000BF00BFED
:103C7000FCF71EFB824600BF00BF95F82500C0B9C7
:103C80009448006828629348006890F8370085F8E7
:103C90002400012085F825000CB1A86A206000BF2F
:103CA00000BF5046FCF708FB00BF00BF002030807B
:103CB000BBE78849286A0968884212D195F825002F
:103CC000401C85F825000CB1A86A206000BF00BF29
:103CD0005046FCF7F1FA00BF00BF45F28270308019
:103CE000A3E708F4004050B100BF00BF5046FCF706
:103CF000E3FA00BF00BF46F2B010308095E7764887
:103D0000007800280ADD00BF00BF5046FCF7D4FA57
:103D100000BF00BF46F66350308086E700BF6E48A4
:103D20000078401C6C49087000BF00BF5046FCF78B
:103D3000C3FA00BF00BF00BF2F6A97F8370065497C
:103D4000096891F83710884260DD97F83600082836
:103D50002AD2DFE800F004151E1F1716202138466E
:103D600002F034FD5B48006890F8370087F83700B0
:103D700097F8370002F0CCFB384602F0C7FC44E06D
:103D800000BF00BF5348006890F8370087F837003D
:103D90003BE000BF00BF00BF4E48006890F83710FE
:103DA000384602F081FA30E000BF00BF00BFFCF7E8
:103DB0007FFA824600BF00BF47480078401E464950
:103DC000087008460078A0B944480088002809DD3A
:103DD00000BF00BF5046FCF76FFA00BF00BF02F003
:103DE00023FD0DE000BF00BF5046FCF765FA00BFA1
:103DF00006E000BF00BF5046FCF75EFA00BF00BF00
:103E000000BF46F62D6030800FE700BF4B4604220E
:103E10002946684602F0C0F900BF00BF00BFFCF7AA
:103E200047FA824600BF00BF2B480078401E2A494F
:103E3000087000BF00BF5046FCF73EFA00BF00BF4D
:103E400000BF00F073F900BF00BFFCF731FA8246F3
:103E500000BF00BF1F48006890F8350030B101284E
:103E60000CD002281AD0032821D110E01CB1194827
:103E70000068006C2060002030801CE01CB11548F8
:103E80000068006C206046F2A910308013E00CB18D
:103E90000020206047F2D92030800CE01CB10D4892
:103EA0000068006C206045F6C250308003E046F6A2
:103EB0002E60308000BF00BF00BF00BF5046FCF73F
:103EC000FBF900BF00BF00BFAFE600000C020020FE
:103ED0004D555458C40200205402002018020020FE
:103EE0002DE9F84F0446884615464FF0000A8948E8
:103EF0000078002804DD46F20E202880BDE8F88F07
:103F00001CB945F6C3502880F8E7B8F1000F03D07C
:103F1000B8F5004F02D100E000BF03E045F6256090
:103F20002880EBE700BF7C492068884203D045F633
:103F3000C4502880E2E700BF00BFFCF7B9F9824611
:103F400000BF00BF7549206A096888420AD000BFD7
:103F500000BF5046FCF7B0F900BF00BF45F28170CA
:103F60002880CBE700BF6E480078401C6C49087081
:103F700000BF00BF5046FCF79FF900BF00BF00BF65
:103F8000FDF76EFD0746A76294F82500401E84F8F1
:103F9000250094F82500002830DD00BF00BF00BFD9
:103FA000FCF786F9824600BF00BF5D480078401EDE
:103FB0005B49087008460078A0B95A480088002874
:103FC00009DD00BF00BF5046FCF776F900BF00BF17
:103FD00002F02AFC0DE000BF00BF5046FCF76CF970
:103FE00000BF06E000BF00BF5046FCF765F900BF08
:103FF00000BF00BF45F2837028807FE704F1080905
:10400000B9F8080098BB0020206284F8250000BFA2
:1040100000BF00BFFCF74CF9824600BF00BF40481C
:104020000078401E3E49087008460078A0B93D4817
:104030000088002809DD00BF00BF5046FCF73CF9AE
:1040400000BF00BF02F0F0FB0DE000BF00BF504614
:10405000FCF732F900BF06E000BF00BF5046FCF796
:104060002BF900BF00BF00BF0020288046E7FFE714
:104070002A48006890F8370094F82410884219D034
:104080002648006802F0A2FB94F82400234909683E
:1040900081F837002149096891F8370002F038FAB1
:1040A0001E48006802F052FB1C48006890F8370078
:1040B0001D490870D9F800008668266296F8370016
:1040C00084F82400012084F8250000231A46314694
:1040D0002046009702F07CF900BF00BF00BFFCF74C
:1040E000E7F8824600BF00BF0D480078401E0C492B
:1040F000087000BF00BF5046FCF7DEF800BF00BFED
:1041000000BF08F4004008B900F010F80020288033
:1041100000BFF3E60C0200204D555458C4020020A5
:1041200054020020180200203A02002010B500249A
:104130001F480078002800DD10BD1E4800780028C8
:1041400000DDF9E700BFFCF7B3F8044600BF02F05A
:10415000BFF9194908700846007800EB400017497C
:1041600051F820001649086008460068154909689A
:10417000884205D100BF2046FCF79EF800BFDBE770
:104180000F480068D0F88C00401C0D490968C1F840
:104190008C000D480068401C0B490860FCF735F99D
:1041A00000BF2046FCF788F800BF00BFC4E700004E
:1041B0000C020020540200203B020020D0430020CB
:1041C000C8020020C40200208002002070B504460E
:1041D000002518480078002803DD46F6625020804C
:1041E00070BD15480078012803D045F6896020800D
:1041F000F6E712480078FA2803DB45F20920208010
:10420000EEE700BF00BFFCF753F8054600BF00BF54
:104210000A480078401C0949087002F02FFB00BFD3
:1042200000BF2846FCF748F800BF00BF00202080F0
:1042300000BFD5E70C0200200D0200205402002030
:104240002DE9F04105460C461646002700BF00BF89
:10425000FCF72EF8074600BF00BF012D03D0002059
:104260000D49087002E001200B49087014B10B4899
:10427000046006E00A4800680A21B0FBF1F0074933
:10428000086000BF00BF3846FCF716F800BF00BF4B
:1042900000203080BDE8F0815C0200205802002040
:1042A00018BB000870B50446002520480078002897
:1042B00003DD46F66550208070BD1D48007801285A
:1042C00003D045F689602080F6E71A48007818B9CF
:1042D00046F664502080EFE700BF00BFFBF7E8FF21
:1042E000054600BF00BF13480078401E1149087002
:1042F0000846007800280ADD00BF00BF2846FBF70B
:10430000DBFF00BF00BF46F663502080D4E702F019
:10431000C3FA00BF00BF2846FBF7CEFF00BF00BFB7
:10432000FFF704FF0020208000BFC5E70C0200203B
:104330000D0200205402002010B5044612480078F7
:10434000E8B902F0C5F8114908700846007810492C
:1043500008700E48007800EB40000E4951F820002C
:104360000D490860084600680C49086001200649AC
:104370000870FCF739F843F69920208002E045F6F2
:104380008A60208010BD00000D0200203B0200204A
:104390003A020020D0430020C8020020C4020020BE
:1043A0002DE9F04107464FF0000800BF00BFFBF7C2
:1043B0007FFF804600BF00BF00203D4908603D49A7
:1043C00008803D4908803D4908603D4908603D49F5
:1043D00008603D4908603D49088100BF00BF404674
:1043E000FBF76AFF00BF00BF00BF00BFFBF760FF25
:1043F000804600BF00BF3648046800BF00BF40468B
:10440000FBF75AFF00BF00BF21E000BF00BFFBF772
:104410004FFF804600BF00BF00207434E06320607F
:104420002063A061A082E0826062A062FDF718FBB9
:104430002062743C04F160060020B081D4F8B840DA
:1044400000BF00BF4046FBF737FF00BF00BF002C96
:10445000DBD100BF00BFFBF72BFF804600BF00BFD2
:104460001C48056800BF00BF4046FBF725FF00BFA2
:1044700000BF12E000BF00BFFBF71AFF804600BF7D
:1044800000BF05F120060020B081AD6900BF00BF6C
:104490004046FBF711FF00BF00BF002DEAD103F03B
:1044A00099FB03F04DFE00203880BDE8F08100004C
:1044B000200200201A0200206A0200207C02002054
:1044C00090020020B40200204C020020C4430020CF
:1044D0008402002040020020F8B504460026694608
:1044E000324800F08FFDBDF8000018B1BDF80000A3
:1044F0002080F8BD6A460021022000F0F7FDBDF8DB
:10450000000018B1BDF800002080F2E700BF00BF36
:10451000FBF7CEFE064600BF00BF0020244908601E
:1045200000BF00BF3046FBF7C7FE00BF00BF00253D
:104530002048006820490968884205D91D4800685C
:104540001D490968B0FBF1F525B91A4800680A2130
:10455000B0FBF1F56A460021284600F0C7FD694628
:10456000124800F063FABDF8000018B1BDF8000071
:104570002080BEE700BF00BFFBF79AFE064600BFE3
:1045800000BF00200D490860094800680C49086018
:1045900001200C49087000BF00BF3046FBF78CFEBD
:1045A00000BF00BF0020208000BFA2E77C480020A1
:1045B0006C02002018BB000800BB00087C02002031
:1045C000700200207802002010B50348006810B186
:1045D00001480068804710BDFC0100202DE9FF4F15
:1045E00087B004469046DDE91BA5DDE91496179FC8
:1045F0000020039087480078002805DD47F24A1024
:1046000028800BB0BDE8F08F1CB947F2AD102880B0
:10461000F7E7B8F1000F03D147F24F102880F0E719
:104620001EB946F62F602880EBE77B48006887427A
:1046300003D246F630602880E3E71698B84203D3E9
:1046400046F631602880DCE7B9F1400F03D346F22B
:1046500073202880D5E7B9F1000F06D16F48844256
:1046600003D046F273202880CBE7B9F13F0F06D183
:104670006B48844203D046F273202880C1E720466D
:1046800002F0C0FC002028800AF0010090B10AF07E
:10469000020078B105960020069008E000210598F8
:1046A00001600598001D05900698401C069006982C
:1046B000B842F3D3169806EB80000490CDE9007A57
:1046C00032464046049B0A9900F06EFB0590C4F800
:1046D00028800A98E0620898206284F8379005984C
:1046E00020600498A06019982065199818B94D4861
:1046F0000068606501E0199860651A9860606662FC
:10470000A763A4F83CA04FF0000B08E0002104F1DF
:10471000780040F82B100BF1010000F0FF0BBBF10B
:10472000000FF3D004F16000189901F087FC2046D7
:1047300000F082F800BF00BF00BFFBF7B9FD039097
:1047400000BF00BF38480078401C3749087000BFE0
:1047500000BF0398FBF7B0FD00BF00BF00BF94F897
:10476000370001F0D5FE204601F0F0FF204602F0B0
:10477000FFFB2E480088401C2C4908802C480078FC
:1047800001282DD000BF00BF00BFFBF791FD0390B3
:1047900000BF00BF24480078401E23490870084627
:1047A0000078A0B923480088002809DD00BF00BFB9
:1047B0000398FBF781FD00BF00BF02F035F80DE064
:1047C00000BF00BF0398FBF777FD00BF06E000BF06
:1047D00000BF0398FBF770FD00BF00BF00BF10E7EC
:1047E00000BF00BF00BFFBF763FD039000BF00BF29
:1047F0000D480078401E0C49087000BF00BF0398A8
:10480000FBF75AFD00BF00BF00BFFFF78FFC00BFE2
:10481000F7E600000C02002014BB0008044300204F
:104820004442002058020020540200208802002048
:104830000D0200201802002010B50446034800684D
:1048400018B1204601490968884710BDEC010020D5
:1048500070B504460D46002667480078002803DD41
:1048600047F24E10288070BD6448844203D147F25D
:104870004C102880F7E76248844203D147F24D107C
:104880002880F0E77CB900BF00BFFBF711FD0646AA
:1048900000BF00BF5B48046800BF00BF3046FBF7A5
:1048A0000BFD00BF00BF00BF00BF00BFFBF700FD56
:1048B000064600BF00BF54480078401C52490870AB
:1048C00000BF00BF3046FBF7F7FC00BF00BF00BFD2
:1048D00094F8360008282DD2DFE800F004090E1005
:1048E000080A0F11204601F071FF54E053E000BFA9
:1048F000204603F043F94EE000BF00BF00BF94F82C
:104900003400082810D2DFE800F004070508090A7F
:104910000B0600BF00BF08E000BF00BF00BF00BF24
:10492000204601F01CFD00E000BF00BF204603F060
:1049300025F930E000BF00BF00BFFBF7B9FC064619
:1049400000BF00BF30480078401E2F49087008465D
:104950000078A0B92D480088002809DD00BF00BFFD
:104960003046FBF7A9FC00BF00BF01F05DFF0DE082
:1049700000BF00BF3046FBF79FFC00BF06E000BF52
:1049800000BF3046FBF798FC00BF00BF00BF46F6F3
:104990002D60288067E700BF04F1600001F02CFB68
:1049A000204600F037F8204602F0FAFA184800884E
:1049B000401E17490880204602F024FBFF2084F89F
:1049C000360000BF00BF00BFFBF772FC064600BF09
:1049D00000BF0D480078401E0B49087000BF00BFA3
:1049E0003046FBF769FC00BF00BF00BF00202880F5
:1049F000FFF79CFB00BF36E70C020020444200207A
:104A000004430020C40200205402002018020020A9
:104A10008802002010B504460348006818B12046FB
:104A200001490968884710BDF00100207FB50446A0
:104A30000D46002600BF00BFFBF73AFC064600BF4C
:104A400000BF1CB11548006884420AD100BF00BFF6
:104A50003046FBF731FC00BF00BF47F257102880FB
:104A60007FBD00BF00BF3046FBF726FC00BF00BF84
:104A70000B48007800280BDD0020009001900346D1
:104A800002462146CDE90205064801F02FF8E7E786
:104A90002946204602F01AFC00BFE1E7C4020020CC
:104AA0000C0200205452455310B5044603480068D8
:104AB00018B1204601490968884710BDF40100205B
:104AC0002DE9F04780460E4614461D464FF000097A
:104AD0007D480078002805DD46F2AE1028800020D1
:104AE000BDE8F0871EB1B6F5004F02D100E000BF6F
:104AF00004E045F6256028800020F1E700BF0CB1F6
:104B00000020206000BF00BFFBF7D2FB814600BF42
:104B100000BF6E480068406CA8B36C480068406CE9
:104B2000401E6A490968486468480068476C1CB1BF
:104B300066480068006C2060FCF792FF63490968D2
:104B4000096C401A61490968C1F8A0005F48006813
:104B5000D0F8A4005D490968D1F8A010884207D2B6
:104B60005A480068D0F8A00058490968C1F8A40064
:104B700000BF00BF4846FBF79FFB00BF00BF0020FF
:104B800028803846ACE7FFE706F4004058B100BF84
:104B900000BF4846FBF790FB00BF00BF46F2B010D5
:104BA000288000209CE74A48007800280BDD00BFE1
:104BB00000BF4846FBF780FB00BF00BF46F66350CE
:104BC000288000208CE700BF41480078401C404905
:104BD000087000BF00BF4846FBF76EFB00BF00BF78
:104BE00000BF434607220021084601F0D5FA00BF66
:104BF00000BF00BFFBF75CFB814600BF00BF34482D
:104C00000078401E3249087000BF00BF4846FBF7DD
:104C100053FB00BF00BF00BFFFF788FA00BF00BF13
:104C2000FBF746FB814600BF00BF2848006890F8AC
:104C3000350020B1012826D0032834D12CE0FCB166
:104C400022480068006C2060FCF70AFF1F490968D1
:104C5000096C401A1D490968C1F8A0001B4800688A
:104C6000D0F8A40019490968D1F8A010884207D2E9
:104C700016480068D0F8A00014490968C1F8A400DB
:104C80000020288013E01CB110480068006C2060F0
:104C900046F2A91028800AE00CB10020206047F2FB
:104CA000D920288003E046F62E60288000BF00BF90
:104CB00006480068476C00BF00BF4846FBF7FCFA97
:104CC00000BF00BF38460BE70C020020C4020020E2
:104CD000540200202DE9F04705460E4617461C46B3
:104CE0004FF0000A2E480078002804DD47F25910E2
:104CF0002080BDE8F0871EB946F2D5202080F8E775
:104D00001FB946F2D5202080F3E700BF00BFFBF7B4
:104D1000CFFA824600BF00BF0DB922480568286857
:104D200068B900BF00BF5046FBF7C6FA00BF00BF1E
:104D300000203060386047F252102080D9E795F8A3
:104D40003C0000F0010068B900BF00BF5046FBF70F
:104D5000B3FA00BF00BF00203060386047F2541043
:104D60002080C6E700BF00BF5046FBF7A5FA00BF92
:104D700000BF4FF00008D5F8249003E009F10409C2
:104D800008F10108D9F800000028F7D0C6F8008023
:104D9000A86BA0EB080038600020208000BFA8E7C7
:104DA0000C020020C4020020F0B50446DDE90556DF
:104DB00002EB850020F007004FF0000C071F38467B
:104DC000C7F800C04FF4805C071F3846C7F800C022
:104DD0004FF0150C071F3846C7F800C04FF0140CF1
:104DE000071F3846C7F800C04FF0130C071F38469E
:104DF000C7F800C04FF0120C071F3846C7F800C0B4
:104E00004FF0110C071F3846C7F800C04FF0100CC8
:104E1000071F3846C7F800C04FF0090C071F384677
:104E2000C7F800C04FF0080C071F3846C7F800C08D
:104E30004FF0070C071F3846C7F800C04FF0060CAC
:104E4000071F3846C7F800C04FF0050C071F38464B
:104E5000C7F800C04FF0040C071F3846C7F800C061
:104E60004FF0030C071F3846C7F800C04FF0020C84
:104E7000071F3846C7F800C04FF0010C071F38461F
:104E8000C7F800C04FF0000C071F3846C7F800C035
:104E90004FF0807C071F3846C7F800C0071F384610
:104EA0003C60DFF85CC1071F3846C7F800C04FF010
:104EB000123C071F3846C7F800C04FF0033C071FDD
:104EC0003846C7F800C04FF0023C071F3846C7F805
:104ED00000C0071F38463B60071F384639604FF057
:104EE000310C071F3846C7F800C04FF0300C071FC1
:104EF0003846C7F800C04FF0290C071F3846C7F8DE
:104F000000C04FF0280C071F3846C7F800C04FF00C
:104F1000270C071F3846C7F800C04FF0260C071FA4
:104F20003846C7F800C04FF0250C071F3846C7F8B1
:104F300000C04FF0240C071F3846C7F800C04FF0E0
:104F4000230C071F3846C7F800C04FF0220C071F7C
:104F50003846C7F800C04FF0210C071F3846C7F885
:104F600000C04FF0200C071F3846C7F800C04FF0B4
:104F7000190C071F3846C7F800C04FF0180C071F60
:104F80003846C7F800C04FF0170C071F3846C7F85F
:104F900000C04FF0160C071F3846C7F800C04FF08E
:104FA000113C071F3846C7F800C04FF0103C071FE0
:104FB0003846C7F800C04FF0093C071F3846C7F80D
:104FC00000C04FF0083C071F3846C7F800C04FF03C
:104FD000073C071F3846C7F800C04FF0063C071FC4
:104FE0003846C7F800C04FF0053C071F3846C7F8E1
:104FF00000C04FF0043C071F3846C7F800C0F0BDA2
:105000000D7400087FB505460C461248854203D151
:1050100047F25B1020807FBD0F48854203D147F2E5
:105020005C102080F7E70D48007800280BDD002099
:1050300000900190034602462946CDE90204084843
:1050400000F054FDE7E72146284602F04DFC00BF82
:10505000E1E7000044420020044300200C0200204D
:105060005453555310B51D48006810B11B480068D3
:105070008047FCF7F5FC044619480068194909689F
:10508000884215D016480068D0F89400201A1449B8
:105090000968C1F8900012480068D0F898001049DB
:1050A0000968D1F8901008440D490968C1F89800C2
:1050B0000C480068C0F8944009480068D0F8B00077
:1050C00009490968884205D2074800680449096807
:1050D000C1F8B00000200449086010BD00020020A3
:1050E000C4020020C8020020500200202DE9F04137
:1050F00005460E46144600273C480078002804DD8B
:1051000047F275202080BDE8F081394800780028FA
:1051100003DD46F663502080F5E736B1022E05D058
:10512000042E0AD0082E09D101E000BF00BF1DB92E
:1051300047F27E202080E6E704E003E045F62560A4
:105140002080E0E700BF00BF00BF00BFFBF7B0F862
:10515000074600BF00BF26480078401C244908705D
:1051600000BF00BF3846FBF7A7F800BF00BF00BF75
:105170002346324629461F48006802F0A1FC2088D9
:10518000A8B100BF00BF00BFFBF792F8074600BF01
:1051900000BF17480078401E1549087000BF00BFC7
:1051A0003846FBF789F800BF00BF00BFABE71148E6
:1051B000006801F00BFB00BF00BF00BFFBF778F8F1
:1051C000074600BF00BF0A480078401E0849087023
:1051D00000BF00BF3846FBF76FF800BF00BF00BF3D
:1051E000FEF7A4FF0020208000BF8CE70C02002007
:1051F00054020020C40200202DE9FF5F05460E4640
:1052000017469846DDE90EA400200090704800780B
:10521000002804DD47F275202080BDE8FF9F6D481F
:105220000078002803DD46F663502080F5E70AF099
:105230000E0BBBF1000F09D0BBF1020F07D0BBF181
:10524000040F10D0BBF1080F0ED101E000BF00BF6A
:10525000B8F1000F06D12FB926B91DB947F27E204B
:105260002080DAE704E003E045F625602080D4E7FB
:1052700000BF2AF01E0008B1012000E000200390CA
:105280000398012803D145F625602080C5E7CAF3BD
:10529000001002900298C0B9B8F57A7F03D347F2A4
:1052A0007B202080B9E73B2F03DD47F27A20208066
:1052B000B3E73B2E03DD47F279202080ADE7632D75
:1052C00012DD47F278202080A7E742F20F70864275
:1052D00003DD47F2792020809FE7B5F57A7F03DB75
:1052E00047F27820208098E73B48D0F800904FF4B0
:1052F000FA70B0FBF9F0404400FB09F04FF47A710A
:10530000B0FBF1F14FF461606843C6EB061200EBAD
:105310008200384400FB091001900198002851D008
:1053200000BF00BF00BFFAF7C3FF009000BF00BF7F
:1053300028480078401C2749087000BF00BF00982B
:10534000FAF7BAFF00BF00BF00BF23465A46234802
:105350000199006802F0B4FB2088A8B100BF00BF2B
:1053600000BFFAF7A5FF009000BF00BF1948007802
:10537000401E1849087000BF00BF0098FAF79CFF54
:1053800000BF00BF00BF48E71448006801F01EFAE4
:1053900000BF00BF00BFFAF78BFF009000BF00BF47
:1053A0000C480078401E0B49087000BF00BF0098F1
:1053B000FAF782FF00BF00BF00BFFEF7B7FE002074
:1053C000208002E047F27E20208000BF25E7000019
:1053D0000C0200205402002018BB0008C402002068
:1053E00010B586B000F01EF8FCF73AFB044605A89D
:1053F00000210091CDE9011403900748007800EBEB
:105400004000064A02EB800100231A46044800F0DF
:105410006DFB06B010BD00003A020020D043002012
:105420005449434B10B50348006810B10148006867
:10543000804710BD040200202DE9F05F0446884635
:1054400016461F46DDE90BABDDF828900D9D24487C
:105450000078002804DD47F243302880BDE8F09F43
:105460001CB945F6C3502880F8E7B9F1010F08D000
:10547000B9F1020F0BD11FB947F240302880EDE798
:1054800009E01EB947F23F302880E7E703E045F620
:1054900025602880E2E700BF02F046FE012084F884
:1054A000260010482060C4F80480E6610020A06156
:1054B0002762A4F82490C4F808A0C4F80CB02061B6
:1054C0006061204602F082FD07480088401C0649C2
:1054D000088002F0A3FE0020288000BFBEE7000085
:1054E0000C020020544D5220B00200202DE9F04162
:1054F00004460D464FF0000838480078002805DDC6
:1055000047F2433028800020BDE8F08124B947F2FB
:10551000423028800020F7E731492068884204D0D3
:1055200045F6C45028800020EEE794F826000028B5
:1055300047D0012818D0022802D0032846D114E011
:1055400000BF00BFFAF7B4FE804600BF00BFE069AD
:10555000A06100BF00BF4046FAF7AEFE00BF00BF2B
:1055600000202880012636E000BF02F0DDFD022089
:1055700084F82600E06910B9206AA06101E0E069C2
:10558000A0611848006840B900202061606115489A
:1055900004600120144908800DE012480768006883
:1055A0002061002060617C610E4804600E48008824
:1055B000401C0D49088002F031FE002028800126A1
:1055C00009E047F23D302880002604E047F24130F0
:1055D0002880002600BF00BF304695E70C0200205F
:1055E000544D5220AC020020A8020020244A254934
:1055F000254A264A2649274A2748284A284A294A26
:10560000294A2A482A482B482B4A2C482C4A2D48FC
:105610002D4A2E482E482F482F48304A304A314ACA
:105620003148324A324A334833483448344835489E
:1056300035483648364A374A374A384A384839486A
:1056400039483A4A3A4A3B4A3B483C483C483D493B
:105650003D483E4A3E4A3F4A3F4A404A404A414A04
:105660004148424A424A43484348444A444A4548DA
:10567000454A464A4648474800BF00BF00BF7047FA
:105680004CBB0008B0BC00084DBB00084EBB000876
:1056900050BB000854BB000858BB000855BB0008AD
:1056A00080BB000881BB000882BB000884BB0008E7
:1056B00086BB000888BB00088ABB00088CBB0008BA
:1056C000ACBB0008AEBB0008B0BB0008B2BB000812
:1056D000B4BB0008B6BB0008B8BB0008E4BB0008B8
:1056E000E5BB0008E6BB0008E8BB0008EABB000811
:1056F000EBBB0008ECBB0008EEBB0008F0BB0008E9
:10570000F2BB0008F4BB0008F6BB0008F8BB0008B9
:1057100028BC000829BC00082ABC00082BBC0008D3
:105720002CBC00082EBC000830BC000858BC000887
:1057300059BC00085ABC00085BBC00085CBC0008EF
:105740005EBC000860BC000864BC000865BC0008C2
:1057500066BC000867BC000868BC000869BC00089B
:105760006ABC00086BBC00086CBC00086EBC00087A
:105770006FBC000870BC000872BC000874BC000854
:1057800075BC000878BC0008A8BC0008A9BC0008CB
:10579000AABC0008ACBC00080021034A1160034AFF
:1057A00011800180704700002402002028020020A0
:1057B0002DE9F04F85B00446894692469B46DDF8B8
:1057C00038800020009000BF00BFFAF771FD009004
:1057D00000BF00BFBAF1000F0AD0BAF1010F0DD01F
:1057E000BAF5004F05D06FF40040504460B906E0B0
:1057F00000BF206A40EA0900206214E000BF206A6E
:1058000020EA090020620EE000BF00BF0098FAF70E
:1058100053FD00BF00BF45F62560A8F8000000203A
:1058200005B0BDE8F08F00BFC4F824B004F1080053
:1058300001900198008958B900BF00BF0098FAF79D
:105840003BFD00BF00BF0020A8F80000206AE7E78A
:1058500000BF5E480078401C5C49087000BF00BF74
:105860000098FAF729FD00BF00BF00BF0198076844
:10587000BD6879E07868029095F8840000F00F0028
:105880000390039801281ED0022829D0042802D0B2
:10589000082830D10CE0206AE96F00EA0106E86FC1
:1058A000B04204D15A463146284600F093F855E0FC
:1058B000206AE96F00EA010626B15A4631462846B9
:1058C00000F088F84AE0E86F216A20EA0106E86FF4
:1058D000B04204D15A463146284600F07BF83DE0FC
:1058E000E86F216A20EA010626B15A463146284669
:1058F00000F070F832E000BF00BF00BFFAF7D8FC3C
:10590000009000BF00BF31480078401E2F4908704A
:1059100008460078A0B92E480088002809DD00BF9D
:1059200000BF0098FAF7C8FC00BF00BF00F07CFF82
:105930000DE000BF00BF0098FAF7BEFC00BF06E014
:1059400000BF00BF0098FAF7B7FC00BF00BF00BF60
:1059500043F6FF20A8F80000002061E700BF029F87
:105960000FB1BD6800E00025002D83D100BF00BF4E
:1059700000BFFAF79DFC009000BF00BF13480078FD
:10598000401E1249087000BF00BF0098FAF794FC4F
:1059900000BF00BF00BF0AF4004008B9FEF7C6FB15
:1059A00000BF00BFFAF784FC009000BF00BF206A70
:1059B000049000BF00BF0098FAF77EFC00BF00BF54
:1059C0000020A8F8000004982AE7000054020020F4
:1059D0001802002070B504460E4615463434E664BD
:1059E000002060702070E560A078343C08281DD24B
:1059F000DFE800F0040508090706171800BF00BF1C
:105A000000BF14E000BF94F83600032802D12046FE
:105A100002F0B4F8204600F063FE002084F836005F
:105A200005E000BF042084F8360000E000BF00BF9E
:105A3000204600F094FC70BD002419E000BF00BFB8
:105A4000FAF736FC044600BF00BF0A480068401C55
:105A50000849086008480068401C0749086000BF02
:105A600000BF2046FAF728FC00BF00BFFDF702FF89
:105A7000E4E70000080200206C02002010B58AB0A4
:105A8000044600200E4908600B2000210591CDE955
:105A90000704069108460B4909680B4A12680B4B2C
:105AA0001B68CDE90132CDE903103F200023084AED
:105AB00008A100900C48FEF791FD0AB010BD00004F
:105AC00008020020C0BA0008BCBA0008B8BA000832
:105AD000395A000875432F4F532D494949204964CD
