:020000040800F2
:10000000A84F002085020008613B0008A13A0008C3
:10001000F73A00087D1C000821AE0008000000002F
:10002000000000000000000000000000E38900085C
:10003000392F00080000000023070008F98B000892
:100040009F0200089F0200089F0200089F0200080C
:100050009F0200089F0200089F0200089F020008FC
:100060009F0200089F0200089F0200089F020008EC
:100070009F0200089F0200089F020008212B000831
:100080009F020008312B00089F0200089F02000811
:100090009F0200089F0200089F0200089F020008BC
:1000A0009F0200089F0200089F0200089F020008AC
:1000B0009F0200089F0200089F0200089F0200089C
:1000C0009F0200089F0200089F0200089F0200088C
:1000D0009F0200089F020008759000089F02000818
:1000E0009F0200089F0200089F0200089F0200086C
:1000F0009F0200089F0200089F0200089F0200085C
:100100009F0200089F0200089F0200089F0200084B
:10011000659000089F0200089F0200089F020008E7
:100120009F0200089F0200089F0200089F0200082B
:100130009F0200089F0200089F0200089F0200081B
:100140009F0200089F0200089F02000871860008B5
:100150009F0200089F0200089F0200089F020008FB
:100160009F0200089F0200089F0200089F020008EB
:100170009F0200089F0200089F0200089F020008DB
:100180009F0200089F02000800F002F800F06AF8E1
:100190000AA090E8000C82448344AAF10107DA45E2
:1001A00001D100F05FF8AFF2090EBAE80F0013F0CA
:1001B000010F18BFFB1A43F001031847BCBF000032
:1001C000DCBF00000A444FF0000C10F8013B13F0B4
:1001D000070408BF10F8014B1D1108BF10F8015BA0
:1001E000641E05D010F8016B641E01F8016BF9D193
:1001F00013F0080F1EBF10F8014BAD1C0C1B09D1EA
:100200006D1E58BF01F801CBFAD505E014F8016B5B
:1002100001F8016B6D1EF9D59142D6D370470000ED
:100220000023002400250026103A28BF78C1FBD8FF
:10023000520728BF30C148BF0B607047642900F0E7
:100240009D80002070471FB50BF08AFE00F0FCF97E
:100250000400002000210BF0F1F9401C60601FBD7C
:1002600010B510BD00F0CAF91146FFF7ECFF0BF016
:1002700047F800F0EDF903B4FFF7F2FF03BC0AF012
:1002800085FF00000948804709480047FEE7FEE770
:10029000FEE7FEE7FEE7FEE7FEE7FEE7FEE7FEE736
:1002A00004480549054A064B70470000698C000860
:1002B00089010008A8490020A84F0020A84B002071
:1002C000A84B002072B6704762B67047EFF31080FB
:1002D00072B6704780F31088704730BF704720BFF8
:1002E0007047B0FA80F0704790FAA0F0B0FA80F052
:1002F000704790FAA0F07047704700000FB40449AF
:1003000010B503AA029800F01BF910BC5DF814FBAD
:10031000480000202DE9F0410E46044600202062EE
:100320002046E168884730B3252805D0D4E901216B
:100330009047206A401CF2E7E16820460027884782
:10034000050018D0A5F14100192802D820354FF436
:1003500000673246294620462760FFF76FFF40B10D
:10036000012804D0F61D26F007060836D8E7361D0A
:10037000D6E72846DAE7206ABDE8F0812DE9F041AA
:100380000646002410687529314616A510D0AFF333
:100390000080002802DA404213A507E031688A078E
:1003A00001D512A502E0490704D511A5012401E0F9
:1003B000AFF3008000210A2206F1240709E0B0FB18
:1003C000F2FCB0FBF2F302FB1C003030785418460C
:1003D000491C0028F3D123462A463046BDE8F041A7
:1003E00000F054B8000000002D0000002B000000B9
:1003F000200000002DE9F041054690460E46002001
:10040000044600E0641C44450BD2285D00F031F83E
:100410000746305D00F02DF8381A02D1295D002919
:10042000F0D1BDE8F0814FF000020429C0F0128045
:1004300010F0030C00F09880CCF1040CBCF1020F1A
:1004400018BF00F8012BA8BF20F8022BA1EB0C016C
:1004500000F08AB85FEAC17C24BF00F8012B00F8E5
:10046000012B48BF00F8012B704770477047704759
:10047000704710B5044600F09DF80068005DC006A6
:1004800002D504F1200010BD204610BD2DE9F04733
:100490000D4699469246044600F1240801688806F4
:1004A00004D5E06921F01001216000E00120A8429C
:1004B00001DD471B00E00027A1697A1902EB090062
:1004C000081AA0612078C00602D42046AFF300804D
:1004D000002608E0D4E901211AF806009047206AB6
:1004E000401C761C20624E45F4DB2078C0060AD5FD
:1004F0002046AFF3008006E0D4E901213020904788
:10050000206A401C2062381EA7F10107F4DC07E0D6
:10051000D4E9012118F805009047206A401C2062A8
:10052000281EA5F10105F3DC2046AFF300802078FA
:10053000000602D50220BDE8F0870120FBE700009D
:10054000074B70B50D467B4400F041F80446284641
:1005500000F050F810B14FF0FF3070BD204670BD74
:1005600093AD00004FF0000200B513469446964646
:10057000203922BFA0E80C50A0E80C50B1F12001B6
:10058000BFF4F7AF090728BFA0E80C5048BF0CC064
:100590005DF804EB890028BF40F8042B08BF7047C2
:1005A00048BF20F8022B11F0804F18BF00F8012B34
:1005B0007047000010B500F047F8001D10BD00BFE7
:1005C0007DB0000001694A1C02610878704700B5DF
:1005D0008FB0CDE901310021059105497944CDE97C
:1005E000031011466846FFF795FE0FB000BD0000EE
:1005F000E5FFFFFF007B00F080007047754600F0CC
:1006000031F8AE4605006946534620F0070085469E
:1006100018B020B5FFF744FEBDE820404FF00006BB
:100620004FF000074FF000084FF0000B21F00701DA
:10063000AC46ACE8C009ACE8C009ACE8C009ACE81D
:10064000C0098D4670470000004870476849002087
:1006500010B50446AFF300802046BDE81040FFF718
:100660000ABE000000487047484900204FF0013C96
:1006700050F8042B51F8043B9A4221D1A2EB0C0311
:10068000934313EACC1317D150F8042B51F8043BD1
:100690009A4215D1A2EB0C03934313EACC130BD16E
:1006A00050F8042B51F8043B9A4209D1A2EB0C03F9
:1006B000934313EACC13DBD04FF00000704700BF28
:1006C000D01A01BAB1FA81F101F0180122FA01F051
:1006D000CB40C1F12001DBB2C0B2C01A2CFA01F349
:1006E000D11A914311EAC311E6D1704722484FF65F
:1006F000FF710170002080F309882048016881F3B0
:1007000008881F484FF08051016062B6FEE71C4820
:100710004FF080510160704719484FF080510160DF
:10072000704772B6EFF3098050B11EF0100F08BF8A
:1007300020ED108A203880E8F00F1249096808601F
:1007400000B5114880475DF804EB104810490A785D
:1007500002700C480F490A680260106890E8F00FB8
:1007600020301EF0100F08BFB0EC108A80F309880B
:100770004EF0040E62B6704722ED00E0D802002071
:1007800004ED00E0D0020020A5540008460200203D
:1007900047020020D402002021B1826842F0010209
:1007A000826003E0826822F00102826070470000EC
:1007B0000021084A1168084A1140D0E900231A4371
:1007C00083681A43C3681A431143044AC2F80413E6
:1007D0007047000004230140E030FCFF002001408E
:1007E00021B1826842F48072826003E0826822F460
:1007F00080728260704721B1826842F40072826028
:1008000003E0826822F400728260704730B50246CD
:10081000002000235068104C20400D790C6844EAF9
:1008200005242043506090680C4C2040D1E90354CB
:100830002C438D682C434D7944EA45042043906055
:10084000D06A20F470000C7D641EE4B2234340EAB9
:100850000350D06230BD0000FFFEFFFCFDF7FFC07B
:10086000F0B504460D4600200021092D11DDE06899
:10087000A5F10A0606EB4607072606FA07F18843A4
:10088000A5F10A0606EB460603FA06F10843E06006
:100890000CE0206905EB4507072606FA07F18843B7
:1008A00005EB450603FA06F108432061072A0FDA33
:1008B000606B561E06EB86071F2606FA07F1884373
:1008C000561E06EB860605FA06F10843606322E031
:1008D0000D2A0FDA206BD61F06EB86071F2606FAB5
:1008E00007F18843D61F06EB860605FA06F1084392
:1008F000206310E0E06AA2F10D0606EB86071F26D2
:1009000006FA07F18843A2F10D0606EB860605FA02
:1009100006F10843E062F0BD816841F080418160EA
:100920007047000000B593B0012000F023FD059052
:100930000BF00EF99FEDFE0B53EC102BCDE90601E9
:100940009DED060B51EC100B0BF016F99FEDFA0B19
:1009500053EC102BCDE908019DED080B51EC100B69
:100960000AF02AFF9FEDF60B53EC102BCDE90A019C
:100970009DED0A0B51EC100B0AF01EFF9FEDF20BE0
:1009800053EC102BCDE90C019DED0C0B51EC100B31
:100990000BF0F2F89FEDEE0B53EC102BCDE90E01AE
:1009A0009DED0E0B51EC100B0BF0E6F8CDE91001AC
:1009B0009DED100B51EC100B0BF086F8E649888387
:1009C000022000F0D7FC01900BF0C2F89FEDD80B8D
:1009D00053EC102BCDE902019DED020B51EC100BF5
:1009E0000BF0CAF89FEDD40B53EC102BCDE90401AA
:1009F0009DED040B51EC100B0AF0DEFE9FEDCC0BCD
:100A000053EC102BCDE906019DED060B51EC100BBC
:100A10000BF0B0F99FEDD10B53EC102BCDE9080191
:100A20009DED080B51EC100B0AF0C6FE9FEDCD0BAF
:100A300053EC102BCDE90A019DED0A0B51EC100B84
:100A40000BF09AF89FEDBA0B53EC102BCDE90C018B
:100A50009DED0C0B51EC100B0BF098F99FEDBC0BBE
:100A600053EC102BCDE90E019DED0E0B51EC100B4C
:100A70000BF082F8CDE910019DED100B51EC100B3D
:100A80000BF022F8B449C883032000F073FC0590F2
:100A90000BF05EF89FEDA60B53EC102BCDE9060191
:100AA0009DED060B51EC100B0BF066F89FEDA20BC1
:100AB00053EC102BCDE908019DED080B51EC100B08
:100AC0000AF07AFE9FED9E0B53EC102BCDE90A0144
:100AD0009DED0A0B51EC100B0AF06EFE9FED9A0B88
:100AE00053EC102BCDE90C019DED0C0B51EC100BD0
:100AF0000BF042F89FED960B53EC102BCDE90E0155
:100B00009DED0E0B51EC100B0BF036F8CDE91001FA
:100B10009DED100B51EC100B0AF0D6FF8E490884A6
:100B2000042000F027FC01900BF012F89FED800BE1
:100B300053EC102BCDE902019DED020B51EC100B93
:100B40000BF01AF89FED7C0B53EC102BCDE9040150
:100B50009DED040B51EC100B0AF02EFE9FED740B73
:100B600053EC102BCDE906019DED060B51EC100B5B
:100B70000BF000F99FED790B53EC102BCDE9080138
:100B80009DED080B51EC100B0AF016FE9FED750B56
:100B900053EC102BCDE90A019DED0A0B51EC100B23
:100BA0000AF0EAFF9FED620B53EC102BCDE90C012C
:100BB0009DED0C0B51EC100B0BF0E8F89FED640B66
:100BC00053EC102BCDE90E019DED0E0B51EC100BEB
:100BD0000AF0D2FFCDE910019DED100B51EC100B86
:100BE0000AF072FF5C494884052000F0C3FB0590C1
:100BF0000AF0AEFF9FED4E0B53EC102BCDE9060132
:100C00009DED060B51EC100B0AF0B6FF9FED4A0B61
:100C100053EC102BCDE908019DED080B51EC100BA6
:100C20000AF0CAFD9FED510B53EC102BCDE90A01E0
:100C30009DED0A0B51EC100B0AF0BEFD9FED4D0B24
:100C400053EC102BCDE90C019DED0C0B51EC100B6E
:100C50000AF092FF9FED3E0B53EC102BCDE90E01F5
:100C60009DED0E0B51EC100B0AF086FFCDE9100143
:100C70009DED100B51EC100B0AF026FF36498884CD
:100C8000062000F077FB05900AF062FF9FED280B2D
:100C900053EC102BCDE906019DED060B51EC100B2A
:100CA0000AF06AFF9FED240B53EC102BCDE90801ED
:100CB0009DED080B51EC100B0AF07EFD9FED2B0B08
:100CC00053EC102BCDE90A019DED0A0B51EC100BF2
:100CD0000AF072FD9FED270B53EC102BCDE90C01B0
:100CE0009DED0C0B51EC100B0AF046FF9FED180B1D
:100CF00053EC102BCDE90E019DED0E0B51EC100BBA
:100D00000AF03AFFCDE910019DED100B51EC100BEC
:100D10000AF0DAFE1049C884072000F02BFB05908A
:100D20000AF016FF9FED020B53EC102B26E000009B
:100D30006666666666660A400000000000FEAF4018
:100D4000E17A14AE47E11040AE47E17A140E5A4002
:100D50000000000000005940D41B00205C8FC2F549
:100D6000285C05407B14AE47E1AA59400000000012
:100D700000002E403333333333F34340CDE90601D3
:100D80009DED060B51EC100B0AF0F6FE1FED160B55
:100D900053EC102BCDE908019DED080B51EC100B25
:100DA0000AF00AFD9FEDFE0B53EC102BCDE90A0172
:100DB0009DED0A0B51EC100B0AF0FEFC9FEDFA0BB7
:100DC00053EC102BCDE90C019DED0C0B51EC100BED
:100DD0000AF0D2FE1FED220B53EC102BCDE90E01D1
:100DE0009DED0E0B51EC100B0AF0C6FECDE9100183
:100DF0009DED100B51EC100B0AF066FEEC490885D6
:100E0000082000F0B7FA01900AF0A2FE1FED380B9F
:100E100053EC102BCDE902019DED020B51EC100BB0
:100E20000AF0AAFE1FED3C0B53EC102BCDE9040198
:100E30009DED040B51EC100B0AF0BEFC1FED440BB2
:100E400053EC102BCDE906019DED060B51EC100B78
:100E50000AF090FF9FEDD20B53EC102BCDE9080167
:100E60009DED080B51EC100B0AF0A6FC9FEDD10B89
:100E700053EC102BCDE90A019DED0A0B51EC100B40
:100E80000AF07AFE1FED560B53EC102BCDE90C0146
:100E90009DED0C0B51EC100B0AF078FF1FED540B7D
:100EA00053EC102BCDE90E019DED0E0B51EC100B08
:100EB0000AF062FECDE910019DED100B51EC100B14
:100EC0000AF002FEBA494885092000F053FA05905D
:100ED0000AF03EFE1FED6A0B53EC102BCDE9060124
:100EE0009DED060B51EC100B0AF046FE1FED6E0B4C
:100EF00053EC102BCDE908019DED080B51EC100BC4
:100F00000AF05AFC1FED670B53EC102BCDE90A01D8
:100F10009DED0A0B51EC100B0AF04EFC1FED6B0B14
:100F200053EC102BCDE90C019DED0C0B51EC100B8B
:100F30000AF022FE1FED7A0B53EC102BCDE90E01C7
:100F40009DED0E0B51EC100B0AF016FECDE91001D1
:100F50009DED100B51EC100B0AF0B6FD94498885FD
:100F60000A2000F007FA05900AF0F2FD1FED900B41
:100F700053EC102BCDE906019DED060B51EC100B47
:100F80000AF0FAFD1FED940B53EC102BCDE908018C
:100F90009DED080B51EC100B0AF00EFC1FED8D0BB4
:100FA00053EC102BCDE90A019DED0A0B51EC100B0F
:100FB0000AF002FC1FED910B53EC102BCDE90C0154
:100FC0009DED0C0B51EC100B0AF0D6FD1FEDA00BA4
:100FD00053EC102BCDE90E019DED0E0B51EC100BD7
:100FE0000AF0CAFDCDE910019DED100B51EC100B7C
:100FF0000AF06AFD6E49C8850B2000F0BBF901902C
:101000000AF0A6FD1FEDB60B53EC102BCDE9020143
:101010009DED020B51EC100B0AF0AEFD1FEDBA0B6B
:1010200053EC102BCDE904019DED040B51EC100B9A
:101030000AF0C2FB1FEDC20B53EC102BCDE90601E9
:101040009DED060B51EC100B0AF094FE9FED540B36
:1010500053EC102BCDE908019DED080B51EC100B62
:101060000AF0AAFB9FED530B53EC102BCDE90A01BC
:101070009DED0A0B51EC100B0AF07EFD1FEDD40B19
:1010800053EC102BCDE90C019DED0C0B51EC100B2A
:101090000AF07CFE1FEDD20B53EC102BCDE90E01B4
:1010A0009DED0E0B51EC100B0AF066FDCDE9100121
:1010B0009DED100B51EC100B0AF006FD3C49088623
:1010C0000C2000F057F905900AF042FD1FEDE80BE7
:1010D00053EC102BCDE906019DED060B51EC100BE6
:1010E0000AF04AFD1FEDEC0B53EC102BCDE9080183
:1010F0009DED080B51EC100B0AF05EFB1FEDE50BAC
:1011000053EC102BCDE90A019DED0A0B51EC100BAD
:101110000AF052FB1FEDE90B53EC102BCDE90C014B
:101120009DED0C0B51EC100B0AF026FD1FEDF80B9A
:1011300053EC102BCDE90E019DED0E0B51EC100B75
:101140000AF01AFDCDE910019DED100B51EC100BCA
:101150000AF0BAFC164948860D2000F00BF90590FC
:101160000AF0F6FC9FED150B53EC102BCDE90601B0
:101170009DED060B51EC100B0AF0FEFC9FED110BE0
:1011800053EC102BCDE908019DED080B51EC100B31
:101190000AF012FB9FED0D0B53EC102B1AE0000030
:1011A000F6285C8FC2F51340A4703D0AD7E33D409A
:1011B000D41B00208FC2F5285CBF5C406666666663
:1011C00066660A400000000000FEAF40000000001C
:1011D00000002440CDE90A019DED0A0B51EC100BF3
:1011E0000AF0EAFA9FED370B53EC102BCDE90C0116
:1011F0009DED0C0B51EC100B0AF0BEFC9FED330B78
:1012000053EC102BCDE90E019DED0E0B51EC100BA4
:101210000AF0B2FCCDE910019DED100B51EC100B62
:101220000AF052FC2B4988860E2000F0A3F80590A6
:101230000AF08EFC1FED1F0B53EC102BCDE90601BD
:101240009DED060B51EC100B0AF096FC1FED230BE5
:1012500053EC102BCDE908019DED080B51EC100B60
:101260000AF0AAFA1FED270B53EC102BCDE90A0167
:101270009DED0A0B51EC100B0AF09EFA9FED110B3D
:1012800053EC102BCDE90C019DED0C0B51EC100B28
:101290000AF072FC9FED0D0B53EC102BCDE90E0103
:1012A0009DED0E0B51EC100B0AF066FCCDE9100120
:1012B0009DED100B51EC100B0AF006FC0549C88699
:1012C00013B000BD0000000000003440000000002A
:1012D00000005940D41B002030B58BB004460D46A9
:1012E0002148844203D10121801507F033FA1F48B9
:1012F000844203D10121401507F02CFA1C48844296
:1013000003D10121001507F025FA01214FF4A06057
:1013100007F030FA00214FF4A06007F02BFA00200C
:1013200007904FF480300890002009900A9007A899
:10133000FFF73EFA0020019001208DF808008DF89B
:101340000900002003904FF0706004900020059089
:101350008DF8185001A92046FFF758FA01212046C0
:10136000FFF71AFA0BB030BD002001400021014008
:1013700000220140F0B58AB00446002300210BE0B2
:10138000C1EBC1001B4E06EB8006601E36F8100054
:101390002DF81100481CC1B21429F1DB00211AE01C
:1013A000002212E03DF81260501C3DF81000864209
:1013B00009DD3DF81250501C3DF810002DF81200C8
:1013C000501C2DF81050501CC2B2C1F113009042B5
:1013D000E8DC481CC1B21429E2DB022104E03DF83C
:1013E00011000344481CC1B21229F8DB1B0998B252
:1013F0000AB0F0BDE422002010B5FF21084600F03D
:10140000BDF810BD10B540F6FF7000F0DBF80349E1
:10141000C888FF2100F0C4F810BD0000D41B0020D4
:1014200010B540F6FF7000F0CDF840F6FF7000F008
:10143000D8F8FF21084600F0B3F810BD10B52548D4
:10144000808841F64C51884243DC22488088B0F5C0
:101450007A7F3EDB1F48C08888423ADC1D48C0883E
:10146000B0F57A7F35DB1B480089B0F5FA7F30DCB8
:1014700018480089FA282CDB16484089B0F5FA7F15
:1014800027DC14484089FA2823DB4FF40041124836
:1014900001F0FAFE4FF480410F4801F0F5FEFFF72E
:1014A000B1FF0C49888800F08DF80A4A5189D0882C
:1014B00000F076F8074A5189108900F05FF84FF480
:1014C0000041054801F0DEFE4FF48041024801F082
:1014D000DBFE10BDD41B00200018024010B52548CB
:1014E000808841F64C51884242DC22488088B0F521
:1014F0007A7F3DDB1F48C088884239DC1D48C088A0
:10150000B0F57A7F34DB1B480089884230DC19480B
:101510000089B0F5FA7F2BDB16484089884227DC2A
:1015200014484089B0F5FA7F22DB4FF4004112489D
:1015300001F0AAFE4FF480410F4801F0A5FEFFF72D
:101540005BFF0C49888800F03DF80A49088900F0E3
:1015500048F8084A5189D08800F022F84FF4004139
:10156000054801F08FFE4FF48041034801F08AFEE8
:1015700010BD0000D41B0020001802402DE9F041EE
:1015800005460C46284607F081F80646204602F03C
:1015900039FB0746F9B2F0B201F094FBBDE8F081E7
:1015A0002DE9F04105460C46284609F04DFD06465A
:1015B000204609F049FD0746F9B2F0B201F0D0FB30
:1015C000BDE8F08170B50446204609F08DFD054662
:1015D0002946002000F004FD0121002000F020FD3C
:1015E00070BD70B50446204609F07EFD05462946CB
:1015F000002000F005FD0121102000F011FD70BD5C
:101600000EB56DE0374A1179106807F04DF90128E1
:101610000DD1354A11791068FEF705FF00F0C4FBC3
:101620003149086801F078FD304807F0DBF9304AAD
:101630001179106807F038F9012806D12C4A117980
:101640001068FEF7F0FE00F0AFFB2949086801F0D2
:10165000EBFB20B1264A11791068FEF7E4FE25481D
:1016600090F8470001280CD10021224880F847104B
:10167000408C00901F48038CC28B818B1EA0FEF70C
:101680003DFE1C4890F8480001280CD10021194863
:1016900080F84810408C00901648038CC28B818BD8
:1016A00015A0FEF72BFE134890F8460001280DD137
:1016B0000020104981F846000846408C00900846FA
:1016C000038CC28B818B0CA0FEF718FE02A80821A8
:1016D0000A230022CDE900101146104603F0ACFFAA
:1016E00090E700005C00002064000020A060024041
:1016F0004C000020D41B0020566F6C74616765207D
:101700003A202564202564202564202564200D0AC4
:101710000000000000B58BB00AA80321002205924A
:10172000CDE90621089010464FF480711922074B2D
:10173000CDE90132CDE9031006200023044A05A1BA
:101740000090084803F06AF90BB000BD4C1200206D
:10175000011600084170705F436F6D5F5461736BD9
:10176000000000008C1100200EB50FE04FF48061E6
:10177000074801F08BFD02A808214FF4FA730022FC
:10178000CDE900101146104603F056FFEEE70000C9
:10179000000C024000B58BB00AA80321002205927C
:1017A000CDE90621089010464FF480711922074BAD
:1017B000CDE90132CDE9031003200023044A05A13D
:1017C0000090084803F02AF90BB000BD8C080020F7
:1017D000691700084170705F4C65645F5461736BFA
:1017E00000000000CC07002010B586B0002400F0F7
:1017F00047FA05A803F090F805AA0121084602F06F
:101800003FFF00BF00BF00BFFEF760FD044600BF02
:1018100000BF2D480078401C2B49087000BF00BF56
:101820002046FEF757FD00BF00BF00BFFFF7B2FF25
:1018300000F0C2F9FFF76EFF00F09AF805A800214A
:10184000224A0223CDE90032CDE9021001231A46D3
:101850001FA1244804F010F805A9224804F066F8F6
:1018600005A9214803F0EEFD00BF00BF00BFFEF751
:101870002DFD044600BF00BF13480078401E1249EA
:10188000087008460078A0B918480088002809DDCB
:1018900000BF00BF2046FEF71DFD00BF00BF05F0E2
:1018A000E3F90DE000BF00BF2046FEF713FD00BFC7
:1018B00006E000BF00BF2046FEF70CFD00BF00BFE2
:1018C00000BF06B010BD00006002002091B100080A
:1018D0005379735F537461746543686B5F546D72C1
:1018E000000000009C030020DC02002024020020F5
:1018F00000B58BB00AA8032100220592CDE906218C
:10190000089010464FF480711922074BCDE901323F
:10191000CDE903101E200023044A05A100900848C9
:1019200003F07CF80BB000BDCC030020E9170008E1
:101930004170705F53746172745F5461736B000027
:10194000DC0200200EB511E0BDF8080007F0ECF94C
:10195000BDF8080007F0F0FA02A808210A230022C7
:10196000CDE900101146104603F066FEECE70000DA
:1019700000B58BB00AA8032100220592CDE906210B
:10198000089010464FF480711922074BCDE90132BF
:10199000CDE9031008200023044A05A1009008485F
:1019A00003F03CF80BB000BD0C17002045190008EF
:1019B0005379734F6E4F66665461736B5463620064
:1019C0004C1600200EB5E5E009F078FA60B17248D7
:1019D0000068C1B2714806F067FF012801D100F02C
:1019E000E3F900206C4908606D4890F84700012831
:1019F0003FD100216A4880F8471002206949887069
:101A00000820C8706648808B0012496808706448D6
:101A1000007F6449496848706148C08B0012614981
:101A2000496888705E48807F5E494968C8705C4834
:101A3000008C00125B4949680871594890F82000F1
:101A40005849496848715648408C001255494968C0
:101A50008871534890F8220052494968C871524829
:101A600001F05AFB5048C078811D5048C2684E486A
:101A700090474B4890F8480001283FD10021484842
:101A800080F848100320474988700820C8704448EF
:101A9000808B0012496808704148007F41494968BD
:101AA00048703F48C08B00123E49496888703C48E6
:101AB000807F3C494968C8703948008C0012394918
:101AC00049680871364890F82000364949684871DD
:101AD0003348408C0012334949688871304890F887
:101AE000220030494968C8712F4801F015FB2E4883
:101AF000C078811D2D48C2682B489047284890F82F
:101B00004900A8B10121264880F849100020254944
:101B100088700120C870002049680870224801F0D0
:101B2000FBFA2148C078811D2048C2681E489047B2
:101B30001B4890F84A0018B30121194880F84A1050
:101B400013201849C87008464168194802680A609D
:101B500042684A6002890A81807A88721148406826
:101B600014490A6840F80B2F496841600E4801F09B
:101B7000D3FA0D48C078811D0C48C2680A489047C6
:101B800002A808210A230022CDE9001011461046C0
:101B900003F052FD18E700007C0000207E260020A4
:101BA000D41B0020240000208C0C00208800002082
:101BB000000000200B00002000B58BB00AA8032114
:101BC00000220592CDE90621089010464FF480715D
:101BD0001922074BCDE90132CDE90310042000237F
:101BE000044A05A10090084802F018FF0BB000BDA0
:101BF0008C0D0020C51900084170705F5573625F3D
:101C00005461736B00000000CC0C00201FB56846C7
:101C100006F0C0FD019804B010BD000008B5002119
:101C20004FF0006001F0E4FF02F020F801F0CCFB7F
:101C30000E480F4B0F4A012100900F4807F0ADFDF1
:101C400006F0E4FF00F038F901F08EF906F050FFDD
:101C5000FFF7E6FBFFF7D0FB09F066F9002001F083
:101C6000CDF8102001F0CAF808BD0000F4000020F3
:101C7000340100209C000020281C002000BFFEE74B
:101C800010B500F01FF800F019F810BD10B50024D1
:101C900000BF00BFFEF71AFB044600BF00BF1021C3
:101CA000054801F02AFF00BF00BF2046FEF712FBE7
:101CB00000BF00BF10BD0000BE2E002010B5FFF712
:101CC000E5FF10BD10B500200249086000F00AF8D9
:101CD00010BD0000EC0100200149086070470000C1
:101CE000EC01002010B5FFF791FF0446084800689A
:101CF00040F08070064908600020064948600846A8
:101D0000006840F0010008602046FFF7E5FF10BDC5
:101D1000FCED00E0001000E0014948687047000059
:101D2000001000E01F48808896301E4988810846D0
:101D300080889638C8810846808896300882084690
:101D400080889638488208460078012811D1002002
:101D500008700846008996308882084600899638BF
:101D6000C88208460089963008830846008996385C
:101D700048830C484078012812D100200949487056
:101D80000846008964308882084600896438C88221
:101D9000084600896430088308460089643848830F
:101DA00070470000D41B002010B50D48807830B17A
:101DB000012807D0022808D003280CD108E001F040
:101DC000E1FA0BE001F0D6FA08E001F09BFA05E039
:101DD00001F060FA02E001F065FE00BF00BF10BD37
:101DE0001800002010B540F224412D4807F07BF97F
:101DF00018B340F224412A4807F044F928480088E3
:101E00002748001D00880021264800F0CDFE264905
:101E1000244800F095FE234800F0D1FEC0F1640094
:101E200022490871084600681E494039C864642088
:101E3000486401211B4800F0B7FE40F224411C48D1
:101E400007F051F950B340F22441194807F01AF94C
:101E5000174800881648001D0088002111484830A6
:101E600000F0A2FE10490F48483000F069FE0D480E
:101E7000483000F0A4FEC0F164000E490871084625
:101E80000068084954310860642006494039C1F8A7
:101E90008C0001210348483000F086FE10BD000090
:101EA000004C004040600240200000204C00002018
:101EB000004400405C00002000B587B04FF4E131E1
:101EC0002C4808F0AFFF002240F22551294807F0C6
:101ED00034F9002240F22771264807F02EF901223A
:101EE00040F22441234807F028F9012240212148EB
:101EF00007F0E3F8012280211E4807F0DEF84FF4D6
:101F000040304FF4807100220292CDE90321059008
:101F10000420CDE900201848164A121DC9040368A0
:101F2000164801F08DF84FF440304FF480710022D4
:101F30000292CDE90321059004204021CDE9001053
:101F40000F480C4A121D490503680C48183001F06F
:101F500077F80121094800F027FE002107481830D2
:101F600000F022FE012210210448183000F05EFE2D
:101F700007B000BD004400405C00002088600240C3
:101F80006400002039B1084A1268012383401A43D3
:101F9000054B1A6006E0044A1268012383409A4305
:101FA000014B1A60704700000074004030B50022F9
:101FB00000230A4C226840F6FE748440A243D1E913
:101FC00000452C438D682C43CD6844EA050303FA91
:101FD00000F42243014C226030BD00000074004038
:101FE00008B500220092054A009200F10802009B09
:101FF0001A440092009A116008BD0000007400406D
:1020000008B500220092054A009200F11402009BDC
:102010001A440092009A116008BD0000007400404C
:1020200010B541B1084A126804090123A3401A43BC
:10203000054B1A6007E0044A126804090123A34013
:102040009A43014B1A6010BD0474004070B50646F7
:102050000C4604F08000802808D104F07F0000EBDB
:10206000800106F58E7000EBC10507E004F07F00EB
:1020700000EB800106F55D7000EBC10504F07F0008
:10208000287004F08000C00968702946304608F0C6
:1020900058FB002070BD70B506460C4604F0800069
:1020A000802808D104F07F0000EB800106F58E70D7
:1020B00000EBC10505E004EB840106F55D7000EB63
:1020C000C1050020A87004F07F002870C4F3C01080
:1020D00068702946304608F00CFB002070BD2DE9E1
:1020E000F04106460D4690461F4605F080008028C8
:1020F00008D105F07F0000EB800106F58E7000EB43
:10210000C10407E005F07F0000EB800106F55D707B
:1021100000EBC10405F07F00207005F08000C009CD
:102120006070C4F80880E770607808B12078E080BB
:10213000022F01D1002020712146304608F08DFA8F
:102140000020BDE8F0812DE9F04105460E46174616
:10215000984606F07F0000EB800105F55D7000EB0E
:10216000C104E760C4F814800020A061607006F02C
:102170007F002070E878012800D12761207820B9FD
:102180002146284608F08DF903E02146284608F04C
:1021900057FB0020BDE8F08108B500220092009AAC
:1021A00061F30A12009202691268009B1A430369E4
:1021B0001A6008BD70B506460C4604F08000802801
:1021C00008D104F07F0000EB800106F58E7000EB73
:1021D000C10505E004EB840106F55D7000EBC10567
:1021E0000120A87004F07F002870C4F3C01068704C
:1021F0002946304608F0F2FA002070BD2DE9F04182
:1022000007460D461646984605F07F0000EB800114
:1022100007F58E7000EBC1040120607005F07F00AF
:102220002070E66026610020A061C4F81480207848
:1022300020B92146384608F034F903E021463846F3
:1022400008F0FEFA0020BDE8F081000030B587B04C
:102250000546594C284608F0EAF801A806F09AFA13
:10226000029CE868C0680590059820F470500590BD
:102270000598E968C860284608F0B4FC03280BD12B
:102280000020A8704FF40070A880059820F47050CA
:1022900000F5105005907EE00120A8704020A88035
:1022A0004648844209D34648844206D2059820F421
:1022B000705000F5605005906DE04148844209D3AC
:1022C0004048844206D2059820F4705000F55050E2
:1022D000059060E03B48844209D33B48844206D2E3
:1022E000059820F4705000F54050059053E03648B2
:1022F000844209D33548844206D2059820F47050B0
:1023000000F53050059046E03048844209D330480B
:10231000844206D2059820F4705000F520500590B4
:1023200039E02B48844209D32A48844206D20598D2
:1023300020F4705000F5105005902CE025488442A0
:1023400009D32548844206D2059820F4705000F540
:10235000005005901FE02048844209D31F48844262
:1023600006D2059820F4705000F5E050059012E078
:102370001A48844209D31A48844206D2059820F4A8
:10238000705000F5C050059005E0059820F470509D
:1023900000F5A05005900598E968C86000200690F7
:1023A000069820F4005000F5005006900698E96861
:1023B0004861012007B030BD007A030AC0E1E400A3
:1023C0000024F400E0EC040100C31801002D3101E9
:1023D00040A44C0100366E0140E2950180C3C90162
:1023E00060600B02F8B505460024002000902846E6
:1023F00008F039FC064681E006F0010000287BD099
:10240000E1B2284600F00CFB0090009800F00100BB
:1024100030B3012000FA04F72869406BB8432969FA
:10242000486300200090009820F00100401C0090BC
:1024300005F1180050F8240000998160E1B232489B
:102440000068426828469047E878012808D13CB9DE
:1024500040F21110405D042802D1284608F0CCF863
:102460000098C0F3C00060B100200090009820F0F8
:1024700008000830009005F1180050F82400009979
:1024800081600098C0F3001060B1002000900098B7
:1024900020F010001030009005F1180050F82400D2
:1024A000009981600098C0F3801060B10020009016
:1024B000009820F040004030009005F1180050F8DE
:1024C0002400009981600098C0F3400060B10020B2
:1024D0000090009820F00200801C009005F1180088
:1024E00050F82400009981600098C0F3C01018B122
:1024F0002146284600F0BEFA641C7608002E7FF4C0
:102500007BAF0120F8BD0000D80100207CB5044657
:10251000002500200190204608F0ADFB06466FE044
:1025200006F00100002869D0E9B2204608F0ABFBB4
:102530000190019800F00100C8B3002001900198BB
:1025400020F00100401C019004F1540050F82500D7
:1025500001998160E078012817D104F1540050F806
:1025600025000069009005EB850104F55D7000EB26
:10257000C10080680099C1F31201411A05EB850280
:1025800004F55D7000EBC2008161E9B21E4800688D
:10259000026820469047E078012808D13DB940F212
:1025A0001110005D052802D1204608F025F8019899
:1025B000C0F3400060B100200190019820F00200BB
:1025C000801C019004F1540050F8250001998160AD
:1025D0000198C0F3C00088B10B48006881682046AC
:1025E000884700200190019820F0080008300190F1
:1025F00004F1540050F82500019981606D1C7608A3
:10260000002E8DD101207CBDD80100203EB50446AE
:10261000A07A78B1D4F80C0100680090009820F0FE
:1026200002000090009820F0010000900099D4F87A
:102630000C01016000200190019820F00100401C75
:1026400001902069406801998843216948600948E0
:10265000006881692046884700200290029820F097
:10266000004000F1004002900298E16848610120BA
:102670003EBD0000D80100207CB50446002001903A
:10268000019820F0100010300190E06880690199F5
:102690008843E1688861E068006A0090009800F073
:1026A0000F0000EB800104F55D7000EBC1050098A0
:1026B000C0F3434007282DD2DFE800F02C04051DAD
:1026C0001E2C1F0027E00098C0F30A1090B100985C
:1026D000C0F30A122046E96808F0DFFAE8680099BA
:1026E000C1F30A110844E860A8690099C1F30A110E
:1026F0000844A8610FE00EE00DE0082204F2CC517E
:10270000204608F0CAFAA8690099C1F30A110844E2
:10271000A86100E000BF00BFE0688069019908433C
:10272000E168886101207CBD38B50446084800682E
:10273000C1682046884700200090009820F00800DB
:10274000083000900098E1684861012038BD000021
:10275000D80100201FB50446002000904FF4897076
:10276000005D009023480068416920468847206941
:102770008068019000200390039820F4006000F529
:10278000006003900398E1684861A07A70B30198F3
:1027900000F0010050B340F21510005D012825D172
:1027A0009DF80000032821D100200290029820F01B
:1027B0000100401C0290D4F80C0100680299084303
:1027C000D4F80C110860029820F00200801C0290DE
:1027D000D4F80C01006802990843D4F80C11086081
:1027E0000548006840F0060003490860012004B075
:1027F00010BD0000D801002010ED00E030B587B01A
:1028000004460020029006900590049003900190E9
:10281000029820F00100401C029020694068029953
:102820008843216948600021204608F0B1F900255D
:102830000BE0FF2104F1180050F82500816004F13D
:10284000540050F8250081606D1C6078A842F0D8D3
:102850004FF0FF312069816106986FF30F00401C33
:102860000690069880B200F580300690069920699F
:10287000C161059820F0080008300590059820F007
:102880000100401C0590059820F00200801C059076
:10289000059920694161049820F00100401C0490D2
:1028A000049820F0080008300490049820F00200FA
:1028B000801C0490049920690161206900680390DC
:1028C000039820F4FE60039003992069016020467C
:1028D00007F092FE00200190019820F4805000F54E
:1028E000805001900198E1684861044800680169DE
:1028F00020468847012007B030BD0000D8010020E5
:102900002DE9F04106460F463946304608F0DAF91F
:1029100001214FF4897081550021801C81550025CB
:1029200011E005EB850106F58E7000EBC104012076
:1029300060702570E5800020E0704020A0600020DD
:10294000E06060616D1C7078A842EAD8002510E054
:1029500005EB850106F55D7000EBC1040020607099
:102960002570E580E0704020A0600020E06060619C
:102970006D1C7078A842EBD8304607F047FD304612
:1029800007F077FB0021304608F004FA304607F0E4
:10299000FDFB304608F0C5F8BDE8F08138B50446C7
:1029A0000020009007480068C169204688470098C9
:1029B00020F4801000F5801000900098E1684861D4
:1029C000012038BDD801002038B504460020009011
:1029D00007480068016A20468847009820F40010E4
:1029E00000F5001000900098E1684861012038BDB2
:1029F000D801002038B50446E0684068009000988F
:102A0000C0F3800020B105480068816A20468847ED
:102A10000098E1684860012038BD0000D80100201E
:102A200030B5024615692B6915696C6B24FA01F5FE
:102A300005F0010543EAC51302F1180555F82150C8
:102A4000AD6805EA030030BD38B5044608480068A3
:102A5000416A2046884700200090009820F080407E
:102A600000F1804000900098E1684861012038BD85
:102A7000D80100202DE9F84306460F460025002026
:102A8000009007EB870106F58E7000EBC104D4E9D6
:102A90000501451AA068A84200D2A568E81C4FEAC3
:102AA000900806F1180050F827008069009029E08E
:102AB000D4E90501451AA068A84200D2A568E81C1F
:102AC0004FEA9008ABB2FAB23046E16808F089F9F3
:102AD000E0682844E060A0692844A06106F118007D
:102AE00050F8270080690090D4E90501884209D197
:102AF0002178012000FA01F93069406B20EA0900D1
:102B000031694863009880B2404506D9D4E9051080
:102B1000884202D260690028CAD10120BDE8F8834A
:102B200010B501F0ABF900F0CBFA01F0BDF910BD22
:102B300010B501F0A3F900F0C3FA01F0B5F910BD2A
:102B40000246094B9A4201D2084801E00648103873
:102B500001F000531BB1064B0B40C36002E0044B75
:102B60000B40836070470000106402400060024028
:102B70007D0F7D0F0246094B9A4201D2084801E0C1
:102B80000648103801F000531BB1064B0B40C360E0
:102B900002E0044B0B408360704700001064024069
:102BA000006002407D0F7D0F21B1026842F00102FA
:102BB000026003E0026822F00102026070470146F1
:102BC000486880B27047000070B5024600200024BB
:102BD0000025124EB24201D2114B01E00F4B103BC7
:102BE000104E0E4036B11E2606EAD124166806EABB
:102BF000040502E0566906F0800501F000560EB1AA
:102C00005C6800E01C68084E344004EA010616B116
:102C10000DB1012000E0002070BD000010640240F2
:102C2000006002403C0F3C0F7D0F7D0F10B501F09E
:102C300080034BB122B1436943F08003436103E059
:102C4000436923F08003436180290BD02AB10368D4
:102C500001F01E042343036004E0036801F01E0436
:102C6000A343036010BD000010B500220268134B9F
:102C70001A40CC680B6823434C6923438C69234377
:102C8000CC6923430C6A23434C6A23438C6A234355
:102C90004C6B23438C6B23431A430260426922F03E
:102CA0000702D1E90B3423431A4342610B694360A5
:102CB0004B6883608B68C36010BD00003F801CF0D0
:102CC0004160704770B504460D464FF4804122487C
:102CD00000F0D8FA49F20101204805F06AFE4FF4ED
:102CE0007A6000F0A7F94FF480411B4800F0CCFA5D
:102CF0004FF4FA6000F09EF94FF48041164800F05E
:102D0000C1FA4FF4805040EA0511144805F051FE15
:102D10004FF47A6000F08EF94FF480410E4800F0D5
:102D2000B3FA4FF4FA6000F085F94FF480410A4895
:102D300000F0A8FA4FF4004040EA0411074805F0FB
:102D400038FE4FF47A6000F075F94FF48041024884
:102D500000F09AFA70BD000000040240003C004000
:102D600070B504460D464FF40051224800F08AFA2F
:102D700049F20101204805F01CFE4FF47A6000F092
:102D800059F94FF400511B4800F07EFA4FF4FA60F5
:102D900000F050F94FF40051164800F073FA4FF468
:102DA000805040EA0511144805F003FE4FF47A60A4
:102DB00000F040F94FF400510E4800F065FA4FF46E
:102DC000FA6000F037F94FF400510A4800F05AFA5F
:102DD0004FF4004040EA0411074805F0EAFD4FF4C3
:102DE0007A6000F027F94FF40051024800F04CFAE5
:102DF00070BD000000040240003C00401FB50446C6
:102E00000121480705F096FC3C200090002001902D
:102E100002900220039069462046FFF7C7F801217F
:102E20002046FFF7AFF81FBD70B5044600252046C9
:102E300000F084F80546012D02D0022D77D13FE045
:102E4000E07930384FF47A7110FB01F1207A303894
:102E500000EBC00202EB001001EB8001607A303819
:102E600000EB800001EB4001A07A3038084480B2CA
:102E700030498880C880207B30384FF47A7110FB4D
:102E800001F1607B303800EBC00202EB001001EB77
:102E90008001A07B303800EB800001EB4001E07B3B
:102EA0003038084480B223490881488101200870E5
:102EB000FEF738FFFEF712FB01201E49887036E04E
:102EC000E07930384FF47A7110FB01F1207A303814
:102ED00000EBC00202EB001001EB8001607A303899
:102EE00000EB800001EB4001A07A3038084480B24A
:102EF00010498880C880207B3038642110FB01F1A4
:102F0000607B303800EB800001EB4001A07B303863
:102F1000084480B207490881488101204870FEF7C3
:102F200001FFFEF78BFA01200249C87000BF00BF05
:102F3000284670BDD41B00207047000070B50546C0
:102F400000240BE0074850F8241006222846FDF71D
:102F500051FA10B9601CC0B270BD641C022CF1DBC8
:102F60000020F9E73000002000B587B04FF4E131D0
:102F70002C4807F057FF002240F22551294806F05F
:102F8000DCF8002240F22771264806F0D6F801222C
:102F900040F22441234806F0D0F801224021214884
:102FA00006F08BF8012280211E4806F086F84FF4C7
:102FB00040304FF4807100220292CDE90321059048
:102FC0006420CDE900201848164A121DC904036880
:102FD000164800F035F84FF440304FF4807100226D
:102FE0000292CDE90321059064204021CDE9001033
:102FF0000F480C4A121D490503680C48303000F098
:103000001FF801210948FFF7CFFD002107483030A4
:10301000FFF7CAFD0122102104483030FFF706FEF9
:1030200007B000BD004C00404C0000204060024052
:103030005400002000BF411E89B2081EFBD170471A
:103040002DE9F04F8FB004460D4616461F46DDE9C8
:103050001AABDDE918891948844204D201214805D8
:1030600005F048FB03E00121880505F043FB0095CE
:1030700001960297CDF80C80CDF8109000200590B5
:103080004FF480600690CDF81CA0CDF820B01C98BD
:1030900009901D980A9000200B9003200C900020AE
:1030A0000D900E9069462046FFF7DEFD0021204678
:1030B000FFF77AFD0FB0BDE8F08F0000006402401A
:1030C00010B513491348FFF77FFD58B1002111488F
:1030D000FFF76AFD64210F48FFF7F2FD0C490D4828
:1030E000FFF748FD0A490B483030FFF76DFD70B11E
:1030F000002108483030FFF757FD64210548303083
:10310000FFF7DEFD024903483030FFF733FD10BD05
:10311000208000207060024010B500221E494978CE
:103120001D4B9B7819441C4BDB7819441A4B1972C0
:1031300000BF09E01849097A174B5B689B5C19448A
:10314000154B1972511CCAB21349C9789142F1DC6E
:103150001149097801701049497841700E49897800
:1031600081700D49C978C170002105E00A4B5B6888
:103170005C5C0B1DC454491C074BDB788B42F5DCAF
:1031800005490B7AC978091D435403494B7AC9781C
:10319000491D435410BD000024000020F0B50A462C
:1031A00000210023002400BF3DE0012505FA01F3C2
:1031B000156805EA03049C4234D105684F000326D4
:1031C000BE40B543056015794E00B54006683543ED
:1031D00005601579012D02D01579022D16D185686B
:1031E0004F000326BE40B543856055794E00B5407B
:1031F000866835438560456801268E40B543456045
:10320000456896798E40B6B235434560C5684F0033
:103210000326BE40B543C560D5794E00B540C668AB
:103220003543C560491C1029BFD3F0BDF0B500235C
:1032300000244D07ED0E02FA05F3CE1000F1200533
:1032400055F826504E07F70E0F26BE40B543CF1057
:1032500000F1200646F82750CE1000F1200555F861
:10326000265045EA0304CE1000F1200545F826401B
:10327000F0BD0246002013690B400BB1012000E0B5
:1032800000207047418370470183704742694A407C
:103290004261704710B5194840684078174949683D
:1032A000097840EA01201649888014484068C078AF
:1032B00012494968897840EA01201149C8800F48BD
:1032C000406840790D494968097940EA01200C4974
:1032D00008810A484068C07908494968897940EA04
:1032E00001200749488101204870FEF71BFDFEF7C9
:1032F000A5F801200249C87010BD00001800002088
:10330000D41B002010B51948406840781749496817
:10331000097840EA01201649888014484068C0783E
:1033200012494968897840EA01201149C8800F484C
:10333000406840790D494968097940EA01200C4903
:1033400008810A484068C07908494968897940EA93
:1033500001200749488101200870FEF7E3FCFEF7D1
:10336000BDF801200249887010BD0000180000203F
:10337000D41B00200121024880F84A107047000049
:10338000D41B00200121024880F84910704700003A
:10339000D41B002070B50A480468001D0568001D94
:1033A0000668344454B108220649204600F084FBE4
:1033B000042204491031284600F07EFB70BD000055
:1033C000107AFF1FDA00002008B501217F2005F0E8
:1033D00091F90121080705F0ADF9012005F050F938
:1033E000002005F04BFA002005F04AF908220021E0
:1033F000FE48FFF71BFF08220121FC48FFF716FFDC
:1034000000200346022201210090F84800F0C0FA93
:1034100000200346022211460090F44800F0B8FA5A
:1034200000200346032204210090F04800F0B0FA87
:1034300000200346032208210090EC4800F0A8FA7F
:1034400002200023032210210090E84800F0A0FA97
:1034500002200023032220210090E44800F098FA83
:1034600000200346012211020090E04800F090FA8B
:1034700001200023024601460090DD4800F088FA52
:1034800000200346012240210090D94800F080FA34
:1034900000200346012280210090D54800F078FAF0
:1034A00000200346012211020090D14800F070FA7A
:1034B00000200346012251020090CD4800F068FA36
:1034C00001200023024641030090C94800F060FA41
:1034D00001200023024681030090C54800F058FAFD
:1034E00000200346032201210090C24800F050FA58
:1034F00000200346032202210090BE4800F048FA53
:1035000000200346032204210090BA4800F040FA4C
:1035100000200346032208210090B64800F038FA44
:1035200000200346032220210090B24800F030FA28
:1035300000200346012251020090AE4800F028FA14
:1035400006220A21AB48FFF771FE01200023022268
:1035500081020090A74800F01BFA06220B21A54823
:10356000FFF764FE012000230222C1020090A1485F
:1035700000F00EFA06220C219E48FFF757FE0120AC
:1035800000230222010300909A4800F001FA002073
:103590000346012251030090964800F0F9F94FF4D8
:1035A00000519448FFF770FE00200346012291036A
:1035B0000090904800F0ECF94FF480418D48FFF7FF
:1035C00063FE002003460122D1030090894800F0E9
:1035D000DFF900200346012202210090864800F016
:1035E000D7F900200346012204210090824800F010
:1035F000CFF904218048FFF747FE0020034601224F
:10360000082100907C4800F0C3F908217A48FFF7B0
:103610003BFE00200346012210210090764800F076
:10362000B7F910217448FFF72FFE072205217248D1
:10363000FFF7FCFD072206216F48FFF7F7FD00208A
:1036400003460222202100906B4800F0A1F90020DF
:103650000346022240210090674800F099F90020BB
:103660000346012280210090634800F091F98021F7
:103670006148FFF709FE0020034601221102009075
:103680005D4800F085F94FF480715B48FFF7FCFD61
:1036900000200346012251020090574800F078F9BB
:1036A0004FF400715448FFF7EFFD0020034601225C
:1036B00091020090504800F06BF90020034601226F
:1036C000D10200904C4800F063F90020034601222B
:1036D00011030090484800F05BF94FF480514648D0
:1036E000FFF7D2FD0020034601225103009042481B
:1036F00000F04EF9002003460122910300903E485D
:1037000000F046F90020034602464FF400410090C5
:10371000394800F03DF9002003460246012100909F
:10372000364800F035F9022000231A460146009081
:10373000324800F02DF900200346012204210090B8
:103740002E4800F025F9002003460246082100908B
:103750002A4800F01DF9002003460246102100907F
:10376000264800F015F9002003460246202100906B
:10377000224800F00DF900200346012211020090BA
:103780001E4800F005F90020034602464FF4007180
:1037900000901A4800F0FCF8002003460122910234
:1037A0000090164800F0F4F84FF480611348FFF7DA
:1037B0006BFD002003460122D10200900F4800F06B
:1037C000E7F80020034602464FF4805100900B4872
:1037D00000F0DEF80020034602464FF4005100904E
:1037E000064800F0D5F80020034609E0000002403A
:1037F0000004024000080240000C02400010024099
:10380000012202210090604800F0C2F80020034627
:103810000122114600905C4800F0BAF800200346EF
:10382000012204210090584800F0B2F8002003461D
:10383000032208210090544800F0AAF80020034613
:10384000032210210090504800F0A2F80020034607
:103850000322202100904C4800F09AF800200346F3
:10386000032240210090484800F092F800200346CF
:10387000032280210090444800F08AF8002003468B
:1038800003224FF4807100903F4800F081F800203F
:10389000034603224FF4007100903B4800F078F893
:1038A0000020034603224FF480610090364800F068
:1038B0006FF8002003460122D1020090324800F048
:1038C00067F8002003460122110300902E4800F003
:1038D0005FF8002003460122510300902A4800F0BF
:1038E00057F800200346012291030090264800F07B
:1038F0004FF8002003460122D1030090224800F037
:1039000047F8002003460122114600901F4800F0AE
:103910003FF8002003460122022100901B4800F0DE
:1039200037F800200346012204210090174800F0D8
:103930002FF800200346012208210090134800F0D0
:1039400027F8002003460122102100900F4800F0C4
:103950001FF8002003460122910300900B4800F05D
:1039600017F84FF480410948FFF78EFC002003460A
:103970000122D1030090054800F00AF84FF40041FD
:103980000248FFF781FC08BD001402400018024005
:103990002DE9FC4106460C4615469846089F0094C2
:1039A0008DF8045003208DF8050000208DF80600E6
:1039B00001208DF8070069463046FFF7EFFBBDE8B0
:1039C000FC81000070B506463048007800285BD1C5
:1039D0002F480068B0F5006F02D100202C49086024
:1039E0002B4800682B490968884203D100202749E9
:1039F000087070BD2648006826490968884206D9C3
:103A000023480068C0F500602349086006E02148AB
:103A100000681F490968401A1F4908601E4800686D
:103A2000402811D91A48008885B2402418480068F7
:103A30004030174908601848006840381649086047
:103A400001201249087018E01148008885B2124818
:103A5000008884B20E4800680F49096808440C4980
:103A6000086000200C490860402C03D1022007495F
:103A7000087002E0012005490870084842192346F1
:103A800081213046FEF7BAFB00BFB2E728010020D3
:103A9000200100201C01002024010020BE2600205F
:103AA00000BFFEE701200349C870F1204968087093
:103AB000704700002400002030B50B46002100BFF5
:103AC00016E00A24B4EB107F05D9302404EB1074FF
:103AD00003F8114005E0412404EB10740A3C03F89C
:103AE0001140000100254C00641C1D554C1CE1B226
:103AF0009142E6DB30BD00BFFEE730B505460C461F
:103B000022460021284600F001F830BD2DE9F041A1
:103B100005460B4694460027002402E03F021F435F
:103B2000641C042CFAD3604605F00306294646B10E
:103B3000344603E001F8013B401E641C08B1042C2C
:103B4000F8D30A4601E080C2001F0428FBD21146C8
:103B500002E001F8013B401E0028FAD1BDE8F081E7
:103B60007047000070B5002100230F22C4781CB3F9
:103B7000174C246804F4E064C4F5E064C4F307213E
:103B8000C1F10404E3B20A4144789C40E1B2847874
:103B9000144021430C07210E0E4C05786155047822
:103BA00004F01F050124AC4005786D11AD0005F14E
:103BB000E025C5F8004109E0047804F01F05012460
:103BC000AC40054D0678761145F8264070BD0000E2
:103BD0000CED00E000E400E080E100E00249014378
:103BE000024A1160704700000000FA050CED00E089
:103BF000024A0A400243024B1A60704780FFFF1FCF
:103C000008ED00E070B52DED088B0446204607F066
:103C10009FFF41EC1B0B9FED0F0B53EC102B07F09C
:103C2000ABFF41EC1A0B9FED0D0B53EC102B07F083
:103C3000C3FD41EC190B9FED0B0B53EC102B08F05F
:103C400099F841EC180B07F03FFF85B22846BDEC10
:103C5000088B70BD3333333333333D4000000000F5
:103C6000000059400000000000E0734008B54FF428
:103C7000E060FFF7B3FF34208DF8000000208DF8DE
:103C8000010002208DF8020001208DF80300684633
:103C9000FFF768FF0F208DF8000000208DF801006D
:103CA0008DF8020001208DF803006846FFF75AFFE7
:103CB00008BD704710B50348006810B1014800689E
:103CC000804710BD0402002070B5044600F0C2F821
:103CD0000020484908704849087048490870484918
:103CE00008604849086048490870484908704849D0
:103CF00008704849086048490860484908604849D0
:103D00000870484800680A21B0FBF1F04649086095
:103D10004648006858B14648056845B143480668BA
:103D200003E0761E002028602D1D002EF9D1002012
:103D300040490860404908604049086040490860BF
:103D4000404908604049086040490860404908709F
:103D500002F0F2FD02F0D2FE204601F03DFF208885
:103D600000B170BD204602F01DFB208800B1F8E7CD
:103D7000204602F023FB208800B1F2E7204602F043
:103D80001FFC208800B1ECE7204602F005FE2088E9
:103D900000B1E6E7204603F025F8208800B1E0E70F
:103DA000204603F03FFB208800B1DAE7204602F00E
:103DB00065FA208800B1D4E7204602F07FF8208819
:103DC00000B1CEE7204604F0BDFA208800B1C8E774
:103DD000204603F071FA208800B1C2E7204604F0C3
:103DE00029FB208800B1BCE701F020FEFFF761FF4E
:103DF00000BFB6E718020020190200206002002070
:103E0000D0020020D40200204602002047020020F9
:103E10004802002054020020580200205C020020CA
:103E200068020020CCBF0008640200209CBF00088C
:103E300098BF0008F8010020FC01002000020020CB
:103E400004020020080200200C02002010020020C2
:103E500096020020064800680649096800EB8100C8
:103E6000054908600846006820F0070008607047B0
:103E700098BF00089CBF0008D802002008480078BE
:103E8000012800D0704707480078FA2800DBF9E7DE
:103E900004480078401C0349087000BFF2E70000A6
:103EA000190200201802002010B500242D480078C7
:103EB000012800D010BD00BFFCF708FA044600BF7F
:103EC0002948007828B900BF2046FCF703FA00BF54
:103ED000F0E725480078401E23490870084600781E
:103EE000002805DD00BF2046FCF7F4F900BFE1E73C
:103EF0001E480078002805DD00BF2046FCF7EAF9DF
:103F000000BFD7E702F004FD1949087008460078A1
:103F100000EB4000174951F8200017490860084697
:103F2000006816490968884205D100BF2046FCF7A1
:103F3000D1F900BFBEE710480068D0F88C00401CE3
:103F40000D490968C1F88C000D480068401C0C49F7
:103F50000860FCF7E1FB00BF2046FCF7BBF900BF9F
:103F600000BFA7E71902002018020020600200200D
:103F700047020020DC430020D4020020D0020020B1
:103F80008C0200202DE9F04104460E46154600271C
:103F900029480078002804DD42F6E1602880BDE869
:103FA000F0811CB945F6C3502880F8E700BF00BF78
:103FB00000BFFCF78BF9074600BF00BF1F48007821
:103FC000401C1E49087000BF00BF3846FCF782F94C
:103FD00000BF00BF00BF1A4820606660002020625A
:103FE00084F82500A062402084F8240004F1080031
:103FF00002F09DFB204602F0CBFA12480088401CDC
:104000001049088000BF00BF00BFFCF75FF90746FA
:1040100000BF00BF09480078401E0849087000BF73
:1040200000BF3846FCF756F900BF00BF00BF0020B4
:10403000288000BFB3E700001802002060020020C3
:104040004D555458440200202DE9F04788B00546EC
:10405000894690461C46109E4FF0000AAB480078F7
:10406000002805DD46F2AE10308008B0BDE8F087CC
:104070001DB945F6C3503080F7E7B8F1000F03D003
:10408000B8F5004F02D100E000BF03E045F625601F
:104090003080EAE700BF9E492868884203D045F691
:1040A000C4503080E1E70CB10020206000BF00BFA9
:1040B000FCF70CF9824600BF00BF95F82500C0B997
:1040C0009448006828629348006890F8370085F8A3
:1040D0002400012085F825000CB1A86A206000BFEB
:1040E00000BF5046FCF7F6F800BF00BF002030804C
:1040F000BBE78849286A0968884212D195F82500EB
:10410000401C85F825000CB1A86A206000BF00BFE4
:104110005046FCF7DFF800BF00BF45F282703080E8
:10412000A3E708F4004050B100BF00BF5046FCF7C1
:10413000D1F800BF00BF46F2B010308095E7764856
:10414000007800280ADD00BF00BF5046FCF7C2F827
:1041500000BF00BF46F66350308086E700BF6E4860
:104160000078401C6C49087000BF00BF5046FCF747
:10417000B1F800BF00BF00BF2F6A97F8370065494C
:10418000096891F83710884260DD97F836000828F2
:104190002AD2DFE800F004151E1F1716202138462A
:1041A00002F034FD5B48006890F8370087F837006C
:1041B00097F8370002F0CCFB384602F0C7FC44E029
:1041C00000BF00BF5348006890F8370087F83700F9
:1041D0003BE000BF00BF00BF4E48006890F83710BA
:1041E000384602F081FA30E000BF00BF00BFFCF7A4
:1041F0006DF8824600BF00BF47480078401E464920
:10420000087008460078A0B944480088002809DDF5
:1042100000BF00BF5046FCF75DF800BF00BF02F0D2
:1042200023FD0DE000BF00BF5046FCF753F800BF70
:1042300006E000BF00BF5046FCF74CF800BF00BFCF
:1042400000BF46F62D6030800FE700BF4B460422CA
:104250002946684602F0C0F900BF00BF00BFFCF766
:1042600035F8824600BF00BF2B480078401E2A491F
:10427000087000BF00BF5046FCF72CF800BF00BF1D
:1042800000BF00F073F900BF00BFFCF71FF88246C3
:1042900000BF00BF1F48006890F8350030B101280A
:1042A0000CD002281AD0032821D110E01CB11948E3
:1042B0000068006C2060002030801CE01CB11548B4
:1042C0000068006C206046F2A910308013E00CB149
:1042D0000020206047F2D92030800CE01CB10D484E
:1042E0000068006C206045F6C250308003E046F65E
:1042F0002E60308000BF00BF00BF00BF5046FBF7FC
:10430000E9FF00BF00BF00BFAFE6000018020020B9
:104310004D555458D0020020600200202402002095
:104320002DE9F84F0446884615464FF0000A8948A3
:104330000078002804DD46F20E202880BDE8F88FC2
:104340001CB945F6C3502880F8E7B8F1000F03D038
:10435000B8F5004F02D100E000BF03E045F625604C
:104360002880EBE700BF7C492068884203D045F6EF
:10437000C4502880E2E700BF00BFFBF7A7FF8246DA
:1043800000BF00BF7549206A096888420AD000BF93
:1043900000BF5046FBF79EFF00BF00BF45F2817093
:1043A0002880CBE700BF6E480078401C6C4908703D
:1043B00000BF00BF5046FBF78DFF00BF00BF00BF2E
:1043C000FDF7AAFC0746A76294F82500401E84F872
:1043D000250094F82500002830DD00BF00BF00BF95
:1043E000FBF774FF824600BF00BF5D480078401EA7
:1043F0005B49087008460078A0B95A480088002830
:1044000009DD00BF00BF5046FBF764FF00BF00BFDF
:1044100002F02AFC0DE000BF00BF5046FBF75AFF38
:1044200000BF06E000BF00BF5046FBF753FF00BFD0
:1044300000BF00BF45F2837028807FE704F10809C0
:10444000B9F8080098BB0020206284F8250000BF5E
:1044500000BF00BFFBF73AFF824600BF00BF4048E5
:104460000078401E3E49087008460078A0B93D48D3
:104470000088002809DD00BF00BF5046FBF72AFF77
:1044800000BF00BF02F0F0FB0DE000BF00BF5046D0
:10449000FBF720FF00BF06E000BF00BF5046FBF760
:1044A00019FF00BF00BF00BF0020288046E7FFE7DC
:1044B0002A48006890F8370094F82410884219D0F0
:1044C0002648006802F0A2FB94F8240023490968FA
:1044D00081F837002149096891F8370002F038FA6D
:1044E0001E48006802F052FB1C48006890F8370034
:1044F0001D490870D9F800008668266296F83700D2
:1045000084F82400012084F8250000231A4631464F
:104510002046009702F07CF900BF00BF00BFFBF708
:10452000D5FE824600BF00BF0D480078401E0C49F2
:10453000087000BF00BF5046FBF7CCFE00BF00BFB5
:1045400000BF08F4004008B900F010F800202880EF
:1045500000BFF3E6180200204D555458D002002049
:1045600060020020240200204602002010B5002432
:104570001F480078002800DD10BD1E480078002884
:1045800000DDF9E700BFFBF7A1FE044600BF02F023
:10459000BFF9194908700846007800EB4000174938
:1045A00051F8200016490860084600681549096856
:1045B000884205D100BF2046FBF78CFE00BFDBE739
:1045C0000F480068D0F88C00401C0D490968C1F8FC
:1045D0008C000D480068401C0B490860FCF797F8F8
:1045E00000BF2046FBF776FE00BF00BFC4E7000017
:1045F000180200206002002047020020DC43002057
:10460000D4020020D00200208C02002070B50446A5
:10461000002518480078002803DD46F66250208007
:1046200070BD15480078012803D045F689602080C8
:10463000F6E712480078FA2803DB45F209202080CB
:10464000EEE700BF00BFFBF741FE054600BF00BF1D
:104650000A480078401C0949087002F02FFB00BF8F
:1046600000BF2846FBF736FE00BF00BF00202080B9
:1046700000BFD5E7180200201902002060020020C8
:104680002DE9F04105460C461646002700BF00BF45
:10469000FBF71CFE074600BF00BF012D03D0002022
:1046A0000D49087002E001200B49087014B10B4855
:1046B000046006E00A4800680A21B0FBF1F00749EF
:1046C000086000BF00BF3846FBF704FE00BF00BF14
:1046D00000203080BDE8F0816802002064020020E4
:1046E000CCBF000870B5044600252048007800289B
:1046F00003DD46F66550208070BD1D480078012816
:1047000003D045F689602080F6E71A48007818B98A
:1047100046F664502080EFE700BF00BFFBF7D6FDF0
:10472000054600BF00BF13480078401E11490870BD
:104730000846007800280ADD00BF00BF2846FBF7C6
:10474000C9FD00BF00BF46F663502080D4E702F0E9
:10475000C3FA00BF00BF2846FBF7BCFD00BF00BF87
:10476000FFF704FF0020208000BFC5E718020020EB
:10477000190200206002002010B50446124800789B
:10478000E8B902F0C5F811490870084600781049E8
:1047900008700E48007800EB40000E4951F82000E8
:1047A0000D490860084600680C4908600120064968
:1047B0000870FBF79BFF43F69920208002E045F646
:1047C0008A60208010BD00001902002047020020EE
:1047D00046020020DC430020D4020020D00200204A
:1047E0002DE9F04107464FF0000800BF00BFFBF77E
:1047F0006DFD804600BF00BF00203D4908603D4977
:1048000008803D4908803D4908603D4908603D49B0
:1048100008603D4908603D49088100BF00BF40462F
:10482000FBF758FD00BF00BF00BF00BFFBF74EFD08
:10483000804600BF00BF3648046800BF00BF404646
:10484000FBF748FD00BF00BF21E000BF00BFFBF742
:104850003DFD804600BF00BF00207434E06320604F
:104860002063A061A082E0826062A062FDF754FA3A
:104870002062743C04F160060020B081D4F8B84096
:1048800000BF00BF4046FBF725FD00BF00BF002C66
:10489000DBD100BF00BFFBF719FD804600BF00BFA2
:1048A0001C48056800BF00BF4046FBF713FD00BF72
:1048B00000BF12E000BF00BFFBF708FD804600BF4D
:1048C00000BF05F120060020B081AD6900BF00BF28
:1048D0004046FBF7FFFC00BF00BF002DEAD103F00C
:1048E00099FB03F04DFE00203880BDE8F081000008
:1048F0002C020020260200207602002088020020E0
:104900009C020020C002002058020020D04300205A
:10491000900200204C020020F8B5044600266946AB
:10492000324800F08FFDBDF8000018B1BDF800005E
:104930002080F8BD6A460021022000F0F7FDBDF896
:10494000000018B1BDF800002080F2E700BF00BFF2
:10495000FBF7BCFC064600BF00BF002024490860EE
:1049600000BF00BF3046FBF7B5FC00BF00BF00250D
:104970002048006820490968884205D91D48006818
:104980001D490968B0FBF1F525B91A4800680A21EC
:10499000B0FBF1F56A460021284600F0C7FD6946E4
:1049A000124800F063FABDF8000018B1BDF800002D
:1049B0002080BEE700BF00BFFBF788FC064600BFB3
:1049C00000BF00200D490860094800680C490860D4
:1049D00001200C49087000BF00BF3046FBF77AFC8D
:1049E00000BF00BF0020208000BFA2E78848002051
:1049F00078020020CCBF0008B4BF00088802002065
:104A00007C0200208402002010B50348006810B129
:104A100001480068804710BD080200202DE9FF4FC3
:104A200087B004469046DDE91BA5DDE91496179F83
:104A30000020039087480078002805DD47F24A10DF
:104A400028800BB0BDE8F08F1CB947F2AD1028806C
:104A5000F7E7B8F1000F03D147F24F102880F0E7D5
:104A60001EB946F62F602880EBE77B480068874236
:104A700003D246F630602880E3E71698B84203D3A5
:104A800046F631602880DCE7B9F1400F03D346F2E7
:104A900073202880D5E7B9F1000F06D16F48844212
:104AA00003D046F273202880CBE7B9F13F0F06D13F
:104AB0006B48844203D046F273202880C1E7204629
:104AC00002F0C0FC002028800AF0010090B10AF03A
:104AD000020078B105960020069008E000210598B4
:104AE00001600598001D05900698401C06900698E8
:104AF000B842F3D3169806EB80000490CDE9007A13
:104B000032464046049B0A9900F06EFB0590C4F8BB
:104B100028800A98E0620898206284F83790059807
:104B200020600498A06019982065199818B94D481C
:104B30000068606501E0199860651A9860606662B7
:104B4000A763A4F83CA04FF0000B08E0002104F19B
:104B5000780040F82B100BF1010000F0FF0BBBF1C7
:104B6000000FF3D004F16000189901F087FC204693
:104B700000F082F800BF00BF00BFFBF7A7FB039067
:104B800000BF00BF38480078401C3749087000BF9C
:104B900000BF0398FBF79EFB00BF00BF00BF94F867
:104BA000370001F0D5FE204601F0F0FF204602F06C
:104BB000FFFB2E480088401C2C4908802C480078B8
:104BC00001282DD000BF00BF00BFFBF77FFB039083
:104BD00000BF00BF24480078401E234908700846E3
:104BE0000078A0B923480088002809DD00BF00BF75
:104BF0000398FBF76FFB00BF00BF02F035F80DE034
:104C000000BF00BF0398FBF765FB00BF06E000BFD5
:104C100000BF0398FBF75EFB00BF00BF00BF10E7BB
:104C200000BF00BF00BFFBF751FB039000BF00BFF8
:104C30000D480078401E0C49087000BF00BF039863
:104C4000FBF748FB00BF00BF00BFFFF78FFC00BFB2
:104C5000F7E6000018020020C8BF0008104300203B
:104C600050420020640200206002002094020020D4
:104C7000190200202402002010B5044603480068F1
:104C800018B1204601490968884710BDF801002085
:104C900070B504460D46002667480078002803DDFD
:104CA00047F24E10288070BD6448844203D147F219
:104CB0004C102880F7E76248844203D147F24D1038
:104CC0002880F0E77CB900BF00BFFBF7FFFA06467B
:104CD00000BF00BF5B48046800BF00BF3046FBF761
:104CE000F9FA00BF00BF00BF00BF00BFFBF7EEFA3C
:104CF000064600BF00BF54480078401C5249087067
:104D000000BF00BF3046FBF7E5FA00BF00BF00BFA1
:104D100094F8360008282DD2DFE800F004090E10C0
:104D2000080A0F11204601F071FF54E053E000BF64
:104D3000204603F043F94EE000BF00BF00BF94F8E7
:104D40003400082810D2DFE800F004070508090A3B
:104D50000B0600BF00BF08E000BF00BF00BF00BFE0
:104D6000204601F01CFD00E000BF00BF204603F01C
:104D700025F930E000BF00BF00BFFBF7A7FA0646E9
:104D800000BF00BF30480078401E2F490870084619
:104D90000078A0B92D480088002809DD00BF00BFB9
:104DA0003046FBF797FA00BF00BF01F05DFF0DE052
:104DB00000BF00BF3046FBF78DFA00BF06E000BF22
:104DC00000BF3046FBF786FA00BF00BF00BF46F6C3
:104DD0002D60288067E700BF04F1600001F02CFB24
:104DE000204600F037F8204602F0FAFA184800880A
:104DF000401E17490880204602F024FBFF2084F85B
:104E0000360000BF00BF00BFFBF760FA064600BFD8
:104E100000BF0D480078401E0B49087000BF00BF5E
:104E20003046FBF757FA00BF00BF00BF00202880C4
:104E3000FFF79CFB00BF36E718020020504200201D
:104E400010430020D0020020600200202402002035
:104E50009402002010B504460348006818B12046AB
:104E600001490968884710BDFC0100207FB5044650
:104E70000D46002600BF00BFFBF728FA064600BF1C
:104E800000BF1CB11548006884420AD100BF00BFB2
:104E90003046FBF71FFA00BF00BF47F257102880CB
:104EA0007FBD00BF00BF3046FBF714FA00BF00BF54
:104EB0000B48007800280BDD00200090019003468D
:104EC00002462146CDE90205064801F02FF8E7E742
:104ED0002946204602F01AFC00BFE1E7D00200207C
:104EE000180200205452455310B504460348006888
:104EF00018B1204601490968884710BD000200200A
:104F00002DE9F04780460E4614461D464FF0000935
:104F10007D480078002805DD46F2AE10288000208C
:104F2000BDE8F0871EB1B6F5004F02D100E000BF2A
:104F300004E045F6256028800020F1E700BF0CB1B1
:104F40000020206000BF00BFFBF7C0F9814600BF12
:104F500000BF6E480068406CA8B36C480068406CA5
:104F6000401E6A490968486468480068476C1CB17B
:104F700066480068006C2060FCF7CEFE6349096853
:104F8000096C401A61490968C1F8A0005F480068CF
:104F9000D0F8A4005D490968D1F8A010884207D272
:104FA0005A480068D0F8A00058490968C1F8A40020
:104FB00000BF00BF4846FBF78DF900BF00BF0020CF
:104FC00028803846ACE7FFE706F4004058B100BF40
:104FD00000BF4846FBF77EF900BF00BF46F2B010A5
:104FE000288000209CE74A48007800280BDD00BF9D
:104FF00000BF4846FBF76EF900BF00BF46F663509E
:10500000288000208CE700BF41480078401C4049C0
:10501000087000BF00BF4846FBF75CF900BF00BF47
:1050200000BF434607220021084601F0D5FA00BF21
:1050300000BF00BFFBF74AF9814600BF00BF3448FC
:105040000078401E3249087000BF00BF4846FBF799
:1050500041F900BF00BF00BFFFF788FA00BF00BFE3
:10506000FBF734F9814600BF00BF2848006890F87C
:10507000350020B1012826D0032834D12CE0FCB122
:1050800022480068006C2060FCF746FE1F49096852
:10509000096C401A1D490968C1F8A0001B48006846
:1050A000D0F8A40019490968D1F8A010884207D2A5
:1050B00016480068D0F8A00014490968C1F8A40097
:1050C0000020288013E01CB110480068006C2060AC
:1050D00046F2A91028800AE00CB10020206047F2B7
:1050E000D920288003E046F62E60288000BF00BF4C
:1050F00006480068476C00BF00BF4846FBF7EAF867
:1051000000BF00BF38460BE718020020D002002085
:10511000600200202DE9F04705460E4617461C4662
:105120004FF0000A2E480078002804DD47F259109D
:105130002080BDE8F0871EB946F2D5202080F8E730
:105140001FB946F2D5202080F3E700BF00BFFBF770
:10515000BDF8824600BF00BF0DB922480568286827
:1051600068B900BF00BF5046FBF7B4F800BF00BFEE
:1051700000203060386047F252102080D9E795F85F
:105180003C0000F0010068B900BF00BF5046FBF7CB
:10519000A1F800BF00BF00203060386047F2541013
:1051A0002080C6E700BF00BF5046FBF793F800BF62
:1051B00000BF4FF00008D5F8249003E009F104097E
:1051C00008F10108D9F800000028F7D0C6F80080DF
:1051D000A86BA0EB080038600020208000BFA8E783
:1051E00018020020D0020020F0B50446DDE9055683
:1051F00002EB850020F007004FF0000C071F384637
:10520000C7F800C04FF4805C071F3846C7F800C0DD
:105210004FF0150C071F3846C7F800C04FF0140CAC
:10522000071F3846C7F800C04FF0130C071F384659
:10523000C7F800C04FF0120C071F3846C7F800C06F
:105240004FF0110C071F3846C7F800C04FF0100C84
:10525000071F3846C7F800C04FF0090C071F384633
:10526000C7F800C04FF0080C071F3846C7F800C049
:105270004FF0070C071F3846C7F800C04FF0060C68
:10528000071F3846C7F800C04FF0050C071F384607
:10529000C7F800C04FF0040C071F3846C7F800C01D
:1052A0004FF0030C071F3846C7F800C04FF0020C40
:1052B000071F3846C7F800C04FF0010C071F3846DB
:1052C000C7F800C04FF0000C071F3846C7F800C0F1
:1052D0004FF0807C071F3846C7F800C0071F3846CC
:1052E0003C60DFF85CC1071F3846C7F800C04FF0CC
:1052F000123C071F3846C7F800C04FF0033C071F99
:105300003846C7F800C04FF0023C071F3846C7F8C0
:1053100000C0071F38463B60071F384639604FF012
:10532000310C071F3846C7F800C04FF0300C071F7C
:105330003846C7F800C04FF0290C071F3846C7F899
:1053400000C04FF0280C071F3846C7F800C04FF0C8
:10535000270C071F3846C7F800C04FF0260C071F60
:105360003846C7F800C04FF0250C071F3846C7F86D
:1053700000C04FF0240C071F3846C7F800C04FF09C
:10538000230C071F3846C7F800C04FF0220C071F38
:105390003846C7F800C04FF0210C071F3846C7F841
:1053A00000C04FF0200C071F3846C7F800C04FF070
:1053B000190C071F3846C7F800C04FF0180C071F1C
:1053C0003846C7F800C04FF0170C071F3846C7F81B
:1053D00000C04FF0160C071F3846C7F800C04FF04A
:1053E000113C071F3846C7F800C04FF0103C071F9C
:1053F0003846C7F800C04FF0093C071F3846C7F8C9
:1054000000C04FF0083C071F3846C7F800C04FF0F7
:10541000073C071F3846C7F800C04FF0063C071F7F
:105420003846C7F800C04FF0053C071F3846C7F89C
:1054300000C04FF0043C071F3846C7F800C0F0BD5D
:105440004D7800087FB505460C461248854203D1C9
:1054500047F25B1020807FBD0F48854203D147F2A1
:105460005C102080F7E70D48007800280BDD002055
:1054700000900190034602462946CDE902040848FF
:1054800000F054FDE7E72146284602F04DFC00BF3E
:10549000E1E70000504200201043002018020020E5
:1054A0005453555310B51D48006810B11B4800688F
:1054B0008047FCF731FC044619480068194909681F
:1054C000884215D016480068D0F89400201A144974
:1054D0000968C1F8900012480068D0F89800104997
:1054E0000968D1F8901008440D490968C1F898007E
:1054F0000C480068C0F8944009480068D0F8B00033
:1055000009490968884205D20748006804490968C2
:10551000C1F8B00000200449086010BD0C02002052
:10552000D0020020D40200205C0200202DE9F041CE
:1055300005460E46144600273C480078002804DD46
:1055400047F275202080BDE8F081394800780028B6
:1055500003DD46F663502080F5E736B1022E05D014
:10556000042E0AD0082E09D101E000BF00BF1DB9EA
:1055700047F27E202080E6E704E003E045F6256060
:105580002080E0E700BF00BF00BF00BFFAF79EFE2B
:10559000074600BF00BF26480078401C2449087019
:1055A00000BF00BF3846FAF795FE00BF00BF00BF3E
:1055B0002346324629461F48006802F0A1FC208895
:1055C000A8B100BF00BF00BFFAF780FE074600BFCA
:1055D00000BF17480078401E1549087000BF00BF83
:1055E0003846FAF777FE00BF00BF00BFABE71148AF
:1055F000006801F00BFB00BF00BF00BFFAF766FEBA
:10560000074600BF00BF0A480078401E08490870DE
:1056100000BF00BF3846FAF75DFE00BF00BF00BF05
:10562000FEF7A4FF0020208000BF8CE718020020B6
:1056300060020020D00200202DE9FF5F05460E46E3
:1056400017469846DDE90EA40020009070480078C7
:10565000002804DD47F275202080BDE8FF9F6D48DB
:105660000078002803DD46F663502080F5E70AF055
:105670000E0BBBF1000F09D0BBF1020F07D0BBF13D
:10568000040F10D0BBF1080F0ED101E000BF00BF26
:10569000B8F1000F06D12FB926B91DB947F27E2007
:1056A0002080DAE704E003E045F625602080D4E7B7
:1056B00000BF2AF01E0008B1012000E00020039086
:1056C0000398012803D145F625602080C5E7CAF379
:1056D000001002900298C0B9B8F57A7F03D347F260
:1056E0007B202080B9E73B2F03DD47F27A20208022
:1056F000B3E73B2E03DD47F279202080ADE7632D31
:1057000012DD47F278202080A7E742F20F70864230
:1057100003DD47F2792020809FE7B5F57A7F03DB30
:1057200047F27820208098E73B48D0F800904FF46B
:10573000FA70B0FBF9F0404400FB09F04FF47A71C5
:10574000B0FBF1F14FF461606843C6EB061200EB69
:105750008200384400FB091001900198002851D0C4
:1057600000BF00BF00BFFAF7B1FD009000BF00BF4F
:1057700028480078401C2749087000BF00BF0098E7
:10578000FAF7A8FD00BF00BF00BF23465A462348D2
:105790000199006802F0B4FB2088A8B100BF00BFE7
:1057A00000BFFAF793FD009000BF00BF19480078D2
:1057B000401E1849087000BF00BF0098FAF78AFD24
:1057C00000BF00BF00BF48E71448006801F01EFAA0
:1057D00000BF00BF00BFFAF779FD009000BF00BF17
:1057E0000C480078401E0B49087000BF00BF0098AD
:1057F000FAF770FD00BF00BF00BFFEF7B7FE002044
:10580000208002E047F27E20208000BF25E70000D4
:105810001802002060020020CCBF0008D002002047
:1058200010B586B000F01EF8FCF776FA044605A81D
:1058300000210091CDE9011403900748007800EBA6
:105840004000064A02EB800100231A46044800F09B
:105850006DFB06B010BD000046020020DC430020B6
:105860005449434B10B50348006810B10148006823
:10587000804710BD100200202DE9F05F04468846E5
:1058800016461F46DDE90BABDDF828900D9D244838
:105890000078002804DD47F243302880BDE8F09FFF
:1058A0001CB945F6C3502880F8E7B9F1010F08D0BC
:1058B000B9F1020F0BD11FB947F240302880EDE754
:1058C00009E01EB947F23F302880E7E703E045F6DC
:1058D00025602880E2E700BF02F046FE012084F840
:1058E000260010482060C4F80480E6610020A06112
:1058F0002762A4F82490C4F808A0C4F80CB0206172
:105900006061204602F082FD07480088401C06497D
:10591000088002F0A3FE0020288000BFBEE7000040
:1059200018020020544D5220BC0200202DE9F04105
:1059300004460D464FF0000838480078002805DD81
:1059400047F2433028800020BDE8F08124B947F2B7
:10595000423028800020F7E731492068884204D08F
:1059600045F6C45028800020EEE794F82600002871
:1059700047D0012818D0022802D0032846D114E0CD
:1059800000BF00BFFAF7A2FC804600BF00BFE0697D
:10599000A06100BF00BF4046FAF79CFC00BF00BFFB
:1059A00000202880012636E000BF02F0DDFD022045
:1059B00084F82600E06910B9206AA06101E0E0697E
:1059C000A0611848006840B9002020616061154856
:1059D00004600120144908800DE01248076800683F
:1059E0002061002060617C610E4804600E480088E0
:1059F000401C0D49088002F031FE0020288001265D
:105A000009E047F23D302880002604E047F24130AB
:105A10002880002600BF00BF304695E7180200200E
:105A2000544D5220B8020020B4020020244A2549D7
:105A3000254A264A2649274A2748284A284A294AE1
:105A4000294A2A482A482B482B4A2C482C4A2D48B8
:105A50002D4A2E482E482F482F48304A304A314A86
:105A60003148324A324A334833483448344835485A
:105A700035483648364A374A374A384A3848394826
:105A800039483A4A3A4A3B4A3B483C483C483D49F7
:105A90003D483E4A3E4A3F4A3F4A404A404A414AC0
:105AA0004148424A424A43484348444A444A454896
:105AB000454A464A4648474800BF00BF00BF7047B6
:105AC00000C0000864C1000801C0000802C000084E
:105AD00004C0000808C000080CC0000809C0000885
