:020000040800F2
:10000000D04F002085020008D9410008213E000899
:100010006F410008B91F0008C1B5000800000000CA
:10002000000000000000000000000000AB9000088D
:10003000A93200080000000023070008C192000850
:100040009F0200089F0200089F0200089F0200080C
:100050009F0200089F0200089F0200089F020008FC
:100060009F0200089F0200089F0200089F020008EC
:100070009F0200089F0200089F020008612E0008EE
:100080009F020008712E00089F0200089F020008CE
:100090009F0200089F0200089F0200089F020008BC
:1000A0009F0200089F0200089F0200089F020008AC
:1000B0009F0200089F0200089F0200089F0200089C
:1000C0009F0200089F0200089F0200089F0200088C
:1000D0009F0200089F020008159800089F02000870
:1000E0009F0200089F0200089F0200089F0200086C
:1000F0009F0200089F0200089F0200089F0200085C
:100100009F0200089F0200089F0200089F0200084B
:10011000059800089F0200089F0200089F0200083F
:100120009F0200089F0200089F0200089F0200082B
:100130009F0200089F0200089F0200089F0200081B
:100140009F0200089F0200089F020008E98C000837
:100150009F0200089F0200089F0200089F020008FB
:100160009F0200089F0200089F0200089F020008EB
:100170009F0200089F0200089F0200089F020008DB
:100180009F0200089F02000800F002F800F06AF8E1
:100190000AA090E8000C82448344AAF10107DA45E2
:1001A00001D100F05FF8AFF2090EBAE80F0013F0CA
:1001B000010F18BFFB1A43F001031847B0C6000037
:1001C000D0C600000A444FF0000C10F8013B13F0B9
:1001D000070408BF10F8014B1D1108BF10F8015BA0
:1001E000641E05D010F8016B641E01F8016BF9D193
:1001F00013F0080F1EBF10F8014BAD1C0C1B09D1EA
:100200006D1E58BF01F801CBFAD505E014F8016B5B
:1002100001F8016B6D1EF9D59142D6D370470000ED
:100220000023002400250026103A28BF78C1FBD8FF
:10023000520728BF30C148BF0B607047642900F0E7
:100240009D80002070471FB50CF004FA00F0FCF907
:100250000400002000210BF06BFD401C60601FBDFE
:1002600010B510BD00F0CAF91146FFF7ECFF0BF016
:10027000C1FB00F0EDF903B4FFF7F2FF03BC0BF094
:10028000F9FA00000948804709480047FEE7FEE701
:10029000FEE7FEE7FEE7FEE7FEE7FEE7FEE7FEE736
:1002A00004480549054A064B704700003193000891
:1002B00089010008D0490020D04F0020D04B0020F9
:1002C000D04B002072B6704762B67047EFF31080D3
:1002D00072B6704780F31088704730BF704720BFF8
:1002E0007047B0FA80F0704790FAA0F0B0FA80F052
:1002F000704790FAA0F07047704700000FB40449AF
:1003000010B503AA029800F01BF910BC5DF814FBAD
:10031000480000202DE9F0410E46044600202062EE
:100320002046E168884730B3252805D0D4E901216B
:100330009047206A401CF2E7E16820460027884782
:10034000050018D0A5F14100192802D820354FF436
:1003500000673246294620462760FFF76FFF40B10D
:10036000012804D0F61D26F007060836D8E7361D0A
:10037000D6E72846DAE7206ABDE8F0812DE9F041AA
:100380000646002410687529314616A510D0AFF333
:100390000080002802DA404213A507E031688A078E
:1003A00001D512A502E0490704D511A5012401E0F9
:1003B000AFF3008000210A2206F1240709E0B0FB18
:1003C000F2FCB0FBF2F302FB1C003030785418460C
:1003D000491C0028F3D123462A463046BDE8F041A7
:1003E00000F054B8000000002D0000002B000000B9
:1003F000200000002DE9F041054690460E46002001
:10040000044600E0641C44450BD2285D00F031F83E
:100410000746305D00F02DF8381A02D1295D002919
:10042000F0D1BDE8F0814FF000020429C0F0128045
:1004300010F0030C00F09880CCF1040CBCF1020F1A
:1004400018BF00F8012BA8BF20F8022BA1EB0C016C
:1004500000F08AB85FEAC17C24BF00F8012B00F8E5
:10046000012B48BF00F8012B704770477047704759
:10047000704710B5044600F09DF80068005DC006A6
:1004800002D504F1200010BD204610BD2DE9F04733
:100490000D4699469246044600F1240801688806F4
:1004A00004D5E06921F01001216000E00120A8429C
:1004B00001DD471B00E00027A1697A1902EB090062
:1004C000081AA0612078C00602D42046AFF300804D
:1004D000002608E0D4E901211AF806009047206AB6
:1004E000401C761C20624E45F4DB2078C0060AD5FD
:1004F0002046AFF3008006E0D4E901213020904788
:10050000206A401C2062381EA7F10107F4DC07E0D6
:10051000D4E9012118F805009047206A401C2062A8
:10052000281EA5F10105F3DC2046AFF300802078FA
:10053000000602D50220BDE8F0870120FBE700009D
:10054000074B70B50D467B4400F041F80446284641
:1005500000F050F810B14FF0FF3070BD204670BD74
:1005600087B400004FF0000200B51346944696464B
:10057000203922BFA0E80C50A0E80C50B1F12001B6
:10058000BFF4F7AF090728BFA0E80C5048BF0CC064
:100590005DF804EB890028BF40F8042B08BF7047C2
:1005A00048BF20F8022B11F0804F18BF00F8012B34
:1005B0007047000010B500F047F8001D10BD00BFE7
:1005C00071B7000001694A1C02610878704700B5E4
:1005D0008FB0CDE901310021059105497944CDE97C
:1005E000031011466846FFF795FE0FB000BD0000EE
:1005F000E5FFFFFF007B00F080007047754600F0CC
:1006000031F8AE4605006946534620F0070085469E
:1006100018B020B5FFF744FEBDE820404FF00006BB
:100620004FF000074FF000084FF0000B21F00701DA
:10063000AC46ACE8C009ACE8C009ACE8C009ACE81D
:10064000C0098D467047000000487047904900205F
:1006500010B50446AFF300802046BDE81040FFF718
:100660000ABE000000487047704900204FF0013C6E
:1006700050F8042B51F8043B9A4221D1A2EB0C0311
:10068000934313EACC1317D150F8042B51F8043BD1
:100690009A4215D1A2EB0C03934313EACC130BD16E
:1006A00050F8042B51F8043B9A4209D1A2EB0C03F9
:1006B000934313EACC13DBD04FF00000704700BF28
:1006C000D01A01BAB1FA81F101F0180122FA01F051
:1006D000CB40C1F12001DBB2C0B2C01A2CFA01F349
:1006E000D11A914311EAC311E6D1704722484FF65F
:1006F000FF710170002080F309882048016881F3B0
:1007000008881F484FF08051016062B6FEE71C4820
:100710004FF080510160704719484FF080510160DF
:10072000704772B6EFF3098050B11EF0100F08BF8A
:1007300020ED108A203880E8F00F1249096808601F
:1007400000B5114880475DF804EB104810490A785D
:1007500002700C480F490A680260106890E8F00FB8
:1007600020301EF0100F08BFB0EC108A80F309880B
:100770004EF0040E62B6704722ED00E0D802002071
:1007800004ED00E0D00200201D5B000846020020BE
:1007900047020020D402002021B1826842F0010209
:1007A000826003E0826822F00102826070470000EC
:1007B0000021084A1168084A1140D0E900231A4371
:1007C00083681A43C3681A431143044AC2F80413E6
:1007D0007047000004230140E030FCFF002001408E
:1007E00021B1826842F48072826003E0826822F460
:1007F00080728260704721B1826842F40072826028
:1008000003E0826822F400728260704730B50246CD
:10081000002000235068104C20400D790C6844EAF9
:1008200005242043506090680C4C2040D1E90354CB
:100830002C438D682C434D7944EA45042043906055
:10084000D06A20F470000C7D641EE4B2234340EAB9
:100850000350D06230BD0000FFFEFFFCFDF7FFC07B
:10086000F0B504460D4600200021092D11DDE06899
:10087000A5F10A0606EB4607072606FA07F18843A4
:10088000A5F10A0606EB460603FA06F10843E06006
:100890000CE0206905EB4507072606FA07F18843B7
:1008A00005EB450603FA06F108432061072A0FDA33
:1008B000606B561E06EB86071F2606FA07F1884373
:1008C000561E06EB860605FA06F10843606322E031
:1008D0000D2A0FDA206BD61F06EB86071F2606FAB5
:1008E00007F18843D61F06EB860605FA06F1084392
:1008F000206310E0E06AA2F10D0606EB86071F26D2
:1009000006FA07F18843A2F10D0606EB860605FA02
:1009100006F10843E062F0BD816841F080418160EA
:100920007047000038B10849096841F40001074ADE
:10093000C2F8041306E00449096821F40001034ADF
:10094000C2F8041370470000042301400020014056
:1009500010B50221094800F061FE0120FFF7E2FF17
:10096000072301220F210548FFF77AFF0723022200
:1009700010210248FFF774FF10BD00000020014065
:10098000F0B58AB004460023002109E01B4800EBC3
:100990008106601E36F810002DF81100481CC1B207
:1009A0001429F3DB00211AE0002212E03DF8126066
:1009B000501C3DF81000864209DD3DF81250501CD5
:1009C0003DF810002DF81200501C2DF81050501C4E
:1009D000C2B2C1F113009042E8DC481CC1B2142934
:1009E000E2DB022104E03DF811000344481CC1B2DF
:1009F0001229F8DB1B0998B20AB0F0BD14250020BB
:100A000010B52DED0C8B0220FFF7BAFF04460BF05A
:100A100019FC41EC1D0B9FED180B53EC102B0BF048
:100A200025FC41EC1C0B9FED160B53EC102B0BF02F
:100A30003DFA41EC1B0B9FED140B53EC102B0BF00C
:100A40001FFD41EC1A0B9FED120B53EC102B0BF01A
:100A50002DFA41EC190B9FED100B53EC102B0BF002
:100A60007DF941EC180B0BF0A9FBC1B20C4880F8E2
:100A70003D10BDEC0C8B10BD6666666666660A406E
:100A80000000000000FEAF4052B81E85EB51E83F69
:100A90007B14AE47E17A643F00000000000039405B
:100AA000D41B002010B52DED0A8B0120FFF768FF45
:100AB00004460BF0C7FB41EC1C0B9FED130B53ECF2
:100AC000102B0BF0D3FB41EC1B0B9FED110B53ECE8
:100AD000102B0BF0EBF941EC1A0B9FED0F0B53ECC5
:100AE000102B0BF0C3FB41EC190B9FED0D0B53ECDE
:100AF000102B0BF033F941EC180B0BF05FFB0A499C
:100B00000887BDEC0A8B10BD6666666666660A409D
:100B10000000000000FEAF4000000000000059404F
:100B2000000000000000E03FD41B002010B50E21A3
:100B30002B4800F073FD072301220A212848FFF704
:100B40008FFE072302220B212548FFF789FE07238A
:100B500003220C212248FFF783FE072304220D21E4
:100B60001F48FFF77DFE072305220E211C48FFF7D3
:100B700077FE0723062209211948FFF771FE072394
:100B80001A4604211648FFF76BFE072308220621A8
:100B90001348FFF765FE072309220F211048FFF7CE
:100BA0005FFE07230A2202210D48FFF759FE0723A3
:100BB0000B2205210A48FFF753FE07230C220321CD
:100BC0000748FFF74DFE07230D2219460448FFF79B
:100BD00047FE07230E2208210148FFF741FE10BD02
:100BE00000220140F0B58AB00446002300210BE04A
:100BF000C1EBC1001B4E06EB8006601E36F81000EC
:100C00002DF81100481CC1B21429F1DB00211AE0B3
:100C1000002212E03DF81260501C3DF810008642A0
:100C200009DD3DF81250501C3DF810002DF812005F
:100C3000501C2DF81050501CC2B2C1F1130090424C
:100C4000E8DC481CC1B21429E2DB022104E03DF8D3
:100C500011000344481CC1B21229F8DB1B0998B2E9
:100C60000AB0F0BDE422002000B593B00120FFF7E8
:100C7000B9FF05900BF0E6FA9FEDFE0B53EC102B3D
:100C8000CDE906019DED060B51EC100B0BF0EEFAD1
:100C90009FEDFA0B53EC102BCDE908019DED080BED
:100CA00051EC100B0BF002F99FEDF60B53EC102BEF
:100CB000CDE90A019DED0A0B51EC100B0BF0F6F893
:100CC0009FEDF20B53EC102BCDE90C019DED0C0BBD
:100CD00051EC100B0BF0CAFA9FEDEE0B53EC102BFE
:100CE000CDE90E019DED0E0B51EC100B0BF0BEFA91
:100CF000CDE910019DED100B51EC100B0BF05EFADD
:100D0000E64988830220FFF76DFF01900BF09AFA05
:100D10009FEDD80B53EC102BCDE902019DED020B9A
:100D200051EC100B0BF0A2FA9FEDD40B53EC102BEF
:100D3000CDE904019DED040B51EC100B0BF0B6F85E
:100D40009FEDCC0B53EC102BCDE906019DED060B6E
:100D500051EC100B0BF088FB9FEDD10B53EC102BDB
:100D6000CDE908019DED080B51EC100B0BF09EF83E
:100D70009FEDCD0B53EC102BCDE90A019DED0A0B35
:100D800051EC100B0BF072FA9FEDBA0B53EC102BD9
:100D9000CDE90C019DED0C0B51EC100B0BF070FB31
:100DA0009FEDBC0B53EC102BCDE90E019DED0E0B0E
:100DB00051EC100B0BF05AFACDE910019DED100B20
:100DC00051EC100B0BF0FAF9B449C8830320FFF77C
:100DD00009FF05900BF036FA9FEDA60B53EC102B94
:100DE000CDE906019DED060B51EC100B0BF03EFA20
:100DF0009FEDA20B53EC102BCDE908019DED080BE4
:100E000051EC100B0BF052F89FED9E0B53EC102B96
:100E1000CDE90A019DED0A0B51EC100B0BF046F8E1
:100E20009FED9A0B53EC102BCDE90C019DED0C0BB3
:100E300051EC100B0BF01AFA9FED960B53EC102BA4
:100E4000CDE90E019DED0E0B51EC100B0BF00EFADF
:100E5000CDE910019DED100B51EC100B0BF0AEF92C
:100E60008E4908840420FFF7BDFE01900BF0EAF9DB
:100E70009FED800B53EC102BCDE902019DED020B91
:100E800051EC100B0BF0F2F99FED7C0B53EC102B97
:100E9000CDE904019DED040B51EC100B0BF006F8AD
:100EA0009FED740B53EC102BCDE906019DED060B65
:100EB00051EC100B0BF0D8FA9FED790B53EC102B83
:100EC000CDE908019DED080B51EC100B0AF0EEFF87
:100ED0009FED750B53EC102BCDE90A019DED0A0B2C
:100EE00051EC100B0BF0C2F99FED620B53EC102B81
:100EF000CDE90C019DED0C0B51EC100B0BF0C0FA81
:100F00009FED640B53EC102BCDE90E019DED0E0B04
:100F100051EC100B0BF0AAF9CDE910019DED100B6F
:100F200051EC100B0BF04AF95C4948840520FFF79F
:100F300059FE05900BF086F99FED4E0B53EC102BEC
:100F4000CDE906019DED060B51EC100B0BF08EF96F
:100F50009FED4A0B53EC102BCDE908019DED080BDA
:100F600051EC100B0AF0A2FF9FED510B53EC102B2C
:100F7000CDE90A019DED0A0B51EC100B0AF096FF2A
:100F80009FED4D0B53EC102BCDE90C019DED0C0B9F
:100F900051EC100B0BF06AF99FED3E0B53EC102B4C
:100FA000CDE90E019DED0E0B51EC100B0BF05EF92F
:100FB000CDE910019DED100B51EC100B0BF0FEF87C
:100FC000364988840620FFF70DFE05900BF03AF9AC
:100FD0009FED280B53EC102BCDE906019DED060B80
:100FE00051EC100B0BF042F99FED240B53EC102B3E
:100FF000CDE908019DED080B51EC100B0AF056FFEE
:101000009FED2B0B53EC102BCDE90A019DED0A0B44
:1010100051EC100B0AF04AFF9FED270B53EC102BFD
:10102000CDE90C019DED0C0B51EC100B0BF01EF9F2
:101030009FED180B53EC102BCDE90E019DED0E0B1F
:1010400051EC100B0BF012F9CDE910019DED100BD6
:1010500051EC100B0BF0B2F81049C8840720FFF7D1
:10106000C1FD05900BF0EEF89FED020B53EC102B39
:1010700026E000006666666666660A4000000000BC
:1010800000FEAF40E17A14AE47E11040AE47E17A8E
:10109000140E5A400000000000005940D41B0020EC
:1010A0005C8FC2F5285C05407B14AE47E1AA59402D
:1010B0000000000000002E403333333333F343404D
:1010C000CDE906019DED060B51EC100B0BF0CEF8AF
:1010D0001FED160B53EC102BCDE908019DED080B0D
:1010E00051EC100B0AF0E2FE9FEDFE0B53EC102BBF
:1010F000CDE90A019DED0A0B51EC100B0AF0D6FE6A
:101100009FEDFA0B53EC102BCDE90C019DED0C0B70
:1011100051EC100B0BF0AAF81FED220B53EC102B27
:10112000CDE90E019DED0E0B51EC100B0BF09EF86E
:10113000CDE910019DED100B51EC100B0BF03EF8BA
:10114000EC4908850820FFF74DFD01900BF07AF877
:101150001FED380B53EC102BCDE902019DED020B76
:1011600051EC100B0BF082F81FED3C0B53EC102BE5
:10117000CDE904019DED040B51EC100B0AF096FE35
:101180001FED440B53EC102BCDE906019DED060B32
:1011900051EC100B0BF068F99FEDD20B53EC102BB8
:1011A000CDE908019DED080B51EC100B0AF07EFE15
:1011B0009FEDD10B53EC102BCDE90A019DED0A0BED
:1011C00051EC100B0BF052F81FED560B53EC102B9B
:1011D000CDE90C019DED0C0B51EC100B0BF050F90F
:1011E0001FED540B53EC102BCDE90E019DED0E0BB2
:1011F00051EC100B0BF03AF8CDE910019DED100BFE
:1012000051EC100B0AF0DAFFBA4948850920FFF7C4
:10121000E9FC05900BF016F81FED6A0B53EC102B50
:10122000CDE906019DED060B51EC100B0BF01EF8FD
:101230001FED6E0B53EC102BCDE908019DED080B53
:1012400051EC100B0AF032FE1FED670B53EC102B24
:10125000CDE90A019DED0A0B51EC100B0AF026FEB8
:101260001FED6B0B53EC102BCDE90C019DED0C0B1E
:1012700051EC100B0AF0FAFF1FED7A0B53EC102B18
:10128000CDE90E019DED0E0B51EC100B0AF0EEFFB7
:10129000CDE910019DED100B51EC100B0AF08EFF03
:1012A000944988850A20FFF79DFC05900AF0CAFF43
:1012B0001FED900B53EC102BCDE906019DED060BB5
:1012C00051EC100B0AF0D2FF1FED940B53EC102BD6
:1012D000CDE908019DED080B51EC100B0AF0E6FD7D
:1012E0001FED8D0B53EC102BCDE90A019DED0A0B80
:1012F00051EC100B0AF0DAFD1FED910B53EC102BA3
:10130000CDE90C019DED0C0B51EC100B0AF0AEFF7A
:101310001FEDA00B53EC102BCDE90E019DED0E0B34
:1013200051EC100B0AF0A2FFCDE910019DED100B5E
:1013300051EC100B0AF042FF6E49C8850B20FFF7F5
:1013400051FC01900AF07EFF1FEDB60B53EC102B01
:10135000CDE902019DED020B51EC100B0AF086FF66
:101360001FEDBA0B53EC102BCDE904019DED040BDE
:1013700051EC100B0AF09AFD1FEDC20B53EC102B31
:10138000CDE906019DED060B51EC100B0BF06CF84E
:101390009FED540B53EC102BCDE908019DED080B8C
:1013A00051EC100B0AF082FD9FED530B53EC102B08
:1013B000CDE90A019DED0A0B51EC100B0AF056FF26
:1013C0001FEDD40B53EC102BCDE90C019DED0C0B54
:1013D00051EC100B0BF054F81FEDD20B53EC102B0B
:1013E000CDE90E019DED0E0B51EC100B0AF03EFF06
:1013F000CDE910019DED100B51EC100B0AF0DEFE53
:101400003C4908860C20FFF7EDFB05900AF01AFF17
:101410001FEDE80B53EC102BCDE906019DED060BFB
:1014200051EC100B0AF022FF1FEDEC0B53EC102BCC
:10143000CDE908019DED080B51EC100B0AF036FDCB
:101440001FEDE50B53EC102BCDE90A019DED0A0BC6
:1014500051EC100B0AF02AFD1FEDE90B53EC102B99
:10146000CDE90C019DED0C0B51EC100B0AF0FEFECA
:101470001FEDF80B53EC102BCDE90E019DED0E0B7B
:1014800051EC100B0AF0F2FECDE910019DED100BAE
:1014900051EC100B0AF092FE164948860D20FFF71A
:1014A000A1FB05900AF0CEFE9FED150B53EC102B1F
:1014B000CDE906019DED060B51EC100B0AF0D6FEAE
:1014C0009FED110B53EC102BCDE908019DED080B9E
:1014D00051EC100B0AF0EAFC9FED0D0B53EC102BB6
:1014E0001AE00000F6285C8FC2F51340A4703D0A94
:1014F000D7E33D40D41B00208FC2F5285CBF5C4081
:101500006666666666660A400000000000FEAF4040
:101510000000000000002440CDE90A019DED0A0B07
:1015200051EC100B0AF0C2FC9FED370B53EC102B63
:10153000CDE90C019DED0C0B51EC100B0AF096FE61
:101540009FED330B53EC102BCDE90E019DED0E0BEF
:1015500051EC100B0AF08AFECDE910019DED100B45
:1015600051EC100B0AF02AFE2B4988860E20FFF75B
:1015700039FB05900AF066FE1FED1F0B53EC102B94
:10158000CDE906019DED060B51EC100B0AF06EFE45
:101590001FED230B53EC102BCDE908019DED080B3B
:1015A00051EC100B0AF082FC1FED270B53EC102BB3
:1015B000CDE90A019DED0A0B51EC100B0AF076FC07
:1015C0009FED110B53EC102BCDE90C019DED0C0B95
:1015D00051EC100B0AF04AFE9FED0D0B53EC102B53
:1015E000CDE90E019DED0E0B51EC100B0AF03EFE05
:1015F000CDE910019DED100B51EC100B0AF0DEFD52
:101600000549C88613B000BD00000000000034404A
:101610000000000000005940D41B002030B58BB002
:1016200004460D461C48844203D10121801507F071
:1016300005FC1A48844203D10121401507F0FEFB46
:101640001748844203D10121001507F0F7FB002061
:1016500007904FF480300890002009900A9007A866
:10166000FFF7A6F80020019001208DF808008DF802
:101670000900002003904FF0706004900020059056
:101680008DF8185001A92046FFF7C0F80121204627
:10169000FFF782F80BB030BD00200140002101406F
:1016A0000022014010B5FF21084600F0BDF810BD32
:1016B00010B540F6FF7000F0DBF80349C888FF2141
:1016C00000F0C4F810BD0000D41B002010B540F697
:1016D000FF7000F0CDF840F6FF7000F0D8F8FF2161
:1016E000084600F0B3F810BD10B52548808841F6D3
:1016F0004C51884243DC22488088B0F57A7F3EDB3B
:101700001F48C08888423ADC1D48C088B0F57A7FFF
:1017100035DB1B480089B0F5FA7F30DC18480089BA
:10172000FA282CDB16484089B0F5FA7F27DC1448EC
:101730004089FA2823DB4FF40041124801F05CFF96
:101740004FF480410F4801F057FFFFF7B1FF0C49FC
:10175000888800F08DF80A4A5189D08800F076F820
:10176000074A5189108900F05FF84FF4004105489D
:1017700001F040FF4FF48041024801F03DFF10BDF1
:10178000D41B00200018024010B52548808841F67F
:101790004C51884242DC22488088B0F57A7F3DDB9C
:1017A0001F48C088884239DC1D48C088B0F57A7F60
:1017B00034DB1B480089884230DC19480089B0F5C9
:1017C000FA7F2BDB16484089884227DC1448408981
:1017D000B0F5FA7F22DB4FF40041124801F00CFF14
:1017E0004FF480410F4801F007FFFFF75BFF0C4902
:1017F000888800F03DF80A49088900F048F8084A4E
:101800005189D08800F022F84FF40041054801F0DA
:10181000F1FE4FF48041034801F0ECFE10BD0000E2
:10182000D41B0020001802402DE9F04105460C466B
:10183000284607F09FFA0646204602F01FFD07469D
:10184000F9B2F0B201F0DEFBBDE8F0812DE9F04124
:1018500005460C46284609F06BFF0646204609F06F
:1018600067FF0746F9B2F0B201F01AFCBDE8F0815B
:1018700070B50446204609F0ABFF05462946002016
:1018800000F04EFD0121002000F06AFD70BD70B532
:101890000446204609F09CFF05462946002000F03A
:1018A0004FFD0121102000F05BFD70BD0EB5B1E0D1
:1018B000594A1179106807F05BFB01280DD1574A8E
:1018C00011791068FEF7AFFD00F00CFC5349086871
:1018D00001F0DAFD524807F0E9FB524A117910682D
:1018E00007F046FB012806D14E4A11791068FEF731
:1018F0009AFD00F0F7FB4B4A1179106801F034FCB7
:1019000020B1484A11791068FEF78DFD464890F8DD
:10191000490001280CD10021434880F84910408C2F
:1019200000904148038CC28B818B40A0FEF7E6FCFF
:101930003D4890F84A0001280CD100213A4880F82F
:101940004A10408C00903848038CC28B818B37A0A2
:10195000FEF7D4FC344890F8480001280DD100204F
:10196000314981F848000846408C00900846038CB5
:10197000C28B818B2DA0FEF7C1FC2B4890F84D0047
:1019800001283DD10021284880F84D1004202E491F
:1019900088700820C8702448808B0012496808703D
:1019A0002148007F2849496848701F48C08B0012B1
:1019B0002549496888701C48807F23494968C87058
:1019C0001948008C0012204949680871164890F89F
:1019D00020001D49496848711348408C00121A497B
:1019E00049688871104890F8220017494968C87101
:1019F0000A49086801F048FD0948303807F056FBED
:101A000002A808210A230022CDE900101146104641
:101A100004F04EF94CE700005C0000206400002058
:101A2000A06002404C000020D41B0020566F6C7454
:101A3000616765203A2025642025642025642025DF
:101A400064200D0A000000002400002000B58BB0C7
:101A50000AA8032100220592CDE90621089010462C
:101A60004FF480711922074BCDE90132CDE9031003
:101A700006200023044A05A10090084803F00AFB51
:101A80000BB000BD4C120020AD1800084170705F13
:101A9000436F6D5F5461736B000000008C11002078
:101AA0000EB50FE04FF48061074801F0A7FD02A8D2
:101AB00008214FF4FA730022CDE9001011461046B8
:101AC00004F0F6F8EEE70000000C024000B58BB021
:101AD0000AA8032100220592CDE9062108901046AC
:101AE0004FF480711922074BCDE90132CDE9031083
:101AF00003200023044A05A10090084803F0CAFA15
:101B00000BB000BD8C080020A11A00084170705F66
:101B10004C65645F5461736B00000000CC070020CB
:101B200010B586B0002400F049FA05A803F030FA99
:101B300005AA0121084603F0DFF800BF00BF00BF7F
:101B4000FEF7C4FB044600BF00BF2D480078401CD0
:101B50002B49087000BF00BF2046FEF7BBFB00BF4B
:101B600000BF00BFFFF7B2FF00F0C2F9FFF76EFF42
:101B700000F09AF805A80021224A0223CDE900329C
:101B8000CDE9021001231A461FA1244804F0B0F940
:101B900005A9224804F006FA05A9214803F08EFFA2
:101BA00000BF00BF00BFFEF791FB044600BF00BFAF
:101BB00013480078401E1249087008460078A0B902
:101BC00018480088002809DD00BF00BF2046FEF746
:101BD00081FB00BF00BF05F083FB0DE000BF00BF2D
:101BE0002046FEF777FB00BF06E000BF00BF20469F
:101BF000FEF770FB00BF00BF00BF06B010BD0000C5
:101C00006002002079B800085379735F53746174DF
:101C10006543686B5F546D72000000009C030020F8
:101C2000DC0200202402002000B58BB00AA80321AA
:101C300000220592CDE90621089010464FF48071EC
:101C40001922074BCDE90132CDE903101E200023F4
:101C5000044A05A10090084803F01CFA0BB000BD2F
:101C6000CC030020211B00084170705F5374617227
:101C7000745F5461736B0000DC0200200EB511E04C
:101C8000BDF8080007F0B4FBBDF8080007F0C8FC79
:101C900002A808210A230022CDE9001011461046AF
:101CA00004F006F8ECE7000000B58BB00AA80321A9
:101CB00000220592CDE90621089010464FF480716C
:101CC0001922074BCDE90132CDE90310082000238A
:101CD000044A05A10090084803F0DCF90BB000BDF0
:101CE0000C1700207D1C00085379734F6E4F6666F9
:101CF0005461736B546362004C1600200EB5E5E02E
:101D000009F0ACFC60B172480068C1B2714807F0DC
:101D10002FF9012801D100F0E5F900206C49086095
:101D20006D4890F8490001283FD100216A4880F8A9
:101D300049100220694988700820C8706648808B65
:101D40000012496808706448007F64494968487017
:101D50006148C08B00126149496888705E48807F85
:101D60005E494968C8705C48008C00125B4949684C
:101D70000871594890F820005849496848715648F8
:101D8000408C0012554949688871534890F82200E8
:101D900052494968C871524801F076FB5048C078F2
:101DA000811D5048C2684E4890474B4890F84A0001
:101DB00001283FD10021484880F84A1003204749B4
:101DC00088700820C8704448808B001249680870E9
:101DD0004148007F4149496848703F48C08B001224
:101DE0003E49496888703C48807F3C494968C870D2
:101DF0003948008C0012394949680871364890F812
:101E000020003649496848713348408C00123349F4
:101E100049688871304890F8220030494968C87193
:101E20002F4801F031FB2E48C078811D2D48C26833
:101E30002B489047284890F84B00A8B1012126482C
:101E400080F84B100020254988700120C8700020C0
:101E500049680870224801F017FB2148C078811DAD
:101E60002048C2681E4890471B4890F84C0018B3A1
:101E70000121194880F84C1013201849C8700846F1
:101E80004168194802680A6042684A6002890A810A
:101E9000807A88721148406814490A6840F80B2F0C
:101EA000496841600E4801F0EFFA0D48C078811D85
:101EB0000C48C2680A48904702A808210A23002259
:101EC000CDE900101146104603F0F2FE18E70000BD
:101ED0007C000020A6260020D41B00202400002027
:101EE0008C0C002088000020000000200B00002047
:101EF00000B58BB00AA8032100220592CDE9062186
:101F0000089010464FF480711922074BCDE9013239
:101F1000CDE9031004200023044A05A100900848DD
:101F200003F0B8F80BB000BD8C0D0020FD1C0008BC
:101F30004170705F5573625F5461736B0000000005
:101F4000CC0C00201FB5684606F088FF019804B04D
:101F500010BD000008B500214FF0006002F084F9C8
:101F600002F0C0F901F0F0FB0F48104B104A0121BC
:101F70000090104807F0E1FF07F0ACF900F03CF9E1
:101F800001F0AAF907F018F9FFF7A0FBFFF78AFBA9
:101F900009F09AFB02F090F8002001F0CFF8102031
:101FA00001F0CCF808BD0000F4000020340100204E
:101FB0009C000020281C002000BFFEE710B500F0A8
:101FC0001FF800F019F810BD10B5002400BF00BFC5
:101FD000FEF77CF9044600BF00BF1021054802F05F
:101FE000C8F800BF00BF2046FEF774F900BF00BF6D
:101FF00010BD0000E62E002010B5FFF7E5FF10BD74
:1020000010B500200249086000F00AF810BD000079
:10201000EC0100200149086070470000EC0100203D
:1020200010B5FFF78FFF04460848006840F0807045
:10203000064908600020064948600846006840F0EC
:10204000010008602046FFF7E5FF10BDFCED00E051
:10205000001000E00149486870470000001000E0EF
:102060001F48808896301E498881084680889638A7
:10207000C88108468088963008820846808896384D
:10208000488208460078012811D1002008700846CF
:10209000008996308882084600899638C8820846AA
:1020A00000899630088308460089963848830C4892
:1020B0004078012812D1002009494870084600895B
:1020C00064308882084600896438C88208460089DE
:1020D00064300883084600896438488370470000EC
:1020E000D41B002010B50E488078052813D2DFE8F5
:1020F00000F00306090C0F0001F0FCFA0EE001F0FD
:10210000F1FA0BE001F0B6FA08E001F07BFA05E025
:1021100001F012FB02E002F001F800BF00BF10BDA9
:102120001800002010B540F224412D4807F0ABFB09
:1021300018B340F224412A4807F074FB284800886D
:102140002748001D00880021264800F0CDFE2649C2
:10215000244800F095FE234800F0D1FEC0F1640051
:1021600022490871084600681E494039C864642045
:10217000486401211B4800F0B7FE40F224411C488E
:1021800007F081FB50B340F22441194807F04AFBA5
:10219000174800881648001D008800211148483063
:1021A00000F0A2FE10490F48483000F069FE0D48CB
:1021B000483000F0A4FEC0F164000E4908710846E2
:1021C0000068084954310860642006494039C1F864
:1021D0008C0001210348483000F086FE10BD00004D
:1021E000004C004040600240200000204C000020D5
:1021F000004400405C00002000B587B04FF4E1319E
:102200002C4809F0DFF9002240F22551294807F057
:1022100064FB002240F22771264807F05EFB012292
:1022200040F22441234807F058FB01224021214875
:1022300007F013FB012280211E4807F00EFB4FF42C
:1022400040304FF4807100220292CDE903210590C5
:102250000420CDE900201848164A121DC90403685D
:10226000164801F0A5F84FF440304FF48071002279
:102270000292CDE90321059004204021CDE9001010
:102280000F480C4A121D490503680C48183001F02C
:102290008FF80121094800F027FE00210748183077
:1022A00000F022FE012210210448183000F05EFEEA
:1022B00007B000BD004400405C0000208860024080
:1022C0006400002039B1084A1268012383401A4390
:1022D000054B1A6006E0044A1268012383409A43C2
:1022E000014B1A60704700000074004030B50022B6
:1022F00000230A4C226840F6FE748440A243D1E9D0
:1023000000452C438D682C43CD6844EA050303FA4D
:1023100000F42243014C226030BD000000740040F4
:1023200008B500220092054A009200F10802009BC5
:102330001A440092009A116008BD00000074004029
:1023400008B500220092054A009200F11402009B99
:102350001A440092009A116008BD00000074004009
:1023600010B541B1084A126804090123A3401A4379
:10237000054B1A6007E0044A126804090123A340D0
:102380009A43014B1A6010BD0474004070B50646B4
:102390000C4604F08000802808D104F07F0000EB98
:1023A000800106F58E7000EBC10507E004F07F00A8
:1023B00000EB800106F55D7000EBC10504F07F00C5
:1023C000287004F08000C00968702946304608F083
:1023D00088FD002070BD70B506460C4604F08000F4
:1023E000802808D104F07F0000EB800106F58E7094
:1023F00000EBC10505E004EB840106F55D7000EB20
:10240000C1050020A87004F07F002870C4F3C0103C
:1024100068702946304608F03CFD002070BD2DE96B
:10242000F04106460D4690461F4605F08000802884
:1024300008D105F07F0000EB800106F58E7000EBFF
:10244000C10407E005F07F0000EB800106F55D7038
:1024500000EBC10405F07F00207005F08000C0098A
:102460006070C4F80880E770607808B12078E08078
:10247000022F01D1002020712146304608F0BDFC1A
:102480000020BDE8F0812DE9F04105460E461746D3
:10249000984606F07F0000EB800105F55D7000EBCB
:1024A000C104E760C4F814800020A061607006F0E9
:1024B0007F002070E878012800D12761207820B9BA
:1024C0002146284608F0BDFB03E02146284608F0D7
:1024D00087FD0020BDE8F08108B500220092009A37
:1024E00061F30A12009202691268009B1A430369A1
:1024F0001A6008BD70B506460C4604F080008028BE
:1025000008D104F07F0000EB800106F58E7000EB2F
:10251000C10505E004EB840106F55D7000EBC10523
:102520000120A87004F07F002870C4F3C010687008
:102530002946304608F022FD002070BD2DE9F0410B
:1025400007460D461646984605F07F0000EB8001D1
:1025500007F58E7000EBC1040120607005F07F006C
:102560002070E66026610020A061C4F81480207805
:1025700020B92146384608F064FB03E0214638467E
:1025800008F02EFD0020BDE8F081000030B587B0D6
:102590000546594C284608F01AFB01A806F05EFCD7
:1025A000029CE868C0680590059820F4705005907A
:1025B0000598E968C860284608F0E4FE03280BD1B6
:1025C0000020A8704FF40070A880059820F4705087
:1025D00000F5105005907EE00120A8704020A880F2
:1025E0004648844209D34648844206D2059820F4DE
:1025F000705000F5605005906DE04148844209D369
:102600004048844206D2059820F4705000F550509E
:10261000059060E03B48844209D33B48844206D29F
:10262000059820F4705000F54050059053E036486E
:10263000844209D33548844206D2059820F470506C
:1026400000F53050059046E03048844209D33048C8
:10265000844206D2059820F4705000F52050059071
:1026600039E02B48844209D32A48844206D205988F
:1026700020F4705000F5105005902CE0254884425D
:1026800009D32548844206D2059820F4705000F5FD
:10269000005005901FE02048844209D31F4884421F
:1026A00006D2059820F4705000F5E050059012E035
:1026B0001A48844209D31A48844206D2059820F465
:1026C000705000F5C050059005E0059820F470505A
:1026D00000F5A05005900598E968C86000200690B4
:1026E000069820F4005000F5005006900698E9681E
:1026F0004861012007B030BD007A030AC0E1E40060
:102700000024F400E0EC040100C31801002D3101A5
:1027100040A44C0100366E0140E2950180C3C9011E
:1027200060600B02F8B505460024002000902846A2
:1027300008F069FE064681E006F0010000287BD023
:10274000E1B2284600F00CFB0090009800F0010078
:1027500030B3012000FA04F72869406BB8432969B7
:10276000486300200090009820F00100401C009079
:1027700005F1180050F8240000998160E1B2324858
:102780000068426828469047E878012808D13CB99B
:1027900040F21110405D042802D1284608F0FCFAEE
:1027A0000098C0F3C00060B100200090009820F0B5
:1027B00008000830009005F1180050F82400009936
:1027C00081600098C0F3001060B100200090009874
:1027D00020F010001030009005F1180050F824008F
:1027E000009981600098C0F3801060B100200090D3
:1027F000009820F040004030009005F1180050F89B
:102800002400009981600098C0F3400060B100206E
:102810000090009820F00200801C009005F1180044
:1028200050F82400009981600098C0F3C01018B1DE
:102830002146284600F0BEFA641C7608002E7FF47C
:102840007BAF0120F8BD0000D80100207CB5044614
:10285000002500200190204608F0DDFD06466FE0CF
:1028600006F00100002869D0E9B2204608F0DBFD3F
:102870000190019800F00100C8B300200190019878
:1028800020F00100401C019004F1540050F8250094
:1028900001998160E078012817D104F1540050F8C3
:1028A00025000069009005EB850104F55D7000EBE3
:1028B000C10080680099C1F31201411A05EB85023D
:1028C00004F55D7000EBC2008161E9B21E4800684A
:1028D000026820469047E078012808D13DB940F2CF
:1028E0001110005D052802D1204608F055FA019824
:1028F000C0F3400060B100200190019820F0020078
:10290000801C019004F1540050F825000199816069
:102910000198C0F3C00088B10B4800688168204668
:10292000884700200190019820F0080008300190AD
:1029300004F1540050F82500019981606D1C76085F
:10294000002E8DD101207CBDD80100203EB504466B
:10295000A07A78B1D4F80C0100680090009820F0BB
:1029600002000090009820F0010000900099D4F837
:102970000C01016000200190019820F00100401C32
:10298000019020694068019988432169486009489D
:10299000006881692046884700200290029820F054
:1029A000004000F1004002900298E1684861012077
:1029B0003EBD0000D80100207CB5044600200190F7
:1029C000019820F0100010300190E06880690199B2
:1029D0008843E1688861E068006A0090009800F030
:1029E0000F0000EB800104F55D7000EBC10500985D
:1029F000C0F3434007282DD2DFE800F02C04051D6A
:102A00001E2C1F0027E00098C0F30A1090B1009818
:102A1000C0F30A122046E96808F00FFDE868009943
:102A2000C1F30A110844E860A8690099C1F30A11CA
:102A30000844A8610FE00EE00DE0082204F2CC513A
:102A4000204608F0FAFCA8690099C1F30A1108446D
:102A5000A86100E000BF00BFE068806901990843F9
:102A6000E168886101207CBD38B5044608480068EB
:102A7000C1682046884700200090009820F0080098
:102A8000083000900098E1684861012038BD0000DE
:102A9000D80100201FB50446002000904FF4897033
:102AA000005D0090234800684169204688472069FE
:102AB0008068019000200390039820F4006000F5E6
:102AC000006003900398E1684861A07A70B30198B0
:102AD00000F0010050B340F21510005D012825D12F
:102AE0009DF80000032821D100200290029820F0D8
:102AF0000100401C0290D4F80C01006802990843C0
:102B0000D4F80C110860029820F00200801C02909A
:102B1000D4F80C01006802990843D4F80C1108603D
:102B20000548006840F0060003490860012004B031
:102B300010BD0000D801002010ED00E030B587B0D6
:102B400004460020029006900590049003900190A6
:102B5000029820F00100401C029020694068029910
:102B60008843216948600021204608F0E1FB0025E8
:102B70000BE0FF2104F1180050F82500816004F1FA
:102B8000540050F8250081606D1C6078A842F0D890
:102B90004FF0FF312069816106986FF30F00401CF0
:102BA0000690069880B200F580300690069920695C
:102BB000C161059820F0080008300590059820F0C4
:102BC0000100401C0590059820F00200801C059033
:102BD000059920694161049820F00100401C04908F
:102BE000049820F0080008300490049820F00200B7
:102BF000801C049004992069016120690068039099
:102C0000039820F4FE600390039920690160204638
:102C100008F0C2F800200190019820F4805000F5DF
:102C2000805001900198E16848610448006801699A
:102C300020468847012007B030BD0000D8010020A1
:102C40002DE9F04106460F463946304608F00AFCA9
:102C500001214FF4897081550021801C8155002588
:102C600011E005EB850106F58E7000EBC104012033
:102C700060702570E5800020E0704020A06000209A
:102C8000E06060616D1C7078A842EAD8002510E011
:102C900005EB850106F55D7000EBC1040020607056
:102CA0002570E580E0704020A0600020E060606159
:102CB0006D1C7078A842EBD8304607F077FF30469D
:102CC00007F0A7FD0021304608F034FC304607F03D
:102CD0002DFE304608F0F5FABDE8F08138B504461F
:102CE0000020009007480068C16920468847009886
:102CF00020F4801000F5801000900098E168486191
:102D0000012038BDD801002038B5044600200090CD
:102D100007480068016A20468847009820F40010A0
:102D200000F5001000900098E1684861012038BD6E
:102D3000D801002038B50446E0684068009000984B
:102D4000C0F3800020B105480068816A20468847AA
:102D50000098E1684860012038BD0000D8010020DB
:102D600030B5024615692B6915696C6B24FA01F5BB
:102D700005F0010543EAC51302F1180555F8215085
:102D8000AD6805EA030030BD38B504460848006860
:102D9000416A2046884700200090009820F080403B
:102DA00000F1804000900098E1684861012038BD42
:102DB000D80100202DE9F84306460F4600250020E3
:102DC000009007EB870106F58E7000EBC104D4E993
:102DD0000501451AA068A84200D2A568E81C4FEA80
:102DE000900806F1180050F827008069009029E04B
:102DF000D4E90501451AA068A84200D2A568E81CDC
:102E00004FEA9008ABB2FAB23046E16808F0B9FB7D
:102E1000E0682844E060A0692844A06106F1180039
:102E200050F8270080690090D4E90501884209D153
:102E30002178012000FA01F93069406B20EA09008D
:102E400031694863009880B2404506D9D4E905103D
:102E5000884202D260690028CAD10120BDE8F88307
:102E600010B501F047FB00F0E3FA01F059FB10BD8B
:102E700010B501F03FFB00F0DBFA01F051FB10BD93
:102E80000246094B9A4201D2084801E00648103830
:102E900001F000531BB1064B0B40C36002E0044B32
:102EA0000B408360704700001064024000600240E5
:102EB0007D0F7D0F0246094B9A4201D2084801E07E
:102EC0000648103801F000531BB1064B0B40C3609D
:102ED00002E0044B0B408360704700001064024026
:102EE000006002407D0F7D0F21B1026842F00102B7
:102EF000026003E0026822F00102026070470146AE
:102F0000486880B27047000070B502460020002477
:102F10000025124EB24201D2114B01E00F4B103B83
:102F2000104E0E4036B11E2606EAD124166806EA77
:102F3000040502E0566906F0800501F000560EB166
:102F40005C6800E01C68084E344004EA010616B1D3
:102F50000DB1012000E0002070BD000010640240AF
:102F6000006002403C0F3C0F7D0F7D0F10B501F05B
:102F700080034BB122B1436943F08003436103E016
:102F8000436923F08003436180290BD02AB1036891
:102F900001F01E042343036004E0036801F01E04F3
:102FA000A343036010BD000010B500220268134B5C
:102FB0001A40CC680B6823434C6923438C69234334
:102FC000CC6923430C6A23434C6A23438C6A234312
:102FD0004C6B23438C6B23431A430260426922F0FB
:102FE0000702D1E90B3423431A4342610B69436062
:102FF0004B6883608B68C36010BD00003F801CF08D
:103000004160704770B504460D464FF48041224838
:1030100000F0F0FA49F20101204806F02EF84FF4D2
:103020007A6000F0BFF94FF480411B4800F0E4FAE9
:103030004FF4FA6000F0B6F94FF48041164800F002
:10304000D9FA4FF4805040EA0511144806F015F8FB
:103050004FF47A6000F0A6F94FF480410E4800F07A
:10306000CBFA4FF4FA6000F09DF94FF480410A4822
:1030700000F0C0FA4FF4004040EA0411074805F0A0
:10308000FCFF4FF47A6000F08DF94FF48041024864
:1030900000F0B2FA70BD000000040240003C0040A5
:1030A00070B504460D464FF40051224800F0A2FAD4
:1030B00049F20101204805F0E0FF4FF47A6000F08A
:1030C00071F94FF400511B4800F096FA4FF4FA6082
:1030D00000F068F94FF40051164800F08BFA4FF4F5
:1030E000805040EA0511144805F0C7FF4FF47A609C
:1030F00000F058F94FF400510E4800F07DFA4FF4FB
:10310000FA6000F04FF94FF400510A4800F072FAEB
:103110004FF4004040EA0411074805F0AEFF4FF4B9
:103120007A6000F03FF94FF40051024800F064FA71
:1031300070BD000000040240003C00401FB5044682
:103140000121480705F06AFE3C2000900020019014
:1031500002900220039069462046FFF7C7F801213C
:103160002046FFF7AFF81FBD70B504460D46002698
:10317000204600F09BF80646012E02D0022E56D1C2
:1031800056E0E07930384FF47A7110FB01F1207A83
:10319000303800EBC00202EB001001EB8001607AD6
:1031A000303800EB800001EB4001A07A3038084451
:1031B00080B23C498880C880102D1AD1207B3038DD
:1031C0004FF47A7110FB01F1607B303800EBC002E4
:1031D00002EB001001EB8001A07B303800EB800097
:1031E00001EB4001E07B3038084480B22D49088172
:1031F00048810F2D11D1207B3038642110FB01F163
:10320000607B303800EB800001EB4001A07B303860
:10321000084480B22349088148810120214908706F
:10322000FEF71EFFFEF7B0FA01201E49887036E057
:10323000E07930384FF47A7110FB01F1207A3038A0
:1032400000EBC00202EB001001EB8001607A303825
:1032500000EB800001EB4001A07A3038084480B2D6
:1032600010498880C880207B3038642110FB01F130
:10327000607B303800EB800001EB4001A07B3038F0
:10328000084480B207490881488101204870FEF750
:10329000E7FEFEF729FA01200249C87000BF00BF0F
:1032A000304670BDD41B00207047000070B5054645
:1032B00000240BE0074850F8241006222846FDF7AA
:1032C00099F810B9601CC0B270BD641C022CF1DB0F
:1032D0000020F9E73000002000B587B04FF4E1315D
:1032E0002C4808F06FF9002240F22551294806F0D9
:1032F000F4FA002240F22771264806F0EEFA012285
:1033000040F22441234806F0E8FA012240212148F6
:1033100006F0A3FA012280211E4806F09EFA4FF41F
:1033200040304FF4807100220292CDE903210590D4
:103330006420CDE900201848164A121DC90403680C
:10334000164800F035F84FF440304FF480710022F9
:103350000292CDE90321059064204021CDE90010BF
:103360000F480C4A121D490503680C48303000F024
:103370001FF801210948FFF7B7FD00210748303049
:10338000FFF7B2FD0122102104483030FFF7EEFDB7
:1033900007B000BD004C00404C00002040600240DF
:1033A0005400002000BF411E89B2081EFBD17047A7
:1033B0002DE9F04F8FB004460D4616461F46DDE955
:1033C0001AABDDE918891948844204D20121480565
:1033D00005F004FD03E00121880505F0FFFC0095E0
:1033E00001960297CDF80C80CDF810900020059042
:1033F0004FF480600690CDF81CA0CDF820B01C984A
:1034000009901D980A9000200B9003200C9000203A
:103410000D900E9069462046FFF7C6FD002120461C
:10342000FFF762FD0FB0BDE8F08F000000640240BE
:1034300010B513491348FFF767FD58B10021114833
:10344000FFF752FD64210F48FFF7DAFD0C490D48E4
:10345000FFF730FD0A490B483030FFF755FD70B1DA
:10346000002108483030FFF73FFD64210548303027
:10347000FFF7C6FD024903483030FFF71BFD10BDC2
:10348000208000207060024010B500221E4949785B
:103490001D4B9B7819441C4BDB7819441A4B19724D
:1034A00000BF09E01849097A174B5B689B5C194417
:1034B000154B1972511CCAB21349C9789142F1DCFB
:1034C0001149097801701049497841700E4989788D
:1034D00081700D49C978C170002105E00A4B5B6815
:1034E0005C5C0B1DC454491C074BDB788B42F5DC3C
:1034F00005490B7AC978091D435403494B7AC978A9
:10350000491D435410BD000024000020F0B50A46B8
:1035100000210023002400BF3DE0012505FA01F34E
:10352000156805EA03049C4234D105684F00032660
:10353000BE40B543056015794E00B5400668354379
:1035400005601579012D02D01579022D16D18568F7
:103550004F000326BE40B543856055794E00B54007
:10356000866835438560456801268E40B5434560D1
:10357000456896798E40B6B235434560C5684F00C0
:103580000326BE40B543C560D5794E00B540C66838
:103590003543C560491C1029BFD3F0BDF0B50023E9
:1035A00000244D07ED0E02FA05F3CE1000F12005C0
:1035B00055F826504E07F70E0F26BE40B543CF10E4
:1035C00000F1200646F82750CE1000F1200555F8EE
:1035D000265045EA0304CE1000F1200545F82640A8
:1035E000F0BD0246002013690B400BB1012000E042
:1035F00000207047418370470183704742694A4009
:103600004261704710B519484068407817494968C9
:10361000097840EA01201649888014484068C0783B
:1036200012494968897840EA01201149C8800F4849
:10363000406840790D494968097940EA01200C4900
:1036400008810A484068C07908494968897940EA90
:1036500001200749488101204870FEF701FDFEF76F
:1036600043F801200249C87010BD00001800002076
:10367000D41B002010B519484068407817494968A4
:10368000097840EA01201649888014484068C078CB
:1036900012494968897840EA01201149C8800F48D9
:1036A000406840790D494968097940EA01200C4990
:1036B00008810A484068C07908494968897940EA20
:1036C00001200749488101200870FEF7C9FCFEF778
:1036D0005BF801200249887010BD0000180000202E
:1036E000D41B00200121024880F84C1070470000D4
:1036F000D41B00200121024880F84B1070470000C5
:10370000D41B002070B50A480468001D0568001D20
:103710000668344454B108220649204600F008FDEA
:10372000042204491031284600F002FD70BD00005B
:10373000107AFF1FDA0000200121024880F84D10A6
:1037400070470000D41B002008B501217F2005F040
:1037500045FB0121080705F061FB012005F004FB92
:10376000002005F0EFFB002005F0FEFA0822002102
:10377000FE48FFF713FF08220121FC48FFF70EFF68
:1037800000200346022201210090F84800F0C0FA10
:1037900000200346022211460090F44800F0B8FAD7
:1037A00000200346032204210090F04800F0B0FA04
:1037B00000200346032208210090EC4800F0A8FAFC
:1037C00002200023032210210090E84800F0A0FA14
:1037D00002200023032220210090E44800F098FA00
:1037E00000200346012211020090E04800F090FA08
:1037F00001200023024601460090DD4800F088FACF
:1038000001200023024640210090D94800F080FAB0
:1038100001200346024680210090D54800F078FA46
:1038200001200023024601020090D14800F070FA06
:1038300001200023024641020090CD4800F068FAC2
:1038400001200023024641030090C94800F060FABD
:1038500001200023024681030090C54800F058FA79
:1038600000200346032201210090C24800F050FAD4
:1038700000200346032202210090BE4800F048FACF
:1038800000200346032204210090BA4800F040FAC9
:1038900000200346032208210090B64800F038FAC1
:1038A00000200346032220210090B24800F030FAA5
:1038B00000200346012251020090AE4800F028FA91
:1038C00006220A21AB48FFF769FE012000230222ED
:1038D00081020090A74800F01BFA06220B21A548A0
:1038E000FFF75CFE012000230222C1020090A148E4
:1038F00000F00EFA06220C219E48FFF74FFE012031
:1039000000230222010300909A4800F001FA0020EF
:103910000346012251030090964800F0F9F94FF454
:1039200000519448FFF768FE0020034601229103EE
:103930000090904800F0ECF94FF480418D48FFF77B
:103940005BFE002003460122D1030090894800F06D
:10395000DFF900200346012202210090864800F092
:10396000D7F900200346012204210090824800F08C
:10397000CFF904218048FFF73FFE002003460122D3
:10398000082100907C4800F0C3F908217A48FFF72D
:1039900033FE00200346012210210090764800F0FB
:1039A000B7F910217448FFF727FE07220521724856
:1039B000FFF7F4FD072206216F48FFF7EFFD002017
:1039C00003460222202100906B4800F0A1F900205C
:1039D0000346022240210090674800F099F9002038
:1039E0000346012280210090634800F091F9802174
:1039F0006148FFF701FE00200346012211020090FA
:103A00005D4800F085F94FF480715B48FFF7F4FDE5
:103A100000200346012251020090574800F078F937
:103A20004FF400715448FFF7E7FD002003460122E0
:103A300091020090504800F06BF9002003460122EB
:103A4000D10200904C4800F063F9002003460122A7
:103A500011030090484800F05BF94FF4805146484C
:103A6000FFF7CAFD0020034601225103009042489F
:103A700000F04EF9002003460122910300903E48D9
:103A800000F046F90020034602464FF40041009042
:103A9000394800F03DF9002003460246012100901C
:103AA000364800F035F9022000231A4601460090FE
:103AB000324800F02DF90020034601220421009035
:103AC0002E4800F025F90020034602460821009008
:103AD0002A4800F01DF900200346024610210090FC
:103AE000264800F015F900200346024620210090E8
:103AF000224800F00DF90020034601221102009037
:103B00001E4800F005F90020034602464FF40071FC
:103B100000901A4800F0FCF80020034601229102B0
:103B20000090164800F0F4F84FF480611348FFF756
:103B300063FD002003460122D10200900F4800F0EF
:103B4000E7F80020034602464FF4805100900B48EE
:103B500000F0DEF80020034602464FF400510090CA
:103B6000064800F0D5F80020034609E000000240B6
:103B70000004024000080240000C02400010024015
:103B8000012202210090604800F0C2F800200346A4
:103B90000122114600905C4800F0BAF8002003466C
:103BA000012204210090584800F0B2F8002003469A
:103BB000032208210090544800F0AAF80020034690
:103BC000032210210090504800F0A2F80020034684
:103BD0000322202100904C4800F09AF80020034670
:103BE000032240210090484800F092F8002003464C
:103BF000032280210090444800F08AF80020034608
:103C000003224FF4807100903F4800F081F80020BB
:103C1000034603224FF4007100903B4800F078F80F
:103C20000020034603224FF480610090364800F0E4
:103C30006FF8002003460122D1020090324800F0C4
:103C400067F8002003460122110300902E4800F07F
:103C50005FF8002003460122510300902A4800F03B
:103C600057F800200346012291030090264800F0F7
:103C70004FF8002003460122D1030090224800F0B3
:103C800047F8002003460122114600901F4800F02B
:103C90003FF8002003460122022100901B4800F05B
:103CA00037F800200346012204210090174800F055
:103CB0002FF800200346012208210090134800F04D
:103CC00027F8002003460122102100900F4800F041
:103CD0001FF8002003460122910300900B4800F0DA
:103CE00017F84FF480410948FFF786FC002003468F
:103CF0000122D1030090054800F00AF84FF400417A
:103D00000248FFF779FC08BD001402400018024089
:103D10002DE9FC4106460C4615469846089F00943E
:103D20008DF8045003208DF8050000208DF8060062
:103D300001208DF8070069463046FFF7E7FBBDE834
:103D4000FC81000070B506463048007800285BD141
:103D50002F480068B0F5006F02D100202C490860A0
:103D60002B4800682B490968884203D10020274965
:103D7000087070BD2648006826490968884206D93F
:103D800023480068C0F500602349086006E0214828
:103D900000681F490968401A1F4908601E480068EA
:103DA000402811D91A48008885B240241848006874
:103DB00040301749086018480068403816490860C4
:103DC00001201249087018E01148008885B2124895
:103DD000008884B20E4800680F49096808440C49FD
:103DE000086000200C490860402C03D102200749DC
:103DF000087002E00120054908700848421923466E
:103E000081213046FEF79AFB00BFB2E7280100206F
:103E1000200100201C01002024010020E6260020B3
:103E200000BFFEE770B500F017F94FF4807113483A
:103E3000FFF7E0FB80241CE04FF400710F48FFF710
:103E4000D0FB08B9A54300E02543C820FFF7AAFA34
:103E50004FF480710948FFF7CFFBC820FFF7A2FAA3
:103E60004FF480710548FFF7C5FBC820FFF79AFAA9
:103E70006410002CE0D1284670BD00000004024010
:103E800010B500F001F94FF480710F48FFF7B2FB55
:103E9000C820FFF787FA4FF400710B48FFF7AAFB21
:103EA000C820FFF77FFA4FF480710748FFF7A4FBA3
:103EB000C820FFF777FA4FF480710348FFF79AFBA9
:103EC000C820FFF76FFA10BD0004024070B5054628
:103ED00000F0DAF8C820FFF765FA802421E004EA50
:103EE000050028B94FF400710F48FFF783FB04E089
:103EF0004FF400710C48FFF77FFBC820FFF752FA20
:103F00004FF480710848FFF777FBC820FFF74AFAA3
:103F10004FF480710448FFF76DFBC820FFF742FAA9
:103F20006410002CDBD170BD0004024010B500F01D
:103F3000ABF84FF480710F48FFF75CFBC820FFF728
:103F400031FA4FF400710B48FFF756FBC820FFF71A
:103F500029FA4FF480710748FFF74EFBC820FFF79E
:103F600021FA4FF480710348FFF744FBC820FFF7A4
:103F700019FA10BD0004024010B500F085F84FF4A6
:103F800080710E48FFF738FB4FF400710B48FFF7C4
:103F900033FBC820FFF706FA4FF400710748FFF71C
:103FA00029FBC820FFF7FEF94FF480710348FFF7A3
:103FB00021FBC820FFF7F6F910BD00000004024005
:103FC00010B500F061F84FF480710E48FFF712FB56
:103FD0004FF400710B48FFF70DFBC820FFF7E2F923
:103FE0004FF480710748FFF707FBC820FFF7DAF9A5
:103FF0004FF400710348FFF7FFFAC820FFF7D2F92A
:1040000010BD00000004024010B541F2883400F0F9
:1040100023F805E0601E80B2041E01D1012010BD0E
:104020004FF400710B48FFF7DCFA0028F2D14FF48F
:1040300080710848FFF7E0FAC820FFF7B3F94FF4A2
:1040400080710448FFF7D6FAC820FFF7ABF90020CB
:10405000E5E70000000402401CB54FF4007000903A
:1040600000208DF8040003208DF8050000208DF855
:10407000060001208DF8070069460248FFF746FA5E
:104080001CBD0000000402401CB54FF400700090FD
:1040900001208DF8040003208DF8050000208DF824
:1040A000060001208DF8070069460248FFF72EFA46
:1040B0001CBD00000004024000B587B0FCF748FCBE
:1040C0004FF440304FF480714A01CB00CDE9023209
:1040D000CDE90410282000210D4B0E4ACDE9001037
:1040E0000D48FFF765F901210B48FEF7FDFE0121A0
:1040F00008484C38FCF77FFB012106484C38FCF798
:104100006FFB04484C38FCF707FC07B000BD00000B
:10411000142500204C200140106402400120034976
:10412000C870F12049680870704700002400002022
:1041300030B50B46002100BF16E00A24B4EB107F17
:1041400005D9302404EB107403F8114005E0412434
:1041500004EB10740A3C03F81140000100254C00E8
:10416000641C1D554C1CE1B29142E6DB30BD00BF22
:10417000FEE730B505460C4622460021284600F0F1
:1041800001F830BD2DE9F04105460B469446002765
:10419000002402E03F021F43641C042CFAD3604653
:1041A00005F00306294646B1344603E001F8013B19
:1041B000401E641C08B1042CF8D30A4601E080C2FA
:1041C000001F0428FBD2114602E001F8013B401E0B
:1041D0000028FAD1BDE8F0817047000070B50021D9
:1041E00000230F22C4781CB3174C246804F4E06445
:1041F000C4F5E064C4F30721C1F10404E3B20A4149
:1042000044789C40E1B28478144021430C07210E8D
:104210000E4C05786155047804F01F050124AC406C
:1042200005786D11AD0005F1E025C5F8004109E004
:10423000047804F01F050124AC40054D0678761182
:1042400045F8264070BD00000CED00E000E400E001
:1042500080E100E002490143024A1160704700001A
:104260000000FA050CED00E0024A0A400243024B4E
:104270001A60704780FFFF1F08ED00E070B52DED5C
:10428000088B0446204607F0DDFF41EC1B0B9FED39
:104290000F0B53EC102B07F0E9FF41EC1A0B9FEDCD
:1042A0000D0B53EC102B07F001FE41EC190B9FEDA9
:1042B0000B0B53EC102B08F0D7F841EC180B07F060
:1042C0007DFF85B22846BDEC088B70BD3333333398
:1042D00033333D4000000000000059400000000062
:1042E00000E0734008B54FF4E060FFF7B3FF3420FF
:1042F0008DF8000000208DF8010002208DF80200EA
:1043000001208DF803006846FFF768FF0F208DF845
:10431000000000208DF801008DF8020001208DF8CA
:1043200003006846FFF75AFF08BD704710B5034801
:10433000006810B101480068804710BD04020020E9
:1043400070B5044600F0C2F800204849087048499A
:104350000870484908704849086048490860484959
:104360000870484908704849087048490860484939
:1043700008604849086048490870484800680A21B0
:10438000B0FBF1F0464908604648006858B146481D
:10439000056845B14348066803E0761E00202860A2
:1043A0002D1D002EF9D100204049086040490860C9
:1043B0004049086040490860404908604049086039
:1043C000404908604049087002F0F2FD02F0D2FE58
:1043D000204601F03DFF208800B170BD204602F06C
:1043E0001DFB208800B1F8E7204602F023FB20885F
:1043F00000B1F2E7204602F01FFC208800B1ECE794
:10440000204602F005FE208800B1E6E7204603F0D2
:1044100025F8208800B1E0E7204603F03FFB208824
:1044200000B1DAE7204602F065FA208800B1D4E74F
:10443000204602F07FF8208800B1CEE7204604F045
:10444000BDFA208800B1C8E7204603F071FA208841
:1044500000B1C2E7204604F029FB208800B1BCE788
:1044600001F020FEFFF761FF00BFB6E71802002051
:104470001902002060020020D0020020D402002097
:10448000460200204702002048020020540200207B
:10449000580200205C02002068020020C0C600080C
:1044A0006402002090C600088CC60008F8010020B5
:1044B000FC0100200002002004020020080200206D
:1044C0000C0200201002002096020020064800681E
:1044D0000649096800EB8100054908600846006844
:1044E00020F00700086070478CC6000890C60008DE
:1044F000D802002008480078012800D070470748FB
:104500000078FA2800DBF9E704480078401C0349EA
:10451000087000BFF2E70000190200201802002016
:1045200010B500242D480078012800D010BD00BF30
:10453000FBF7CCFE044600BF2948007828B900BF2D
:104540002046FBF7C7FE00BFF0E725480078401E75
:104550002349087008460078002805DD00BF204682
:10456000FBF7B8FE00BFE1E71E480078002805DD34
:1045700000BF2046FBF7AEFE00BFD7E702F004FD08
:10458000194908700846007800EB4000174951F8B7
:1045900020001749086008460068164909688842E3
:1045A00005D100BF2046FBF795FE00BFBEE71048CF
:1045B0000068D0F88C00401C0D490968C1F88C00D7
:1045C0000D480068401C0C490860FCF7A5F800BFC6
:1045D0002046FBF77FFE00BF00BFA7E719020020BF
:1045E000180200206002002047020020044400203E
:1045F000D4020020D00200208C0200202DE9F041DE
:1046000004460E461546002729480078002804DD98
:1046100042F6E1602880BDE8F0811CB945F6C35040
:104620002880F8E700BF00BF00BFFBF74FFE07463A
:1046300000BF00BF1F480078401C1E49087000BF23
:1046400000BF3846FBF746FE00BF00BF00BF1A4858
:10465000206066600020206284F82500A06240206F
:1046600084F8240004F1080002F09DFB204602F0CB
:10467000CBFA12480088401C1049088000BF00BFD8
:1046800000BFFBF723FE074600BF00BF09480078C4
:10469000401E0849087000BF00BF3846FBF71AFEED
:1046A00000BF00BF00BF0020288000BFB3E70000AC
:1046B00018020020600200204D555458440200208A
:1046C0002DE9F04788B00546894690461C46109E65
:1046D0004FF0000AAB480078002805DD46F2AE1026
:1046E000308008B0BDE8F0871DB945F6C350308072
:1046F000F7E7B8F1000F03D0B8F5004F02D100E0A2
:1047000000BF03E045F625603080EAE700BF9E4920
:104710002868884203D045F6C4503080E1E70CB1E8
:104720000020206000BF00BFFBF7D0FD824600BF25
:1047300000BF95F82500C0B99448006828629348E6
:10474000006890F8370085F82400012085F82500DE
:104750000CB1A86A206000BF00BF5046FBF7BAFD4D
:1047600000BF00BF00203080BBE78849286A096885
:10477000884212D195F82500401C85F825000CB11F
:10478000A86A206000BF00BF5046FBF7A3FD00BF32
:1047900000BF45F282703080A3E708F4004050B1BA
:1047A00000BF00BF5046FBF795FD00BF00BF46F2BB
:1047B000B010308095E77648007800280ADD00BF09
:1047C00000BF5046FBF786FD00BF00BF46F66350B2
:1047D000308086E700BF6E480078401C6C49087046
:1047E00000BF00BF5046FBF775FD00BF00BF00BF14
:1047F0002F6A97F837006549096891F837108842A1
:1048000060DD97F8360008282AD2DFE800F00415AA
:104810001E1F17162021384602F034FD5B48006841
:1048200090F8370087F8370097F8370002F0CCFB94
:10483000384602F0C7FC44E000BF00BF53480068A0
:1048400090F8370087F837003BE000BF00BF00BF9B
:104850004E48006890F83710384602F081FA30E090
:1048600000BF00BF00BFFBF731FD824600BF00BFA5
:1048700047480078401E4649087008460078A0B9AD
:1048800044480088002809DD00BF00BF5046FBF700
:1048900021FD00BF00BF02F023FD0DE000BF00BFFF
:1048A0005046FBF717FD00BF06E000BF00BF5046B3
:1048B000FBF710FD00BF00BF00BF46F62D60308043
:1048C0000FE700BF4B4604222946684602F0C0F9B4
:1048D00000BF00BF00BFFBF7F9FC824600BF00BF6E
:1048E0002B480078401E2A49087000BF00BF504680
:1048F000FBF7F0FC00BF00BF00BF00F073F900BF82
:1049000000BFFBF7E3FC824600BF00BF1F48006802
:1049100090F8350030B101280CD002281AD00328B5
:1049200021D110E01CB119480068006C2060002003
:1049300030801CE01CB115480068006C206046F215
:10494000A910308013E00CB10020206047F2D9207C
:1049500030800CE01CB10D480068006C206045F60A
:10496000C250308003E046F62E60308000BF00BFAA
:1049700000BF00BF5046FBF7ADFC00BF00BF00BF4B
:10498000AFE60000180200204D555458D002002018
:1049900060020020240200202DE9F84F04468846DA
:1049A00015464FF0000A89480078002804DD46F2D9
:1049B0000E202880BDE8F88F1CB945F6C35028802A
:1049C000F8E7B8F1000F03D0B8F5004F02D100E0CE
:1049D00000BF03E045F625602880EBE700BF7C4977
:1049E0002068884203D045F6C4502880E2E700BF23
:1049F00000BFFBF76BFC824600BF00BF7549206A11
:104A0000096888420AD000BF00BF5046FBF762FC2D
:104A100000BF00BF45F281702880CBE700BF6E4821
:104A20000078401C6C49087000BF00BF5046FBF77F
:104A300051FC00BF00BF00BFFDF70CFB0746A7629B
:104A400094F82500401E84F8250094F825000028DD
:104A500030DD00BF00BF00BFFBF738FC824600BF5F
:104A600000BF5D480078401E5B490870084600782A
:104A7000A0B95A480088002809DD00BF00BF504691
:104A8000FBF728FC00BF00BF02F02AFC0DE000BFCE
:104A900000BF5046FBF71EFC00BF06E000BF00BF92
:104AA0005046FBF717FC00BF00BF00BF45F2837004
:104AB00028807FE704F10809B9F8080098BB0020B6
:104AC000206284F8250000BF00BF00BFFBF7FEFB9B
:104AD000824600BF00BF40480078401E3E49087033
:104AE00008460078A0B93D480088002809DD00BFCD
:104AF00000BF5046FBF7EEFB00BF00BF02F0F0FB2B
:104B00000DE000BF00BF5046FBF7E4FB00BF06E02E
:104B100000BF00BF5046FBF7DDFB00BF00BF00BF7A
:104B20000020288046E7FFE72A48006890F8370011
:104B300094F82410884219D02648006802F0A2FB9D
:104B400094F824002349096881F83700214909684D
:104B500091F8370002F038FA1E48006802F052FB64
:104B60001C48006890F837001D490870D9F800000B
:104B70008668266296F8370084F82400012084F8BD
:104B8000250000231A4631462046009702F07CF9A2
:104B900000BF00BF00BFFBF799FB824600BF00BF0C
:104BA0000D480078401E0C49087000BF00BF5046F9
:104BB000FBF790FB00BF00BF00BF08F4004008B93E
:104BC00000F010F80020288000BFF3E61802002053
:104BD0004D555458D00200206002002024020020CD
:104BE0004602002010B500241F480078002800DD90
:104BF00010BD1E480078002800DDF9E700BFFBF774
:104C000065FB044600BF02F0BFF919490870084669
:104C1000007800EB4000174951F820001649086061
:104C20000846006815490968884205D100BF20463A
:104C3000FBF750FB00BFDBE70F480068D0F88C00A3
:104C4000401C0D490968C1F88C000D480068401CE3
:104C50000B490860FBF75BFD00BF2046FBF73AFB02
:104C600000BF00BFC4E7000018020020600200205F
:104C70004702002004440020D4020020D00200207B
:104C80008C02002070B504460025184800780028E2
:104C900003DD46F66250208070BD1548007801287B
:104CA00003D045F689602080F6E712480078FA289C
:104CB00003DB45F209202080EEE700BF00BFFBF7D1
:104CC00005FB054600BF00BF0A480078401C0949A3
:104CD000087002F02FFB00BF00BF2846FBF7FAFA6E
:104CE00000BF00BF0020208000BFD5E718020020D1
:104CF00019020020600200202DE9F04105460C4613
:104D00001646002700BF00BFFBF7E0FA074600BFCA
:104D100000BF012D03D000200D49087002E00120E2
:104D20000B49087014B10B48046006E00A4800689B
:104D30000A21B0FBF1F00749086000BF00BF384608
:104D4000FBF7C8FA00BF00BF00203080BDE8F0814B
:104D50006802002064020020C0C6000870B5044646
:104D6000002520480078002803DD46F665502080A5
:104D700070BD1D480078012803D045F68960208069
:104D8000F6E71A48007818B946F664502080EFE735
:104D900000BF00BFFBF79AFA054600BF00BF1348EB
:104DA0000078401E114908700846007800280ADD86
:104DB00000BF00BF2846FBF78DFA00BF00BF46F6D4
:104DC00063502080D4E702F0C3FA00BF00BF28463A
:104DD000FBF780FA00BF00BFFFF704FF0020208030
:104DE00000BFC5E718020020190200206002002061
:104DF00010B5044612480078E8B902F0C5F8114928
:104E0000087008460078104908700E48007800EBDA
:104E100040000E4951F820000D490860084600681E
:104E20000C490860012006490870FBF75FFC43F657
:104E30009920208002E045F68A60208010BD0000A5
:104E400019020020470200204602002004440020EE
:104E5000D4020020D00200202DE9F04107464FF097
:104E6000000800BF00BFFBF731FA804600BF00BF5B
:104E700000203D4908603D4908803D4908803D4982
:104E800008603D4908603D4908603D4908603D496A
:104E9000088100BF00BF4046FBF71CFA00BF00BFFF
:104EA00000BF00BFFBF712FA804600BF00BF3648C4
:104EB000046800BF00BF4046FBF70CFA00BF00BF0C
:104EC00021E000BF00BFFBF701FA804600BF00BF32
:104ED00000207434E06320602063A061A082E0823F
:104EE0006062A062FDF7B6F82062743C04F16006CF
:104EF0000020B081D4F8B84000BF00BF4046FBF7A7
:104F0000E9F900BF00BF002CDBD100BF00BFFBF7F9
:104F1000DDF9804600BF00BF1C48056800BF00BF28
:104F20004046FBF7D7F900BF00BF12E000BF00BF4B
:104F3000FBF7CCF9804600BF00BF05F1200600203A
:104F4000B081AD6900BF00BF4046FBF7C3F900BFA9
:104F500000BF002DEAD103F099FB03F04DFE0020C5
:104F60003880BDE8F08100002C02002026020020DD
:104F700076020020880200209C020020C00200204F
:104F800058020020F8430020900200204C0200202C
:104F9000F8B5044600266946324800F08FFDBDF89A
:104FA000000018B1BDF800002080F8BD6A4600215D
:104FB000022000F0F7FDBDF8000018B1BDF80000B8
:104FC0002080F2E700BF00BFFBF780F9064600BF74
:104FD00000BF00202449086000BF00BF3046FBF737
:104FE00079F900BF00BF0025204800682049096802
:104FF000884205D91D4800681D490968B0FBF1F5D4
:1050000025B91A4800680A21B0FBF1F56A4600216B
:10501000284600F0C7FD6946124800F063FABDF863
:10502000000018B1BDF800002080BEE700BF00BF3F
:10503000FBF74CF9064600BF00BF00200D49086091
:10504000094800680C49086001200C49087000BF3D
:1050500000BF3046FBF73EF900BF00BF00202080B4
:1050600000BFA2E7B048002078020020C0C60008B8
:10507000A8C60008880200207C02002084020020CC
:1050800010B50348006810B101480068804710BDA2
:10509000080200202DE9FF4F87B004469046DDE965
:1050A0001BA5DDE91496179F002003908748007820
:1050B000002805DD47F24A1028800BB0BDE8F08FCC
:1050C0001CB947F2AD102880F7E7B8F1000F03D103
:1050D00047F24F102880F0E71EB946F62F6028806F
:1050E000EBE77B480068874203D246F630602880B1
:1050F000E3E71698B84203D346F631602880DCE730
:10510000B9F1400F03D346F273202880D5E7B9F1F7
:10511000000F06D16F48844203D046F273202880E6
:10512000CBE7B9F13F0F06D16B48844203D046F27A
:1051300073202880C1E7204602F0C0FC00202880B0
:105140000AF0010090B10AF0020078B10596002043
:10515000069008E00021059801600598001D059063
:105160000698401C06900698B842F3D3169806EBB2
:1051700080000490CDE9007A32464046049B0A99AB
:1051800000F06EFB0590C4F828800A98E062089849
:10519000206284F83790059820600498A0601998E0
:1051A0002065199818B94D480068606501E01998A4
:1051B00060651A9860606662A763A4F83CA04FF02F
:1051C000000B08E0002104F1780040F82B100BF1EF
:1051D000010000F0FF0BBBF1000FF3D004F1600001
:1051E000189901F087FC204600F082F800BF00BF4C
:1051F00000BFFBF76BF8039000BF00BF3848007892
:10520000401C3749087000BF00BF0398FBF762F8E5
:1052100000BF00BF00BF94F8370001F0D5FE204664
:1052200001F0F0FF204602F0FFFB2E480088401CF2
:105230002C4908802C48007801282DD000BF00BFE1
:1052400000BFFBF743F8039000BF00BF244800787D
:10525000401E2349087008460078A0B923480088FA
:10526000002809DD00BF00BF0398FBF733F800BF3B
:1052700000BF02F035F80DE000BF00BF0398FBF758
:1052800029F800BF06E000BF00BF0398FBF722F833
:1052900000BF00BF00BF10E700BF00BF00BFFBF7AB
:1052A00015F8039000BF00BF0D480078401E0C4960
:1052B000087000BF00BF0398FBF70CF800BF00BFE9
:1052C00000BFFFF78FFC00BFF7E6000018020020C8
:1052D000BCC6000838430020784200206402002049
:1052E0006002002094020020190200202402002005
:1052F00010B504460348006818B120460149096802
:10530000884710BDF801002070B504460D46002600
:1053100067480078002803DD47F24E10288070BDF2
:105320006448844203D147F24C102880F7E7624872
:10533000844203D147F24D102880F0E77CB900BFCA
:1053400000BFFAF7C3FF064600BF00BF5B48046812
:1053500000BF00BF3046FAF7BDFF00BF00BF00BF6F
:1053600000BF00BFFAF7B2FF064600BF00BF5448B7
:105370000078401C5249087000BF00BF3046FAF761
:10538000A9FF00BF00BF00BF94F8360008282DD247
:10539000DFE800F004090E10080A0F11204601F0A2
:1053A00071FF54E053E000BF204603F043F94EE0A4
:1053B00000BF00BF00BF94F83400082810D2DFE817
:1053C00000F004070508090A0B0600BF00BF08E04B
:1053D00000BF00BF00BF00BF204601F01CFD00E081
:1053E00000BF00BF204603F025F930E000BF00BF3A
:1053F00000BFFAF76BFF064600BF00BF30480078D9
:10540000401E2F49087008460078A0B92D48008832
:10541000002809DD00BF00BF3046FAF75BFF00BF80
:1054200000BF01F05DFF0DE000BF00BF3046FAF79E
:1054300051FF00BF06E000BF00BF3046FAF74AFF49
:1054400000BF00BF00BF46F62D60288067E700BFA1
:1054500004F1600001F02CFB204600F037F82046F4
:1054600002F0FAFA18480088401E174908802046C2
:1054700002F024FBFF2084F8360000BF00BF00BF0D
:10548000FAF724FF064600BF00BF0D480078401E13
:105490000B49087000BF00BF3046FAF71BFF00BF82
:1054A00000BF00BF00202880FFF79CFB00BF36E74D
:1054B000180200207842002038430020D00200204B
:1054C00060020020240200209402002010B504464F
:1054D0000348006818B1204601490968884710BD93
:1054E000FC0100207FB504460D46002600BF00BF2A
:1054F000FAF7ECFE064600BF00BF1CB11548006875
:1055000084420AD100BF00BF3046FAF7E3FE00BF75
:1055100000BF47F2571028807FBD00BF00BF304654
:10552000FAF7D8FE00BF00BF0B48007800280BDD5B
:10553000002000900190034602462146CDE9020575
:10554000064801F02FF8E7E72946204602F01AFC4A
:1055500000BFE1E7D002002018020020545245535A
:1055600010B504460348006818B12046014909688F
:10557000884710BD000200202DE9F04780460E4606
:1055800014461D464FF000097D480078002805DDCF
:1055900046F2AE1028800020BDE8F0871EB1B6F5B7
:1055A000004F02D100E000BF04E045F625602880EE
:1055B0000020F1E700BF0CB10020206000BF00BF59
:1055C000FAF784FE814600BF00BF6E480068406C59
:1055D000A8B36C480068406C401E6A49096848647A
:1055E00068480068476C1CB166480068006C206021
:1055F000FCF730FD63490968096C401A6149096884
:10560000C1F8A0005F480068D0F8A4005D490968AF
:10561000D1F8A010884207D25A480068D0F8A000FC
:1056200058490968C1F8A40000BF00BF4846FAF70E
:1056300051FE00BF00BF002028803846ACE7FFE7DE
:1056400006F4004058B100BF00BF4846FAF742FEDA
:1056500000BF00BF46F2B010288000209CE74A48F7
:10566000007800280BDD00BF00BF4846FAF732FE85
:1056700000BF00BF46F66350288000208CE700BFC3
:1056800041480078401C4049087000BF00BF4846B0
:10569000FAF720FE00BF00BF00BF434607220021EB
:1056A000084601F0D5FA00BF00BF00BFFAF70EFEB2
:1056B000814600BF00BF34480078401E3249087060
:1056C00000BF00BF4846FAF705FE00BF00BF00BF9D
:1056D000FFF788FA00BF00BFFAF7F8FD814600BF68
:1056E00000BF2848006890F8350020B1012826D076
:1056F000032834D12CE0FCB122480068006C206003
:10570000FCF7A8FC1F490968096C401A1D49096883
:10571000C1F8A0001B480068D0F8A4001949096826
:10572000D1F8A010884207D216480068D0F8A0002F
:1057300014490968C1F8A4000020288013E01CB1B6
:1057400010480068006C206046F2A91028800AE02A
:105750000CB10020206047F2D920288003E046F6F3
:105760002E60288000BF00BF06480068476C00BF5D
:1057700000BF4846FAF7AEFD00BF00BF38460BE752
:1057800018020020D0020020600200202DE9F0471E
:1057900005460E4617461C464FF0000A2E48007874
:1057A000002804DD47F259102080BDE8F0871EB9BB
:1057B00046F2D5202080F8E71FB946F2D520208098
:1057C000F3E700BF00BFFAF781FD824600BF00BFCC
:1057D0000DB922480568286868B900BF00BF504667
:1057E000FAF778FD00BF00BF00203060386047F254
:1057F00052102080D9E795F83C0000F0010068B90C
:1058000000BF00BF5046FAF765FD00BF00BF002093
:105810003060386047F254102080C6E700BF00BFF8
:105820005046FAF757FD00BF00BF4FF00008D5F80B
:10583000249003E009F1040908F10108D9F80000F7
:105840000028F7D0C6F80080A86BA0EB08003860ED
:105850000020208000BFA8E718020020D00200200E
:10586000F0B50446DDE9055602EB850020F007009F
:105870004FF0000C071F3846C7F800C04FF4805C9B
:10588000071F3846C7F800C04FF0150C071F3846F1
:10589000C7F800C04FF0140C071F3846C7F800C007
:1058A0004FF0130C071F3846C7F800C04FF0120C1A
:1058B000071F3846C7F800C04FF0110C071F3846C5
:1058C000C7F800C04FF0100C071F3846C7F800C0DB
:1058D0004FF0090C071F3846C7F800C04FF0080CFE
:1058E000071F3846C7F800C04FF0070C071F38469F
:1058F000C7F800C04FF0060C071F3846C7F800C0B5
:105900004FF0050C071F3846C7F800C04FF0040CD5
:10591000071F3846C7F800C04FF0030C071F384672
:10592000C7F800C04FF0020C071F3846C7F800C088
:105930004FF0010C071F3846C7F800C04FF0000CAD
:10594000071F3846C7F800C04FF0807C071F384655
:10595000C7F800C0071F38463C60DFF85CC1071F6E
:105960003846C7F800C04FF0123C071F3846C7F84A
:1059700000C04FF0033C071F3846C7F800C04FF087
:10598000023C071F3846C7F800C0071F38463B6077
:10599000071F384639604FF0310C071F3846C7F8EB
:1059A00000C04FF0300C071F3846C7F800C04FF05A
:1059B000290C071F3846C7F800C04FF0280C071FF6
:1059C0003846C7F800C04FF0270C071F3846C7F805
:1059D00000C04FF0260C071F3846C7F800C04FF034
:1059E000250C071F3846C7F800C04FF0240C071FCE
:1059F0003846C7F800C04FF0230C071F3846C7F8D9
:105A000000C04FF0220C071F3846C7F800C04FF007
:105A1000210C071F3846C7F800C04FF0200C071FA5
:105A20003846C7F800C04FF0190C071F3846C7F8B2
:105A300000C04FF0180C071F3846C7F800C04FF0E1
:105A4000170C071F3846C7F800C04FF0160C071F89
:105A50003846C7F800C04FF0113C071F3846C7F85A
:105A600000C04FF0103C071F3846C7F800C04FF089
:105A7000093C071F3846C7F800C04FF0083C071F15
:105A80003846C7F800C04FF0073C071F3846C7F834
:105A900000C04FF0063C071F3846C7F800C04FF063
:105AA000053C071F3846C7F800C04FF0043C071FED
:105AB0003846C7F800C0F0BDC57E00087FB5054672
:105AC0000C461248854203D147F25B1020807FBD0F
:105AD0000F48854203D147F25C102080F7E70D485C
