:020000040800F2
:10000000904F0020690200080D300008DD2E000826
:10001000A32F000849120008BDA10008000000003D
:10002000000000000000000000000000B77D000894
:100030009D230008000000008F030008AD7F00082A
:10004000830200088302000883020008830200087C
:10005000830200088302000883020008830200086C
:10006000830200088302000883020008830200085C
:100070008302000883020008830200085D20000854
:10008000830200086D200008830200088302000834
:10009000830200088302000883020008830200082C
:1000A000830200088302000883020008830200081C
:1000B000830200088302000883020008830200080C
:1000C00083020008830200088302000883020008FC
:1000D00083020008830200083184000883020008BC
:1000E00083020008830200088302000883020008DC
:1000F00083020008830200088302000883020008CC
:1001000083020008830200088302000883020008BB
:10011000218400088302000883020008830200088B
:10012000830200088302000883020008830200089B
:10013000830200088302000883020008830200088B
:100140008302000883020008830200087D7A000809
:10015000830200088302000883020008830200086B
:10016000830200088302000883020008830200085B
:10017000830200088302000883020008830200084B
:10018000830200088302000800F002F800F05CF827
:100190000AA090E8000C82448344AAF10107DA45E2
:1001A00001D100F051F8AFF2090EBAE80F0013F0D8
:1001B000010F18BFFB1A43F0010318475CB10000A0
:1001C0007CB100000A444FF0000C10F8013B13F022
:1001D000070408BF10F8014B1D1108BF10F8015BA0
:1001E000641E05D010F8016B641E01F8016BF9D193
:1001F00013F0080F1EBF10F8014BAD1C0C1B09D1EA
:100200006D1E58BF01F801CBFAD505E014F8016B5B
:1002100001F8016B6D1EF9D59142D6D370470000ED
:100220000023002400250026103A28BF78C1FBD8FF
:10023000520728BF30C148BF0B6070471FB50AF096
:1002400067FF1FBD10B510BD00F04BF81146FFF75A
:10025000F5FF0AF05BF900F069F803B4FFF7F2FF6D
:1002600003BC00F071F800000948804709480047C6
:10027000FEE7FEE7FEE7FEE7FEE7FEE7FEE7FEE756
:10028000FEE7FEE704480549054A064B70470000B3
:100290001D8000088901000890490020904F00202F
:1002A000904B0020904B002072B6704762B67047AA
:1002B000EFF3108072B6704780F31088704730BF3C
:1002C000704720BF7047B0FA80F0704790FAA0F0F6
:1002D000B0FA80F0704790FAA0F07047704770470E
:1002E0007047754600F02CF8AE4605006946534647
:1002F00020F00700854618B020B5FFF7C3FFBDE822
:1003000020404FF000064FF000074FF000084FF07C
:10031000000B21F00701AC46ACE8C009ACE8C0090D
:10032000ACE8C009ACE8C0098D46704710B504467A
:10033000AFF300802046BDE81040FFF78EBF0000FD
:10034000004870472C49002001491820ABBEFEE749
:10035000260002007047000022484FF6FF7101702E
:10036000002080F309882048016881F308881F482D
:100370004FF08051016062B6FEE71C484FF080519B
:100380000160704719484FF080510160704772B6A4
:10039000EFF3098050B11EF0100F08BF20ED108A56
:1003A000203880E8F00F12490968086000B511484C
:1003B00080475DF804EB104810490A7802700C4839
:1003C0000F490A680260106890E8F00F20301EF0B4
:1003D000100F08BFB0EC108A80F309884EF0040EAD
:1003E00062B6704722ED00E0CC02002004ED00E090
:1003F000C4020020B14800083A0200203B0200205D
:10040000C802002021B1826842F00102826003E04C
:10041000826822F001028260704700000021084AD1
:100420001168084A1140D0E900231A4383681A432F
:10043000C3681A431143044AC2F80413704700000A
:1004400004230140E030FCFF0020014021B182681C
:1004500042F48072826003E0826822F480728260DB
:100460007047000030B50246002000235068104C51
:1004700020400D790C6844EA0524204350609068C0
:100480000C4C2040D1E903542C438D682C434D790A
:1004900044EA450420439060D06A20F470000C7D4B
:1004A000641EE4B2234340EA0350D06230BD000032
:1004B000FFFEFFFCFDF7FFC0F0B504460D4600202F
:1004C0000021092D11DDE068A5F10A0606EB4607BB
:1004D000072606FA07F18843A5F10A0606EB460649
:1004E00003FA06F10843E0600CE0206905EB4507DC
:1004F000072606FA07F1884305EB450603FA06F1DD
:1005000008432061072A0FDA606B561E06EB860748
:100510001F2606FA07F18843561E06EB860605FAE3
:1005200006F10843606322E00D2A0FDA206BD61F24
:1005300006EB86071F2606FA07F18843D61F06EB4F
:10054000860605FA06F10843206310E0E06AA2F18E
:100550000D0606EB86071F2606FA07F18843A2F16F
:100560000D0606EB860605FA06F10843E062F0BDCB
:10057000816841F0804181607047000010B52DED29
:100580000C8B012000F060FB04460AF0BAFB41EC42
:100590001D0B9FEDFE0B53EC102B0AF0C5FB41EC3D
:1005A0001C0B9FEDFC0B53EC102B0AF0F5F941EC02
:1005B0001B0B9FEDFA0B53EC102B0AF0EDF941ECFD
:1005C0001A0B9FEDF80B53EC102B0AF0ADFB41EC2E
:1005D000190B9FEDF60B53EC102B0AF0A5FB41EC29
:1005E000180B0AF061FBF349C881022000F02CFBD4
:1005F00004460AF086FB41EC1D0B9FEDE40B53EC27
:10060000102B0AF091FB41EC1C0B9FEDE20B53EC1D
:10061000102B0AF0C1F941EC1B0B9FEDE70B53ECDB
:10062000102B0AF0B9F941EC1A0B9FEDE50B53ECD6
:10063000102B0AF079FB41EC190B9FEDDC0B53EC0E
:10064000102B0AF071FB41EC180B0AF02DFBD94975
:100650000882032000F0F8FA04460AF052FB41EC4D
:100660001D0B9FEDCA0B53EC102B0AF05DFB41EC08
:100670001C0B9FEDC80B53EC102B0AF08DF941ECCD
:100680001B0B9FEDC60B53EC102B0AF085F941ECC8
:100690001A0B9FEDC40B53EC102B0AF045FB41ECF9
:1006A000190B9FEDC20B53EC102B0AF03DFB41ECF4
:1006B000180B0AF0F9FABF494882042000F0C4FA86
:1006C00004460AF01EFB41EC1D0B9FEDB00B53ECF2
:1006D000102B0AF029FB41EC1C0B9FEDAE0B53ECE9
:1006E000102B0AF059F941EC1B0B9FEDB30B53ECA7
:1006F000102B0AF051F941EC1A0B9FEDB10B53ECA2
:10070000102B0AF011FB41EC190B9FEDA80B53ECD9
:10071000102B0AF009FB41EC180B0AF0C5FAA549A9
:100720000882052000F090FA04460AF0EAFA41EC4B
:100730001D0B9FED960B53EC102B0AF0F5FA41ECD4
:100740001C0B9FED940B53EC102B0AF025F941EC98
:100750001B0B9FED9D0B53EC102B0AF01DF941EC88
:100760001A0B9FED9B0B53EC102B0AF0DDFA41ECBA
:10077000190B9FED8E0B53EC102B0AF0D5FA41ECC0
:10078000180B0AF091FA8B494883062000F05CFAB6
:1007900004460AF0B6FA41EC1D0B9FED7C0B53ECBE
:1007A000102B0AF0C1FA41EC1C0B9FED7A0B53ECB5
:1007B000102B0AF0F1F841EC1B0B9FED830B53EC6F
:1007C000102B0AF0E9F841EC1A0B9FED810B53EC6A
:1007D000102B0AF0A9FA41EC190B9FED740B53ECA6
:1007E000102B0AF0A1FA41EC180B0AF05DFA7149DE
:1007F0008883072000F028FA04460AF082FA41ECC8
:100800001D0B9FED620B53EC102B0AF08DFA41EC9F
:100810001C0B9FED600B53EC102B0AF0BDF841EC64
:100820001B0B9FED6D0B53EC102B0AF0B5F841EC50
:100830001A0B9FED6B0B53EC102B0AF075FA41EC81
:10084000190B9FED5A0B53EC102B0AF06DFA41EC8B
:10085000180B0AF029FA5749C883082000F0F4F968
:1008600004460AF04EFA41EC1D0B9FED480B53EC89
:10087000102B0AF059FA41EC1C0B9FED460B53EC80
:10088000102B0AF089F841EC1B0B9FED530B53EC36
:10089000102B0AF081F841EC1A0B9FED530B53EC2F
:1008A000102B0AF041FA41EC190B9FED400B53EC71
:1008B000102B0AF039FA41EC180B0AF0F5F93D4912
:1008C0000884092000F0C0F904460AF01AFA41EC45
:1008D0001D0B9FED2E0B53EC102B0AF025FA41EC6B
:1008E0001C0B9FED2C0B53EC102B0AF055F841EC30
:1008F0001B0B9FED350B53EC102B0AF04DF841EC20
:100900001A0B9FED330B53EC102B0AF00DFA41EC50
:10091000190B9FED260B53EC102B0AF005FA41EC56
:10092000180B0AF0C1F9234948840A2000F08CF919
:1009300004460AF0E6F941EC1D0B9FED140B53EC55
:10094000102B0AF0F1F941EC180B9FED120B53EC50
:10095000102B0AF021F841EC1C0B9FED1B0B53EC04
:10096000102B0AF019F841EC1B0B9FED190B53ECFF
:10097000102B0AF0D9F941EC1A0B9FED0C0B53EC3C
:10098000102B0AF0D1F941EC190B31E0666666666E
:1009900066660A400000000000FEAF40E17A14AE37
:1009A00047E11040AE47E17A140E5A4000000000C3
:1009B00000005940C81B00205C8FC2F5285C054030
:1009C0007B14AE47E1AA59400000000000002E4011
:1009D0003333333333F34340F6285C8FC2F513408F
:1009E000A4703D0AD7E33D408FC2F5285CBF5C4050
:1009F0000AF05AF96A4988840B2000F025F9044668
:100A00000AF07FF941EC1D0B1FED200B53EC102B6E
:100A10000AF08AF941EC1C0B1FED220B53EC102B52
:100A200009F0BAFF41EC190B1FED150B53EC102B1D
:100A300009F0B2FF41EC180B9FED5A0B53EC102B51
:100A40000AF072F941EC1B0B1FED280B53EC102B35
:100A50000AF06AF941EC1A0B0AF026F95049C884E9
:100A60000C2000F0F1F804460AF04BF941EC1D0BA4
:100A70001FED3A0B53EC102B0AF056F941EC1C0B0E
:100A80001FED3C0B53EC102B09F086FF41EC1B0BC8
:100A90001FED330B53EC102B09F07EFF41EC1A0BCA
:100AA0001FED350B53EC102B0AF03EF941EC190BFE
:100AB0001FED420B53EC102B0AF036F941EC180BEA
:100AC0000AF0F2F8364908850D2000F0BDF804461A
:100AD0000AF017F941EC1D0B1FED540B53EC102BD2
:100AE0000AF022F941EC1C0B1FED560B53EC102BB6
:100AF00009F052FF41EC180B9FED2C0B53EC102B1F
:100B000009F04AFF41EC1B0B9FED2A0B53EC102B15
:100B10000AF00AF941EC1A0B1FED5C0B53EC102B99
:100B20000AF002F941EC190B0AF0BEF81C4948859D
:100B30000E2000F089F804460AF0E3F841EC1D0BA2
:100B40001FED6E0B53EC102B0AF0EEF841EC190B75
:100B50001FED700B53EC102B09F01EFF41EC180B2E
:100B60009FED120B53EC102B09F016FF41EC1C0B00
:100B70009FED100B53EC102B0AF0D6F841EC1B0B39
:100B80001FED760B53EC102B0AF0CEF841EC1A0B4C
:100B90000AF08AF802498885BDEC0C8B10BD000074
:100BA000C81B00207B14AE47E1FA2D400000000076
:100BB00000002440000000000000344030B58BB03D
:100BC00004460D461D48844203D10121801506F0DC
:100BD000BBFF1B48844203D10121401506F0B4FF3E
:100BE0001848844203D10121001506F0ADFF002012
:100BF00007904FF480300890002009904FF4706007
:100C00000A9007A8FFF70AFC0020019001208DF848
:100C100008008DF80900002003904FF070600490E8
:100C2000002005908DF8185001A92046FFF71AFC06
:100C300001212046FFF7E6FB0BB030BD002001404C
:100C40000021014000220140F0B58AB00346002493
:100C500000210BE0C1EBC1001B4E06EB8006581EC5
:100C600036F810002DF81100481CC1B21429F1DB30
:100C700000211AE0002212E03DF81260501C3DF8FD
:100C80001000864209DD3DF81250501C3DF810005E
:100C90002DF81200501C2DF81050501CC2B2C1F19A
:100CA00013009042E8DC481CC1B21429E2DB0221A7
:100CB00004E03DF811000444481CC1B21229F8DBDD
:100CC000C4F30F100AB0F0BDC822002010B51B48B5
:100CD000408841F64C5188422FDD18484088B0F5D5
:100CE0007A7F2ADA15488088884226DD1348808872
:100CF000B0F57A7F21DA11484089B0F5FA7F1CDD22
:100D00000E484089FA2818DA0C488089B0F5FA7F35
:100D100013DD0A488089FA280FDA0849488800F06C
:100D20006AF80649888800F050F80449488900F0BC
:100D300041F80249888900F03DF810BDC81B002029
:100D400010B51B48408841F64C5188422FDD1848A9
:100D50004088B0F57A7F2ADA15488088884226DDF7
:100D600013488088B0F57A7F21DA1148C08888421C
:100D70001DDD0F48C088B0F5FA7F18DA0C480089ED
:100D8000884214DD0A480089B0F5FA7F0FDA084975
:100D9000488800F030F80649888800F016F80449C1
:100DA000C88800F037F80249088900F019F810BD2A
:100DB000C81B002070B50446204606F06DFE0546AF
:100DC000E9B2012001F01CFA70BD70B5044620465E
:100DD00009F002FB0546E9B2012001F06DFA70BD91
:100DE00070B50446204609F0F7FA0546E9B202203C
:100DF00001F062FA70BD70B50446204609F030FB80
:100E000005462946002000F089FB0121002000F062
:100E1000A5FB70BD70B50446204609F021FB0546D0
:100E20002946002000F08AFB0121102000F096FBEB
:100E300070BD00000EB51BE00E480078012804D1FB
:100E400000200C490870FFF77BFF0A484078012812
:100E500004D1002007494870FFF738FF02A8082195
:100E600032230022CDE900101146104603F0EAFDBE
:100E7000E2E70000C81B002000B58BB00AA80321E0
:100E800000220592CDE90621089010464FF48071AA
:100E90001922074BCDE90132CDE9031005200023CB
:100EA000044A05A10090084802F0BEFF0BB000BD47
:100EB00040120020350E00084170705F41646A5690
:100EC0006F6C5F5461736B00801100200EB50FE0F2
:100ED0004FF48061074801F0EDFB02A808214FF4B0
:100EE000FA730022CDE900101146104603F0AAFD66
:100EF000EEE70000000C024000B58BB00AA8032109
:100F000000220592CDE90621089010464FF4807129
:100F10001922074BCDE90132CDE90310032000234C
:100F2000044A05A10090084802F07EFF0BB000BD06
:100F300080080020CD0E00084170705F4C65645F32
:100F40005461736B00000000C007002010B586B02C
:100F5000002400F07BF905A802F0E4FE05AA0121B7
:100F6000084602F093FD00BF00BF00BFFFF7A0F9E5
:100F7000044600BF00BF2D480078401C2B49087074
:100F800000BF00BF2046FFF797F900BF00BF00BFBA
:100F9000FFF7B2FF00F0F8F8FFF76EFF00F09AF8E5
:100FA00005A80021224A0223CDE90032CDE9021032
:100FB00001231A461FA1244803F064FE05A9224814
:100FC00003F0BAFE05A9214803F042FC00BF00BFB0
:100FD00000BFFFF76DF9044600BF00BF134800785B
:100FE000401E1249087008460078A0B918480088C9
:100FF000002809DD00BF00BF2046FFF75DF900BFF4
:1010000000BF05F037F80DE000BF00BF2046FFF736
:1010100053F900BF06E000BF00BF2046FFF74CF9C0
:1010200000BF00BF00BF06B010BD0000540200208A
:10103000FDA400085379735F537461746543686B52
:101040005F546D720000000090030020D002002069
:101050001802002000B58BB00AA8032100220592D7
:10106000CDE90621089010464FF480711922074BF4
:10107000CDE90132CDE903101E200023044A05A169
:101080000090084802F0D0FE0BB000BDC003002065
:101090004D0F00084170705F53746172745F54614A
:1010A000736B0000D00200200EB511E0BDF80800FF
:1010B00007F014F8BDF8080007F01CF902A8082191
:1010C0000A230022CDE900101146104603F0BAFCB5
:1010D000ECE7000000B58BB00AA8032100220592BE
:1010E000CDE90621089010464FF480711922074B74
:1010F000CDE90132CDE9031008200023044A05A1FF
:101100000090084802F090FE0BB000BD00170020D0
:10111000A91000085379734F6E4F66665461736B64
:1011200054636200401600200EB523E009F094F8E5
:10113000B0B111480068C1B2104806F09FFD012807
:101140000BD100F0D5F80E4801F0FAF90C48C07840
:10115000811D0C48C2680A48904700200649086073
:1011600002A80821C8230022CDE90010114610462C
:1011700003F068FCDAE7000070000020622600201F
:10118000800C00207C00002000B58BB00AA8032151
:1011900000220592CDE90621089010464FF4807197
:1011A0001922074BCDE90132CDE9031004200023B9
:1011B000044A05A10090084802F036FE0BB000BDBD
:1011C000800D0020291100084170705F5573625F27
:1011D0005461736B00000000C00C00201FB568460E
:1011E00006F0C2FC019804B010BD000008B5002153
:1011F0004FF0006001F052FF01F05AFF01F002FBD6
:101200000D480E4B0E4A012100900E4807F093FC4A
:1012100006F0D6FE00F0F4F801F0C2F806F042FE47
:1012200009F050F801F05CFE002001F0A1F8102058
:1012300001F09EF808BD0000E80000202801002011
:10124000900000200C1C002000BFFEE710B500F04D
:101250001FF800F019F810BD10B5002400BF00BF42
:10126000FFF726F8044600BF00BF1021054801F033
:101270009AFE00BF00BF2046FFF71EF800BF00BF68
:1012800010BD0000A22E002010B5FFF7E5FF10BD35
:1012900010B500200249086000F00AF810BD0000F7
:1012A000E00100200149086070470000E0010020D3
:1012B00010B5FFF793FF04460848006840F08070BF
:1012C000064908600020064948600846006840F06A
:1012D000010008602046FFF7E5FF10BDFCED00E0CF
:1012E000001000E00149486870470000001000E06D
:1012F00000B50D48807830B1012807D0022808D009
:1013000003280CD108E001F057FA0BE001F036FA9F
:1013100008E001F003FA05E001F0D0F902E001F085
:1013200017FE00BF00BF00BD1800002010B540F23E
:1013300024412D4807F0A8F818B340F224412A4868
:1013400007F07EF8284800882748001D0088002103
:10135000264800F0C7FE2649244800F08FFE2348A7
:1013600000F0CBFEC0F10400224908710846006875
:101370001E494039C8640420486401211B4800F01C
:10138000B1FE40F224411C4807F07EF850B340F211
:101390002441194807F054F8174800881648001DE2
:1013A000008800211148483000F09CFE10490F4889
:1013B000483000F063FE0D48483000F09EFEC0F15A
:1013C00004000E4908710846006808495431086055
:1013D000042006494039C1F88C00012103484830F7
:1013E00000F080FE10BD0000004C00404060024054
:1013F0002000002040000020004400405000002059
:1014000000B585B04FF4E131294808F0D9FE00223B
:1014100040F22551264807F061F8002240F227717A
:10142000234807F05BF8012240F22441204807F0EE
:1014300055F8012240211E4807F01DF801228021A5
:101440001B4807F018F84FF4403000210191029139
:10145000CDE90310042000901648154A121D5106CC
:101460000368154801F002F84FF440300021019163
:101470000291CDE903100420009010480C4A121D7F
:10148000510603680C48183000F0F0FF01210A48AB
:1014900000F028FE00210848183000F023FE012249
:1014A00010210548183000F05FFE05B000BD0000B7
:1014B0000044004050000020886002405800002096
:1014C00039B1084A1268012383401A43054B1A6058
:1014D00006E0044A1268012383409A43014B1A60D4
:1014E000704700000074004030B5002200230A4C11
:1014F000226840F6FE748440A243D1E900452C43A3
:101500008D682C43CD6844EA050303FA00F42243B6
:10151000014C226030BD00000074004008B500227C
:101520000092054A009200F10802009B1A440092C2
:10153000009A116008BD00000074004008B5002248
:101540000092054A009200F11402009B1A44009296
:10155000009A116008BD00000074004010B541B150
:10156000084A126804090123A3401A43054B1A6074
:1015700007E0044A126804090123A3409A43014B7F
:101580001A6010BD0474004070B506460C4604F0A5
:101590008000802808D104F07F0000EB800106F570
:1015A0008E7000EBC10507E004F07F0000EB8001C6
:1015B00006F55D7000EBC10504F07F00287004F0B3
:1015C0008000C00968702946304608F088FA00207B
:1015D00070BD70B506460C4604F08000802808D126
:1015E00004F07F0000EB800106F58E7000EBC10572
:1015F00005E004EB840106F55D7000EBC1050020F9
:10160000A87004F07F002870C4F3C01068702946E9
:10161000304608F03CFA002070BD2DE9F041064646
:101620000D4690461F4605F08000802808D105F041
:101630007F0000EB800106F58E7000EBC10407E02F
:1016400005F07F0000EB800106F55D7000EBC10442
:1016500005F07F00207005F08000C0096070C4F8BC
:101660000880E770607808B12078E080022F01D10F
:10167000002020712146304608F0BDF90020BDE869
:10168000F0812DE9F04105460E461746984606F0D2
:101690007F0000EB800105F55D7000EBC104E760A1
:1016A000C4F814800020A061607006F07F002070F4
:1016B000E878012800D12761207820B92146284602
:1016C00008F0BDF803E02146284608F087FA00201C
:1016D000BDE8F08108B500220092009A61F30A1279
:1016E000009202691268009B1A4303691A6008BDE0
:1016F00070B506460C4604F08000802808D104F03E
:101700007F0000EB800106F58E7000EBC10505E05F
:1017100004EB840106F55D7000EBC1050120A870A3
:1017200004F07F002870C4F3C0106870294630466A
:1017300008F022FA002070BD2DE9F04107460D4661
:101740001646984605F07F0000EB800107F58E7085
:1017500000EBC1040120607005F07F002070E6609E
:1017600026610020A061C4F81480207820B92146A9
:10177000384608F064F803E02146384608F02EFAAF
:101780000020BDE8F081000030B587B00546594C17
:10179000284608F01AF801A806F0E6F9029CE86865
:1017A000C0680590059820F4705005900598E96888
:1017B000C860284608F0E4FB03280BD10020A8707D
:1017C0004FF40070A880059820F4705000F5105078
:1017D00005907EE00120A8704020A8804648844201
:1017E00009D34648844206D2059820F4705000F58B
:1017F000605005906DE04148844209D340488442DE
:1018000006D2059820F4705000F55050059060E025
:101810003B48844209D33B48844206D2059820F4D1
:10182000705000F54050059053E03648844209D38B
:101830003548844206D2059820F4705000F53050A7
:10184000059046E03048844209D33048844206D2AD
:10185000059820F4705000F52050059039E02B4891
:10186000844209D32A48844206D2059820F4705055
:1018700000F5105005902CE02548844209D32548F6
:10188000844206D2059820F4705000F5005005906F
:101890001FE02048844209D31F48844206D205989D
:1018A00020F4705000F5E050059012E01A48844290
:1018B00009D31A48844206D2059820F4705000F5E6
:1018C000C050059005E0059820F4705000F5A05038
:1018D00005900598E968C86000200690069820F4F5
:1018E000005000F5005006900698E9684861012014
:1018F00007B030BD007A030AC0E1E4000024F40020
:10190000E0EC040100C31801002D310140A44C019A
:1019100000366E0140E2950180C3C90160600B0290
:10192000F8B50546002400200090284608F069FB21
:10193000064681E006F0010000287BD0E1B228468F
:1019400000F00CFB0090009800F0010030B3012083
:1019500000FA04F72869406BB843296948630020FE
:101960000090009820F00100401C009005F1180044
:1019700050F8240000998160E1B232480068426862
:1019800028469047E878012808D13CB940F2111068
:10199000405D042802D1284607F0FCFF0098C0F300
:1019A000C00060B100200090009820F008000830CE
:1019B000009005F1180050F824000099816000980B
:1019C000C0F3001060B100200090009820F01000DB
:1019D0001030009005F1180050F824000099816043
:1019E0000098C0F3801060B100200090009820F0B3
:1019F00040004030009005F1180050F82400009994
:101A000081600098C0F3400060B100200090009811
:101A100020F00200801C009005F1180050F824000E
:101A2000009981600098C0F3C01018B12146284683
:101A300000F0BEFA641C7608002E7FF47BAF012014
:101A4000F8BD0000CC0100207CB504460025002034
:101A50000190204608F0DDFA06466FE006F001002E
:101A6000002869D0E9B2204608F0DBFA019001981D
:101A700000F00100C8B300200190019820F001009F
:101A8000401C019004F1540050F825000199816038
:101A9000E078012817D104F1540050F825000069BE
:101AA000009005EB850104F55D7000EBC1008068D6
:101AB0000099C1F31201411A05EB850204F55D702E
:101AC00000EBC2008161E9B21E480068026820464E
:101AD0009047E078012808D13DB940F21110005D2F
:101AE000052802D1204607F055FF0198C0F34000B9
:101AF00060B100200190019820F00200801C01904C
:101B000004F1540050F82500019981600198C0F358
:101B1000C00088B10B4800688168204688470020D3
:101B20000190019820F008000830019004F1540061
:101B300050F82500019981606D1C7608002E8DD12A
:101B400001207CBDCC0100203EB50446A07A78B1CE
:101B5000D4F80C0100680090009820F0020000907A
:101B6000009820F0010000900099D4F80C01016069
:101B700000200190019820F00100401C0190206994
:101B80004068019988432169486009480068816973
:101B90002046884700200290029820F0004000F183
:101BA000004002900298E168486101203EBD0000BB
:101BB000CC0100207CB5044600200190019820F063
:101BC000100010300190E068806901998843E16855
:101BD0008861E068006A0090009800F00F0000EB58
:101BE000800104F55D7000EBC1050098C0F343402F
:101BF00007282DD2DFE800F02C04051D1E2C1F0045
:101C000027E00098C0F30A1090B10098C0F30A12C0
:101C10002046E96808F00FFAE8680099C1F30A1154
:101C20000844E860A8690099C1F30A110844A86152
:101C30000FE00EE00DE0082204F2CC51204608F03F
:101C4000FAF9A8690099C1F30A110844A86100E0F3
:101C500000BF00BFE068806901990843E1688861BE
:101C600001207CBD38B5044608480068C16820469C
:101C7000884700200090009820F00800083000906D
:101C80000098E1684861012038BD0000CC010020C7
:101C90001FB50446002000904FF48970005D00904D
:101CA0002348006841692046884720698068019080
:101CB00000200390039820F4006000F5006003907A
:101CC0000398E1684861A07A70B3019800F00100C0
:101CD00050B340F21510005D012825D19DF8000099
:101CE000032821D100200290029820F00100401C1E
:101CF0000290D4F80C01006802990843D4F80C1142
:101D00000860029820F00200801C0290D4F80C01B8
:101D1000006802990843D4F80C110860054800686F
:101D200040F0060003490860012004B010BD000027
:101D3000CC01002010ED00E030B587B00446002053
:101D4000029006900590049003900190029820F074
:101D50000100401C02902069406802998843216973
:101D600048600021204608F0E1F800250BE0FF2143
:101D700004F1180050F82500816004F1540050F877
:101D8000250081606D1C6078A842F0D84FF0FF31CB
:101D90002069816106986FF30F00401C0690069839
:101DA00080B200F58030069006992069C1610598DF
:101DB00020F0080008300590059820F00100401C34
:101DC0000590059820F00200801C05900599206977
:101DD0004161049820F00100401C0490049820F018
:101DE000080008300490049820F00200801C049041
:101DF000049920690161206900680390039820F428
:101E0000FE600390039920690160204607F0C2FD3F
:101E100000200190019820F4805000F5805001903E
:101E20000198E168486104480068016920468847D4
:101E3000012007B030BD0000CC0100202DE9F041A9
:101E400006460F463946304608F00AF901214FF49C
:101E5000897081550021801C8155002511E005EB1A
:101E6000850106F58E7000EBC104012060702570BD
:101E7000E5800020E0704020A0600020E06060610C
:101E80006D1C7078A842EAD8002510E005EB8501AA
:101E900006F55D7000EBC104002060702570E580E0
:101EA000E0704020A0600020E06060616D1C7078F0
:101EB000A842EBD8304607F077FC304607F0A7FA87
:101EC0000021304608F034F9304607F02DFB30464B
:101ED00007F0F5FFBDE8F08138B50446002000901A
:101EE00007480068C16920468847009820F48010A0
:101EF00000F5801000900098E1684861012038BD2D
:101F0000CC01002038B50446002000900748006846
:101F1000016A20468847009820F4001000F5001060
:101F200000900098E1684861012038BDCC01002094
:101F300038B50446E068406800900098C0F380001F
:101F400020B105480068816A204688470098E1680A
:101F50004860012038BD0000CC01002030B50246A9
:101F600015692B6915696C6B24FA01F505F00105FB
:101F700043EAC51302F1180555F82150AD6805EA8A
:101F8000030030BD38B5044608480068416A204661
:101F9000884700200090009820F0804000F18040A9
:101FA00000900098E1684861012038BDCC01002014
:101FB0002DE9F84306460F4600250020009007EB68
:101FC000870106F58E7000EBC104D4E90501451ABE
:101FD000A068A84200D2A568E81C4FEA900806F164
:101FE000180050F827008069009029E0D4E9050125
:101FF000451AA068A84200D2A568E81C4FEA9008DC
:10200000ABB2FAB23046E16808F0B9F8E0682844AB
:10201000E060A0692844A06106F1180050F827008C
:1020200080690090D4E90501884209D12178012016
:1020300000FA01F93069406B20EA09003169486310
:10204000009880B2404506D9D4E90510884202D2F2
:1020500060690028CAD10120BDE8F88310B501F0FD
:1020600013F900F041FA01F025F910BD10B501F0A7
:102070000BF900F039FA01F01DF910BD0246094BC9
:102080009A4201D2084801E00648103801F0005396
:102090001BB1064B0B40C36002E0044B0B40836056
:1020A0007047000010640240006002407D0F7D0F09
:1020B0000246094B9A4201D2084801E0064810380E
:1020C00001F000531BB1064B0B40C36002E0044B10
:1020D0000B408360704700001064024000600240C3
:1020E0007D0F7D0F21B1026842F00102026003E022
:1020F000026822F00102026070470146486880B21F
:102100007047000070B50246002000240025124EE2
:10211000B24201D2114B01E00F4B103B104E0E406A
:1021200036B11E2606EAD124166806EA040502E046
:10213000566906F0800501F000560EB15C6800E0BB
:102140001C68084E344004EA010616B10DB10120A6
:1021500000E0002070BD00001064024000600240FA
:102160003C0F3C0F7D0F7D0F10B501F080034BB18C
:1021700022B1436943F08003436103E0436923F0E4
:102180008003436180290BD02AB1036801F01E044B
:102190002343036004E0036801F01E04A3430360CB
:1021A00010BD000010B500220268134B1A40CC6825
:1021B0000B6823434C6923438C692343CC69234335
:1021C0000C6A23434C6A23438C6A23434C6B23439E
:1021D0008C6B23431A430260426922F00702D1E963
:1021E0000B3423431A4342610B6943604B6883609D
:1021F0008B68C36010BD00003F801CF041607047D9
:1022000070B504460D46012C27D18103284800F003
:102210004DFA4DF20101274805F0B5FD4FF47A6003
:1022200000F01EF9A103224800F042FA4FF4FA60D0
:1022300000F016F9A1031E4800F038FA4FF44040B0
:1022400040EA05111B4805F09EFD4FF47A6000F04E
:1022500007F9A103164800F02BFA022C26D16103DE
:10226000134800F023FA4DF20101124805F08BFDEE
:102270004FF47A6000F0F4F861030D4800F018FAAA
:102280004FF4FA6000F0ECF86103094800F00EFA30
:10229000600340EA0511074805F075FD4FF47A60C8
:1022A00000F0DEF86103024800F002FA70BD0000A1
:1022B00000040240003C004070B504460D46012C6D
:1022C00027D14103284800F0F1F94DF201012748D8
:1022D00005F059FD4FF47A6000F0C2F8610322481E
:1022E00000F0E6F94FF4FA6000F0BAF861031E4816
:1022F00000F0DCF94FF4404040EA05111B4805F0BE
:1023000042FD4FF47A6000F0ABF86103164800F02C
:10231000CFF9022C26D12103134800F0C7F94DF262
:102320000101124805F02FFD4FF47A6000F098F893
:1023300021030D4800F0BCF94FF4FA6000F090F86A
:102340002103094800F0B2F9600340EA051107488B
:1023500005F019FD4FF47A6000F082F8210302487D
:1023600000F0A6F970BD000000040240003C0040EF
:102370001FB504460121480705F0D6FB3C2000901C
:102380000020019002900220039069462046FFF74A
:10239000ABF801212046FFF793F81FBD70470000FE
:1023A00000B585B04FF4E131294807F009FF00225C
:1023B00040F22551264806F091F8002240F227719C
:1023C000234806F08BF8012240F22441204806F011
:1023D00085F8012240211E4806F04DF80122802197
:1023E0001B4806F048F84FF440300021019102915B
:1023F000CDE90310042000901648154A121D51061D
:102400000368154800F032F84FF440300021019184
:102410000291CDE903100420009010480C4A121DCF
:10242000510603680C48303000F020F801210A48BA
:10243000FFF758FE002108483030FFF753FE012215
:10244000102105483030FFF78FFE05B000BD0000B9
:10245000004C004040000020406002404800002046
:1024600000BF411E89B2081EFBD170472DE9F04F15
:102470008FB004460D4616461F46DDE91AABDDE96E
:1024800018891848844204D20121480505F02CFB24
:1024900003E00121880505F027FB009501960297CE
:1024A00000200390CDF8108005904FF480600690D6
:1024B000CDF81C90CDF820A0CDF824B01C980A903F
:1024C00000200B9003200C9000200D900E90694688
:1024D0002046FFF767FE00212046FFF703FE0FB0FE
:1024E000BDE8F08F0064024010B513491348FFF7B0
:1024F00009FE58B100211148FFF7F4FD04210F48EF
:10250000FFF77CFE0C490D48FFF7D2FD0A490B4846
:102510003030FFF7F7FD70B1002108483030FFF789
:10252000E1FD042105483030FFF768FE0249034809
:102530003030FFF7BDFD10BD20000020706002406C
:1025400010B500221E4949781D4B9B7819441C4B3D
:10255000DB7819441A4B197200BF09E01849097A4F
:10256000174B5B689B5C1944154B1972511CCAB21E
:102570001349C9789142F1DC114909780170104979
:10258000497841700E49897881700D49C978C170C8
:10259000002105E00A4B5B685C5C0B1DC454491CC0
:1025A000074BDB788B42F5DC05490B7AC978091DAE
:1025B000435403494B7AC978491D435410BD000068
:1025C00024000020F0B50A4600210023002400BFAB
:1025D0003DE0012505FA01F3156805EA03049C4274
:1025E00034D105684F000326BE40B5430560157918
:1025F0004E00B5400668354305601579012D02D0BF
:102600001579022D16D185684F000326BE40B543CB
:10261000856055794E00B5408668354385604568CC
:1026200001268E40B5434560456896798E40B6B226
:1026300035434560C5684F000326BE40B543C560BD
:10264000D5794E00B540C6683543C560491C102990
:10265000BFD3F0BDF0B5002300244D07ED0E02FA04
:1026600005F3CE1000F1200555F826504E07F70E61
:102670000F26BE40B543CF1000F1200646F8275084
:10268000CE1000F1200555F8265045EA0304CE107F
:1026900000F1200545F82640F0BD024600201369F0
:1026A0000B400BB1012000E00020704741837047D0
:1026B0000183704742694A404261704701201549D1
:1026C000487015484068407813494968097840EADD
:1026D00001201049488010484068C0780E49496878
:1026E000897840EA01200B4988800B48406840798E
:1026F00009494968097940EA0120064948810648A4
:102700004068C07904494968897940EA0120014953
:1027100088817047C81B002018000020012015493F
:10272000087015484068407813494968097840EABC
:1027300001201049488010484068C0780E49496817
:10274000897840EA01200B4988800B48406840792D
:1027500009494968097940EA01200649C8800648C4
:102760004068C07904494968897940EA01200149F3
:10277000C8807047C81B00201800002013200B4998
:10278000C870084640680A490A6802604A684260A0
:102790000A890281897A81720448406805490A6879
:1027A00040F80B2F4968416070470000240000206A
:1027B000040000200F000020002004498870012040
:1027C000C87000204968087070470000240000208D
:1027D00070B50A480468001D0568001D0668344489
:1027E00054B108220649204600F0BCFB04220449EB
:1027F0001031284600F0B6FB70BD0000107AFF1FB4
:10280000CE00002008B501217F2005F06DF90121DF
:10281000080705F089F9012005F038F9002005F0D6
:1028200017FA002005F032F908220021FE48FFF7D0
:1028300011FF08220121FC48FFF70CFF002003468E
:10284000022201210090F84800F0C0FA002003465F
:10285000022211460090F44800F0B8FA0020034626
:10286000022204210090F04800F0B0FA0020034654
:10287000022208210090EC4800F0A8FA0220002370
:10288000032210210090E84800F0A0FA0220002363
:10289000032220210090E44800F098FA002003462B
:1028A000012211020090E04800F090FA012000237C
:1028B000024601460090DD4800F088FA00200346F9
:1028C000012240210090D94800F080FA0020034600
:1028D000012280210090D54800F078FA00200346BC
:1028E000012211020090D14800F070FA0020034646
:1028F000012251020090CD4800F068FA0120002327
:10290000024641030090C94800F060FA012000230C
:10291000024681030090C54800F058FA00200346A3
:10292000032201210090C24800F050FA0020034623
:10293000032202210090BE4800F048FA002003461E
:10294000032204210090BA4800F040FA0020034618
:10295000032208210090B64800F038FA0020034610
:10296000032220210090B24800F030FA00200346F4
:10297000012251020090AE4800F028FA06220A21F6
:10298000AB48FFF767FE012000230222810200907E
:10299000A74800F01BFA06220B21A548FFF75AFEB4
:1029A000012000230222C1020090A14800F00EFA8B
:1029B00006220C219E48FFF74DFE01200023022233
:1029C000010300909A4800F001FA0020034601221A
:1029D00051030090964800F0F9F94FF400519448E3
:1029E000FFF766FE00200346012291030090904805
:1029F00000F0ECF94FF480418D48FFF759FE0020BC
:102A000003460122D1030090894800F0DFF900203D
:102A10000346012202210090864800F0D7F90020E9
:102A20000346012204210090824800F0CFF90421DE
:102A30008048FFF73DFE0020034601220821009058
:102A40007C4800F0C3F908217A48FFF731FE0020E6
:102A50000346012210210090764800F0B7F91021BA
:102A60007448FFF725FE072205217248FFF7F2FDA3
:102A7000072206216F48FFF7EDFD002003460222E2
:102A8000202100906B4800F0A1F9002003460222AB
:102A900040210090674800F099F900200346012288
:102AA00080210090634800F091F980216148FFF790
:102AB000FFFD002003460122110200905D4800F056
:102AC00085F94FF480715B48FFF7F2FD0020034663
:102AD000012251020090574800F078F94FF400713C
:102AE0005448FFF7E5FD00200346012291020090C3
:102AF000504800F06BF9002003460122D1020090FB
:102B00004C4800F063F900200346012211030090B5
:102B1000484800F05BF94FF480514648FFF7C8FD84
:102B200000200346012251030090424800F04EF974
:102B3000002003460122910300903E4800F046F930
:102B40000020034602464FF400410090394800F04F
:102B50003DF900200346024601210090364800F06E
:102B600035F9022000231A4601460090324800F051
:102B70002DF9002003460122042100902E4800F088
:102B800025F9002003460246082100902A4800F05B
:102B90001DF900200346024610210090264800F04F
:102BA00015F900200346024620210090224800F03B
:102BB0000DF9002003460122110200901E4800F08A
:102BC00005F90020034602464FF4007100901A48B0
:102BD00000F0FCF800200346012291020090164804
:102BE00000F0F4F84FF480611348FFF761FD002016
:102BF00003460122D10200900F4800F0E7F80020C0
:102C0000034602464FF4805100900B4800F0DEF876
:102C10000020034602464FF400510090064800F0A1
:102C2000D5F80020034609E00000024000040240FD
:102C300000080240000C0240001002400122022164
:102C40000090604800F0C2F80020034601221146BF
:102C500000905C4800F0BAF80020034601220421ED
:102C60000090584800F0B2F80020034603220821E3
:102C70000090544800F0AAF80020034603221021D7
:102C80000090504800F0A2F80020034603222021C3
:102C900000904C4800F09AF800200346032240219F
:102CA0000090484800F092F800200346032280215B
:102CB0000090444800F08AF80020034603224FF4B5
:102CC000807100903F4800F081F800200346032205
:102CD0004FF4007100903B4800F078F80020034664
:102CE00003224FF480610090364800F06FF8002016
:102CF00003460122D1020090324800F067F800201C
:102D000003460122110300902E4800F05FF80020D6
:102D100003460122510300902A4800F057F8002092
:102D20000346012291030090264800F04FF800204E
:102D300003460122D1030090224800F047F800200A
:102D400003460122114600901F4800F03FF8002082
:102D500003460122022100901B4800F037F80020B2
:102D60000346012204210090174800F02FF80020AC
:102D70000346012208210090134800F027F80020A4
:102D800003460122102100900F4800F01FF8002098
:102D900003460122910300900B4800F017F84FF40E
:102DA00080410948FFF784FC002003460122D1033B
:102DB0000090054800F00AF84FF400410248FFF780
:102DC00077FC08BD00140240001802402DE9FC41C8
:102DD00006460C4615469846089F00948DF8045008
:102DE00003208DF8050000208DF8060001208DF8E5
:102DF000070069463046FFF7E5FBBDE8FC810000AF
:102E000070B506463048007800285BD12F4800682E
:102E1000B0F5006F02D100202C4908602B480068F3
:102E20002B490968884203D100202749087070BDEA
:102E30002648006826490968884206D92348006860
:102E4000C0F500602349086006E0214800681F497A
:102E50000968401A1F4908601E480068402811D9B7
:102E60001A48008885B24024184800684030174945
:102E70000860184800684038164908600120124967
:102E8000087018E01148008885B21248008884B2A2
:102E90000E4800680F49096808440C490860002082
:102EA0000C490860402C03D102200749087002E059
:102EB00001200549087008484219234681213046FF
:102EC000FEF73AFC00BFB2E71C010020140100200D
:102ED0001001002018010020A226002000BFFEE7FC
:102EE00000B585B000F022F801210D48FDF7AEFADB
:102EF0004FF4403000214FF400529310CDE90132DD
:102F0000CDE903101420074B054A4C3200900648C7
:102F1000FFF7ACFA01210448FFF7E4F805B000BD63
:102F200000200140F82400201064024010B5012167
:102F30000648FDF743FE072301220A210348FDF757
:102F4000BBFA0248FDF714FB10BD00000020014051
:102F500001200349C870FF204968087070470000CD
:102F60002400002030B50B46002100BF16E00A24E3
:102F7000B4EB107F05D9302404EB107403F8114032
:102F800005E0412404EB10740A3C03F811400001F1
:102F900000254C00641C1D554C1CE1B29142E6DB3F
:102FA00030BD00BFFEE730B505460C462246002185
:102FB000284600F001F830BD2DE9F04105460B46EA
:102FC00094460027002402E03F021F43641C042CA7
:102FD000FAD3604605F00306294646B1344603E0BD
:102FE00001F8013B401E641C08B1042CF8D30A46CA
:102FF00001E080C2001F0428FBD2114602E001F864
:10300000013B401E0028FAD1BDE8F0817047000066
:1030100070B5002100230F22C4781CB3174C24681C
:1030200004F4E064C4F5E064C4F30721C1F10404CE
:10303000E3B20A4144789C40E1B2847814402143D1
:103040000C07210E0E4C05786155047804F01F051D
:103050000124AC4005786D11AD0005F1E025C5F8FF
:10306000004109E0047804F01F050124AC40054D3F
:103070000678761145F8264070BD00000CED00E0A2
:1030800000E400E080E100E002490143024A1160EF
:10309000704700000000FA050CED00E0024A0A400B
:1030A0000243024B1A60704780FFFF1F08ED00E0EB
:1030B00010B54FF4C060FFF7E7FF10BD7047000088
:1030C00010B50348006810B101480068804710BD82
:1030D000F801002070B5044600F0C2F8002048490D
:1030E00008704849087048490870484908604849CC
:1030F00008604849087048490870484908704849BC
:1031000008604849086048490860484908704848CC
:1031100000680A21B0FBF1F04649086046480068A3
:1031200058B14648056845B14348066803E0761E35
:10313000002028602D1D002EF9D100204049086094
:1031400040490860404908604049086040490860BB
:1031500040490860404908604049087002F0F2FDAB
:1031600002F0D2FE204601F03DFF208800B170BD84
:10317000204602F01DFB208800B1F8E7204602F04F
:1031800023FB208800B1F2E7204602F01FFC2088D4
:1031900000B1ECE7204602F005FE208800B1E6E72A
:1031A000204603F025F8208800B1E0E7204603F030
:1031B0003FFB208800B1DAE7204602F065FA20885C
:1031C00000B1D4E7204602F07FF8208800B1CEE7B6
:1031D000204604F0BDFA208800B1C8E7204603F07D
:1031E00071FA208800B1C2E7204604F029FB20884C
:1031F00000B1BCE701F020FEFFF760FF00BFB6E7BB
:103200000C0200200D02002054020020C402002005
:10321000C80200203A0200203B0200203C020020AD
:10322000480200204C020020500200205C020020D6
:103230007CB10008580200204CB1000848B10008D9
:10324000EC010020F0010020F4010020F801002032
:10325000FC01002000020020040200208A0200205D
:10326000064800680649096800EB810005490860C6
:103270000846006820F007000860704748B1000861
:103280004CB10008CC02002008480078012800D08A
:10329000704707480078FA2800DBF9E7044800780F
:1032A000401C0349087000BFF2E700000D02002037
:1032B0000C02002010B500242D480078012800D011
:1032C00010BD00BFFCF7F4FF044600BF294800789A
:1032D00028B900BF2046FCF7EFFF00BFF0E7254804
:1032E0000078401E2349087008460078002805DD54
:1032F00000BF2046FCF7E0FF00BFE1E71E48007872
:10330000002805DD00BF2046FCF7D6FF00BFD7E749
:1033100002F004FD194908700846007800EB4000EF
:10332000174951F8200017490860084600681649F7
:103330000968884205D100BF2046FCF7BDFF00BFE9
:10334000BEE710480068D0F88C00401C0D490968A1
:10335000C1F88C000D480068401C0C490860FDF75E
:1033600011F800BF2046FCF7A7FF00BF00BFA7E78A
:103370000D0200200C020020540200203B0200201D
:10338000C0430020C8020020C402002080020020A8
:103390002DE9F04104460E461546002729480078DD
:1033A000002804DD42F6E1602880BDE8F0811CB908
:1033B00045F6C3502880F8E700BF00BF00BFFCF708
:1033C00077FF074600BF00BF1F480078401C1E491A
:1033D000087000BF00BF3846FCF76EFF00BF00BF9B
:1033E00000BF1A48206066600020206284F8250033
:1033F000A062402084F8240004F1080002F09DFB44
:10340000204602F0CBFA12480088401C1049088080
:1034100000BF00BF00BFFCF74BFF074600BF00BF67
:1034200009480078401E0849087000BF00BF3846B0
:10343000FCF742FF00BF00BF00BF0020288000BF94
:10344000B3E700000C020020540200204D555458F0
:10345000380200202DE9F04788B00546894690469D
:103460001C46109E4FF0000AAB480078002805DD8E
:1034700046F2AE10308008B0BDE8F0871DB945F6C1
:10348000C3503080F7E7B8F1000F03D0B8F5004F14
:1034900002D100E000BF03E045F625603080EAE796
:1034A00000BF9E492868884203D045F6C45030804A
:1034B000E1E70CB10020206000BF00BFFCF7F8FE80
:1034C000824600BF00BF95F82500C0B99448006847
:1034D00028629348006890F8370085F8240001209E
:1034E00085F825000CB1A86A206000BF00BF5046D7
:1034F000FCF7E2FE00BF00BF00203080BBE7884938
:10350000286A0968884212D195F82500401C85F880
:1035100025000CB1A86A206000BF00BF5046FCF730
:10352000CBFE00BF00BF45F282703080A3E708F4F5
:10353000004050B100BF00BF5046FCF7BDFE00BFC9
:1035400000BF46F2B010308095E77648007800283A
:103550000ADD00BF00BF5046FCF7AEFE00BF00BF53
:1035600046F66350308086E700BF6E480078401C06
:103570006C49087000BF00BF5046FCF79DFE00BFBD
:1035800000BF00BF2F6A97F837006549096891F8B6
:103590003710884260DD97F8360008282AD2DFE825
:1035A00000F004151E1F17162021384602F034FDC6
:1035B0005B48006890F8370087F8370097F83700C5
:1035C00002F0CCFB384602F0C7FC44E000BF00BF6D
:1035D0005348006890F8370087F837003BE000BF99
:1035E00000BF00BF4E48006890F83710384602F020
:1035F00081FA30E000BF00BF00BFFCF759FE8246F1
:1036000000BF00BF47480078401E46490870084682
:103610000078A0B944480088002809DD00BF00BF39
:103620005046FCF749FE00BF00BF02F023FD0DE04D
:1036300000BF00BF5046FCF73FFE00BF06E000BFE2
:1036400000BF5046FCF738FE00BF00BF00BF46F683
:103650002D6030800FE700BF4B46042229466846A4
:1036600002F0C0F900BF00BF00BFFCF721FE824698
:1036700000BF00BF2B480078401E2A49087000BFD9
:1036800000BF5046FCF718FE00BF00BF00BF00F0AF
:1036900073F900BF00BFFCF70BFE824600BF00BFFE
:1036A0001F48006890F8350030B101280CD002287E
:1036B0001AD0032821D110E01CB119480068006C11
:1036C0002060002030801CE01CB115480068006CB0
:1036D000206046F2A910308013E00CB10020206079
:1036E00047F2D92030800CE01CB10D480068006C16
:1036F000206045F6C250308003E046F62E603080F0
:1037000000BF00BF00BF00BF5046FCF7D5FD00BFA3
:1037100000BF00BFAFE600000C0200204D5554581A
:10372000C402002054020020180200202DE9F84FA6
:103730000446884615464FF0000A8948007800285C
:1037400004DD46F20E202880BDE8F88F1CB945F64E
:10375000C3502880F8E7B8F1000F03D0B8F5004F48
:1037600002D100E000BF03E045F625602880EBE7CA
:1037700000BF7C492068884203D045F6C4502880A9
:10378000E2E700BF00BFFCF793FD824600BF00BF29
:103790007549206A096888420AD000BF00BF5046B8
:1037A000FCF78AFD00BF00BF45F281702880CBE79F
:1037B00000BF6E480078401C6C49087000BF00BF15
:1037C0005046FCF779FD00BF00BF00BFFDF78AFD42
:1037D0000746A76294F82500401E84F8250094F857
:1037E0002500002830DD00BF00BF00BFFCF760FDF2
:1037F000824600BF00BF5D480078401E5B490870EC
:1038000008460078A0B95A480088002809DD00BFA2
:1038100000BF5046FCF750FD00BF00BF02F02AFC7D
:103820000DE000BF00BF5046FCF746FD00BF06E0BC
:1038300000BF00BF5046FCF73FFD00BF00BF00BF08
:1038400045F2837028807FE704F10809B9F8080081
:1038500098BB0020206284F8250000BF00BF00BF95
:10386000FCF726FD824600BF00BF40480078401E9E
:103870003E49087008460078A0B93D4800880028F5
:1038800009DD00BF00BF5046FCF716FD00BF00BFBA
:1038900002F0F0FB0DE000BF00BF5046FCF70CFD4E
:1038A00000BF06E000BF00BF5046FCF705FD00BFAB
:1038B00000BF00BF0020288046E7FFE72A480068D5
:1038C00090F8370094F82410884219D026480068F0
:1038D00002F0A2FB94F824002349096881F837001C
:1038E0002149096891F8370002F038FA1E4800684B
:1038F00002F052FB1C48006890F837001D49087020
:10390000D9F800008668266296F8370084F824000B
:10391000012084F8250000231A46314620460097EE
:1039200002F07CF900BF00BF00BFFCF7C1FC82467B
:1039300000BF00BF0D480078401E0C49087000BF52
:1039400000BF5046FCF7B8FC00BF00BF00BF08F442
:10395000004008B900F010F80020288000BFF3E60E
:103960000C0200204D555458C4020020540200207F
:10397000180200203A02002010B500241F480078E9
:10398000002800DD10BD1E480078002800DDF9E7A2
:1039900000BFFCF78DFC044600BF02F0BFF91949D7
:1039A00008700846007800EB4000174951F82000E5
:1039B000164908600846006815490968884205D11B
:1039C00000BF2046FCF778FC00BFDBE70F4800682B
:1039D000D0F88C00401C0D490968C1F88C000D48D6
:1039E0000068401C0B490860FCF7C7FC00BF20467C
:1039F000FCF762FC00BF00BFC4E700000C0200201F
:103A0000540200203B020020C0430020C8020020D6
:103A1000C40200208002002070B50446002518482A
:103A20000078002803DD46F66250208070BD1548FE
:103A30000078012803D045F689602080F6E7124817
:103A40000078FA2803DB45F209202080EEE700BF6A
:103A500000BFFCF72DFC054600BF00BF0A480078F8
:103A6000401C0949087002F02FFB00BF00BF284628
:103A7000FCF722FC00BF00BF0020208000BFD5E77C
:103A80000C0200200D020020540200202DE9F0411C
:103A900005460C461646002700BF00BFFCF708FC91
:103AA000074600BF00BF012D03D000200D4908705C
:103AB00002E001200B49087014B10B48046006E0D5
:103AC0000A4800680A21B0FBF1F00749086000BF0E
:103AD00000BF3846FCF7F0FB00BF00BF002030807D
:103AE000BDE8F0815C020020580200207CB1000893
:103AF00070B50446002520480078002803DD46F60E
:103B00006550208070BD1D480078012803D045F61F
:103B100089602080F6E71A48007818B946F66450A4
:103B20002080EFE700BF00BFFCF7C2FB054600BFE7
:103B300000BF13480078401E1149087008460078FD
:103B400000280ADD00BF00BF2846FCF7B5FB00BF18
:103B500000BF46F663502080D4E702F0C3FA00BFEE
:103B600000BF2846FCF7A8FB00BF00BFFFF704FF1B
:103B70000020208000BFC5E70C0200200D020020BD
:103B80005402002010B5044612480078E8B902F04B
:103B9000C5F81149087008460078104908700E48A9
:103BA000007800EB40000E4951F820000D490860F4
:103BB000084600680C490860012006490870FCF7B7
:103BC000CBFB43F69920208002E045F68A602080F6
:103BD00010BD00000D0200203B0200203A02002030
:103BE000C0430020C8020020C40200202DE9F0419B
:103BF00007464FF0000800BF00BFFCF759FB8046A6
:103C000000BF00BF00203D4908603D4908803D4994
:103C100008803D4908603D4908603D4908603D49CC
:103C200008603D49088100BF00BF4046FCF744FBE7
:103C300000BF00BF00BF00BFFCF73AFB804600BFDB
:103C400000BF3648046800BF00BF4046FCF734FBA5
:103C500000BF00BF21E000BF00BFFCF729FB80468A
:103C600000BF00BF00207434E06320602063A061C7
:103C7000A082E0826062A062FDF734FB2062743CA7
:103C800004F160060020B081D4F8B84000BF00BF46
:103C90004046FCF711FB00BF00BF002CDBD100BF8A
:103CA00000BFFCF705FB804600BF00BF1C4805684D
:103CB00000BF00BF4046FCF7FFFA00BF00BF12E0A4
:103CC00000BF00BFFCF7F4FA804600BF00BF05F15B
:103CD00020060020B081AD6900BF00BF4046FCF760
:103CE000EBFA00BF00BF002DEAD103F099FB03F00F
:103CF0004DFE00203880BDE8F08100002002002049
:103D00001A0200206A0200207C020020900200209B
:103D1000B40200204C020020B443002084020020A2
:103D200040020020F8B5044600266946324800F0FB
:103D30008FFDBDF8000018B1BDF800002080F8BD6F
:103D40006A460021022000F0F7FDBDF8000018B11E
:103D5000BDF800002080F2E700BF00BFFCF7A8FA22
:103D6000064600BF00BF00202449086000BF00BF16
:103D70003046FCF7A1FA00BF00BF002520480068CC
:103D800020490968884205D91D4800681D4909680D
:103D9000B0FBF1F525B91A4800680A21B0FBF1F52E
:103DA0006A460021284600F0C7FD6946124800F027
:103DB00063FABDF8000018B1BDF800002080BEE72E
:103DC00000BF00BFFCF774FA064600BF00BF00202A
:103DD0000D490860094800680C49086001200C4939
:103DE000087000BF00BF3046FCF766FA00BF00BF96
:103DF0000020208000BFA2E76C4800206C02002059
:103E00007CB1000864B100087C0200207002002030
:103E10007802002010B50348006810B1014800681E
:103E2000804710BDFC0100202DE9FF4F87B00446FC
:103E30009046DDE91BA5DDE91496179F002003904D
:103E400087480078002805DD47F24A1028800BB02B
:103E5000BDE8F08F1CB947F2AD102880F7E7B8F144
:103E6000000F03D147F24F102880F0E71EB946F645
:103E70002F602880EBE77B480068874203D246F634
:103E800030602880E3E71698B84203D346F63160E5
:103E90002880DCE7B9F1400F03D346F27320288075
:103EA000D5E7B9F1000F06D16F48844203D046F23E
:103EB00073202880CBE7B9F13F0F06D16B488442CD
:103EC00003D046F273202880C1E7204602F0C0FCF0
:103ED000002028800AF0010090B10AF0020078B1B9
:103EE00005960020069008E00021059801600598DD
:103EF000001D05900698401C06900698B842F3D322
:103F0000169806EB80000490CDE9007A32464046D0
:103F1000049B0A9900F06EFB0590C4F828800A986B
:103F2000E0620898206284F8379005982060049831
:103F3000A06019982065199818B94D480068606507
:103F400001E0199860651A9860606662A763A4F83A
:103F50003CA04FF0000B08E0002104F1780040F88D
:103F60002B100BF1010000F0FF0BBBF1000FF3D0A1
:103F700004F16000189901F087FC204600F082F8F7
:103F800000BF00BF00BFFCF793F9039000BF00BF64
:103F900038480078401C3749087000BF00BF0398BC
:103FA000FCF78AF900BF00BF00BF94F8370001F0AA
:103FB000D5FE204601F0F0FF204602F0FFFB2E4820
:103FC0000088401C2C4908802C48007801282DD0FE
:103FD00000BF00BF00BFFCF76BF9039000BF00BF3C
:103FE00024480078401E2349087008460078A0B98C
:103FF00023480088002809DD00BF00BF0398FCF7B4
:104000005BF900BF00BF02F035F80DE000BF00BF54
:104010000398FCF751F900BF06E000BF00BF03980A
:10402000FCF74AF900BF00BF00BF10E700BF00BFA8
:1040300000BFFCF73DF9039000BF00BF0D480078BA
:10404000401E0C49087000BF00BF0398FCF734F90C
:1040500000BF00BF00BFFFF78FFC00BFF7E6000006
:104060000C02002078B10008F44200203442002005
:104070005802002054020020880200200D02002077
:104080001802002010B504460348006818B1204605
:1040900001490968884710BDEC01002070B504464D
:1040A0000D46002667480078002803DD47F24E10D1
:1040B000288070BD6448844203D147F24C102880A8
:1040C000F7E76248844203D147F24D102880F0E7B9
:1040D0007CB900BF00BFFCF7EBF8064600BF00BF8D
:1040E0005B48046800BF00BF3046FCF7E5F800BF3E
:1040F00000BF00BF00BF00BFFCF7DAF8064600BFF4
:1041000000BF54480078401C5249087000BF00BFEF
:104110003046FCF7D1F800BF00BF00BF94F836006E
:1041200008282DD2DFE800F004090E10080A0F114C
:10413000204601F071FF54E053E000BF204603F039
:1041400043F94EE000BF00BF00BF94F834000828D8
:1041500010D2DFE800F004070508090A0B0600BFCB
:1041600000BF08E000BF00BF00BF00BF204601F055
:104170001CFD00E000BF00BF204603F025F930E041
:1041800000BF00BF00BFFCF793F8064600BF00BFAA
:1041900030480078401E2F49087008460078A0B9C2
:1041A0002D480088002809DD00BF00BF3046FCF71D
:1041B00083F800BF00BF01F05DFF0DE000BF00BF4E
:1041C0003046FCF779F800BF06E000BF00BF30467C
:1041D000FCF772F800BF00BF00BF46F62D602880D4
:1041E00067E700BF04F1600001F02CFB204600F0FF
:1041F00037F8204602F0FAFA18480088401E17499E
:104200000880204602F024FBFF2084F8360000BF1F
:1042100000BF00BFFCF74CF8064600BF00BF0D48CA
:104220000078401E0B49087000BF00BF3046FCF705
:1042300043F800BF00BF00BF00202880FFF79CFBB1
:1042400000BF36E70C02002034420020F442002078
:10425000C40200205402002018020020880200201E
:1042600010B504460348006818B1204601490968A2
:10427000884710BDF00100207FB504460D4600269A
:1042800000BF00BFFCF714F8064600BF00BF1CB11A
:104290001548006884420AD100BF00BF3046FCF7D1
:1042A0000BF800BF00BF47F2571028807FBD00BF4A
:1042B00000BF3046FCF700F800BF00BF0B48007895
:1042C00000280BDD002000900190034602462146A5
:1042D000CDE90205064801F02FF8E7E72946204618
:1042E00002F01AFC00BFE1E7C40200200C0200202B
:1042F0005452455310B504460348006818B120468F
:1043000001490968884710BDF40100202DE9F047F4
:1043100080460E4614461D464FF000097D48007841
:10432000002805DD46F2AE1028800020BDE8F087A9
:104330001EB1B6F5004F02D100E000BF04E045F623
:10434000256028800020F1E700BF0CB1002020602C
:1043500000BF00BFFBF7ACFF814600BF00BF6E4847
:104360000068406CA8B36C480068406C401E6A4905
:104370000968486468480068476C1CB16648006872
:10438000006C2060FCF7AEFF63490968096C401AB5
:1043900061490968C1F8A0005F480068D0F8A4002E
:1043A0005D490968D1F8A010884207D25A480068D0
:1043B000D0F8A00058490968C1F8A40000BF00BFA8
:1043C0004846FBF779FF00BF00BF00202880384631
:1043D000ACE7FFE706F4004058B100BF00BF484615
:1043E000FBF76AFF00BF00BF46F2B0102880002034
:1043F0009CE74A48007800280BDD00BF00BF484614
:10440000FBF75AFF00BF00BF46F66350288000202C
:104410008CE700BF41480078401C4049087000BF4D
:1044200000BF4846FBF748FF00BF00BF00BF434640
:1044300007220021084601F0D5FA00BF00BF00BFE7
:10444000FBF736FF814600BF00BF34480078401EAE
:104450003249087000BF00BF4846FBF72DFF00BF80
:1044600000BF00BFFFF788FA00BF00BFFBF720FFC7
:10447000814600BF00BF2848006890F8350020B191
:10448000012826D0032834D12CE0FCB12248006852
:10449000006C2060FCF726FF1F490968096C401A70
:1044A0001D490968C1F8A0001B480068D0F8A400A5
:1044B00019490968D1F8A010884207D21648006847
:1044C000D0F8A00014490968C1F8A4000020288091
:1044D00013E01CB110480068006C206046F2A9107F
:1044E00028800AE00CB10020206047F2D920288003
:1044F00003E046F62E60288000BF00BF0648006833
:10450000476C00BF00BF4846FBF7D6FE00BF00BFA8
:1045100038460BE70C020020C402002054020020A1
:104520002DE9F04705460E4617461C464FF0000A97
:104530002E480078002804DD47F259102080BDE89D
:10454000F0871EB946F2D5202080F8E71FB946F261
:10455000D5202080F3E700BF00BFFBF7A9FE82460D
:1045600000BF00BF0DB922480568286868B900BFC0
:1045700000BF5046FBF7A0FE00BF00BF0020306028
:10458000386047F252102080D9E795F83C0000F0DF
:10459000010068B900BF00BF5046FBF78DFE00BFA9
:1045A00000BF00203060386047F254102080C6E71A
:1045B00000BF00BF5046FBF77FFE00BF00BF4FF0BB
:1045C0000008D5F8249003E009F1040908F1010876
:1045D000D9F800000028F7D0C6F80080A86BA0EB3F
:1045E000080038600020208000BFA8E70C020020EF
:1045F000C4020020F0B50446DDE9055602EB850053
:1046000020F007004FF0000C071F3846C7F800C025
:104610004FF4805C071F3846C7F800C04FF0150CF8
:10462000071F3846C7F800C04FF0140C071F384664
:10463000C7F800C04FF0130C071F3846C7F800C07A
:104640004FF0120C071F3846C7F800C04FF0110C8E
:10465000071F3846C7F800C04FF0100C071F384638
:10466000C7F800C04FF0090C071F3846C7F800C054
:104670004FF0080C071F3846C7F800C04FF0070C72
:10468000071F3846C7F800C04FF0060C071F384612
:10469000C7F800C04FF0050C071F3846C7F800C028
:1046A0004FF0040C071F3846C7F800C04FF0030C4A
:1046B000071F3846C7F800C04FF0020C071F3846E6
:1046C000C7F800C04FF0010C071F3846C7F800C0FC
:1046D0004FF0000C071F3846C7F800C04FF0807C31
:1046E000071F3846C7F800C0071F38463C60DFF890
:1046F0005CC1071F3846C7F800C04FF0123C071FC7
:104700003846C7F800C04FF0033C071F3846C7F8CB
:1047100000C04FF0023C071F3846C7F800C0071F13
:1047200038463B60071F384639604FF0310C071F91
:104730003846C7F800C04FF0300C071F3846C7F89E
:1047400000C04FF0290C071F3846C7F800C04FF0D3
:10475000280C071F3846C7F800C04FF0270C071F6A
:104760003846C7F800C04FF0260C071F3846C7F878
:1047700000C04FF0250C071F3846C7F800C04FF0A7
:10478000240C071F3846C7F800C04FF0230C071F42
:104790003846C7F800C04FF0220C071F3846C7F84C
:1047A00000C04FF0210C071F3846C7F800C04FF07B
:1047B000200C071F3846C7F800C04FF0190C071F20
:1047C0003846C7F800C04FF0180C071F3846C7F826
:1047D00000C04FF0170C071F3846C7F800C04FF055
:1047E000160C071F3846C7F800C04FF0113C071FD2
:1047F0003846C7F800C04FF0103C071F3846C7F8CE
:1048000000C04FF0093C071F3846C7F800C04FF002
:10481000083C071F3846C7F800C04FF0073C071F89
:104820003846C7F800C04FF0063C071F3846C7F8A7
:1048300000C04FF0053C071F3846C7F800C04FF0D6
:10484000043C071F3846C7F800C0F0BD596C00088B
:104850007FB505460C461248854203D147F25B10EE
:1048600020807FBD0F48854203D147F25C10208035
:10487000F7E70D48007800280BDD0020009001903C
:10488000034602462946CDE90204084800F054FDDB
:10489000E7E72146284602F04DFC00BFE1E70000B3
:1048A00034420020F44200200C020020545355539F
:1048B00010B51D48006810B11B4800688047FCF720
:1048C00011FD04461948006819490968884215D045
:1048D00016480068D0F89400201A14490968C1F8F5
:1048E000900012480068D0F8980010490968D1F883
:1048F000901008440D490968C1F898000C480068F8
:10490000C0F8944009480068D0F8B0000949096827
:10491000884205D20748006804490968C1F8B00018
:1049200000200449086010BD00020020C4020020DD
:10493000C8020020500200202DE9F04105460E4635
:10494000144600273C480078002804DD47F2752013
:104950002080BDE8F08139480078002803DD46F664
:1049600063502080F5E736B1022E05D0042E0AD020
:10497000082E09D101E000BF00BF1DB947F27E201B
:104980002080E6E704E003E045F625602080E0E7CC
:1049900000BF00BF00BF00BFFBF78AFC074600BF97
:1049A00000BF26480078401C2449087000BF00BFA3
:1049B0003846FBF781FC00BF00BF00BF23463246EC
:1049C00029461F48006802F0A1FC2088A8B100BF5A
:1049D00000BF00BFFBF76CFC074600BF00BF1748D5
:1049E0000078401E1549087000BF00BF3846FBF72D
:1049F00063FC00BF00BF00BFABE71148006801F0D7
:104A00000BFB00BF00BF00BFFBF752FC074600BF17
:104A100000BF0A480078401E0849087000BF00BF68
:104A20003846FBF749FC00BF00BF00BFFEF7A4FFFC
:104A30000020208000BF8CE70C02002054020020E0
:104A4000C40200202DE9FF5F05460E461746984632
:104A5000DDE90EA40020009070480078002804DDF5
:104A600047F275202080BDE8FF9F6D480078002840
:104A700003DD46F663502080F5E70AF00E0BBBF12C
:104A8000000F09D0BBF1020F07D0BBF1040F10D00B
:104A9000BBF1080F0ED101E000BF00BFB8F1000F5D
:104AA00006D12FB926B91DB947F27E202080DAE75A
:104AB00004E003E045F625602080D4E700BF2AF03B
:104AC0001E0008B1012000E0002003900398012897
:104AD00003D145F625602080C5E7CAF30010029097
:104AE0000298C0B9B8F57A7F03D347F27B202080C3
:104AF000B9E73B2F03DD47F27A202080B3E73B2E56
:104B000003DD47F279202080ADE7632D12DD47F207
:104B100078202080A7E742F20F70864203DD47F23B
:104B2000792020809FE7B5F57A7F03DB47F2782074
:104B3000208098E73B48D0F800904FF4FA70B0FB23
:104B4000F9F0404400FB09F04FF47A71B0FBF1F149
:104B50004FF461606843C6EB061200EB82003844F4
:104B600000FB091001900198002851D000BF00BF40
:104B700000BFFBF79DFB009000BF00BF28480078F6
:104B8000401C2749087000BF00BF0098FBF794FB4A
:104B900000BF00BF00BF23465A4623480199006862
:104BA00002F0B4FB2088A8B100BF00BF00BFFBF734
:104BB0007FFB009000BF00BF19480078401E1849D5
:104BC000087000BF00BF0098FBF776FB00BF00BF76
:104BD00000BF48E71448006801F01EFA00BF00BF9C
:104BE00000BFFBF765FB009000BF00BF0C480078DA
:104BF000401E0B49087000BF00BF0098FBF75CFB2C
:104C000000BF00BF00BFFEF7B7FE0020208002E01B
:104C100047F27E20208000BF25E700000C02002024
:104C2000540200207CB10008C402002010B586B0F8
:104C300000F01EF8FCF756FB044605A80021009181
:104C4000CDE9011403900748007800EB4000064AC4
:104C500002EB800100231A46044800F06DFB06B009
:104C600010BD00003A020020C04300205449434BCD
:104C700010B50348006810B101480068804710BDB6
:104C8000040200202DE9F05F0446884616461F46C0
:104C9000DDE90BABDDF828900D9D24480078002855
:104CA00004DD47F243302880BDE8F09F1CB945F68B
:104CB000C3502880F8E7B9F1010F08D0B9F1020F0D
:104CC0000BD11FB947F240302880EDE709E01EB94B
:104CD00047F23F302880E7E703E045F6256028806B
:104CE000E2E700BF02F046FE012084F826001048EB
:104CF0002060C4F80480E6610020A0612762A4F867
:104D00002490C4F808A0C4F80CB02061606120466B
:104D100002F082FD07480088401C0649088002F026
:104D2000A3FE0020288000BFBEE700000C02002088
:104D3000544D5220B00200202DE9F04104460D46AA
:104D40004FF0000838480078002805DD47F243306E
:104D500028800020BDE8F08124B947F24230288045
:104D60000020F7E731492068884204D045F6C45056
:104D700028800020EEE794F82600002847D001287C
:104D800018D0022802D0032846D114E000BF00BF8B
:104D9000FBF78EFA804600BF00BFE069A06100BF4C
:104DA00000BF4046FBF788FA00BF00BF0020288004
:104DB000012636E000BF02F0DDFD022084F8260067
:104DC000E06910B9206AA06101E0E069A0611848BB
:104DD000006840B90020206160611548046001202E
:104DE000144908800DE0124807680068206100201F
:104DF00060617C610E4804600E480088401C0D49CB
:104E0000088002F031FE00202880012609E047F2E8
:104E10003D302880002604E047F2413028800026FB
:104E200000BF00BF304695E70C020020544D5220D1
:104E3000AC020020A8020020244A2549254A264A1F
:104E40002649274A2748284A284A294A294A2A48D7
:104E50002A482B482B4A2C482C4A2D482D4A2E48AC
:104E60002E482F482F48304A304A314A3148324A7A
:104E7000324A334833483448344835483548364850
:104E8000364A374A374A384A3848394839483A4A18
:104E90003A4A3B4A3B483C483C483D493D483E4AEB
:104EA0003E4A3F4A3F4A404A404A414A4148424AB4
:104EB000424A43484348444A444A4548454A464A88
:104EC0004648474800BF00BF00BF7047B0B1000868
:104ED00014B30008B1B10008B2B10008B4B10008C1
:104EE000B8B10008BCB10008B9B10008E4B10008CD
:104EF000E5B10008E6B10008E8B10008EAB1000831
:104F0000ECB10008EEB10008F0B1000810B20008E2
:104F100012B2000814B2000816B2000818B2000855
:104F20001AB200081CB2000848B2000849B20008D2
:104F30004AB200084CB200084EB200084FB2000856
:104F400050B2000852B2000854B2000856B200082D
:104F500058B200085AB200085CB200088CB20008CF
:104F60008DB200088EB200088FB2000890B200081F
:104F700092B2000894B20008BCB20008BDB20008AA
:104F8000BEB20008BFB20008C0B20008C2B200083A
:104F9000C4B20008C8B20008C9B20008CAB200080A
:104FA000CBB20008CCB20008CDB20008CEB20008E7
:104FB000CFB20008D0B20008D2B20008D3B20008C5
:104FC000D4B20008D6B20008D8B20008D9B200089E
:104FD000DCB200080CB300080DB300080EB30008E3
:104FE00010B300080021034A1160034A11800180B8
:104FF0007047000024020020280200202DE9F04F15
:1050000085B00446894692469B46DDF838800020EC
:10501000009000BF00BFFBF74BF9009000BF00BF3E
:10502000BAF1000F0AD0BAF1010F0DD0BAF5004F56
:1050300005D06FF40040504460B906E000BF206A1C
:1050400040EA0900206214E000BF206A20EA09005B
:1050500020620EE000BF00BF0098FBF72DF900BFF3
:1050600000BF45F62560A8F80000002005B0BDE8A7
:10507000F08F00BFC4F824B004F10800019001983B
:10508000008958B900BF00BF0098FBF715F900BFB1
:1050900000BF0020A8F80000206AE7E700BF5E48D4
:1050A0000078401C5C49087000BF00BF0098FBF707
:1050B00003F900BF00BF00BF01980768BD6879E031
:1050C0007868029095F8840000F00F000390039830
:1050D00001281ED0022829D0042802D0082830D167
:1050E0000CE0206AE96F00EA0106E86FB04204D1E3
:1050F0005A463146284600F093F855E0206AE96F99
:1051000000EA010626B15A463146284600F088F8E2
:105110004AE0E86F216A20EA0106E86FB04204D154
:105120005A463146284600F07BF83DE0E86F216A98
:1051300020EA010626B15A463146284600F070F8AA
:1051400032E000BF00BF00BFFBF7B2F8009000BF25
:1051500000BF31480078401E2F490870084600788B
:10516000A0B92E480088002809DD00BF00BF0098C4
:10517000FBF7A2F800BF00BF00F07CFF0DE000BF0E
:1051800000BF0098FBF798F800BF06E000BF00BF23
:105190000098FBF791F800BF00BF00BF43F6FF2067
:1051A000A8F80000002061E700BF029F0FB1BD68B2
:1051B00000E00025002D83D100BF00BF00BFFBF73A
:1051C00077F8009000BF00BF13480078401E1249D6
:1051D000087000BF00BF0098FBF76EF800BF00BF6B
:1051E00000BF0AF4004008B9FEF7C6FB00BF00BFCD
:1051F000FBF75EF8009000BF00BF206A049000BF7C
:1052000000BF0098FBF758F800BF00BF0020A8F8C7
:10521000000004982AE70000540200201802002031
:1052200070B504460E4615463434E66400206070BE
:105230002070E560A078343C08281DD2DFE800F03B
:10524000040508090706171800BF00BF00BF14E0D7
:1052500000BF94F83600032802D1204602F0B4F8CB
:10526000204600F063FE002084F8360005E000BF11
:10527000042084F8360000E000BF00BF204600F0A4
:1052800094FC70BD002419E000BF00BFFBF710F8CC
:10529000044600BF00BF0A480068401C0849086077
:1052A00008480068401C0749086000BF00BF20464E
:1052B000FBF702F800BF00BFFDF702FFE4E70000C4
:1052C000080200206C02002010B58AB004460020BD
:1052D0000E4908600B2000210591CDE907040691D5
:1052E00008460B4909680B4A12680B4B1B68CDE94D
:1052F0000132CDE903103F200023084A08A10090A5
:105300000C48FEF791FD0AB010BD00000802002015
:1053100024B1000820B100081CB100088552000823
:1053200075432F4F532D4949492049646C652054DA
:1053300061736B00344200202DE9F84F04460D469E
:1053400016461F46DDE90BABDDF82890DDF834800A
:105350000020009000BF00BFFAF7AAFF009000BF36
:1053600000BF2B4800882B49098888423EDA28482C
:105370000088401C26490880274800880988884200
:1053800003DA234800882449088024480068046020
:1053900022480068856021480068C6601F48006890
:1053A00007821E480068C0F814901C480068A0F8E6
:1053B00018A01A480068C0F81CB018480068406877
:1053C000164908600120164908811648086048609F
:1053D000002000F0C3FC1448007818B1124800788F
:1053E000124908700020A8F8000008E01048008862
:1053F000401C0F49088044F25360A8F8000000BF29
:1054000000BF0098FAF758FF00BF00BFBDE8F88F53
:105410001802002030B100081A02002010020020FB
:10542000C0430020F44200203A0200203C02002049
:105430001C0200203EB5594800680068584A811A8D
:10544000904279D00FDC5749084400283ED0564995
:105450000844A8B155490844002860D0544908447C
:1054600000286AD13FE053480844002850D05249F0
:105470000844002862D0514908440028F1D110E0C6
:1054800002A8464D00902D68EB69444D2D682A8B8B
:10549000424D2D686969414D2D68A868FFF7AEFD42
:1054A0007AE002A93D480068C0693C4DCDE90001A1
:1054B0002D682B8B394D2D682A8A384D2D68E96867
:1054C000364D2D68A86800F079FC65E0334B1B6809
:1054D000DA69324B1B68198B304B1B68986802AB3A
:1054E00000F092FE58E002A92C480068C0692B4DDC
:1054F000CDE900012D682B8B284D2D682A8A274D78
:105500002D68E968254D2D68A86801F0FFF943E092
:1055100022490968886802A901F0FEFA3CE01F4BA5
:105520001B68DA691D4B1B68198B1C4B1B6898683C
:1055300002AB01F09DFB2FE007E02CE01749096862
:10554000886802A901F0F6FD26E01D49097801EB03
:1055500041011C4A02EB810000F0E2FD0F480068A7
:1055600002AB0021C269184801F082FB17480068AD
:10557000401E164908600846006858B9144800687B
:105580000860FBF7AFFE044602AB2246002111483B
:1055900001F06EFB00E000BF00BF3EBD1402002022
:1055A0005449434BADBAB2BE0DF90BFAF2F8F7FF0E
:1055B0000006F6FF00F7FDF700FFEFFF03FE0FFE0A
:1055C0003C020020C043002080470020C002002091
:1055D000BC0200206C48002000274CE0002648E078
:1055E00000BF00BFFAF764FE074600BF00BF2248B5
:1055F000008888B90020214908810860486000F0CF
:10560000BFFB00BF00BF3846FAF756FE00BF00BF21
:10561000FEF7B2F901262CE000BF00BF3846FAF7CA
:105620004BFE00BF00BFFBF75DFE0546FFF702FF24
:10563000FBF758FE441B12480068A04201D21048F4
:10564000046000BF00BFFAF733FE074600BF00BF8B
:105650000C48006840680B49086007480088401EF5
:105660000549088000BF00BF3846FAF725FE00BF95
:1056700000BF002EB4D0B1E718020020C0430020C4
:105680002002002014020020F0B589B00546002059
:10569000314908803148006820B944F252602880BE
:1056A00009B0F0BD2E480088022803DA44F25460A5
:1056B0002880F5E700202B49086028480468264622
:1056C000203600270CE0284820600020A060E06021
:1056D000208260612083666020342036781C87B287
:1056E0001F4800888742EEDB203C1C480668666045
:1056F0001E4806601E48066000201E4908801E499C
:1057000008801E48006818B944F255602880C7E731
:105710001B4800681B490968884203D244F256605E
:105720002880BDE7032000210591CDE907050691FA
:1057300013480068144A1268104B1B68CDE9030136
:10574000CDE9013200910B46104A11A11748FEF72E
:105750006BFB00BFA4E700001C0200202CB1000876
:1057600030B10008200200204E4F4E4510020020AC
:1057700014020020180200201A02002038B100088C
:1057800040B1000878B100083CB10008D9550008C4
:1057900075432F4F532D4949492049535220517584
:1057A000657565205461736B00000000F4420020B1
:1057B0000021034A1160034A1180018070470000F4
:1057C0002C0200203002002070B501461A4D2D68D1
:1057D0001DB945F21E750D8070BD184D2D881DB97F
:1057E00045F21D750D80F7E7134D28682A681032C1
:1057F000124D2D886D1EACB2002308E0026000251A
:1058000045600581C560103010325D1CABB2A3420B
:10581000F4DB0025056045600581C560064D2D68F7
:10582000074E3560054D2D88B5800025F580358102
:105830000D8000BFD0E700005CB1000854B1000843
:10584000B443002010B5014648894B89002B17DD71
:105850000A680C4B1B6813600A4C4B682360234694
:10586000DB884C891B1B074CE38023469B884C89B3
:105870002344044CA38000234B818B810B604B603D
:1058800010BD0000B44300200181002242818281CA
:1058900002604260704700002DE9F0410D46DDE9ED
:1058A0000674B0F80AC0B0F80880C44505DB46F2BB
:1058B000935CA4F800C0BDE8F081DFF8DCC0BCF860
:1058C00004C0BCF1000F04D145F21D7CA4F800C057
:1058D000F1E7DFF8C4C0DCF80010DFF8BC80D1F8D5
:1058E00000C0C8F800C0C446BCF804C0ACF1010C4C
:1058F000A8F804C0C446BCF806C00CF1010CA8F816
:1059000006C0C446BCF808C0B8F80680C44507DA2B
:10591000DFF884C0BCF806C0DFF87C80A8F808C0B7
:10592000B0F80AC0BCF1000F0AD1016041604FF02D
:10593000010CA0F80AC04FF0000CC1F800C017E03D
:1059400003F0100CBCF1000F07D106683160016054
:105950004FF0000CC1F800C004E0D0F804C0C1F85A
:1059600000C04160B0F80AC00CF1010CA0F80AC0F8
:10597000B0F80CC0B0F80A80C44503DAB0F80AC029
:10598000A0F80CC04D600A81CF604FF0000CA4F865
:1059900000C000BF8FE70000B443002009A1C1612F
:1059A000002141610849096811B90021816105E0C0
:1059B000054909688161044909684861024908602C
:1059C0007047000020000000340200200021034A3C
:1059D0001160034A118001807047000034020020EA
:1059E000380200202DE9F04105460C4616461F46B8
:1059F0001548006880F8346000201349096881F870
:105A0000350039461048006800F0C2FE6CB104F160
:105A10000808EC60012229460B48006800F016F8DF
:105A20002946404600F08EF806E000200649096845
:105A3000C88705490968086303480168204600F0E3
:105A400019F8BDE8F0810000C402002010B5C2873B
:105A5000016300230AE000244C600C600C614C617F
:105A60000C83CC61886020315C1CA3B29342F2DBD2
:105A700010BD000030B548B14568C1F8BC5000F118
:105A80000804226893681D6AC56113E091F83450D8
:105A9000022D02D0072D08D103E007A5C1F8BC50A4
:105AA00007E007A5C1F8BC5003E008A5C1F8BC5049
:105AB00000BF00BF30BD00005461736B2051000077
:105AC0005461736B2053656D0000000020000000DE
:105AD00030B507A5C1F8BC5000F1080422681AB11E
