:020000040800F2
:10000000685E0020690200084D470008353C000882
:10001000E3460008491B000835BF00080000000047
:10002000000000000000000000000000DF99000850
:10003000452D00080000000013040008F59B00088F
:10004000830200088302000883020008830200087C
:10005000830200088302000883020008830200086C
:10006000830200088302000883020008830200085C
:100070008302000883020008830200083D2A00086A
:10008000830200084D2A000883020008830200084A
:10009000830200088302000883020008830200082C
:1000A000830200088302000883020008830200081C
:1000B0009D9F000883020008830200088302000855
:1000C00083020008830200088302000883020008FC
:1000D0008302000883020008ABA100088302000825
:1000E00083020008830200088302000883020008DC
:1000F00083020008830200088302000883020008CC
:1001000083020008830200088302000883020008BB
:100110009BA10008830200088302000883020008F4
:10012000830200088302000883020008830200089B
:10013000830200088302000883020008830200088B
:10014000830200088302000883020008B9920008B5
:10015000830200088302000883020008830200086B
:10016000830200088302000883020008830200085B
:10017000830200088302000883020008830200084B
:10018000830200088302000800F002F800F05CF827
:100190000AA090E8000C82448344AAF10107DA45E2
:1001A00001D100F051F8AFF2090EBAE80F0013F0D8
:1001B000010F18BFFB1A43F0010318470CD00000D1
:1001C0002CD000000A444FF0000C10F8013B13F053
:1001D000070408BF10F8014B1D1108BF10F8015BA0
:1001E000641E05D010F8016B641E01F8016BF9D193
:1001F00013F0080F1EBF10F8014BAD1C0C1B09D1EA
:100200006D1E58BF01F801CBFAD505E014F8016B5B
:1002100001F8016B6D1EF9D59142D6D370470000ED
:100220000023002400250026103A28BF78C1FBD8FF
:10023000520728BF30C148BF0B6070471FB50CF094
:10024000B7FE1FBD10B510BD00F096F81146FFF7C0
:10025000F5FF0CF093F800F0B4F803B4FFF7F2FFE9
:1002600003BC0BF0C1FF0000094880470948004764
:10027000FEE7FEE7FEE7FEE7FEE7FEE7FEE7FEE756
:10028000FEE7FEE704480549054A064B70470000B3
:10029000659C00088901000868580020685E0020FD
:1002A000685A0020685A002072B6704762B67047DC
:1002B000EFF3108072B6704780F31088704730BF3C
:1002C000704720BF7047B0FA80F0704790FAA0F0F6
:1002D000B0FA80F0704790FAA0F0704770474FF086
:1002E00000020429C0F0128010F0030C00F01F80FF
:1002F000CCF1040CBCF1020F18BF00F8012BA8BF11
:1003000020F8022BA1EB0C0100F011B85FEAC17CD0
:1003100024BF00F8012B00F8012B48BF00F8012B87
:10032000704770477047704770474FF0000200B544
:10033000134694469646203922BFA0E80C50A0E808
:100340000C50B1F12001BFF4F7AF090728BFA0E8B6
:100350000C5048BF0CC05DF804EB890028BF40F882
:10036000042B08BF704748BF20F8022B11F0804FC4
:1003700018BF00F8012B7047754600F02BF8AE4609
:1003800005006946534620F00700854618B020B5A1
:10039000FFF778FFBDE820404FF000064FF0000760
:1003A0004FF000084FF0000B21F00701AC46ACE81D
:1003B000C009ACE8C009ACE8C009ACE8C0098D468A
:1003C000704710B50446AFF300802046BDE81040EA
:1003D000FFF743BF004870470858002022484FF6F7
:1003E000FF710170002080F309882048016881F3C3
:1003F00008881F484FF08051016062B6FEE71C4834
:100400004FF080510160704719484FF080510160F2
:10041000704772B6EFF3098050B11EF0100F08BF9D
:1004200020ED108A203880E8F00F12490968086032
:1004300000B5114880475DF804EB104810490A7870
:1004400002700C480F490A680260106890E8F00FCB
:1004500020301EF0100F08BFB0EC108A80F309881E
:100460004EF0040E62B6704722ED00E01403002047
:1004700004ED00E00C030020ED6000088202002083
:10048000830200201003002021B1826842F00102A3
:10049000826003E0826822F00102826070470000FF
:1004A0000021084A1168084A1140D0E900231A4384
:1004B00083681A43C3681A431143044AC2F80413F9
:1004C0007047000004230140E030FCFF00200140A1
:1004D00021B1826842F48072826003E0826822F473
:1004E00080728260704721B1826842F4007282603B
:1004F00003E0826822F400728260704730B50246E1
:10050000002000235068104C20400D790C6844EA0C
:1005100005242043506090680C4C2040D1E90354DE
:100520002C438D682C434D7944EA45042043906068
:10053000D06A20F470000C7D641EE4B2234340EACC
:100540000350D06230BD0000FFFEFFFCFDF7FFC08E
:10055000F0B504460D4600200021092D11DDE068AC
:10056000A5F10A0606EB4607072606FA07F18843B7
:10057000A5F10A0606EB460603FA06F10843E06019
:100580000CE0206905EB4507072606FA07F18843CA
:1005900005EB450603FA06F108432061072A0FDA46
:1005A000606B561E06EB86071F2606FA07F1884386
:1005B000561E06EB860605FA06F10843606322E044
:1005C0000D2A0FDA206BD61F06EB86071F2606FAC8
:1005D00007F18843D61F06EB860605FA06F10843A5
:1005E000206310E0E06AA2F10D0606EB86071F26E5
:1005F00006FA07F18843A2F10D0606EB860605FA16
:1006000006F10843E062F0BD816841F080418160FD
:100610007047000038B10849096841F40001074AF1
:10062000C2F8041306E00449096821F40001034AF2
:10063000C2F8041370470000042301400020014069
:1006400010B50221094800F057FA0120FFF7E2FF38
:10065000072301220F210548FFF77AFF0723022213
:1006600010210248FFF774FF10BD00000020014078
:1006700010B52DED0C8B022000F04CF804460CF068
:100680008FFA41EC1D0B9FED180B53EC102B0CF067
:100690009BFA41EC1C0B9FED160B53EC102B0CF04E
:1006A000B3F841EC1B0B9FED140B53EC102B0CF02B
:1006B00095FB41EC1A0B9FED120B53EC102B0CF039
:1006C000A3F841EC190B9FED100B53EC102B0BF022
:1006D000F3FF41EC180B0CF01FFAC1B20C4880F884
:1006E0004110BDEC0C8B10BD6666666666660A40FE
:1006F0000000000000FEAF4052B81E85EB51E83FFD
:100700007B14AE47E17A643F0000000000003940EE
:10071000502A0020F0B58AB004460023002109E0E9
:100720001B4800EB8106601E36F810002DF8110002
:10073000481CC1B21429F3DB00211AE0002212E0A8
:100740003DF81260501C3DF81000864209DD3DF86E
:100750001250501C3DF810002DF81200501C2DF8BE
:100760001050501CC2B2C1F113009042E8DC481C8A
:10077000C1B21429E2DB022104E03DF81100034478
:10078000481CC1B21229F8DB1B0998B20AB0F0BDAF
:10079000AC33002010B50E212B4800F0ADF9072333
:1007A00001220A212848FFF7D3FE072302220B214A
:1007B0002548FFF7CDFE072303220C212248FFF72F
:1007C000C7FE072304220D211F48FFF7C1FE0723A0
:1007D00005220E211C48FFF7BBFE07230622092134
:1007E0001948FFF7B5FE07231A4604211648FFF7FC
:1007F000AFFE0723082206211348FFF7A9FE0723AF
:1008000009220F211048FFF7A3FE07230A22022125
:100810000D48FFF79DFE07230B2205210A48FFF72D
:1008200097FE07230C2203210748FFF791FE0723B9
:100830000D2219460448FFF78BFE07230E220821DC
:100840000148FFF785FE10BD0022014010B52DEDD7
:10085000108B012000F00EF904460CF0A1F941ECD8
:100860001D0B9FED750B53EC102B0CF0ADF941EC0B
:100870001C0B9FED730B53EC102B0BF0C5FF41ECE1
:100880001B0B9FED710B53EC102B0BF0BDFF41ECDC
:100890001A0B9FED6F0B53EC102B0CF095F941ECFC
:1008A000190B9FED6D0B53EC102B0CF08DF941ECF7
:1008B000180B0CF031F96A490884022000F0DAF8CC
:1008C00004460CF06DF941EC1F0B9FED5B0B53ECF4
:1008D000102B0CF079F941EC1E0B9FED590B53ECEA
:1008E000102B0BF091FF41EC1D0B9FED530B53ECC4
:1008F000102B0CF067FA41EC1C0B9FED5A0B53ECDC
:10090000102B0BF081FF41EC1B0B9FED580B53ECB0
:10091000102B0CF059F941EC1A0B9FED470B53ECDF
:10092000102B0CF05BFA41EC190B9FED4B0B53ECC9
:10093000102B0CF049F941EC180B0CF0EDF848497C
:100940004884032000F096F804460CF029F941ECA5
:100950001D0B9FED390B53EC102B0CF035F941ECCE
:100960001C0B9FED370B53EC102B0BF04DFF41ECA4
:100970001B0B9FED350B53EC102B0BF045FF41EC9F
:100980001A0B9FED330B53EC102B0CF01DF941ECBF
:10099000190B9FED310B53EC102B0CF015F941ECBA
:1009A000180B0CF0B9F82E498884042000F062F886
:1009B00004460CF0F5F841EC1F0B9FED1F0B53ECB8
:1009C000102B0CF001F941EC1E0B9FED1D0B53ECAD
:1009D000102B0BF019FF41EC1D0B9FED170B53EC87
:1009E000102B0CF0EFF941EC1C0B9FED1E0B53ECA0
:1009F000102B0BF009FF41EC1B0B9FED1C0B53EC74
:100A0000102B0CF0E1F841EC1A0B9FED0B0B53ECA3
:100A1000102B0CF0E3F941EC190B9FED0F0B53EC8D
:100A2000102B0CF0D1F841EC180B0CF075F80C49B8
:100A3000C884BDEC108B10BD6666666666660A40AB
:100A40000000000000FEAF40E17A14AE47E1104024
:100A5000AE47E17A140E5A400000000000005940F1
:100A6000502A00205C8FC2F5285C05407B14AE47FD
:100A7000E1AA5940F0B58AB00446002300210BE0FA
:100A8000C1EBC1001B4E06EB8006601E36F810005D
:100A90002DF81100481CC1B21429F1DB00211AE025
:100AA000002212E03DF81260501C3DF81000864212
:100AB00009DD3DF81250501C3DF810002DF81200D1
:100AC000501C2DF81050501CC2B2C1F113009042BE
:100AD000E8DC481CC1B21429E2DB022104E03DF845
:100AE00011000344481CC1B21229F8DB1B0998B25B
:100AF0000AB0F0BD7C31002030B58BB004460D4605
:100B00001C48844203D10121801508F091FD1A4848
:100B1000844203D10121401508F08AFD1748844220
:100B200003D10121001508F083FD002007904FF448
:100B300080300890002009900A9007A8FFF7B0FCC9
:100B40000020019001208DF808008DF80900002098
:100B500003904FF070600490002005908DF81850BD
:100B600001A92046FFF7CAFC01212046FFF78CFCB3
:100B70000BB030BD002001400021014000220140A7
:100B800010B5FA21084600F0D3F810BD10B540F6B4
:100B9000FF7000F0F1F803494889FF2100F0DAF80E
:100BA00010BD0000502A002010B540F6FF71002053
:100BB00001F0A4F90121002001F0C0F940F6FF7115
:100BC000002001F0ABF90121102001F0B7F9FF215D
:100BD000084600F0BFF84FF40041044802F0D2FB91
:100BE0004FF48041014802F0CDFB10BD00180240D7
:100BF00010B52548008941F64C51884243DC224813
:100C00000089B0F57A7F3EDB1F48408988423ADC94
:100C10001D484089B0F57A7F35DB1B488089B0F5E7
:100C2000FA7F30DC18488089FA282CDB1648C08906
:100C3000B0F5FA7F27DC1448C089FA2823DB4FF48B
:100C40000041124802F09EFB4FF480410F4802F031
:100C500099FBFFF79BFF0C49088900F08DF80A4AC1
:100C6000D189508900F076F8074AD189908900F03F
:100C70005FF84FF40041054802F082FB4FF48041D9
:100C8000024802F07FFB10BD502A002000180240ED
:100C900010B52548008941F64C51884242DC224873
:100CA0000089B0F57A7F3DDB1F484089884239DCF6
:100CB0001D484089B0F57A7F34DB1B488089884223
:100CC00030DC19488089B0F5FA7F2BDB1648C089E3
:100CD000884227DC1448C089B0F5FA7F22DB4FF444
:100CE0000041124802F04EFB4FF480410F4802F0E1
:100CF00049FBFFF745FF0C49088900F03DF80A4918
:100D0000888900F048F8084AD189508900F022F813
:100D10004FF40041054802F033FB4FF48041034893
:100D200002F02EFB10BD0000502A002000180240E7
:100D30002DE9F04105460C46284608F003FB06461F
:100D4000204603F055FD0746F9B2F0B201F048FF26
:100D5000BDE8F0812DE9F04105460C4628460BF030
:100D6000A1F9064620460BF09DF90746F9B2F0B20C
:100D700001F084FFBDE8F08170B5044620460BF019
:100D8000E1F905462946002001F0B8F801210020CC
:100D900001F0D4F870BD70B5044620460BF0D2F9CE
:100DA00005462946002001F0B9F80121102001F084
:100DB000C5F870BD0EB537E01C4A1179106808F00F
:100DC000D1FC01280AD10221194880F85B10174A8A
:100DD00011791068FFF783FA00F05EFF144890F86D
:100DE0005B00022816D1124890F85A00012811D150
:100DF00000210F4880F85A10A0200E498870312039
:100E0000C8700D4848600D49086802F003FA0C48A4
:100E100008F0E6FD02A8082132230022CDE90010E7
:100E20001146104605F02CFAC6E700009800002095
:100E3000502A00202400002030000020A0000020C4
:100E4000A060024000B58BB00AA8032100220592E1
:100E5000CDE90621089010464FF480711922074B06
:100E6000CDE90132CDE9031006200023044A05A193
:100E70000090084804F0F6FB0BB000BD881200207B
:100E8000B50D00084170705F436F6D5F5461736B07
:100E900000000000C81100200EB50DE002F02EF891
:100EA00002F0FAF802A8082100230222CDE900107E
:100EB0001946184605F0E4F9F0E7000000B58BB0DC
:100EC0000AA8032100220592CDE9062108901046C8
:100ED0004FF480711922074BCDE90132CDE903109F
:100EE00007200023044A05A10090084804F0BAFB3B
:100EF0000BB000BD48170020990E00084170705FCC
:100F000046616E5F5461736B00000000881600201C
:100F10000EB50FE04FF48061074802F035FA02A8E1
:100F200008214FF4FA730022CDE900101146104653
:100F300005F0A6F9EEE70000000C024000B58BB00A
:100F40000AA8032100220592CDE906210890104647
:100F50004FF480711922074BCDE90132CDE903101E
:100F600003200023044A05A10090084804F07AFBFE
:100F70000BB000BDC8080020110F00084170705F61
:100F80004C65645F5461736B00000000080800202A
:100F90000EB50CE000F038FC02A808214FF4FA73FB
:100FA0000022CDE900101146104605F069F9F1E77D
:100FB00000B58BB00AA8032100220592CDE90621D5
:100FC000089010464FF480711922074BCDE9013289
:100FD000CDE903100B200023044A05A10090094825
:100FE00004F040FB0BB000BD88250020910F0008E5
:100FF0004170705F5077724D616E616765725F54CA
:1010000061736B00C824002010B586B0002400F086
:101010009DFD05A804F0A4FA05AA0121084604F0E4
:1010200053F900BF00BF00BFFFF742F9044600BFFD
:1010300000BF30480078401C2E49087000BF00BF38
:101040002046FFF739F900BF00BF00BFFFF776FF6A
:1010500000F064FBFFF7F6FEFFF730FF00F09AF8B0
:10106000FFF7A6FF00F0D2F805A80021224A0223CC
:10107000CDE90032CDE9021001231A461FA1244810
:1010800005F01EFA05A9224805F074FA05A92148C1
:1010900004F0FCFF00BF00BF00BFFFF709F90446E2
:1010A00000BF00BF13480078401E12490870084670
:1010B0000078A0B918480088002809DD00BF00BFEB
:1010C0002046FFF7F9F800BF00BF06F0F1FB0DE086
:1010D00000BF00BF2046FFF7EFF800BF06E000BFEB
:1010E00000BF2046FFF7E8F800BF00BF00BF06B012
:1010F00010BD00009C020020EDC100085379735F11
:10110000537461746543686B5F546D720000000036
:10111000D8030020180300206002002000B58BB027
:101120000AA8032100220592CDE906210890104665
:101130004FF480711922074BCDE90132CDE903103C
:101140001E200023044A05A10090084804F08AFAF2
:101150000BB000BD08040020091000084170705F4A
:1011600053746172745F5461736B00001803002044
:101170000EB50DE008F022FE08F0D6FD02A8082109
:101180000A230022CDE900101146104605F078F838
:10119000F0E7000000B58BB00AA8032100220592F9
:1011A000CDE90621089010464FF480711922074BB3
:1011B000CDE90132CDE9031008200023044A05A13E
:1011C0000090084804F04EFA0BB000BD081C002047
:1011D000711100085379734F6E4F66665461736BDB
:1011E00054636200481B00200EB50DE008F06CF857
:1011F000FFF73EFA02A8082100230122CDE90010E2
:101200001946184605F03CF8F0E7000000B58BB031
:101210000AA8032100220592CDE906210890104674
:101220004FF480711922074BCDE90132CDE903104B
:1012300009200023044A05A100900A4804F012FA8C
:101240000BB000BDC8200020E91100084170705F9C
:1012500054656D70657261747572655F5461736B0E
:1012600000000000082000200EB54EE20AF0B0FE9B
:1012700080B1FE480068C1B2FD4808F073FA012849
:1012800005D10121FB4880F85B1000F005FD00202E
:10129000F6490860F74890F85B0001287ED1F548D0
:1012A00090F85300012850D10021F24880F85310E3
:1012B0000220F14988700A20C870EE48008C0012A4
:1012C00049680870EB4890F82000EB49496848707D
:1012D000E848408C0012E84949688870E54890F871
:1012E0002200E5494968C870E248808C0012E24952
:1012F00049680871DF4890F82400DF49496848715F
:10130000DC48C08C0012DC4949688871D94890F8E3
:101310002600D9494968C871D64840880012D64984
:1013200049680872D3488078D34949684872D348DD
:1013300001F070FFD148C078811DD148C268CF4804
:1013400090470020CB4908704880CA4890F8540064
:10135000012852D10021C74880F854100320C64903
:1013600088700A20C870C348008C00124968087051
:10137000C04890F82000C04949684870BD48408C7A
:101380000012BD4949688870BA4890F82200BA49ED
:101390004968C870B748808C001200E0ABE1B649DC
:1013A00049680871B34890F82400B3494968487106
:1013B000B048C08C0012B04949688871AD4890F8B7
:1013C0002600AD494968C871AA4840880012AA4958
:1013D00049680872A7488078A74949684872A748B1
:1013E00001F018FFA548C078811DA548C268A34830
:1013F000904700209F49087048809E4890F855000B
:10140000A8B100219B4880F8551000209A498870A7
:101410000120C870002049680870984801F0FAFE61
:101420009648C078811D9648C26894489047914874
:1014300090F8560018B300218E4880F856101320FB
:101440008D49C870084640688E490A6802604A683B
:1014500042600A890281897A8172874840688A4994
:101460000A6840F80B2F49684160844801F0D2FEB9
:101470008248C078811D8248C268804890477D4874
:1014800090F85800002870D000217A4880F8581051
:101490000520794988700F20C8707648B0F842005E
:1014A000001249680870734890F842007249496810
:1014B00048707048B0F8440000126F49496888705D
:1014C0006C4890F844006C494968C8706948B0F8A5
:1014D00046000012684949680871664890F846005D
:1014E0006549496848716348B0F84800001262498C
:1014F000496888715F4890F848005F494968C87139
:101500005C48B0F84A0000125B49496808725948C3
:1015100090F84A00584949684872564890F84C007B
:10152000554949688872534890F84D0052494968B6
:10153000C872504890F84E004F49496808734D48AA
:1015400090F84F004C49496848734A4890F8500059
:10155000494949688873494801F05CFE4748C078AA
:10156000811D4748C26845489047424890F8590055
:10157000D8B300213F4880F8591006203E498870B2
:101580000720C8703B4890F85C00496808703948EB
:1015900090F85E00384949684870364890F85F0016
:1015A000354949688870334890F860003249496885
:1015B000C870304890F861002F49496808712D487B
:1015C00090F862002C49496848712A4890F86300F5
:1015D000294949688871294801F01CFE2748C078CC
:1015E000811D2748C268254890470121214880F87D
:1015F000591090F85A00012814D100211D4880F894
:101600005A10A0201C4988701F20C8701F484860CD
:101610001A4801F0FFFD1948C078811D1848C268BA
:1016200016489047134890F85200012863D10020D3
:10163000104981F85200F0200F4988700A20C870C4
:101640000C48008C0012496808700A4890F8200085
:101650000949496848700748408C001206494968A2
:101660008870044890F82200034911E0B800002077
:101670003E350020502A002024000020C80C002005
:10168000C4000020000000200B00002030000020DB
:101690004968C8701D48808C00121D49496808714E
:1016A0001A4890F824001A49496848711748C08CB4
:1016B0000012174949688871144890F826001449A7
:1016C0004968C87111484088001211494968087278
:1016D0000E4880780E49496848720E4801F09AFD1C
:1016E0000C48C078811D0C48C2680A489047002009
:1016F00006490870488002A808210A230022CDE983
:1017000000101146104604F0BBFDAFE5502A002042
:1017100024000020C80C0020C400002000B58BB0BD
:101720000AA8032100220592CDE90621089010465F
:101730004FF480711922074BCDE90132CDE9031036
:1017400004200023044A05A10090084803F08AFF02
:101750000BB000BDC80D0020691200084170705F19
:101760005573625F5461736B00000000080D002028
:101770001FB5684607F06CFF019804B010BD00006B
:1017800008B5002000900E4890F85E00012811D1A5
:1017900003236A460D21162002F078FA01280DD1A4
:1017A0009DF80000642809DC9DF80010044880F8CA
:1017B0005F1003E00021024880F85F1008BD0000C0
:1017C000502A002008B5002000900E4890F86100D3
:1017D000012811D103236A460D21162002F0A0FB37
:1017E00001280DD19DF80000642809DC9DF8001047
:1017F000044880F8621003E00021024880F862107B
:1018000008BD0000502A002010B507F0B5FEFFF714
:10181000B7FFFFF7D7FF00F02DFA0446A94890F86C
:101820005C0001287ED1A74890F85E00012804D012
:10183000A44890F86100012875D1A24890F85E0094
:1018400001285AD19F4890F85F0064280FD1022CDC
:1018500001D0032C0AD101219B4801F091FD002009
:101860009A4908700221974880F86010BCE09548BA
:1018700090F85F00642821D0032C1FD19448008881
:10188000401C80B29249088064280BDB01218E48FD
:1018900001F076FD00208D4908700321894880F809
:1018A0006010A1E00121884801F06CFD012087490A
:1018B00008700121834880F8601095E0814890F815
:1018C0005F0064280DD0012C0BD101217E4801F06E
:1018D00059FD01207D49087001217A4880F8601087
:1018E00082E00121784801F04BFD00207749087023
:1018F0000321744880F8601076E0724890F8620026
:10190000642815D1022C01D0032C6DD102216E4820
:1019100001F036FD00206F4908700221694880F807
:10192000631001E0ACE04FE000206B4908805BE011
:10193000644890F86200642821D0032C1FD16648C7
:101940000088401C80B26449088064280BDB0221B7
:101950005D4801F015FD00205E49087003215948DB
:1019600080F8631040E00221574801F00BFD012090
:10197000584908700121534880F8631034E05148F9
:1019800090F86200642810D0012C0ED102214E483C
:1019900001F0F8FC01204F4908700121494880F806
:1019A000631000204C4908801EE00221464801F0E7
:1019B000E7FC0020474908700321424880F8631083
:1019C0000020454908800FE0002040490870414947
:1019D000087003213B4880F8601080F863100020F5
:1019E0003B4908803C49088038480078012803D0EA
:1019F00038480078012831D13448007801280AD1CC
:101A00003448007838B901212F4801F0BBFC02218D
:101A10002D4801F0B5FC2D48007858B92D480078C4
:101A2000012807D10121284801F0AAFC02212648FB
:101A300001F0A8FC234890F86400012804D1C102F9
:101A4000264801F09DFC04E04FF40061234801F0BA
:101A500099FC0221214801F095FC31E001211A484E
:101A600001F08EFC0221184801F08AFC4FF400615D
:101A70001A4801F085FC0221184801F081FC1FE0A2
:101A80000321104880F8601080F86310002010498E
:101A90000880114908800D4908700E49087001211D
:101AA000094801F06DFC0221074801F069FC4FF480
:101AB00000610A4801F064FC0221084801F060FC62
:101AC00010BD0000502A00200018024078000020BD
:101AD0007A000020790000207C000020000C0240E9
:101AE00008B500214FF0006002F078FE02F0B4FE6D
:101AF00001F00CFD1048114B114A012100901148D2
:101B000008F0D5FE08F080F800F064F907F0EEFF69
:101B1000FFF74AF8FFF734F80AF090FA02F086FD72
:101B2000002001F0F9F8102001F0F6F801F0E1F9D9
:101B300008F0DCFA08BD0000300100207001002030
:101B4000D8000020C02A002000BFFEE710B500F03A
:101B50001FF800F019F810BD10B5002400BF00BF39
:101B6000FEF7A6FB044600BF00BF1021054802F0A7
:101B7000BAFD00BF00BF2046FEF79EFB00BF00BFBE
:101B800010BD00007E3D002010B5FFF7E5FF10BD41
:101B900010B500200249086000F00AF810BD0000EE
:101BA0002802002001490860704700002802002038
:101BB00010B5FFF7DDFD04460848006840F080706E
:101BC000064908600020064948600846006840F061
:101BD000010008602046FFF7E5FF10BDFCED00E0C6
:101BE000001000E00149486870470000001000E064
:101BF0001F48008996301E49088208460089963899
:101C000048820846008996308882084600899638BE
:101C1000C88208460079012811D1002008710846C1
:101C2000808996300883084680899638488308461C
:101C3000808996308883084680899638C8830C4806
:101C40004079012812D1002009494871084680894D
:101C50006430088308468089643848830846808950
:101C600064308883084680896438C88370470000E0
:101C7000502A002070B51021064801F078FB054677
:101C80000821044801F073FB05EB4000C4B2204674
:101C900070BD00000010024010B51848807804287C
:101CA0001DD007DC78B1012810D0022811D00328FC
:101CB0001ED111E0052815D0062816D0A02817D16E
:101CC00001F0E2FB17E001F0EFFB14E001F0D4FBC0
:101CD00011E001F097FB0EE001F05AFB0BE001F080
:101CE0000DFC08E001F0D8FB05E001F0E5FB02E0A7
:101CF00002F0CEFC00BF00BF10BD000018000020A5
:101D000010B540F224412D4808F07BFA18B340F298
:101D100024412A4808F051FA284800882748001D25
:101D200000880021264800F0CDFE2649244800F016
:101D300095FE234800F0D1FEC0F1640022490871ED
:101D4000084600681E494039C8646420486401217F
:101D50001B4800F0B7FE40F224411C4808F051FA3D
:101D600050B340F22441194808F027FA1748008878
:101D70001648001D008800211148483000F0A2FEDE
:101D800010490F48483000F069FE0D48483000F017
:101D9000A4FEC0F164000E490871084600680849B5
:101DA00054310860642006494039C1F88C00012193
:101DB0000348483000F086FE10BD0000004C004093
:101DC00040600240200000208800002000440040C5
:101DD0009800002000B587B04FF4E1312C480AF09C
:101DE000ABF8002240F22551294808F034FA0022CD
:101DF00040F22771264808F02EFA012240F22441D1
:101E0000234808F028FA01224021214808F0F0F97F
:101E1000012280211E4808F0EBF94FF440304FF4C6
:101E2000807100220292CDE9032105906420CDE962
:101E300000201848164A121DC9040368164800F00D
:101E400089FF4FF440304FF4807100220292CDE9B7
:101E50000321059064204021CDE900100F480C4A71
:101E6000121D490503680C48183000F073FF01216A
:101E7000094800F027FE00210748183000F022FE34
:101E8000012210210448183000F05EFE07B000BDAA
:101E9000004400409800002088600240A00000201C
:101EA00039B1084A1268012383401A43054B1A606E
:101EB00006E0044A1268012383409A43014B1A60EA
:101EC000704700000074004030B5002200230A4C27
:101ED000226840F6FE748440A243D1E900452C43B9
:101EE0008D682C43CD6844EA050303FA00F42243CD
:101EF000014C226030BD00000074004008B5002293
:101F00000092054A009200F10802009B1A440092D8
:101F1000009A116008BD00000074004008B500225E
:101F20000092054A009200F11402009B1A440092AC
:101F3000009A116008BD00000074004010B541B166
:101F4000084A126804090123A3401A43054B1A608A
:101F500007E0044A126804090123A3409A43014B95
:101F60001A6010BD0474004070B506460C4604F0BB
:101F70008000802808D104F07F0000EB800106F586
:101F80008E7000EBC10507E004F07F0000EB8001DC
:101F900006F55D7000EBC10504F07F00287004F0C9
:101FA0008000C00968702946304609F054FC0020C2
:101FB00070BD70B506460C4604F08000802808D13C
:101FC00004F07F0000EB800106F58E7000EBC10588
:101FD00005E004EB840106F55D7000EBC10500200F
:101FE000A87004F07F002870C4F3C0106870294600
:101FF000304609F008FC002070BD2DE9F04106468E
:102000000D4690461F4605F08000802808D105F057
:102010007F0000EB800106F58E7000EBC10407E045
:1020200005F07F0000EB800106F55D7000EBC10458
:1020300005F07F00207005F08000C0096070C4F8D2
:102040000880E770607808B12078E080022F01D125
:10205000002020712146304609F089FB0020BDE8B0
:10206000F0812DE9F04105460E461746984606F0E8
:102070007F0000EB800105F55D7000EBC104E760B7
:10208000C4F814800020A061607006F07F0020700A
:10209000E878012800D12761207820B92146284618
:1020A00009F089FA03E02146284609F053FC002094
:1020B000BDE8F08108B500220092009A61F30A128F
:1020C000009202691268009B1A4303691A6008BDF6
:1020D00070B506460C4604F08000802808D104F054
:1020E0007F0000EB800106F58E7000EBC10505E076
:1020F00004EB840106F55D7000EBC1050120A870BA
:1021000004F07F002870C4F3C01068702946304680
:1021100009F0EEFB002070BD2DE9F04107460D46A9
:102120001646984605F07F0000EB800107F58E709B
:1021300000EBC1040120607005F07F002070E660B4
:1021400026610020A061C4F81480207820B92146BF
:10215000384609F030FA03E02146384609F0FAFB28
:102160000020BDE8F081000030B587B00546594C2D
:10217000284609F0E6F901A807F06AFA029CE86827
:10218000C0680590059820F4705005900598E9689E
:10219000C860284609F0B0FD03280BD10020A870C4
:1021A0004FF40070A880059820F4705000F510508E
:1021B00005907EE00120A8704020A8804648844217
:1021C00009D34648844206D2059820F4705000F5A1
:1021D000605005906DE04148844209D340488442F4
:1021E00006D2059820F4705000F55050059060E03C
:1021F0003B48844209D33B48844206D2059820F4E8
:10220000705000F54050059053E03648844209D3A1
:102210003548844206D2059820F4705000F53050BD
:10222000059046E03048844209D33048844206D2C3
:10223000059820F4705000F52050059039E02B48A7
:10224000844209D32A48844206D2059820F470506B
:1022500000F5105005902CE02548844209D325480C
:10226000844206D2059820F4705000F50050059085
:102270001FE02048844209D31F48844206D20598B3
:1022800020F4705000F5E050059012E01A488442A6
:1022900009D31A48844206D2059820F4705000F5FC
:1022A000C050059005E0059820F4705000F5A0504E
:1022B00005900598E968C86000200690069820F40B
:1022C000005000F5005006900698E968486101202A
:1022D00007B030BD007A030AC0E1E4000024F40036
:1022E000E0EC040100C31801002D310140A44C01B1
:1022F00000366E0140E2950180C3C90160600B02A7
:10230000F8B50546002400200090284609F035FD68
:10231000064681E006F0010000287BD0E1B22846A5
:1023200000F00CFB0090009800F0010030B3012099
:1023300000FA04F72869406BB84329694863002014
:102340000090009820F00100401C009005F118005A
:1023500050F8240000998160E1B232480068426878
:1023600028469047E878012808D13CB940F211107E
:10237000405D042802D1284609F0C8F90098C0F34E
:10238000C00060B100200090009820F008000830E4
:10239000009005F1180050F8240000998160009821
:1023A000C0F3001060B100200090009820F01000F1
:1023B0001030009005F1180050F824000099816059
:1023C0000098C0F3801060B100200090009820F0C9
:1023D00040004030009005F1180050F824000099AA
:1023E00081600098C0F3400060B100200090009828
:1023F00020F00200801C009005F1180050F8240025
:10240000009981600098C0F3C01018B12146284699
:1024100000F0BEFA641C7608002E7FF47BAF01202A
:10242000F8BD0000140200207CB504460025002001
:102430000190204609F0A9FC06466FE006F0010075
:10244000002869D0E9B2204609F0A7FC0190019864
:1024500000F00100C8B300200190019820F00100B5
:10246000401C019004F1540050F82500019981604E
:10247000E078012817D104F1540050F825000069D4
:10248000009005EB850104F55D7000EBC1008068EC
:102490000099C1F31201411A05EB850204F55D7044
:1024A00000EBC2008161E9B21E4800680268204664
:1024B0009047E078012808D13DB940F21110005D45
:1024C000052802D1204609F021F90198C0F3400007
:1024D00060B100200190019820F00200801C019062
:1024E00004F1540050F82500019981600198C0F36F
:1024F000C00088B10B4800688168204688470020EA
:102500000190019820F008000830019004F1540077
:1025100050F82500019981606D1C7608002E8DD140
:1025200001207CBD140200203EB50446A07A78B19B
:10253000D4F80C0100680090009820F00200009090
:10254000009820F0010000900099D4F80C0101607F
:1025500000200190019820F00100401C01902069AA
:102560004068019988432169486009480068816989
:102570002046884700200290029820F0004000F199
:10258000004002900298E168486101203EBD0000D1
:10259000140200207CB5044600200190019820F030
:1025A000100010300190E068806901998843E1686B
:1025B0008861E068006A0090009800F00F0000EB6E
:1025C000800104F55D7000EBC1050098C0F3434045
:1025D00007282DD2DFE800F02C04051D1E2C1F005B
:1025E00027E00098C0F30A1090B10098C0F30A12D7
:1025F0002046E96809F0DBFBE8680099C1F30A119D
:102600000844E860A8690099C1F30A110844A86168
:102610000FE00EE00DE0082204F2CC51204609F054
:10262000C6FBA8690099C1F30A110844A86100E03B
:1026300000BF00BFE068806901990843E1688861D4
:1026400001207CBD38B5044608480068C1682046B2
:10265000884700200090009820F008000830009083
:102660000098E1684861012038BD00001402002094
:102670001FB50446002000904FF48970005D009063
:102680002348006841692046884720698068019096
:1026900000200390039820F4006000F50060039090
:1026A0000398E1684861A07A70B3019800F00100D6
:1026B00050B340F21510005D012825D19DF80000AF
:1026C000032821D100200290029820F00100401C34
:1026D0000290D4F80C01006802990843D4F80C1158
:1026E0000860029820F00200801C0290D4F80C01CF
:1026F000006802990843D4F80C1108600548006886
:1027000040F0060003490860012004B010BD00003D
:102710001402002010ED00E030B587B00446002020
:10272000029006900590049003900190029820F08A
:102730000100401C02902069406802998843216989
:1027400048600021204609F0ADFA00250BE0FF218A
:1027500004F1180050F82500816004F1540050F88D
:10276000250081606D1C6078A842F0D84FF0FF31E1
:102770002069816106986FF30F00401C069006984F
:1027800080B200F58030069006992069C1610598F5
:1027900020F0080008300590059820F00100401C4A
:1027A0000590059820F00200801C0590059920698D
:1027B0004161049820F00100401C0490049820F02E
:1027C000080008300490049820F00200801C049057
:1027D000049920690161206900680390039820F43E
:1027E000FE600390039920690160204608F08EFF87
:1027F00000200190019820F4805000F58050019055
:102800000198E168486104480068016920468847EA
:10281000012007B030BD0000140200202DE9F04176
:1028200006460F463946304609F0D6FA01214FF4E4
:10283000897081550021801C8155002511E005EB30
:10284000850106F58E7000EBC104012060702570D3
:10285000E5800020E0704020A0600020E060606122
:102860006D1C7078A842EAD8002510E005EB8501C0
:1028700006F55D7000EBC104002060702570E580F6
:10288000E0704020A0600020E06060616D1C707806
:10289000A842EBD8304608F043FE304608F073FCFF
:1028A0000021304609F000FB304608F0F9FC3046C4
:1028B00009F0C1F9BDE8F08138B504460020009068
:1028C00007480068C16920468847009820F48010B6
:1028D00000F5801000900098E1684861012038BD43
:1028E0001402002038B50446002000900748006814
:1028F000016A20468847009820F4001000F5001077
:1029000000900098E1684861012038BD1402002061
:1029100038B50446E068406800900098C0F3800035
:1029200020B105480068816A204688470098E16820
:102930004860012038BD00001402002030B5024676
:1029400015692B6915696C6B24FA01F505F0010511
:1029500043EAC51302F1180555F82150AD6805EAA0
:10296000030030BD38B5044608480068416A204677
:10297000884700200090009820F0804000F18040BF
:1029800000900098E1684861012038BD14020020E1
:102990002DE9F84306460F4600250020009007EB7E
:1029A000870106F58E7000EBC104D4E90501451AD4
:1029B000A068A84200D2A568E81C4FEA900806F17A
:1029C000180050F827008069009029E0D4E905013B
:1029D000451AA068A84200D2A568E81C4FEA9008F2
:1029E000ABB2FAB23046E16809F085FAE0682844F3
:1029F000E060A0692844A06106F1180050F82700A3
:102A000080690090D4E90501884209D1217801202C
:102A100000FA01F93069406B20EA09003169486326
:102A2000009880B2404506D9D4E90510884202D208
:102A300060690028CAD10120BDE8F88310B502F012
:102A400041F800F0C7F902F053F810BD10B502F0DC
:102A500039F800F0BFF902F04BF810BD0246094BFF
:102A60009A4201D2084801E00648103801F00053AC
:102A70001BB1064B0B40C36002E0044B0B4083606C
:102A80007047000010640240006002407D0F7D0F1F
:102A90000246094B9A4201D2084801E00648103824
:102AA00001F000531BB1064B0B40C36002E0044B26
:102AB0000B408360704700001064024000600240D9
:102AC0007D0F7D0F21B1026842F00102026003E038
:102AD000026822F00102026070470146486880B235
:102AE0007047000070B50246002000240025124EF9
:102AF000B24201D2114B01E00F4B103B104E0E4081
:102B000036B11E2606EAD124166806EA040502E05C
:102B1000566906F0800501F000560EB15C6800E0D1
:102B20001C68084E344004EA010616B10DB10120BC
:102B300000E0002070BD0000106402400060024010
:102B40003C0F3C0F7D0F7D0F10B501F080034BB1A2
:102B500022B1436943F08003436103E0436923F0FA
:102B60008003436180290BD02AB1036801F01E0461
:102B70002343036004E0036801F01E04A3430360E1
:102B800010BD000010B500220268134B1A40CC683B
:102B90000B6823434C6923438C692343CC6923434B
:102BA0000C6A23434C6A23438C6A23434C6B2343B4
:102BB0008C6B23431A430260426922F00702D1E979
:102BC0000B3423431A4342610B6943604B688360B3
:102BD0008B68C36010BD00003F801CF041607047EF
:102BE00070B504460D464FF48041224800F0C8FB02
:102BF00049F20101204806F0DAFE4FF47A6000F055
:102C0000A2F84FF480411B4800F0BCFB4FF4FA607F
:102C100000F099F84FF48041164800F0B1FB4FF4F2
:102C2000805040EA0511144806F0C1FE4FF47A6066
:102C300000F089F84FF480410E4800F0A3FB4FF4F8
:102C4000FA6000F080F84FF480410A4800F098FBE9
:102C50004FF4004040EA0411074806F0A8FE4FF484
:102C60007A6000F070F84FF48041024800F08AFB6F
:102C700070BD000000040240003C004070B50446F6
:102C80000D464FF40051224800F07AFB49F2010151
:102C9000204806F08CFE4FF47A6000F054F84FF4B0
:102CA00000511B4800F06EFB4FF4FA6000F04BF847
:102CB0004FF40051164800F063FB4FF4805040EA97
:102CC0000511144806F073FE4FF47A6000F03BF8EB
:102CD0004FF400510E4800F055FB4FF4FA6000F03D
:102CE00032F84FF400510A4800F04AFB4FF400401C
:102CF00040EA0411074806F05AFE4FF47A6000F0EB
:102D000022F84FF40051024800F03CFB70BD000077
:102D100000040240003C00401FB504460121480762
:102D200006F076FC3C2000900020019002900220EA
:102D3000039069462046FFF7C7F801212046FFF7B8
:102D4000AFF81FBD704700BF411E89B2081EFBD1FE
:102D5000704700002DE9F04F8FB004460D4616462F
:102D60001F46DDE91AABDDE918891948844204D20F
:102D70000121480506F02CFC03E00121880506F03E
:102D800027FC009501960297CDF80C80CDF81090A5
:102D9000002005904FF480600690CDF81CA0CDF87F
:102DA00020B01C9809901D980A9000200B900320D9
:102DB0000C9000200D900E9069462046FFF7E2FE31
:102DC00000212046FFF77EFE0FB0BDE8F08F000027
:102DD0000064024010B509490948FFF783FE58B165
:102DE00000210748FFF76EFE64210548FFF7F6FE55
:102DF00002490348FFF74CFE10BD00000080202070
:102E0000A060024070B504460D46164601F05AFA1D
:102E1000FE2101EA440001F009FA01F095FA284682
:102E200001F004FA01F090FA01F04CFA012101EBF3
:102E30004401C8B201F0FAF901F086FA01F0AAF9EA
:102E4000307001F01DFA01F05FFA70BD2DE9F0411C
:102E500004460F4615461E464FF0000801F032FAB0
:102E6000FE2101EA440001F0E1F901F06DFA384673
:102E700001F0DCF901F068FA01F024FA012101EB1C
:102E80004401C8B201F0D2F901F05EFA00BF0A2095
:102E9000FFF759FF01F07EF905F8010B08F1010079
:102EA000C0B28046B04202D101F0EAF901E001F07F
:102EB0009BF9B045EBD101F027FABDE8F08170B580
:102EC00004460D46164601F0FDF9FE2101EA4400D4
:102ED00001F0ACF901F038FA284601F0A7F901F049
:102EE00033FA304601F0A2F901F02EFA01F00CFAA3
:102EF00070BD10B500F096F810BD000010B5464842
:102F000090F8401090F83F00814205DB424890F86D
:102F100040004249087004E03F4890F83F003F49B4
:102F200008703D4890F841003C490978884204DC2B
:102F30003A4800783949087004E0374890F8410071
:102F4000364908703548007835490978884262D09A
:102F5000324800783249087030480078322819DC4D
:102F60000C2230212C20FFF7AAFF0C2240212C201C
:102F7000FFF7A5FF0C2250212C20FFF7A0FF0C2209
:102F800060212C20FFF79BFF0C2270212C20FFF7E3
:102F900096FF40E021480078322823DD1F48007862
:102FA0005F281FDA1D48007800EB80000C30C4B2A7
:102FB000224630212C20FFF782FF224640212C2080
:102FC000FFF77DFF224650212C20FFF778FF224695
:102FD00060212C20FFF773FF224670212C20FFF781
:102FE0006EFF18E0FF2230212C20FFF768FFFF2240
:102FF00040212C20FFF763FFFF2250212C20FFF7F8
:103000005EFFFF2260212C20FFF759FFFF22702175
:103010002C20FFF754FF10BD502A0020760000201E
:103020007700002008B5802220212C20FFF747FFE1
:103030006A4620212C20FFF7E5FE00222A212C20C1
:10304000FFF73DFF1F222B212C20FFF738FF002226
:103050002C210846FFF733FF00222D212C20FFF7FB
:103060002EFF0C2230212C20FFF729FF0C224021BB
:103070002C20FFF724FF0C2250212C20FFF71FFFEC
:103080000C2260212C20FFF71AFF0C2270212C202B
:10309000FFF715FF08BD00002DE9F04186B00223BF
:1030A00005AA3E212C20FFF7D1FE022304AA4E21BF
:1030B0002C20FFF7CBFE022303AA5E212C20FFF772
:1030C000C5FE022302AA6E212C20FFF7BFFE0223B9
:1030D00001AA7E212C20FFF7B9FE9DF815009DF86E
:1030E000141000EB0120C0104FF4F00191FBF0F040
:1030F00084B29DF811009DF8101000EB0120C01063
:103100004FF4F00191FBF0F085B29DF80D009DF8B1
:103110000C1000EB0120C0104FF4F00191FBF0F017
:1031200086B29DF809009DF8081000EB0120C01040
:103130004FF4F00191FBF0F087B29DF805009DF887
:10314000041000EB0120C0104FF4F00191FBF0F0EF
:103150001FFA80F8B4F5707F01DD204600E0002002
:103160002B49A1F84200B5F5707F01DD294600E04A
:1031700000212748A0F84410B6F5707F01DD3146E4
:1031800000E000212248A0F84610B7F5707F01DD6D
:10319000394600E000211E48A0F84810B8F5707FBD
:1031A00001DD414600E000211948A0F84A10B4F5BD
:1031B000707F01DC012100E00021154880F84C10EF
:1031C000B5F5707F01DC012100E00021104880F896
:1031D0004D10B6F5707F01DC012100E000210C48A4
:1031E00080F84E10B7F5707F01DC012100E000216E
:1031F000074880F84F10B8F5707F01DC012100E02E
:103200000021034880F8501006B0BDE8F0810000AE
:10321000502A002010B500221E4949781D4B9B788A
:1032200019441C4BDB7819441A4B197200BF09E092
:103230001849097A174B5B689B5C1944154B197246
:10324000511CCAB21349C9789142F1DC114909787D
:1032500001701049497841700E49897881700D4993
:10326000C978C170002105E00A4B5B685C5C0B1DEE
:10327000C454491C074BDB788B42F5DC05490B7ABB
:10328000C978091D435403494B7AC978491D4354F1
:1032900010BD000024000020F0B50A4600210023E4
:1032A000002400BF3DE0012505FA01F3156805EA99
:1032B00003049C4234D105684F000326BE40B54349
:1032C000056015794E00B5400668354305601579EF
:1032D000012D02D01579022D16D185684F000326E5
:1032E000BE40B543856055794E00B540866835438C
:1032F0008560456801268E40B543456045689679EE
:103300008E40B6B235434560C5684F000326BE40C7
:10331000B543C560D5794E00B540C6683543C56034
:10332000491C1029BFD3F0BDF0B5002300244D0780
:10333000ED0E02FA05F3CE1000F1200555F82650E7
:103340004E07F70E0F26BE40B543CF1000F1200602
:1033500046F82750CE1000F1200555F8265045EAD2
:103360000304CE1000F1200545F82640F0BD0246CA
:10337000002013690B400BB1012000E000207047D2
:10338000418370470183704742694A4042617047F8
:1033900010B501201949087019484068407818494B
:1033A0004968097840EA01201449088114484068B6
:1033B000C07813494968897840EA01200F4948815B
:1033C0000F48406840790E494968097940EA012070
:1033D0000A4988810A484068C07909494968897959
:1033E00040EA01200549C88101204871FEF700FC30
:1033F000FDF7FEFB01200149C87110BD502A0020D5
:103400001800002010B501201949087019484068BB
:10341000407818494968097840EA01201449088130
:1034200014484068C07813494968897840EA012007
:103430000F4948810F48406840790E494968097929
:1034400040EA01200A4988810A484068C079094950
:103450004968897940EA01200549C881012008713D
:10346000FEF7C6FBFDF714FC01200149887110BD71
:10347000502A0020180000200121024880F8561030
:1034800070470000502A00200121024880F85A109D
:1034900070470000502A00200121024880F858108F
:1034A00070470000502A00200121024880F8551082
:1034B00070470000502A00200121024880F859106E
:1034C00070470000502A002070B50A480468001DAB
:1034D0000568001D0668344454B108220649204698
:1034E00001F0E0F8042204491031284601F0DAF82E
:1034F00070BD0000107AFF1F160100200121024854
:1035000080F8571070470000502A002008B50121AC
:103510007F2006F05DF80121080706F079F8012008
:1035200005F00AFF002006F007F9002005F004FF6F
:1035300008220021FE48FFF7F7FE08220121FC487F
:10354000FFF7F2FE00200346022201210090F84816
:1035500000F0EAFA00200346022211460090F448E7
:1035600000F0E2FA00200346032204210090F04814
:1035700000F0DAFA00200346032208210090EC480C
:1035800000F0D2FA02200023032210210090E84824
:1035900000F0CAFA02200023032220210090E44810
:1035A00000F0C2FA002001231A4619020090E048F8
:1035B00000F0BAFA00200346012291020090DC4894
:1035C00000F0B2FA4FF48061D948FFF7DBFE01202A
:1035D0000023024601460090D64800F0A5FA0020DC
:1035E00001231A4640210090D24800F09DFA0020A5
:1035F00001231A4680210090CE4800F095FA012060
:103600000023024601020090CA4800F08DFA012012
:103610000023024641020090C64800F085FA0120CE
:103620000346024681020090C24800F07DFA012064
:1036300003460246C1020090BE4800F075FA012020
:103640000023024641030090BA4800F06DFA0120C1
:103650000023024681030090B64800F065FA00207E
:103660000346032201210090B34800F05DFA0020D8
:103670000346032202210090AF4800F055FA0020D3
:103680000346032204210090AB4800F04DFA0020CD
:103690000346032208210090A74800F045FA0020C5
:1036A0000346032220210090A34800F03DFA0020A9
:1036B00001231A46590200909F4800F035FA06226D
:1036C0000A219D48FFF730FE0120002302228102DB
:1036D0000090994800F028FA06220B219648FFF73F
:1036E00023FE012000230222C1020090924800F034
:1036F0001BFA06220C219048FFF716FE012000233A
:103700000222010300908C4800F00EFA00200346CC
:10371000012251030090884800F006FA4FF400514E
:103720008548FFF72FFE00200346012291030090F9
:10373000814800F0F9F94FF480417F48FFF722FEFD
:10374000002003460122D10300907B4800F0ECF9F1
:1037500000200346012202210090784800F0E4F99D
:1037600000200346012204210090744800F0DCF997
:1037700004217248FFF706FE0020034601220821BB
:1037800000906E4800F0D0F908216C48FFF7FAFD70
:1037900000200346012210210090684800F0C4F97F
:1037A00010216648FFF7EEFD072205216348FFF769
:1037B000BBFD072206216148FFF7B6FD0020034646
:1037C0000222202100905D4800F0AEF9002003465F
:1037D000022240210090594800F0A6F9002003463B
:1037E000012280210090554800F09EF98021534825
:1037F000FFF7C8FD002003460122110200904F4848
:1038000000F092F94FF480714C48FFF7BBFD0020A7
:103810000346012251020090484800F085F94FF418
:1038200000714648FFF7AEFD0020034601229102D9
:103830000090424800F078F9002003460122D102AE
:1038400000903E4800F070F9002003460122110369
:1038500000903A4800F068F94FF480513748FFF77C
:1038600091FD00200346012251030090334800F0EF
:103870005BF9002003460122910300902F4800F0DD
:1038800053F9012000231A46C10300902B4800F091
:103890004BF9012000231A4601460090284800F009
:1038A00043F9022000231A4601460090244800F004
:1038B0003BF900200346012204210090204800F03B
:1038C00033F9002003460246082100901C4800F00E
:1038D0002BF900200346024610210090184800F002
:1038E00023F900200346024620210090144800F0EE
:1038F0001BF900200346012211020090104800F03D
:1039000013F90020034602464FF4007100900C4862
:1039100000F00AF9002001231A4699020090084895
:1039200000F002F94FF480610548FFF72BFD09E034
:10393000000002400004024000080240000C024067
:1039400000100240002003460122D102009073487B
:1039500000F0EAF80020034602464FF48051009040
:103960006E4800F0E1F80020034602464FF4005193
:1039700000906A4800F0D8F8002001231A46194642
:103980000090674800F0D0F8002001231A46022179
:103990000090634800F0C8F800200346012204218B
:1039A00000905F4800F0C0F8002003460322082181
:1039B00000905B4800F0B8F8002003460322102175
:1039C0000090574800F0B0F8002003460322202161
:1039D0000090534800F0A8F800200346032240213D
:1039E00000904F4800F0A0F80020034603228021F9
:1039F00000904B4800F098F80020034603224FF453
:103A000080710090464800F08FF8002003460322A2
:103A10004FF400710090424800F086F80020034601
:103A200003224FF4806100903D4800F07DF80020B3
:103A300003460122D1020090394800F075F80020B9
:103A40000346012211030090354800F06DF8002074
:103A50000346012251030090314800F065F8002030
:103A600003460122910300902D4800F05DF80020EC
:103A700003460122D1030090294800F055F80020A8
:103A80000346012211460090264800F04DF8002020
:103A90000346012202210090224800F045F8002050
:103AA00003460122042100901E4800F03DF800204A
:103AB00003460122082100901A4800F035F8002042
:103AC0000346012210210090164800F02DF8002036
:103AD0000346012280210090124800F025F8802141
:103AE0001048FFF74DFC002003460122910300908F
:103AF0000C4800F019F84FF480410A48FFF742FCE7
:103B0000002003460122D1030090064800F00CF883
:103B10004FF400410348FFF735FC08BD0010024098
:103B200000140240001802402DE9FC4107460C46F3
:103B300015461E46DDF8208000948DF804500320C1
:103B40008DF805008DF806608DF8078069463846C7
:103B5000FFF7A2FBBDE8FC8170B50646304800784F
:103B600000285BD12F480068B0F5006F02D100201B
:103B70002C4908602B4800682B490968884203D10A
:103B800000202749087070BD26480068264909684A
:103B9000884206D923480068C0F5006023490860C0
:103BA00006E0214800681F490968401A1F4908605B
:103BB0001E480068402811D91A48008885B2402460
:103BC00018480068403017490860184800684038B5
:103BD0001649086001201249087018E01148008851
:103BE00085B21248008884B20E4800680F490968FF
:103BF00008440C49086000200C490860402C03D19F
:103C000002200749087002E00120054908700848B1
:103C10004219234681213046FEF77EFA00BFB2E703
:103C2000640100205C010020580100206001002098
:103C30007E35002000BFFEE770B505F017FE0221BB
:103C40001148FFF79DFB802419E001210E48FFF782
:103C50008EFB08B9A54300E02543052008F06CFB66
:103C600002210948FFF78EFB052008F065FB0221C1
:103C70000548FFF785FB052008F05EFB6410002C6B
:103C8000E3D1284670BD0000001402402DE9F04148
:103C900006460F4614461D464FF0000800F0A8F8EF
:103CA000304600F057F800F0E3F810B10020BDE80E
:103CB000F081384600F04EF800F0DAF808B1002044
:103CC000F5E700F095F846F0010000F043F800F049
:103CD000CFF808B10020EAE700BF322008F02CFB43
:103CE000FFF7AAFF04F8010B08F10100C0B28046FB
:103CF000A84202D100F05AF801E000F009F8A84506
:103D0000EBD1052008F018FB00F092F80120CEE777
:103D100010B505F0C5FD02210D48FFF731FB052068
:103D200008F00AFB01210A48FFF72AFB052008F0EA
:103D300003FB02210648FFF725FB052008F0FCFAEB
:103D400002210348FFF71CFB052008F0F5FA10BD1F
:103D50000014024070B5054605F0A2FD052008F0EC
:103D6000EBFA80241DE004EA050020B901210E4889
:103D7000FFF706FB03E001210B48FFF703FB0520DB
:103D800008F0DAFA02210848FFF7FCFA052008F0EB
:103D9000D3FA02210448FFF7F3FA052008F0CCFA21
:103DA0006410002CDFD170BD0014024010B505F086
:103DB00077FD02210D48FFF7E3FA052008F0BCFA71
:103DC00001210A48FFF7DEFA052008F0B5FA0221C2
:103DD0000648FFF7D7FA052008F0AEFA022103489B
:103DE000FFF7CEFA052008F0A7FA10BD0014024034
:103DF00010B505F055FD02210C48FFF7C3FA01216B
:103E00000A48FFF7BFFA052008F096FA0121074893
:103E1000FFF7B6FA052008F08FFA02210348FFF7F2
:103E2000AFFA052008F088FA10BD00000014024027
:103E300010B505F035FD02210C48FFF7A1FA01216C
:103E40000A48FFF79DFA052008F076FA0221074894
:103E5000FFF798FA052008F06FFA01210348FFF7F1
:103E600091FA052008F068FA10BD00000014024025
:103E700010B54FF4FA6405F0F9FC052008F05CFA7F
:103E800005E0601E80B2041E01D1012010BD012199
:103E90000A48FFF76CFA0028F3D102210748FFF720
:103EA00071FA052008F048FA02210448FFF768FA81
:103EB000052008F041FA0020E8E700000014024065
:103EC00070B505F007FD4FF480711348FFF758FAFD
:103ED00080241CE04FF400711048FFF748FA08B93D
:103EE000A54300E02543052008F026FA4FF4807131
:103EF0000948FFF747FA052008F01EFA4FF48071D1
:103F00000548FFF73DFA052008F016FA6410002C6A
:103F1000E0D1284670BD00000000024000080240C9
:103F20002DE9F04106460F4614461D464FF00008A5
:103F300000F0B8F8304600F05DF800F0FFF810B17E
:103F40000020BDE8F081384600F054F800F0F6F8A3
:103F500008B10020F5E700F0A5F846F0010000F0F8
:103F600049F800F0EBF808B10020EAE700BF502064
:103F700008F0E2F9FFF7A4FF04F8010B08F10100D3
:103F8000C0B28046A84202D100F064F801E000F01F
:103F900009F8A845EBD1052008F0CEF900F0A8F803
:103FA0000120CEE710B505F0B1FC4FF480710F4849
:103FB000FFF7E6F9052008F0BFF94FF400710C484F
:103FC000FFF7DEF9052008F0B7F94FF480710748D4
:103FD000FFF7D8F9052008F0AFF94FF480710348D6
:103FE000FFF7CEF9052008F0A7F910BD0000024048
:103FF0000008024070B5054605F088FC802421E0E9
:1040000004EA050028B94FF400711048FFF7B8F929
:1040100004E04FF400710D48FFF7B4F9052008F0F3
:104020008BF94FF480710A48FFF7ACF9052008F0CE
:1040300083F94FF480710648FFF7A2F9052008F0D4
:104040007BF96410002CDBD170BD00000008024039
:104050000000024010B505F059FC4FF480710F4884
:10406000FFF78EF9052008F067F94FF400710C484E
:10407000FFF788F9052008F05FF94FF480710748D1
:10408000FFF780F9052008F057F94FF480710348D5
:10409000FFF776F9052008F04FF910BD0000024047
:1040A0000008024010B505F031FC4FF480710E4855
:1040B000FFF768F94FF400710C48FFF763F905202A
:1040C00008F03AF94FF400710848FFF759F9052054
:1040D00008F032F94FF480710348FFF751F90520D9
:1040E00008F02AF910BD000000000240000802405C
:1040F00010B505F00BFC4FF480710E48FFF740F946
:104100004FF400710C48FFF73BF9052008F014F953
:104110004FF480710748FFF735F9052008F00CF9D6
:104120004FF400710448FFF72DF9052008F004F959
:1041300010BD0000000002400008024010B54FF41E
:10414000FA6405F0C7FB052008F0F6F805E0601EEC
:1041500080B2041E01D1012010BD4FF400710B4844
:10416000FFF705F90028F2D14FF480710848FFF7F6
:1041700009F9052008F0E0F84FF480710448FFF7D2
:10418000FFF8052008F0D8F80020E5E70008024015
:104190000000024070B505F035FB40211148FFF7E3
:1041A000EFF8802419E080210E48FFF7E0F808B905
:1041B000A54300E025430A20FEF7C5FD402109483C
:1041C000FFF7E0F80A20FEF7BEFD40210548FFF7A3
:1041D000D7F80A20FEF7B7FD6410002CE3D128467B
:1041E00070BD00000004024010B505F025FB402121
:1041F0000D48FFF7C5F80A20FEF7A5FD80210A4803
:10420000FFF7BEF80A20FEF79EFD40210648FFF7A3
:10421000B9F80A20FEF797FD40210348FFF7B0F8F0
:104220000A20FEF790FD10BD0004024070B505465F
:1042300005F002FB80241DE004EA050020B980217E
:104240000E48FFF79DF803E080210C48FFF79AF82D
:104250000A20FEF778FD40210848FFF793F80A206E
:10426000FEF771FD40210548FFF78AF80A20FEF7A6
:104270006AFD6410002CDFD170BD00000004024014
:1042800010B505F0D9FA40210D48FFF779F80A205A
:10429000FEF759FD80210A48FFF774F80A20FEF75F
:1042A00052FD40210648FFF76DF80A20FEF74BFD4E
:1042B00040210348FFF764F80A20FEF744FD10BDD3
:1042C0000004024010B505F0B7FA40210D48FFF791
:1042D00059F80A20FEF737FD80210A48FFF752F807
:1042E0000A20FEF730FD80210648FFF749F80A2032
:1042F000FEF729FD40210348FFF742F80A20FEF7A8
:1043000022FD10BD0004024010B505F095FA4021D1
:104310000C48FFF735F880210A48FFF731F80A20EA
:10432000FEF711FD40210748FFF72CF80A20FEF7A1
:104330000AFD80210348FFF725F80A20FEF703FD58
:1043400010BD00000004024010B54FF4FA6405F0FF
:1043500059FA0520FEF7F7FC05E0601E80B2041E46
:1043600001D1012010BD80210A48FFF700F8002884
:10437000F3D140210748FFF705F80A20FEF7E3FCD8
:1043800040210448FEF7FCFF0A20FEF7DCFC002079
:10439000E8E700000004024070B500F017F94FF4A0
:1043A00080711348FEF7ECFF80241CE04FF400718D
:1043B0000F48FEF7DCFF08B9A54300E02543C820FD
:1043C000FEF7C1FC4FF480710948FEF7DBFFC820FF
:1043D000FEF7B9FC4FF480710548FEF7D1FFC82005
:1043E000FEF7B1FC6410002CE0D1284670BD00003F
:1043F0000004024010B500F001F94FF480710F483D
:10440000FEF7BEFFC820FEF79EFC4FF400710B487C
:10441000FEF7B6FFC820FEF796FC4FF48071074800
:10442000FEF7B0FFC820FEF78EFC4FF48071034802
:10443000FEF7A6FFC820FEF786FC10BD0004024070
:1044400070B5054600F0DAF8C820FEF77CFC802441
:1044500021E004EA050028B94FF400710F48FEF787
:104460008FFF04E04FF400710C48FEF78BFFC8206B
:10447000FEF769FC4FF480710848FEF783FFC820FF
:10448000FEF761FC4FF480710448FEF779FFC82005
:10449000FEF759FC6410002CDBD170BD0004024013
:1044A00010B500F0ABF84FF480710F48FEF768FFCD
:1044B000C820FEF748FC4FF400710B48FEF762FF7E
:1044C000C820FEF740FC4FF480710748FEF75AFF02
:1044D000C820FEF738FC4FF480710348FEF750FF08
:1044E000C820FEF730FC10BD0004024010B500F0FB
:1044F00085F84FF480710E48FEF744FF4FF40071C9
:104500000B48FEF73FFFC820FEF71DFC4FF400717B
:104510000748FEF735FFC820FEF715FC4FF4807101
:104520000348FEF72DFFC820FEF70DFC10BD00006C
:104530000004024010B500F061F84FF480710E489D
:10454000FEF71EFF4FF400710B48FEF719FFC8205D
:10455000FEF7F9FB4FF480710748FEF713FFC82000
:10456000FEF7F1FB4FF400710348FEF70BFFC82084
:10457000FEF7E9FB10BD00000004024010B541F257
:10458000883400F023F805E0601E80B2041E01D1DB
:10459000012010BD4FF400710B48FEF7E8FE002823
:1045A000F2D14FF480710848FEF7ECFEC820FEF708
:1045B000CAFB4FF480710448FEF7E2FEC820FEF704
:1045C000C2FB0020E5E70000000402401CB54FF4E8
:1045D0000070009000208DF8040003208DF8050085
:1045E00000208DF8060001208DF80700694602487A
:1045F000FEF752FE1CBD0000000402401CB54FF443
:104600000070009001208DF8040003208DF8050053
:1046100000208DF8060001208DF807006946024849
:10462000FEF73AFE1CBD00000004024000B587B052
:10463000FCF706F84FF440304FF480714A01CB008C
:10464000CDE90232CDE90410282000210D4B0E4A9D
:10465000CDE900100D48FEF77DFB01210B48FEF768
:1046600031FA012108484C38FBF73DFF012106488B
:104670004C38FBF72DFF04484C38FBF7C5FF07B05B
:1046800000BD0000AC3300204C200140106402400B
:1046900001200349C870F120496808707047000084
:1046A0002400002030B50B46002100BF16E00A248C
:1046B000B4EB107F05D9302404EB107403F81140DB
:1046C00005E0412404EB10740A3C03F8114000019A
:1046D00000254C00641C1D554C1CE1B29142E6DBE8
:1046E00030BD00BFFEE730B505460C46224600212E
:1046F000284600F001F830BD2DE9F04105460B4693
:1047000094460027002402E03F021F43641C042C4F
:10471000FAD3604605F00306294646B1344603E065
:1047200001F8013B401E641C08B1042CF8D30A4672
:1047300001E080C2001F0428FBD2114602E001F80C
:10474000013B401E0028FAD1BDE8F081704700000F
:1047500070B5002100230F22C4781CB3174C2468C5
:1047600004F4E064C4F5E064C4F30721C1F1040477
:10477000E3B20A4144789C40E1B28478144021437A
:104780000C07210E0E4C05786155047804F01F05C6
:104790000124AC4005786D11AD0005F1E025C5F8A8
:1047A000004109E0047804F01F050124AC40054DE8
:1047B0000678761145F8264070BD00000CED00E04B
:1047C00000E400E080E100E002490143024A116098
:1047D000704700000000FA050CED00E0024A0A40B4
:1047E0000243024B1A60704780FFFF1F08ED00E094
:1047F00070B52DED088B0446204608F0D1F941EC48
:104800001B0B9FED0F0B53EC102B08F0DDF941EC67
:104810001A0B9FED0D0B53EC102B07F0F5FF41EC3D
:10482000190B9FED0B0B53EC102B08F0CBFA41EC5E
:10483000180B08F071F985B22846BDEC088B70BDE5
:104840003333333333333D40000000000000594020
:104850000000000000E0734008B54FF4E060FFF78F
:10486000B3FF34208DF8000000208DF801000120F6
:104870008DF802008DF803006846FFF769FF1120EC
:104880008DF8000000208DF8010002208DF8020054
:1048900001208DF803006846FFF75AFF0F208DF8BE
:1048A000000000208DF8010003208DF80200012097
:1048B0008DF803006846FFF74BFF26208DF80000B7
:1048C00000208DF8010004208DF8020001208DF8F1
:1048D00003006846FFF73CFF1C208DF80000002015
:1048E0008DF8010005208DF8020001208DF80300ED
:1048F0006846FFF72DFF08BD7047000010B503485C
:10490000006810B101480068804710BD40020020D7
:1049100070B5044600F0C2F80020484908704849C4
:104920000870484908704849086048490860484983
:104930000870484908704849087048490860484963
:1049400008604849086048490870484800680A21DA
:10495000B0FBF1F0464908604648006858B1464847
:10496000056845B14348066803E0761E00202860CC
:104970002D1D002EF9D100204049086040490860F3
:104980004049086040490860404908604049086063
:10499000404908604049087002F0F2FD02F0D2FE82
:1049A000204601F03DFF208800B170BD204602F096
:1049B0001DFB208800B1F8E7204602F023FB208889
:1049C00000B1F2E7204602F01FFC208800B1ECE7BE
:1049D000204602F005FE208800B1E6E7204603F0FD
:1049E00025F8208800B1E0E7204603F03FFB20884F
:1049F00000B1DAE7204602F065FA208800B1D4E77A
:104A0000204602F07FF8208800B1CEE7204604F06F
:104A1000BDFA208800B1C8E7204603F071FA20886B
:104A200000B1C2E7204604F029FB208800B1BCE7B2
:104A300001F020FEFFF760FF00BFB6E75402002040
:104A4000550200209C0200200C03002010030020CF
:104A500082020020830200208402002090020020B5
:104A60009402002098020020A40200201CD000081C
:104A7000A0020020ECCF0008E8CF0008340200209C
:104A8000380200203C0200204002002044020020A6
:104A9000480200204C020020D20200200648006894
:104AA0000649096800EB810005490860084600686E
:104AB00020F0070008607047E8CF0008ECCF00083E
:104AC0001403002008480078012800D070470748E8
:104AD0000078FA2800DBF9E704480078401C034915
:104AE000087000BFF2E700005502002054020020C9
:104AF00010B500242D480078012800D010BD00BF5B
:104B0000FBF7D6FB044600BF2948007828B900BF50
:104B10002046FBF7D1FB00BFF0E725480078401E98
:104B20002349087008460078002805DD00BF2046AC
:104B3000FBF7C2FB00BFE1E71E480078002805DD57
:104B400000BF2046FBF7B8FB00BFD7E702F004FD2B
:104B5000194908700846007800EB4000174951F8E1
:104B6000200017490860084600681649096888420D
:104B700005D100BF2046FBF79FFB00BFBEE71048F2
:104B80000068D0F88C00401C0D490968C1F88C0001
:104B90000D480068401C0C490860FBF735FC00BF5D
:104BA0002046FBF789FB00BF00BFA7E755020020A6
:104BB000540200209C020020830200209C5200200E
:104BC000100300200C030020C80200202DE9F04152
:104BD00004460E461546002729480078002804DDC3
:104BE00042F6E1602880BDE8F0811CB945F6C3506B
:104BF0002880F8E700BF00BF00BFFBF759FB07465E
:104C000000BF00BF1F480078401C1E49087000BF4D
:104C100000BF3846FBF750FB00BF00BF00BF1A487B
:104C2000206066600020206284F82500A062402099
:104C300084F8240004F1080002F09DFB204602F0F5
:104C4000CBFA12480088401C1049088000BF00BF02
:104C500000BFFBF72DFB074600BF00BF09480078E7
:104C6000401E0849087000BF00BF3846FBF724FB10
:104C700000BF00BF00BF0020288000BFB3E70000D6
:104C8000540200209C0200204D5554588002002000
:104C90002DE9F04788B00546894690461C46109E8F
:104CA0004FF0000AAB480078002805DD46F2AE1050
:104CB000308008B0BDE8F0871DB945F6C35030809C
:104CC000F7E7B8F1000F03D0B8F5004F02D100E0CC
:104CD00000BF03E045F625603080EAE700BF9E494B
:104CE0002868884203D045F6C4503080E1E70CB113
:104CF0000020206000BF00BFFBF7DAFA824600BF49
:104D000000BF95F82500C0B9944800682862934810
:104D1000006890F8370085F82400012085F8250008
:104D20000CB1A86A206000BF00BF5046FBF7C4FA70
:104D300000BF00BF00203080BBE78849286A0968AF
:104D4000884212D195F82500401C85F825000CB149
:104D5000A86A206000BF00BF5046FBF7ADFA00BF55
:104D600000BF45F282703080A3E708F4004050B1E4
:104D700000BF00BF5046FBF79FFA00BF00BF46F2DE
:104D8000B010308095E77648007800280ADD00BF33
:104D900000BF5046FBF790FA00BF00BF46F66350D5
:104DA000308086E700BF6E480078401C6C49087070
:104DB00000BF00BF5046FBF77FFA00BF00BF00BF37
:104DC0002F6A97F837006549096891F837108842CB
:104DD00060DD97F8360008282AD2DFE800F00415D5
:104DE0001E1F17162021384602F034FD5B4800686C
:104DF00090F8370087F8370097F8370002F0CCFBBF
:104E0000384602F0C7FC44E000BF00BF53480068CA
:104E100090F8370087F837003BE000BF00BF00BFC5
:104E20004E48006890F83710384602F081FA30E0BA
:104E300000BF00BF00BFFBF73BFA824600BF00BFC8
:104E400047480078401E4649087008460078A0B9D7
:104E500044480088002809DD00BF00BF5046FBF72A
:104E60002BFA00BF00BF02F023FD0DE000BF00BF22
:104E70005046FBF721FA00BF06E000BF00BF5046D6
:104E8000FBF71AFA00BF00BF00BF46F62D60308066
:104E90000FE700BF4B4604222946684602F0C0F9DE
:104EA00000BF00BF00BFFBF703FA824600BF00BF90
:104EB0002B480078401E2A49087000BF00BF5046AA
:104EC000FBF7FAF900BF00BF00BF00F073F900BFA5
:104ED00000BFFBF7EDF9824600BF00BF1F48006826
:104EE00090F8350030B101280CD002281AD00328E0
:104EF00021D110E01CB119480068006C206000202E
:104F000030801CE01CB115480068006C206046F23F
:104F1000A910308013E00CB10020206047F2D920A6
:104F200030800CE01CB10D480068006C206045F634
:104F3000C250308003E046F62E60308000BF00BFD4
:104F400000BF00BF5046FBF7B7F900BF00BF00BF6E
:104F5000AFE60000540200204D5554580C030020C9
:104F60009C020020600200202DE9F84F044688468C
:104F700015464FF0000A89480078002804DD46F203
:104F80000E202880BDE8F88F1CB945F6C350288054
:104F9000F8E7B8F1000F03D0B8F5004F02D100E0F8
:104FA00000BF03E045F625602880EBE700BF7C49A1
:104FB0002068884203D045F6C4502880E2E700BF4D
:104FC00000BFFBF775F9824600BF00BF7549206A34
:104FD000096888420AD000BF00BF5046FBF76CF951
:104FE00000BF00BF45F281702880CBE700BF6E484C
:104FF0000078401C6C49087000BF00BF5046FBF7AA
:105000005BF900BF00BF00BFFCF7ECFD0746A762DD
:1050100094F82500401E84F8250094F82500002807
:1050200030DD00BF00BF00BFFBF742F9824600BF82
:1050300000BF5D480078401E5B4908700846007854
:10504000A0B95A480088002809DD00BF00BF5046BB
:10505000FBF732F900BF00BF02F02AFC0DE000BFF1
:1050600000BF5046FBF728F900BF06E000BF00BFB5
:105070005046FBF721F900BF00BF00BF45F2837027
:1050800028807FE704F10809B9F8080098BB0020E0
:10509000206284F8250000BF00BF00BFFBF708F9BD
:1050A000824600BF00BF40480078401E3E4908705D
:1050B00008460078A0B93D480088002809DD00BFF7
:1050C00000BF5046FBF7F8F800BF00BF02F0F0FB4E
:1050D0000DE000BF00BF5046FBF7EEF800BF06E052
:1050E00000BF00BF5046FBF7E7F800BF00BF00BF9E
:1050F0000020288046E7FFE72A48006890F837003C
:1051000094F82410884219D02648006802F0A2FBC7
:1051100094F824002349096881F837002149096877
:1051200091F8370002F038FA1E48006802F052FB8E
:105130001C48006890F837001D490870D9F8000035
:105140008668266296F8370084F82400012084F8E7
:10515000250000231A4631462046009702F07CF9CC
:1051600000BF00BF00BFFBF7A3F8824600BF00BF2F
:105170000D480078401E0C49087000BF00BF504623
:10518000FBF79AF800BF00BF00BF08F4004008B961
:1051900000F010F80020288000BFF3E65402002041
:1051A0004D5554580C0300209C0200206002002042
:1051B0008202002010B500241F480078002800DD7E
:1051C00010BD1E480078002800DDF9E700BFFBF79E
:1051D0006FF8044600BF02F0BFF91949087008468D
:1051E000007800EB4000174951F82000164908608C
:1051F0000846006815490968884205D100BF204665
:10520000FBF75AF800BFDBE70F480068D0F88C00C6
:10521000401C0D490968C1F88C000D480068401C0D
:105220000B490860FBF7EBF800BF2046FBF744F89A
:1052300000BF00BFC4E70000540200209C02002011
:10524000830200209C520020100300200C03002049
:10525000C802002070B504460025184800780028D0
:1052600003DD46F66250208070BD154800780128A5
:1052700003D045F689602080F6E712480078FA28C6
:1052800003DB45F209202080EEE700BF00BFFBF7FB
:105290000FF8054600BF00BF0A480078401C0949C6
:1052A000087002F02FFB00BF00BF2846FBF704F890
:1052B00000BF00BF0020208000BFD5E754020020BF
:1052C000550200209C0200202DE9F04105460C46C5
:1052D0001646002700BF00BFFAF7EAFF074600BFE7
:1052E00000BF012D03D000200D49087002E001200D
:1052F0000B49087014B10B48046006E00A480068C6
:105300000A21B0FBF1F00749086000BF00BF384632
:10531000FAF7D2FF00BF00BF00203080BDE8F08167
:10532000A4020020A00200201CD0000870B5044692
:10533000002520480078002803DD46F665502080CF
:1053400070BD1D480078012803D045F68960208093
:10535000F6E71A48007818B946F664502080EFE75F
:1053600000BF00BFFAF7A4FF054600BF00BF134807
:105370000078401E114908700846007800280ADDB0
:1053800000BF00BF2846FAF797FF00BF00BF46F6F0
:1053900063502080D4E702F0C3FA00BF00BF284664
:1053A000FAF78AFF00BF00BFFFF704FF002020804C
:1053B00000BFC5E754020020550200209C020020D7
:1053C00010B5044612480078E8B902F0C5F8114952
:1053D000087008460078104908700E48007800EB05
:1053E00040000E4951F820000D4908600846006849
:1053F0000C490860012006490870FAF7EFFF43F6F0
:105400009920208002E045F68A60208010BD0000CF
:105410005502002083020020820200209C520020BE
:10542000100300200C0300202DE9F04107464FF047
:10543000000800BF00BFFAF73BFF804600BF00BF77
:1054400000203D4908603D4908803D4908803D49AC
:1054500008603D4908603D4908603D4908603D4994
:10546000088100BF00BF4046FAF726FF00BF00BF1B
:1054700000BF00BFFAF71CFF804600BF00BF3648E0
:10548000046800BF00BF4046FAF716FF00BF00BF28
:1054900021E000BF00BFFAF70BFF804600BF00BF4E
:1054A00000207434E06320602063A061A082E08269
:1054B0006062A062FCF796FB2062743C04F1600617
:1054C0000020B081D4F8B84000BF00BF4046FAF7D2
:1054D000F3FE00BF00BF002CDBD100BF00BFFAF716
:1054E000E7FE804600BF00BF1C48056800BF00BF44
:1054F0004046FAF7E1FE00BF00BF12E000BF00BF68
:10550000FAF7D6FE804600BF00BF05F12006002056
:10551000B081AD6900BF00BF4046FAF7CDFE00BFC5
:1055200000BF002DEAD103F099FB03F04DFE0020EF
:105530003880BDE8F081000068020020620200208F
:10554000B2020020C4020020D8020020FC02002089
:105550009402002090520020CC02002088020020FB
:10556000F8B5044600266946324800F08FFDBDF8C4
:10557000000018B1BDF800002080F8BD6A46002187
:10558000022000F0F7FDBDF8000018B1BDF80000E2
:105590002080F2E700BF00BFFAF78AFE064600BF90
:1055A00000BF00202449086000BF00BF3046FAF762
:1055B00083FE00BF00BF002520480068204909681D
:1055C000884205D91D4800681D490968B0FBF1F5FE
:1055D00025B91A4800680A21B0FBF1F56A46002196
:1055E000284600F0C7FD6946124800F063FABDF88E
:1055F000000018B1BDF800002080BEE700BF00BF6A
:10560000FAF756FE064600BF00BF00200D490860AD
:10561000094800680C49086001200C49087000BF67
:1056200000BF3046FAF748FE00BF00BF00202080D0
:1056300000BFA2E748570020B40200201CD0000899
:1056400004D00008C4020020B8020020C0020020DC
:1056500010B50348006810B101480068804710BDCC
:10566000440200202DE9FF4F87B004469046DDE953
:105670001BA5DDE91496179F00200390874800784A
:10568000002805DD47F24A1028800BB0BDE8F08FF6
:105690001CB947F2AD102880F7E7B8F1000F03D12D
:1056A00047F24F102880F0E71EB946F62F60288099
:1056B000EBE77B480068874203D246F630602880DB
:1056C000E3E71698B84203D346F631602880DCE75A
:1056D000B9F1400F03D346F273202880D5E7B9F122
:1056E000000F06D16F48844203D046F27320288011
:1056F000CBE7B9F13F0F06D16B48844203D046F2A5
:1057000073202880C1E7204602F0C0FC00202880DA
:105710000AF0010090B10AF0020078B1059600206D
:10572000069008E00021059801600598001D05908D
:105730000698401C06900698B842F3D3169806EBDC
:1057400080000490CDE9007A32464046049B0A99D5
:1057500000F06EFB0590C4F828800A98E062089873
:10576000206284F83790059820600498A06019980A
:105770002065199818B94D480068606501E01998CE
:1057800060651A9860606662A763A4F83CA04FF059
:10579000000B08E0002104F1780040F82B100BF119
:1057A000010000F0FF0BBBF1000FF3D004F160002B
:1057B000189901F087FC204600F082F800BF00BF76
:1057C00000BFFAF775FD039000BF00BF38480078AE
:1057D000401C3749087000BF00BF0398FAF76CFD02
:1057E00000BF00BF00BF94F8370001F0D5FE20468F
:1057F00001F0F0FF204602F0FFFB2E480088401C1D
:105800002C4908802C48007801282DD000BF00BF0B
:1058100000BFFAF74DFD039000BF00BF2448007899
:10582000401E2349087008460078A0B92348008824
:10583000002809DD00BF00BF0398FAF73DFD00BF57
:1058400000BF02F035F80DE000BF00BF0398FAF783
:1058500033FD00BF06E000BF00BF0398FAF72CFD40
:1058600000BF00BF00BF10E700BF00BF00BFFAF7D6
:105870001FFD039000BF00BF0D480078401E0C497B
:10588000087000BF00BF0398FAF716FD00BF00BF05
:1058900000BFFFF78FFC00BFF7E6000054020020B6
:1058A00018D00008D051002010510020A002002084
:1058B0009C020020D002002055020020600200203F
:1058C00010B504460348006818B12046014909682C
:1058D000884710BD3402002070B504460D460026EE
:1058E00067480078002803DD47F24E10288070BD1D
:1058F0006448844203D147F24C102880F7E762489D
:10590000844203D147F24D102880F0E77CB900BFF4
:1059100000BFFAF7CDFC064600BF00BF5B48046835
:1059200000BF00BF3046FAF7C7FC00BF00BF00BF92
:1059300000BF00BFFAF7BCFC064600BF00BF5448DA
:105940000078401C5249087000BF00BF3046FAF78B
:10595000B3FC00BF00BF00BF94F8360008282DD26A
:10596000DFE800F004090E10080A0F11204601F0CC
:1059700071FF54E053E000BF204603F043F94EE0CE
:1059800000BF00BF00BF94F83400082810D2DFE841
:1059900000F004070508090A0B0600BF00BF08E075
:1059A00000BF00BF00BF00BF204601F01CFD00E0AB
:1059B00000BF00BF204603F025F930E000BF00BF64
:1059C00000BFFAF775FC064600BF00BF30480078FC
:1059D000401E2F49087008460078A0B92D4800885D
:1059E000002809DD00BF00BF3046FAF765FC00BFA4
:1059F00000BF01F05DFF0DE000BF00BF3046FAF7C9
:105A00005BFC00BF06E000BF00BF3046FAF754FC65
:105A100000BF00BF00BF46F62D60288067E700BFCB
:105A200004F1600001F02CFB204600F037F820461E
:105A300002F0FAFA18480088401E174908802046EC
:105A400002F024FBFF2084F8360000BF00BF00BF37
:105A5000FAF72EFC064600BF00BF0D480078401E36
:105A60000B49087000BF00BF3046FAF725FC00BFA5
:105A700000BF00BF00202880FFF79CFB00BF36E777
:105A80005402002010510020D05100200C030020AF
:105A90009C02002060020020D002002010B50446C5
:105AA0000348006818B1204601490968884710BDBD
:105AB000380200207FB504460D46002600BF00BF17
:105AC000FAF7F6FB064600BF00BF1CB11548006898
:105AD00084420AD100BF00BF3046FAF7EDFB00BF99
