:020000040800F2
:10000000085000207902000819410008613D0008ED
:10001000AF400008CD1E0008B5B400080000000085
:10002000000000000000000000000000EF8F00084A
:10003000D1310008000000000B05000805920008FF
:10004000930200089302000893020008930200083C
:10005000930200089302000893020008930200082C
:10006000930200089302000893020008930200081C
:10007000930200089302000893020008892D0008EB
:1000800093020008992D00089302000893020008CB
:1000900093020008930200089302000893020008EC
:1000A00093020008930200089302000893020008DC
:1000B00093020008930200089302000893020008CC
:1000C00093020008930200089302000893020008BC
:1000D00093020008930200082B970008930200087F
:1000E000930200089302000893020008930200089C
:1000F000930200089302000893020008930200088C
:10010000930200089302000893020008930200087B
:100110001B9700089302000893020008930200084E
:10012000930200089302000893020008930200085B
:10013000930200089302000893020008930200084B
:10014000930200089302000893020008298C00081B
:10015000930200089302000893020008930200082B
:10016000930200089302000893020008930200081B
:10017000930200089302000893020008930200080B
:10018000930200089302000800F002F800F065F8FE
:100190000AA090E8000C82448344AAF10107DA45E2
:1001A00001D100F05AF8AFF2090EBAE80F0013F0CF
:1001B000010F18BFFB1A43F00103184780C5000068
:1001C000A0C500000A444FF0000C10F8013B13F0EA
:1001D000070408BF10F8014B1D1108BF10F8015BA0
:1001E000641E05D010F8016B641E01F8016BF9D193
:1001F00013F0080F1EBF10F8014BAD1C0C1B09D1EA
:100200006D1E58BF01F801CBFAD505E014F8016B5B
:1002100001F8016B6D1EF9D59142D6D370470000ED
:100220000023002400250026103A28BF78C1FBD8FF
:10023000520728BF30C148BF0B6070471FB50CF094
:1002400071F900F0F5F80400002000210BF0D8FC53
:10025000401C60601FBD10B510BD00F0C3F8114612
:10026000FFF7ECFF0BF02EFB00F0E6F803B4FFF70E
:10027000F2FF03BC0BF078FA0948804709480047B1
:10028000FEE7FEE7FEE7FEE7FEE7FEE7FEE7FEE746
:10029000FEE7FEE704480549054A064B70470000A3
:1002A0007592000889010008084A002008500020C3
:1002B000084C0020084C002072B6704762B67047A8
:1002C000EFF3108072B6704780F31088704730BF2C
:1002D000704720BF7047B0FA80F0704790FAA0F0E6
:1002E000B0FA80F0704790FAA0F0704770472DE99F
:1002F000F041054690460E460020044600E0641C8E
:1003000044450BD2285D00F031F80746305D00F01F
:100310002DF8381A02D1295D0029F0D1BDE8F0810D
:100320004FF000020429C0F0128010F0030C00F01E
:100330002C80CCF1040CBCF1020F18BF00F8012B8B
:10034000A8BF20F8022BA1EB0C0100F01EB85FEA59
:10035000C17C24BF00F8012B00F8012B48BF00F836
:10036000012B7047704770477047704710B50446BF
:1003700000F030F80068005DC00602D504F12000EE
:1003800010BD204610BD4FF0000200B51346944644
:100390009646203922BFA0E80C50A0E80C50B1F1DD
:1003A0002001BFF4F7AF090728BFA0E80C5048BFF1
:1003B0000CC05DF804EB890028BF40F8042B08BF8F
:1003C000704748BF20F8022B11F0804F18BF00F88B
:1003D000012B704710B500F02BF8001D10BD00BFB9
:1003E00021B80000754600F031F8AE4605006946B8
:1003F000534620F00700854618B020B5FFF74AFFA6
:10040000BDE820404FF000064FF000074FF0000815
:100410004FF0000B21F00701AC46ACE8C009ACE896
:10042000C009ACE8C009ACE8C0098D4670470000BF
:1004300000487047C849002010B50446AFF300805B
:100440002046BDE81040FFF711BF0000004870478C
:10045000A84900204FF0013C50F8042B51F8043B10
:100460009A4221D1A2EB0C03934313EACC1317D188
:1004700050F8042B51F8043B9A4215D1A2EB0C031F
:10048000934313EACC130BD150F8042B51F8043BDF
:100490009A4209D1A2EB0C03934313EACC13DBD0AD
:1004A0004FF00000704700BFD01A01BAB1FA81F1D5
:1004B00001F0180122FA01F0CB40C1F12001DBB2BA
:1004C000C0B2C01A2CFA01F3D11A914311EAC31138
:1004D000E6D1704722484FF6FF710170002080F38B
:1004E00009882048016881F308881F484FF080512F
:1004F000016062B6FEE71C484FF080510160704712
:1005000019484FF080510160704772B6EFF30980CF
:1005100050B11EF0100F08BF20ED108A203880E87F
:10052000F00F12490968086000B5114880475DF86E
:1005300004EB104810490A7802700C480F490A6809
:100540000260106890E8F00F20301EF0100F08BF16
:10055000B0EC108A80F309884EF0040E62B6704742
:1005600022ED00E00C03002004ED00E00403002075
:100570005D5A00087A0200207B0200200803002058
:1005800021B1826842F00102826003E0826822F0B9
:1005900001028260704700000021084A1168084A81
:1005A0001140D0E900231A4383681A43C3681A43F1
:1005B0001143044AC2F804137047000004230140A9
:1005C000E030FCFF0020014021B1826842F48072DB
:1005D000826003E0826822F480728260704721B1F9
:1005E000826842F40072826003E0826822F4007242
:1005F0008260704730B50246002000235068104CDE
:1006000020400D790C6844EA05242043506090682E
:100610000C4C2040D1E903542C438D682C434D7978
:1006200044EA450420439060D06A20F470000C7DB9
:10063000641EE4B2234340EA0350D06230BD0000A0
:10064000FFFEFFFCFDF7FFC0F0B504460D4600209D
:100650000021092D11DDE068A5F10A0606EB460729
:10066000072606FA07F18843A5F10A0606EB4606B7
:1006700003FA06F10843E0600CE0206905EB45074A
:10068000072606FA07F1884305EB450603FA06F14B
:1006900008432061072A0FDA606B561E06EB8607B7
:1006A0001F2606FA07F18843561E06EB860605FA52
:1006B00006F10843606322E00D2A0FDA206BD61F93
:1006C00006EB86071F2606FA07F18843D61F06EBBE
:1006D000860605FA06F10843206310E0E06AA2F1FD
:1006E0000D0606EB86071F2606FA07F18843A2F1DE
:1006F0000D0606EB860605FA06F10843E062F0BD3A
:10070000816841F0804181607047000038B108493C
:10071000096841F40001074AC2F8041306E00449DD
:10072000096821F40001034AC2F80413704700006D
:10073000042301400020014010B50221094800F0C7
:1007400061FE0120FFF7E2FF072301220F21054888
:10075000FFF77AFF0723022210210248FFF774FFF8
:1007600010BD000000200140F0B58AB0044600230F
:10077000002109E01B4800EB8106601E36F81000DE
:100780002DF81100481CC1B21429F3DB00211AE036
:10079000002212E03DF81260501C3DF81000864225
:1007A00009DD3DF81250501C3DF810002DF81200E4
:1007B000501C2DF81050501CC2B2C1F113009042D1
:1007C000E8DC481CC1B21429E2DB022104E03DF858
:1007D00011000344481CC1B21229F8DB1B0998B26E
:1007E0000AB0F0BD4C25002010B52DED0C8B022079
:1007F000FFF7BAFF04460BF08DFC41EC1D0B9FED9B
:10080000180B53EC102B0BF099FC41EC1C0B9FEDDB
:10081000160B53EC102B0BF0B1FA41EC1B0B9FEDB8
:10082000140B53EC102B0BF093FD41EC1A0B9FEDC6
:10083000120B53EC102B0BF0A1FA41EC190B9FEDAE
:10084000100B53EC102B0BF0F1F941EC180B0BF0E3
:100850001DFCC1B20C4880F83D10BDEC0C8B10BDE6
:100860006666666666660A400000000000FEAF40ED
:1008700052B81E85EB51E83F7B14AE47E17A643FE6
:100880000000000000003940081C002010B52DEDCC
:100890000A8B0120FFF768FF04460BF03BFC41EC9C
:1008A0001C0B9FED130B53EC102B0BF047FC41EC92
:1008B0001B0B9FED110B53EC102B0BF05FFA41EC6F
:1008C0001A0B9FED0F0B53EC102B0BF037FC41EC88
:1008D000190B9FED0D0B53EC102B0BF0A7F941EC0E
:1008E000180B0BF0D3FB0A490887BDEC0A8B10BD2F
:1008F0006666666666660A400000000000FEAF405D
:100900000000000000005940000000000000E03F2F
:10091000081C002010B50E212B4800F073FD0723A2
:1009200001220A212848FFF78FFE072302220B210C
:100930002548FFF789FE072303220C212248FFF7F1
:1009400083FE072304220D211F48FFF77DFE0723A6
:1009500005220E211C48FFF777FE072306220921F6
:100960001948FFF771FE07231A4604211648FFF7BE
:100970006BFE0723082206211348FFF765FE0723B5
:1009800009220F211048FFF75FFE07230A220221E8
:100990000D48FFF759FE07230B2205210A48FFF7F0
:1009A00053FE07230C2203210748FFF74DFE0723C0
:1009B0000D2219460448FFF747FE07230E2208219F
:1009C0000148FFF741FE10BD00220140F0B58AB09A
:1009D0000446002300210BE0C1EBC1001B4E06EBD7
:1009E0008006601E36F810002DF81100481CC1B2B8
:1009F0001429F1DB00211AE0002212E03DF8126018
:100A0000501C3DF81000864209DD3DF81250501C84
:100A10003DF810002DF81200501C2DF81050501CFD
:100A2000C2B2C1F113009042E8DC481CC1B21429E3
:100A3000E2DB022104E03DF811000344481CC1B28E
:100A40001229F8DB1B0998B20AB0F0BD1C23002064
:100A500000B593B00120FFF7B9FF05900BF05AFBEA
:100A60009FEDFE0B53EC102BCDE906019DED060B1F
:100A700051EC100B0BF062FB9FEDFA0B53EC102BBB
:100A8000CDE908019DED080B51EC100B0BF076F948
:100A90009FEDF60B53EC102BCDE90A019DED0A0BEF
:100AA00051EC100B0BF06AF99FEDF20B53EC102B8D
:100AB000CDE90C019DED0C0B51EC100B0BF03EFB46
:100AC0009FEDEE0B53EC102BCDE90E019DED0E0BBF
:100AD00051EC100B0BF032FBCDE910019DED100B2A
:100AE00051EC100B0BF0D2FAE64988830220FFF795
:100AF0006DFF01900BF00EFB9FEDD80B53EC102B0C
:100B0000CDE902019DED020B51EC100B0BF016FB31
:100B10009FEDD40B53EC102BCDE904019DED040B9C
:100B200051EC100B0BF02AF99FEDCC0B53EC102B72
:100B3000CDE906019DED060B51EC100B0BF0FCFB13
:100B40009FEDD10B53EC102BCDE908019DED080B67
:100B500051EC100B0BF012F99FEDCD0B53EC102B59
:100B6000CDE90A019DED0A0B51EC100B0BF0E6FAF2
:100B70009FEDBA0B53EC102BCDE90C019DED0C0B46
:100B800051EC100B0BF0E4FB9FEDBC0B53EC102B66
:100B9000CDE90E019DED0E0B51EC100B0BF0CEFAD2
:100BA000CDE910019DED100B51EC100B0BF06EFA1E
:100BB000B449C8830320FFF709FF05900BF0AAFA98
:100BC0009FEDA60B53EC102BCDE906019DED060B16
:100BD00051EC100B0BF0B2FA9FEDA20B53EC102B63
:100BE000CDE908019DED080B51EC100B0BF0C6F898
:100BF0009FED9E0B53EC102BCDE90A019DED0A0BE6
:100C000051EC100B0BF0BAF89FED9A0B53EC102B34
:100C1000CDE90C019DED0C0B51EC100B0BF08EFA95
:100C20009FED960B53EC102BCDE90E019DED0E0BB5
:100C300051EC100B0BF082FACDE910019DED100B79
:100C400051EC100B0BF022FA8E4908840420FFF7B8
:100C5000BDFE01900BF05EFA9FED800B53EC102B64
:100C6000CDE902019DED020B51EC100B0BF066FA81
:100C70009FED7C0B53EC102BCDE904019DED040B93
:100C800051EC100B0BF07AF89FED740B53EC102B1A
:100C9000CDE906019DED060B51EC100B0BF04CFB62
:100CA0009FED790B53EC102BCDE908019DED080B5E
:100CB00051EC100B0BF062F89FED750B53EC102B01
:100CC000CDE90A019DED0A0B51EC100B0BF036FA41
:100CD0009FED620B53EC102BCDE90C019DED0C0B3D
:100CE00051EC100B0BF034FB9FED640B53EC102B0D
:100CF000CDE90E019DED0E0B51EC100B0BF01EFA21
:100D0000CDE910019DED100B51EC100B0BF0BEF96D
:100D10005C4948840520FFF759FE05900BF0FAF96D
:100D20009FED4E0B53EC102BCDE906019DED060B0C
:100D300051EC100B0BF002FA9FED4A0B53EC102B09
:100D4000CDE908019DED080B51EC100B0BF016F8E6
:100D50009FED510B53EC102BCDE90A019DED0A0BD1
:100D600051EC100B0BF00AF89FED4D0B53EC102BD0
:100D7000CDE90C019DED0C0B51EC100B0BF0DEF9E5
:100D80009FED3E0B53EC102BCDE90E019DED0E0BAC
:100D900051EC100B0BF0D2F9CDE910019DED100BC9
:100DA00051EC100B0BF072F9364988840620FFF7DE
:100DB0000DFE05900BF0AEF99FED280B53EC102BB8
:100DC000CDE906019DED060B51EC100B0BF0B6F9C9
:100DD0009FED240B53EC102BCDE908019DED080B82
:100DE00051EC100B0AF0CAFF9FED2B0B53EC102BAC
:100DF000CDE90A019DED0A0B51EC100B0AF0BEFF84
:100E00009FED270B53EC102BCDE90C019DED0C0B46
:100E100051EC100B0BF092F99FED180B53EC102BCB
:100E2000CDE90E019DED0E0B51EC100B0BF086F988
:100E3000CDE910019DED100B51EC100B0BF026F9D4
:100E40001049C8840720FFF7C1FD05900BF062F937
:100E50009FED020B53EC102B26E0000066666666E1
:100E600066660A400000000000FEAF40E17A14AE62
:100E700047E11040AE47E17A140E5A4000000000EE
:100E800000005940081C00205C8FC2F5285C05401A
:100E90007B14AE47E1AA59400000000000002E403C
:100EA0003333333333F34340CDE906019DED060B75
:100EB00051EC100B0BF042F91FED160B53EC102BFD
:100EC000CDE908019DED080B51EC100B0AF056FF1F
:100ED0009FEDFE0B53EC102BCDE90A019DED0A0BA3
:100EE00051EC100B0AF04AFF9FEDFA0B53EC102B5C
:100EF000CDE90C019DED0C0B51EC100B0BF01EF924
:100F00001FED220B53EC102BCDE90E019DED0E0BC6
:100F100051EC100B0BF012F9CDE910019DED100B07
:100F200051EC100B0BF0B2F8EC4908850820FFF7E4
:100F30004DFD01900BF0EEF81FED380B53EC102B2C
:100F4000CDE902019DED020B51EC100B0BF0F6F810
:100F50001FED3C0B53EC102BCDE904019DED040B70
:100F600051EC100B0AF00AFF1FED440B53EC102B51
:100F7000CDE906019DED060B51EC100B0BF0DCF9F1
:100F80009FEDD20B53EC102BCDE908019DED080B22
:100F900051EC100B0AF0F2FE9FEDD10B53EC102B2D
:100FA000CDE90A019DED0A0B51EC100B0BF0C6F8D0
:100FB0001FED560B53EC102BCDE90C019DED0C0BE6
:100FC00051EC100B0BF0C4F91FED540B53EC102B2C
:100FD000CDE90E019DED0E0B51EC100B0BF0AEF8B0
:100FE000CDE910019DED100B51EC100B0BF04EF8FC
:100FF000BA4948850920FFF7E9FC05900BF08AF80B
:101000001FED6A0B53EC102BCDE906019DED060B8D
:1010100051EC100B0BF092F81FED6E0B53EC102BF4
:10102000CDE908019DED080B51EC100B0AF0A6FE6E
:101030001FED670B53EC102BCDE90A019DED0A0B58
:1010400051EC100B0AF09AFE1FED6B0B53EC102BBA
:10105000CDE90C019DED0C0B51EC100B0BF06EF873
:101060001FED7A0B53EC102BCDE90E019DED0E0B0D
:1010700051EC100B0BF062F8CDE910019DED100B57
:1010800051EC100B0BF002F8944988850A20FFF709
:101090009DFC05900BF03EF81FED900B53EC102BD0
:1010A000CDE906019DED060B51EC100B0BF046F857
:1010B0001FED940B53EC102BCDE908019DED080BAF
:1010C00051EC100B0AF05AFE1FED8D0B53EC102B58
:1010D000CDE90A019DED0A0B51EC100B0AF04EFE12
:1010E0001FED910B53EC102BCDE90C019DED0C0B7A
:1010F00051EC100B0BF022F81FEDA00B53EC102B52
:10110000CDE90E019DED0E0B51EC100B0BF016F816
:10111000CDE910019DED100B51EC100B0AF0B6FF5C
:101120006E49C8850B20FFF751FC01900AF0F2FFD1
:101130001FEDB60B53EC102BCDE902019DED020B18
:1011400051EC100B0AF0FAFF1FEDBA0B53EC102B09
:10115000CDE904019DED040B51EC100B0AF00EFEDD
:101160001FEDC20B53EC102BCDE906019DED060BD4
:1011700051EC100B0BF0E0F89FED540B53EC102BDF
:10118000CDE908019DED080B51EC100B0AF0F6FDBE
:101190009FED530B53EC102BCDE90A019DED0A0B8B
:1011A00051EC100B0AF0CAFF1FEDD40B53EC102BBF
:1011B000CDE90C019DED0C0B51EC100B0BF0C8F8B8
:1011C0001FEDD20B53EC102BCDE90E019DED0E0B54
:1011D00051EC100B0AF0B2FFCDE910019DED100BA0
:1011E00051EC100B0AF052FF3C4908860C20FFF727
:1011F000EDFB05900AF08EFF1FEDE80B53EC102B72
:10120000CDE906019DED060B51EC100B0AF096FF9F
:101210001FEDEC0B53EC102BCDE908019DED080BF5
:1012200051EC100B0AF0AAFD1FEDE50B53EC102B4F
:10123000CDE90A019DED0A0B51EC100B0AF09EFD61
:101240001FEDE90B53EC102BCDE90C019DED0C0BC0
:1012500051EC100B0AF072FF1FEDF80B53EC102B42
:10126000CDE90E019DED0E0B51EC100B0AF066FF5F
:10127000CDE910019DED100B51EC100B0AF006FFAB
:10128000164948860D20FFF7A1FB05900AF042FFA2
:101290009FED150B53EC102BCDE906019DED060BD0
:1012A00051EC100B0AF04AFF9FED110B53EC102B81
:1012B000CDE908019DED080B51EC100B0AF05EFD25
:1012C0009FED0D0B53EC102B1AE00000F6285C8FFD
:1012D000C2F51340A4703D0AD7E33D40081C00202E
:1012E0008FC2F5285CBF5C406666666666660A402B
:1012F0000000000000FEAF4000000000000024409D
:10130000CDE90A019DED0A0B51EC100B0AF036FDF8
:101310009FED370B53EC102BCDE90C019DED0C0B21
:1013200051EC100B0AF00AFF9FED330B53EC102B1E
:10133000CDE90E019DED0E0B51EC100B0AF0FEFEF7
:10134000CDE910019DED100B51EC100B0AF09EFE43
:101350002B4988860E20FFF739FB05900AF0DAFE4C
:101360001FED1F0B53EC102BCDE906019DED060B75
:1013700051EC100B0AF0E2FE1FED230B53EC102B87
:10138000CDE908019DED080B51EC100B0AF0F6FCBD
:101390001FED270B53EC102BCDE90A019DED0A0B35
:1013A00051EC100B0AF0EAFC9FED110B53EC102BE3
:1013B000CDE90C019DED0C0B51EC100B0AF0BEFEBB
:1013C0009FED0D0B53EC102BCDE90E019DED0E0B97
:1013D00051EC100B0AF0B2FECDE910019DED100B9F
:1013E00051EC100B0AF052FE0549C88613B000BD3F
:1013F00000000000000034400000000000005940E0
:10140000081C002030B58BB004460D461C488442B1
:1014100003D10121801507F0B1FC1A48844203D1A1
:101420000121401507F0AAFC1748844203D101218D
:10143000001507F0A3FC002007904FF480300890BF
:10144000002009900A9007A8FFF7A6F80020019055
:1014500001208DF808008DF80900002003904FF05E
:1014600070600490002005908DF8185001A9204666
:10147000FFF7C0F801212046FFF782F80BB030BD1E
:1014800000200140002101400022014010B5FF2151
:10149000084600F0BDF810BD10B540F6FF7000F032
:1014A000DBF80349C888FF2100F0C4F810BD000034
:1014B000081C002010B540F6FF7000F0CDF840F693
:1014C000FF7000F0D8F8FF21084600F0B3F810BD17
:1014D00010B52548808841F64C51884243DC2248AB
:1014E0008088B0F57A7F3EDB1F48C08888423ADCAE
:1014F0001D48C088B0F57A7F35DB1B480089B0F500
:10150000FA7F30DC18480089FA282CDB164840891D
:10151000B0F5FA7F27DC14484089FA2823DB4FF422
:101520000041124802F000F84FF480410F4801F0EA
:10153000FBFFFFF7B1FF0C49888800F08DF80A4ADD
:101540005189D08800F076F8074A5189108900F057
:101550005FF84FF40041054801F0E4FF4FF480418B
:10156000024801F0E1FF10BD081C002000180240F5
:1015700010B52548808841F64C51884242DC22480B
:101580008088B0F57A7F3DDB1F48C088884239DC0F
:101590001D48C088B0F57A7F34DB1B48008988423B
:1015A00030DC19480089B0F5FA7F2BDB16484089FA
:1015B000884227DC14484089B0F5FA7F22DB4FF4DB
:1015C0000041124801F0B0FF4FF480410F4801F094
:1015D000ABFFFFF75BFF0C49888800F03DF80A4934
:1015E000088900F048F8084A5189D08800F022F8AC
:1015F0004FF40041054801F095FF4FF48041034846
:1016000001F090FF10BD0000081C002000180240EF
:101610002DE9F04105460C46284607F04BFB0646EF
:10162000204602F0CBFD0746F9B2F0B201F07EFC95
:10163000BDE8F0812DE9F04105460C46284609F049
:10164000F1FF0646204609F0EDFF0746F9B2F0B279
:1016500001F0BAFCBDE8F08170B5044620460AF0FE
:1016600031F805462946002000F0EEFD012100205A
:1016700000F00AFE70BD70B5044620460AF022F85C
:1016800005462946002000F0EFFD0121102000F062
:10169000FBFD70BD0EB550E1A84A1179106807F046
:1016A00007FC012806D1A64A11791068FEF738FE1A
:1016B00000F0A2FCA34A1179106807F0F9FB012899
:1016C00006D1A04A11791068FEF72AFE00F094FCBA
:1016D0009C4A1179106801F0DBFC20B1994A11791C
:1016E0001068FEF71DFE984890F8490001283CD18B
:1016F0000021954880F849100220944988700820FC
:10170000C8709148808B0012496808708E48007F2D
:101710008E49496848708C48C08B00128B494968D3
:1017200088708948807F89494968C8708648008CDC
:101730000012864949680871834890F8200083495F
:10174000496848718048408C001280494968887116
:101750007D4890F822007D494968C8717C49086835
:1017600001F028FE7B4807F043FC774890F84A00D8
:1017700001283CD10021744880F84A1003207349A5
:1017800088700820C8707048808B00124968087003
:101790006D48007F6D49496848706B48C08B0012E6
:1017A0006A49496888706848807F68494968C87094
:1017B0006548008C0012654949680871624890F8D4
:1017C00020006249496848715F48408C00125F49B7
:1017D000496888715C4890F822005C494968C87182
:1017E0005B49086801F0E6FD5A4807F001FC5648DD
:1017F00090F8480001283CD10020534981F8480066
:10180000F020524988700820C8704F48808B001221
:10181000496808704C48007F4C49496848704A48FC
:10182000C08B00124949496888704748807F474902
:101830004968C8704448008C0012444949680871DE
:10184000414890F820004149496848713E48408C21
:1018500000123E49496888713B4890F822003B4994
:101860004968C8713A49086801F0A4FD394807F091
:10187000BFFB354890F84D0001283CD1002132488B
:1018800080F84D100420314988700820C8702E4817
:10189000808B0012496808702B48007F2B494968EB
:1018A00048702948C08B001228494968887026482A
:1018B000807F26494968C8702348008C001223495C
:1018C00049680871204890F820002049496848710B
:1018D0001D48408C00121D49496888711A4890F8CB
:1018E00022001A494968C8711949086801F062FD67
:1018F000184807F07DFB144890F84E00012812D1DB
:101900000021114880F84E10A02010498870202036
:10191000C870114848600A49086801F04BFD0D483D
:10192000303007F065FB02A808210A230022CDE928
:1019300000101146104604F05BF9ADE6900000205F
:101940009800002080000020081C002024000020B7
:1019500088000020706002403000002000B58BB08D
:101960000AA8032100220592CDE90621089010461D
:101970004FF480711922074BCDE90132CDE90310F4
:1019800006200023044A05A10090084803F022FB2A
:101990000BB000BD80120020951600084170705FEA
:1019A000436F6D5F5461736B00000000C011002035
:1019B0000EB50FE04FF48061074801F0B7FD02A8B3
:1019C00008214FF4FA730022CDE9001011461046A9
:1019D00004F00EF9EEE70000000C024000B58BB0F9
:1019E0000AA8032100220592CDE90621089010469D
:1019F0004FF480711922074BCDE90132CDE9031074
:101A000003200023044A05A10090084803F0E2FAED
:101A10000BB000BDC0080020B11900084170705F14
:101A20004C65645F5461736B000000000008002087
:101A300010B586B0002400F04BFA05A803F048FA70
:101A400005AA0121084603F0F7F800BF00BF00BF58
:101A5000FEF736FC044600BF00BF2D480078401C4E
:101A60002B49087000BF00BF2046FEF72DFC00BFC9
:101A700000BF00BFFFF7B2FF00F0C2F9FFF76EFF33
:101A800000F09AF805A80021224A0223CDE900328D
:101A9000CDE9021001231A461FA1244804F0C8F919
:101AA00005A9224804F01EFA05A9214803F0A6FF63
:101AB00000BF00BF00BFFEF703FC044600BF00BF2D
:101AC00013480078401E1249087008460078A0B9F3
:101AD00018480088002809DD00BF00BF2046FEF737
:101AE000F3FB00BF00BF05F09BFB0DE000BF00BF94
:101AF0002046FEF7E9FB00BF06E000BF00BF20461E
:101B0000FEF7E2FB00BF00BF00BF06B010BD000043
:101B1000940200206DB700085379735F53746174A9
:101B20006543686B5F546D7200000000D0030020B5
:101B3000100300205802002000B58BB00AA8032132
:101B400000220592CDE90621089010464FF48071DD
:101B50001922074BCDE90132CDE903101E200023E5
:101B6000044A05A10090084803F034FA0BB000BD08
:101B700000040020311A00084170705F53746172D4
:101B8000745F5461736B0000100300200EB511E008
:101B9000BDF8080007F0CEFBBDF8080007F0E2FC36
:101BA00002A808210A230022CDE9001011461046A0
:101BB00004F01EF8ECE7000000B58BB00AA8032182
:101BC00000220592CDE90621089010464FF480715D
:101BD0001922074BCDE90132CDE90310082000237B
:101BE000044A05A10090084803F0F4F90BB000BDC9
:101BF000401700208D1B00085379734F6E4F6666A7
:101C00005461736B54636200801600200EB5E5E0EA
:101C100009F09EFC60B172480068C1B2714807F0DB
:101C200047F9012801D100F0E7F900206C4908606C
:101C30006D4890F8490001283FD100216A4880F89A
:101C400049100220694988700820C8706648808B56
:101C50000012496808706448007F64494968487008
:101C60006148C08B00126149496888705E48807F76
:101C70005E494968C8705C48008C00125B4949683D
:101C80000871594890F820005849496848715648E9
:101C9000408C0012554949688871534890F82200D9
:101CA00052494968C871524801F084FB5048C078D5
:101CB000811D5048C2684E4890474B4890F84A00F2
:101CC00001283FD10021484880F84A1003204749A5
:101CD00088700820C8704448808B001249680870DA
:101CE0004148007F4149496848703F48C08B001215
:101CF0003E49496888703C48807F3C494968C870C3
:101D00003948008C0012394949680871364890F802
:101D100020003649496848713348408C00123349E5
:101D200049688871304890F8220030494968C87184
:101D30002F4801F03FFB2E48C078811D2D48C26816
:101D40002B489047284890F84B00A8B1012126481D
:101D500080F84B100020254988700120C8700020B1
:101D600049680870224801F025FB2148C078811D90
:101D70002048C2681E4890471B4890F84C0018B392
:101D80000121194880F84C1013201849C8700846E2
:101D90004168194802680A6042684A6002890A81FB
:101DA000807A88721148406814490A6840F80B2FFD
:101DB000496841600E4801F0FDFA0D48C078811D68
:101DC0000C48C2680A48904702A808210A2300224A
:101DD000CDE900101146104603F00AFF18E7000095
:101DE000B0000020DE260020081C00202400002077
:101DF000C00C0020BC000020000000200B000020D0
:101E000000B58BB00AA8032100220592CDE9062176
:101E1000089010464FF480711922074BCDE901322A
:101E2000CDE9031004200023044A05A100900848CE
:101E300003F0D0F80BB000BDC00D00200D1C000851
:101E40004170705F5573625F5461736B00000000F6
:101E5000000D00201FB5684606F0A0FF019804B0F1
:101E600010BD000008B500214FF0006002F09CF9A1
:101E700002F0D8F901F008FC1048114B114A012179
:101E80000090114807F0D3FF07F0C6F900F048F9B9
:101E900001F0B6F907F032F9FFF70CFBFFF7F6FA9D
:101EA00009F08CFB02F0A8F8002001F0DBF810200C
:101EB00001F0D8F801F07CFA08BD000028010020EC
:101EC00068010020D0000020601C002000BFFEE759
:101ED00010B500F01FF800F019F810BD10B500247F
:101EE00000BF00BFFEF7ECF9044600BF00BF1021A1
:101EF000054802F0DEF800BF00BF2046FEF7E4F917
:101F000000BF00BF10BD00001E2F002010B5FFF75E
:101F1000E5FF10BD10B500200249086000F00AF886
:101F200010BD000020020020014908607047000039
:101F30002002002010B5FFF78DFF04460848006816
:101F400040F0807006490860002006494860084655
:101F5000006840F0010008602046FFF7E5FF10BD73
:101F6000FCED00E0001000E0014948687047000007
:101F7000001000E01F48808896301E49888108467E
:101F800080889638C881084680889630088208463E
:101F900080889638488208460078012811D10020B0
:101FA000087008460089963088820846008996386D
:101FB000C88208460089963008830846008996380A
:101FC00048830C484078012812D100200949487004
:101FD0000846008964308882084600896438C882CF
:101FE00008460089643008830846008964384883BD
:101FF00070470000081C002010B5134880780328A3
:1020000016D005DC58B101280CD0022816D10CE0FE
:10201000042810D0A02811D101F004FB11E001F038
:1020200009FB0EE001F0F6FA0BE001F0BBFA08E064
:1020300001F080FA05E001F01FFB02E002F00EF86B
:1020400000BF00BF10BD00001800002010B540F216
:1020500024412D4807F095FB18B340F224412A484B
:1020600007F06BFB284800882748001D00880021E6
:10207000264800F0CDFE2649244800F095FE23486E
:1020800000F0D1FEC0F164002249087108460068E2
:102090001E494039C8646420486401211B4800F08F
:1020A000B7FE40F224411C4807F06BFB50B340F2EE
:1020B0002441194807F041FB174800881648001DC5
:1020C000008800211148483000F0A2FE10490F4856
:1020D000483000F069FE0D48483000F0A4FEC0F121
:1020E00064000E49087108460068084954310860C8
:1020F000642006494039C1F88C000121034848306A
:1021000000F086FE10BD0000004C00404060024020
:1021100020000020800000200044004090000020AB
:1021200000B587B04FF4E1312C4809F0C5F9002221
:1021300040F22551294807F04EFB002240F227715A
:10214000264807F048FB012240F22441234807F0CB
:1021500042FB01224021214807F00AFB0122802195
:102160001E4807F005FB4FF440304FF48071002209
:102170000292CDE9032105900420CDE90020184802
:10218000164A121DC9040368164801F0A5F84FF459
:1021900040304FF4807100220292CDE90321059076
:1021A00004204021CDE900100F480C4A121D4905BA
:1021B00003680C48183001F08FF80121094800F03D
:1021C00027FE00210748183000F022FE01221021CE
:1021D0000448183000F05EFE07B000BD0044004027
:1021E00090000020886002409800002039B1084A21
:1021F0001268012383401A43054B1A6006E0044A23
:102200001268012383409A43014B1A607047000013
:102210000074004030B5002200230A4C226840F6CA
:10222000FE748440A243D1E900452C438D682C43C1
:10223000CD6844EA050303FA00F42243014C22600E
:1022400030BD00000074004008B500220092054A2D
:10225000009200F10802009B1A440092009A11605B
:1022600008BD00000074004008B500220092054A35
:10227000009200F11402009B1A440092009A11602F
:1022800008BD00000074004010B541B1084A126852
:1022900004090123A3401A43054B1A6007E0044ACE
:1022A000126804090123A3409A43014B1A6010BD30
:1022B0000474004070B506460C4604F08000802887
:1022C00008D104F07F0000EB800106F58E7000EB72
:1022D000C10507E004F07F0000EB800106F55D70AA
:1022E00000EBC10504F07F00287004F08000C009F5
:1022F00068702946304608F06EFD002070BD70B54C
:1023000006460C4604F08000802808D104F07F00C7
:1023100000EB800106F58E7000EBC10505E004EBD3
:10232000840106F55D7000EBC1050020A87004F083
:102330007F002870C4F3C01068702946304608F04A
:1023400022FD002070BD2DE9F04106460D46904665
:102350001F4605F08000802808D105F07F0000EBC3
:10236000800106F58E7000EBC10407E005F07F00E8
:1023700000EB800106F55D7000EBC10405F07F0005
:10238000207005F08000C0096070C4F80880E77014
:10239000607808B12078E080022F01D10020207100
:1023A0002146304608F0A3FC0020BDE8F0812DE96D
:1023B000F04105460E461746984606F07F0000EBB2
:1023C000800105F55D7000EBC104E760C4F814807E
:1023D0000020A061607006F07F002070E87801287E
:1023E00000D12761207820B92146284608F0A3FBB8
:1023F00003E02146284608F06DFD0020BDE8F0818D
:1024000008B500220092009A61F30A120092026954
:102410001268009B1A4303691A6008BD70B506462E
:102420000C4604F08000802808D104F07F0000EB07
:10243000800106F58E7000EBC10505E004EB840118
:1024400006F55D7000EBC1050120A87004F07F0067
:102450002870C4F3C01068702946304608F008FDA3
:10246000002070BD2DE9F04107460D4616469846FE
:1024700005F07F0000EB800107F58E7000EBC104D2
:102480000120607005F07F002070E660266100206A
:10249000A061C4F81480207820B92146384608F09D
:1024A0004AFB03E02146384608F014FD0020BDE851
:1024B000F081000030B587B00546594C284608F039
:1024C00000FB01A806F06AFC029CE868C068059061
:1024D000059820F4705005900598E968C860284672
:1024E00008F0CAFE03280BD10020A8704FF400703A
:1024F000A880059820F4705000F5105005907EE0FB
:102500000120A8704020A8804648844209D346484C
:10251000844206D2059820F4705000F56050059072
:102520006DE04148844209D34048844206D2059870
:1025300020F4705000F55050059060E03B48844214
:1025400009D33B48844206D2059820F4705000F528
:102550004050059053E03648844209D335488442C0
:1025600006D2059820F4705000F53050059046E0F2
:102570003048844209D33048844206D2059820F47A
:10258000705000F52050059039E02B48844209D363
:102590002A48844206D2059820F4705000F5105065
:1025A00005902CE02548844209D32548844206D270
:1025B000059820F4705000F5005005901FE0204869
:1025C000844209D31F48844206D2059820F47050F3
:1025D00000F5E050059012E01A48844209D31A48E9
:1025E000844206D2059820F4705000F5C050059042
:1025F00005E0059820F4705000F5A050059005986E
:10260000E968C86000200690069820F4005000F5A4
:10261000005006900698E9684861012007B030BD77
:10262000007A030AC0E1E4000024F400E0EC0401B5
:1026300000C31801002D310140A44C0100366E0189
:1026400040E2950180C3C90160600B02F8B5054600
:10265000002400200090284608F04FFE064681E046
:1026600006F0010000287BD0E1B2284600F00CFB08
:102670000090009800F0010030B3012000FA04F748
:102680002869406BB843296948630020009000988E
:1026900020F00100401C009005F1180050F82400C3
:1026A00000998160E1B2324800684268284690474C
:1026B000E878012808D13CB940F21110405D0428A7
:1026C00002D1284608F0E2FA0098C0F3C00060B1D9
:1026D00000200090009820F008000830009005F1DC
:1026E000180050F82400009981600098C0F3001091
:1026F00060B100200090009820F010001030009091
:1027000005F1180050F82400009981600098C0F38A
:10271000801060B100200090009820F04000403010
:10272000009005F1180050F824000099816000988D
:10273000C0F3400060B100200090009820F002003B
:10274000801C009005F1180050F824000099816069
:102750000098C0F3C01018B12146284600F0BEFA18
:10276000641C7608002E7FF47BAF0120F8BD0000CA
:102770000C0200207CB50446002500200190204674
:1027800008F0C3FD06466FE006F00100002869D09E
:10279000E9B2204608F0C1FD0190019800F0010067
:1027A000C8B300200190019820F00100401C019066
:1027B00004F1540050F8250001998160E078012867
:1027C00017D104F1540050F825000069009005EB82
:1027D000850104F55D7000EBC10080680099C1F3CC
:1027E0001201411A05EB850204F55D7000EBC20091
:1027F0008161E9B21E480068026820469047E0788F
:10280000012808D13DB940F21110005D052802D120
:10281000204608F03BFA0198C0F3400060B1002068
:102820000190019820F00200801C019004F15400F6
:1028300050F82500019981600198C0F3C00088B16B
:102840000B48006881682046884700200190019865
:1028500020F008000830019004F1540050F82500E1
:10286000019981606D1C7608002E8DD101207CBD00
:102870000C0200203EB50446A07A78B1D4F80C01D1
:1028800000680090009820F002000090009820F06E
:10289000010000900099D4F80C0101600020019023
:1028A000019820F00100401C0190206940680199C6
:1028B0008843216948600948006881692046884743
:1028C00000200290029820F0004000F100400290A9
:1028D0000298E168486101203EBD00000C02002022
:1028E0007CB5044600200190019820F010001030C3
:1028F0000190E068806901998843E1688861E06837
:10290000006A0090009800F00F0000EB800104F5D1
:102910005D7000EBC1050098C0F3434007282DD23D
:10292000DFE800F02C04051D1E2C1F0027E0009896
:10293000C0F30A1090B10098C0F30A122046E9686B
:1029400008F0F5FCE8680099C1F30A110844E86052
:10295000A8690099C1F30A110844A8610FE00EE0CC
:102960000DE0082204F2CC51204608F0E0FCA869F2
:102970000099C1F30A110844A86100E000BF00BF3C
:10298000E068806901990843E168886101207CBDA5
:1029900038B5044608480068C168204688470020CA
:1029A0000090009820F00800083000900098E1683E
:1029B0004861012038BD00000C0200201FB504460C
:1029C000002000904FF48970005D0090234800685B
:1029D0004169204688472069806801900020039063
:1029E000039820F4006000F5006003900398E1680C
:1029F0004861A07A70B3019800F0010050B340F232
:102A00001510005D012825D19DF80000032821D173
:102A100000200290029820F00100401C0290D4F89F
:102A20000C01006802990843D4F80C110860029860
:102A300020F00200801C0290D4F80C01006802997A
:102A40000843D4F80C1108600548006840F00600FF
:102A500003490860012004B010BD00000C020020F2
:102A600010ED00E030B587B00446002002900690DB
:102A70000590049003900190029820F00100401C02
:102A800002902069406802998843216948600021CA
:102A9000204608F0C7FB00250BE0FF2104F11800D9
:102AA00050F82500816004F1540050F82500816041
:102AB0006D1C6078A842F0D84FF0FF312069816129
:102AC00006986FF30F00401C0690069880B200F540
:102AD0008030069006992069C161059820F00800B1
:102AE00008300590059820F00100401C05900598DD
:102AF00020F00200801C059005992069416104982E
:102B000020F00100401C0490049820F008000830D8
:102B10000490049820F00200801C0490049920691D
:102B20000161206900680390039820F4FE6003901F
:102B3000039920690160204608F0A8F80020019060
:102B4000019820F4805000F5805001900198E168D0
:102B5000486104480068016920468847012007B0A1
:102B600030BD00000C0200202DE9F04106460F4662
:102B70003946304608F0F0FB01214FF48970815549
:102B80000021801C8155002511E005EB850106F52B
:102B90008E7000EBC104012060702570E58000207C
:102BA000E0704020A0600020E06060616D1C7078E3
:102BB000A842EAD8002510E005EB850106F55D7016
:102BC00000EBC104002060702570E580E0704020BB
:102BD000A0600020E06060616D1C7078A842EBD8B6
:102BE000304607F05DFF304607F08DFD002130468E
:102BF00008F01AFC304607F013FE304608F0DBFA06
:102C0000BDE8F08138B50446002000900748006810
:102C1000C16920468847009820F4801000F5801094
:102C200000900098E1684861012038BD0C02002046
:102C300038B504460020009007480068016A204625
:102C40008847009820F4001000F5001000900098CC
:102C5000E1684861012038BD0C02002038B5044607
:102C6000E068406800900098C0F3800020B10548FB
:102C70000068816A204688470098E1684860012022
:102C800038BD00000C02002030B5024615692B69E2
:102C900015696C6B24FA01F505F0010543EAC513CB
:102CA00002F1180555F82150AD6805EA030030BD62
:102CB00038B5044608480068416A20468847002025
:102CC0000090009820F0804000F180400090009833
:102CD000E1684861012038BD0C0200202DE9F8436D
:102CE00006460F4600250020009007EB870106F5F9
:102CF0008E7000EBC104D4E90501451AA068A84212
:102D000000D2A568E81C4FEA900806F1180050F8B8
:102D100027008069009029E0D4E90501451AA068E0
:102D2000A84200D2A568E81C4FEA9008ABB2FAB2FC
:102D30003046E16808F09FFBE0682844E060A06945
:102D40002844A06106F1180050F82700806900901F
:102D5000D4E90501884209D12178012000FA01F95E
:102D60003069406B20EA090031694863009880B2FD
:102D7000404506D9D4E90510884202D2606900288E
:102D8000CAD10120BDE8F88310B501F053FB00F073
:102D9000E3FA01F065FB10BD10B501F04BFB00F04C
:102DA000DBFA01F05DFB10BD0246094B9A4201D2ED
:102DB000084801E00648103801F000531BB1064BEB
:102DC0000B40C36002E0044B0B408360704700007F
:102DD00010640240006002407D0F7D0F0246094BE7
:102DE0009A4201D2084801E00648103801F0005329
:102DF0001BB1064B0B40C36002E0044B0B408360E9
:102E00007047000010640240006002407D0F7D0F9B
:102E100021B1026842F00102026003E0026822F080
:102E20000102026070470146486880B270470000A6
:102E300070B50246002000240025124EB24201D295
:102E4000114B01E00F4B103B104E0E4036B11E26C9
:102E500006EAD124166806EA040502E0566906F07F
:102E6000800501F000560EB15C6800E01C68084E59
:102E7000344004EA010616B10DB1012000E0002043
:102E800070BD000010640240006002403C0F3C0F27
:102E90007D0F7D0F10B501F080034BB122B1436966
:102EA00043F08003436103E0436923F080034361FF
:102EB00080290BD02AB1036801F01E04234303606C
:102EC00004E0036801F01E04A343036010BD00008A
:102ED00010B500220268134B1A40CC680B682343DC
:102EE0004C6923438C692343CC6923430C6A2343F5
:102EF0004C6A23438C6A23434C6B23438C6B2343E0
:102F00001A430260426922F00702D1E90B342343DD
:102F10001A4342610B6943604B6883608B68C360EE
:102F200010BD00003F801CF04160704770B5044642
:102F30000D464FF48041224800F0F4FA49F20101B5
:102F4000204806F03CF84FF47A6000F0BFF94FF4E7
:102F500080411B4800F0E8FA4FF4FA6000F0B6F93F
:102F60004FF48041164800F0DDFA4FF4805040EAFB
:102F70000511144806F023F84FF47A6000F0A6F922
:102F80004FF480410E4800F0CFFA4FF4FA6000F0A1
:102F90009DF94FF480410A4800F0C4FA4FF4004014
:102FA00040EA0411074806F00AF84FF47A6000F08E
:102FB0008DF94FF48041024800F0B6FA70BD000070
:102FC00000040240003C004070B504460D464FF43A
:102FD0000051224800F0A6FA49F20101204805F00C
:102FE000EEFF4FF47A6000F071F94FF400511B4886
:102FF00000F09AFA4FF4FA6000F068F94FF40051CB
:10300000164800F08FFA4FF4805040EA051114483A
:1030100005F0D5FF4FF47A6000F058F94FF40051F5
:103020000E4800F081FA4FF4FA6000F04FF94FF4C7
:1030300000510A4800F076FA4FF4004040EA0411CB
:10304000074805F0BCFF4FF47A6000F03FF94FF4F9
:103050000051024800F068FA70BD00000004024010
:10306000003C00401FB504460121480705F076FEEC
:103070003C200090002001900290022003906946BD
:103080002046FFF7C7F801212046FFF7AFF81FBD24
:1030900070B504460D460026204600F09BF8064613
:1030A000012E02D0022E56D156E0E07930384FF48E
:1030B0007A7110FB01F1207A303800EBC00202EB8C
:1030C000001001EB8001607A303800EB800001EBEA
:1030D0004001A07A3038084480B23C498880C880DA
:1030E000102D1AD1207B30384FF47A7110FB01F18A
:1030F000607B303800EBC00202EB001001EB800176
:10310000A07B303800EB800001EB4001E07B3038E1
:10311000084480B22D49088148810F2D11D1207BB0
:103120003038642110FB01F1607B303800EB800007
:1031300001EB4001A07B3038084480B2234908816C
:103140004881012021490870FEF714FFFEF710FAAC
:1031500001201E49887036E0E07930384FF47A71EA
:1031600010FB01F1207A303800EBC00202EB0010B6
:1031700001EB8001607A303800EB800001EB400108
:10318000A07A3038084480B210498880C880207BFB
:103190003038642110FB01F1607B303800EB800097
:1031A00001EB4001A07B3038084480B20749088118
:1031B000488101204870FEF7DDFEFEF789F9012005
:1031C0000249C87000BF00BF304670BD081C002017
:1031D0007047000070B5054600240BE0074850F822
:1031E000241006222846FDF782F810B9601CC0B2F0
:1031F00070BD641C022CF1DB0020F9E764000020A4
:1032000000B587B04FF4E1312C4808F055F90022A1
:1032100040F22551294806F0DEFA002240F22771DB
:10322000264806F0D8FA012240F22441234806F04D
:10323000D2FA01224021214806F09AFA0122802187
:103240001E4806F095FA4FF440304FF4807100228A
:103250000292CDE9032105906420CDE900201848B1
:10326000164A121DC9040368164800F035F84FF4D9
:1032700040304FF4807100220292CDE90321059085
:1032800064204021CDE900100F480C4A121D490569
:1032900003680C48303000F01FF801210948FFF79F
:1032A000B7FD002107483030FFF7B2FD01221021A1
:1032B00004483030FFF7EEFD07B000BD004C004081
:1032C00080000020406002408800002000BF411EB6
:1032D00089B2081EFBD170472DE9F04F8FB004462C
:1032E0000D4616461F46DDE91AABDDE91889194877
:1032F000844204D20121480505F010FD03E00121BC
:10330000880505F00BFD009501960297CDF80C801D
:10331000CDF81090002005904FF480600690CDF815
:103320001CA0CDF820B01C9809901D980A90002090
:103330000B9003200C9000200D900E9069462046C3
:10334000FFF7C6FD00212046FFF762FD0FB0BDE884
:10335000F08F00000064024010B513491348FFF7D6
:1033600067FD58B100211148FFF752FD64210F4855
:10337000FFF7DAFD0C490D48FFF730FD0A490B480D
:103380003030FFF755FD70B1002108483030FFF7AD
:103390003FFD642105483030FFF7C6FD0249034870
:1033A0003030FFF71BFD10BD208000207060024010
:1033B0007047000010B500221F4949781E4B9B78CA
:1033C00019441D4BDB7819441B4B197200BF09E0EF
:1033D0001949097A184B5B689B5C1944164B1972A2
:1033E000511CCAB21449C978491E9142F0DC1249F5
:1033F000097801701049497841700F4989788170C6
:103400000D49C978C170002105E00B4B5B685C5C1D
:103410000B1DC454491C084BDB785B1E8B42F4DC4B
:1034200005490B7AC978C91C435403494B7AC978BA
:10343000091D435410BD000024000020F0B50A46C9
:1034400000210023002400BF3DE0012505FA01F31F
:10345000156805EA03049C4234D105684F00032631
:10346000BE40B543056015794E00B540066835434A
:1034700005601579012D02D01579022D16D18568C8
:103480004F000326BE40B543856055794E00B540D8
:10349000866835438560456801268E40B5434560A2
:1034A000456896798E40B6B235434560C5684F0091
:1034B0000326BE40B543C560D5794E00B540C66809
:1034C0003543C560491C1029BFD3F0BDF0B50023BA
:1034D00000244D07ED0E02FA05F3CE1000F1200591
:1034E00055F826504E07F70E0F26BE40B543CF10B5
:1034F00000F1200646F82750CE1000F1200555F8BF
:10350000265045EA0304CE1000F1200545F8264078
:10351000F0BD0246002013690B400BB1012000E012
:1035200000207047418370470183704742694A40D9
:103530004261704710B5194840684078174949689A
:10354000097840EA01201649888014484068C0780C
:1035500012494968897840EA01201149C8800F481A
:10356000406840790D494968097940EA01200C49D1
:1035700008810A484068C07908494968897940EA61
:1035800001200749488101204870FEF7F3FCFDF750
:103590009FFF01200249C87010BD000018000020E4
:1035A000081C002010B51948406840781749496840
:1035B000097840EA01201649888014484068C0789C
:1035C00012494968897840EA01201149C8800F48AA
:1035D000406840790D494968097940EA01200C4961
:1035E00008810A484068C07908494968897940EAF1
:1035F00001200749488101200870FEF7BBFCFDF758
:10360000B7FF01200249887010BD0000180000209B
:10361000081C00200121024880F84C10704700006F
:10362000081C00200121024880F84E10704700005D
:10363000081C00200121024880F84B107047000050
:10364000081C002070B50A480468001D0568001DAC
:103650000668344454B108220649204600F008FDAB
:10366000042204491031284600F002FD70BD00001C
:10367000107AFF1F0E0100200121024880F84D1032
:1036800070470000081C002008B501217F2005F0CC
:1036900045FB0121080705F061FB012005F004FB53
:1036A000002005F0EFFB002005F0FEFA08220021C3
:1036B000FE48FFF70BFF08220121FC48FFF706FF39
:1036C00000200346022201210090F84800F0C0FAD1
:1036D00000200346022211460090F44800F0B8FA98
:1036E00000200346032204210090F04800F0B0FAC5
:1036F00000200346032208210090EC4800F0A8FABD
:1037000002200023032210210090E84800F0A0FAD4
:1037100002200023032220210090E44800F098FAC0
:1037200000200346012211020090E04800F090FAC8
:1037300001200023024601460090DD4800F088FA8F
:1037400001200023024640210090D94800F080FA71
:1037500001200346024680210090D54800F078FA07
:1037600001200023024601020090D14800F070FAC7
:1037700001200023024641020090CD4800F068FA83
:1037800001200023024641030090C94800F060FA7E
:1037900001200023024681030090C54800F058FA3A
:1037A00000200346032201210090C24800F050FA95
:1037B00000200346032202210090BE4800F048FA90
:1037C00000200346032204210090BA4800F040FA8A
:1037D00000200346032208210090B64800F038FA82
:1037E00000200346032220210090B24800F030FA66
:1037F00000200346012251020090AE4800F028FA52
:1038000006220A21AB48FFF761FE012000230222B5
:1038100081020090A74800F01BFA06220B21A54860
:10382000FFF754FE012000230222C1020090A148AC
:1038300000F00EFA06220C219E48FFF747FE0120F9
:1038400000230222010300909A4800F001FA0020B0
:103850000346012251030090964800F0F9F94FF415
:1038600000519448FFF760FE0020034601229103B7
:103870000090904800F0ECF94FF480418D48FFF73C
:1038800053FE002003460122D1030090894800F036
:10389000DFF900200346012202210090864800F053
:1038A000D7F900200346012204210090824800F04D
:1038B000CFF904218048FFF737FE0020034601229C
:1038C000082100907C4800F0C3F908217A48FFF7EE
:1038D0002BFE00200346012210210090764800F0C4
:1038E000B7F910217448FFF71FFE0722052172481F
:1038F000FFF7ECFD072206216F48FFF7E7FD0020E8
:1039000003460222202100906B4800F0A1F900201C
:103910000346022240210090674800F099F90020F8
:103920000346012280210090634800F091F9802134
:103930006148FFF7F9FD00200346012211020090C3
:103940005D4800F085F94FF480715B48FFF7ECFDAE
:1039500000200346012251020090574800F078F9F8
:103960004FF400715448FFF7DFFD002003460122A9
:1039700091020090504800F06BF9002003460122AC
:10398000D10200904C4800F063F900200346012268
:1039900011030090484800F05BF94FF4805146480D
:1039A000FFF7C2FD00200346012251030090424868
:1039B00000F04EF9002003460122910300903E489A
:1039C00000F046F90020034602464FF40041009003
:1039D000394800F03DF900200346024601210090DD
:1039E000364800F035F9022000231A4601460090BF
:1039F000324800F02DF900200346012204210090F6
:103A00002E4800F025F900200346024608210090C8
:103A10002A4800F01DF900200346024610210090BC
:103A2000264800F015F900200346024620210090A8
:103A3000224800F00DF900200346012211020090F7
:103A40001E4800F005F90020034602464FF40071BD
:103A500000901A4800F0FCF8002003460122910271
:103A60000090164800F0F4F84FF480611348FFF717
:103A70005BFD002003460122D10200900F4800F0B8
:103A8000E7F80020034602464FF4805100900B48AF
:103A900000F0DEF80020034602464FF4005100908B
:103AA000064800F0D5F80020034609E00000024077
:103AB0000004024000080240000C024000100240D6
:103AC000012202210090604800F0C2F80020034665
:103AD0000122114600905C4800F0BAF8002003462D
:103AE000012204210090584800F0B2F8002003465B
:103AF000032208210090544800F0AAF80020034651
:103B0000032210210090504800F0A2F80020034644
:103B10000322202100904C4800F09AF80020034630
:103B2000032240210090484800F092F8002003460C
:103B3000032280210090444800F08AF800200346C8
:103B400003224FF4807100903F4800F081F800207C
:103B5000034603224FF4007100903B4800F078F8D0
:103B60000020034603224FF480610090364800F0A5
:103B70006FF8002003460122D1020090324800F085
:103B800067F8002003460122110300902E4800F040
:103B90005FF8002003460122510300902A4800F0FC
:103BA00057F800200346012291030090264800F0B8
:103BB0004FF8002003460122D1030090224800F074
:103BC00047F8002003460122114600901F4800F0EC
:103BD0003FF8002003460122022100901B4800F01C
:103BE00037F800200346012204210090174800F016
:103BF0002FF800200346012208210090134800F00E
:103C000027F8002003460122102100900F4800F001
:103C10001FF8002003460122910300900B4800F09A
:103C200017F84FF480410948FFF77EFC0020034657
:103C30000122D1030090054800F00AF84FF400413A
:103C40000248FFF771FC08BD001402400018024052
:103C50002DE9FC4106460C4615469846089F0094FF
:103C60008DF8045003208DF8050000208DF8060023
:103C700001208DF8070069463046FFF7DFFBBDE8FD
:103C8000FC81000070B506463048007800285BD102
:103C90002F480068B0F5006F02D100202C49086061
:103CA0002B4800682B490968884203D10020274926
:103CB000087070BD2648006826490968884206D900
:103CC00023480068C0F500602349086006E02148E9
:103CD00000681F490968401A1F4908601E480068AB
:103CE000402811D91A48008885B240241848006835
:103CF0004030174908601848006840381649086085
:103D000001201249087018E01148008885B2124855
:103D1000008884B20E4800680F49096808440C49BD
:103D2000086000200C490860402C03D1022007499C
:103D3000087002E00120054908700848421923462E
:103D400081213046FEF78EFB00BFB2E75C01002008
:103D50005401002050010020580100201E2700209F
:103D600000BFFEE770B500F017F94FF480711348FB
:103D7000FFF7D8FB80241CE04FF400710F48FFF7D9
:103D8000C8FB08B9A54300E02543C820FFF79EFA09
:103D90004FF480710948FFF7C7FBC820FFF796FA78
:103DA0004FF480710548FFF7BDFBC820FFF78EFA7E
:103DB0006410002CE0D1284670BD000000040240D1
:103DC00010B500F001F94FF480710F48FFF7AAFB1E
:103DD000C820FFF77BFA4FF400710B48FFF7A2FBF6
:103DE000C820FFF773FA4FF480710748FFF79CFB78
:103DF000C820FFF76BFA4FF480710348FFF792FB7E
:103E0000C820FFF763FA10BD0004024070B50546F4
:103E100000F0DAF8C820FFF759FA802421E004EA1C
:103E2000050028B94FF400710F48FFF77BFB04E051
:103E30004FF400710C48FFF777FBC820FFF746FAF4
:103E40004FF480710848FFF76FFBC820FFF73EFA78
:103E50004FF480710448FFF765FBC820FFF736FA7E
:103E60006410002CDBD170BD0004024010B500F0DE
:103E7000ABF84FF480710F48FFF754FBC820FFF7F1
:103E800025FA4FF400710B48FFF74EFBC820FFF7EF
:103E90001DFA4FF480710748FFF746FBC820FFF773
:103EA00015FA4FF480710348FFF73CFBC820FFF779
:103EB0000DFA10BD0004024010B500F085F84FF473
:103EC00080710E48FFF730FB4FF400710B48FFF78D
:103ED0002BFBC820FFF7FAF94FF400710748FFF7F2
:103EE00021FBC820FFF7F2F94FF480710348FFF778
:103EF00019FBC820FFF7EAF910BD000000040240DA
:103F000010B500F061F84FF480710E48FFF70AFB1E
:103F10004FF400710B48FFF705FBC820FFF7D6F9F7
:103F20004FF480710748FFF7FFFAC820FFF7CEF97A
:103F30004FF400710348FFF7F7FAC820FFF7C6F9FE
:103F400010BD00000004024010B541F2883400F0BA
:103F500023F805E0601E80B2041E01D1012010BDCF
:103F60004FF400710B48FFF7D4FA0028F2D14FF458
:103F700080710848FFF7D8FAC820FFF7A7F94FF477
:103F800080710448FFF7CEFAC820FFF79FF90020A0
:103F9000E5E70000000402401CB54FF400700090FB
:103FA00000208DF8040003208DF8050000208DF816
:103FB000060001208DF8070069460248FFF73EFA27
:103FC0001CBD0000000402401CB54FF400700090BE
:103FD00001208DF8040003208DF8050000208DF8E5
:103FE000060001208DF8070069460248FFF726FA0F
:103FF0001CBD00000004024000B587B0FCF79CFB2C
:104000004FF440304FF480714A01CB00CDE90232C9
:10401000CDE90410282000210D4B0E4ACDE90010F7
:104020000D48FFF759F901210B48FEF7F1FE012178
:1040300008484C38FCF7D3FA012106484C38FCF705
:10404000C3FA04484C38FCF75BFB07B000BD000026
:104050004C2500204C2001401064024001200349FF
:10406000C870F120496808707047000024000020E3
:1040700030B50B46002100BF16E00A24B4EB107FD8
:1040800005D9302404EB107403F8114005E04124F5
:1040900004EB10740A3C03F81140000100254C00A9
:1040A000641C1D554C1CE1B29142E6DB30BD00BFE3
:1040B000FEE730B505460C4622460021284600F0B2
:1040C00001F830BD2DE9F04105460B469446002726
:1040D000002402E03F021F43641C042CFAD3604614
:1040E00005F00306294646B1344603E001F8013BDA
:1040F000401E641C08B1042CF8D30A4601E080C2BB
:10410000001F0428FBD2114602E001F8013B401ECB
:104110000028FAD1BDE8F0817047000070B5002199
:1041200000230F22C4781CB3174C246804F4E06405
:10413000C4F5E064C4F30721C1F10404E3B20A4109
:1041400044789C40E1B28478144021430C07210E4E
:104150000E4C05786155047804F01F050124AC402D
:1041600005786D11AD0005F1E025C5F8004109E0C5
:10417000047804F01F050124AC40054D0678761143
:1041800045F8264070BD00000CED00E000E400E0C2
:1041900080E100E002490143024A116070470000DB
:1041A0000000FA050CED00E0024A0A400243024B0F
:1041B0001A60704780FFFF1F08ED00E070B52DED1D
:1041C000088B0446204607F0A5FF41EC1B0B9FED32
:1041D0000F0B53EC102B07F0B1FF41EC1A0B9FEDC6
:1041E0000D0B53EC102B07F0C9FD41EC190B9FEDA3
:1041F0000B0B53EC102B08F09FF841EC180B07F059
:1042000045FF85B22846BDEC088B70BD3333333390
:1042100033333D4000000000000059400000000022
:1042200000E0734008B54FF4E060FFF7B3FF3420BF
:104230008DF8000000208DF8010002208DF80200AA
:1042400001208DF803006846FFF768FF0F208DF806
:10425000000000208DF801008DF8020001208DF88B
:1042600003006846FFF75AFF08BD704710B50348C2
:10427000006810B101480068804710BD3802002076
:1042800070B5044600F0C2F800204849087048495B
:10429000087048490870484908604849086048491A
:1042A00008704849087048490870484908604849FA
:1042B00008604849086048490870484800680A2171
:1042C000B0FBF1F0464908604648006858B14648DE
:1042D000056845B14348066803E0761E0020286063
:1042E0002D1D002EF9D1002040490860404908608A
:1042F00040490860404908604049086040490860FA
:10430000404908604049087002F0F2FD02F0D2FE18
:10431000204601F03DFF208800B170BD204602F02C
:104320001DFB208800B1F8E7204602F023FB20881F
:1043300000B1F2E7204602F01FFC208800B1ECE754
:10434000204602F005FE208800B1E6E7204603F093
:1043500025F8208800B1E0E7204603F03FFB2088E5
:1043600000B1DAE7204602F065FA208800B1D4E710
:10437000204602F07FF8208800B1CEE7204604F006
:10438000BDFA208800B1C8E7204603F071FA208802
:1043900000B1C2E7204604F029FB208800B1BCE749
:1043A00001F020FEFFF761FF00BFB6E74C020020DE
:1043B0004D02002094020020040300200803002086
:1043C0007A0200207B0200207C020020880200206C
:1043D0008C020020900200209C02002090C5000862
:1043E0009802002060C500085CC500082C0200206F
:1043F0003002002034020020380200203C0200205D
:104400004002002044020020CA0200200648006842
:104410000649096800EB8100054908600846006804
:1044200020F00700086070475CC5000860C5000800
:104430000C03002008480078012800D07047074886
:104440000078FA2800DBF9E704480078401C0349AB
:10445000087000BFF2E700004D0200204C0200206F
:1044600010B500242D480078012800D010BD00BFF1
:10447000FBF726FF044600BF2948007828B900BF93
:104480002046FBF721FF00BFF0E725480078401EDB
:104490002349087008460078002805DD00BF204643
:1044A000FBF712FF00BFE1E71E480078002805DD9A
:1044B00000BF2046FBF708FF00BFD7E702F004FD6E
:1044C000194908700846007800EB4000174951F878
:1044D00020001749086008460068164909688842A4
:1044E00005D100BF2046FBF7EFFE00BFBEE7104836
:1044F0000068D0F88C00401C0D490968C1F88C0098
:104500000D480068401C0C490860FBF7F9FF00BF2C
:104510002046FBF7D9FE00BF00BFA7E74D020020F1
:104520004C020020940200207B0200203C4400202A
:104530000803002004030020C00200202DE9F04100
:1045400004460E461546002729480078002804DD59
:1045500042F6E1602880BDE8F0811CB945F6C35001
:104560002880F8E700BF00BF00BFFBF7A9FE0746A1
:1045700000BF00BF1F480078401C1E49087000BFE4
:1045800000BF3846FBF7A0FE00BF00BF00BF1A48BF
:10459000206066600020206284F82500A062402030
:1045A00084F8240004F1080002F09DFB204602F08C
:1045B000CBFA12480088401C1049088000BF00BF99
:1045C00000BFFBF77DFE074600BF00BF094800782B
:1045D000401E0849087000BF00BF3846FBF774FE54
:1045E00000BF00BF00BF0020288000BFB3E700006D
:1045F0004C020020940200204D55545878020020AF
:104600002DE9F04788B00546894690461C46109E25
:104610004FF0000AAB480078002805DD46F2AE10E6
:10462000308008B0BDE8F0871DB945F6C350308032
:10463000F7E7B8F1000F03D0B8F5004F02D100E062
:1046400000BF03E045F625603080EAE700BF9E49E1
:104650002868884203D045F6C4503080E1E70CB1A9
:104660000020206000BF00BFFBF72AFE824600BF8B
:1046700000BF95F82500C0B99448006828629348A7
:10468000006890F8370085F82400012085F825009F
:104690000CB1A86A206000BF00BF5046FBF714FEB3
:1046A00000BF00BF00203080BBE78849286A096846
:1046B000884212D195F82500401C85F825000CB1E0
:1046C000A86A206000BF00BF5046FBF7FDFD00BF99
:1046D00000BF45F282703080A3E708F4004050B17B
:1046E00000BF00BF5046FBF7EFFD00BF00BF46F222
:1046F000B010308095E77648007800280ADD00BFCA
:1047000000BF5046FBF7E0FD00BF00BF46F6635018
:10471000308086E700BF6E480078401C6C49087006
:1047200000BF00BF5046FBF7CFFD00BF00BF00BF7A
:104730002F6A97F837006549096891F83710884261
:1047400060DD97F8360008282AD2DFE800F004156B
:104750001E1F17162021384602F034FD5B48006802
:1047600090F8370087F8370097F8370002F0CCFB55
:10477000384602F0C7FC44E000BF00BF5348006861
:1047800090F8370087F837003BE000BF00BF00BF5C
:104790004E48006890F83710384602F081FA30E051
:1047A00000BF00BF00BFFBF78BFD824600BF00BF0C
:1047B00047480078401E4649087008460078A0B96E
:1047C00044480088002809DD00BF00BF5046FBF7C1
:1047D0007BFD00BF00BF02F023FD0DE000BF00BF66
:1047E0005046FBF771FD00BF06E000BF00BF50461A
:1047F000FBF76AFD00BF00BF00BF46F62D603080AA
:104800000FE700BF4B4604222946684602F0C0F974
:1048100000BF00BF00BFFBF753FD824600BF00BFD3
:104820002B480078401E2A49087000BF00BF504640
:10483000FBF74AFD00BF00BF00BF00F073F900BFE7
:1048400000BFFBF73DFD824600BF00BF1F48006868
:1048500090F8350030B101280CD002281AD0032876
:1048600021D110E01CB119480068006C20600020C4
:1048700030801CE01CB115480068006C206046F2D6
:10488000A910308013E00CB10020206047F2D9203D
:1048900030800CE01CB10D480068006C206045F6CB
:1048A000C250308003E046F62E60308000BF00BF6B
:1048B00000BF00BF5046FBF707FD00BF00BF00BFB1
:1048C000AFE600004C0200204D5554580403002070
:1048D00094020020580200202DE9F84F0446884633
:1048E00015464FF0000A89480078002804DD46F29A
:1048F0000E202880BDE8F88F1CB945F6C3502880EB
:10490000F8E7B8F1000F03D0B8F5004F02D100E08E
:1049100000BF03E045F625602880EBE700BF7C4937
:104920002068884203D045F6C4502880E2E700BFE3
:1049300000BFFBF7C5FC824600BF00BF7549206A77
:10494000096888420AD000BF00BF5046FBF7BCFC94
:1049500000BF00BF45F281702880CBE700BF6E48E2
:104960000078401C6C49087000BF00BF5046FBF740
:10497000ABFC00BF00BF00BFFDF7F6FA0746A76219
:1049800094F82500401E84F8250094F8250000289E
:1049900030DD00BF00BF00BFFBF792FC824600BFC6
:1049A00000BF5D480078401E5B49087008460078EB
:1049B000A0B95A480088002809DD00BF00BF504652
:1049C000FBF782FC00BF00BF02F02AFC0DE000BF35
:1049D00000BF5046FBF778FC00BF06E000BF00BFF9
:1049E0005046FBF771FC00BF00BF00BF45F283706B
:1049F00028807FE704F10809B9F8080098BB002077
:104A0000206284F8250000BF00BF00BFFBF758FC00
:104A1000824600BF00BF40480078401E3E490870F3
:104A200008460078A0B93D480088002809DD00BF8D
:104A300000BF5046FBF748FC00BF00BF02F0F0FB90
:104A40000DE000BF00BF5046FBF73EFC00BF06E094
:104A500000BF00BF5046FBF737FC00BF00BF00BFE0
:104A60000020288046E7FFE72A48006890F83700D2
:104A700094F82410884219D02648006802F0A2FB5E
:104A800094F824002349096881F83700214909680E
:104A900091F8370002F038FA1E48006802F052FB25
:104AA0001C48006890F837001D490870D9F80000CC
:104AB0008668266296F8370084F82400012084F87E
:104AC000250000231A4631462046009702F07CF963
:104AD00000BF00BF00BFFBF7F3FB824600BF00BF73
:104AE0000D480078401E0C49087000BF00BF5046BA
:104AF000FBF7EAFB00BF00BF00BF08F4004008B9A5
:104B000000F010F80020288000BFF3E64C020020DF
:104B10004D555458040300209402002058020020F0
:104B20007A02002010B500241F480078002800DD1C
:104B300010BD1E480078002800DDF9E700BFFBF734
:104B4000BFFB044600BF02F0BFF9194908700846D0
:104B5000007800EB4000174951F820001649086022
:104B60000846006815490968884205D100BF2046FB
:104B7000FBF7AAFB00BFDBE70F480068D0F88C000A
:104B8000401C0D490968C1F88C000D480068401CA4
:104B90000B490860FBF7AFFC00BF2046FBF794FB16
:104BA00000BF00BFC4E700004C02002094020020B8
:104BB0007B0200203C440020080300200403002066
:104BC000C002002070B5044600251848007800286F
:104BD00003DD46F66250208070BD1548007801283C
:104BE00003D045F689602080F6E712480078FA285D
:104BF00003DB45F209202080EEE700BF00BFFBF792
:104C00005FFB054600BF00BF0A480078401C094909
:104C1000087002F02FFB00BF00BF2846FBF754FBD3
:104C200000BF00BF0020208000BFD5E74C0200205D
:104C30004D020020940200202DE9F04105460C466B
:104C40001646002700BF00BFFBF73AFB074600BF30
:104C500000BF012D03D000200D49087002E00120A3
:104C60000B49087014B10B48046006E00A4800685C
:104C70000A21B0FBF1F00749086000BF00BF3846C9
:104C8000FBF722FB00BF00BF00203080BDE8F081B1
:104C90009C0200209802002090C5000870B50446D0
:104CA000002520480078002803DD46F66550208066
:104CB00070BD1D480078012803D045F6896020802A
:104CC000F6E71A48007818B946F664502080EFE7F6
:104CD00000BF00BFFBF7F4FA054600BF00BF134852
:104CE0000078401E114908700846007800280ADD47
:104CF00000BF00BF2846FBF7E7FA00BF00BF46F63B
:104D000063502080D4E702F0C3FA00BF00BF2846FA
:104D1000FBF7DAFA00BF00BFFFF704FF0020208096
:104D200000BFC5E74C0200204D0200209402002085
:104D300010B5044612480078E8B902F0C5F81149E8
:104D4000087008460078104908700E48007800EB9B
:104D500040000E4951F820000D49086008460068DF
:104D60000C490860012006490870FBF7B3FB43F6C5
:104D70009920208002E045F68A60208010BD000066
:104D80004D0200207B0200207A0200203C440020DB
:104D900008030020040300202DE9F04107464FF0EE
:104DA000000800BF00BFFBF78BFA804600BF00BFC2
:104DB00000203D4908603D4908803D4908803D4943
:104DC00008603D4908603D4908603D4908603D492B
:104DD000088100BF00BF4046FBF776FA00BF00BF66
:104DE00000BF00BFFBF76CFA804600BF00BF36482B
:104DF000046800BF00BF4046FBF766FA00BF00BF73
:104E000021E000BF00BFFBF75BFA804600BF00BF98
:104E100000207434E06320602063A061A082E082FF
:104E20006062A062FDF7A0F82062743C04F16006A5
:104E30000020B081D4F8B84000BF00BF4046FBF767
:104E400043FA00BF00BF002CDBD100BF00BFFBF75F
:104E500037FA804600BF00BF1C48056800BF00BF8E
:104E60004046FBF731FA00BF00BF12E000BF00BFB1
:104E7000FBF726FA804600BF00BF05F120060020A0
:104E8000B081AD6900BF00BF4046FBF71DFA00BF0F
:104E900000BF002DEAD103F099FB03F04DFE002086
:104EA0003880BDE8F0810000600200205A02002036
:104EB000AA020020BC020020D0020020F402002040
:104EC0008C02002030440020C40200208002002018
:104ED000F8B5044600266946324800F08FFDBDF85B
:104EE000000018B1BDF800002080F8BD6A4600211E
:104EF000022000F0F7FDBDF8000018B1BDF8000079
:104F00002080F2E700BF00BFFBF7DAF9064600BFDA
:104F100000BF00202449086000BF00BF3046FBF7F7
:104F2000D3F900BF00BF0025204800682049096868
:104F3000884205D91D4800681D490968B0FBF1F594
:104F400025B91A4800680A21B0FBF1F56A4600212C
:104F5000284600F0C7FD6946124800F063FABDF824
:104F6000000018B1BDF800002080BEE700BF00BF00
:104F7000FBF7A6F9064600BF00BF00200D490860F8
:104F8000094800680C49086001200C49087000BFFE
:104F900000BF3046FBF798F900BF00BF002020801B
:104FA00000BFA2E7E8480020AC02002090C500083E
:104FB00078C50008BC020020B0020020B802002022
:104FC00010B50348006810B101480068804710BD63
:104FD0003C0200202DE9FF4F87B004469046DDE9F2
:104FE0001BA5DDE91496179F0020039087480078E1
:104FF000002805DD47F24A1028800BB0BDE8F08F8D
:105000001CB947F2AD102880F7E7B8F1000F03D1C3
:1050100047F24F102880F0E71EB946F62F6028802F
:10502000EBE77B480068874203D246F63060288071
:10503000E3E71698B84203D346F631602880DCE7F0
:10504000B9F1400F03D346F273202880D5E7B9F1B8
:10505000000F06D16F48844203D046F273202880A7
:10506000CBE7B9F13F0F06D16B48844203D046F23B
:1050700073202880C1E7204602F0C0FC0020288071
:105080000AF0010090B10AF0020078B10596002004
:10509000069008E00021059801600598001D059024
:1050A0000698401C06900698B842F3D3169806EB73
:1050B00080000490CDE9007A32464046049B0A996C
:1050C00000F06EFB0590C4F828800A98E06208980A
:1050D000206284F83790059820600498A0601998A1
:1050E0002065199818B94D480068606501E0199865
:1050F00060651A9860606662A763A4F83CA04FF0F0
:10510000000B08E0002104F1780040F82B100BF1AF
:10511000010000F0FF0BBBF1000FF3D004F16000C1
:10512000189901F087FC204600F082F800BF00BF0C
:1051300000BFFBF7C5F8039000BF00BF38480078F8
:10514000401C3749087000BF00BF0398FBF7BCF84C
:1051500000BF00BF00BF94F8370001F0D5FE204625
:1051600001F0F0FF204602F0FFFB2E480088401CB3
:105170002C4908802C48007801282DD000BF00BFA2
:1051800000BFFBF79DF8039000BF00BF24480078E4
:10519000401E2349087008460078A0B923480088BB
:1051A000002809DD00BF00BF0398FBF78DF800BFA2
:1051B00000BF02F035F80DE000BF00BF0398FBF719
:1051C00083F800BF06E000BF00BF0398FBF77CF840
:1051D00000BF00BF00BF10E700BF00BF00BFFBF76C
:1051E0006FF8039000BF00BF0D480078401E0C49C7
:1051F000087000BF00BF0398FBF766F800BF00BF50
:1052000000BFFFF78FFC00BFF7E600004C02002054
:105210008CC5000870430020B04200209802002096
:1052200094020020C80200204D02002058020020F5
:1052300010B504460348006818B1204601490968C2
:10524000884710BD2C02002070B504460D4600268C
:1052500067480078002803DD47F24E10288070BDB3
:105260006448844203D147F24C102880F7E7624833
:10527000844203D147F24D102880F0E77CB900BF8B
:1052800000BFFBF71DF8064600BF00BF5B4804687F
:1052900000BF00BF3046FBF717F800BF00BF00BFDC
:1052A00000BF00BFFBF70CF8064600BF00BF544824
:1052B0000078401C5249087000BF00BF3046FBF721
:1052C00003F800BF00BF00BF94F8360008282DD2B5
:1052D000DFE800F004090E10080A0F11204601F063
:1052E00071FF54E053E000BF204603F043F94EE065
:1052F00000BF00BF00BF94F83400082810D2DFE8D8
:1053000000F004070508090A0B0600BF00BF08E00B
:1053100000BF00BF00BF00BF204601F01CFD00E041
:1053200000BF00BF204603F025F930E000BF00BFFA
:1053300000BFFAF7C5FF064600BF00BF304800783F
:10534000401E2F49087008460078A0B92D480088F3
:10535000002809DD00BF00BF3046FAF7B5FF00BFE7
:1053600000BF01F05DFF0DE000BF00BF3046FAF75F
:10537000ABFF00BF06E000BF00BF3046FAF7A4FF56
:1053800000BF00BF00BF46F62D60288067E700BF62
:1053900004F1600001F02CFB204600F037F82046B5
:1053A00002F0FAFA18480088401E17490880204683
:1053B00002F024FBFF2084F8360000BF00BF00BFCE
:1053C000FAF77EFF064600BF00BF0D480078401E7A
:1053D0000B49087000BF00BF3046FAF775FF00BFE9
:1053E00000BF00BF00202880FFF79CFB00BF36E70E
:1053F0004C020020B0420020704300200403002033
:105400009402002058020020C802002010B5044673
:105410000348006818B1204601490968884710BD53
:10542000300200207FB504460D46002600BF00BFB5
:10543000FAF746FF064600BF00BF1CB115480068DA
:1054400084420AD100BF00BF3046FAF73DFF00BFDB
:1054500000BF47F2571028807FBD00BF00BF304615
:10546000FAF732FF00BF00BF0B48007800280BDDC1
:10547000002000900190034602462146CDE9020536
:10548000064801F02FF8E7E72946204602F01AFC0B
:1054900000BFE1E7040300204C02002054524553B2
:1054A00010B504460348006818B120460149096850
:1054B000884710BD340200202DE9F04780460E4693
:1054C00014461D464FF000097D480078002805DD90
:1054D00046F2AE1028800020BDE8F0871EB1B6F578
:1054E000004F02D100E000BF04E045F625602880AF
:1054F0000020F1E700BF0CB10020206000BF00BF1A
:10550000FAF7DEFE814600BF00BF6E480068406CBF
:10551000A8B36C480068406C401E6A49096848643A
:1055200068480068476C1CB166480068006C2060E1
:10553000FCF71AFD63490968096C401A614909685A
:10554000C1F8A0005F480068D0F8A4005D49096870
:10555000D1F8A010884207D25A480068D0F8A000BD
:1055600058490968C1F8A40000BF00BF4846FAF7CF
:10557000ABFE00BF00BF002028803846ACE7FFE745
:1055800006F4004058B100BF00BF4846FAF79CFE41
:1055900000BF00BF46F2B010288000209CE74A48B8
:1055A000007800280BDD00BF00BF4846FAF78CFEEC
:1055B00000BF00BF46F66350288000208CE700BF84
:1055C00041480078401C4049087000BF00BF484671
:1055D000FAF77AFE00BF00BF00BF43460722002152
:1055E000084601F0D5FA00BF00BF00BFFAF768FE19
:1055F000814600BF00BF34480078401E3249087021
:1056000000BF00BF4846FAF75FFE00BF00BF00BF03
:10561000FFF788FA00BF00BFFAF752FE814600BFCD
:1056200000BF2848006890F8350020B1012826D036
:10563000032834D12CE0FCB122480068006C2060C3
:10564000FCF792FC1F490968096C401A1D4909685A
:10565000C1F8A0001B480068D0F8A40019490968E7
:10566000D1F8A010884207D216480068D0F8A000F0
:1056700014490968C1F8A4000020288013E01CB177
:1056800010480068006C206046F2A91028800AE0EB
:105690000CB10020206047F2D920288003E046F6B4
:1056A0002E60288000BF00BF06480068476C00BF1E
:1056B00000BF4846FAF708FE00BF00BF38460BE7B8
:1056C0004C02002004030020940200202DE9F04742
:1056D00005460E4617461C464FF0000A2E48007835
:1056E000002804DD47F259102080BDE8F0871EB97C
:1056F00046F2D5202080F8E71FB946F2D520208059
:10570000F3E700BF00BFFAF7DBFD824600BF00BF32
:105710000DB922480568286868B900BF00BF504627
:10572000FAF7D2FD00BF00BF00203060386047F2BA
:1057300052102080D9E795F83C0000F0010068B9CC
:1057400000BF00BF5046FAF7BFFD00BF00BF0020FA
:105750003060386047F254102080C6E700BF00BFB9
:105760005046FAF7B1FD00BF00BF4FF00008D5F872
:10577000249003E009F1040908F10108D9F80000B8
:105780000028F7D0C6F80080A86BA0EB08003860AE
:105790000020208000BFA8E74C0200200403002066
:1057A000F0B50446DDE9055602EB850020F0070060
:1057B0004FF0000C071F3846C7F800C04FF4805C5C
:1057C000071F3846C7F800C04FF0150C071F3846B2
:1057D000C7F800C04FF0140C071F3846C7F800C0C8
:1057E0004FF0130C071F3846C7F800C04FF0120CDB
:1057F000071F3846C7F800C04FF0110C071F384686
:10580000C7F800C04FF0100C071F3846C7F800C09B
:105810004FF0090C071F3846C7F800C04FF0080CBE
:10582000071F3846C7F800C04FF0070C071F38465F
:10583000C7F800C04FF0060C071F3846C7F800C075
:105840004FF0050C071F3846C7F800C04FF0040C96
:10585000071F3846C7F800C04FF0030C071F384633
:10586000C7F800C04FF0020C071F3846C7F800C049
:105870004FF0010C071F3846C7F800C04FF0000C6E
:10588000071F3846C7F800C04FF0807C071F384616
:10589000C7F800C0071F38463C60DFF85CC1071F2F
:1058A0003846C7F800C04FF0123C071F3846C7F80B
:1058B00000C04FF0033C071F3846C7F800C04FF048
:1058C000023C071F3846C7F800C0071F38463B6038
:1058D000071F384639604FF0310C071F3846C7F8AC
:1058E00000C04FF0300C071F3846C7F800C04FF01B
:1058F000290C071F3846C7F800C04FF0280C071FB7
:105900003846C7F800C04FF0270C071F3846C7F8C5
:1059100000C04FF0260C071F3846C7F800C04FF0F4
:10592000250C071F3846C7F800C04FF0240C071F8E
:105930003846C7F800C04FF0230C071F3846C7F899
:1059400000C04FF0220C071F3846C7F800C04FF0C8
:10595000210C071F3846C7F800C04FF0200C071F66
:105960003846C7F800C04FF0190C071F3846C7F873
:1059700000C04FF0180C071F3846C7F800C04FF0A2
:10598000170C071F3846C7F800C04FF0160C071F4A
:105990003846C7F800C04FF0113C071F3846C7F81B
:1059A00000C04FF0103C071F3846C7F800C04FF04A
:1059B000093C071F3846C7F800C04FF0083C071FD6
:1059C0003846C7F800C04FF0073C071F3846C7F8F5
:1059D00000C04FF0063C071F3846C7F800C04FF024
:1059E000053C071F3846C7F800C04FF0043C071FAE
:1059F0003846C7F800C0F0BD057E00087FB50546F3
:105A00000C461248854203D147F25B1020807FBDCF
:105A10000F48854203D147F25C102080F7E70D481C
:105A2000007800280BDD002000900190034602461C
:105A30002946CDE90204084800F054FDE7E7214675
:105A4000284602F04DFC00BFE1E70000B042002014
:105A5000704300204C0200205453555310B51D488C
:105A6000006810B11B4800688047FCF77DFA0446C7
:105A70001948006819490968884215D01648006815
:105A8000D0F89400201A14490968C1F8900012480F
:105A90000068D0F8980010490968D1F890100844BF
:105AA0000D490968C1F898000C480068C0F8944096
:105AB00009480068D0F8B00009490968884205D251
:105AC0000748006804490968C1F8B000002004498B
:105AD000086010BD400200200403002008030020DD
