:020000040800F2
:10000000D054002085020008593B000875380008CC
:10001000EF3A00084D18000805AF00080000000086
:100020000000000000000000000000007F8A0008BF
:10003000512B00080000000023070008958C0008E1
:100040009F0200089F0200089F0200089F0200080C
:100050009F0200089F0200089F0200089F020008FC
:100060009F0200089F0200089F0200089F020008EC
:100070009F0200089F0200089F020008092700084D
:100080009F020008192700089F0200089F0200082D
:100090009F0200089F0200089F0200089F020008BC
:1000A0009F0200089F0200089F0200089F020008AC
:1000B000099100089F0200089F0200089F020008A3
:1000C0009F0200089F0200089F0200089F0200088C
:1000D0009F0200089F020008599100089F02000833
:1000E0009F0200089F0200089F0200089F0200086C
:1000F0009F0200089F0200089F0200089F0200085C
:100100009F0200089F0200089F0200089F0200084B
:10011000499100089F0200089F0200089F02000802
:100120009F0200089F0200089F0200089F0200082B
:100130009F0200089F0200089F0200089F0200081B
:100140009F0200089F0200089F020008C586000861
:100150009F0200089F0200089F0200089F020008FB
:100160009F0200089F0200089F0200089F020008EB
:100170009F0200089F0200089F0200089F020008DB
:100180009F0200089F02000800F002F800F06AF8E1
:100190000AA090E8000C82448344AAF10107DA45E2
:1001A00001D100F05FF8AFF2090EBAE80F0013F0CA
:1001B000010F18BFFB1A43F001031847E8BF000006
:1001C00008C000000A444FF0000C10F8013B13F087
:1001D000070408BF10F8014B1D1108BF10F8015BA0
:1001E000641E05D010F8016B641E01F8016BF9D193
:1001F00013F0080F1EBF10F8014BAD1C0C1B09D1EA
:100200006D1E58BF01F801CBFAD505E014F8016B5B
:1002100001F8016B6D1EF9D59142D6D370470000ED
:100220000023002400250026103A28BF78C1FBD8FF
:10023000520728BF30C148BF0B607047642900F0E7
:100240009D80002070471FB50BF0A0FE00F0FCF968
:100250000400002000210BF007FA401C60601FBD65
:1002600010B510BD00F0CAF91146FFF7ECFF0BF016
:100270005DF800F0EDF903B4FFF7F2FF03BC0AF0FC
:100280009BFF00000948804709480047FEE7FEE75A
:10029000FEE7FEE7FEE7FEE7FEE7FEE7FEE7FEE736
:1002A00004480549054A064B70470000058D0008C3
:1002B00089010008D04E0020D0540020D0500020EA
:1002C000D050002072B6704762B67047EFF31080CE
:1002D00072B6704780F31088704730BF704720BFF8
:1002E0007047B0FA80F0704790FAA0F0B0FA80F052
:1002F000704790FAA0F07047704700000FB40449AF
:1003000010B503AA029800F01BF910BC5DF814FBAD
:100310007C0000202DE9F0410E46044600202062BA
:100320002046E168884730B3252805D0D4E901216B
:100330009047206A401CF2E7E16820460027884782
:10034000050018D0A5F14100192802D820354FF436
:1003500000673246294620462760FFF76FFF40B10D
:10036000012804D0F61D26F007060836D8E7361D0A
:10037000D6E72846DAE7206ABDE8F0812DE9F041AA
:100380000646002410687529314616A510D0AFF333
:100390000080002802DA404213A507E031688A078E
:1003A00001D512A502E0490704D511A5012401E0F9
:1003B000AFF3008000210A2206F1240709E0B0FB18
:1003C000F2FCB0FBF2F302FB1C003030785418460C
:1003D000491C0028F3D123462A463046BDE8F041A7
:1003E00000F054B8000000002D0000002B000000B9
:1003F000200000002DE9F041054690460E46002001
:10040000044600E0641C44450BD2285D00F031F83E
:100410000746305D00F02DF8381A02D1295D002919
:10042000F0D1BDE8F0814FF000020429C0F0128045
:1004300010F0030C00F09880CCF1040CBCF1020F1A
:1004400018BF00F8012BA8BF20F8022BA1EB0C016C
:1004500000F08AB85FEAC17C24BF00F8012B00F8E5
:10046000012B48BF00F8012B704770477047704759
:10047000704710B5044600F09DF80068005DC006A6
:1004800002D504F1200010BD204610BD2DE9F04733
:100490000D4699469246044600F1240801688806F4
:1004A00004D5E06921F01001216000E00120A8429C
:1004B00001DD471B00E00027A1697A1902EB090062
:1004C000081AA0612078C00602D42046AFF300804D
:1004D000002608E0D4E901211AF806009047206AB6
:1004E000401C761C20624E45F4DB2078C0060AD5FD
:1004F0002046AFF3008006E0D4E901213020904788
:10050000206A401C2062381EA7F10107F4DC07E0D6
:10051000D4E9012118F805009047206A401C2062A8
:10052000281EA5F10105F3DC2046AFF300802078FA
:10053000000602D50220BDE8F0870120FBE700009D
:10054000074B70B50D467B4400F041F80446284641
:1005500000F050F810B14FF0FF3070BD204670BD74
:10056000BFAD00004FF0000200B51346944696461A
:10057000203922BFA0E80C50A0E80C50B1F12001B6
:10058000BFF4F7AF090728BFA0E80C5048BF0CC064
:100590005DF804EB890028BF40F8042B08BF7047C2
:1005A00048BF20F8022B11F0804F18BF00F8012B34
:1005B0007047000010B500F047F8001D10BD00BFE7
:1005C000A9B0000001694A1C02610878704700B5B3
:1005D0008FB0CDE901310021059105497944CDE97C
:1005E000031011466846FFF795FE0FB000BD0000EE
:1005F000E5FFFFFF007B00F080007047754600F0CC
:1006000031F8AE4605006946534620F0070085469E
:1006100018B020B5FFF744FEBDE820404FF00006BB
:100620004FF000074FF000084FF0000B21F00701DA
:10063000AC46ACE8C009ACE8C009ACE8C009ACE81D
:10064000C0098D4670470000004870478C4E00205E
:1006500010B50446AFF300802046BDE81040FFF718
:100660000ABE0000004870476C4E00204FF0013C6D
:1006700050F8042B51F8043B9A4221D1A2EB0C0311
:10068000934313EACC1317D150F8042B51F8043BD1
:100690009A4215D1A2EB0C03934313EACC130BD16E
:1006A00050F8042B51F8043B9A4209D1A2EB0C03F9
:1006B000934313EACC13DBD04FF00000704700BF28
:1006C000D01A01BAB1FA81F101F0180122FA01F051
:1006D000CB40C1F12001DBB2C0B2C01A2CFA01F349
:1006E000D11A914311EAC311E6D1704722484FF65F
:1006F000FF710170002080F309882048016881F3B0
:1007000008881F484FF08051016062B6FEE71C4820
:100710004FF080510160704719484FF080510160DF
:10072000704772B6EFF3098050B11EF0100F08BF8A
:1007300020ED108A203880E8F00F1249096808601F
:1007400000B5114880475DF804EB104810490A785D
:1007500002700C480F490A680260106890E8F00FB8
:1007600020301EF0100F08BFB0EC108A80F309880B
:100770004EF0040E62B6704722ED00E00C0300203C
:1007800004ED00E004030020F95400087A02002080
:100790007B0200200803002021B1826842F00102A0
:1007A000826003E0826822F00102826070470000EC
:1007B0000021084A1168084A1140D0E900231A4371
:1007C00083681A43C3681A431143044AC2F80413E6
:1007D0007047000004230140E030FCFF002001408E
:1007E00021B1826842F48072826003E0826822F460
:1007F00080728260704721B1826842F40072826028
:1008000003E0826822F400728260704730B50246CD
:10081000002000235068104C20400D790C6844EAF9
:1008200005242043506090680C4C2040D1E90354CB
:100830002C438D682C434D7944EA45042043906055
:10084000D06A20F470000C7D641EE4B2234340EAB9
:100850000350D06230BD0000FFFEFFFCFDF7FFC07B
:10086000F0B504460D4600200021092D11DDE06899
:10087000A5F10A0606EB4607072606FA07F18843A4
:10088000A5F10A0606EB460603FA06F10843E06006
:100890000CE0206905EB4507072606FA07F18843B7
:1008A00005EB450603FA06F108432061072A0FDA33
:1008B000606B561E06EB86071F2606FA07F1884373
:1008C000561E06EB860605FA06F10843606322E031
:1008D0000D2A0FDA206BD61F06EB86071F2606FAB5
:1008E00007F18843D61F06EB860605FA06F1084392
:1008F000206310E0E06AA2F10D0606EB86071F26D2
:1009000006FA07F18843A2F10D0606EB860605FA02
:1009100006F10843E062F0BD816841F080418160EA
:100920007047000038B10849096841F40001074ADE
:10093000C2F8041306E00449096821F40001034ADF
:10094000C2F8041370470000042301400020014056
:1009500010B50221094800F0C5F90120FFF7E2FFB8
:10096000072301220F210548FFF77AFF0723022200
:1009700010210248FFF774FF10BD00000020014065
:1009800010B50E212B4800F0ADF9072301220A21F2
:100990002848FFF765FF072302220B212548FFF7B0
:1009A0005FFF072303220C212248FFF759FF07238B
:1009B00004220D211F48FFF753FF072305220E21B4
:1009C0001C48FFF74DFF0723062209211948FFF7AE
:1009D00047FF07231A4604211648FFF741FF072364
:1009E000082206211348FFF73BFF072309220F21A6
:1009F0001048FFF735FF07230A2202210D48FFF7B1
:100A00002FFF07230B2205210A48FFF729FF0723A1
:100A10000C2203210748FFF723FF07230D22194665
:100A20000448FFF71DFF07230E2208210148FFF7A6
:100A300017FF10BD0022014010B52DED108B0120D5
:100A400000F00EF904460BF099F841EC1D0B9FEDF8
:100A5000750B53EC102B0BF0A5F841EC1C0B9FED24
:100A6000730B53EC102B0AF0BDFE41EC1B0B9FEDFA
:100A7000710B53EC102B0AF0B5FE41EC1A0B9FEDF5
:100A80006F0B53EC102B0BF08DF841EC190B9FED15
:100A90006D0B53EC102B0BF085F841EC180B0BF0A1
:100AA00029F86A490884022000F0DAF804460BF0BD
:100AB00065F841EC1F0B9FED5B0B53EC102B0BF01B
:100AC00071F841EC1E0B9FED590B53EC102B0AF003
:100AD00089FE41EC1D0B9FED530B53EC102B0BF0DB
:100AE0005FF941EC1C0B9FED5A0B53EC102B0AF0F5
:100AF00079FE41EC1B0B9FED580B53EC102B0BF0C8
:100B000051F841EC1A0B9FED470B53EC102B0BF0F7
:100B100053F941EC190B9FED4B0B53EC102B0BF0E1
:100B200041F841EC180B0AF0E5FF484948840320DE
:100B300000F096F804460BF021F841EC1D0B9FEDF8
:100B4000390B53EC102B0BF02DF841EC1C0B9FEDE7
:100B5000370B53EC102B0AF045FE41EC1B0B9FEDBD
:100B6000350B53EC102B0AF03DFE41EC1A0B9FEDB8
:100B7000330B53EC102B0BF015F841EC190B9FEDD8
:100B8000310B53EC102B0BF00DF841EC180B0AF065
:100B9000B1FF2E498884042000F062F804460AF070
:100BA000EDFF41EC1F0B9FED1F0B53EC102B0AF0D8
:100BB000F9FF41EC1E0B9FED1D0B53EC102B0AF0BF
:100BC00011FE41EC1D0B9FED170B53EC102B0BF09E
:100BD000E7F841EC1C0B9FED1E0B53EC102B0AF0B9
:100BE00001FE41EC1B0B9FED1C0B53EC102B0AF08C
:100BF000D9FF41EC1A0B9FED0B0B53EC102B0BF0B4
:100C0000DBF841EC190B9FED0F0B53EC102B0AF0A6
:100C1000C9FF41EC180B0AF06DFF0C49C884BDEC0C
:100C2000108B10BD6666666666660A4000000000AE
:100C300000FEAF40E17A14AE47E11040AE47E17AE2
:100C4000140E5A400000000000005940C820002047
:100C50005C8FC2F5285C05407B14AE47E1AA594081
:100C6000F0B58AB00446002300210BE0C1EBC100BF
:100C70001B4E06EB8006601E36F810002DF81100A2
:100C8000481CC1B21429F1DB00211AE0002212E055
:100C90003DF81260501C3DF81000864209DD3DF819
:100CA0001250501C3DF810002DF81200501C2DF869
:100CB0001050501CC2B2C1F113009042E8DC481C35
:100CC000C1B21429E2DB022104E03DF81100034423
:100CD000481CC1B21229F8DB1B0998B20AB0F0BD5A
:100CE000E027002030B58BB004460D461C488442F6
:100CF00003D10121801507F057FD1A48844203D122
:100D00000121401507F050FD1748844203D101210D
:100D1000001507F049FD002007904FF4803008903F
:100D2000002009900A9007A8FFF742FD00200190DB
:100D300001208DF808008DF80900002003904FF085
:100D400070600490002005908DF8185001A920468D
:100D5000FFF75CFD01212046FFF71EFD0BB030BD03
:100D600000200140002101400022014010B5FA217D
:100D7000084600F0D3F810BD10B540F6FF7000F043
:100D8000F1F803494889FF2100F0DAF810BD0000AE
:100D9000C820002010B540F6FF71002000F014FFBD
:100DA0000121002000F030FF40F6FF71002000F02C
:100DB0001BFF0121102000F027FFFF21084600F053
:100DC000BFF84FF40041044802F028F94FF4804185
:100DD000014802F023F910BD0018024010B5254863
:100DE000008941F64C51884243DC22480089B0F525
:100DF0007A7F3EDB1F48408988423ADC1D484089A3
:100E0000B0F57A7F35DB1B488089B0F5FA7F30DC9E
:100E100018488089FA282CDB1648C089B0F5FA7F7B
:100E200027DC1448C089FA2823DB4FF4004112481C
:100E300002F0F4F84FF480410F4802F0EFF8FFF7AA
:100E40009BFF0C49088900F08DF80A4AD189508926
:100E500000F076F8074AD189908900F05FF84FF4E6
:100E60000041054802F0D8F84FF48041024802F0F2
:100E7000D5F810BDC82000200018024010B5254844
:100E8000008941F64C51884242DC22480089B0F585
:100E90007A7F3DDB1F484089884239DC1D48408904
:100EA000B0F57A7F34DB1B488089884230DC1948F2
:100EB0008089B0F5FA7F2BDB1648C089884227DC91
:100EC0001448C089B0F5FA7F22DB4FF40041124884
:100ED00002F0A4F84FF480410F4802F09FF8FFF7AA
:100EE00045FF0C49088900F03DF80A49888900F05F
:100EF00048F8084AD189508900F022F84FF400419F
:100F0000054802F089F84FF48041034802F084F864
:100F100010BD0000C8200020001802402DE9F0415B
:100F200005460C46284607F0DBFB0646204602F045
:100F300065FE0746F9B2F0B201F0B8FCBDE8F081F9
:100F40002DE9F04105460C4628460AF093F806467E
:100F500020460AF08FF80746F9B2F0B201F0F4FC2F
:100F6000BDE8F08170B5044620460AF0D3F8054686
:100F70002946002000F028FE0121002000F044FE58
:100F800070BD70B5044620460AF0C4F805462946EF
:100F9000002000F029FE0121102000F035FE70BD78
:100FA0000EB5A6E0534A1179106807F097FC0128A6
:100FB0000AD10221504880F853104E4A1179106826
:100FC000FFF731FA00F0D8FC4B4890F853000228A4
:100FD00016D1494890F85200012811D10021464805
:100FE00080F85210A020454988703120C8704448CC
:100FF00048604449086801F059FF434807F040FD44
:10100000424A1179106807F069FC01280AD10321CE
:10101000394880F853103D4A11791068FFF703FAF8
:1010200000F0AAFC394A1179106801F0F1FC40B1D6
:101030000321314880F85310344A11791068FFF7C2
:10104000F2F92D4890F85300032848D12A4890F827
:101050004D0001280CD10021274880F84D10C08C8C
:1010600000902548838C428C018C29A0FFF746F91B
:10107000214890F84E0001280CD100211E4880F82C
:101080004E10C08C00901C48838C428C018C20A098
:10109000FFF734F9184890F84C0001280DD10020D2
:1010A000154981F84C000846C08C00900846838C96
:1010B000428C018C16A0FFF721F90F4890F85100DF
:1010C00001280CD100210C4880F85110C08C0090F0
:1010D0000948838C428C018C0DA0FFF70FF902A800
:1010E000082132230022CDE900101146104604F0F9
:1010F000CDFA57E790000020C820002024000020EF
:101100003000002098000020A060024080000020F5
:10111000566F6C74616765203A2025642025642031
:101120002564202564200D0A0000000000B58BB066
:101130000AA8032100220592CDE906210890104655
:101140004FF480711922074BCDE90132CDE903102C
:1011500006200023044A05A10090084803F088FCFB
:101160000BB000BD80120020A10F00084170705F1D
:10117000436F6D5F5461736B00000000C01100206D
:101180000EB50BE001F0C4FD02A8082100230222E5
:10119000CDE900101946184604F078FAF2E700008D
:1011A00000B58BB00AA8032100220592CDE90621E3
:1011B000089010464FF480711922074BCDE9013297
:1011C000CDE9031007200023044A05A10090084838
:1011D00003F04EFC0BB000BD401700208111000849
:1011E0004170705F46616E5F5461736B0000000078
:1011F000801600200EB50FE04FF48061074801F023
:101200000FFF02A808214FF4FA730022CDE9001065
:101210001146104604F03AFAEEE70000000C0240D6
:1012200000B58BB00AA8032100220592CDE9062162
:10123000089010464FF480711922074BCDE9013216
:10124000CDE9031003200023044A05A100900848BB
:1012500003F00EFC0BB000BDC0080020F511000823
:101260004170705F4C65645F5461736B00000000F7
:101270000008002010B586B0002400F0E9FA05A8A7
:1012800003F074FB05AA0121084603F023FA00BF0E
:1012900000BF00BFFFF71AF8044600BF00BF2E488A
:1012A0000078401C2C49087000BF00BF2046FFF7A3
:1012B00011F800BF00BF00BFFFF7B2FF00F062FAF5
:1012C000FFF734FFFFF76CFF00F09AF805A8002144
:1012D000224A0223CDE90032CDE9021001231A4649
:1012E0001FA1244804F0F2FA05A9224804F048FBA3
:1012F00005A9214804F0D0F800BF00BF00BFFEF7E9
:10130000E5FF044600BF00BF13480078401E1249A5
:10131000087008460078A0B918480088002809DD40
:1013200000BF00BF2046FEF7D5FF00BF00BF05F09D
:10133000C5FC0DE000BF00BF2046FEF7CBFF00BF9D
:1013400006E000BF00BF2046FEF7C4FF00BF00BF9D
:1013500000BF06B010BD000094020020BDB100081F
:101360005379735F537461746543686B5F546D7236
:1013700000000000D00300201003002058020020CD
:1013800000B58BB00AA8032100220592CDE9062101
:10139000089010464FF480711922074BCDE90132B5
:1013A000CDE903101E200023044A05A1009008483F
:1013B00003F05EFB0BB000BD0004002075120008B6
:1013C0004170705F53746172745F5461736B00009D
:1013D000100300200EB511E0BDF8080007F0F4FC82
:1013E000BDF8080007F0FAFD02A808210A23002230
:1013F000CDE900101146104604F048F9ECE7000072
:1014000000B58BB00AA8032100220592CDE9062180
:10141000089010464FF480711922074BCDE9013234
:10142000CDE9031008200023044A05A100900848D4
:1014300003F01EFB0BB000BD001C0020D5130008FC
:101440005379734F6E4F66665461736B54636200D9
:10145000401B00200EB582E109F0A2FD80B1C0481A
:101460000068C1B2BF4807F039FA012805D101214F
:10147000BD4880F8531000F07FFA0020B84908609A
:10148000B94890F8530001287ED1B74890F84D0034
:10149000012850D10021B44880F84D100220B349F2
:1014A00088700820C870B048008C00124968087025
:1014B000AD4890F82000AD4949684870AA48408C72
:1014C0000012AA4949688870A74890F82200A749E5
:1014D0004968C870A448808C0012A4494968087102
:1014E000A14890F82400A149496848719E48C08CE1
:1014F00000129E49496888719B4890F826009B49D4
:101500004968C8719848408800129849496808722B
:1015100095488078954949684872954801F0C6FC1D
:101520009348C078811D9348C26891489047002035
:101530008D49087048808C4890F84E00012852D19F
:101540000021894880F84E100320884988700820BF
:10155000C8708548008C001249680870824890F86D
:1015600020008249496848707F48408C00127F49BA
:10157000496888707C4890F822007C494968C870A6
:101580007948808C001200E0DFE0784949680871F2
:10159000754890F824007549496848717248C08CB4
:1015A00000127249496888716F4890F826006F49A7
:1015B0004968C8716C48408800126C4949680872D3
:1015C00069488078694949684872694801F06EFC49
:1015D0006748C078811D6748C26865489047002009
:1015E000614908704880604890F84F00A8B1012117
:1015F0005D4880F84F1000205C4988700120C87059
:101600000020496808705A4801F050FC5848C078DA
:10161000811D5848C26856489047534890F850007A
:1016200018B30121504880F8501013204F49C8705A
:101630000846406850490A6802604A6842600A8960
:101640000281897A8172494840684C490A6840F8A9
:101650000B2F49684160464801F028FC4448C07897
:10166000811D4448C268424890473F4890F8520064
:10167000012814D100213C4880F85210A0203B4999
:1016800088701F20C8703E484860394801F00EFC41
:101690003748C078811D3748C2683548904732487E
:1016A00090F84C00012850D100202F4981F84C00BF
:1016B000F0202E4988700820C8702B48008C00123A
:1016C00049680870284890F82000284949684870FF
:1016D0002548408C0012254949688870224890F8B6
:1016E000220022494968C8701F48808C00121F4997
:1016F000496808711C4890F824001C4949684871E1
:101700001948C08C0012194949688871164890F828
:10171000260016494968C8711348408800121349C9
:101720004968087210488078104949684872104822
:1017300001F0BCFB0E48C078811D0E48C2680C4801
:101740009047002008490870488002A808210A2311
:101750000022CDE900101146104603F097FF7BE60A
:10176000B0000020A22B0020C82000202400002070
:10177000C00C0020BC000020000000200B00002056
:101780003000002000B58BB00AA80321002205928A
:10179000CDE90621089010464FF480711922074BBD
:1017A000CDE90132CDE9031004200023044A05A14C
:1017B0000090084803F05CF90BB000BDC00D00209C
:1017C000551400084170705F5573625F5461736B0C
:1017D00000000000000D00201FB5684606F0F4FF71
:1017E000019804B010BD000008B500214FF0006062
:1017F00002F0FAF902F036FA01F0C2FC0F48104B81
:10180000104A01210090104808F039F807F04CFA0E
:1018100000F046F907F0BAF9FFF7BCFAFFF7A6FAAD
:1018200009F0F4FB02F008F9002001F0DBF81020C9
:1018300001F0D8F801F068FA08BD00002801002086
:1018400068010020D00000202421002000BFFEE716
:1018500010B500F01FF800F019F810BD10B5002405
:1018600000BF00BFFEF732FD044600BF00BF1021DD
:10187000054802F03EF900BF00BF2046FEF72AFDF2
:1018800000BF00BF10BD0000E233002010B5FFF71D
:10189000E5FF10BD10B500200249086000F00AF80D
:1018A00010BD0000200200200149086070470000C0
:1018B0002002002010B5FFF78FFF0446084800689B
:1018C00040F08070064908600020064948600846DC
:1018D000006840F0010008602046FFF7E5FF10BDFA
:1018E000FCED00E0001000E001494868704700008E
:1018F000001000E01F48008996301E490882084603
:1019000000899638488208460089963088820846C1
:1019100000899638C88208460079012811D1002034
:101920000871084680899630088308468089963871
:10193000488308468089963088830846808996388F
:10194000C8830C484079012812D100200949487108
:101950000846808964300883084680896438488353
:101960000846808964308883084680896438C88343
:1019700070470000C820002010B513488078032865
:1019800016D005DC58B101280CD0022816D10CE085
:10199000042810D0A02811D101F0C0FB11E001F003
:1019A000C5FB0EE001F0B2FB0BE001F075FB08E0B7
:1019B00001F03AFB05E001F0DBFB02E002F06EF81B
:1019C00000BF00BF10BD00001800002010B540F29D
:1019D00024412D4807F0F9FB18B340F224412A486E
:1019E00007F0C2FB284800882748001D0088002116
:1019F000264800F0CDFE2649244800F095FE2348F5
:101A000000F0D1FEC0F16400224908710846006868
:101A10001E494039C8646420486401211B4800F015
:101A2000B7FE40F224411C4807F0CFFB50B340F210
:101A30002441194807F098FB174800881648001DF4
:101A4000008800211148483000F0A2FE10490F48DC
:101A5000483000F069FE0D48483000F0A4FEC0F1A7
:101A600064000E490871084600680849543108604E
:101A7000642006494039C1F88C00012103484830F0
:101A800000F086FE10BD0000004C004040600240A7
:101A90002000002080000020004400409000002032
:101AA00000B587B04FF4E1312C4809F02DFA00223F
:101AB00040F22551294807F0B2FB002240F227717D
:101AC000264807F0ACFB012240F22441234807F0EE
:101AD000A6FB01224021214807F061FB0122802161
:101AE0001E4807F05CFB4FF440304FF48071002239
:101AF0000292CDE9032105906420CDE90020184829
:101B0000164A121DC9040368164801F03FF84FF445
:101B100040304FF4807100220292CDE903210590FC
:101B200064204021CDE900100F480C4A121D4905E0
:101B300003680C48183001F029F80121094800F029
:101B400027FE00210748183000F022FE0122102154
:101B50000448183000F05EFE07B000BD00440040AD
:101B600090000020886002409800002039B1084AA7
:101B70001268012383401A43054B1A6006E0044AA9
:101B80001268012383409A43014B1A60704700009A
:101B90000074004030B5002200230A4C226840F651
:101BA000FE748440A243D1E900452C438D682C4348
:101BB000CD6844EA050303FA00F42243014C226095
:101BC00030BD00000074004008B500220092054AB4
:101BD000009200F10802009B1A440092009A1160E2
:101BE00008BD00000074004008B500220092054ABC
:101BF000009200F11402009B1A440092009A1160B6
:101C000008BD00000074004010B541B1084A1268D8
:101C100004090123A3401A43054B1A6007E0044A54
:101C2000126804090123A3409A43014B1A6010BDB6
:101C30000474004070B506460C4604F0800080280D
:101C400008D104F07F0000EB800106F58E7000EBF8
:101C5000C10507E004F07F0000EB800106F55D7030
:101C600000EBC10504F07F00287004F08000C0097B
:101C700068702946304608F0D6FD002070BD70B56A
:101C800006460C4604F08000802808D104F07F004E
:101C900000EB800106F58E7000EBC10505E004EB5A
:101CA000840106F55D7000EBC1050020A87004F00A
:101CB0007F002870C4F3C01068702946304608F0D1
:101CC0008AFD002070BD2DE9F04106460D46904684
:101CD0001F4605F08000802808D105F07F0000EB4A
:101CE000800106F58E7000EBC10407E005F07F006F
:101CF00000EB800106F55D7000EBC10405F07F008C
:101D0000207005F08000C0096070C4F80880E7709A
:101D1000607808B12078E080022F01D10020207186
:101D20002146304608F00BFD0020BDE8F0812DE98A
:101D3000F04105460E461746984606F07F0000EB38
:101D4000800105F55D7000EBC104E760C4F8148004
:101D50000020A061607006F07F002070E878012804
:101D600000D12761207820B92146284608F00BFCD5
:101D700003E02146284608F0D5FD0020BDE8F081AB
:101D800008B500220092009A61F30A1200920269DB
:101D90001268009B1A4303691A6008BD70B50646B5
:101DA0000C4604F08000802808D104F07F0000EB8E
:101DB000800106F58E7000EBC10505E004EB84019F
:101DC00006F55D7000EBC1050120A87004F07F00EE
:101DD0002870C4F3C01068702946304608F070FDC2
:101DE000002070BD2DE9F04107460D461646984685
:101DF00005F07F0000EB800107F58E7000EBC10459
:101E00000120607005F07F002070E66026610020F0
:101E1000A061C4F81480207820B92146384608F023
:101E2000B2FB03E02146384608F07CFD0020BDE807
:101E3000F081000030B587B00546594C284608F0BF
:101E400068FB01A806F0C0FC029CE868C068059029
:101E5000059820F4705005900598E968C8602846F8
:101E600008F032FF03280BD10020A8704FF4007057
:101E7000A880059820F4705000F5105005907EE081
:101E80000120A8704020A8804648844209D34648D3
:101E9000844206D2059820F4705000F560500590F9
:101EA0006DE04148844209D34048844206D20598F7
:101EB00020F4705000F55050059060E03B4884429B
:101EC00009D33B48844206D2059820F4705000F5AF
:101ED0004050059053E03648844209D33548844247
:101EE00006D2059820F4705000F53050059046E079
:101EF0003048844209D33048844206D2059820F401
:101F0000705000F52050059039E02B48844209D3E9
:101F10002A48844206D2059820F4705000F51050EB
:101F200005902CE02548844209D32548844206D2F6
:101F3000059820F4705000F5005005901FE02048EF
:101F4000844209D31F48844206D2059820F4705079
:101F500000F5E050059012E01A48844209D31A486F
:101F6000844206D2059820F4705000F5C0500590C8
:101F700005E0059820F4705000F5A05005900598F4
:101F8000E968C86000200690069820F4005000F52B
:101F9000005006900698E9684861012007B030BDFE
:101FA000007A030AC0E1E4000024F400E0EC04013C
:101FB00000C31801002D310140A44C0100366E0110
:101FC00040E2950180C3C90160600B02F8B5054687
:101FD000002400200090284608F0B7FE064681E065
:101FE00006F0010000287BD0E1B2284600F00CFB8F
:101FF0000090009800F0010030B3012000FA04F7CF
:102000002869406BB8432969486300200090009814
:1020100020F00100401C009005F1180050F8240049
:1020200000998160E1B232480068426828469047D2
:10203000E878012808D13CB940F21110405D04282D
:1020400002D1284608F04AFB0098C0F3C00060B1F6
:1020500000200090009820F008000830009005F162
:10206000180050F82400009981600098C0F3001017
:1020700060B100200090009820F010001030009017
:1020800005F1180050F82400009981600098C0F311
:10209000801060B100200090009820F04000403097
:1020A000009005F1180050F8240000998160009814
:1020B000C0F3400060B100200090009820F00200C2
:1020C000801C009005F1180050F8240000998160F0
:1020D0000098C0F3C01018B12146284600F0BEFA9F
:1020E000641C7608002E7FF47BAF0120F8BD000051
:1020F0000C0200207CB504460025002001902046FB
:1021000008F02BFE06466FE006F00100002869D0BB
:10211000E9B2204608F029FE0190019800F0010084
:10212000C8B300200190019820F00100401C0190EC
:1021300004F1540050F8250001998160E0780128ED
:1021400017D104F1540050F825000069009005EB08
:10215000850104F55D7000EBC10080680099C1F352
:102160001201411A05EB850204F55D7000EBC20017
:102170008161E9B21E480068026820469047E07815
:10218000012808D13DB940F21110005D052802D1A7
:10219000204608F0A3FA0198C0F3400060B1002087
:1021A0000190019820F00200801C019004F154007D
:1021B00050F82500019981600198C0F3C00088B1F2
:1021C0000B480068816820468847002001900198EC
:1021D00020F008000830019004F1540050F8250068
:1021E000019981606D1C7608002E8DD101207CBD87
:1021F0000C0200203EB50446A07A78B1D4F80C0158
:1022000000680090009820F002000090009820F0F4
:10221000010000900099D4F80C01016000200190A9
:10222000019820F00100401C01902069406801994C
:1022300088432169486009480068816920468847C9
:1022400000200290029820F0004000F1004002902F
:102250000298E168486101203EBD00000C020020A8
:102260007CB5044600200190019820F01000103049
:102270000190E068806901998843E1688861E068BD
:10228000006A0090009800F00F0000EB800104F558
:102290005D7000EBC1050098C0F3434007282DD2C4
:1022A000DFE800F02C04051D1E2C1F0027E000981D
:1022B000C0F30A1090B10098C0F30A122046E968F2
:1022C00008F05DFDE8680099C1F30A110844E86070
:1022D000A8690099C1F30A110844A8610FE00EE053
:1022E0000DE0082204F2CC51204608F048FDA86910
:1022F0000099C1F30A110844A86100E000BF00BFC3
:10230000E068806901990843E168886101207CBD2B
:1023100038B5044608480068C16820468847002050
:102320000090009820F00800083000900098E168C4
:102330004861012038BD00000C0200201FB5044692
:10234000002000904FF48970005D009023480068E1
:1023500041692046884720698068019000200390E9
:10236000039820F4006000F5006003900398E16892
:102370004861A07A70B3019800F0010050B340F2B8
:102380001510005D012825D19DF80000032821D1FA
:1023900000200290029820F00100401C0290D4F826
:1023A0000C01006802990843D4F80C1108600298E7
:1023B00020F00200801C0290D4F80C010068029901
:1023C0000843D4F80C1108600548006840F0060086
:1023D00003490860012004B010BD00000C02002079
:1023E00010ED00E030B587B0044600200290069062
:1023F0000590049003900190029820F00100401C89
:102400000290206940680299884321694860002150
:10241000204608F02FFC00250BE0FF2104F11800F6
:1024200050F82500816004F1540050F825008160C7
:102430006D1C6078A842F0D84FF0FF3120698161AF
:1024400006986FF30F00401C0690069880B200F5C6
:102450008030069006992069C161059820F0080037
:1024600008300590059820F00100401C0590059863
:1024700020F00200801C05900599206941610498B4
:1024800020F00100401C0490049820F0080008305F
:102490000490049820F00200801C049004992069A4
:1024A0000161206900680390039820F4FE600390A6
:1024B000039920690160204608F010F9002001907E
:1024C000019820F4805000F5805001900198E16857
:1024D000486104480068016920468847012007B028
:1024E00030BD00000C0200202DE9F04106460F46E9
:1024F0003946304608F058FC01214FF48970815567
:102500000021801C8155002511E005EB850106F5B1
:102510008E7000EBC104012060702570E580002002
:10252000E0704020A0600020E06060616D1C707869
:10253000A842EAD8002510E005EB850106F55D709C
:1025400000EBC104002060702570E580E070402041
:10255000A0600020E06060616D1C7078A842EBD83C
:10256000304607F0C5FF304607F0F5FD0021304644
:1025700008F082FC304607F07BFE304608F043FB53
:10258000BDE8F08138B50446002000900748006897
:10259000C16920468847009820F4801000F580101B
:1025A00000900098E1684861012038BD0C020020CD
:1025B00038B504460020009007480068016A2046AC
:1025C0008847009820F4001000F500100090009853
:1025D000E1684861012038BD0C02002038B504468E
:1025E000E068406800900098C0F3800020B1054882
:1025F0000068816A204688470098E16848600120A9
:1026000038BD00000C02002030B5024615692B6968
:1026100015696C6B24FA01F505F0010543EAC51351
:1026200002F1180555F82150AD6805EA030030BDE8
:1026300038B5044608480068416A204688470020AB
:102640000090009820F0804000F1804000900098B9
:10265000E1684861012038BD0C0200202DE9F843F3
:1026600006460F4600250020009007EB870106F57F
:102670008E7000EBC104D4E90501451AA068A84298
:1026800000D2A568E81C4FEA900806F1180050F83F
:1026900027008069009029E0D4E90501451AA06867
:1026A000A84200D2A568E81C4FEA9008ABB2FAB283
:1026B0003046E16808F007FCE0682844E060A06963
:1026C0002844A06106F1180050F8270080690090A6
:1026D000D4E90501884209D12178012000FA01F9E5
:1026E0003069406B20EA090031694863009880B284
:1026F000404506D9D4E90510884202D26069002815
:10270000CAD10120BDE8F88310B501F0E1FB00F06B
:102710007DFA01F0F3FB10BD10B501F0D9FB00F01C
:1027200075FA01F0EBFB10BD0246094B9A4201D24B
:10273000084801E00648103801F000531BB1064B71
:102740000B40C36002E0044B0B4083607047000005
:1027500010640240006002407D0F7D0F0246094B6D
:102760009A4201D2084801E00648103801F00053AF
:102770001BB1064B0B40C36002E0044B0B4083606F
:102780007047000010640240006002407D0F7D0F22
:1027900021B1026842F00102026003E0026822F007
:1027A0000102026070470146486880B2704700002D
:1027B00070B50246002000240025124EB24201D21C
:1027C000114B01E00F4B103B104E0E4036B11E2650
:1027D00006EAD124166806EA040502E0566906F006
:1027E000800501F000560EB15C6800E01C68084EE0
:1027F000344004EA010616B10DB1012000E00020CA
:1028000070BD000010640240006002403C0F3C0FAD
:102810007D0F7D0F10B501F080034BB122B14369EC
:1028200043F08003436103E0436923F08003436185
:1028300080290BD02AB1036801F01E0423430360F2
:1028400004E0036801F01E04A343036010BD000010
:1028500010B500220268134B1A40CC680B68234362
:102860004C6923438C692343CC6923430C6A23437B
:102870004C6A23438C6A23434C6B23438C6B234366
:102880001A430260426922F00702D1E90B34234364
:102890001A4342610B6943604B6883608B68C36075
:1028A00010BD00003F801CF04160704770B50446C9
:1028B0000D464FF48041224800F0AEFB49F2010181
:1028C000204806F0C4F84FF47A6000F059F94FF44C
:1028D00080411B4800F0A2FB4FF4FA6000F050F971
:1028E0004FF48041164800F097FB4FF4805040EAC7
:1028F0000511144806F0ABF84FF47A6000F040F987
:102900004FF480410E4800F089FB4FF4FA6000F06C
:1029100037F94FF480410A4800F07EFB4FF4004045
:1029200040EA0411074806F092F84FF47A6000F08C
:1029300027F94FF48041024800F070FB70BD0000A1
:1029400000040240003C004070B504460D464FF4C0
:102950000051224800F060FB49F20101204806F0D6
:1029600076F84FF47A6000F00BF94FF400511B48F1
:1029700000F054FB4FF4FA6000F002F94FF40051FC
:10298000164800F049FB4FF4805040EA0511144806
:1029900006F05DF84FF47A6000F0F2F84FF4005161
:1029A0000E4800F03BFB4FF4FA6000F0E9F84FF4FA
:1029B00000510A4800F030FB4FF4004040EA041197
:1029C000074806F044F84FF47A6000F0D9F84FF465
:1029D0000051024800F022FB70BD000000040240DC
:1029E000003C00401FB504460121480705F0CCFE1D
:1029F0003C20009000200190029002200390694644
:102A00002046FFF7C7F801212046FFF7AFF81FBDAA
:102A100070B504460D460026204600F09BF8064699
:102A2000012E02D0022E56D156E0E07930384FF414
:102A30007A7110FB01F1207A303800EBC00202EB12
:102A4000001001EB8001607A303800EB800001EB70
:102A50004001A07A3038084480B23C49088148815E
:102A6000102D1AD1207B30384FF47A7110FB01F110
:102A7000607B303800EBC00202EB001001EB8001FC
:102A8000A07B303800EB800001EB4001E07B303868
:102A9000084480B22D498881C8810F2D11D1207B37
:102AA0003038642110FB01F1607B303800EB80008E
:102AB00001EB4001A07B3038084480B22349888173
:102AC000C881012021490871FEF714FFFEF7D6F9ED
:102AD00001201E49887136E0E07930384FF47A7170
:102AE00010FB01F1207A303800EBC00202EB00103D
:102AF00001EB8001607A303800EB800001EB40018F
:102B0000A07A3038084480B2104908814881207B7F
:102B10003038642110FB01F1607B303800EB80001D
:102B200001EB4001A07B3038084480B2074988811E
:102B3000C88101204871FEF7DDFEFEF74FF9012044
:102B40000249C87100BF00BF304670BDC8200020D8
:102B50007047000070B5054600240BE0074850F8A8
:102B6000241006222846FDF745FC10B9601CC0B2AF
:102B700070BD641C022CF1DB0020F9E7640000202A
:102B800000BF411E89B2081EFBD170472DE9F04FEE
:102B90008FB004460D4616461F46DDE91AABDDE947
:102BA00018891948844204D20121480505F0CCFD5A
:102BB00003E00121880505F0C7FD00950196029705
:102BC000CDF80C80CDF81090002005904FF4806077
:102BD0000690CDF81CA0CDF820B01C9809901D9847
:102BE0000A9000200B9003200C9000200D900E9076
:102BF00069462046FFF72CFE00212046FFF7C8FD5E
:102C00000FB0BDE8F08F00000064024010B5094924
:102C10000948FFF7CDFD58B100210748FFF7B8FD7F
:102C200064210548FFF740FE02490348FFF796FD7F
:102C300010BD000000802020A060024070B5044656
:102C40000D46164600F08EFEFE2101EA440000F01B
:102C50003DFE00F0C9FE10B110A0FDF74FFB284665
:102C600000F034FE00F0C0FE10B10CA0FDF746FBF2
:102C700000F078FE012101EB4401C8B200F026FE0D
:102C800000F0B2FE10B105A0FDF738FB00F0F4FD36
:102C9000307000F045FE00F087FE70BD49494320CA
:102CA0004552524F52200D0A0000000070B50446F4
:102CB0000D46164600F056FEFE2101EA440000F0E3
:102CC00005FE00F091FE10B10BA0FDF717FB2846A2
:102CD00000F0FCFD00F088FE10B107A0FDF70EFB30
:102CE000304600F0F3FD00F07FFE10B102A0FDF7CA
:102CF00005FB00F059FE70BD494943204552524F33
:102D000052200D0A0000000010B500F095F810BD2B
:102D100010B5464890F8401090F83F00814205DB1E
:102D2000424890F840004249087004E03F4890F85B
:102D30003F003F4908703D4890F841003C49097800
:102D4000884204DC3A4800783949087004E0374882
:102D500090F84100364908703548007835490978BF
:102D6000884262D032480078324908703048007892
:102D7000322819DC0C2230212C20FFF797FF0C227F
:102D800040212C20FFF792FF0C2250212C20FFF72E
:102D90008DFF0C2260212C20FFF788FF0C22702170
:102DA0002C20FFF783FF40E021480078322823DD04
:102DB0001F4800785F281FDA1D48007800EB80006C
:102DC0000C30C4B2224630212C20FFF76FFF224680
:102DD00040212C20FFF76AFF224650212C20FFF7CC
:102DE00065FF224660212C20FFF760FF22467021FC
:102DF0002C20FFF75BFF18E0FF2230212C20FFF78B
:102E000055FFFF2240212C20FFF750FFFF225021C9
:102E10002C20FFF74BFFFF2260212C20FFF746FFFD
:102E2000FF2270212C20FFF741FF10BDC820002099
:102E3000750000207600002008B5802220212C207B
:102E4000FFF734FF6A4620212C20FFF7F7FE00220F
:102E50002A212C20FFF72AFF1F222B212C20FFF7ED
:102E600025FF00222C210846FFF720FF00222D21FC
:102E70002C20FFF71BFF0C2230212C20FFF716FF20
:102E80000C2240212C20FFF711FF0C2250212C2076
:102E9000FFF70CFF0C2260212C20FFF707FF0C220C
:102EA00070212C20FFF702FF08BD000010B50022A2
:102EB0001E4949781D4B9B7819441C4BDB781944FB
:102EC0001A4B197200BF09E01849097A174B5B6861
:102ED0009B5C1944154B1972511CCAB21349C9782D
:102EE0009142F1DC1149097801701049497841702B
:102EF0000E49897881700D49C978C170002105E0BB
:102F00000A4B5B685C5C0B1DC454491C074BDB78A7
:102F10008B42F5DC05490B7AC978091D43540349F6
:102F20004B7AC978491D435410BD0000240000208D
:102F3000F0B50A4600210023002400BF3DE0012532
:102F400005FA01F3156805EA03049C4234D10568CB
:102F50004F000326BE40B543056015794E00B540CD
:102F60000668354305601579012D02D01579022DCB
:102F700016D185684F000326BE40B543856055795C
:102F80004E00B540866835438560456801268E4011
:102F9000B5434560456896798E40B6B23543456085
:102FA000C5684F000326BE40B543C560D5794E00C5
:102FB000B540C6683543C560491C1029BFD3F0BD74
:102FC000F0B5002300244D07ED0E02FA05F3CE10F4
:102FD00000F1200555F826504E07F70E0F26BE408B
:102FE000B543CF1000F1200646F82750CE1000F16F
:102FF000200555F8265045EA0304CE1000F12005BF
:1030000045F82640F0BD0246002013690B400BB185
:10301000012000E000207047418370470183704722
:1030200042694A404261704710B51948406840788B
:1030300017494968097840EA01201649088114486F
:103040004068C07812494968897840EA01201149EE
:1030500048810F48406840790D494968097940EA3C
:1030600001200C4988810A484068C07908494968AC
:10307000897940EA01200749C88101204871FEF79B
:1030800039FCFDF7ABFE01200249C87110BD0000FC
:1030900018000020C820002010B501201949087030
:1030A00019484068407818494968097840EA012081
:1030B0001449088114484068C078134949688978E0
:1030C00040EA01200F4948810F48406840790E4985
:1030D0004968097940EA01200A4988810A4840681C
:1030E000C07909494968897940EA01200549C881C0
:1030F00001200871FEF7FEFBFDF7C0FE012001492B
:10310000887110BDC820002018000020012102484D
:1031100080F8501070470000C820002001210248AC
:1031200080F8521070470000C8200020012102489A
:1031300080F84F1070470000C820002070B50A4882
:103140000468001D0568001D0668344454B1082257
:103150000649204600F0ACFC042204491031284600
:1031600000F0A6FC70BD0000107AFF1F0E010020C9
:103170000121024880F8511070470000C82000204B
:1031800008B501217F2005F0DFFA0121080705F0CD
:10319000FBFA012005F09EFA002005F089FB0020D3
:1031A00005F098FA08220021FE48FFF709FF0822DF
:1031B0000121FC48FFF704FF002003460222012101
:1031C0000090F84800F0D0FA002003460222114691
:1031D0000090F44800F0C8FA0020034603220421BE
:1031E0000090F04800F0C0FA0020034603220821B6
:1031F0000090EC4800F0B8FA0220002303221021CE
:103200000090E84800F0B0FA0220002303222021B9
:103210000090E44800F0A8FA0020034601221102C1
:103220000090E04800F0A0FA00200346012291023D
:103230000090DC4800F098FA4FF48061D948FFF71D
:10324000EBFE01200023024601460090D64800F024
:103250008BFA002001231A4640210090D24800F04A
:1032600083FA002001231A4680210090CE4800F006
:103270007BFA01200023024601020090CA4800F0B8
:1032800073FA01200023024641020090C64800F074
:103290006BFA01200023024641030090C24800F06F
:1032A00063FA01200023024681030090BE4800F02B
:1032B0005BFA00200346032201210090BB4800F086
:1032C00053FA00200346032202210090B74800F081
:1032D0004BFA00200346032204210090B34800F07B
:1032E00043FA00200346032208210090AF4800F073
:1032F0003BFA00200346032220210090AB4800F057
:1033000033FA00200346012251020090A74800F042
:103310002BFA06220A21A548FFF752FE01200023BE
:10332000022281020090A14800F01EFA06220B2121
:103330009E48FFF745FE012000230222C1020090B3
:103340009A4800F011FA06220C219848FFF738FE3F
:1033500001200023022201030090944800F004FAA7
:1033600000200346012251030090904800F0FCF930
:103370004FF400518D48FFF751FE00200346012213
:1033800091030090894800F0EFF94FF4804187489D
:10339000FFF744FE002003460122D103009083483A
:1033A00000F0E2F90020034601220221009080484B
:1033B00000F0DAF9002003460122042100907C4845
:1033C00000F0D2F904217A48FFF728FE00200346D6
:1033D000012208210090764800F0C6F908217448BF
:1033E000FFF71CFE002003460122102100907048C8
:1033F00000F0BAF910216E48FFF710FE07220521F0
:103400006B48FFF7DDFD072206216948FFF7D8FD6D
:1034100000200346022220210090654800F0A4F914
:1034200000200346022240210090614800F09CF9F0
:10343000002003460122802100905D4800F094F9AD
:1034400080215B48FFF7EAFD0020034601221102BC
:103450000090574800F088F94FF480715448FFF706
:10346000DDFD00200346012251020090504800F08B
:103470007BF94FF400714E48FFF7D0FD0020034662
:103480000122910200904A4800F06EF900200346A4
:103490000122D1020090464800F066F90020034660
:1034A000012211030090424800F05EF94FF4805170
:1034B0003F48FFF7B3FD002003460122510300906F
:1034C0003B4800F051F9002003460122910300908F
:1034D000374800F049F90020034602464FF4004106
:1034E0000090334800F040F90020034602460121D5
:1034F0000090304800F038F9022000231A460146B7
:1035000000902C4800F030F90020034601220421ED
:103510000090284800F028F90020034602460821C0
:103520000090244800F020F90020034602461021B4
:103530000090204800F018F90020034602462021A0
:1035400000901C4800F010F90020034601221102EF
:103550000090184800F008F90020034602464FF496
:1035600000710090134800F0FFF80020034601228C
:10357000910200900F4800F0F7F84FF480610D4879
:10358000FFF74CFD002003460122D10200900948BC
:1035900000F0EAF80020034602464FF48051009004
:1035A000044809E000000240000402400008024014
:1035B000000C02400010024000F0D6F80020034644
:1035C00002464FF400510090644800F0CDF800200E
:1035D0000346012202210090614800F0C5F8002056
:1035E00003460122114600905D4800F0BDF800201E
:1035F0000346012204210090594800F0B5F800204C
:103600000346032208210090554800F0ADF8002041
:103610000346032210210090514800F0A5F8002035
:1036200003460322202100904D4800F09DF8002021
:103630000346032240210090494800F095F80020FD
:103640000346032280210090454800F08DF80020B9
:10365000034603224FF480710090414800F084F843
:103660000020034603224FF4007100903C4800F014
:103670007BF80020034603224FF480610090384815
:1036800000F072F8002003460122D1020090344875
:1036900000F06AF800200346012211030090304830
:1036A00000F062F8002003460122510300902C48EC
:1036B00000F05AF8002003460122910300902848A8
:1036C00000F052F8002003460122D1030090244864
:1036D00000F04AF8002003460122114600902148DC
:1036E00000F042F8002003460122022100901D480C
:1036F00000F03AF800200346012204210090194806
:1037000000F032F8002003460122082100901548FD
:1037100000F02AF8002003460122102100901148F1
:1037200000F022F8002003460122910300900D488A
:1037300000F01AF84FF480410A48FFF76FFC0020B0
:1037400003460122D1030090064800F00DF84FF423
:1037500000410448FFF762FC08BD00000010024071
:1037600000140240001802402DE9FC4107460C46B7
:1037700015461E46DDF8208000948DF80450032085
:103780008DF805008DF806608DF80780694638468B
:10379000FFF7CEFBBDE8FC8170B5064630480078E7
:1037A00000285BD12F480068B0F5006F02D10020DF
:1037B0002C4908602B4800682B490968884203D1CE
:1037C00000202749087070BD26480068264909680E
:1037D000884206D923480068C0F500602349086084
:1037E00006E0214800681F490968401A1F4908601F
:1037F0001E480068402811D91A48008885B2402424
:103800001848006840301749086018480068403878
:103810001649086001201249087018E01148008814
:1038200085B21248008884B20E4800680F490968C2
:1038300008440C49086000200C490860402C03D162
:1038400002200749087002E0012005490870084875
:103850004219234681213046FEF7C4FA00BFB2E781
:103860005C0100205401002050010020580100207C
:10387000E22B002000BFFEE770B505F07FF8402185
:103880001148FFF7C9FB802419E080210E48FFF79B
:10389000BAFB08B9A54300E025430A20FFF770F9F9
:1038A00040210948FFF7BAFB0A20FFF769F94021D8
:1038B0000548FFF7B1FB0A20FFF762F96410002CFE
:1038C000E3D1284670BD00000004024070B50546F3
:1038D00005F06EF880241DE004EA050020B980217F
:1038E0000E48FFF799FB03E080210C48FFF796FB99
:1038F0000A20FFF745F940210848FFF78FFB0A200F
:10390000FFF73EF940210548FFF786FB0A20FFF745
:1039100037F96410002CDFD170BD000000040240B4
:1039200010B505F045F840210D48FFF775FB0A205A
:10393000FFF726F980210A48FFF770FB0A20FFF7FE
:103940001FF940210648FFF769FB0A20FFF718F925
:1039500040210348FFF760FB0A20FFF711F910BD73
:103960000004024010B505F023F840210D48FFF790
:1039700055FB0A20FFF704F980210A48FFF74EFBA8
:103980000A20FFF7FDF880210648FFF745FB0A20D3
:10399000FFF7F6F840210348FFF73EFB0A20FFF748
:1039A000EFF810BD0004024010B505F001F8402109
:1039B0000C48FFF731FB80210A48FFF72DFB0A2056
:1039C000FFF7DEF840210748FFF728FB0A20FFF742
:1039D000D7F880210348FFF721FB0A20FFF7D0F832
:1039E00010BD00000004024010B54FF4FA6404F06A
:1039F000C5FF0520FFF7C4F805E0601E80B2041E75
:103A000001D1012010BD80210A48FFF7FCFA0028EF
:103A1000F3D140210748FFF701FB0A20FFF7B0F878
:103A200040210448FFF7F8FA0A20FFF7A9F8002020
:103A3000E8E700000004024000B587B0FCF788FF0B
:103A40004FF440304FF480714A01CB00CDE902328F
:103A5000CDE90410282000210D4B0E4ACDE90010BD
:103A60000D48FFF793F801210B48FEF791FE012165
:103A700008484C38FCF7BFFE012106484C38FCF7DB
:103A8000AFFE04484C38FCF747FF07B000BD00000C
:103A9000102A00204C2001401064024001200349FC
:103AA000C870F120496808707047000024000020A9
:103AB00030B50B46002100BF16E00A24B4EB107F9E
:103AC00005D9302404EB107403F8114005E04124BB
:103AD00004EB10740A3C03F81140000100254C006F
:103AE000641C1D554C1CE1B29142E6DB30BD00BFA9
:103AF000FEE730B505460C4622460021284600F078
:103B000001F830BD2DE9F04105460B4694460027EB
:103B1000002402E03F021F43641C042CFAD36046D9
:103B200005F00306294646B1344603E001F8013B9F
:103B3000401E641C08B1042CF8D30A4601E080C280
:103B4000001F0428FBD2114602E001F8013B401E91
:103B50000028FAD1BDE8F0817047000070B500215F
:103B600000230F22C4781CB3174C246804F4E064CB
:103B7000C4F5E064C4F30721C1F10404E3B20A41CF
:103B800044789C40E1B28478144021430C07210E14
:103B90000E4C05786155047804F01F050124AC40F3
:103BA00005786D11AD0005F1E025C5F8004109E08B
:103BB000047804F01F050124AC40054D0678761109
:103BC00045F8264070BD00000CED00E000E400E088
:103BD00080E100E002490143024A116070470000A1
:103BE0000000FA050CED00E0024A0A400243024BD5
:103BF0001A60704780FFFF1F08ED00E070B52DEDE3
:103C0000088B0446204607F0B9FF41EC1B0B9FEDE3
:103C10000F0B53EC102B07F0C5FF41EC1A0B9FED77
:103C20000D0B53EC102B07F0DDFD41EC190B9FED54
:103C30000B0B53EC102B08F0B3F841EC180B07F00A
:103C400059FF85B22846BDEC088B70BD3333333342
:103C500033333D40000000000000594000000000E8
:103C600000E0734008B54FF4E060FFF7B3FF342085
:103C70008DF8000000208DF8010001208DF8020071
:103C80008DF803006846FFF769FF11208DF80000EA
:103C900000208DF8010002208DF8020001208DF82F
:103CA00003006846FFF75AFF0F208DF80000002040
:103CB0008DF8010003208DF8020001208DF803002B
:103CC0006846FFF74BFF26208DF8000000208DF896
:103CD000010004208DF8020001208DF803006846E1
:103CE000FFF73CFF1C208DF8000000208DF801003C
:103CF00005208DF8020001208DF803006846FFF7CB
:103D00002DFF08BD7047000010B50348006810B1D2
:103D100001480068804710BD3802002070B5044695
:103D200000F0C2F800204849087048490870484926
:103D3000087048490860484908604849087048497F
:103D4000087048490870484908604849086048496F
:103D5000086048490870484800680A21B0FBF1F043
:103D6000464908604648006858B14648056845B16C
:103D70004348066803E0761E002028602D1D002EB3
:103D8000F9D1002040490860404908604049086076
:103D9000404908604049086040490860404908605F
:103DA0004049087002F0F2FD02F0D2FE204601F018
:103DB0003DFF208800B170BD204602F01DFB208829
:103DC00000B1F8E7204602F023FB208800B1F2E7BB
:103DD000204602F01FFC208800B1ECE7204602F0EC
:103DE00005FE208800B1E6E7204603F025F820888C
:103DF00000B1E0E7204603F03FFB208800B1DAE79E
:103E0000204602F065FA208800B1D4E7204602F08F
:103E10007FF8208800B1CEE7204604F0BDFA208864
:103E200000B1C8E7204603F071FA208800B1C2E76C
:103E3000204604F029FB208800B1BCE701F020FEF9
:103E4000FFF760FF00BFB6E74C0200204D020020E4
:103E50009402002004030020080300207A020020BE
:103E60007B0200207C020020880200208C020020BF
:103E7000900200209C020020F8BF00089802002059
:103E8000C8BF0008C4BF00082C0200203002002078
:103E900034020020380200203C02002040020020B2
:103EA00044020020CA02002006480068064909684A
:103EB00000EB8100054908600846006820F0070013
:103EC00008607047C4BF0008C8BF00080C0300208A
:103ED00008480078012800D0704707480078FA2881
:103EE00000DBF9E704480078401C0349087000BF74
:103EF000F2E700004D0200204C02002010B5002423
:103F00002D480078012800D010BD00BFFCF7DEF975
:103F1000044600BF2948007828B900BF2046FCF7B6
:103F2000D9F900BFF0E725480078401E2349087002
:103F300008460078002805DD00BF2046FCF7CAF9D6
:103F400000BFE1E71E480078002805DD00BF2046DD
:103F5000FCF7C0F900BFD7E702F004FD194908706B
:103F60000846007800EB4000174951F82000174937
:103F700008600846006816490968884205D100BFF4
:103F80002046FCF7A7F900BFBEE710480068D0F84C
:103F90008C00401C0D490968C1F88C000D48006870
:103FA000401C0C490860FCF7B7FB00BF2046FCF73B
:103FB00091F900BF00BFA7E74D0200204C0200208E
:103FC000940200207B02002000490020080300200A
:103FD00004030020C00200202DE9F04104460E46F3
:103FE0001546002729480078002804DD42F6E160E4
:103FF0002880BDE8F0811CB945F6C3502880F8E759
:1040000000BF00BF00BFFCF761F9074600BF00BF5B
:104010001F480078401C1E49087000BF00BF38468A
:10402000FCF758F900BF00BF00BF1A482060666067
:104030000020206284F82500A062402084F824003B
:1040400004F1080002F09DFB204602F0CBFA124872
:104050000088401C1049088000BF00BF00BFFCF76B
:1040600035F9074600BF00BF09480078401E0849DF
:10407000087000BF00BF3846FCF72CF900BF00BF36
:1040800000BF0020288000BFB3E700004C020020E2
:10409000940200204D555458780200202DE9F04735
:1040A00088B00546894690461C46109E4FF0000A8F
:1040B000AB480078002805DD46F2AE10308008B02D
:1040C000BDE8F0871DB945F6C3503080F7E7B8F179
:1040D000000F03D0B8F5004F02D100E000BF03E0AD
:1040E00045F625603080EAE700BF9E49286888428F
:1040F00003D045F6C4503080E1E70CB100202060C9
:1041000000BF00BFFCF7E2F8824600BF00BF95F891
:104110002500C0B99448006828629348006890F868
:10412000370085F82400012085F825000CB1A86A25
:10413000206000BF00BF5046FCF7CCF800BF00BFB6
:1041400000203080BBE78849286A0968884212D17C
:1041500095F82500401C85F825000CB1A86A206060
:1041600000BF00BF5046FCF7B5F800BF00BF45F2E6
:1041700082703080A3E708F4004050B100BF00BF58
:104180005046FCF7A7F800BF00BF46F2B0103080E1
:1041900095E77648007800280ADD00BF00BF50464A
:1041A000FCF798F800BF00BF46F66350308086E702
:1041B00000BF6E480078401C6C49087000BF00BF0B
:1041C0005046FCF787F800BF00BF00BF2F6A97F882
:1041D00037006549096891F83710884260DD97F823
:1041E000360008282AD2DFE800F004151E1F171633
:1041F0002021384602F034FD5B48006890F8370013
:1042000087F8370097F8370002F0CCFB384602F009
:10421000C7FC44E000BF00BF5348006890F8370077
:1042200087F837003BE000BF00BF00BF4E48006882
:1042300090F83710384602F081FA30E000BF00BF36
:1042400000BFFCF743F8824600BF00BF4748007834
:10425000401E4649087008460078A0B944480088C6
:10426000002809DD00BF00BF5046FCF733F800BF4F
:1042700000BF02F023FD0DE000BF00BF5046FCF779
:1042800029F800BF06E000BF00BF5046FCF722F847
:1042900000BF00BF00BF46F62D6030800FE700BFB3
:1042A0004B4604222946684602F0C0F900BF00BF11
:1042B00000BFFCF70BF8824600BF00BF2B48007818
:1042C000401E2A49087000BF00BF5046FCF702F8A4
:1042D00000BF00BF00BF00F073F900BF00BFFBF7D5
:1042E000F5FF824600BF00BF1F48006890F8350008
:1042F00030B101280CD002281AD0032821D110E0B7
:104300001CB119480068006C2060002030801CE05F
:104310001CB115480068006C206046F2A91030807E
:1043200013E00CB10020206047F2D92030800CE06F
:104330001CB10D480068006C206045F6C25030800A
:1043400003E046F62E60308000BF00BF00BF00BF14
:104350005046FBF7BFFF00BF00BF00BFAFE6000045
:104360004C0200204D5554580403002094020020B4
:10437000580200202DE9F84F0446884615464FF0B4
:10438000000A89480078002804DD46F20E202880C3
:10439000BDE8F88F1CB945F6C3502880F8E7B8F19E
:1043A000000F03D0B8F5004F02D100E000BF03E0DA
:1043B00045F625602880EBE700BF7C4920688842ED
:1043C00003D045F6C4502880E2E700BF00BFFBF7EA
:1043D0007DFF824600BF00BF7549206A0968884298
:1043E0000AD000BF00BF5046FBF774FF00BF00BFFC
:1043F00045F281702880CBE700BF6E480078401CF2
:104400006C49087000BF00BF5046FBF763FF00BF58
:1044100000BF00BFFDF768FA0746A76294F82500C1
:10442000401E84F8250094F82500002830DD00BFE8
:1044300000BF00BFFBF74AFF824600BF00BF5D48D8
:104440000078401E5B49087008460078A0B95A48B9
:104450000088002809DD00BF00BF5046FBF73AFF87
:1044600000BF00BF02F02AFC0DE000BF00BF5046B5
:10447000FBF730FF00BF06E000BF00BF5046FBF770
:1044800029FF00BF00BF00BF45F2837028807FE78F
:1044900004F10809B9F8080098BB0020206284F8EC
:1044A000250000BF00BF00BFFBF710FF824600BF22
:1044B00000BF40480078401E3E490870084600781A
:1044C000A0B93D480088002809DD00BF00BF504664
:1044D000FBF700FF00BF00BF02F0F0FB0DE000BFE4
:1044E00000BF5046FBF7F6FE00BF06E000BF00BF6E
:1044F0005046FBF7EFFE00BF00BF00BF0020288042
:1045000046E7FFE72A48006890F8370094F824103F
:10451000884219D02648006802F0A2FB94F82400D3
:104520002349096881F837002149096891F8370063
:1045300002F038FA1E48006802F052FB1C4800687E
:1045400090F837001D490870D9F800008668266287
:1045500096F8370084F82400012084F82500002311
:104560001A4631462046009702F07CF900BF00BF92
:1045700000BFFBF7ABFE824600BF00BF0D480078CE
:10458000401E0C49087000BF00BF5046FBF7A2FE5A
:1045900000BF00BF00BF08F4004008B900F010F8E9
:1045A0000020288000BFF3E64C0200204D555458EF
:1045B0000403002094020020580200207A02002008
:1045C00010B500241F480078002800DD10BD1E48EB
:1045D0000078002800DDF9E700BFFBF777FE04460E
:1045E00000BF02F0BFF9194908700846007800EBD7
:1045F0004000174951F82000164908600846006835
:1046000015490968884205D100BF2046FBF762FEC4
:1046100000BFDBE70F480068D0F88C00401C0D4954
:104620000968C1F88C000D480068401C0B490860FF
:10463000FCF76DF800BF2046FBF74CFE00BF00BF43
:10464000C4E700004C020020940200207B020020FE
:10465000004900200803002004030020C0020020BD
:1046600070B50446002518480078002803DD46F69A
:104670006250208070BD15480078012803D045F6AF
:1046800089602080F6E712480078FA2803DB45F2BB
:1046900009202080EEE700BF00BFFBF717FE0546AC
:1046A00000BF00BF0A480078401C0949087002F0AA
:1046B0002FFB00BF00BF2846FBF70CFE00BF00BF6A
:1046C0000020208000BFD5E74C0200204D020020D2
:1046D000940200202DE9F04105460C4616460027BD
:1046E00000BF00BFFBF7F2FD074600BF00BF012D72
:1046F00003D000200D49087002E001200B4908702A
:1047000014B10B48046006E00A4800680A21B0FBB7
:10471000F1F00749086000BF00BF3846FBF7DAFD3B
:1047200000BF00BF00203080BDE8F0819C02002067
:1047300098020020F8BF000870B504460025204804
:104740000078002803DD46F66550208070BD1D48C6
:104750000078012803D045F689602080F6E71A48E2
:10476000007818B946F664502080EFE700BF00BF1C
:10477000FBF7ACFD054600BF00BF13480078401EA4
:10478000114908700846007800280ADD00BF00BF04
:104790002846FBF79FFD00BF00BF46F66350208010
:1047A000D4E702F0C3FA00BF00BF2846FBF792FD32
:1047B00000BF00BFFFF704FF0020208000BFC5E757
:1047C0004C0200204D0200209402002010B5044647
:1047D00012480078E8B902F0C5F811490870084697
:1047E0000078104908700E48007800EB40000E4930
:1047F00051F820000D490860084600680C4908601F
:10480000012006490870FBF771FF43F699202080CC
:1048100002E045F68A60208010BD00004D020020B5
:104820007B0200207A0200200049002008030020BB
:10483000040300202DE9F04107464FF0000800BFB7
:1048400000BFFBF743FD804600BF00BF00203D498D
:1048500008603D4908803D4908803D4908603D4960
:1048600008603D4908603D4908603D49088100BF36
:1048700000BF4046FBF72EFD00BF00BF00BF00BFDA
:10488000FBF724FD804600BF00BF3648046800BF28
:1048900000BF4046FBF71EFD00BF00BF21E000BF88
:1048A00000BFFBF713FD804600BF00BF002074343B
:1048B000E06320602063A061A082E0826062A06269
:1048C000FDF712F82062743C04F160060020B0810C
:1048D000D4F8B84000BF00BF4046FBF7FBFC00BF68
:1048E00000BF002CDBD100BF00BFFBF7EFFC804610
:1048F00000BF00BF1C48056800BF00BF4046FBF773
:10490000E9FC00BF00BF12E000BF00BFFBF7DEFC08
:10491000804600BF00BF05F120060020B081AD69D0
:1049200000BF00BF4046FBF7D5FC00BF00BF002D15
:10493000EAD103F099FB03F04DFE00203880BDE87A
:10494000F0810000600200205A020020AA0200202C
:10495000BC020020D0020020F40200208C020020C3
:10496000F4480020C402002080020020F8B504466C
:1049700000266946324800F08FFDBDF8000018B1EE
:10498000BDF800002080F8BD6A460021022000F03A
:10499000F7FDBDF8000018B1BDF800002080F2E777
:1049A00000BF00BFFBF792FC064600BF00BF00201F
:1049B0002449086000BF00BF3046FBF78BFC00BFF6
:1049C00000BF00252048006820490968884205D9B1
:1049D0001D4800681D490968B0FBF1F525B91A4862
:1049E00000680A21B0FBF1F56A460021284600F074
:1049F000C7FD6946124800F063FABDF8000018B11F
:104A0000BDF800002080BEE700BF00BFFBF75EFCE2
:104A1000064600BF00BF00200D4908600948006835
:104A20000C49086001200C49087000BF00BF3046E7
:104A3000FBF750FC00BF00BF0020208000BFA2E7B2
:104A4000AC4D0020AC020020F8BF0008E0BF000819
:104A5000BC020020B0020020B802002010B50348BC
:104A6000006810B101480068804710BD3C0200207A
:104A70002DE9FF4F87B004469046DDE91BA5DDE92F
:104A80001496179F0020039087480078002805DDC2
:104A900047F24A1028800BB0BDE8F08F1CB947F2EE
:104AA000AD102880F7E7B8F1000F03D147F24F109F
:104AB0002880F0E71EB946F62F602880EBE77B4898
:104AC0000068874203D246F630602880E3E71698F4
:104AD000B84203D346F631602880DCE7B9F1400FD5
:104AE00003D346F273202880D5E7B9F1000F06D131
:104AF0006F48844203D046F273202880CBE7B9F197
:104B00003F0F06D16B48844203D046F273202880C1
:104B1000C1E7204602F0C0FC002028800AF0010016
:104B200090B10AF0020078B105960020069008E0E6
:104B30000021059801600598001D05900698401C0D
:104B400006900698B842F3D3169806EB80000490BE
:104B5000CDE9007A32464046049B0A9900F06EFB8C
:104B60000590C4F828800A98E0620898206284F8CA
:104B70003790059820600498A060199820651998CE
:104B800018B94D480068606501E0199860651A9889
:104B900060606662A763A4F83CA04FF0000B08E0D9
:104BA000002104F1780040F82B100BF1010000F017
:104BB000FF0BBBF1000FF3D004F16000189901F076
:104BC00087FC204600F082F800BF00BF00BFFBF763
:104BD0007DFB039000BF00BF38480078401C374978
:104BE000087000BF00BF0398FBF774FB00BF00BF55
:104BF00000BF94F8370001F0D5FE204601F0F0FF29
:104C0000204602F0FFFB2E480088401C2C490880FB
:104C10002C48007801282DD000BF00BF00BFFBF753
:104C200055FB039000BF00BF24480078401E234975
:104C3000087008460078A0B923480088002809DDDC
:104C400000BF00BF0398FBF745FB00BF00BF02F0A9
:104C500035F80DE000BF00BF0398FBF73BFB00BF3A
:104C600006E000BF00BF0398FBF734FB00BF00BFA6
:104C700000BF10E700BF00BF00BFFBF727FB03909A
:104C800000BF00BF0D480078401E0C49087000BFEF
:104C900000BF0398FBF71EFB00BF00BF00BFFFF77C
:104CA0008FFC00BFF7E600004C020020F4BF0008B4
:104CB000344800207447002098020020940200200D
:104CC000C80200204D0200205802002010B5044602
:104CD0000348006818B1204601490968884710BD9B
:104CE0002C02002070B504460D4600266748007867
:104CF000002803DD47F24E10288070BD64488442CE
:104D000003D147F24C102880F7E76248844203D170
:104D100047F24D102880F0E77CB900BF00BFFBF7D9
:104D2000D5FA064600BF00BF5B48046800BF00BF5D
:104D30003046FBF7CFFA00BF00BF00BF00BF00BF87
:104D4000FBF7C4FA064600BF00BF54480078401C79
:104D50005249087000BF00BF3046FBF7BBFA00BFE6
:104D600000BF00BF94F8360008282DD2DFE800F01D
:104D700004090E10080A0F11204601F071FF54E0DB
:104D800053E000BF204603F043F94EE000BF00BFF0
:104D900000BF94F83400082810D2DFE800F00407C0
:104DA0000508090A0B0600BF00BF08E000BF00BFEE
:104DB00000BF00BF204601F01CFD00E000BF00BFA7
:104DC000204603F025F930E000BF00BF00BFFBF72D
:104DD0007DFA064600BF00BF30480078401E2F49CC
:104DE000087008460078A0B92D480088002809DD21
:104DF00000BF00BF3046FBF76DFA00BF00BF01F0F7
:104E00005DFF0DE000BF00BF3046FBF763FA00BF57
:104E100006E000BF00BF3046FBF75CFA00BF00BFF2
:104E200000BF46F62D60288067E700BF04F16000F0
:104E300001F02CFB204600F037F8204602F0FAFA89
:104E400018480088401E17490880204602F024FBBD
:104E5000FF2084F8360000BF00BF00BFFBF736FA22
:104E6000064600BF00BF0D480078401E0B49087081
:104E700000BF00BF3046FBF72DFA00BF00BF00BFE8
:104E800000202880FFF79CFB00BF36E74C02002083
:104E900074470020344800200403002094020020BE
:104EA00058020020C802002010B5044603480068DC
:104EB00018B1204601490968884710BD300200201A
:104EC0007FB504460D46002600BF00BFFBF7FEF984
:104ED000064600BF00BF1CB11548006884420AD1D5
:104EE00000BF00BF3046FBF7F5F900BF00BF47F237
:104EF000571028807FBD00BF00BF3046FBF7EAF99E
:104F000000BF00BF0B48007800280BDD0020009098
:104F10000190034602462146CDE90205064801F00C
:104F20002FF8E7E72946204602F01AFC00BFE1E728
:104F3000040300204C0200205452455310B504468F
:104F40000348006818B1204601490968884710BD28
:104F5000340200202DE9F04780460E4614461D46D7
:104F60004FF000097D480078002805DD46F2AE10BC
:104F700028800020BDE8F0871EB1B6F5004F02D1B1
:104F800000E000BF04E045F6256028800020F1E73E
:104F900000BF0CB10020206000BF00BFFBF796F9F6
:104FA000814600BF00BF6E480068406CA8B36C48E3
:104FB0000068406C401E6A49096848646848006897
:104FC000476C1CB166480068006C2060FCF78CFCE4
:104FD00063490968096C401A61490968C1F8A00071
:104FE0005F480068D0F8A4005D490968D1F8A010B6
:104FF000884207D25A480068D0F8A000584909688A
:10500000C1F8A40000BF00BF4846FBF763F900BF2A
:1050100000BF002028803846ACE7FFE706F40040D8
:1050200058B100BF00BF4846FBF754F900BF00BFAE
:1050300046F2B010288000209CE74A4800780028FB
:105040000BDD00BF00BF4846FBF744F900BF00BFBF
:1050500046F66350288000208CE700BF4148007866
:10506000401C4049087000BF00BF4846FBF732F9BA
:1050700000BF00BF00BF434607220021084601F0E1
:10508000D5FA00BF00BF00BFFBF720F9814600BF83
:1050900000BF34480078401E3249087000BF00BF8E
:1050A0004846FBF717F900BF00BF00BFFFF788FABB
:1050B00000BF00BFFBF70AF9814600BF00BF2848C8
:1050C000006890F8350020B1012826D0032834D19B
:1050D0002CE0FCB122480068006C2060FCF704FC66
:1050E0001F490968096C401A1D490968C1F8A000E8
:1050F0001B480068D0F8A40019490968D1F8A0102D
:10510000884207D216480068D0F8A0001449096800
:10511000C1F8A4000020288013E01CB110480068EA
:10512000006C206046F2A91028800AE00CB1002033
:10513000206047F2D920288003E046F62E602880C0
:1051400000BF00BF06480068476C00BF00BF48466C
:10515000FBF7C0F800BF00BF38460BE74C02002049
:1051600004030020940200202DE9F04705460E4676
:1051700017461C464FF0000A2E480078002804DD30
:1051800047F259102080BDE8F0871EB946F2D520BD
:105190002080F8E71FB946F2D5202080F3E700BF52
:1051A00000BFFBF793F8824600BF00BF0DB922484D
:1051B0000568286868B900BF00BF5046FBF78AF849
:1051C00000BF00BF00203060386047F252102080DE
:1051D000D9E795F83C0000F0010068B900BF00BFB6
:1051E0005046FBF777F800BF00BF00203060386002
:1051F00047F254102080C6E700BF00BF5046FBF7BF
:1052000069F800BF00BF4FF00008D5F8249003E014
:1052100009F1040908F10108D9F800000028F7D0C5
:10522000C6F80080A86BA0EB080038600020208042
:1052300000BFA8E74C02002004030020F0B504469C
:10524000DDE9055602EB850020F007004FF0000C69
:10525000071F3846C7F800C04FF4805C071F384668
:10526000C7F800C04FF0150C071F3846C7F800C03C
:105270004FF0140C071F3846C7F800C04FF0130C4E
:10528000071F3846C7F800C04FF0120C071F3846FA
:10529000C7F800C04FF0110C071F3846C7F800C010
:1052A0004FF0100C071F3846C7F800C04FF0090C2C
:1052B000071F3846C7F800C04FF0080C071F3846D4
:1052C000C7F800C04FF0070C071F3846C7F800C0EA
:1052D0004FF0060C071F3846C7F800C04FF0050C0A
:1052E000071F3846C7F800C04FF0040C071F3846A8
:1052F000C7F800C04FF0030C071F3846C7F800C0BE
:105300004FF0020C071F3846C7F800C04FF0010CE1
:10531000071F3846C7F800C04FF0000C071F38467B
:10532000C7F800C04FF0807C071F3846C7F800C0A0
:10533000071F38463C60DFF85CC1071F3846C7F8D6
:1053400000C04FF0123C071F3846C7F800C04FF0AE
:10535000033C071F3846C7F800C04FF0023C071F48
:105360003846C7F800C0071F38463B60071F38465D
:1053700039604FF0310C071F3846C7F800C04FF0B6
:10538000300C071F3846C7F800C04FF0290C071F24
:105390003846C7F800C04FF0280C071F3846C7F83A
:1053A00000C04FF0270C071F3846C7F800C04FF069
:1053B000260C071F3846C7F800C04FF0250C071F02
:1053C0003846C7F800C04FF0240C071F3846C7F80E
:1053D00000C04FF0230C071F3846C7F800C04FF03D
:1053E000220C071F3846C7F800C04FF0210C071FDA
:1053F0003846C7F800C04FF0200C071F3846C7F8E2
:1054000000C04FF0190C071F3846C7F800C04FF016
:10541000180C071F3846C7F800C04FF0170C071FBD
:105420003846C7F800C04FF0160C071F3846C7F8BB
:1054300000C04FF0113C071F3846C7F800C04FF0BE
:10544000103C071F3846C7F800C04FF0093C071F43
:105450003846C7F800C04FF0083C071F3846C7F869
:1054600000C04FF0073C071F3846C7F800C04FF098
:10547000063C071F3846C7F800C04FF0053C071F21
:105480003846C7F800C04FF0043C071F3846C7F83D
:1054900000C0F0BDA17800087FB505460C46124853
:1054A000854203D147F25B1020807FBD0F488542C3
:1054B00003D147F25C102080F7E70D480078002800
:1054C0000BDD002000900190034602462946CDE9FD
:1054D0000204084800F054FDE7E72146284602F0A0
:1054E0004DFC00BFE1E70000744700203448002075
:1054F0004C0200205453555310B51D48006810B19C
:105500001B4800688047FCF7EFF90446194800681B
:1055100019490968884215D016480068D0F89400E7
:10552000201A14490968C1F8900012480068D0F8A0
:10553000980010490968D1F8901008440D4909688D
:10554000C1F898000C480068C0F894400948006809
:10555000D0F8B00009490968884205D207480068B8
:1055600004490968C1F8B00000200449086010BD72
:1055700040020020040300200803002090020020C5
:105580002DE9F04105460E46144600273C480078B8
:10559000002804DD47F275202080BDE8F0813948FD
:1055A0000078002803DD46F663502080F5E736B129
:1055B000022E05D0042E0AD0082E09D101E000BF2A
:1055C00000BF1DB947F27E202080E6E704E003E03B
:1055D00045F625602080E0E700BF00BF00BF00BFA8
:1055E000FAF774FE074600BF00BF26480078401C4B
:1055F0002449087000BF00BF3846FAF76BFE00BFB1
:1056000000BF00BF2346324629461F48006802F00B
:10561000A1FC2088A8B100BF00BF00BFFAF756FE6A
:10562000074600BF00BF17480078401E15490870A4
:1056300000BF00BF3846FAF74DFE00BF00BF00BFF5
:10564000ABE71148006801F00BFB00BF00BF00BFD3
:10565000FAF73CFE074600BF00BF0A480078401E2C
:105660000849087000BF00BF3846FAF733FE00BF94
:1056700000BF00BFFEF7A4FF0020208000BF8CE722
:105680004C02002094020020040300202DE9FF5F5B
:1056900005460E4617469846DDE90EA40020009008
:1056A00070480078002804DD47F275202080BDE8AE
:1056B000FF9F6D480078002803DD46F66350208088
:1056C000F5E70AF00E0BBBF1000F09D0BBF1020F9A
:1056D00007D0BBF1040F10D0BBF1080F0ED101E0D1
:1056E00000BF00BFB8F1000F06D12FB926B91DB910
:1056F00047F27E202080DAE704E003E045F62560EB
:105700002080D4E700BF2AF01E0008B1012000E08D
:10571000002003900398012803D145F625602080DE
:10572000C5E7CAF3001002900298C0B9B8F57A7FB5
:1057300003D347F27B202080B9E73B2F03DD47F2FC
:105740007A202080B3E73B2E03DD47F279202080CA
:10575000ADE7632D12DD47F278202080A7E742F203
:105760000F70864203DD47F2792020809FE7B5F570
:105770007A7F03DB47F27820208098E73B48D0F817
:1057800000904FF4FA70B0FBF9F0404400FB09F0D0
:105790004FF47A71B0FBF1F14FF461606843C6EBEE
:1057A000061200EB8200384400FB091001900198BA
:1057B000002851D000BF00BF00BFFAF787FD00905E
:1057C00000BF00BF28480078401C2749087000BF70
:1057D00000BF0098FAF77EFD00BF00BF00BF234660
:1057E0005A4623480199006802F0B4FB2088A8B10A
:1057F00000BF00BF00BFFAF769FD009000BF00BF07
:1058000019480078401E1849087000BF00BF009872
:10581000FAF760FD00BF00BF00BF48E7144800680A
:1058200001F01EFA00BF00BF00BFFAF74FFD009065
:1058300000BF00BF0C480078401E0B49087000BF35
:1058400000BF0098FAF746FD00BF00BF00BFFEF79B
:10585000B7FE0020208002E047F27E20208000BFBB
:1058600025E700004C02002094020020F8BF000849
:105870000403002010B586B000F01EF8FCF734F8E1
:10588000044605A800210091CDE9011403900748C2
:10589000007800EB4000064A02EB800100231A4624
:1058A000044800F06DFB06B010BD00007A02002035
:1058B000004900205449434B10B50348006810B11B
:1058C00001480068804710BD440200202DE9F05FC8
:1058D0000446884616461F46DDE90BABDDF82890E6
:1058E0000D9D24480078002804DD47F243302880CD
:1058F000BDE8F09F1CB945F6C3502880F8E7B9F120
:10590000010F08D0B9F1020F0BD11FB947F2403097
:105910002880EDE709E01EB947F23F302880E7E72D
:1059200003E045F625602880E2E700BF02F046FE6E
:10593000012084F8260010482060C4F80480E66145
:105940000020A0612762A4F82490C4F808A0C4F83D
:105950000CB020616061204602F082FD074800889B
:10596000401C0649088002F0A3FE0020288000BFEA
:10597000BEE700004C020020544D5220F0020020EF
:105980002DE9F04104460D464FF0000838480078F4
:10599000002805DD47F2433028800020BDE8F08173
:1059A00024B947F2423028800020F7E731492068C7
:1059B000884204D045F6C45028800020EEE794F8D1
:1059C0002600002847D0012818D0022802D003283A
:1059D00046D114E000BF00BFFAF778FC804600BF54
:1059E00000BFE069A06100BF00BF4046FAF772FC4B
:1059F00000BF00BF00202880012636E000BF02F073
:105A0000DDFD022084F82600E06910B9206AA0615B
:105A100001E0E069A0611848006840B900202061F9
:105A20006061154804600120144908800DE01248A7
:105A3000076800682061002060617C610E48046096
:105A40000E480088401C0D49088002F031FE0020FD
:105A50002880012609E047F23D302880002604E036
:105A600047F241302880002600BF00BF304695E74E
:105A70004C020020544D5220EC020020E80200208D
:105A8000244A2549254A264A2649274A2748284A9A
:105A9000284A294A294A2A482A482B482B4A2C486E
:105AA0002C4A2D482D4A2E482E482F482F48304A40
:105AB000304A314A3148324A324A3348334834480E
:105AC0003448354835483648364A374A374A384ADE
:105AD0003848394839483A4A3A4A3B4A3B483C48B0
