:020000040800F2
:100000009859002085020008DD440008A13C000842
:1000100073440008211C0008A1BA00080000000079
:10002000000000000000000000000000E79600084B
:10003000492F00080000000023070008FD98000871
:100040009F0200089F0200089F0200089F0200080C
:100050009F0200089F0200089F0200089F020008FC
:100060009F0200089F0200089F0200089F020008EC
:100070009F0200089F0200089F020008012B000851
:100080009F020008112B00089F0200089F02000831
:100090009F0200089F0200089F0200089F020008BC
:1000A0009F0200089F0200089F0200089F020008AC
:1000B000A59C00089F0200089F0200089F020008FC
:1000C0009F0200089F0200089F0200089F0200088C
:1000D0009F0200089F020008F59C00089F0200088C
:1000E0009F0200089F0200089F0200089F0200086C
:1000F0009F0200089F0200089F0200089F0200085C
:100100009F0200089F0200089F0200089F0200084B
:10011000E59C00089F0200089F0200089F0200085B
:100120009F0200089F0200089F0200089F0200082B
:100130009F0200089F0200089F0200089F0200081B
:100140009F0200089F0200089F02000849900008D3
:100150009F0200089F0200089F0200089F020008FB
:100160009F0200089F0200089F0200089F020008EB
:100170009F0200089F0200089F0200089F020008DB
:100180009F0200089F02000800F002F800F06AF8E1
:100190000AA090E8000C82448344AAF10107DA45E2
:1001A00001D100F05FF8AFF2090EBAE80F0013F0CA
:1001B000010F18BFFB1A43F00103184780CB000062
:1001C000A0CB00000A444FF0000C10F8013B13F0E4
:1001D000070408BF10F8014B1D1108BF10F8015BA0
:1001E000641E05D010F8016B641E01F8016BF9D193
:1001F00013F0080F1EBF10F8014BAD1C0C1B09D1EA
:100200006D1E58BF01F801CBFAD505E014F8016B5B
:1002100001F8016B6D1EF9D59142D6D370470000ED
:100220000023002400250026103A28BF78C1FBD8FF
:10023000520728BF30C148BF0B607047642900F0E7
:100240009D80002070471FB50CF06CFC00F0FCF99D
:100250000400002000210BF0D3FF401C60601FBD94
:1002600010B510BD00F0CAF91146FFF7ECFF0BF016
:1002700029FE00F0EDF903B4FFF7F2FF03BC0BF029
:1002800069FD00000948804709480047FEE7FEE78E
:10029000FEE7FEE7FEE7FEE7FEE7FEE7FEE7FEE736
:1002A00004480549054A064B704700006D9900084F
:1002B0008901000898530020985900209855002083
:1002C0009855002072B6704762B67047EFF3108001
:1002D00072B6704780F31088704730BF704720BFF8
:1002E0007047B0FA80F0704790FAA0F0B0FA80F052
:1002F000704790FAA0F07047704700000FB40449AF
:1003000010B503AA029800F01BF910BC5DF814FBAD
:100310007C0000202DE9F0410E46044600202062BA
:100320002046E168884730B3252805D0D4E901216B
:100330009047206A401CF2E7E16820460027884782
:10034000050018D0A5F14100192802D820354FF436
:1003500000673246294620462760FFF76FFF40B10D
:10036000012804D0F61D26F007060836D8E7361D0A
:10037000D6E72846DAE7206ABDE8F0812DE9F041AA
:100380000646002410687529314616A510D0AFF333
:100390000080002802DA404213A507E031688A078E
:1003A00001D512A502E0490704D511A5012401E0F9
:1003B000AFF3008000210A2206F1240709E0B0FB18
:1003C000F2FCB0FBF2F302FB1C003030785418460C
:1003D000491C0028F3D123462A463046BDE8F041A7
:1003E00000F054B8000000002D0000002B000000B9
:1003F000200000002DE9F041054690460E46002001
:10040000044600E0641C44450BD2285D00F031F83E
:100410000746305D00F02DF8381A02D1295D002919
:10042000F0D1BDE8F0814FF000020429C0F0128045
:1004300010F0030C00F09880CCF1040CBCF1020F1A
:1004400018BF00F8012BA8BF20F8022BA1EB0C016C
:1004500000F08AB85FEAC17C24BF00F8012B00F8E5
:10046000012B48BF00F8012B704770477047704759
:10047000704710B5044600F09DF80068005DC006A6
:1004800002D504F1200010BD204610BD2DE9F04733
:100490000D4699469246044600F1240801688806F4
:1004A00004D5E06921F01001216000E00120A8429C
:1004B00001DD471B00E00027A1697A1902EB090062
:1004C000081AA0612078C00602D42046AFF300804D
:1004D000002608E0D4E901211AF806009047206AB6
:1004E000401C761C20624E45F4DB2078C0060AD5FD
:1004F0002046AFF3008006E0D4E901213020904788
:10050000206A401C2062381EA7F10107F4DC07E0D6
:10051000D4E9012118F805009047206A401C2062A8
:10052000281EA5F10105F3DC2046AFF300802078FA
:10053000000602D50220BDE8F0870120FBE700009D
:10054000074B70B50D467B4400F041F80446284641
:1005500000F050F810B14FF0FF3070BD204670BD74
:1005600057B900004FF0000200B513469446964676
:10057000203922BFA0E80C50A0E80C50B1F12001B6
:10058000BFF4F7AF090728BFA0E80C5048BF0CC064
:100590005DF804EB890028BF40F8042B08BF7047C2
:1005A00048BF20F8022B11F0804F18BF00F8012B34
:1005B0007047000010B500F047F8001D10BD00BFE7
:1005C00041BC000001694A1C02610878704700B50F
:1005D0008FB0CDE901310021059105497944CDE97C
:1005E000031011466846FFF795FE0FB000BD0000EE
:1005F000E5FFFFFF007B00F080007047754600F0CC
:1006000031F8AE4605006946534620F0070085469E
:1006100018B020B5FFF744FEBDE820404FF00006BB
:100620004FF000074FF000084FF0000B21F00701DA
:10063000AC46ACE8C009ACE8C009ACE8C009ACE81D
:10064000C0098D467047000000487047585300208D
:1006500010B50446AFF300802046BDE81040FFF718
:100660000ABE000000487047385300204FF0013C9C
:1006700050F8042B51F8043B9A4221D1A2EB0C0311
:10068000934313EACC1317D150F8042B51F8043BD1
:100690009A4215D1A2EB0C03934313EACC130BD16E
:1006A00050F8042B51F8043B9A4209D1A2EB0C03F9
:1006B000934313EACC13DBD04FF00000704700BF28
:1006C000D01A01BAB1FA81F101F0180122FA01F051
:1006D000CB40C1F12001DBB2C0B2C01A2CFA01F349
:1006E000D11A914311EAC311E6D1704722484FF65F
:1006F000FF710170002080F309882048016881F3B0
:1007000008881F484FF08051016062B6FEE71C4820
:100710004FF080510160704719484FF080510160DF
:10072000704772B6EFF3098050B11EF0100F08BF8A
:1007300020ED108A203880E8F00F1249096808601F
:1007400000B5114880475DF804EB104810490A785D
:1007500002700C480F490A680260106890E8F00FB8
:1007600020301EF0100F08BFB0EC108A80F309880B
:100770004EF0040E62B6704722ED00E00C0300203C
:1007800004ED00E0040300207D5E00087A020020F2
:100790007B0200200803002021B1826842F00102A0
:1007A000826003E0826822F00102826070470000EC
:1007B0000021084A1168084A1140D0E900231A4371
:1007C00083681A43C3681A431143044AC2F80413E6
:1007D0007047000004230140E030FCFF002001408E
:1007E00021B1826842F48072826003E0826822F460
:1007F00080728260704721B1826842F40072826028
:1008000003E0826822F400728260704730B50246CD
:10081000002000235068104C20400D790C6844EAF9
:1008200005242043506090680C4C2040D1E90354CB
:100830002C438D682C434D7944EA45042043906055
:10084000D06A20F470000C7D641EE4B2234340EAB9
:100850000350D06230BD0000FFFEFFFCFDF7FFC07B
:10086000F0B504460D4600200021092D11DDE06899
:10087000A5F10A0606EB4607072606FA07F18843A4
:10088000A5F10A0606EB460603FA06F10843E06006
:100890000CE0206905EB4507072606FA07F18843B7
:1008A00005EB450603FA06F108432061072A0FDA33
:1008B000606B561E06EB86071F2606FA07F1884373
:1008C000561E06EB860605FA06F10843606322E031
:1008D0000D2A0FDA206BD61F06EB86071F2606FAB5
:1008E00007F18843D61F06EB860605FA06F1084392
:1008F000206310E0E06AA2F10D0606EB86071F26D2
:1009000006FA07F18843A2F10D0606EB860605FA02
:1009100006F10843E062F0BD816841F080418160EA
:100920007047000038B10849096841F40001074ADE
:10093000C2F8041306E00449096821F40001034ADF
:10094000C2F8041370470000042301400020014056
:1009500010B50221094800F0C5F90120FFF7E2FFB8
:10096000072301220F210548FFF77AFF0723022200
:1009700010210248FFF774FF10BD00000020014065
:1009800010B50E212B4800F0ADF9072301220A21F2
:100990002848FFF765FF072302220B212548FFF7B0
:1009A0005FFF072303220C212248FFF759FF07238B
:1009B00004220D211F48FFF753FF072305220E21B4
:1009C0001C48FFF74DFF0723062209211948FFF7AE
:1009D00047FF07231A4604211648FFF741FF072364
:1009E000082206211348FFF73BFF072309220F21A6
:1009F0001048FFF735FF07230A2202210D48FFF7B1
:100A00002FFF07230B2205210A48FFF729FF0723A1
:100A10000C2203210748FFF723FF07230D22194665
:100A20000448FFF71DFF07230E2208210148FFF7A6
:100A300017FF10BD0022014010B52DED108B0120D5
:100A400000F00EF904460BF065FE41EC1D0B9FED26
:100A5000750B53EC102B0BF071FE41EC1C0B9FED52
:100A6000730B53EC102B0BF089FC41EC1B0B9FED2F
:100A7000710B53EC102B0BF081FC41EC1A0B9FED2A
:100A80006F0B53EC102B0BF059FE41EC190B9FED43
:100A90006D0B53EC102B0BF051FE41EC180B0BF0CF
:100AA000F5FD6A490884022000F0DAF804460BF0EC
:100AB00031FE41EC1F0B9FED5B0B53EC102B0BF049
:100AC0003DFE41EC1E0B9FED590B53EC102B0BF030
:100AD00055FC41EC1D0B9FED530B53EC102B0BF011
:100AE0002BFF41EC1C0B9FED5A0B53EC102B0BF022
:100AF00045FC41EC1B0B9FED580B53EC102B0BF0FE
:100B00001DFE41EC1A0B9FED470B53EC102B0BF025
:100B10001FFF41EC190B9FED4B0B53EC102B0BF00F
:100B20000DFE41EC180B0BF0B1FD48494884032041
:100B300000F096F804460BF0EDFD41EC1D0B9FED27
:100B4000390B53EC102B0BF0F9FD41EC1C0B9FED16
:100B5000370B53EC102B0BF011FC41EC1B0B9FEDF2
:100B6000350B53EC102B0BF009FC41EC1A0B9FEDED
:100B7000330B53EC102B0BF0E1FD41EC190B9FED07
:100B8000310B53EC102B0BF0D9FD41EC180B0BF093
:100B90007DFD2E498884042000F062F804460BF0A5
:100BA000B9FD41EC1F0B9FED1F0B53EC102B0BF00D
:100BB000C5FD41EC1E0B9FED1D0B53EC102B0BF0F4
:100BC000DDFB41EC1D0B9FED170B53EC102B0BF0D5
:100BD000B3FE41EC1C0B9FED1E0B53EC102B0BF0E6
:100BE000CDFB41EC1B0B9FED1C0B53EC102B0BF0C2
:100BF000A5FD41EC1A0B9FED0B0B53EC102B0BF0EA
:100C0000A7FE41EC190B9FED0F0B53EC102B0BF0D3
:100C100095FD41EC180B0BF039FD0C49C884BDEC77
:100C2000108B10BD6666666666660A4000000000AE
:100C300000FEAF40E17A14AE47E11040AE47E17AE2
:100C4000140E5A4000000000000059408825002082
:100C50005C8FC2F5285C05407B14AE47E1AA594081
:100C6000F0B58AB00446002300210BE0C1EBC100BF
:100C70001B4E06EB8006601E36F810002DF81100A2
:100C8000481CC1B21429F1DB00211AE0002212E055
:100C90003DF81260501C3DF81000864209DD3DF819
:100CA0001250501C3DF810002DF81200501C2DF869
:100CB0001050501CC2B2C1F113009042E8DC481C35
:100CC000C1B21429E2DB022104E03DF81100034423
:100CD000481CC1B21229F8DB1B0998B20AB0F0BD5A
:100CE000AC2C002030B58BB004460D461C48844225
:100CF00003D10121801508F021FB1A48844203D159
:100D00000121401508F01AFB1748844203D1012144
:100D1000001508F013FB002007904FF48030089076
:100D2000002009900A9007A8FFF742FD00200190DB
:100D300001208DF808008DF80900002003904FF085
:100D400070600490002005908DF8185001A920468D
:100D5000FFF75CFD01212046FFF71EFD0BB030BD03
:100D600000200140002101400022014010B5FA217D
:100D7000084600F0D3F810BD10B540F6FF7000F043
:100D8000F1F803494889FF2100F0DAF810BD0000AE
:100D90008825002010B540F6FF71002001F010F901
:100DA0000121002001F02CF940F6FF71002001F034
:100DB00017F90121102001F023F9FF21084600F066
:100DC000BFF84FF40041044802F024FB4FF4804187
:100DD000014802F01FFB10BD0018024010B5254865
:100DE000008941F64C51884243DC22480089B0F525
:100DF0007A7F3EDB1F48408988423ADC1D484089A3
:100E0000B0F57A7F35DB1B488089B0F5FA7F30DC9E
:100E100018488089FA282CDB1648C089B0F5FA7F7B
:100E200027DC1448C089FA2823DB4FF4004112481C
:100E300002F0F0FA4FF480410F4802F0EBFAFFF7AE
:100E40009BFF0C49088900F08DF80A4AD189508926
:100E500000F076F8074AD189908900F05FF84FF4E6
:100E60000041054802F0D4FA4FF48041024802F0F4
:100E7000D1FA10BD882500200018024010B5254881
:100E8000008941F64C51884242DC22480089B0F585
:100E90007A7F3DDB1F484089884239DC1D48408904
:100EA000B0F57A7F34DB1B488089884230DC1948F2
:100EB0008089B0F5FA7F2BDB1648C089884227DC91
:100EC0001448C089B0F5FA7F22DB4FF40041124884
:100ED00002F0A0FA4FF480410F4802F09BFAFFF7AE
:100EE00045FF0C49088900F03DF80A49888900F05F
:100EF00048F8084AD189508900F022F84FF400419F
:100F0000054802F085FA4FF48041034802F080FA68
:100F100010BD000088250020001802402DE9F04196
:100F200005460C46284608F09DF80646204603F084
:100F300027FB0746F9B2F0B201F0B4FEBDE8F0813C
:100F40002DE9F04105460C4628460AF061FE0646AA
:100F500020460AF05DFE0746F9B2F0B201F0F0FE5D
:100F6000BDE8F08170B5044620460AF0A1FE0546B2
:100F70002946002001F024F80121002001F040F86A
:100F800070BD70B5044620460AF092FE054629461B
:100F9000002001F025F80121102001F031F870BD8A
:100FA0000EB5A6E0534A1179106808F061FA0128DD
:100FB0000AD10221504880F853104E4A1179106826
:100FC000FFF731FA00F0D4FE4B4890F853000228A6
:100FD00016D1494890F85200012811D10021464805
:100FE00080F85210A020454988703120C8704448CC
:100FF00048604449086802F055F9434808F074FB1A
:10100000424A1179106808F033FA01280AD1032105
:10101000394880F853103D4A11791068FFF703FAF8
:1010200000F0A6FE394A1179106801F0EDFE40B1DA
:101030000321314880F85310344A11791068FFF7C2
:10104000F2F92D4890F85300032848D12A4890F827
:101050004D0001280CD10021274880F84D10C08C8C
:1010600000902548838C428C018C29A0FFF746F91B
:10107000214890F84E0001280CD100211E4880F82C
:101080004E10C08C00901C48838C428C018C20A098
:10109000FFF734F9184890F84C0001280DD10020D2
:1010A000154981F84C000846C08C00900846838C96
:1010B000428C018C16A0FFF721F90F4890F85100DF
:1010C00001280CD100210C4880F85110C08C0090F0
:1010D0000948838C428C018C0DA0FFF70FF902A800
:1010E000082132230022CDE900101146104604F0F9
:1010F0008FFF57E790000020882500202000002067
:101100002C00002098000020A060024080000020F9
:10111000566F6C74616765203A2025642025642031
:101120002564202564200D0A0000000000B58BB066
:101130000AA8032100220592CDE906210890104655
:101140004FF480711922074BCDE90132CDE903102C
:1011500006200023044A05A10090084804F04AF93B
:101160000BB000BD80120020A10F00084170705F1D
:10117000436F6D5F5461736B00000000C01100206D
:101180000EB50BE001F0C0FF02A8082100230222E7
:10119000CDE900101946184604F03AFFF2E70000C6
:1011A00000B58BB00AA8032100220592CDE90621E3
:1011B000089010464FF480711922074BCDE9013297
:1011C000CDE9031007200023044A05A10090084838
:1011D00004F010F90BB000BD401700208111000889
:1011E0004170705F46616E5F5461736B0000000078
:1011F000801600200EB50FE04FF48061074802F022
:101200000BF902A808214FF4FA730022CDE900106F
:101210001146104604F0FCFEEEE70000000C024010
:1012200000B58BB00AA8032100220592CDE9062162
:10123000089010464FF480711922074BCDE9013216
:10124000CDE9031003200023044A05A100900848BB
:1012500004F0D0F80BB000BDC0080020F511000864
:101260004170705F4C65645F5461736B00000000F7
:10127000000800200EB50CE000F020FB02A80821B9
:101280004FF4FA730022CDE900101146104604F025
:10129000BFFEF1E700B58BB00AA80321002205923A
:1012A000CDE90621089010464FF480711922074BB2
:1012B000CDE90132CDE903100B200023044A05A13A
:1012C0000090094804F096F80BB000BDC020002043
:1012D000751200084170705F5077724D616E6167E2
:1012E00065725F5461736B000020002010B586B0FA
:1012F000002400F097FC05A803F0FAFF05AA0121DD
:10130000084603F0A9FE00BF00BF00BFFEF7DEFFE6
:10131000044600BF00BF2F480078401C2D490870CC
:1013200000BF00BF2046FEF7D5FF00BF00BF00BFD3
:10133000FFF776FF00F060FAFFF7F8FEFFF730FFE7
:1013400000F098F8FFF7A6FF05A80021224A022323
:10135000CDE90032CDE9021001231A461FA124482D
:1013600004F076FF05A9224804F0CCFF05A9214826
:1013700004F054FD00BF00BF00BFFEF7A7FF044606
:1013800000BF00BF13480078401E1249087008468D
:101390000078A0B918480088002809DD00BF00BF08
:1013A0002046FEF797FF00BF00BF06F049F90DE0A9
:1013B00000BF00BF2046FEF78DFF00BF06E000BF64
:1013C00000BF2046FEF786FF00BF00BF00BF06B08B
:1013D00010BD00009402002059BD00085379735FCE
:1013E000537461746543686B5F546D720000000054
:1013F000D0030020100300205802002000B58BB05D
:101400000AA8032100220592CDE906210890104682
:101410004FF480711922074BCDE90132CDE9031059
:101420001E200023044A05A10090084803F0E2FFB3
:101430000BB000BD00040020ED1200084170705F89
:1014400053746172745F5461736B00001003002069
:101450000EB50DE008F036FB08F0EAFA02A8082104
:101460000A230022CDE900101146104604F0D0FDF9
:10147000F0E7000000B58BB00AA803210022059216
:10148000CDE90621089010464FF480711922074BD0
:10149000CDE90132CDE9031008200023044A05A15B
:1014A0000090084803F0A6FF0BB000BD001C002010
:1014B000511400085379734F6E4F66665461736B15
:1014C00054636200401B00200EB582E10AF036FB37
:1014D00080B1C0480068C1B2BF4807F0C9FF012809
:1014E00005D10121BD4880F8531000F041FC0020D7
:1014F000B8490860B94890F8530001287ED1B74830
:1015000090F84D00012850D10021B44880F84D10CA
:101510000220B34988700820C870B048008C0012BF
:1015200049680870AD4890F82000AD494968487096
:10153000AA48408C0012AA4949688870A74890F8C8
:101540002200A7494968C870A448808C0012A449A9
:1015500049680871A14890F82400A1494968487178
:101560009E48C08C00129E49496888719B4890F83B
:1015700026009B494968C8719848408800129849DC
:101580004968087295488078954949684872954835
:1015900001F088FE9348C078811D9348C268914845
:1015A000904700208D49087048808C4890F84E0084
:1015B000012852D10021894880F84E100320884923
:1015C00088700820C8708548008C0012496808702F
:1015D000824890F820008249496848707F48408CD2
:1015E00000127F49496888707C4890F822007C4945
:1015F0004968C8707948808C001200E0DFE07849C3
:1016000049680871754890F824007549496848711F
:101610007248C08C00127249496888716F4890F80E
:1016200026006F494968C8716C48408800126C49AF
:101630004968087269488078694949684872694808
:1016400001F030FE6748C078811D6748C268654870
:1016500090470020614908704880604890F84F002A
:10166000A8B101215D4880F84F1000205C498870C6
:101670000120C8700020496808705A4801F012FE25
:101680005848C078811D5848C2685648904753480A
:1016900090F8500018B30121504880F850101320E2
:1016A0004F49C8700846406850490A6802604A6855
:1016B00042600A890281897A8172494840684C49AE
:1016C0000A6840F80B2F49684160464801F0EAFD7E
:1016D0004448C078811D4448C268424890473F480A
:1016E00090F85200012814D100213C4880F8521093
:1016F000A0203B4988701F20C8703E484860394888
:1017000001F0D0FD3748C078811D3748C2683548A0
:101710009047324890F84C00012850D100202F49C2
:1017200081F84C00F0202E4988700820C8702B48A2
:10173000008C001249680870284890F82000284959
:10174000496848702548408C0012254949688870CE
:10175000224890F8220022494968C8701F48808CAE
:1017600000121F49496808711C4890F824001C4960
:10177000496848711948C08C001219494968887134
:10178000164890F8260016494968C87113484088E1
:101790000012134949680872104880781049496856
:1017A0004872104801F07EFD0E48C078811D0E4839
:1017B000C2680C489047002008490870488002A879
:1017C00008210A230022CDE900101146104604F03A
:1017D0001FFC7BE6B00000206E3000208825002032
:1017E00020000020C00C0020BC00002000000020D1
:1017F0000B0000202C00002000B58BB00AA80321AC
:1018000000220592CDE90621089010464FF4807120
:101810001922074BCDE90132CDE903100420002342
:10182000044A05A10090084803F0E4FD0BB000BD98
:10183000C00D0020C91400084170705F5573625FCD
:101840005461736B00000000000D00201FB5684656
:1018500007F084FD019804B010BD000008B5002019
:10186000009003236A460D21162002F047FA012852
:1018700008D19DF80000642804DC9DF8001002489F
:1018800080F8571008BD00008825002008B500200A
:10189000009003236A460D21162002F077FB0128F1
:1018A00008D19DF80000642804DC9DF8001002486F
:1018B00080F85B1008BD00008825002010B507F0F7
:1018C000E1FCFFF7CBFFFFF7E1FF00F03FFA044632
:1018D000B54890F85400012825D1B34890F8560037
:1018E000012875D1B04890F85800002870D0AE4853
:1018F00090F85700642817D1022C01D0032CEBD1AB
:101900004FF40061A94801F083FD0221A74801F0CE
:1019100081FD0121A64801F07BFD0021A24880F84D
:10192000591080F858103DE19F4890F857006428FE
:101930003DD0032C3BD19F480088401C80B29D497C
:101940000880642814DB4FF40061984801F060FDC2
:101950000221964801F05EFD0121954801F058FDF5
:101960000121914880F85910002180F8581019E1A0
:101970008D4890F85E00012804D1C1028B4801F027
:1019800047FD04E04FF40061884801F043FD022167
:10199000864801F03DFD0121854801F03BFD002115
:1019A000814880F85910012180F85810FAE07E48EB
:1019B00090F85700642821D0012C1FD17A4890F864
:1019C0005E00012805D1C102784801F021FD05E043
:1019D00028E04FF40061754801F01CFD02217348B6
:1019E00001F016FD0121724801F014FD00216E483E
:1019F00080F85910012180F85810D3E04FF40061AD
:101A00006A4801F005FD0221684801F003FD01214B
:101A1000674801F0FDFC0021634880F8591080F808
:101A20005810BFE0604890F85A00012875D15E4810
:101A300090F85C00002870D05B4890F85B00642848
:101A400017D1022C01D0032C91D14FF400615748DB
:101A500001F0DEFC0221554801F0DCFC0221544873
:101A600001F0D6FC0021504880F85D1080F85C1031
:101A700098E04D4890F8570064283DD0032C3BD1A6
:101A80004D480088401C80B24B490880642814DB14
:101A90004FF40061454801F0BBFC0221434801F0CE
:101AA000B9FC0221424801F0B3FC01213E4880F814
:101AB0005D10002180F85C1074E03B4890F85E00F7
:101AC000012804D1C102394801F0A2FC04E04FF41E
:101AD0000061364801F09EFC0221344801F098FC78
:101AE0000221334801F096FC00212F4880F85D1058
:101AF000012180F85C1055E02B4890F85B006428C9
:101B000021D0012C1FD1284890F85E00012805D172
:101B1000C102264801F07CFC05E028E04FF400619A
:101B2000224801F077FC0221204801F071FC0221DB
:101B30001F4801F06FFC00211B4880F85D10012157
:101B400080F85C102EE04FF40061184801F060FC52
:101B50000221164801F05EFC0221154801F058FCF4
:101B60000021114880F85D1080F85C101AE04FF4F5
:101B700000610E4801F04CFC02210C4801F04AFCC7
:101B800001210B4801F044FC0221094801F040FC0E
:101B90000021054880F8591080F8581080F85D1031
:101BA00080F85C1010BD000088250020000C024069
:101BB00000180240740000207600002008B50021C3
:101BC0004FF0006002F0D2FC02F00EFD01F0D4FCF8
:101BD0000F48104B104A01210090104808F01DFCDE
:101BE00007F096FE00F058F907F004FEFFF7D2F870
:101BF000FFF7BCF809F0D8FF02F0E0FB002001F08D
:101C0000EDF8102001F0EAF801F07AFA08BD0000C2
:101C10002801002068010020D0000020F0250020CD
:101C200000BFFEE710B500F01FF800F019F810BD76
:101C300010B5002400BF00BFFEF748FB044600BFFC
:101C400000BF1021054802F016FC00BF00BF20466F
:101C5000FEF740FB00BF00BF10BD0000AE38002003
:101C600010B5FFF7E5FF10BD10B500200249086070
:101C700000F00AF810BD00002002002001490860B1
:101C8000704700002002002010B5FFF7DFFD04467A
:101C90000848006840F08070064908600020064946
:101CA00048600846006840F0010008602046FFF7E1
:101CB000E5FF10BDFCED00E0001000E001494868C0
:101CC00070470000001000E01F48008996301E4950
:101CD000088208460089963848820846008996306E
:101CE0008882084600899638C8820846007901280B
:101CF00011D1002008710846808996300883084673
:101D000080899638488308468089963088830846BB
:101D100080899638C8830C484079012812D1002068
:101D200009494871084680896430088308468089DB
:101D300064384883084680896430888308468089EF
:101D40006438C883704700008825002070B51021D2
:101D5000064801F054FB05460821044801F04FFBFA
:101D600005EB4000C4B2204670BD000000100240E8
:101D700010B513488078032816D005DC58B1012827
:101D80000CD0022816D10CE0042810D0A02811D1C4
:101D900001F0C0FB11E001F0C5FB0EE001F0B2FB69
:101DA0000BE001F075FB08E001F03AFB05E001F003
:101DB000DBFB02E002F034FB00BF00BF10BD0000FF
:101DC0001400002010B540F224412D4807F0CBFF4D
:101DD00018B340F224412A4807F094FF28480088AD
:101DE0002748001D00880021264800F0CDFE264926
:101DF000244800F095FE234800F0D1FEC0F16400B5
:101E000022490871084600681E494039C8646420A8
:101E1000486401211B4800F0B7FE40F224411C48F1
:101E200007F0A1FF50B340F22441194807F06AFFC0
:101E3000174800881648001D0088002111484830C6
:101E400000F0A2FE10490F48483000F069FE0D482E
:101E5000483000F0A4FEC0F164000E490871084645
:101E60000068084954310860642006494039C1F8C7
:101E70008C0001210348483000F086FE10BD0000B0
:101E8000004C004040600240200000208000002004
:101E9000004400409000002000B587B04FF4E131CD
:101EA0002C4809F0FFFD002240F22551294807F097
:101EB00084FF002240F22771264807F07EFF0122AE
:101EC00040F22441234807F078FF012240212148B5
:101ED00007F033FF012280211E4807F02EFF4FF448
:101EE00040304FF4807100220292CDE90321059029
:101EF0006420CDE900201848164A121DC904036861
:101F0000164801F03FF84FF440304FF48071002242
:101F10000292CDE90321059064204021CDE9001013
:101F20000F480C4A121D490503680C48183001F08F
:101F300029F80121094800F027FE00210748183040
:101F400000F022FE012210210448183000F05EFE4D
:101F500007B000BD004400409000002088600240AF
:101F60009800002039B1084A1268012383401A43BF
:101F7000054B1A6006E0044A1268012383409A4325
:101F8000014B1A60704700000074004030B5002219
:101F900000230A4C226840F6FE748440A243D1E933
:101FA00000452C438D682C43CD6844EA050303FAB1
:101FB00000F42243014C226030BD00000074004058
:101FC00008B500220092054A009200F10802009B29
:101FD0001A440092009A116008BD0000007400408D
:101FE00008B500220092054A009200F11402009BFD
:101FF0001A440092009A116008BD0000007400406D
:1020000010B541B1084A126804090123A3401A43DC
:10201000054B1A6007E0044A126804090123A34033
:102020009A43014B1A6010BD0474004070B5064617
:102030000C4604F08000802808D104F07F0000EBFB
:10204000800106F58E7000EBC10507E004F07F000B
:1020500000EB800106F55D7000EBC10504F07F0028
:10206000287004F08000C00968702946304609F0E5
:10207000A8F9002070BD70B506460C4604F080003B
:10208000802808D104F07F0000EB800106F58E70F7
:1020900000EBC10505E004EB840106F55D7000EB83
:1020A000C1050020A87004F07F002870C4F3C010A0
:1020B00068702946304609F05CF9002070BD2DE9B2
:1020C000F04106460D4690461F4605F080008028E8
:1020D00008D105F07F0000EB800106F58E7000EB63
:1020E000C10407E005F07F0000EB800106F55D709C
:1020F00000EBC10405F07F00207005F08000C009EE
:102100006070C4F80880E770607808B12078E080DB
:10211000022F01D1002020712146304609F0DDF860
:102120000020BDE8F0812DE9F04105460E46174636
:10213000984606F07F0000EB800105F55D7000EB2E
:10214000C104E760C4F814800020A061607006F04C
:102150007F002070E878012800D12761207820B91D
:102160002146284608F0DDFF03E02146284609F015
:10217000A7F90020BDE8F08108B500220092009A7E
:1021800061F30A12009202691268009B1A43036904
:102190001A6008BD70B506460C4604F08000802821
:1021A00008D104F07F0000EB800106F58E7000EB93
:1021B000C10505E004EB840106F55D7000EBC10587
:1021C0000120A87004F07F002870C4F3C01068706C
:1021D0002946304609F042F9002070BD2DE9F04152
:1021E00007460D461646984605F07F0000EB800135
:1021F00007F58E7000EBC1040120607005F07F00D0
:102200002070E66026610020A061C4F81480207868
:1022100020B92146384608F084FF03E021463846BD
:1022200009F04EF90020BDE8F081000030B587B01C
:102230000546594C284608F03AFF01A807F08EF8E9
:10224000029CE868C0680590059820F470500590DD
:102250000598E968C860284609F004FB03280BD1FB
:102260000020A8704FF40070A880059820F47050EA
:1022700000F5105005907EE00120A8704020A88055
:102280004648844209D34648844206D2059820F441
:10229000705000F5605005906DE04148844209D3CC
:1022A0004048844206D2059820F4705000F5505002
:1022B000059060E03B48844209D33B48844206D203
:1022C000059820F4705000F54050059053E03648D2
:1022D000844209D33548844206D2059820F47050D0
:1022E00000F53050059046E03048844209D330482C
:1022F000844206D2059820F4705000F520500590D5
:1023000039E02B48844209D32A48844206D20598F2
:1023100020F4705000F5105005902CE025488442C0
:1023200009D32548844206D2059820F4705000F560
:10233000005005901FE02048844209D31F48844282
:1023400006D2059820F4705000F5E050059012E098
:102350001A48844209D31A48844206D2059820F4C8
:10236000705000F5C050059005E0059820F47050BD
:1023700000F5A05005900598E968C8600020069017
:10238000069820F4005000F5005006900698E96881
:102390004861012007B030BD007A030AC0E1E400C3
:1023A0000024F400E0EC040100C31801002D310109
:1023B00040A44C0100366E0140E2950180C3C90182
:1023C00060600B02F8B50546002400200090284606
:1023D00009F089FA064681E006F0010000287BD06A
:1023E000E1B2284600F00CFB0090009800F00100DC
:1023F00030B3012000FA04F72869406BB84329691B
:10240000486300200090009820F00100401C0090DC
:1024100005F1180050F8240000998160E1B23248BB
:102420000068426828469047E878012808D13CB9FE
:1024300040F21110405D042802D1284608F01CFF2C
:102440000098C0F3C00060B100200090009820F018
:1024500008000830009005F1180050F82400009999
:1024600081600098C0F3001060B1002000900098D7
:1024700020F010001030009005F1180050F82400F2
:10248000009981600098C0F3801060B10020009036
:10249000009820F040004030009005F1180050F8FE
:1024A0002400009981600098C0F3400060B10020D2
:1024B0000090009820F00200801C009005F11800A8
:1024C00050F82400009981600098C0F3C01018B142
:1024D0002146284600F0BEFA641C7608002E7FF4E0
:1024E0007BAF0120F8BD00000C0200207CB5044643
:1024F000002500200190204609F0FDF906466FE016
:1025000006F00100002869D0E9B2204609F0FBF985
:102510000190019800F00100C8B3002001900198DB
:1025200020F00100401C019004F1540050F82500F7
:1025300001998160E078012817D104F1540050F826
:1025400025000069009005EB850104F55D7000EB46
:10255000C10080680099C1F31201411A05EB8502A0
:1025600004F55D7000EBC2008161E9B21E480068AD
:10257000026820469047E078012808D13DB940F232
:102580001110005D052802D1204608F075FE019863
:10259000C0F3400060B100200190019820F00200DB
:1025A000801C019004F1540050F8250001998160CD
:1025B0000198C0F3C00088B10B48006881682046CC
:1025C000884700200190019820F008000830019011
:1025D00004F1540050F82500019981606D1C7608C3
:1025E000002E8DD101207CBD0C0200203EB504469A
:1025F000A07A78B1D4F80C0100680090009820F01F
:1026000002000090009820F0010000900099D4F89A
:102610000C01016000200190019820F00100401C95
:102620000190206940680199884321694860094800
:10263000006881692046884700200290029820F0B7
:10264000004000F1004002900298E16848610120DA
:102650003EBD00000C0200207CB504460020019025
:10266000019820F0100010300190E0688069019915
:102670008843E1688861E068006A0090009800F093
:102680000F0000EB800104F55D7000EBC1050098C0
:10269000C0F3434007282DD2DFE800F02C04051DCD
:1026A0001E2C1F0027E00098C0F30A1090B100987C
:1026B000C0F30A122046E96809F02FF9E86800998A
:1026C000C1F30A110844E860A8690099C1F30A112E
:1026D0000844A8610FE00EE00DE0082204F2CC519E
:1026E000204609F01AF9A8690099C1F30A110844B3
:1026F000A86100E000BF00BFE0688069019908435D
:10270000E168886101207CBD38B50446084800684E
:10271000C1682046884700200090009820F00800FB
:10272000083000900098E1684861012038BD000041
:102730000C0200201FB50446002000904FF4897061
:10274000005D009023480068416920468847206961
:102750008068019000200390039820F4006000F549
:10276000006003900398E1684861A07A70B3019813
:1027700000F0010050B340F21510005D012825D192
:102780009DF80000032821D100200290029820F03B
:102790000100401C0290D4F80C0100680299084323
:1027A000D4F80C110860029820F00200801C0290FE
:1027B000D4F80C01006802990843D4F80C110860A1
:1027C0000548006840F0060003490860012004B095
:1027D00010BD00000C02002010ED00E030B587B005
:1027E000044600200290069005900490039001900A
:1027F000029820F00100401C029020694068029974
:102800008843216948600021204609F001F800252D
:102810000BE0FF2104F1180050F82500816004F15D
:10282000540050F8250081606D1C6078A842F0D8F3
:102830004FF0FF312069816106986FF30F00401C53
:102840000690069880B200F58030069006992069BF
:10285000C161059820F0080008300590059820F027
:102860000100401C0590059820F00200801C059096
:10287000059920694161049820F00100401C0490F2
:10288000049820F0080008300490049820F002001A
:10289000801C0490049920690161206900680390FC
:1028A000039820F4FE60039003992069016020469C
:1028B00008F0E2FC00200190019820F4805000F51F
:1028C000805001900198E1684861044800680169FE
:1028D00020468847012007B030BD00000C020020D0
:1028E0002DE9F04106460F463946304609F02AF8F0
:1028F00001214FF4897081550021801C81550025EC
:1029000011E005EB850106F58E7000EBC104012096
:1029100060702570E5800020E0704020A0600020FD
:10292000E06060616D1C7078A842EAD8002510E074
:1029300005EB850106F55D7000EBC10400206070B9
:102940002570E580E0704020A0600020E0606061BC
:102950006D1C7078A842EBD8304608F097FB3046E3
:1029600008F0C7F90021304609F054F8304608F065
:102970004DFA304608F015FFBDE8F08138B5044641
:102980000020009007480068C169204688470098E9
:1029900020F4801000F5801000900098E1684861F4
:1029A000012038BD0C02002038B5044600200090FC
:1029B00007480068016A20468847009820F4001004
:1029C00000F5001000900098E1684861012038BDD2
:1029D0000C02002038B50446E0684068009000987A
:1029E000C0F3800020B105480068816A204688470E
:1029F0000098E1684860012038BD00000C0200200A
:102A000030B5024615692B6915696C6B24FA01F51E
:102A100005F0010543EAC51302F1180555F82150E8
:102A2000AD6805EA030030BD38B5044608480068C3
:102A3000416A2046884700200090009820F080409E
:102A400000F1804000900098E1684861012038BDA5
:102A50000C0200202DE9F84306460F460025002011
:102A6000009007EB870106F58E7000EBC104D4E9F6
:102A70000501451AA068A84200D2A568E81C4FEAE3
:102A8000900806F1180050F827008069009029E0AE
:102A9000D4E90501451AA068A84200D2A568E81C3F
:102AA0004FEA9008ABB2FAB23046E16808F0D9FFBD
:102AB000E0682844E060A0692844A06106F118009D
:102AC00050F8270080690090D4E90501884209D1B7
:102AD0002178012000FA01F93069406B20EA0900F1
:102AE00031694863009880B2404506D9D4E90510A1
:102AF000884202D260690028CAD10120BDE8F8836B
:102B000010B501F0A7FE00F07DFA01F0B9FE10BD8E
:102B100010B501F09FFE00F075FA01F0B1FE10BD96
:102B20000246094B9A4201D2084801E00648103893
:102B300001F000531BB1064B0B40C36002E0044B95
:102B40000B40836070470000106402400060024048
:102B50007D0F7D0F0246094B9A4201D2084801E0E1
:102B60000648103801F000531BB1064B0B40C36000
:102B700002E0044B0B408360704700001064024089
:102B8000006002407D0F7D0F21B1026842F001021A
:102B9000026003E0026822F0010202607047014611
:102BA000486880B27047000070B5024600200024DB
:102BB0000025124EB24201D2114B01E00F4B103BE7
:102BC000104E0E4036B11E2606EAD124166806EADB
:102BD000040502E0566906F0800501F000560EB1CA
:102BE0005C6800E01C68084E344004EA010616B137
:102BF0000DB1012000E0002070BD00001064024013
:102C0000006002403C0F3C0F7D0F7D0F10B501F0BE
:102C100080034BB122B1436943F08003436103E079
:102C2000436923F08003436180290BD02AB10368F4
:102C300001F01E042343036004E0036801F01E0456
:102C4000A343036010BD000010B500220268134BBF
:102C50001A40CC680B6823434C6923438C69234397
:102C6000CC6923430C6A23434C6A23438C6A234375
:102C70004C6B23438C6B23431A430260426922F05E
:102C80000702D1E90B3423431A4342610B694360C5
:102C90004B6883608B68C36010BD00003F801CF0F0
:102CA0004160704770B504460D464FF4804122489C
:102CB00000F0AEFB49F20101204806F0FCFC4FF4A5
:102CC0007A6000F059F94FF480411B4800F0A2FBF4
:102CD0004FF4FA6000F050F94FF48041164800F0CC
:102CE00097FB4FF4805040EA0511144806F0E3FCCE
:102CF0004FF47A6000F040F94FF480410E4800F044
:102D000089FB4FF4FA6000F037F94FF480410A482C
:102D100000F07EFB4FF4004040EA0411074806F043
:102D2000CAFC4FF47A6000F027F94FF48041024862
:102D300000F070FB70BD000000040240003C004049
:102D400070B504460D464FF40051224800F060FB78
:102D500049F20101204806F0AEFC4FF47A6000F021
:102D60000BF94FF400511B4800F054FB4FF4FA608C
:102D700000F002F94FF40051164800F049FB4FF4FF
:102D8000805040EA0511144806F095FC4FF47A6033
:102D900000F0F2F84FF400510E4800F03BFB4FF406
:102DA000FA6000F0E9F84FF400510A4800F030FBF7
:102DB0004FF4004040EA0411074806F07CFC4FF451
:102DC0007A6000F0D9F84FF40051024800F022FB7D
:102DD00070BD000000040240003C00401FB50446E6
:102DE0000121480706F09AFA3C200090002001904B
:102DF00002900220039069462046FFF7C7F80121A0
:102E00002046FFF7AFF81FBD70B504460D460026FB
:102E1000204600F09BF80646012E02D0022E56D125
:102E200056E0E07930384FF47A7110FB01F1207AE6
:102E3000303800EBC00202EB001001EB8001607A39
:102E4000303800EB800001EB4001A07A30380844B4
:102E500080B23C4908814881102D1AD1207B30383E
:102E60004FF47A7110FB01F1607B303800EBC00247
:102E700002EB001001EB8001A07B303800EB8000FA
:102E800001EB4001E07B3038084480B22D49888155
:102E9000C8810F2D11D1207B3038642110FB01F146
:102EA000607B303800EB800001EB4001A07B3038C4
:102EB000084480B223498881C881012021490871D2
:102EC000FEF702FFFDF7DAFF01201E49887136E0A8
:102ED000E07930384FF47A7110FB01F1207A303804
:102EE00000EBC00202EB001001EB8001607A303889
:102EF00000EB800001EB4001A07A3038084480B23A
:102F0000104908814881207B3038642110FB01F191
:102F1000607B303800EB800001EB4001A07B303853
:102F2000084480B207498881C88101204871FEF7B2
:102F3000CBFEFDF753FF01200249C87100BF00BF5F
:102F4000304670BD882500207047000070B50546EA
:102F500000240BE0074850F8241006222846FDF70D
:102F600049FA10B9601CC0B270BD641C022CF1DBC0
:102F70000020F9E76000002000BF411E89B2081E52
:102F8000FBD170472DE9F04F8FB004460D46164631
:102F90001F46DDE91AABDDE918891948844204D2DD
:102FA0000121480506F09AF903E00121880506F0A1
:102FB00095F9009501960297CDF80C80CDF8109008
:102FC000002005904FF480600690CDF81CA0CDF84D
:102FD00020B01C9809901D980A9000200B900320A7
:102FE0000C9000200D900E9069462046FFF72CFEB5
:102FF00000212046FFF7C8FD0FB0BDE8F08F0000AC
:103000000064024010B509490948FFF7CDFD58B1E9
:1030100000210748FFF7B8FD64210548FFF740FE8F
:1030200002490348FFF796FD10BD000000802020F4
:10303000A060024070B504460D46164601F054F9F2
:10304000FE2101EA440001F003F901F08FF910B10B
:1030500010A0FDF753F9284601F0FAF801F086F9BF
:1030600010B10CA0FDF74AF901F03EF9012101EB86
:103070004401C8B201F0ECF801F078F910B105A0F4
:10308000FDF73CF901F0BAF8307001F00BF901F0EE
:103090004DF970BD494943204552524F52200D0A07
:1030A0000000000070B504460D46164601F01CF9FC
:1030B000FE2101EA440001F0CBF801F057F910B10C
:1030C0000BA0FDF71BF9284601F0C2F801F04EF9FC
:1030D00010B107A0FDF712F9304601F0B9F801F080
:1030E00045F910B102A0FDF709F901F01FF970BD13
:1030F000494943204552524F52200D0A000000001A
:1031000010B500F095F810BD10B5464890F8401085
:1031100090F83F00814205DB424890F84000424968
:10312000087004E03F4890F83F003F4908703D4870
:1031300090F841003C490978884204DC3A4800781C
:103140003949087004E0374890F841003649087062
:103150003548007835490978884262D0324800788D
:103160003249087030480078322819DC0C223021AE
:103170002C20FFF797FF0C2240212C20FFF792FF15
:103180000C2250212C20FFF78DFF0C2260212C20D7
:10319000FFF788FF0C2270212C20FFF783FF40E00F
:1031A00021480078322823DD1F4800785F281FDA85
:1031B0001D48007800EB80000C30C4B2224630215C
:1031C0002C20FFF76FFF224640212C20FFF76AFFDB
:1031D000224650212C20FFF765FF224660212C203B
:1031E000FFF760FF224670212C20FFF75BFF18E0FD
:1031F000FF2230212C20FFF755FFFF2240212C20F9
:10320000FFF750FFFF2250212C20FFF74BFFFF223A
:1032100060212C20FFF746FFFF2270212C20FFF7B2
:1032200041FF10BD8825002072000020730000209F
:1032300008B5802220212C20FFF734FF6A46202188
:103240002C20FFF7F7FE00222A212C20FFF72AFF6F
:103250001F222B212C20FFF725FF00222C210846BE
:10326000FFF720FF00222D212C20FFF71BFF0C224F
:1032700030212C20FFF716FF0C2240212C20FFF7D5
:1032800011FF0C2250212C20FFF70CFF0C22602193
:103290002C20FFF707FF0C2270212C20FFF702FFE4
:1032A00008BD000010B500221E4949781D4B9B78CF
:1032B00019441C4BDB7819441A4B197200BF09E002
:1032C0001849097A174B5B689B5C1944154B1972B6
:1032D000511CCAB21349C9789142F1DC11490978ED
:1032E00001701049497841700E49897881700D4903
:1032F000C978C170002105E00A4B5B685C5C0B1D5E
:10330000C454491C074BDB788B42F5DC05490B7A2A
:10331000C978091D435403494B7AC978491D435460
:1033200010BD000020000020F0B50A460021002357
:10333000002400BF3DE0012505FA01F3156805EA08
:1033400003049C4234D105684F000326BE40B543B8
:10335000056015794E00B54006683543056015795E
:10336000012D02D01579022D16D185684F00032654
:10337000BE40B543856055794E00B54086683543FB
:103380008560456801268E40B5434560456896795D
:103390008E40B6B235434560C5684F000326BE4037
:1033A000B543C560D5794E00B540C6683543C560A4
:1033B000491C1029BFD3F0BDF0B5002300244D07F0
:1033C000ED0E02FA05F3CE1000F1200555F8265057
:1033D0004E07F70E0F26BE40B543CF1000F1200672
:1033E00046F82750CE1000F1200555F8265045EA42
:1033F0000304CE1000F1200545F82640F0BD02463A
:10340000002013690B400BB1012000E00020704741
:10341000418370470183704742694A404261704767
:1034200010B519484068407817494968097840EA5A
:1034300001201649088114484068C078124949683B
:10344000897840EA0120114948810F484068407955
:103450000D494968097940EA01200C4988810A48E8
:103460004068C07908494968897940EA01200749DC
:10347000C88101204871FEF727FCFDF7AFFC012051
:103480000249C87110BD00001400002088250020EA
:1034900010B501201949087019484068407818494A
:1034A0004968097840EA01201449088114484068B5
:1034B000C07813494968897840EA01200F4948815A
:1034C0000F48406840790E494968097940EA01206F
:1034D0000A4988810A484068C07909494968897958
:1034E00040EA01200549C88101200871FEF7ECFB84
:1034F000FDF7C4FC01200149887110BD882500201A
:10350000140000200121024880F85010704700008C
:10351000882500200121024880F8521070470000E1
:10352000882500200121024880F84F1070470000D4
:103530008825002070B50A480468001D0568001D34
:103540000668344454B108220649204600F072FF50
:10355000042204491031284600F06CFF70BD0000C1
:10356000107AFF1F0E0100200121024880F851103F
:10357000704700008825002008B501217F2005F054
:10358000ADFE0121080705F0C9FE012005F064FD2C
:10359000002005F057FF002005F05EFD0822002105
:1035A000FE48FFF709FF08220121FC48FFF704FF4E
:1035B00000200346022201210090F84800F0EAFAB8
:1035C00000200346022211460090F44800F0E2FA7F
:1035D00000200346032204210090F04800F0DAFAAC
:1035E00000200346032208210090EC4800F0D2FAA4
:1035F00002200023032210210090E84800F0CAFABC
:1036000002200023032220210090E44800F0C2FAA7
:1036100000200346012211020090E04800F0BAFAAF
:1036200000200346012291020090DC4800F0B2FA2B
:103630004FF48061D948FFF7EDFE012000230246D8
:1036400001460090D64800F0A5FA002001231A4652
:1036500040210090D24800F09DFA002001231A4634
:1036600080210090CE4800F095FA01200023024608
:1036700001020090CA4800F08DFA012000230246A2
:1036800041020090C64800F085FA01200346024638
:1036900081020090C24800F07DFA012003460246F4
:1036A000C1020090BE4800F075FA012000230246D6
:1036B00041030090BA4800F06DFA01200023024651
:1036C00081030090B64800F065FA0020034603220B
:1036D00001210090B34800F05DFA00200346032268
:1036E00002210090AF4800F055FA00200346032263
:1036F00004210090AB4800F04DFA0020034603225D
:1037000008210090A74800F045FA00200346032254
:1037100020210090A34800F03DFA0020034601223A
:10372000510200909F4800F035FA06220A219D4878
:10373000FFF742FE012000230222810200909948F7
:1037400000F028FA06220B219648FFF735FE0120EB
:1037500000230222C1020090924800F01BFA0622C8
:103760000C219048FFF728FE0120002302220103CC
:1037700000908C4800F00EFA00200346012251030D
:103780000090884800F006FA4FF400518548FFF792
:1037900041FE00200346012291030090814800F081
:1037A000F9F94FF480417F48FFF734FE00200346CB
:1037B0000122D10300907B4800F0ECF90020034681
:1037C000012202210090784800F0E4F9002003462D
:1037D000012204210090744800F0DCF904217248B1
:1037E000FFF718FE002003460122082100906E48D2
:1037F00000F0D0F908216C48FFF70CFE00200346CA
:10380000012210210090684800F0C4F91021664898
:10381000FFF700FE072205216348FFF7CDFD0722D1
:1038200006216148FFF7C8FD00200346022220213F
:1038300000905D4800F0AEF90020034602224021CE
:103840000090594800F0A6F900200346012280218B
:103850000090554800F09EF980215348FFF7DAFDAB
:10386000002003460122110200904F4800F092F917
:103870004FF480714C48FFF7CDFD00200346012234
:1038800051020090484800F085F94FF40071464815
:10389000FFF7C0FD0020034601229102009042483C
:1038A00000F078F9002003460122D10200903E4842
:1038B00000F070F9002003460122110300903A48FD
:1038C00000F068F94FF480513748FFF7A3FD00205E
:1038D0000346012251030090334800F05BF90020B9
:1038E00003460122910300902F4800F053F9012074
:1038F00000231A46C10300902B4800F04BF9012029
:1039000000231A4601460090284800F043F902209F
:1039100000231A4601460090244800F03BF900209D
:103920000346012204210090204800F033F90020D2
:1039300003460246082100901C4800F02BF90020A5
:103940000346024610210090184800F023F9002099
:103950000346024620210090144800F01BF9002085
:103960000346012211020090104800F013F90020D4
:10397000034602464FF4007100900C4800F00AF92B
:10398000002001231A4699020090084800F002F92D
:103990004FF480610548FFF73DFD09E0000002405B
:1039A0000004024000080240000C024000100240E7
:1039B000002003460122D1020090734800F0EAF88B
:1039C0000020034602464FF4805100906E4800F0FC
:1039D000E1F80020034602464FF4005100906A4887
:1039E00000F0D8F800200346012202210090674829
:1039F00000F0D0F8002003460122114600906348F1
:103A000000F0C8F8002003460122042100905F481E
:103A100000F0C0F8002003460322082100905B4814
:103A200000F0B8F800200346032210210090574808
:103A300000F0B0F8002003460322202100905348F4
:103A400000F0A8F8002003460322402100904F48D0
:103A500000F0A0F8002003460322802100904B488C
:103A600000F098F80020034603224FF48071009084
:103A7000464800F08FF80020034603224FF40071FF
:103A80000090424800F086F80020034603224FF4DD
:103A9000806100903D4800F07DF80020034601223F
:103AA000D1020090394800F075F800200346012249
:103AB00011030090354800F06DF800200346012204
:103AC00051030090314800F065F8002003460122C0
:103AD000910300902D4800F05DF80020034601227C
:103AE000D1030090294800F055F800200346012238
:103AF00011460090264800F04DF8002003460122B0
:103B000002210090224800F045F8002003460122DF
:103B1000042100901E4800F03DF8002003460122D9
:103B2000082100901A4800F035F8002003460122D1
:103B300010210090164800F02DF8002003460122C5
:103B400080210090124800F025F880211048FFF7EE
:103B50005FFC002003460122910300900C4800F016
:103B600019F84FF480410A48FFF754FC002003463F
:103B70000122D1030090064800F00CF84FF40041F8
:103B80000348FFF747FC08BD001002400014024044
:103B9000001802402DE9FC4107460C4615461E461A
:103BA000DDF8208000948DF8045003208DF8050086
:103BB0008DF806608DF8078069463846FFF7B4FB3C
:103BC000BDE8FC8170B506463048007800285BD11E
:103BD0002F480068B0F5006F02D100202C49086022
:103BE0002B4800682B490968884203D100202749E7
:103BF000087070BD2648006826490968884206D9C1
:103C000023480068C0F500602349086006E02148A9
:103C100000681F490968401A1F4908601E4800686B
:103C2000402811D91A48008885B2402418480068F5
:103C30004030174908601848006840381649086045
:103C400001201249087018E01148008885B2124816
:103C5000008884B20E4800680F49096808440C497E
:103C6000086000200C490860402C03D1022007495D
:103C7000087002E0012005490870084842192346EF
:103C800081213046FEF7AAFA00BFB2E75C010020AE
:103C9000540100205001002058010020AE300020C7
:103CA00000BFFEE770B505F067FC02211148FFF781
:103CB000AFFB80241AE04FF400610F48FFF79FFB31
:103CC00008B9A54300E025430F20FFF755F902216D
:103CD0000848FFF79FFB0F20FFF74EF90221054828
:103CE000FFF796FB0F20FFF747F96410002CE2D195
:103CF000284670BD00140240000402402DE9F04146
:103D000006460F4614461D464FF0000800F0A6F880
:103D1000304600F057F800F0DFF810B10020BDE8A1
:103D2000F081384600F04EF800F0D6F808B10020D7
:103D3000F5E700F093F846F0010000F043F800F0DA
:103D4000CBF808B10020EAE700BF3220FFF714F9F2
:103D5000FFF7A8FF04F8010B08F10100C0B280468C
:103D6000A84202D100F058F801E000F009F8A84597
:103D7000EBD13C20FFF700F900F08EF80120CEE7F0
:103D800010B505F013FC02210D48FFF741FB0A2096
:103D9000FFF7F2F801210A48FFF73AFB0A20FFF784
:103DA000EBF802210648FFF735FB0A20FFF7E4F89D
:103DB00002210348FFF72CFB0A20FFF7DDF810BDB6
:103DC0000014024070B5054605F0F0FB80241DE0AC
:103DD00004EA050020B901210E48FFF719FB03E0B2
:103DE00001210C48FFF716FB0520FFF7C5F802215B
:103DF0000848FFF70FFB0520FFF7BEF80221054832
:103E0000FFF706FB0520FFF7B7F86410002CDFD1A1
:103E100070BD00000014024010B505F0C7FB022180
:103E20000D48FFF7F5FA0A20FFF7A6F801210A4826
:103E3000FFF7F0FA0A20FFF79FF802210648FFF784
:103E4000E9FA0A20FFF798F802210348FFF7E0FAA1
:103E50000A20FFF791F810BD0014024010B50221AE
:103E60000C48FFF7D7FA01210A48FFF7D3FA0520DB
:103E7000FFF782F801210748FFF7CAFA0520FFF78C
:103E80007BF802210348FFF7C3FA0520FFF774F817
:103E900010BD00000014024010B505F087FB0221A0
:103EA0000C48FFF7B5FA01210A48FFF7B1FA0520DF
:103EB000FFF762F802210748FFF7ACFA0520FFF789
:103EC0005BF801210348FFF7A5FA0520FFF754F836
:103ED00010BD00000014024010B54FF4FA6405F064
:103EE0004BFB0520FFF748F805E0601E80B2041E7A
:103EF00001D1012010BD4FF400610A48FFF77FFA9D
:103F00000028F2D102210848FFF784FA0520FFF7C4
:103F100033F802210448FFF77BFA0520FFF72CF85D
:103F20000020E7E7000402400014024070B505F0ED
:103F300057FB4FF480711348FFF76AFA80241CE0A6
:103F40004FF400711048FFF75AFA08B9A54300E092
:103F500025430F20FFF710F84FF480710948FFF751
:103F600059FA0F20FFF708F84FF480710548FFF762
:103F70004FFA0F20FFF700F86410002CE0D128461C
:103F800070BD000000000240000802402DE9F04131
:103F900006460F4614461D464FF0000800F0B8F8DC
:103FA000304600F05DF800F0FDF810B10020BDE8EB
:103FB000F081384600F054F800F0F4F808B1002021
:103FC000F5E700F0A5F846F0010000F049F800F030
:103FD000E9F808B10020EAE700BF3220FEF7CCFF85
:103FE000FFF7A4FF04F8010B08F10100C0B28046FE
:103FF000A84202D100F064F801E000F009F8A845F9
:10400000EBD13C20FEF7B8FF00F0A6F80120CEE788
:1040100010B505F0FFFA4FF480710F48FFF7F8F97B
:104020000A20FEF7A9FF4FF400710C48FFF7F0F9E2
:104030000A20FEF7A1FF4FF480710748FFF7EAF965
:104040000A20FEF799FF4FF480710348FFF7E0F96B
:104050000A20FEF791FF10BD000002400008024058
:1040600070B5054605F0D6FA802421E004EA050083
:1040700028B94FF400711048FFF7CAF904E04FF473
:1040800000710D48FFF7C6F90520FEF775FF4FF4E4
:1040900080710A48FFF7BEF90520FEF76DFF4FF467
:1040A00080710648FFF7B4F90520FEF765FF64103C
:1040B000002CDBD170BD000000080240000002406F
:1040C00010B505F0A7FA4FF480710F48FFF7A0F97B
:1040D0000A20FEF751FF4FF400710C48FFF79AF9E0
:1040E0000A20FEF749FF4FF480710748FFF792F965
:1040F0000A20FEF741FF4FF480710348FFF788F96B
:104100000A20FEF739FF10BD0000024000080240FF
:1041100010B54FF480710E48FFF77CF94FF4007131
:104120000C48FFF777F90520FEF726FF4FF40071E2
:104130000848FFF76DF90520FEF71EFF4FF4807168
:104140000348FFF765F90520FEF716FF10BD0000D4
:10415000000002400008024010B505F05BFA4FF481
:1041600080710E48FFF754F94FF400710C48FFF7C7
:104170004FF90520FEF700FF4FF480710748FFF765
:1041800049F90520FEF7F8FE4FF400710448FFF7E7
:1041900041F90520FEF7F0FE10BD000000000240CE
:1041A0000008024010B54FF4FA6405F019FA052032
:1041B000FEF7E2FE05E0601E80B2041E01D1012080
:1041C00010BD4FF400710B48FFF719F90028F2D128
:1041D0004FF480710848FFF71DF90520FEF7CCFE6B
:1041E0004FF480710448FFF713F90520FEF7C4FE71
:1041F0000020E5E7000802400000024070B505F02D
:1042000087F940211148FFF703F9802419E0802144
:104210000E48FFF7F4F808B9A54300E025430A204B
:10422000FEF7AAFE40210948FFF7F4F80A20FEF73E
:10423000A3FE40210548FFF7EBF80A20FEF79CFE9D
:104240006410002CE3D1284670BD00000004024039
:1042500070B5054605F076F980241DE004EA0500F6
:1042600020B980210E48FFF7D3F803E080210C48E5
:10427000FFF7D0F80A20FEF77FFE40210848FFF73D
:10428000C9F80A20FEF778FE40210548FFF7C0F87C
:104290000A20FEF771FE6410002CDFD170BD000013
:1042A0000004024010B505F04DF940210D48FFF71C
:1042B000AFF80A20FEF760FE80210A48FFF7AAF84F
:1042C0000A20FEF759FE40210648FFF7A3F80A200E
:1042D000FEF752FE40210348FFF79AF80A20FEF746
:1042E0004BFE10BD0004024010B505F02BF9402133
:1042F0000D48FFF78FF80A20FEF73EFE80210A489E
:10430000FFF788F80A20FEF737FE80210648FFF7FE
:104310007FF80A20FEF730FE40210348FFF778F8C7
:104320000A20FEF729FE10BD0004024010B505F07A
:1043300009F940210C48FFF76BF880210A48FFF784
:1043400067F80A20FEF718FE40210748FFF762F8D9
:104350000A20FEF711FE80210348FFF75BF80A20D0
:10436000FEF70AFE10BD00000004024010B54FF435
:10437000FA6405F0CDF80520FEF7FEFD05E0601EAD
:1043800080B2041E01D1012010BD80210A48FFF730
:1043900036F80028F3D140210748FFF73BF80A2000
:1043A000FEF7EAFD40210448FFF732F80A20FEF745
:1043B000E3FD0020E8E700000004024000B587B0FC
:1043C000FCF7C6FA4FF440304FF480714A01CB003D
:1043D000CDE90232CDE90410282000210D4B0E4A10
:1043E000CDE900100D48FEF7CDFD01210B48FEF789
:1043F000CBFB012108484C38FCF7FDF901210648A8
:104400004C38FCF7EDF904484C38FCF785FA07B056
:1044100000BD0000DC2E00204C2001401064024052
:1044200001200349C870F1204968087070470000F6
:104430002000002030B50B46002100BF16E00A2402
:10444000B4EB107F05D9302404EB107403F811404D
:1044500005E0412404EB10740A3C03F8114000010C
:1044600000254C00641C1D554C1CE1B29142E6DB5A
:1044700030BD00BFFEE730B505460C4622460021A0
:10448000284600F001F830BD2DE9F04105460B4605
:1044900094460027002402E03F021F43641C042CC2
:1044A000FAD3604605F00306294646B1344603E0D8
:1044B00001F8013B401E641C08B1042CF8D30A46E5
:1044C00001E080C2001F0428FBD2114602E001F87F
:1044D000013B401E0028FAD1BDE8F0817047000082
:1044E00070B5002100230F22C4781CB3174C246838
:1044F00004F4E064C4F5E064C4F30721C1F10404EA
:10450000E3B20A4144789C40E1B2847814402143EC
:104510000C07210E0E4C05786155047804F01F0538
:104520000124AC4005786D11AD0005F1E025C5F81A
:10453000004109E0047804F01F050124AC40054D5A
:104540000678761145F8264070BD00000CED00E0BD
:1045500000E400E080E100E002490143024A11600A
:10456000704700000000FA050CED00E0024A0A4026
:104570000243024B1A60704780FFFF1F08ED00E006
:1045800070B52DED088B0446204608F0C3F841ECC9
:104590001B0B9FED0F0B53EC102B08F0CFF841ECE9
:1045A0001A0B9FED0D0B53EC102B07F0E7FE41ECBF
:1045B000190B9FED0B0B53EC102B08F0BDF941ECE0
:1045C000180B08F063F885B22846BDEC088B70BD67
:1045D0003333333333333D40000000000000594093
:1045E0000000000000E0734008B54FF4E060FFF702
:1045F000B3FF34208DF8000000208DF80100012069
:104600008DF802008DF803006846FFF769FF11205E
:104610008DF8000000208DF8010002208DF80200C6
:1046200001208DF803006846FFF75AFF0F208DF830
:10463000000000208DF8010003208DF80200012009
:104640008DF803006846FFF74BFF26208DF8000029
:1046500000208DF8010004208DF8020001208DF863
:1046600003006846FFF73CFF1C208DF80000002087
:104670008DF8010005208DF8020001208DF803005F
:104680006846FFF72DFF08BD7047000010B50348CE
:10469000006810B101480068804710BD3802002052
:1046A00070B5044600F0C2F8002048490870484937
:1046B00008704849087048490860484908604849F6
:1046C00008704849087048490870484908604849D6
:1046D00008604849086048490870484800680A214D
:1046E000B0FBF1F0464908604648006858B14648BA
:1046F000056845B14348066803E0761E002028603F
:104700002D1D002EF9D10020404908604049086065
:1047100040490860404908604049086040490860D5
:10472000404908604049087002F0F2FD02F0D2FEF4
:10473000204601F03DFF208800B170BD204602F008
:104740001DFB208800B1F8E7204602F023FB2088FB
:1047500000B1F2E7204602F01FFC208800B1ECE730
:10476000204602F005FE208800B1E6E7204603F06F
:1047700025F8208800B1E0E7204603F03FFB2088C1
:1047800000B1DAE7204602F065FA208800B1D4E7EC
:10479000204602F07FF8208800B1CEE7204604F0E2
:1047A000BDFA208800B1C8E7204603F071FA2088DE
:1047B00000B1C2E7204604F029FB208800B1BCE725
:1047C00001F020FEFFF760FF00BFB6E74C020020BB
:1047D0004D02002094020020040300200803002062
:1047E0007A0200207B0200207C0200208802002048
:1047F0008C020020900200209C02002090CB000838
:104800009802002060CB00085CCB00082C0200203E
:104810003002002034020020380200203C02002038
:104820004002002044020020CA020020064800681E
:104830000649096800EB81000549086008460068E0
:1048400020F00700086070475CCB000860CB0008D0
:104850000C03002008480078012800D07047074862
:104860000078FA2800DBF9E704480078401C034987
:10487000087000BFF2E700004D0200204C0200204B
:1048800010B500242D480078012800D010BD00BFCD
:10489000FBF71CFD044600BF2948007828B900BF7B
:1048A0002046FBF717FD00BFF0E725480078401EC3
:1048B0002349087008460078002805DD00BF20461F
:1048C000FBF708FD00BFE1E71E480078002805DD82
:1048D00000BF2046FBF7FEFC00BFD7E702F004FD57
:1048E000194908700846007800EB4000174951F854
:1048F0002000174908600846006816490968884280
:1049000005D100BF2046FBF7E5FC00BFBEE710481D
:104910000068D0F88C00401C0D490968C1F88C0073
:104920000D480068401C0C490860FBF7F5FE00BF0D
:104930002046FBF7CFFC00BF00BFA7E74D020020D9
:104940004C020020940200207B020020CC4D00206D
:104950000803002004030020C00200202DE9F041DC
:1049600004460E461546002729480078002804DD35
:1049700042F6E1602880BDE8F0811CB945F6C350DD
:104980002880F8E700BF00BF00BFFBF79FFC074689
:1049900000BF00BF1F480078401C1E49087000BFC0
:1049A00000BF3846FBF796FC00BF00BF00BF1A48A7
:1049B000206066600020206284F82500A06240200C
:1049C00084F8240004F1080002F09DFB204602F068
:1049D000CBFA12480088401C1049088000BF00BF75
:1049E00000BFFBF773FC074600BF00BF0948007813
:1049F000401E0849087000BF00BF3846FBF76AFC3C
:104A000000BF00BF00BF0020288000BFB3E7000048
:104A10004C020020940200204D555458780200208A
:104A20002DE9F04788B00546894690461C46109E01
:104A30004FF0000AAB480078002805DD46F2AE10C2
:104A4000308008B0BDE8F0871DB945F6C35030800E
:104A5000F7E7B8F1000F03D0B8F5004F02D100E03E
:104A600000BF03E045F625603080EAE700BF9E49BD
:104A70002868884203D045F6C4503080E1E70CB185
:104A80000020206000BF00BFFBF720FC824600BF73
:104A900000BF95F82500C0B9944800682862934883
:104AA000006890F8370085F82400012085F825007B
:104AB0000CB1A86A206000BF00BF5046FBF70AFC9B
:104AC00000BF00BF00203080BBE78849286A096822
:104AD000884212D195F82500401C85F825000CB1BC
:104AE000A86A206000BF00BF5046FBF7F3FB00BF81
:104AF00000BF45F282703080A3E708F4004050B157
:104B000000BF00BF5046FBF7E5FB00BF00BF46F209
:104B1000B010308095E77648007800280ADD00BFA5
:104B200000BF5046FBF7D6FB00BF00BF46F6635000
:104B3000308086E700BF6E480078401C6C490870E2
:104B400000BF00BF5046FBF7C5FB00BF00BF00BF62
:104B50002F6A97F837006549096891F8371088423D
:104B600060DD97F8360008282AD2DFE800F0041547
:104B70001E1F17162021384602F034FD5B480068DE
:104B800090F8370087F8370097F8370002F0CCFB31
:104B9000384602F0C7FC44E000BF00BF534800683D
:104BA00090F8370087F837003BE000BF00BF00BF38
:104BB0004E48006890F83710384602F081FA30E02D
:104BC00000BF00BF00BFFBF781FB824600BF00BFF4
:104BD00047480078401E4649087008460078A0B94A
:104BE00044480088002809DD00BF00BF5046FBF79D
:104BF00071FB00BF00BF02F023FD0DE000BF00BF4E
:104C00005046FBF767FB00BF06E000BF00BF504601
:104C1000FBF760FB00BF00BF00BF46F62D60308091
:104C20000FE700BF4B4604222946684602F0C0F950
:104C300000BF00BF00BFFBF749FB824600BF00BFBB
:104C40002B480078401E2A49087000BF00BF50461C
:104C5000FBF740FB00BF00BF00BF00F073F900BFCF
:104C600000BFFBF733FB824600BF00BF1F48006850
:104C700090F8350030B101280CD002281AD0032852
:104C800021D110E01CB119480068006C20600020A0
:104C900030801CE01CB115480068006C206046F2B2
:104CA000A910308013E00CB10020206047F2D92019
:104CB00030800CE01CB10D480068006C206045F6A7
:104CC000C250308003E046F62E60308000BF00BF47
:104CD00000BF00BF5046FBF7FDFA00BF00BF00BF9A
:104CE000AFE600004C0200204D555458040300204C
:104CF00094020020580200202DE9F84F044688460F
:104D000015464FF0000A89480078002804DD46F275
:104D10000E202880BDE8F88F1CB945F6C3502880C6
:104D2000F8E7B8F1000F03D0B8F5004F02D100E06A
:104D300000BF03E045F625602880EBE700BF7C4913
:104D40002068884203D045F6C4502880E2E700BFBF
:104D500000BFFBF7BBFA824600BF00BF7549206A5F
:104D6000096888420AD000BF00BF5046FBF7B2FA7C
:104D700000BF00BF45F281702880CBE700BF6E48BE
:104D80000078401C6C49087000BF00BF5046FBF71C
:104D9000A1FA00BF00BF00BFFCF790FF0746A76263
:104DA00094F82500401E84F8250094F8250000287A
:104DB00030DD00BF00BF00BFFBF788FA824600BFAE
:104DC00000BF5D480078401E5B49087008460078C7
:104DD000A0B95A480088002809DD00BF00BF50462E
:104DE000FBF778FA00BF00BF02F02AFC0DE000BF1D
:104DF00000BF5046FBF76EFA00BF06E000BF00BFE1
:104E00005046FBF767FA00BF00BF00BF45F2837052
:104E100028807FE704F10809B9F8080098BB002052
:104E2000206284F8250000BF00BF00BFFBF74EFAE8
:104E3000824600BF00BF40480078401E3E490870CF
:104E400008460078A0B93D480088002809DD00BF69
:104E500000BF5046FBF73EFA00BF00BF02F0F0FB78
:104E60000DE000BF00BF5046FBF734FA00BF06E07C
:104E700000BF00BF5046FBF72DFA00BF00BF00BFC8
:104E80000020288046E7FFE72A48006890F83700AE
:104E900094F82410884219D02648006802F0A2FB3A
:104EA00094F824002349096881F8370021490968EA
:104EB00091F8370002F038FA1E48006802F052FB01
:104EC0001C48006890F837001D490870D9F80000A8
:104ED0008668266296F8370084F82400012084F85A
:104EE000250000231A4631462046009702F07CF93F
:104EF00000BF00BF00BFFBF7E9F9824600BF00BF5B
:104F00000D480078401E0C49087000BF00BF504695
:104F1000FBF7E0F900BF00BF00BF08F4004008B98C
:104F200000F010F80020288000BFF3E64C020020BB
:104F30004D555458040300209402002058020020CC
:104F40007A02002010B500241F480078002800DDF8
:104F500010BD1E480078002800DDF9E700BFFBF710
:104F6000B5F9044600BF02F0BFF9194908700846B8
:104F7000007800EB4000174951F8200016490860FE
:104F80000846006815490968884205D100BF2046D7
:104F9000FBF7A0F900BFDBE70F480068D0F88C00F2
:104FA000401C0D490968C1F88C000D480068401C80
:104FB0000B490860FBF7ABFB00BF2046FBF78AF903
:104FC00000BF00BFC4E700004C0200209402002094
:104FD0007B020020CC4D00200803002004030020A9
:104FE000C002002070B5044600251848007800284B
:104FF00003DD46F66250208070BD15480078012818
:1050000003D045F689602080F6E712480078FA2838
:1050100003DB45F209202080EEE700BF00BFFBF76D
:1050200055F9054600BF00BF0A480078401C0949F1
:10503000087002F02FFB00BF00BF2846FBF74AF9BB
:1050400000BF00BF0020208000BFD5E74C02002039
:105050004D020020940200202DE9F04105460C4647
:105060001646002700BF00BFFBF730F9074600BF18
:1050700000BF012D03D000200D49087002E001207F
:105080000B49087014B10B48046006E00A48006838
:105090000A21B0FBF1F00749086000BF00BF3846A5
:1050A000FBF718F900BF00BF00203080BDE8F08199
:1050B0009C0200209802002090CB000870B50446A6
:1050C000002520480078002803DD46F66550208042
:1050D00070BD1D480078012803D045F68960208006
:1050E000F6E71A48007818B946F664502080EFE7D2
:1050F00000BF00BFFBF7EAF8054600BF00BF13483A
:105100000078401E114908700846007800280ADD22
:1051100000BF00BF2846FBF7DDF800BF00BF46F622
:1051200063502080D4E702F0C3FA00BF00BF2846D6
:10513000FBF7D0F800BF00BFFFF704FF002020807E
:1051400000BFC5E74C0200204D0200209402002061
:1051500010B5044612480078E8B902F0C5F81149C4
:10516000087008460078104908700E48007800EB77
:1051700040000E4951F820000D49086008460068BB
:105180000C490860012006490870FBF7AFFA43F6A6
:105190009920208002E045F68A60208010BD000042
:1051A0004D0200207B0200207A020020CC4D00201E
:1051B00008030020040300202DE9F04107464FF0CA
:1051C000000800BF00BFFBF781F8804600BF00BFAA
:1051D00000203D4908603D4908803D4908803D491F
:1051E00008603D4908603D4908603D4908603D4907
:1051F000088100BF00BF4046FBF76CF800BF00BF4E
:1052000000BF00BFFBF762F8804600BF00BF364812
:10521000046800BF00BF4046FBF75CF800BF00BF5A
:1052200021E000BF00BFFBF751F8804600BF00BF80
:1052300000207434E06320602063A061A082E082DB
:105240006062A062FCF73AFD2062743C04F16006E3
:105250000020B081D4F8B84000BF00BF4046FBF743
:1052600039F800BF00BF002CDBD100BF00BFFBF747
:105270002DF8804600BF00BF1C48056800BF00BF76
:105280004046FBF727F800BF00BF12E000BF00BF99
:10529000FBF71CF8804600BF00BF05F12006002088
:1052A000B081AD6900BF00BF4046FBF713F800BFF7
:1052B00000BF002DEAD103F099FB03F04DFE002062
:1052C0003880BDE8F0810000600200205A02002012
:1052D000AA020020BC020020D0020020F40200201C
:1052E0008C020020C04D0020C4020020800200205B
:1052F000F8B5044600266946324800F08FFDBDF837
:10530000000018B1BDF800002080F8BD6A460021F9
:10531000022000F0F7FDBDF8000018B1BDF8000054
:105320002080F2E700BF00BFFAF7D0FF064600BFBB
:1053300000BF00202449086000BF00BF3046FAF7D4
:10534000C9FF00BF00BF0025204800682049096848
:10535000884205D91D4800681D490968B0FBF1F570
:1053600025B91A4800680A21B0FBF1F56A46002108
:10537000284600F0C7FD6946124800F063FABDF800
:10538000000018B1BDF800002080BEE700BF00BFDC
:10539000FAF79CFF064600BF00BF00200D490860D9
:1053A000094800680C49086001200C49087000BFDA
:1053B00000BF3046FAF78EFF00BF00BF00202080FC
:1053C00000BFA2E778520020AC02002090CB00087A
:1053D00078CB0008BC020020B0020020B8020020F8
:1053E00010B50348006810B101480068804710BD3F
:1053F0003C0200202DE9FF4F87B004469046DDE9CE
:105400001BA5DDE91496179F0020039087480078BC
:10541000002805DD47F24A1028800BB0BDE8F08F68
:105420001CB947F2AD102880F7E7B8F1000F03D19F
:1054300047F24F102880F0E71EB946F62F6028800B
:10544000EBE77B480068874203D246F6306028804D
:10545000E3E71698B84203D346F631602880DCE7CC
:10546000B9F1400F03D346F273202880D5E7B9F194
:10547000000F06D16F48844203D046F27320288083
:10548000CBE7B9F13F0F06D16B48844203D046F217
:1054900073202880C1E7204602F0C0FC002028804D
:1054A0000AF0010090B10AF0020078B105960020E0
:1054B000069008E00021059801600598001D059000
:1054C0000698401C06900698B842F3D3169806EB4F
:1054D00080000490CDE9007A32464046049B0A9948
:1054E00000F06EFB0590C4F828800A98E0620898E6
:1054F000206284F83790059820600498A06019987D
:105500002065199818B94D480068606501E0199840
:1055100060651A9860606662A763A4F83CA04FF0CB
:10552000000B08E0002104F1780040F82B100BF18B
:10553000010000F0FF0BBBF1000FF3D004F160009D
:10554000189901F087FC204600F082F800BF00BFE8
:1055500000BFFAF7BBFE039000BF00BF38480078D9
:10556000401C3749087000BF00BF0398FAF7B2FE2D
:1055700000BF00BF00BF94F8370001F0D5FE204601
:1055800001F0F0FF204602F0FFFB2E480088401C8F
:105590002C4908802C48007801282DD000BF00BF7E
:1055A00000BFFAF793FE039000BF00BF24480078C5
:1055B000401E2349087008460078A0B92348008897
:1055C000002809DD00BF00BF0398FAF783FE00BF83
:1055D00000BF02F035F80DE000BF00BF0398FAF7F6
:1055E00079FE00BF06E000BF00BF0398FAF772FE25
:1055F00000BF00BF00BF10E700BF00BF00BFFAF749
:1056000065FE039000BF00BF0D480078401E0C49A6
:10561000087000BF00BF0398FAF75CFE00BF00BF30
:1056200000BFFFF78FFC00BFF7E600004C02002030
:105630008CCB0008004D0020404C00209802002038
:1056400094020020C80200204D02002058020020D1
:1056500010B504460348006818B12046014909689E
:10566000884710BD2C02002070B504460D46002668
:1056700067480078002803DD47F24E10288070BD8F
:105680006448844203D147F24C102880F7E762480F
:10569000844203D147F24D102880F0E77CB900BF67
:1056A00000BFFAF713FE064600BF00BF5B48046860
:1056B00000BF00BF3046FAF70DFE00BF00BF00BFBD
:1056C00000BF00BFFAF702FE064600BF00BF544805
:1056D0000078401C5249087000BF00BF3046FAF7FE
:1056E000F9FD00BF00BF00BF94F8360008282DD296
:1056F000DFE800F004090E10080A0F11204601F03F
:1057000071FF54E053E000BF204603F043F94EE040
:1057100000BF00BF00BF94F83400082810D2DFE8B3
:1057200000F004070508090A0B0600BF00BF08E0E7
:1057300000BF00BF00BF00BF204601F01CFD00E01D
:1057400000BF00BF204603F025F930E000BF00BFD6
:1057500000BFFAF7BBFD064600BF00BF3048007827
:10576000401E2F49087008460078A0B92D480088CF
:10577000002809DD00BF00BF3046FAF7ABFD00BFCF
:1057800000BF01F05DFF0DE000BF00BF3046FAF73B
:10579000A1FD00BF06E000BF00BF3046FAF79AFD4A
:1057A00000BF00BF00BF46F62D60288067E700BF3E
:1057B00004F1600001F02CFB204600F037F8204691
:1057C00002F0FAFA18480088401E1749088020465F
:1057D00002F024FBFF2084F8360000BF00BF00BFAA
:1057E000FAF774FD064600BF00BF0D480078401E62
:1057F0000B49087000BF00BF3046FAF76BFD00BFD1
:1058000000BF00BF00202880FFF79CFB00BF36E7E9
:105810004C020020404C0020004D002004030020DA
:105820009402002058020020C802002010B504464F
:105830000348006818B1204601490968884710BD2F
:10584000300200207FB504460D46002600BF00BF91
:10585000FAF73CFD064600BF00BF1CB115480068C2
:1058600084420AD100BF00BF3046FAF733FD00BFC3
:1058700000BF47F2571028807FBD00BF00BF3046F1
:10588000FAF728FD00BF00BF0B48007800280BDDA9
:10589000002000900190034602462146CDE9020512
:1058A000064801F02FF8E7E72946204602F01AFCE7
:1058B00000BFE1E7040300204C020020545245538E
:1058C00010B504460348006818B12046014909682C
:1058D000884710BD340200202DE9F04780460E466F
:1058E00014461D464FF000097D480078002805DD6C
:1058F00046F2AE1028800020BDE8F0871EB1B6F554
:10590000004F02D100E000BF04E045F6256028808A
:105910000020F1E700BF0CB10020206000BF00BFF5
:10592000FAF7D4FC814600BF00BF6E480068406CA7
:10593000A8B36C480068406C401E6A490968486416
:1059400068480068476C1CB166480068006C2060BD
:10595000FCF7B4F963490968096C401A61490968A0
:10596000C1F8A0005F480068D0F8A4005D4909684C
:10597000D1F8A010884207D25A480068D0F8A00099
:1059800058490968C1F8A40000BF00BF4846FAF7AB
:10599000A1FC00BF00BF002028803846ACE7FFE72D
:1059A00006F4004058B100BF00BF4846FAF792FC29
:1059B00000BF00BF46F2B010288000209CE74A4894
:1059C000007800280BDD00BF00BF4846FAF782FCD4
:1059D00000BF00BF46F66350288000208CE700BF60
:1059E00041480078401C4049087000BF00BF48464D
:1059F000FAF770FC00BF00BF00BF4346072200213A
:105A0000084601F0D5FA00BF00BF00BFFAF75EFC00
:105A1000814600BF00BF34480078401E32490870FC
:105A200000BF00BF4846FAF755FC00BF00BF00BFEB
:105A3000FFF788FA00BF00BFFAF748FC814600BFB5
:105A400000BF2848006890F8350020B1012826D012
:105A5000032834D12CE0FCB122480068006C20609F
:105A6000FCF72CF91F490968096C401A1D4909689F
:105A7000C1F8A0001B480068D0F8A40019490968C3
:105A8000D1F8A010884207D216480068D0F8A000CC
:105A900014490968C1F8A4000020288013E01CB153
:105AA00010480068006C206046F2A91028800AE0C7
:105AB0000CB10020206047F2D920288003E046F690
:105AC0002E60288000BF00BF06480068476C00BFFA
:105AD00000BF4846FAF7FEFB00BF00BF38460BE7A1
