:020000040800F2
:100000000850002069020008A5310008813000086E
:100010003B3100083D130008BDA4000800000000AB
:1000200000000000000000000000000063800008E5
:100030000125000800000000130400087982000870
:10004000830200088302000883020008830200087C
:10005000830200088302000883020008830200086C
:10006000830200088302000883020008830200085C
:10007000830200088302000883020008F9210008B7
:100080008302000809220008830200088302000896
:10009000830200088302000883020008830200082C
:1000A000830200088302000883020008830200081C
:1000B000E986000883020008830200088302000822
:1000C00083020008830200088302000883020008FC
:1000D00083020008830200083187000883020008B9
:1000E00083020008830200088302000883020008DC
:1000F00083020008830200088302000883020008CC
:1001000083020008830200088302000883020008BB
:100110002187000883020008830200088302000888
:10012000830200088302000883020008830200089B
:10013000830200088302000883020008830200088B
:10014000830200088302000883020008117D000872
:10015000830200088302000883020008830200086B
:10016000830200088302000883020008830200085B
:10017000830200088302000883020008830200084B
:10018000830200088302000800F002F800F05CF827
:100190000AA090E8000C82448344AAF10107DA45E2
:1001A00001D100F051F8AFF2090EBAE80F0013F0D8
:1001B000010F18BFFB1A43F00103184750B50000A8
:1001C00070B500000A444FF0000C10F8013B13F02A
:1001D000070408BF10F8014B1D1108BF10F8015BA0
:1001E000641E05D010F8016B641E01F8016BF9D193
:1001F00013F0080F1EBF10F8014BAD1C0C1B09D1EA
:100200006D1E58BF01F801CBFAD505E014F8016B5B
:1002100001F8016B6D1EF9D59142D6D370470000ED
:100220000023002400250026103A28BF78C1FBD8FF
:10023000520728BF30C148BF0B6070471FB50BF095
:1002400059F91FBD10B510BD00F096F81146FFF723
:10025000F5FF0AF035FB00F0B4F803B4FFF7F2FF46
:1002600003BC0AF085FA00000948804709480047A6
:10027000FEE7FEE7FEE7FEE7FEE7FEE7FEE7FEE756
:10028000FEE7FEE704480549054A064B70470000B3
:10029000E982000889010008084A0020085000206F
:1002A000084C0020084C002072B6704762B67047B8
:1002B000EFF3108072B6704780F31088704730BF3C
:1002C000704720BF7047B0FA80F0704790FAA0F0F6
:1002D000B0FA80F0704790FAA0F0704770474FF086
:1002E00000020429C0F0128010F0030C00F01F80FF
:1002F000CCF1040CBCF1020F18BF00F8012BA8BF11
:1003000020F8022BA1EB0C0100F011B85FEAC17CD0
:1003100024BF00F8012B00F8012B48BF00F8012B87
:10032000704770477047704770474FF0000200B544
:10033000134694469646203922BFA0E80C50A0E808
:100340000C50B1F12001BFF4F7AF090728BFA0E8B6
:100350000C5048BF0CC05DF804EB890028BF40F882
:10036000042B08BF704748BF20F8022B11F0804FC4
:1003700018BF00F8012B7047754600F02BF8AE4609
:1003800005006946534620F00700854618B020B5A1
:10039000FFF778FFBDE820404FF000064FF0000760
:1003A0004FF000084FF0000B21F00701AC46ACE81D
:1003B000C009ACE8C009ACE8C009ACE8C0098D468A
:1003C000704710B50446AFF300802046BDE81040EA
:1003D000FFF743BF00487047A849002022484FF666
:1003E000FF710170002080F309882048016881F3C3
:1003F00008881F484FF08051016062B6FEE71C4834
:100400004FF080510160704719484FF080510160F2
:10041000704772B6EFF3098050B11EF0100F08BF9D
:1004200020ED108A203880E8F00F12490968086032
:1004300000B5114880475DF804EB104810490A7870
:1004400002700C480F490A680260106890E8F00FCB
:1004500020301EF0100F08BFB0EC108A80F309881E
:100460004EF0040E62B6704722ED00E00C0300204F
:1004700004ED00E004030020454B00087A02002050
:100480007B0200200803002021B1826842F00102B3
:10049000826003E0826822F00102826070470000FF
:1004A0000021084A1168084A1140D0E900231A4384
:1004B00083681A43C3681A431143044AC2F80413F9
:1004C0007047000004230140E030FCFF00200140A1
:1004D00021B1826842F48072826003E0826822F473
:1004E00080728260704721B1826842F4007282603B
:1004F00003E0826822F400728260704730B50246E1
:10050000002000235068104C20400D790C6844EA0C
:1005100005242043506090680C4C2040D1E90354DE
:100520002C438D682C434D7944EA45042043906068
:10053000D06A20F470000C7D641EE4B2234340EACC
:100540000350D06230BD0000FFFEFFFCFDF7FFC08E
:10055000F0B504460D4600200021092D11DDE068AC
:10056000A5F10A0606EB4607072606FA07F18843B7
:10057000A5F10A0606EB460603FA06F10843E06019
:100580000CE0206905EB4507072606FA07F18843CA
:1005900005EB450603FA06F108432061072A0FDA46
:1005A000606B561E06EB86071F2606FA07F1884386
:1005B000561E06EB860605FA06F10843606322E044
:1005C0000D2A0FDA206BD61F06EB86071F2606FAC8
:1005D00007F18843D61F06EB860605FA06F10843A5
:1005E000206310E0E06AA2F10D0606EB86071F26E5
:1005F00006FA07F18843A2F10D0606EB860605FA16
:1006000006F10843E062F0BD816841F080418160FD
:100610007047000038B10849096841F40001074AF1
:10062000C2F8041306E00449096821F40001034AF2
:10063000C2F8041370470000042301400020014069
:1006400010B50221094800F0C5F90120FFF7E2FFCB
:10065000072301220F210548FFF77AFF0723022213
:1006600010210248FFF774FF10BD00000020014078
:1006700010B50E212B4800F0ADF9072301220A2105
:100680002848FFF765FF072302220B212548FFF7C3
:100690005FFF072303220C212248FFF759FF07239E
:1006A00004220D211F48FFF753FF072305220E21C7
:1006B0001C48FFF74DFF0723062209211948FFF7C1
:1006C00047FF07231A4604211648FFF741FF072377
:1006D000082206211348FFF73BFF072309220F21B9
:1006E0001048FFF735FF07230A2202210D48FFF7C4
:1006F0002FFF07230B2205210A48FFF729FF0723B5
:100700000C2203210748FFF723FF07230D22194678
:100710000448FFF71DFF07230E2208210148FFF7B9
:1007200017FF10BD0022014010B52DED108B0120E8
:1007300000F00EF904460AF0D5FC41EC1D0B9FEDCC
:10074000750B53EC102B0AF0E1FC41EC1C0B9FEDF8
:10075000730B53EC102B0AF0F9FA41EC1B0B9FEDD5
:10076000710B53EC102B0AF0F1FA41EC1A0B9FEDD0
:100770006F0B53EC102B0AF0C9FC41EC190B9FEDE9
:100780006D0B53EC102B0AF0C1FC41EC180B0AF076
:1007900065FC6A498883022000F0DAF804460AF012
:1007A000A1FC41EC1F0B9FED5B0B53EC102B0AF0EF
:1007B000ADFC41EC1E0B9FED590B53EC102B0AF0D6
:1007C000C5FA41EC1D0B9FED530B53EC102B0AF0B7
:1007D0009BFD41EC1C0B9FED5A0B53EC102B0AF0C8
:1007E000B5FA41EC1B0B9FED580B53EC102B0AF0A4
:1007F0008DFC41EC1A0B9FED470B53EC102B0AF0CC
:100800008FFD41EC190B9FED4B0B53EC102B0AF0B5
:100810007DFC41EC180B0AF021FC4849C8830320F9
:1008200000F096F804460AF05DFC41EC1D0B9FEDCC
:10083000390B53EC102B0AF069FC41EC1C0B9FEDBB
:10084000370B53EC102B0AF081FA41EC1B0B9FED98
:10085000350B53EC102B0AF079FA41EC1A0B9FED93
:10086000330B53EC102B0AF051FC41EC190B9FEDAC
:10087000310B53EC102B0AF049FC41EC180B0AF039
:10088000EDFB2E490884042000F062F804460AF0CB
:1008900029FC41EC1F0B9FED1F0B53EC102B0AF0B2
:1008A00035FC41EC1E0B9FED1D0B53EC102B0AF099
:1008B0004DFA41EC1D0B9FED170B53EC102B0AF07A
:1008C00023FD41EC1C0B9FED1E0B53EC102B0AF08B
:1008D0003DFA41EC1B0B9FED1C0B53EC102B0AF067
:1008E00015FC41EC1A0B9FED0B0B53EC102B0AF08F
:1008F00017FD41EC190B9FED0F0B53EC102B0AF079
:1009000005FC41EC180B0AF0A9FB0C494884BDEC2E
:10091000108B10BD6666666666660A4000000000C1
:1009200000FEAF40E17A14AE47E11040AE47E17AF5
:10093000140E5A400000000000005940081C00201E
:100940005C8FC2F5285C05407B14AE47E1AA594094
:10095000F0B58AB00446002300210BE0C1EBC100D2
:100960001B4E06EB8006601E36F810002DF81100B5
:10097000481CC1B21429F1DB00211AE0002212E068
:100980003DF81260501C3DF81000864209DD3DF82C
:100990001250501C3DF810002DF81200501C2DF87C
:1009A0001050501CC2B2C1F113009042E8DC481C48
:1009B000C1B21429E2DB022104E03DF81100034436
:1009C000481CC1B21229F8DB1B0998B20AB0F0BD6D
:1009D0001C23002030B58BB004460D461C488442D1
:1009E00003D10121801507F005FA1A48844203D18A
:1009F0000121401507F0FEF91748844203D1012177
:100A0000001507F0F7F9002007904FF480300890A8
:100A1000002009900A9007A8FFF742FD00200190EE
:100A200001208DF808008DF80900002003904FF098
:100A300070600490002005908DF8185001A92046A0
:100A4000FFF75CFD01212046FFF71EFD0BB030BD16
:100A500000200140002101400022014010B5FF218B
:100A6000084600F0BDF810BD10B540F6FF7000F06C
:100A7000DBF80349C888FF2100F0C4F810BD00006E
:100A8000081C002010B540F6FF7000F0CDF840F6CD
:100A9000FF7000F0D8F8FF21084600F0B3F810BD51
:100AA00010B52548808841F64C51884243DC2248E5
:100AB0008088B0F57A7F3EDB1F48C08888423ADCE8
:100AC0001D48C088B0F57A7F35DB1B480089B0F53A
:100AD000FA7F30DC18480089FA282CDB1648408958
:100AE000B0F5FA7F27DC14484089FA2823DB4FF45D
:100AF0000041124801F098FE4FF480410F4801F088
:100B000093FEFFF7B1FF0C49888800F08DF80A4A80
:100B10005189D08800F076F8074A5189108900F091
:100B20005FF84FF40041054801F07CFE4FF480412E
:100B3000024801F079FE10BD081C00200018024098
:100B400010B52548808841F64C51884242DC224845
:100B50008088B0F57A7F3DDB1F48C088884239DC49
:100B60001D48C088B0F57A7F34DB1B480089884275
:100B700030DC19480089B0F5FA7F2BDB1648408934
:100B8000884227DC14484089B0F5FA7F22DB4FF415
:100B90000041124801F048FE4FF480410F4801F037
:100BA00043FEFFF75BFF0C49888800F03DF80A49D7
:100BB000088900F048F8084A5189D08800F022F8E6
:100BC0004FF40041054801F02DFE4FF480410348E9
:100BD00001F028FE10BD0000081C00200018024093
:100BE0002DE9F04105460C46284607F09FF80646D9
:100BF000204602F029FB0746F9B2F0B201F0CEFB25
:100C0000BDE8F0812DE9F04105460C46284609F083
:100C10000DFD0646204609F009FD0746F9B2F0B27F
:100C200001F00AFCBDE8F08170B50446204609F0E9
:100C30004DFD05462946002000F03EFD0121002023
:100C400000F05AFD70BD70B50446204609F03EFD27
:100C500005462946002000F03FFD0121102000F04C
:100C60004BFD70BD0EB537E01C4A1179106807F0D6
:100C70005BF901280AD10221194880F85110194A5C
:100C800011791068FFF72BFB00F0EEFB144890F889
:100C90005100022816D1124890F85000012811D1B5
:100CA00000210F4880F85010A0200F4988701F20A5
:100CB000C8700E4848600B49086801F0FDFC0C48FC
:100CC00007F0D0F902A808210A230022CDE900107C
:100CD0001146104604F000F8C6E70000900000201E
:100CE000081C002098000020240000203000002074
:100CF000A060024000B58BB00AA803210022059233
:100D0000CDE90621089010464FF480711922074B57
:100D1000CDE90132CDE9031006200023044A05A1E4
:100D20000090084803F0CAF90BB000BD8012002003
:100D3000650C00084170705F436F6D5F5461736BA9
:100D400000000000C01100200EB50FE04FF48061DC
:100D5000074801F06BFD02A808214FF4FA73002246
:100D6000CDE900101146104603F0B6FFEEE7000093
:100D7000000C024000B58BB00AA8032100220592A6
:100D8000CDE90621089010464FF480711922074BD7
:100D9000CDE90132CDE9031003200023044A05A167
:100DA0000090084803F08AF90BB000BDC00800208D
:100DB000490D00084170705F4C65645F5461736B4E
:100DC000000000000008002010B586B0002400F0EC
:100DD000B7FA05A803F0F0F805AA0121084602F0C9
:100DE0009FFF00BF00BF00BFFFF762FA044600BFCD
:100DF00000BF2D480078401C2B49087000BF00BF81
:100E00002046FFF759FA00BF00BF00BFFFF7B2FF4F
:100E100000F02EFAFFF76EFF00F09AF805A8002107
:100E2000224A0223CDE90032CDE9021001231A46FD
:100E30001FA1244804F070F805A9224804F0C6F860
:100E400005A9214803F04EFE00BF00BF00BFFFF719
:100E50002FFA044600BF00BF13480078401E124915
:100E6000087008460078A0B918480088002809DDF5
:100E700000BF00BF2046FFF71FFA00BF00BF05F00C
:100E800043FA0DE000BF00BF2046FFF715FA00BF90
:100E900006E000BF00BF2046FFF70EFA00BF00BF0C
:100EA00000BF06B010BD00009402002075A7000826
:100EB0005379735F537461746543686B5F546D72EB
:100EC00000000000D0030020100300205802002082
:100ED00000B58BB00AA8032100220592CDE90621B6
:100EE000089010464FF480711922074BCDE901326A
:100EF000CDE903101E200023044A05A100900848F4
:100F000003F0DCF80BB000BD00040020C90D0008A0
:100F10004170705F53746172745F5461736B000051
:100F2000100300200EB511E0BDF8080007F03EFAEE
:100F3000BDF8080007F042FB02A808210A2300229E
:100F4000CDE900101146104603F0C6FEECE70000A4
:100F500000B58BB00AA8032100220592CDE9062135
:100F6000089010464FF480711922074BCDE90132E9
:100F7000CDE9031008200023044A05A10090084889
:100F800003F09CF80BB000BD40170020250F0008AF
:100F90005379734F6E4F66665461736B546362008E
:100FA000801600200EB54FE109F0D6FA80B1A748AF
:100FB0000068C1B2A64806F0B7FF012805D101219B
:100FC000A44880F8511000F04FFA00209F490860B3
:100FD000A04890F8510001287ED19E4890F84B001F
:100FE00001283FD100219B4880F84B1002209A49EC
:100FF00088700820C8709748808B00124968087074
:101000009448007F9449496848709248C08B001208
:101010009149496888708F48807F8F494968C870B6
:101020008C48008C00128C4949680871894890F8F6
:1010300020008949496848718648408C00128649D9
:1010400049688871834890F8220083494968C871CB
:10105000824801F031FB8148C078811D8048C26818
:101060007E4890477B4890F84C00012841D10021F0
:10107000784880F84C100320774988700820C870A1
:101080007448808B0012496808707248007F72496A
:10109000496848706F48C08B00126F494968887072
:1010A0006C48807F6C494968C8706A48008C00129F
:1010B000694949680871674890F82000664949689D
:1010C00048716448408C00126349496888716148DE
:1010D00090F82200604900E0ACE04968C8715F48C0
:1010E00001F0EAFA5D48C078811D5D48C2685B483E
:1010F0009047584890F84D00A8B10121554880F814
:101100004D100020544988700120C87000204968A3
:101110000870524801F0D0FA5048C078811D5048FC
:10112000C2684E4890474B4890F84E0018B30121D2
:10113000484880F84E1013204749C8700846406858
:1011400048490A6802604A6842600A890281897ACD
:1011500081724148406844490A6840F80B2F496849
:1011600041603E4801F0A8FA3C48C078811D3C48E7
:10117000C2683A489047374890F85000012814D187
:101180000021344880F85010A020334988701F2077
:10119000C87036484860314801F08EFA2F48C07850
:1011A000811D2F48C2682D4890472A4890F84A0070
:1011B00001283FD10020274981F84A00F020264924
:1011C00088700820C8702348808B00124968087016
:1011D0002048007F2049496848701E48C08B001293
:1011E0001D49496888701B48807F1B494968C87041
:1011F0001848008C0012184949680871154890F881
:1012000020001549496848711248408C0012124963
:10121000496888710F4890F822000F494968C871E1
:101220000E4801F049FA0D48C078811D0C48C2688B
:101230000A48904702A808210A230022CDE900109D
:101240001146104603F048FDAEE60000B000002055
:10125000DE260020081C002024000020C00C0020F6
:10126000BC000020000000200B0000203000002007
:1012700000B58BB00AA8032100220592CDE9062112
:10128000089010464FF480711922074BCDE90132C6
:10129000CDE9031004200023044A05A1009008486A
:1012A00002F00CFF0BB000BDC00D0020A50F000820
:1012B0004170705F5573625F5461736B0000000092
:1012C000000D00201FB5684606F0A4FD019804B08B
:1012D00010BD000008B500214FF0006001F0AAFF2A
:1012E00001F0E6FF01F050FB1048114B114A0121BB
:1012F0000090114807F09FFD06F0C8FF00F048F984
:1013000001F000F906F034FFFFF7BCFBFFF7A6FB86
:1013100009F058F901F0B6FE002001F0DBF81020CA
:1013200001F0D8F801F0C6F908BD0000280100203E
:1013300068010020D0000020601C002000BFFEE7F4
:1013400010B500F01FF800F019F810BD10B500241A
:1013500000BF00BFFEF7ACFF044600BF00BF102176
:10136000054801F0ECFE00BF00BF2046FEF7A4FFD9
:1013700000BF00BF10BD00001E2F002010B5FFF7FA
:10138000E5FF10BD10B500200249086000F00AF822
:1013900010BD0000200200200149086070470000D5
:1013A0002002002010B5FFF78DFF044608480068B2
:1013B00040F08070064908600020064948600846F1
:1013C000006840F0010008602046FFF7E5FF10BD0F
:1013D000FCED00E0001000E00149486870470000A3
:1013E000001000E01F48808896301E49888108461A
:1013F00080889638C88108468088963008820846DA
:1014000080889638488208460078012811D100204B
:101410000870084600899630888208460089963808
:10142000C8820846008996300883084600899638A5
:1014300048830C484078012812D10020094948709F
:101440000846008964308882084600896438C8826A
:101450000846008964300883084600896438488358
:1014600070470000081C002010B51348807803283E
:1014700016D005DC58B101280CD0022816D10CE09A
:10148000042810D0A02811D101F04CFA11E001F08D
:1014900051FA0EE001F03EFA0BE001F003FA08E029
:1014A00001F0C8F905E001F067FA02E001F01CFE66
:1014B00000BF00BF10BD00001800002010B540F2B2
:1014C00024412D4807F060F918B340F224412A481E
:1014D00007F036F9284800882748001D00880021B9
:1014E000264800F0CDFE2649244800F095FE23480A
:1014F00000F0D1FEC0F1640022490871084600687E
:101500001E494039C8646420486401211B4800F02A
:10151000B7FE40F224411C4807F036F950B340F2C0
:101520002441194807F00CF9174800881648001D97
:10153000008800211148483000F0A2FE10490F48F1
:10154000483000F069FE0D48483000F0A4FEC0F1BC
:1015500064000E4908710846006808495431086063
:10156000642006494039C1F88C0001210348483005
:1015700000F086FE10BD0000004C004040600240BC
:101580002000002080000020004400409000002047
:1015900000B587B04FF4E1312C4808F091FF0022EC
:1015A00040F22551294807F019F9002240F227712D
:1015B000264807F013F9012240F22441234807F09E
:1015C0000DF901224021214807F0D5F801228021A0
:1015D0001E4807F0D0F84FF440304FF480710022DD
:1015E0000292CDE9032105900420CDE9002018489E
:1015F000164A121DC9040368164800F0EFFF4FF4A5
:1016000040304FF4807100220292CDE90321059011
:1016100004204021CDE900100F480C4A121D490555
:1016200003680C48183000F0D9FF0121094800F088
:1016300027FE00210748183000F022FE0122102169
:101640000448183000F05EFE07B000BD00440040C2
:1016500090000020886002409800002039B1084ABC
:101660001268012383401A43054B1A6006E0044ABE
:101670001268012383409A43014B1A6070470000AF
:101680000074004030B5002200230A4C226840F666
:10169000FE748440A243D1E900452C438D682C435D
:1016A000CD6844EA050303FA00F42243014C2260AA
:1016B00030BD00000074004008B500220092054AC9
:1016C000009200F10802009B1A440092009A1160F7
:1016D00008BD00000074004008B500220092054AD1
:1016E000009200F11402009B1A440092009A1160CB
:1016F00008BD00000074004010B541B1084A1268EE
:1017000004090123A3401A43054B1A6007E0044A69
:10171000126804090123A3409A43014B1A6010BDCB
:101720000474004070B506460C4604F08000802822
:1017300008D104F07F0000EB800106F58E7000EB0D
:10174000C10507E004F07F0000EB800106F55D7045
:1017500000EBC10504F07F00287004F08000C00990
:1017600068702946304608F03AFB002070BD70B51D
:1017700006460C4604F08000802808D104F07F0063
:1017800000EB800106F58E7000EBC10505E004EB6F
:10179000840106F55D7000EBC1050020A87004F01F
:1017A0007F002870C4F3C01068702946304608F0E6
:1017B000EEFA002070BD2DE9F04106460D46904638
:1017C0001F4605F08000802808D105F07F0000EB5F
:1017D000800106F58E7000EBC10407E005F07F0084
:1017E00000EB800106F55D7000EBC10405F07F00A1
:1017F000207005F08000C0096070C4F80880E770B0
:10180000607808B12078E080022F01D1002020719B
:101810002146304608F06FFA0020BDE8F0812DE93E
:10182000F04105460E461746984606F07F0000EB4D
:10183000800105F55D7000EBC104E760C4F8148019
:101840000020A061607006F07F002070E878012819
:1018500000D12761207820B92146284608F06FF989
:1018600003E02146284608F039FB0020BDE8F0815E
:1018700008B500220092009A61F30A1200920269F0
:101880001268009B1A4303691A6008BD70B50646CA
:101890000C4604F08000802808D104F07F0000EBA3
:1018A000800106F58E7000EBC10505E004EB8401B4
:1018B00006F55D7000EBC1050120A87004F07F0003
:1018C0002870C4F3C01068702946304608F0D4FA76
:1018D000002070BD2DE9F04107460D46164698469A
:1018E00005F07F0000EB800107F58E7000EBC1046E
:1018F0000120607005F07F002070E6602661002006
:10190000A061C4F81480207820B92146384608F038
:1019100016F903E02146384608F0E0FA0020BDE859
:10192000F081000030B587B00546594C284608F0D4
:10193000CCF801A806F06EFA029CE868C068059031
:10194000059820F4705005900598E968C86028460D
:1019500008F096FC03280BD10020A8704FF400700B
:10196000A880059820F4705000F5105005907EE096
:101970000120A8704020A8804648844209D34648E8
:10198000844206D2059820F4705000F5605005900E
:101990006DE04148844209D34048844206D205980C
:1019A00020F4705000F55050059060E03B488442B0
:1019B00009D33B48844206D2059820F4705000F5C4
:1019C0004050059053E03648844209D3354884425C
:1019D00006D2059820F4705000F53050059046E08E
:1019E0003048844209D33048844206D2059820F416
:1019F000705000F52050059039E02B48844209D3FF
:101A00002A48844206D2059820F4705000F5105000
:101A100005902CE02548844209D32548844206D20B
:101A2000059820F4705000F5005005901FE0204804
:101A3000844209D31F48844206D2059820F470508E
:101A400000F5E050059012E01A48844209D31A4884
:101A5000844206D2059820F4705000F5C0500590DD
:101A600005E0059820F4705000F5A0500590059809
:101A7000E968C86000200690069820F4005000F540
:101A8000005006900698E9684861012007B030BD13
:101A9000007A030AC0E1E4000024F400E0EC040151
:101AA00000C31801002D310140A44C0100366E0125
:101AB00040E2950180C3C90160600B02F8B505469C
:101AC000002400200090284608F01BFC064681E018
:101AD00006F0010000287BD0E1B2284600F00CFBA4
:101AE0000090009800F0010030B3012000FA04F7E4
:101AF0002869406BB843296948630020009000982A
:101B000020F00100401C009005F1180050F824005E
:101B100000998160E1B232480068426828469047E7
:101B2000E878012808D13CB940F21110405D042842
:101B300002D1284608F0AEF80098C0F3C00060B1AA
:101B400000200090009820F008000830009005F177
:101B5000180050F82400009981600098C0F300102C
:101B600060B100200090009820F01000103000902C
:101B700005F1180050F82400009981600098C0F326
:101B8000801060B100200090009820F040004030AC
:101B9000009005F1180050F8240000998160009829
:101BA000C0F3400060B100200090009820F00200D7
:101BB000801C009005F1180050F824000099816005
:101BC0000098C0F3C01018B12146284600F0BEFAB4
:101BD000641C7608002E7FF47BAF0120F8BD000066
:101BE0000C0200207CB50446002500200190204610
:101BF00008F08FFB06466FE006F00100002869D070
:101C0000E9B2204608F08DFB0190019800F0010038
:101C1000C8B300200190019820F00100401C019001
:101C200004F1540050F8250001998160E078012802
:101C300017D104F1540050F825000069009005EB1D
:101C4000850104F55D7000EBC10080680099C1F367
:101C50001201411A05EB850204F55D7000EBC2002C
:101C60008161E9B21E480068026820469047E0782A
:101C7000012808D13DB940F21110005D052802D1BC
:101C8000204608F007F80198C0F3400060B100203A
:101C90000190019820F00200801C019004F1540092
:101CA00050F82500019981600198C0F3C00088B107
:101CB0000B48006881682046884700200190019801
:101CC00020F008000830019004F1540050F825007D
:101CD000019981606D1C7608002E8DD101207CBD9C
:101CE0000C0200203EB50446A07A78B1D4F80C016D
:101CF00000680090009820F002000090009820F00A
:101D0000010000900099D4F80C01016000200190BE
:101D1000019820F00100401C019020694068019961
:101D200088432169486009480068816920468847DE
:101D300000200290029820F0004000F10040029044
:101D40000298E168486101203EBD00000C020020BD
:101D50007CB5044600200190019820F0100010305E
:101D60000190E068806901998843E1688861E068D2
:101D7000006A0090009800F00F0000EB800104F56D
:101D80005D7000EBC1050098C0F3434007282DD2D9
:101D9000DFE800F02C04051D1E2C1F0027E0009832
:101DA000C0F30A1090B10098C0F30A122046E96807
:101DB00008F0C1FAE8680099C1F30A110844E86024
:101DC000A8690099C1F30A110844A8610FE00EE068
:101DD0000DE0082204F2CC51204608F0ACFAA869C4
:101DE0000099C1F30A110844A86100E000BF00BFD8
:101DF000E068806901990843E168886101207CBD41
:101E000038B5044608480068C16820468847002065
:101E10000090009820F00800083000900098E168D9
:101E20004861012038BD00000C0200201FB50446A7
:101E3000002000904FF48970005D009023480068F6
:101E400041692046884720698068019000200390FE
:101E5000039820F4006000F5006003900398E168A7
:101E60004861A07A70B3019800F0010050B340F2CD
:101E70001510005D012825D19DF80000032821D10F
:101E800000200290029820F00100401C0290D4F83B
:101E90000C01006802990843D4F80C1108600298FC
:101EA00020F00200801C0290D4F80C010068029916
:101EB0000843D4F80C1108600548006840F006009B
:101EC00003490860012004B010BD00000C0200208E
:101ED00010ED00E030B587B0044600200290069077
:101EE0000590049003900190029820F00100401C9E
:101EF0000290206940680299884321694860002166
:101F0000204608F093F900250BE0FF2104F11800AA
:101F100050F82500816004F1540050F825008160DC
:101F20006D1C6078A842F0D84FF0FF3120698161C4
:101F300006986FF30F00401C0690069880B200F5DB
:101F40008030069006992069C161059820F008004C
:101F500008300590059820F00100401C0590059878
:101F600020F00200801C05900599206941610498C9
:101F700020F00100401C0490049820F00800083074
:101F80000490049820F00200801C049004992069B9
:101F90000161206900680390039820F4FE600390BB
:101FA000039920690160204607F074FE002001902B
:101FB000019820F4805000F5805001900198E1686C
:101FC000486104480068016920468847012007B03D
:101FD00030BD00000C0200202DE9F04106460F46FE
:101FE0003946304608F0BCF901214FF4897081551B
:101FF0000021801C8155002511E005EB850106F5C7
:102000008E7000EBC104012060702570E580002017
:10201000E0704020A0600020E06060616D1C70787E
:10202000A842EAD8002510E005EB850106F55D70B1
:1020300000EBC104002060702570E580E070402056
:10204000A0600020E06060616D1C7078A842EBD851
:10205000304607F029FD304607F059FB0021304695
:1020600008F0E6F9304607F0DFFB304608F0A7F845
:10207000BDE8F08138B504460020009007480068AC
:10208000C16920468847009820F4801000F5801030
:1020900000900098E1684861012038BD0C020020E2
:1020A00038B504460020009007480068016A2046C1
:1020B0008847009820F4001000F500100090009868
:1020C000E1684861012038BD0C02002038B50446A3
:1020D000E068406800900098C0F3800020B1054897
:1020E0000068816A204688470098E16848600120BE
:1020F00038BD00000C02002030B5024615692B697E
:1021000015696C6B24FA01F505F0010543EAC51366
:1021100002F1180555F82150AD6805EA030030BDFD
:1021200038B5044608480068416A204688470020C0
:102130000090009820F0804000F1804000900098CE
:10214000E1684861012038BD0C0200202DE9F84308
:1021500006460F4600250020009007EB870106F594
:102160008E7000EBC104D4E90501451AA068A842AD
:1021700000D2A568E81C4FEA900806F1180050F854
:1021800027008069009029E0D4E90501451AA0687C
:10219000A84200D2A568E81C4FEA9008ABB2FAB298
:1021A0003046E16808F06BF9E0682844E060A06917
:1021B0002844A06106F1180050F8270080690090BB
:1021C000D4E90501884209D12178012000FA01F9FA
:1021D0003069406B20EA090031694863009880B299
:1021E000404506D9D4E90510884202D2606900282A
:1021F000CAD10120BDE8F88310B501F08FF900F0D5
:102200002DFA01F0A1F910BD10B501F087F900F029
:1022100025FA01F099F910BD0246094B9A4201D204
:10222000084801E00648103801F000531BB1064B86
:102230000B40C36002E0044B0B408360704700001A
:1022400010640240006002407D0F7D0F0246094B82
:102250009A4201D2084801E00648103801F00053C4
:102260001BB1064B0B40C36002E0044B0B40836084
:102270007047000010640240006002407D0F7D0F37
:1022800021B1026842F00102026003E0026822F01C
:102290000102026070470146486880B27047000042
:1022A00070B50246002000240025124EB24201D231
:1022B000114B01E00F4B103B104E0E4036B11E2665
:1022C00006EAD124166806EA040502E0566906F01B
:1022D000800501F000560EB15C6800E01C68084EF5
:1022E000344004EA010616B10DB1012000E00020DF
:1022F00070BD000010640240006002403C0F3C0FC3
:102300007D0F7D0F10B501F080034BB122B1436901
:1023100043F08003436103E0436923F0800343619A
:1023200080290BD02AB1036801F01E042343036007
:1023300004E0036801F01E04A343036010BD000025
:1023400010B500220268134B1A40CC680B68234377
:102350004C6923438C692343CC6923430C6A234390
:102360004C6A23438C6A23434C6B23438C6B23437B
:102370001A430260426922F00702D1E90B34234379
:102380001A4342610B6943604B6883608B68C3608A
:1023900010BD00003F801CF04160704770B50446DE
:1023A0000D464FF48041224800F03CFA49F2010109
:1023B000204805F03EFE4FF47A6000F009F94FF432
:1023C00080411B4800F030FA4FF4FA6000F000F949
:1023D0004FF48041164800F025FA4FF4805040EA4F
:1023E0000511144805F025FE4FF47A6000F0F0F86E
:1023F0004FF480410E4800F017FA4FF4FA6000F0F5
:10240000E7F84FF480410A4800F00CFA4FF400401E
:1024100040EA0411074805F00CFE4FF47A6000F022
:10242000D7F84FF48041024800F0FEF970BD00007B
:1024300000040240003C004070B504460D464FF4D5
:102440000051224800F0EEF949F20101204805F060
:10245000F0FD4FF47A6000F0BBF84FF400511B48D8
:1024600000F0E2F94FF4FA6000F0B2F84FF40051D6
:10247000164800F0D7F94FF4805040EA051114488F
:1024800005F0D7FD4FF47A6000F0A2F84FF4005148
:102490000E4800F0C9F94FF4FA6000F099F84FF4D3
:1024A00000510A4800F0BEF94FF4004040EA041120
:1024B000074805F0BEFD4FF47A6000F089F84FF44C
:1024C0000051024800F0B0F970BD00000004024065
:1024D000003C00401FB504460121480705F07AFC86
:1024E0003C20009000200190029002200390694659
:1024F0002046FFF7C7F801212046FFF7AFF81FBDC0
:102500007047000000B587B04FF4E1312C4807F068
:10251000D7FF002240F22551294806F05FF900223A
:1025200040F22771264806F059F9012240F2244171
:10253000234806F053F901224021214806F01BF9F7
:10254000012280211E4806F016F94FF440304FF466
:10255000807100220292CDE9032105906420CDE92B
:1025600000201848164A121DC9040368164800F0D6
:1025700035F84FF440304FF4807100220292CDE9DB
:102580000321059064204021CDE900100F480C4A3A
:10259000121D490503680C48303000F01FF8012176
:1025A0000948FFF76DFE002107483030FFF768FE4D
:1025B0000122102104483030FFF7A4FE07B000BD0F
:1025C000004C004080000020406002408800002055
:1025D00000BF411E89B2081EFBD170472DE9F04FA4
:1025E0008FB004460D4616461F46DDE91AABDDE9FD
:1025F00018891948844204D20121480505F0CAFB14
:1026000003E00121880505F0C5FB009501960297BE
:10261000CDF80C80CDF81090002005904FF480602C
:102620000690CDF81CA0CDF820B01C9809901D98FC
:102630000A9000200B9003200C9000200D900E902B
:1026400069462046FFF77CFE00212046FFF718FE72
:102650000FB0BDE8F08F00000064024010B51349D0
:102660001348FFF71DFE58B100211148FFF708FE7F
:1026700064210F48FFF790FE0C490D48FFF7E6FD77
:102680000A490B483030FFF70BFE70B100210848B3
:102690003030FFF7F5FD642105483030FFF77CFE50
:1026A000024903483030FFF7D1FD10BD20800020E3
:1026B000706002407047000010B500221E49497842
:1026C0001D4B9B7819441C4BDB7819441A4B19722B
:1026D00000BF09E01849097A174B5B689B5C1944F5
:1026E000154B1972511CCAB21349C9789142F1DCD9
:1026F0001149097801701049497841700E4989786B
:1027000081700D49C978C170002105E00A4B5B68F2
:102710005C5C0B1DC454491C074BDB788B42F5DC19
:1027200005490B7AC978091D435403494B7AC97886
:10273000491D435410BD000024000020F0B50A4696
:1027400000210023002400BF3DE0012505FA01F32C
:10275000156805EA03049C4234D105684F0003263E
:10276000BE40B543056015794E00B5400668354357
:1027700005601579012D02D01579022D16D18568D5
:102780004F000326BE40B543856055794E00B540E5
:10279000866835438560456801268E40B5434560AF
:1027A000456896798E40B6B235434560C5684F009E
:1027B0000326BE40B543C560D5794E00B540C66816
:1027C0003543C560491C1029BFD3F0BDF0B50023C7
:1027D00000244D07ED0E02FA05F3CE1000F120059E
:1027E00055F826504E07F70E0F26BE40B543CF10C2
:1027F00000F1200646F82750CE1000F1200555F8CC
:10280000265045EA0304CE1000F1200545F8264085
:10281000F0BD0246002013690B400BB1012000E01F
:1028200000207047418370470183704742694A40E6
:102830004261704710B519484068407817494968A7
:10284000097840EA01201649888014484068C07819
:1028500012494968897840EA01201149C8800F4827
:10286000406840790D494968097940EA01200C49DE
:1028700008810A484068C07908494968897940EA6E
:1028800001200749488101204870FEF7ABFDFEF7A3
:1028900007F901200249C87010BD0000180000208F
:1028A000081C002010B5194840684078174949684D
:1028B000097840EA01201649888014484068C078A9
:1028C00012494968897840EA01201149C8800F48B7
:1028D000406840790D494968097940EA01200C496E
:1028E00008810A484068C07908494968897940EAFE
:1028F00001200749488101200870FEF773FDFEF7AB
:102900001FF901200249887010BD00001800002046
:10291000081C00200121024880F84E10704700007A
:10292000081C00200121024880F850107047000068
:10293000081C00200121024880F84D10704700005B
:10294000081C002070B50A480468001D0568001DB9
:102950000668344454B108220649204600F0CEFBF4
:10296000042204491031284600F0C8FB70BD000065
:10297000107AFF1F0E0100200121024880F84F103D
:1029800070470000081C002008B501217F2005F0D9
:1029900001FA0121080705F01DFA012005F0C0F930
:1029A000002005F0ABFA002005F0BAF9082200215A
:1029B000FE48FFF70BFF08220121FC48FFF706FF46
:1029C00000200346022201210090F84800F0D0FACE
:1029D00000200346022211460090F44800F0C8FA95
:1029E00000200346032204210090F04800F0C0FAC2
:1029F00000200346032208210090EC4800F0B8FABA
:102A000002200023032210210090E84800F0B0FAD1
:102A100002200023032220210090E44800F0A8FABD
:102A200000200346012211020090E04800F0A0FAC5
:102A300000200346012291020090DC4800F098FA41
:102A40004FF48061D948FFF7EDFE012000230246D4
:102A500001460090D64800F08BFA01200023024680
:102A600040210090D24800F083FA0120034602463C
:102A700080210090CE4800F07BFA0120002302461E
:102A800001020090CA4800F073FA012000230246B8
:102A900041020090C64800F06BFA01200023024674
:102AA00041030090C24800F063FA0120002302466F
:102AB00081030090BE4800F05BFA00200346032229
:102AC00001210090BB4800F053FA00200346032286
:102AD00002210090B74800F04BFA00200346032281
:102AE00004210090B34800F043FA0020034603227B
:102AF00008210090AF4800F03BFA00200346032273
:102B000020210090AB4800F033FA00200346012258
:102B100051020090A74800F02BFA06220A21A5488E
:102B2000FFF754FE01200023022281020090A148F9
:102B300000F01EFA06220B219E48FFF747FE0120F7
:102B400000230222C10200909A4800F011FA0622E6
:102B50000C219848FFF73AFE0120002302220103CE
:102B60000090944800F004FA00200346012251032B
:102B70000090904800F0FCF94FF400518D48FFF7A9
:102B800053FE00200346012291030090894800F083
:102B9000EFF94FF480418748FFF746FE00200346D7
:102BA0000122D1030090834800F0E2F9002003469F
:102BB000012202210090804800F0DAF9002003464B
:102BC0000122042100907C4800F0D2F904217A48C7
:102BD000FFF72AFE002003460122082100907648D4
:102BE00000F0C6F908217448FFF71EFE00200346D6
:102BF000012210210090704800F0BAF910216E48AF
:102C0000FFF712FE072205216B48FFF7DFFD0722C1
:102C100006216948FFF7DAFD002003460222202141
:102C20000090654800F0A4F90020034602224021EC
:102C30000090614800F09CF90020034601228021A9
:102C400000905D4800F094F980215B48FFF7ECFDAF
:102C500000200346012211020090574800F088F935
:102C60004FF480715448FFF7DFFD00200346012236
:102C700051020090504800F07BF94FF400714E482B
:102C8000FFF7D2FD002003460122910200904A483E
:102C900000F06EF9002003460122D1020090464860
:102CA00000F066F90020034601221103009042481B
:102CB00000F05EF94FF480513F48FFF7B5FD00206A
:102CC00003460122510300903B4800F051F90020D7
:102CD0000346012291030090374800F049F9002093
:102CE000034602464FF400410090334800F040F99B
:102CF00000200346024601210090304800F038F9D8
:102D0000022000231A46014600902C4800F030F9BA
:102D100000200346012204210090284800F028F9F1
:102D200000200346024608210090244800F020F9C4
:102D300000200346024610210090204800F018F9B8
:102D4000002003460246202100901C4800F010F9A4
:102D500000200346012211020090184800F008F9F3
:102D60000020034602464FF400710090134800F023
:102D7000FFF8002003460122910200900F4800F066
:102D8000F7F84FF480610D48FFF74EFD0020034631
:102D90000122D1020090094800F0EAF80020034621
:102DA00002464FF480510090044809E000000240C0
:102DB0000004024000080240000C024000100240E3
:102DC00000F0D6F80020034602464FF40051009070
:102DD000644800F0CDF80020034601220221009053
:102DE000614800F0C5F8002003460122114600901A
:102DF0005D4800F0BDF80020034601220421009048
:102E0000594800F0B5F8002003460322082100903D
:102E1000554800F0ADF80020034603221021009031
:102E2000514800F0A5F8002003460322202100901D
:102E30004D4800F09DF800200346032240210090F9
:102E4000494800F095F800200346032280210090B5
:102E5000454800F08DF80020034603224FF48071AE
:102E60000090414800F084F80020034603224FF40C
:102E7000007100903C4800F07BF8002003460322DC
:102E80004FF480610090384800F072F8002003464B
:102E90000122D1020090344800F06AF80020034675
:102EA000012211030090304800F062F80020034630
:102EB0000122510300902C4800F05AF800200346EC
:102EC000012291030090284800F052F800200346A8
:102ED0000122D1030090244800F04AF80020034664
:102EE000012211460090214800F042F800200346DC
:102EF0000122022100901D4800F03AF8002003460C
:102F0000012204210090194800F032F80020034605
:102F1000012208210090154800F02AF800200346FD
:102F2000012210210090114800F022F800200346F1
:102F30000122910300900D4800F01AF84FF48041EF
:102F40000A48FFF771FC002003460122D1030090DC
:102F5000064800F00DF84FF400410448FFF764FC08
:102F600008BD00000010024000140240001802409A
:102F70002DE9FC4106460C4615469846089F0094EC
:102F80008DF8045003208DF8050000208DF8060010
:102F900001208DF8070069463046FFF7CFFBBDE8FA
:102FA000FC81000070B506463048007800285BD1EF
:102FB0002F480068B0F5006F02D100202C4908604E
:102FC0002B4800682B490968884203D10020274913
:102FD000087070BD2648006826490968884206D9ED
:102FE00023480068C0F500602349086006E02148D6
:102FF00000681F490968401A1F4908601E48006898
:10300000402811D91A48008885B240241848006821
:103010004030174908601848006840381649086071
:1030200001201249087018E01148008885B2124842
:10303000008884B20E4800680F49096808440C49AA
:10304000086000200C490860402C03D10220074989
:10305000087002E00120054908700848421923461B
:1030600081213046FEF736FC00BFB2E75C0100204C
:103070005401002050010020580100201E2700208C
:1030800000BFFEE700B587B0FDF7DAFA4FF4403035
:103090004FF480714A01CB00CDE90232CDE9041032
:1030A000282000210D4B0E4ACDE900100D48FFF7F6
:1030B00095FA01210B48FFF7E3F8012108484C3845
:1030C000FDF711FA012106484C38FDF701FA0448D2
:1030D0004C38FDF799FA07B000BD00004C250020E0
:1030E0004C2001401064024001200349C870F120C7
:1030F00049680870704700002400002030B50B4676
:10310000002100BF16E00A24B4EB107F05D930245B
:1031100004EB107403F8114005E0412404EB107433
:103120000A3C03F81140000100254C00641C1D55A9
:103130004C1CE1B29142E6DB30BD00BFFEE730B58A
:1031400005460C4622460021284600F001F830BD15
:103150002DE9F04105460B4694460027002402E085
:103160003F021F43641C042CFAD3604605F003069B
:10317000294646B1344603E001F8013B401E641C79
:1031800008B1042CF8D30A4601E080C2001F0428CD
:10319000FBD2114602E001F8013B401E0028FAD1A3
:1031A000BDE8F0817047000070B5002100230F22B8
:1031B000C4781CB3174C246804F4E064C4F5E064DC
:1031C000C4F30721C1F10404E3B20A4144789C40EE
:1031D000E1B28478144021430C07210E0E4C05788F
:1031E0006155047804F01F050124AC4005786D1189
:1031F000AD0005F1E025C5F8004109E0047804F0D0
:103200001F050124AC40054D0678761145F826408F
:1032100070BD00000CED00E000E400E080E100E0A3
:1032200002490143024A1160704700000000FA059C
:103230000CED00E0024A0A400243024B1A6070475C
:1032400080FFFF1F08ED00E070B52DED088B0446F0
:10325000204607F047FF41EC1B0B9FED0F0B53EC93
:10326000102B07F053FF41EC1A0B9FED0D0B53ECA5
:10327000102B07F06BFD41EC190B9FED0B0B53EC82
:10328000102B08F041F841EC180B07F0E7FE85B26F
:103290002846BDEC088B70BD3333333333333D40A8
:1032A00000000000000059400000000000E07340F2
:1032B00008B54FF4E060FFF7B3FF34208DF800004D
:1032C00000208DF8010001208DF802008DF8030028
:1032D0006846FFF769FF0F208DF8000000208DF889
:1032E000010002208DF8020001208DF803006846DD
:1032F000FFF75AFF26208DF8000000208DF801000E
:1033000003208DF8020001208DF803006846FFF7C6
:103310004BFF11208DF8000000208DF801000420E3
:103320008DF8020001208DF803006846FFF73CFF8E
:103330001C208DF8000000208DF8010005208DF87C
:10334000020001208DF803006846FFF72DFF08BD3D
:103350007047000010B50348006810B101480068CC
:10336000804710BD3802002070B5044600F0C2F856
:103370000020484908704849087048490870484981
:103380000860484908604849087048490870484939
:103390000870484908604849086048490860484939
:1033A0000870484800680A21B0FBF1F046490860FF
:1033B0004648006858B14648056845B14348066824
:1033C00003E0761E002028602D1D002EF9D100207C
:1033D0004049086040490860404908604049086029
:1033E0004049086040490860404908604049087009
:1033F00002F0F2FD02F0D2FE204601F03DFF2088EF
:1034000000B170BD204602F01DFB208800B1F8E736
:10341000204602F023FB208800B1F2E7204602F0AC
:103420001FFC208800B1ECE7204602F005FE208852
:1034300000B1E6E7204603F025F8208800B1E0E778
:10344000204603F03FFB208800B1DAE7204602F077
:1034500065FA208800B1D4E7204602F07FF8208882
:1034600000B1CEE7204604F0BDFA208800B1C8E7DD
:10347000204603F071FA208800B1C2E7204604F02C
:1034800029FB208800B1BCE701F020FEFFF760FFB8
:1034900000BFB6E74C0200204D020020940200203D
:1034A00004030020080300207A0200207B02002091
:1034B0007C020020880200208C0200209002002064
:1034C0009C02002060B500089802002030B500087A
:1034D0002CB500082C02002030020020340200200D
:1034E000380200203C02002040020020440200205C
:1034F000CA020020064800680649096800EB8100FE
:10350000054908600846006820F007000860704719
:103510002CB5000830B500080C03002008480078DE
:10352000012800D0704707480078FA2800DBF9E747
:1035300004480078401C0349087000BFF2E700000F
:103540004D0200204C02002010B500242D480078C8
:10355000012800D010BD00BFFCF7AAFE044600BF42
:103560002948007828B900BF2046FCF7A5FE00BF17
:10357000F0E725480078401E234908700846007887
:10358000002805DD00BF2046FCF796FE00BFE1E7FE
:103590001E480078002805DD00BF2046FCF78CFEA1
:1035A00000BFD7E702F004FD19490870084600780B
:1035B00000EB4000174951F8200017490860084601
:1035C000006816490968884205D100BF2046FCF70B
:1035D00073FE00BFBEE710480068D0F88C00401CA6
:1035E0000D490968C1F88C000D480068401C0C4961
:1035F0000860FCF709FF00BF2046FCF75DFE00BF36
:1036000000BFA7E74D0200204C02002094020020DA
:103610007B0200203C44002008030020040300201B
:10362000C00200202DE9F04104460E461546002751
:1036300029480078002804DD42F6E1602880BDE8D2
:10364000F0811CB945F6C3502880F8E700BF00BFE1
:1036500000BFFCF72DFE074600BF00BF1F480078E3
:10366000401C1E49087000BF00BF3846FCF724FE0E
:1036700000BF00BF00BF1A482060666000202062C3
:1036800084F82500A062402084F8240004F108009A
:1036900002F09DFB204602F0CBFA12480088401C45
:1036A0001049088000BF00BF00BFFCF701FE0746BD
:1036B00000BF00BF09480078401E0849087000BFDD
:1036C00000BF3846FCF7F8FD00BF00BF00BF002078
:1036D000288000BFB3E700004C02002094020020C5
:1036E0004D555458780200202DE9F04788B0054622
:1036F000894690461C46109E4FF0000AAB48007861
:10370000002805DD46F2AE10308008B0BDE8F08735
:103710001DB945F6C3503080F7E7B8F1000F03D06C
:10372000B8F5004F02D100E000BF03E045F6256088
:103730003080EAE700BF9E492868884203D045F6FA
:10374000C4503080E1E70CB10020206000BF00BF12
:10375000FCF7AEFD824600BF00BF95F82500C0B95A
:103760009448006828629348006890F8370085F80C
:103770002400012085F825000CB1A86A206000BF54
:1037800000BF5046FCF798FD00BF00BF002030800E
:10379000BBE78849286A0968884212D195F8250054
:1037A000401C85F825000CB1A86A206000BF00BF4E
:1037B0005046FCF781FD00BF00BF45F282703080AB
:1037C000A3E708F4004050B100BF00BF5046FCF72B
:1037D00073FD00BF00BF46F2B010308095E7764819
:1037E000007800280ADD00BF00BF5046FCF764FDEA
:1037F00000BF00BF46F66350308086E700BF6E48CA
:103800000078401C6C49087000BF00BF5046FCF7B0
:1038100053FD00BF00BF00BF2F6A97F8370065490E
:10382000096891F83710884260DD97F8360008285B
:103830002AD2DFE800F004151E1F17162021384693
:1038400002F034FD5B48006890F8370087F83700D5
:1038500097F8370002F0CCFB384602F0C7FC44E092
:1038600000BF00BF5348006890F8370087F8370062
:103870003BE000BF00BF00BF4E48006890F8371023
:10388000384602F081FA30E000BF00BF00BFFCF70D
:103890000FFD824600BF00BF47480078401E4649E2
:1038A000087008460078A0B944480088002809DD5F
:1038B00000BF00BF5046FCF7FFFC00BF00BF02F096
:1038C00023FD0DE000BF00BF5046FCF7F5FC00BF34
:1038D00006E000BF00BF5046FCF7EEFC00BF00BF93
:1038E00000BF46F62D6030800FE700BF4B46042234
:1038F0002946684602F0C0F900BF00BF00BFFCF7D0
:10390000D7FC824600BF00BF2B480078401E2A49E2
:10391000087000BF00BF5046FCF7CEFC00BF00BFE0
:1039200000BF00F073F900BF00BFFCF7C1FC824686
:1039300000BF00BF1F48006890F8350030B1012873
:103940000CD002281AD0032821D110E01CB119484C
:103950000068006C2060002030801CE01CB115481D
:103960000068006C206046F2A910308013E00CB1B2
:103970000020206047F2D92030800CE01CB10D48B7
:103980000068006C206045F6C250308003E046F6C7
:103990002E60308000BF00BF00BF00BF5046FCF764
:1039A0008BFC00BF00BF00BFAFE600004C02002050
:1039B0004D55545804030020940200205802002062
:1039C0002DE9F84F0446884615464FF0000A89480D
:1039D0000078002804DD46F20E202880BDE8F88F2C
:1039E0001CB945F6C3502880F8E7B8F1000F03D0A2
:1039F000B8F5004F02D100E000BF03E045F62560B6
:103A00002880EBE700BF7C492068884203D045F658
:103A1000C4502880E2E700BF00BFFCF749FC8246A3
:103A200000BF00BF7549206A096888420AD000BFFC
:103A300000BF5046FCF740FC00BF00BF45F281705C
:103A40002880CBE700BF6E480078401C6C490870A6
:103A500000BF00BF5046FCF72FFC00BF00BF00BFF7
:103A6000FDF7BAFC0746A76294F82500401E84F8CB
:103A7000250094F82500002830DD00BF00BF00BFFE
:103A8000FCF716FC824600BF00BF5D480078401E70
:103A90005B49087008460078A0B95A480088002899
:103AA00009DD00BF00BF5046FCF706FC00BF00BFA9
:103AB00002F02AFC0DE000BF00BF5046FCF7FCFB03
:103AC00000BF06E000BF00BF5046FCF7F5FB00BF9B
:103AD00000BF00BF45F2837028807FE704F108092A
:103AE000B9F8080098BB0020206284F8250000BFC8
:103AF00000BF00BFFCF7DCFB824600BF00BF4048B0
:103B00000078401E3E49087008460078A0B93D483C
:103B10000088002809DD00BF00BF5046FCF7CCFB41
:103B200000BF00BF02F0F0FB0DE000BF00BF504639
:103B3000FCF7C2FB00BF06E000BF00BF5046FCF729
:103B4000BBFB00BF00BF00BF0020288046E7FFE7A7
:103B50002A48006890F8370094F82410884219D059
:103B60002648006802F0A2FB94F824002349096863
:103B700081F837002149096891F8370002F038FAD6
:103B80001E48006802F052FB1C48006890F837009D
:103B90001D490870D9F800008668266296F837003B
:103BA00084F82400012084F8250000231A463146B9
:103BB0002046009702F07CF900BF00BF00BFFCF771
:103BC00077FB824600BF00BF0D480078401E0C49BD
:103BD000087000BF00BF5046FCF76EFB00BF00BF7F
:103BE00000BF08F4004008B900F010F80020288059
:103BF00000BFF3E64C0200204D555458040300204A
:103C000094020020580200207A02002010B50024FF
:103C10001F480078002800DD10BD1E4800780028ED
:103C200000DDF9E700BFFCF743FB044600BF02F0EC
:103C3000BFF9194908700846007800EB40001749A1
:103C400051F82000164908600846006815490968BF
:103C5000884205D100BF2046FCF72EFB00BFDBE702
:103C60000F480068D0F88C00401C0D490968C1F865
:103C70008C000D480068401C0B490860FCF7BFFB36
:103C800000BF2046FCF718FB00BF00BFC4E70000E0
:103C90004C020020940200207B0200203C440020C3
:103CA0000803002004030020C002002070B5044671
:103CB000002518480078002803DD46F66250208071
:103CC00070BD15480078012803D045F68960208032
:103CD000F6E712480078FA2803DB45F20920208035
:103CE000EEE700BF00BFFCF7E3FA054600BF00BFE8
:103CF0000A480078401C0949087002F02FFB00BFF9
:103D000000BF2846FCF7D8FA00BF00BF0020208083
:103D100000BFD5E74C0200204D0200209402002095
:103D20002DE9F04105460C461646002700BF00BFAE
:103D3000FCF7BEFA074600BF00BF012D03D00020EC
:103D40000D49087002E001200B49087014B10B48BE
:103D5000046006E00A4800680A21B0FBF1F0074958
:103D6000086000BF00BF3846FCF7A6FA00BF00BFDE
:103D700000203080BDE8F0819C02002098020020E5
:103D800060B5000870B5044600252048007800287A
:103D900003DD46F66550208070BD1D48007801287F
:103DA00003D045F689602080F6E71A48007818B9F4
:103DB00046F664502080EFE700BF00BFFCF778FABA
:103DC000054600BF00BF13480078401E1149087027
:103DD0000846007800280ADD00BF00BF2846FCF72F
:103DE0006BFA00BF00BF46F663502080D4E702F0B4
:103DF000C3FA00BF00BF2846FCF75EFA00BF00BF51
:103E0000FFF704FF0020208000BFC5E74C02002020
:103E10004D0200209402002010B50446124800789C
:103E2000E8B902F0C5F81149087008460078104951
:103E300008700E48007800EB40000E4951F8200051
:103E40000D490860084600680C49086001200649D1
:103E50000870FCF7C3FA43F69920208002E045F68B
:103E60008A60208010BD00004D0200207B020020EF
:103E70007A0200203C4400200803002004030020B4
:103E80002DE9F04107464FF0000800BF00BFFCF7E6
:103E90000FFA804600BF00BF00203D4908603D4941
:103EA00008803D4908803D4908603D4908603D491A
:103EB00008603D4908603D49088100BF00BF404699
:103EC000FCF7FAF900BF00BF00BF00BFFCF7F0F934
:103ED000804600BF00BF3648046800BF00BF4046B0
:103EE000FCF7EAF900BF00BF21E000BF00BFFCF70C
:103EF000DFF9804600BF00BF00207434E06320601B
:103F00002063A061A082E0826062A062FDF764FA93
:103F10002062743C04F160060020B081D4F8B840FF
:103F200000BF00BF4046FCF7C7F900BF00BF002C30
:103F3000DBD100BF00BFFCF7BBF9804600BF00BF6C
:103F40001C48056800BF00BF4046FCF7B5F900BF3C
:103F500000BF12E000BF00BFFCF7AAF9804600BF17
:103F600000BF05F120060020B081AD6900BF00BF91
:103F70004046FCF7A1F900BF00BF002DEAD103F0D5
:103F800099FB03F04DFE00203880BDE8F081000071
:103F9000600200205A020020AA020020BC02002079
:103FA000D0020020F40200208C02002030440020C7
:103FB000C402002080020020F8B5044600266946AD
:103FC000324800F08FFDBDF8000018B1BDF80000C8
:103FD0002080F8BD6A460021022000F0F7FDBDF800
:103FE000000018B1BDF800002080F2E700BF00BF5C
:103FF000FCF75EF9064600BF00BF002024490860B8
:1040000000BF00BF3046FCF757F900BF00BF0025D6
:104010002048006820490968884205D91D48006881
:104020001D490968B0FBF1F525B91A4800680A2155
:10403000B0FBF1F56A460021284600F0C7FD69464D
:10404000124800F063FABDF8000018B1BDF8000096
:104050002080BEE700BF00BFFCF72AF9064600BF7C
:1040600000BF00200D490860094800680C4908603D
:1040700001200C49087000BF00BF3046FCF71CF956
:1040800000BF00BF0020208000BFA2E7E84800205A
:10409000AC02002060B5000848B50008BC02002052
:1040A000B0020020B802002010B50348006810B12B
:1040B00001480068804710BD3C0200202DE9FF4FF9
:1040C00087B004469046DDE91BA5DDE91496179FED
:1040D0000020039087480078002805DD47F24A1049
:1040E00028800BB0BDE8F08F1CB947F2AD102880D6
:1040F000F7E7B8F1000F03D147F24F102880F0E73F
:104100001EB946F62F602880EBE77B48006887429F
:1041100003D246F630602880E3E71698B84203D30E
:1041200046F631602880DCE7B9F1400F03D346F250
:1041300073202880D5E7B9F1000F06D16F4884427B
:1041400003D046F273202880CBE7B9F13F0F06D1A8
:104150006B48844203D046F273202880C1E7204692
:1041600002F0C0FC002028800AF0010090B10AF0A3
:10417000020078B105960020069008E0002105981D
:1041800001600598001D05900698401C0690069851
:10419000B842F3D3169806EB80000490CDE9007A7C
:1041A00032464046049B0A9900F06EFB0590C4F825
:1041B00028800A98E0620898206284F83790059871
:1041C00020600498A06019982065199818B94D4886
:1041D0000068606501E0199860651A986060666221
:1041E000A763A4F83CA04FF0000B08E0002104F105
:1041F000780040F82B100BF1010000F0FF0BBBF131
:10420000000FF3D004F16000189901F087FC2046FC
:1042100000F082F800BF00BF00BFFCF749F8039030
:1042200000BF00BF38480078401C3749087000BF05
:1042300000BF0398FCF740F800BF00BF00BF94F830
:10424000370001F0D5FE204601F0F0FF204602F0D5
:10425000FFFB2E480088401C2C4908802C48007821
:1042600001282DD000BF00BF00BFFCF721F803904C
:1042700000BF00BF24480078401E2349087008464C
:104280000078A0B923480088002809DD00BF00BFDE
:104290000398FCF711F800BF00BF02F035F80DE0FD
:1042A00000BF00BF0398FCF707F800BF06E000BF9F
:1042B00000BF0398FCF700F800BF00BF00BF10E785
:1042C00000BF00BF00BFFBF7F3FF039000BF00BFBC
:1042D0000D480078401E0C49087000BF00BF0398CD
:1042E000FBF7EAFF00BF00BF00BFFFF78FFC00BF76
:1042F000F7E600004C0200205CB500087043002087
:10430000B04200209802002094020020C802002041
:104310004D0200205802002010B5044603480068F2
:1043200018B1204601490968884710BD2C020020B9
:1043300070B504460D46002667480078002803DD66
:1043400047F24E10288070BD6448844203D147F282
:104350004C102880F7E76248844203D147F24D10A1
:104360002880F0E77CB900BF00BFFBF7A1FF06463D
:1043700000BF00BF5B48046800BF00BF3046FBF7CA
:104380009BFF00BF00BF00BF00BF00BFFBF790FF57
:10439000064600BF00BF54480078401C52490870D0
:1043A00000BF00BF3046FBF787FF00BF00BF00BF64
:1043B00094F8360008282DD2DFE800F004090E102A
:1043C000080A0F11204601F071FF54E053E000BFCE
:1043D000204603F043F94EE000BF00BF00BF94F851
:1043E0003400082810D2DFE800F004070508090AA5
:1043F0000B0600BF00BF08E000BF00BF00BF00BF4A
:10440000204601F01CFD00E000BF00BF204603F085
:1044100025F930E000BF00BF00BFFBF749FF0646AB
:1044200000BF00BF30480078401E2F490870084682
:104430000078A0B92D480088002809DD00BF00BF22
:104440003046FBF739FF00BF00BF01F05DFF0DE014
:1044500000BF00BF3046FBF72FFF00BF06E000BFE4
:1044600000BF3046FBF728FF00BF00BF00BF46F685
:104470002D60288067E700BF04F1600001F02CFB8D
:10448000204600F037F8204602F0FAFA1848008873
:10449000401E17490880204602F024FBFF2084F8C4
:1044A000360000BF00BF00BFFBF702FF064600BF9B
:1044B00000BF0D480078401E0B49087000BF00BFC8
:1044C0003046FBF7F9FE00BF00BF00BF0020288088
:1044D000FFF79CFB00BF36E74C020020B0420020F3
:1044E00070430020040300209402002058020020A2
:1044F000C802002010B504460348006818B12046E1
:1045000001490968884710BD300200207FB5044684
:104510000D46002600BF00BFFBF7CAFE064600BFDF
:1045200000BF1CB11548006884420AD100BF00BF1B
:104530003046FBF7C1FE00BF00BF47F2571028808E
:104540007FBD00BF00BF3046FBF7B6FE00BF00BF17
:104550000B48007800280BDD0020009001900346F6
:1045600002462146CDE90205064801F02FF8E7E7AB
:104570002946204602F01AFC00BFE1E704030020B0
:104580004C0200205452455310B5044603480068BD
:1045900018B1204601490968884710BD340200203F
:1045A0002DE9F04780460E4614461D464FF000099F
:1045B0007D480078002805DD46F2AE1028800020F6
:1045C000BDE8F0871EB1B6F5004F02D100E000BF94
:1045D00004E045F6256028800020F1E700BF0CB11B
:1045E0000020206000BF00BFFBF762FE814600BFD5
:1045F00000BF6E480068406CA8B36C480068406C0F
:10460000401E6A490968486468480068476C1CB1E4
:1046100066480068006C2060FCF7DEFE63490968AC
:10462000096C401A61490968C1F8A0005F48006838
:10463000D0F8A4005D490968D1F8A010884207D2DB
:104640005A480068D0F8A00058490968C1F8A40089
:1046500000BF00BF4846FBF72FFE00BF00BF002091
:1046600028803846ACE7FFE706F4004058B100BFA9
:1046700000BF4846FBF720FE00BF00BF46F2B01067
:10468000288000209CE74A48007800280BDD00BF06
:1046900000BF4846FBF710FE00BF00BF46F6635060
:1046A000288000208CE700BF41480078401C40492A
:1046B000087000BF00BF4846FBF7FEFD00BF00BF0B
:1046C00000BF434607220021084601F0D5FA00BF8B
:1046D00000BF00BFFBF7ECFD814600BF00BF3448C0
:1046E0000078401E3249087000BF00BF4846FBF703
:1046F000E3FD00BF00BF00BFFFF788FA00BF00BFA7
:10470000FBF7D6FD814600BF00BF2848006890F83F
:10471000350020B1012826D0032834D12CE0FCB18B
:1047200022480068006C2060FCF756FE1F490968AB
:10473000096C401A1D490968C1F8A0001B480068AF
:10474000D0F8A40019490968D1F8A010884207D20E
:1047500016480068D0F8A00014490968C1F8A40000
:104760000020288013E01CB110480068006C206015
:1047700046F2A91028800AE00CB10020206047F220
:10478000D920288003E046F62E60288000BF00BFB5
:1047900006480068476C00BF00BF4846FBF78CFD29
:1047A00000BF00BF38460BE74C0200200403002086
:1047B000940200202DE9F04705460E4617461C4698
:1047C0004FF0000A2E480078002804DD47F2591007
:1047D0002080BDE8F0871EB946F2D5202080F8E79A
:1047E0001FB946F2D5202080F3E700BF00BFFBF7DA
:1047F0005FFD824600BF00BF0DB9224805682868EA
:1048000068B900BF00BF5046FBF756FD00BF00BFB0
:1048100000203060386047F252102080D9E795F8C8
:104820003C0000F0010068B900BF00BF5046FBF734
:1048300043FD00BF00BF00203060386047F25410D5
:104840002080C6E700BF00BF5046FBF735FD00BF24
:1048500000BF4FF00008D5F8249003E009F10409E7
:1048600008F10108D9F800000028F7D0C6F8008048
:10487000A86BA0EB080038600020208000BFA8E7EC
:104880004C02002004030020F0B50446DDE9055683
:1048900002EB850020F007004FF0000C071F3846A0
:1048A000C7F800C04FF4805C071F3846C7F800C047
:1048B0004FF0150C071F3846C7F800C04FF0140C16
:1048C000071F3846C7F800C04FF0130C071F3846C3
:1048D000C7F800C04FF0120C071F3846C7F800C0D9
:1048E0004FF0110C071F3846C7F800C04FF0100CEE
:1048F000071F3846C7F800C04FF0090C071F38469D
:10490000C7F800C04FF0080C071F3846C7F800C0B2
:104910004FF0070C071F3846C7F800C04FF0060CD1
:10492000071F3846C7F800C04FF0050C071F384670
:10493000C7F800C04FF0040C071F3846C7F800C086
:104940004FF0030C071F3846C7F800C04FF0020CA9
:10495000071F3846C7F800C04FF0010C071F384644
:10496000C7F800C04FF0000C071F3846C7F800C05A
:104970004FF0807C071F3846C7F800C0071F384635
:104980003C60DFF85CC1071F3846C7F800C04FF035
:10499000123C071F3846C7F800C04FF0033C071F02
:1049A0003846C7F800C04FF0023C071F3846C7F82A
:1049B00000C0071F38463B60071F384639604FF07C
:1049C000310C071F3846C7F800C04FF0300C071FE6
:1049D0003846C7F800C04FF0290C071F3846C7F803
:1049E00000C04FF0280C071F3846C7F800C04FF032
:1049F000270C071F3846C7F800C04FF0260C071FCA
:104A00003846C7F800C04FF0250C071F3846C7F8D6
:104A100000C04FF0240C071F3846C7F800C04FF005
:104A2000230C071F3846C7F800C04FF0220C071FA1
:104A30003846C7F800C04FF0210C071F3846C7F8AA
:104A400000C04FF0200C071F3846C7F800C04FF0D9
:104A5000190C071F3846C7F800C04FF0180C071F85
:104A60003846C7F800C04FF0170C071F3846C7F884
:104A700000C04FF0160C071F3846C7F800C04FF0B3
:104A8000113C071F3846C7F800C04FF0103C071F05
:104A90003846C7F800C04FF0093C071F3846C7F832
:104AA00000C04FF0083C071F3846C7F800C04FF061
:104AB000073C071F3846C7F800C04FF0063C071FE9
:104AC0003846C7F800C04FF0053C071F3846C7F806
:104AD00000C04FF0043C071F3846C7F800C0F0BDC7
:104AE000ED6E00087FB505460C461248854203D19D
:104AF00047F25B1020807FBD0F48854203D147F20B
:104B00005C102080F7E70D48007800280BDD0020BE
:104B100000900190034602462946CDE90204084868
:104B200000F054FDE7E72146284602F04DFC00BFA7
:104B3000E1E70000B0420020704300204C0200205A
:104B40005453555310B51D48006810B11B480068F8
:104B50008047FCF741FC0446194800681949096878
:104B6000884215D016480068D0F89400201A1449DD
:104B70000968C1F8900012480068D0F89800104900
:104B80000968D1F8901008440D490968C1F89800E7
:104B90000C480068C0F8944009480068D0F8B0009C
:104BA00009490968884205D207480068044909682C
:104BB000C1F8B00000200449086010BD4002002088
:104BC0000403002008030020900200202DE9F0419A
:104BD00005460E46144600273C480078002804DDB0
:104BE00047F275202080BDE8F08139480078002820
:104BF00003DD46F663502080F5E736B1022E05D07E
:104C0000042E0AD0082E09D101E000BF00BF1DB953
:104C100047F27E202080E6E704E003E045F62560C9
:104C20002080E0E700BF00BF00BF00BFFBF740FBF4
:104C3000074600BF00BF26480078401C2449087082
:104C400000BF00BF3846FBF737FB00BF00BF00BF07
:104C50002346324629461F48006802F0A1FC2088FE
:104C6000A8B100BF00BF00BFFBF722FB074600BF93
:104C700000BF17480078401E1549087000BF00BFEC
:104C80003846FBF719FB00BF00BF00BFABE7114878
:104C9000006801F00BFB00BF00BF00BFFBF708FB83
:104CA000074600BF00BF0A480078401E0849087048
:104CB00000BF00BF3846FBF7FFFA00BF00BF00BFD0
:104CC000FEF7A4FF0020208000BF8CE74C020020EC
:104CD00094020020040300202DE9FF5F05460E46E4
:104CE00017469846DDE90EA4002000907048007831
:104CF000002804DD47F275202080BDE8FF9F6D4845
:104D00000078002803DD46F663502080F5E70AF0BE
:104D10000E0BBBF1000F09D0BBF1020F07D0BBF1A6
:104D2000040F10D0BBF1080F0ED101E000BF00BF8F
:104D3000B8F1000F06D12FB926B91DB947F27E2070
:104D40002080DAE704E003E045F625602080D4E720
:104D500000BF2AF01E0008B1012000E000200390EF
:104D60000398012803D145F625602080C5E7CAF3E2
:104D7000001002900298C0B9B8F57A7F03D347F2C9
:104D80007B202080B9E73B2F03DD47F27A2020808B
:104D9000B3E73B2E03DD47F279202080ADE7632D9A
:104DA00012DD47F278202080A7E742F20F7086429A
:104DB00003DD47F2792020809FE7B5F57A7F03DB9A
:104DC00047F27820208098E73B48D0F800904FF4D5
:104DD000FA70B0FBF9F0404400FB09F04FF47A712F
:104DE000B0FBF1F14FF461606843C6EB061200EBD3
:104DF0008200384400FB091001900198002851D02E
:104E000000BF00BF00BFFBF753FA009000BF00BF18
:104E100028480078401C2749087000BF00BF009850
:104E2000FBF74AFA00BF00BF00BF23465A4623489B
:104E30000199006802F0B4FB2088A8B100BF00BF50
:104E400000BFFBF735FA009000BF00BF194800789B
:104E5000401E1849087000BF00BF0098FBF72CFAED
:104E600000BF00BF00BF48E71448006801F01EFA09
:104E700000BF00BF00BFFBF71BFA009000BF00BFE0
:104E80000C480078401E0B49087000BF00BF009816
:104E9000FBF712FA00BF00BF00BFFEF7B7FE00200D
:104EA000208002E047F27E20208000BF25E700003E
:104EB0004C0200209402002060B50008040300208A
:104EC00010B586B000F01EF8FCF786FA044605A877
:104ED00000210091CDE9011403900748007800EB10
:104EE0004000064A02EB800100231A46044800F005
:104EF0006DFB06B010BD00007A0200203C4400208B
:104F00005449434B10B50348006810B1014800688C
:104F1000804710BD440200202DE9F05F044688461A
:104F200016461F46DDE90BABDDF828900D9D2448A1
:104F30000078002804DD47F243302880BDE8F09F68
:104F40001CB945F6C3502880F8E7B9F1010F08D025
:104F5000B9F1020F0BD11FB947F240302880EDE7BD
:104F600009E01EB947F23F302880E7E703E045F645
:104F700025602880E2E700BF02F046FE012084F8A9
:104F8000260010482060C4F80480E6610020A0617B
:104F90002762A4F82490C4F808A0C4F80CB02061DB
:104FA0006061204602F082FD07480088401C0649E7
:104FB000088002F0A3FE0020288000BFBEE70000AA
:104FC0004C020020544D5220F00200202DE9F04107
:104FD00004460D464FF0000838480078002805DDEB
:104FE00047F2433028800020BDE8F08124B947F221
:104FF000423028800020F7E731492068884204D0F9
:1050000045F6C45028800020EEE794F826000028DA
:1050100047D0012818D0022802D0032846D114E036
:1050200000BF00BFFBF744F9804600BF00BFE06946
:10503000A06100BF00BF4046FBF73EF900BF00BFC4
:1050400000202880012636E000BF02F0DDFD0220AE
:1050500084F82600E06910B9206AA06101E0E069E7
:10506000A0611848006840B90020206160611548BF
:1050700004600120144908800DE0124807680068A8
:105080002061002060617C610E4804600E48008849
:10509000401C0D49088002F031FE002028800126C6
:1050A00009E047F23D302880002604E047F2413015
:1050B0002880002600BF00BF304695E74C02002044
:1050C000544D5220EC020020E8020020244A2549D9
:1050D000254A264A2649274A2748284A284A294A4B
:1050E000294A2A482A482B482B4A2C482C4A2D4822
:1050F0002D4A2E482E482F482F48304A304A314AF0
:105100003148324A324A33483348344834483548C3
:1051100035483648364A374A374A384A384839488F
:1051200039483A4A3A4A3B4A3B483C483C483D4960
:105130003D483E4A3E4A3F4A3F4A404A404A414A29
:105140004148424A424A43484348444A444A4548FF
:10515000454A464A4648474800BF00BF00BF70471F
:1051600094B50008F8B6000895B5000896B5000893
:1051700098B500089CB50008A0B500089DB50008CA
:10518000C8B50008C9B50008CAB50008CCB5000804
:10519000CEB50008D0B50008D2B50008D4B50008D7
:1051A000F4B50008F6B50008F8B50008FAB500082F
:1051B000FCB50008FEB5000800B600082CB60008D3
:1051C0002DB600082EB6000830B6000832B600082A
:1051D00033B6000834B6000836B6000838B6000802
:1051E0003AB600083CB600083EB6000840B60008D3
:1051F00070B6000871B6000872B6000873B60008F1
:1052000074B6000876B6000878B60008A0B60008A4
:10521000A1B60008A2B60008A3B60008A4B600080C
:10522000A6B60008A8B60008ACB60008ADB60008DF
:10523000AEB60008AFB60008B0B60008B1B60008B8
:10524000B2B60008B3B60008B4B60008B6B6000897
:10525000B7B60008B8B60008BAB60008BCB6000871
:10526000BDB60008C0B60008F0B60008F1B60008E8
:10527000F2B60008F4B600080021034A1160034AA0
:105280001180018070470000640200206802002045
:105290002DE9F04F85B00446894692469B46DDF8DD
:1052A00038800020009000BF00BFFBF701F800909D
:1052B00000BF00BFBAF1000F0AD0BAF1010F0DD044
:1052C000BAF5004F05D06FF40040504460B906E0D5
:1052D00000BF206A40EA0900206214E000BF206A93
:1052E00020EA090020620EE000BF00BF0098FAF734
:1052F000E3FF00BF00BF45F62560A8F800000020CE
:1053000005B0BDE8F08F00BFC4F824B004F1080078
:1053100001900198008958B900BF00BF0098FAF7C2
:10532000CBFF00BF00BF0020A8F80000206AE7E71D
:1053300000BF5E480078401C5C49087000BF00BF99
:105340000098FAF7B9FF00BF00BF00BF01980768D7
:10535000BD6879E07868029095F8840000F00F004D
:105360000390039801281ED0022829D0042802D0D7
:10537000082830D10CE0206AE96F00EA0106E86FE6
:10538000B04204D15A463146284600F093F855E021
:10539000206AE96F00EA010626B15A4631462846DE
:1053A00000F088F84AE0E86F216A20EA0106E86F19
:1053B000B04204D15A463146284600F07BF83DE021
:1053C000E86F216A20EA010626B15A46314628468E
:1053D00000F070F832E000BF00BF00BFFAF768FFCE
:1053E000009000BF00BF31480078401E2F49087070
:1053F00008460078A0B92E480088002809DD00BFC3
:1054000000BF0098FAF758FF00BF00BF00F07CFF14
:105410000DE000BF00BF0098FAF74EFF00BF06E0A6
:1054200000BF00BF0098FAF747FF00BF00BF00BFF2
:1054300043F6FF20A8F80000002061E700BF029FAC
:105440000FB1BD6800E00025002D83D100BF00BF73
:1054500000BFFAF72DFF009000BF00BF134800788F
:10546000401E1249087000BF00BF0098FAF724FFE1
:1054700000BF00BF00BF0AF4004008B9FEF7C6FB3A
:1054800000BF00BFFAF714FF009000BF00BF206A02
:10549000049000BF00BF0098FAF70EFF00BF00BFE6
:1054A0000020A8F8000004982AE7000094020020D9
:1054B0005802002070B504460E4615463434E664A2
:1054C000002060702070E560A078343C08281DD270
:1054D000DFE800F0040508090706171800BF00BF41
:1054E00000BF14E000BF94F83600032802D1204624
:1054F00002F0B4F8204600F063FE002084F8360085
:1055000005E000BF042084F8360000E000BF00BFC3
:10551000204600F094FC70BD002419E000BF00BFDD
:10552000FAF7C6FE044600BF00BF0A480068401CE8
:105530000849086008480068401C0749086000BF27
:1055400000BF2046FAF7B8FE00BF00BFFDF702FF1C
:10555000E4E7000048020020AC02002010B58AB049
:10556000044600200E4908600B2000210591CDE97A
:105570000704069108460B4909680B4A12680B4B51
:105580001B68CDE90132CDE903103F200023084A12
:1055900008A100900C48FEF791FD0AB010BD000074
:1055A0004802002008B5000804B5000800B500084E
:1055B0001955000875432F4F532D49494920496417
:1055C0006C65205461736B00B04200202DE9F84FE8
:1055D00004460D4616461F46DDE90BABDDF8289064
:1055E000DDF834800020009000BF00BFFAF760FEB5
:1055F000009000BF00BF2B4800882B4909888842D3
:105600003EDA28480088401C264908802748008840
:105610000988884203DA23480088244908802448FE
:105620000068046022480068856021480068C66000
:105630001F48006807821E480068C0F814901C4884
:105640000068A0F818A01A480068C0F81CB01848F4
:10565000006840681649086001201649088116480C
:1056600008604860002000F0C3FC1448007818B1BE
:1056700012480078124908700020A8F8000008E0DD
:1056800010480088401C0F49088044F25360A8F875
:10569000000000BF00BF0098FAF70EFE00BF00BF79
:1056A000BDE8F88F5802002014B500085A02002007
:1056B000500200203C440020704300207A02002069
:1056C0007C0200205C0200203EB55948006800685A
:1056D000584A811A904279D00FDC57490844002873
:1056E0003ED056490844A8B155490844002860D026
:1056F0005449084400286AD13FE053480844002830
:1057000050D052490844002862D05149084400282A
:10571000F1D110E002A8464D00902D68EB69444D90
:105720002D682A8B424D2D686969414D2D68A86806
:10573000FFF7AEFD7AE002A93D480068C0693C4D24
:10574000CDE900012D682B8B394D2D682A8A384D03
:105750002D68E968364D2D68A86800F079FC65E091
:10576000334B1B68DA69324B1B68198B304B1B6853
:10577000986802AB00F092FE58E002A92C4800683D
:10578000C0692B4DCDE900012D682B8B284D2D686C
:105790002A8A274D2D68E968254D2D68A86801F0F3
:1057A000FFF943E022490968886802A901F0FEFA7E
:1057B0003CE01F4B1B68DA691D4B1B68198B1C4BA7
:1057C0001B68986802AB01F09DFB2FE007E02CE01E
:1057D00017490968886802A901F0F6FD26E01D490D
:1057E000097801EB41011C4A02EB810000F0E2FD67
:1057F0000F48006802AB0021C269184801F082FB23
:1058000017480068401E164908600846006858B9E5
:10581000144800680860FBF7DFFD044602AB22462F
:105820000021114801F06EFB00E000BF00BF3EBD4B
:10583000540200205449434BADBAB2BE0DF90BFAE5
:10584000F2F8F7FF0006F6FF00F7FDF700FFEFFFA5
:1058500003FE0FFE7C0200203C440020FC47002099
:1058600000030020FC020020E848002000274CE054
:10587000002648E000BF00BFFAF71AFD074600BF48
:1058800000BF2248008888B90020214908810860AB
:10589000486000F0BFFB00BF00BF3846FAF70CFDC0
:1058A00000BF00BFFEF7B2F901262CE000BF00BF29
:1058B0003846FAF701FD00BF00BFFBF78DFD054636
:1058C000FFF702FFFBF788FD441B12480068A04267
:1058D00001D21048046000BF00BFFAF7E9FC074698
:1058E00000BF00BF0C48006840680B4908600748CB
:1058F0000088401E0549088000BF00BF3846FAF7FF
:10590000DBFC00BF00BF002EB4D0B1E7580200207E
:105910003C4400206002002054020020F0B589B011
:1059200005460020314908803148006820B944F21A
:105930005260288009B0F0BD2E480088022803DAA2
:1059400044F254602880F5E700202B49086028487D
:1059500004682646203600270CE0284820600020F6
:10596000A060E06020826061208366602034203681
:10597000781C87B21F4800888742EEDB203C1C4819
:10598000066866601E4806601E48066000201E49C4
:1059900008801E4908801E48006818B944F2556006
:1059A0002880C7E71B4800681B490968884203D262
:1059B00044F256602880BDE7032000210591CDE91F
:1059C0000705069113480068144A1268104B1B68BB
:1059D000CDE90301CDE9013200910B46104A11A136
:1059E0001748FEF76BFB00BFA4E700005C02002035
:1059F00010B5000814B50008600200204E4F4E4557
:105A00005002002054020020580200205A020020B8
:105A10001CB5000824B500085CB5000820B50008D6
:105A20006D58000875432F4F532D4949492049535C
:105A300052205175657565205461736B000000003C
:105A4000704300200021034A1160034A1180018045
:105A5000704700006C0200207002002070B5014603
:105A60001A4D2D681DB945F21E750D8070BD184D7B
:105A70002D881DB945F21D750D80F7E7134D286877
:105A80002A681032124D2D886D1EACB2002308E03A
:105A90000260002545600581C560103010325D1C34
:105AA000ABB2A342F4DB0025056045600581C5600B
:105AB000064D2D68074E3560054D2D88B5800025B3
:105AC000F58035810D8000BFD0E7000040B50008AB
:105AD00038B500083044002010B5014648894B898C
