:020000040800F2
:10000000685E002085020008614D00082942000852
:10001000F74C00085D1F000835C400080000000010
:10002000000000000000000000000000DB9F00084E
:10003000993200080000000023070008F1A1000821
:100040009F0200089F0200089F0200089F0200080C
:100050009F0200089F0200089F0200089F020008FC
:100060009F0200089F0200089F0200089F020008EC
:100070009F0200089F0200089F020008512E0008FE
:100080009F020008612E00089F0200089F020008DE
:100090009F0200089F0200089F0200089F020008BC
:1000A0009F0200089F0200089F0200089F020008AC
:1000B00099A500089F0200089F0200089F020008FF
:1000C0009F0200089F0200089F0200089F0200088C
:1000D0009F0200089F02000889A600089F020008EE
:1000E0009F0200089F0200089F0200089F0200086C
:1000F0009F0200089F0200089F0200089F0200085C
:100100009F0200089F0200089F0200089F0200084B
:1001100079A600089F0200089F0200089F020008BD
:100120009F0200089F0200089F0200089F0200082B
:100130009F0200089F0200089F0200089F0200081B
:100140009F0200089F0200089F020008CD98000847
:100150009F0200089F0200089F0200089F020008FB
:100160009F0200089F0200089F0200089F020008EB
:100170009F0200089F0200089F0200089F020008DB
:100180009F0200089F02000800F002F800F06AF8E1
:100190000AA090E8000C82448344AAF10107DA45E2
:1001A00001D100F05FF8AFF2090EBAE80F0013F0CA
:1001B000010F18BFFB1A43F00103184714D50000C4
:1001C00034D500000A444FF0000C10F8013B13F046
:1001D000070408BF10F8014B1D1108BF10F8015BA0
:1001E000641E05D010F8016B641E01F8016BF9D193
:1001F00013F0080F1EBF10F8014BAD1C0C1B09D1EA
:100200006D1E58BF01F801CBFAD505E014F8016B5B
:1002100001F8016B6D1EF9D59142D6D370470000ED
:100220000023002400250026103A28BF78C1FBD8FF
:10023000520728BF30C148BF0B607047642900F0E7
:100240009D80002070471FB50DF036F900F0FCF9D5
:100250000400002000210CF09DFC401C60601FBDCC
:1002600010B510BD00F0CAF91146FFF7ECFF0CF015
:10027000F3FA00F0EDF903B4FFF7F2FF03BC0CF062
:1002800033FA00000948804709480047FEE7FEE7C7
:10029000FEE7FEE7FEE7FEE7FEE7FEE7FEE7FEE736
:1002A00004480549054A064B7047000061A2000852
:1002B0008901000868580020685E0020685A002004
:1002C000685A002072B6704762B67047EFF310802C
:1002D00072B6704780F31088704730BF704720BFF8
:1002E0007047B0FA80F0704790FAA0F0B0FA80F052
:1002F000704790FAA0F07047704700000FB40449AF
:1003000010B503AA029800F01BF910BC5DF814FBAD
:10031000800000202DE9F0410E46044600202062B6
:100320002046E168884730B3252805D0D4E901216B
:100330009047206A401CF2E7E16820460027884782
:10034000050018D0A5F14100192802D820354FF436
:1003500000673246294620462760FFF76FFF40B10D
:10036000012804D0F61D26F007060836D8E7361D0A
:10037000D6E72846DAE7206ABDE8F0812DE9F041AA
:100380000646002410687529314616A510D0AFF333
:100390000080002802DA404213A507E031688A078E
:1003A00001D512A502E0490704D511A5012401E0F9
:1003B000AFF3008000210A2206F1240709E0B0FB18
:1003C000F2FCB0FBF2F302FB1C003030785418460C
:1003D000491C0028F3D123462A463046BDE8F041A7
:1003E00000F054B8000000002D0000002B000000B9
:1003F000200000002DE9F041054690460E46002001
:10040000044600E0641C44450BD2285D00F031F83E
:100410000746305D00F02DF8381A02D1295D002919
:10042000F0D1BDE8F0814FF000020429C0F0128045
:1004300010F0030C00F09880CCF1040CBCF1020F1A
:1004400018BF00F8012BA8BF20F8022BA1EB0C016C
:1004500000F08AB85FEAC17C24BF00F8012B00F8E5
:10046000012B48BF00F8012B704770477047704759
:10047000704710B5044600F09DF80068005DC006A6
:1004800002D504F1200010BD204610BD2DE9F04733
:100490000D4699469246044600F1240801688806F4
:1004A00004D5E06921F01001216000E00120A8429C
:1004B00001DD471B00E00027A1697A1902EB090062
:1004C000081AA0612078C00602D42046AFF300804D
:1004D000002608E0D4E901211AF806009047206AB6
:1004E000401C761C20624E45F4DB2078C0060AD5FD
:1004F0002046AFF3008006E0D4E901213020904788
:10050000206A401C2062381EA7F10107F4DC07E0D6
:10051000D4E9012118F805009047206A401C2062A8
:10052000281EA5F10105F3DC2046AFF300802078FA
:10053000000602D50220BDE8F0870120FBE700009D
:10054000074B70B50D467B4400F041F80446284641
:1005500000F050F810B14FF0FF3070BD204670BD74
:10056000EBC200004FF0000200B5134694469646D9
:10057000203922BFA0E80C50A0E80C50B1F12001B6
:10058000BFF4F7AF090728BFA0E80C5048BF0CC064
:100590005DF804EB890028BF40F8042B08BF7047C2
:1005A00048BF20F8022B11F0804F18BF00F8012B34
:1005B0007047000010B500F047F8001D10BD00BFE7
:1005C000D5C5000001694A1C02610878704700B572
:1005D0008FB0CDE901310021059105497944CDE97C
:1005E000031011466846FFF795FE0FB000BD0000EE
:1005F000E5FFFFFF007B00F080007047754600F0CC
:1006000031F8AE4605006946534620F0070085469E
:1006100018B020B5FFF744FEBDE820404FF00006BB
:100620004FF000074FF000084FF0000B21F00701DA
:10063000AC46ACE8C009ACE8C009ACE8C009ACE81D
:10064000C0098D46704700000048704724580020BC
:1006500010B50446AFF300802046BDE81040FFF718
:100660000ABE000000487047045800204FF0013CCB
:1006700050F8042B51F8043B9A4221D1A2EB0C0311
:10068000934313EACC1317D150F8042B51F8043BD1
:100690009A4215D1A2EB0C03934313EACC130BD16E
:1006A00050F8042B51F8043B9A4209D1A2EB0C03F9
:1006B000934313EACC13DBD04FF00000704700BF28
:1006C000D01A01BAB1FA81F101F0180122FA01F051
:1006D000CB40C1F12001DBB2C0B2C01A2CFA01F349
:1006E000D11A914311EAC311E6D1704722484FF65F
:1006F000FF710170002080F309882048016881F3B0
:1007000008881F484FF08051016062B6FEE71C4820
:100710004FF080510160704719484FF080510160DF
:10072000704772B6EFF3098050B11EF0100F08BF8A
:1007300020ED108A203880E8F00F1249096808601F
:1007400000B5114880475DF804EB104810490A785D
:1007500002700C480F490A680260106890E8F00FB8
:1007600020301EF0100F08BFB0EC108A80F309880B
:100770004EF0040E62B6704722ED00E01003002038
:1007800004ED00E008030020016700087E0200205D
:100790007F0200200C03002021B1826842F0010298
:1007A000826003E0826822F00102826070470000EC
:1007B0000021084A1168084A1140D0E900231A4371
:1007C00083681A43C3681A431143044AC2F80413E6
:1007D0007047000004230140E030FCFF002001408E
:1007E00021B1826842F48072826003E0826822F460
:1007F00080728260704721B1826842F40072826028
:1008000003E0826822F400728260704730B50246CD
:10081000002000235068104C20400D790C6844EAF9
:1008200005242043506090680C4C2040D1E90354CB
:100830002C438D682C434D7944EA45042043906055
:10084000D06A20F470000C7D641EE4B2234340EAB9
:100850000350D06230BD0000FFFEFFFCFDF7FFC07B
:10086000F0B504460D4600200021092D11DDE06899
:10087000A5F10A0606EB4607072606FA07F18843A4
:10088000A5F10A0606EB460603FA06F10843E06006
:100890000CE0206905EB4507072606FA07F18843B7
:1008A00005EB450603FA06F108432061072A0FDA33
:1008B000606B561E06EB86071F2606FA07F1884373
:1008C000561E06EB860605FA06F10843606322E031
:1008D0000D2A0FDA206BD61F06EB86071F2606FAB5
:1008E00007F18843D61F06EB860605FA06F1084392
:1008F000206310E0E06AA2F10D0606EB86071F26D2
:1009000006FA07F18843A2F10D0606EB860605FA02
:1009100006F10843E062F0BD816841F080418160EA
:100920007047000038B10849096841F40001074ADE
:10093000C2F8041306E00449096821F40001034ADF
:10094000C2F8041370470000042301400020014056
:1009500010B50221094800F057FA0120FFF7E2FF25
:10096000072301220F210548FFF77AFF0723022200
:1009700010210248FFF774FF10BD00000020014065
:1009800010B52DED0C8B022000F04CF804460CF055
:100990008BFB41EC1D0B9FED180B53EC102B0CF057
:1009A00097FB41EC1C0B9FED160B53EC102B0CF03E
:1009B000AFF941EC1B0B9FED140B53EC102B0CF01B
:1009C00091FC41EC1A0B9FED120B53EC102B0CF029
:1009D0009FF941EC190B9FED100B53EC102B0CF011
:1009E000EFF841EC180B0CF01BFBC1B20C4880F87F
:1009F0004110BDEC0C8B10BD6666666666660A40EB
:100A00000000000000FEAF4052B81E85EB51E83FE9
:100A10007B14AE47E17A643F0000000000003940DB
:100A20004C2A0020F0B58AB004460023002109E0DA
:100A30001B4800EB8106601E36F810002DF81100EF
:100A4000481CC1B21429F3DB00211AE0002212E095
:100A50003DF81260501C3DF81000864209DD3DF85B
:100A60001250501C3DF810002DF81200501C2DF8AB
:100A70001050501CC2B2C1F113009042E8DC481C77
:100A8000C1B21429E2DB022104E03DF81100034465
:100A9000481CC1B21229F8DB1B0998B20AB0F0BD9C
:100AA000A833002010B50E212B4800F0ADF9072324
:100AB00001220A212848FFF7D3FE072302220B2137
:100AC0002548FFF7CDFE072303220C212248FFF71C
:100AD000C7FE072304220D211F48FFF7C1FE07238D
:100AE00005220E211C48FFF7BBFE07230622092121
:100AF0001948FFF7B5FE07231A4604211648FFF7E9
:100B0000AFFE0723082206211348FFF7A9FE07239B
:100B100009220F211048FFF7A3FE07230A22022112
:100B20000D48FFF79DFE07230B2205210A48FFF71A
:100B300097FE07230C2203210748FFF791FE0723A6
:100B40000D2219460448FFF78BFE07230E220821C9
:100B50000148FFF785FE10BD0022014010B52DEDC4
:100B6000108B012000F00EF904460CF09DFA41ECC8
:100B70001D0B9FED750B53EC102B0CF0A9FA41ECFB
:100B80001C0B9FED730B53EC102B0CF0C1F841ECD8
:100B90001B0B9FED710B53EC102B0CF0B9F841ECD3
:100BA0001A0B9FED6F0B53EC102B0CF091FA41ECEC
:100BB000190B9FED6D0B53EC102B0CF089FA41ECE7
:100BC000180B0CF02DFA6A490884022000F0DAF8BC
:100BD00004460CF069FA41EC1F0B9FED5B0B53ECE4
:100BE000102B0CF075FA41EC1E0B9FED590B53ECDA
:100BF000102B0CF08DF841EC1D0B9FED530B53ECBB
:100C0000102B0CF063FB41EC1C0B9FED5A0B53ECCB
:100C1000102B0CF07DF841EC1B0B9FED580B53ECA7
:100C2000102B0CF055FA41EC1A0B9FED470B53ECCF
:100C3000102B0CF057FB41EC190B9FED4B0B53ECB9
:100C4000102B0CF045FA41EC180B0CF0E9F948496F
:100C50004884032000F096F804460CF025FA41EC95
:100C60001D0B9FED390B53EC102B0CF031FA41ECBE
:100C70001C0B9FED370B53EC102B0CF049F841EC9B
:100C80001B0B9FED350B53EC102B0CF041F841EC96
:100C90001A0B9FED330B53EC102B0CF019FA41ECAF
:100CA000190B9FED310B53EC102B0CF011FA41ECAA
:100CB000180B0CF0B5F92E498884042000F062F876
:100CC00004460CF0F1F941EC1F0B9FED1F0B53ECA8
:100CD000102B0CF0FDF941EC1E0B9FED1D0B53EC9E
:100CE000102B0CF015F841EC1D0B9FED170B53EC7E
:100CF000102B0CF0EBFA41EC1C0B9FED1E0B53EC90
:100D0000102B0CF005F841EC1B0B9FED1C0B53EC6A
:100D1000102B0CF0DDF941EC1A0B9FED0B0B53EC93
:100D2000102B0CF0DFFA41EC190B9FED0F0B53EC7D
:100D3000102B0CF0CDF941EC180B0CF071F90C49AB
:100D4000C884BDEC108B10BD6666666666660A4098
:100D50000000000000FEAF40E17A14AE47E1104011
:100D6000AE47E17A140E5A400000000000005940DE
:100D70004C2A00205C8FC2F5285C05407B14AE47EE
:100D8000E1AA5940F0B58AB00446002300210BE0E7
:100D9000C1EBC1001B4E06EB8006601E36F810004A
:100DA0002DF81100481CC1B21429F1DB00211AE012
:100DB000002212E03DF81260501C3DF810008642FF
:100DC00009DD3DF81250501C3DF810002DF81200BE
:100DD000501C2DF81050501CC2B2C1F113009042AB
:100DE000E8DC481CC1B21429E2DB022104E03DF832
:100DF00011000344481CC1B21229F8DB1B0998B248
:100E00000AB0F0BD7831002030B58BB004460D46F5
:100E10001C48844203D10121801508F009FF1A48BB
:100E2000844203D10121401508F002FF1748844293
:100E300003D10121001508F0FBFE002007904FF4BC
:100E400080300890002009900A9007A8FFF7B0FCB6
:100E50000020019001208DF808008DF80900002085
:100E600003904FF070600490002005908DF81850AA
:100E700001A92046FFF7CAFC01212046FFF78CFCA0
:100E80000BB030BD00200140002101400022014094
:100E900010B5FA21084600F0D3F810BD10B540F6A1
:100EA000FF7000F0F1F803494889FF2100F0DAF8FB
:100EB00010BD00004C2A002010B540F6FF71002044
:100EC00001F026FA0121002001F042FA40F6FF71FC
:100ED000002001F02DFA0121102001F039FAFF2144
:100EE000084600F0BFF84FF40041044802F046FD08
:100EF0004FF48041014802F041FD10BD001802404E
:100F000010B52548008941F64C51884243DC2248FF
:100F10000089B0F57A7F3EDB1F48408988423ADC81
:100F20001D484089B0F57A7F35DB1B488089B0F5D4
:100F3000FA7F30DC18488089FA282CDB1648C089F3
:100F4000B0F5FA7F27DC1448C089FA2823DB4FF478
:100F50000041124802F012FD4FF480410F4802F0A8
:100F60000DFDFFF79BFF0C49088900F08DF80A4A38
:100F7000D189508900F076F8074AD189908900F02C
:100F80005FF84FF40041054802F0F6FC4FF4804151
:100F9000024802F0F3FC10BD4C2A00200018024069
:100FA00010B52548008941F64C51884242DC224860
:100FB0000089B0F57A7F3DDB1F484089884239DCE3
:100FC0001D484089B0F57A7F34DB1B488089884210
:100FD00030DC19488089B0F5FA7F2BDB1648C089D0
:100FE000884227DC1448C089B0F5FA7F22DB4FF431
:100FF0000041124802F0C2FC4FF480410F4802F059
:10100000BDFCFFF745FF0C49088900F03DF80A498F
:10101000888900F048F8084AD189508900F022F800
:101020004FF40041054802F0A7FC4FF4804103480B
:1010300002F0A2FC10BD00004C2A00200018024063
:101040002DE9F04105460C46284608F085FC064689
:10105000204603F0D7FE0746F9B2F0B201F0CAFF0E
:10106000BDE8F0812DE9F04105460C4628460BF01D
:1010700099FA064620460BF095FA0746F9B2F0B207
:1010800002F006F8BDE8F08170B5044620460BF08A
:10109000D9FA05462946002001F03AF9012100203D
:1010A00001F056F970BD70B5044620460BF0CAFA3F
:1010B00005462946002001F03BF90121102001F0EE
:1010C00047F970BD0EB5A6E0534A1179106808F0D3
:1010D00049FE01280AD10221504880F85B104E4A8F
:1010E00011791068FFF79FF900F0E0FF4B4890F886
:1010F0005B00022816D1494890F85A00012811D106
:101100000021464880F85A10A020454988703120B7
:10111000C870444848604449086802F077FB434877
:1011200008F05CFF424A1179106808F01BFE0128A4
:101130000AD10321394880F85B103D4A11791068C3
:10114000FFF771F900F0B2FF394A1179106802F027
:1011500003F840B10321314880F85B10344A11791B
:101160001068FFF760F92D4890F85B00032848D11C
:101170002A4890F8530001280CD10021274880F814
:101180005310C08C00902548838C428C018C29A080
:10119000FFF7B4F8214890F8540001280CD1002141
:1011A0001E4880F85410C08C00901C48838C428CE0
:1011B000018C20A0FFF7A2F8184890F852000128EF
:1011C0000DD10020154981F852000846C08C0090CE
:1011D0000846838C428C018C16A0FFF78FF80F48CD
:1011E00090F8570001280CD100210C4880F85710C6
:1011F000C08C00900948838C428C018C0DA0FFF7B5
:101200007DF802A8082132230022CDE90010114602
:10121000104605F03FFB57E7940000204C2A0020C1
:10122000200000202C0000209C000020A060024034
:1012300084000020566F6C74616765203A20256435
:10124000202564202564202564200D0A000000006C
:1012500000B58BB00AA8032100220592CDE9062132
:10126000089010464FF480711922074BCDE90132E6
:10127000CDE9031006200023044A05A10090084888
:1012800004F0FAFC0BB000BD84120020C510000869
:101290004170705F436F6D5F5461736B00000000BD
:1012A000C41100200EB50DE002F024F902F0F0F9AF
:1012B00002A8082100230222CDE900101946184691
:1012C00005F0E8FAF0E7000000B58BB00AA80321AA
:1012D00000220592CDE90621089010464FF4807156
:1012E0001922074BCDE90132CDE903100720002375
:1012F000044A05A10090084804F0BEFC0BB000BDF4
:1013000044170020A51200084170705F46616E5FAF
:101310005461736B00000000841600200EB50FE0CE
:101320004FF48061074802F02BFB02A808214FF41C
:10133000FA730022CDE900101146104605F0AAFA12
:10134000EEE70000000C024000B58BB00AA80321B4
:1013500000220592CDE90621089010464FF48071D5
:101360001922074BCDE90132CDE9031003200023F8
:10137000044A05A10090084804F07EFC0BB000BDB3
:10138000C40800201D1300084170705F4C65645F45
:101390005461736B00000000040800200EB50CE0DF
:1013A00000F024FC02A808214FF4FA730022CDE9D2
:1013B00000101146104605F06DFAF1E700B58BB04C
:1013C0000AA8032100220592CDE9062108901046C3
:1013D0004FF480711922074BCDE90132CDE903109A
:1013E0000B200023044A05A10090094804F044FCA6
:1013F0000BB000BD842500209D1300084170705F74
:101400005077724D616E616765725F5461736B00F6
:10141000C424002010B586B0002400F0A1FD05A86A
:1014200004F0A8FB05AA0121084604F057FA00BF02
:1014300000BF00BFFEF74AFF044600BF00BF3048B0
:101440000078401C2E49087000BF00BF2046FEF700
:1014500041FF00BF00BF00BFFFF776FF00F064FB55
:10146000FFF7F6FEFFF730FF00F09AF8FFF7A6FF50
:1014700000F0D2F805A80021224A0223CDE900326B
:10148000CDE9021001231A461FA1244805F022FBD2
:1014900005A9224805F078FB05A9214805F000F9C7
:1014A00000BF00BF00BFFEF711FF044600BF00BF32
:1014B00013480078401E1249087008460078A0B909
:1014C00018480088002809DD00BF00BF2046FEF74D
:1014D00001FF00BF00BF06F0F5FC0DE000BF00BF3C
:1014E0002046FEF7F7FE00BF06E000BF00BF204623
:1014F000FEF7F0FE00BF00BF00BF06B010BD000049
:1015000098020020EDC600085379735F537461742C
:101510006543686B5F546D7200000000D4030020C7
:10152000140300205C02002000B58BB00AA8032140
:1015300000220592CDE90621089010464FF48071F3
:101540001922074BCDE90132CDE903101E200023FB
:10155000044A05A10090084804F08EFB0BB000BDC2
:1015600004040020151400084170705F5374617208
:10157000745F5461736B0000140300200EB50DE01E
:1015800008F01AFF08F0CEFE02A808210A23002264
:10159000CDE900101146104605F07CF9F0E7000097
:1015A00000B58BB00AA8032100220592CDE90621DF
:1015B000089010464FF480711922074BCDE9013293
:1015C000CDE9031008200023044A05A10090084833
:1015D00004F052FB0BB000BD041C00207D15000878
:1015E0005379734F6E4F66665461736B5463620038
:1015F000441B00200EB50DE008F070F9FFF7C0F9AC
:1016000002A8082100230122CDE90010194618463E
:1016100005F040F9F0E7000000B58BB00AA80321FF
:1016200000220592CDE90621089010464FF4807102
:101630001922074BCDE90132CDE90310092000231F
:10164000044A05A100900A4804F016FB0BB000BD47
:10165000C4200020F51500084170705F54656D705E
:10166000657261747572655F5461736B0000000090
:10167000042000200EB54EE20AF02AFF80B1FE4899
:101680000068C1B2FD4808F06DFB012805D10121B9
:10169000FB4880F85B1000F009FD0020F649086067
:1016A000F74890F85B0001287ED1F54890F8530088
:1016B000012850D10021F24880F853100220F1494E
:1016C00088700A20C870EE48008C001249680870C3
:1016D000EB4890F82000EB4949684870E848408C96
:1016E0000012E84949688870E54890F82200E54909
:1016F0004968C870E248808C0012E2494968087164
:10170000DF4890F82400DF4949684871DC48C08C04
:101710000012DC4949688871D94890F82600D949F7
:101720004968C871D64840880012D649496808728D
:10173000D3488078D34949684872D34802F066F8A4
:10174000D148C078811DD148C268CF489047002059
:10175000CB4908704880CA4890F85400012852D1FB
:101760000021C74880F854100320C64988700A2019
:10177000C870C348008C001249680870C04890F8CF
:101780002000C04949684870BD48408C0012BD49DE
:1017900049688870BA4890F82200BA494968C87008
:1017A000B748808C001200E0ABE1B6494968087187
:1017B000B34890F82400B34949684871B048C08CD8
:1017C0000012B04949688871AD4890F82600AD49CB
:1017D0004968C871AA4840880012AA494968087235
:1017E000A7488078A74949684872A74802F00EF8D0
:1017F000A548C078811DA548C268A348904700202D
:101800009F49087048809E4890F85500A8B1002173
:101810009B4880F8551000209A4988700120C870B4
:10182000002049680870984801F0F0FF9648C07899
:10183000811D9648C26894489047914890F8560098
:1018400018B300218E4880F8561013208D49C870B7
:10185000084640688E490A6802604A6842600A8900
:101860000281897A8172874840688A490A6840F80B
:101870000B2F49684160844801F0C8FF8248C07856
:10188000811D8248C268804890477D4890F8580082
:10189000002870D000217A4880F858100520794936
:1018A00088700F20C8707648B0F84200001249686E
:1018B0000870734890F8420072494968487070484F
:1018C000B0F8440000126F49496888706C4890F87D
:1018D00044006C494968C8706948B0F84600001275
:1018E000684949680871664890F846006549496842
:1018F00048716348B0F8480000126249496888712D
:101900005F4890F848005F494968C8715C48B0F882
:101910004A0000125B4949680872594890F84A0029
:10192000584949684872564890F84C0055494968EA
:101930008872534890F84D0052494968C87250481F
:1019400090F84E004F49496808734D4890F84F0091
:101950004C49496848734A4890F8500049494968D9
:101960008873494801F052FF4748C078811D4748B5
:10197000C26845489047424890F85900D8B30021C2
:101980003F4880F8591006203E4988700720C870EB
:101990003B4890F85C0049680870394890F85E0050
:1019A000384949684870364890F85F0035494968B9
:1019B0008870334890F8610032494968C8703048EF
:1019C00090F862002F49496808712D4890F863002B
:1019D0002C49496848712A4890F8650029494968A6
:1019E0008871294801F012FF2748C078811D2748D7
:1019F000C268254890470121214880F8591090F885
:101A00005A00012814D100211D4880F85A10A02046
:101A10001C4988701F20C8701F4848601A4801F090
:101A2000F5FE1948C078811D1848C26816489047CD
:101A3000134890F85200012863D10020104981F822
:101A40005200F0200F4988700820C8700C48008CA4
:101A50000012496808700A4890F82000094949684E
:101A600048700748408C001206494968887004484D
:101A700090F82200034911E0B40000203A3500201C
:101A80004C2A002020000020C40C0020C0000020B0
:101A9000000000200B0000202C0000204968C870C6
:101AA0001D48808C00121D49496808711A4890F839
:101AB00024001A49496848711748C08C0012174918
:101AC00049688871144890F8260014494968C8711B
:101AD0001148408800121149496808720E48807800
:101AE0000E49496848720E4801F090FE0C48C078D3
:101AF000811D0C48C2680A489047002006490870BA
:101B0000488002A808210A230022CDE900101146CE
:101B1000104604F0BFFEAFE54C2A00202000002054
:101B2000C40C0020C000002000B58BB00AA803211F
:101B300000220592CDE90621089010464FF48071ED
:101B40001922074BCDE90132CDE90310042000230F
:101B5000044A05A10090084804F08EF80BB000BDBF
:101B6000C40D0020751600084170705F5573625FE8
:101B70005461736B00000000040D00201FB568461F
:101B800008F066F8019804B010BD000008B5002008
:101B9000009003236A460D21162002F073FB0128F2
:101BA00008D19DF80000642804DC9DF8001002486C
:101BB00080F85F1008BD00004C2A002008B5002006
:101BC000009003236A460D21162002F0B5FC01287F
:101BD00008D19DF80000642804DC9DF8001002483C
:101BE00080F8631008BD00004C2A002010B507F0F3
:101BF000C3FFFFF7CBFFFFF7E1FF00F045FA044614
:101C0000B64890F85C00012825D1B44890F85E00F1
:101C1000012875D1B24800780128FAD1AF4890F870
:101C20005F00642818D1022C01D0032CECD14FF4B2
:101C30000061AC4801F0A0FE0221AA4801F09EFE1E
:101C40000121A94801F098FE0020A5490870002153
:101C5000A24880F8611040E1A04890F85F00642835
:101C60003DD0032C3BD1A1480088401C80B29F4945
:101C70000880642814DB4FF400619A4801F07CFE70
:101C80000221984801F07AFE0121974801F074FE84
:101C90000020934908700121904880F861101CE1F0
:101CA0008E4890F86600012804D1C1028D4801F0E9
:101CB00063FE04E04FF400618A4801F05FFE0221F8
:101CC000884801F059FE0121874801F057FE0120A4
:101CD000834908700021814880F86110FDE07F4849
:101CE00090F85F00642821D0012C1FD17B4890F828
:101CF0006600012805D1C1027A4801F03DFE05E0E9
:101D000029E04FF40061774801F038FE0221754860
:101D100001F032FE0121744801F030FE01207049CB
:101D2000087000216D4880F86110D6E04FF4006122
:101D30006C4801F021FE02216A4801F01FFE0121DA
:101D4000694801F019FE00206549087000216348C8
:101D500080F86110C1E0614890F86200012875D1F7
:101D6000634800780128FAD15C4890F86300642841
:101D700018D1022C01D0032C91D14FF400615948A5
:101D800001F0FAFD0221574801F0F8FD0221564802
:101D900001F0F2FD0021514880F8651000205449FF
:101DA00008709AE04D4890F85F0064283DD0032CFD
:101DB0003BD150480088401C80B24E4908806428BE
:101DC00014DB4FF40061474801F0D6FD022145487D
:101DD00001F0D4FD0221444801F0CEFD01213F482D
:101DE00080F8651000204249087076E03B4890F882
:101DF0006600012804D1C1023A4801F0BDFD04E0AB
:101E00004FF40061374801F0B9FD0221354801F077
:101E1000B3FD0221344801F0B1FD00212F4880F8C4
:101E2000651001203249087057E02C4890F8630093
:101E3000642821D0012C1FD1284890F86600012881
:101E400005D1C102274801F097FD05E029E04FF4D4
:101E50000061244801F092FD0221224801F08CFD2E
:101E60000221214801F08AFD00211C4880F86510FC
:101E700001201F49087030E04FF40061194801F05B
:101E80007BFD0221174801F079FD0221164801F07F
:101E900073FD0021114880F8651000201449087076
:101EA0001BE04FF400610F4801F066FD02210D4870
:101EB00001F064FD01210C4801F05EFD02210A4899
:101EC00001F05AFD002006490870094908700021F8
:101ED000024880F8611080F8651010BD4C2A00207F
:101EE00074000020000C0240001802407600002020
:101EF000750000207800002008B500214FF0006038
:101F000002F076FF02F0B2FF01F0FAFD0F48104B2D
:101F1000104A01210090104808F049FF08F072F9BA
:101F200000F062F908F0E0F8FEF7C6FFFEF7B0FF38
:101F30000AF004FB02F084FE002001F0F7F8102004
:101F400001F0F4F801F0D2FA08BD00002C010020E5
:101F50006C010020D4000020BC2A002000BFFEE756
:101F600010B500F01FF800F019F810BD10B50024EE
:101F700000BF00BFFEF7AAF9044600BF00BF102152
:101F8000054802F0BAFE00BF00BF2046FEF7A2F9E6
:101F900000BF00BF10BD00007A3D002010B5FFF764
:101FA000E5FF10BD10B500200249086000F00AF8F6
:101FB00010BD0000240200200149086070470000A5
:101FC0002402002010B5FFF7D9FD04460848006838
:101FD00040F08070064908600020064948600846C5
:101FE000006840F0010008602046FFF7E5FF10BDE3
:101FF000FCED00E0001000E0014948687047000077
:10200000001000E01F48008996301E4908820846EB
:1020100000899638488208460089963088820846AA
:1020200000899638C88208460079012811D100201D
:10203000087108468089963008830846808996385A
:102040004883084680899630888308468089963878
:10205000C8830C484079012812D1002009494871F1
:10206000084680896430088308468089643848833C
:102070000846808964308883084680896438C8832C
:10208000704700004C2A002070B51021064801F06E
:102090006AFC05460821044801F065FC05EB400098
:1020A000C4B2204670BD00000010024010B51848B0
:1020B000807804281DD007DC78B1012810D00228D0
:1020C00011D003281ED111E0052815D0062816D0FE
:1020D000A02817D101F0D2FC17E001F0DFFC14E0DA
:1020E00001F0C4FC11E001F087FC0EE001F04CFCB3
:1020F0000BE001F0FDFC08E001F0C8FC05E001F098
:10210000D5FC02E002F0CEFD00BF00BF10BD000014
:102110001400002010B540F224412D4808F0EDFADB
:1021200018B340F224412A4808F0B6FA284800883B
:102130002748001D00880021264800F0CDFE2649D2
:10214000244800F095FE234800F0D1FEC0F1640061
:1021500022490871084600681E494039C864642055
:10216000486401211B4800F0B7FE40F224411C489E
:1021700008F0C3FA50B340F22441194808F08CFA31
:10218000174800881648001D008800211148483073
:1021900000F0A2FE10490F48483000F069FE0D48DB
:1021A000483000F0A4FEC0F164000E4908710846F2
:1021B0000068084954310860642006494039C1F874
:1021C0008C0001210348483000F086FE10BD00005D
:1021D000004C0040406002402000002084000020AD
:1021E000004400409400002000B587B04FF4E13176
:1021F0002C480AF021F9002240F22551294808F024
:10220000A6FA002240F22771264808F0A0FA01221F
:1022100040F22441234808F09AFA01224021214843
:1022200008F055FA012280211E4808F050FA4FF4B8
:1022300040304FF4807100220292CDE903210590D5
:102240006420CDE900201848164A121DC90403680D
:10225000164801F03FF84FF440304FF480710022EF
:102260000292CDE90321059064204021CDE90010C0
:102270000F480C4A121D490503680C48183001F03C
:1022800029F80121094800F027FE002107481830ED
:1022900000F022FE012210210448183000F05EFEFA
:1022A00007B000BD00440040940000208860024058
:1022B0009C00002039B1084A1268012383401A4368
:1022C000054B1A6006E0044A1268012383409A43D2
:1022D000014B1A60704700000074004030B50022C6
:1022E00000230A4C226840F6FE748440A243D1E9E0
:1022F00000452C438D682C43CD6844EA050303FA5E
:1023000000F42243014C226030BD00000074004004
:1023100008B500220092054A009200F10802009BD5
:102320001A440092009A116008BD00000074004039
:1023300008B500220092054A009200F11402009BA9
:102340001A440092009A116008BD00000074004019
:1023500010B541B1084A126804090123A3401A4389
:10236000054B1A6007E0044A126804090123A340E0
:102370009A43014B1A6010BD0474004070B50646C4
:102380000C4604F08000802808D104F07F0000EBA8
:10239000800106F58E7000EBC10507E004F07F00B8
:1023A00000EB800106F55D7000EBC10504F07F00D5
:1023B000287004F08000C00968702946304609F092
:1023C000CAFC002070BD70B506460C4604F08000C3
:1023D000802808D104F07F0000EB800106F58E70A4
:1023E00000EBC10505E004EB840106F55D7000EB30
:1023F000C1050020A87004F07F002870C4F3C0104D
:1024000068702946304609F07EFC002070BD2DE939
:10241000F04106460D4690461F4605F08000802894
:1024200008D105F07F0000EB800106F58E7000EB0F
:10243000C10407E005F07F0000EB800106F55D7048
:1024400000EBC10405F07F00207005F08000C0099A
:102450006070C4F80880E770607808B12078E08088
:10246000022F01D1002020712146304609F0FFFBE8
:102470000020BDE8F0812DE9F04105460E461746E3
:10248000984606F07F0000EB800105F55D7000EBDB
:10249000C104E760C4F814800020A061607006F0F9
:1024A0007F002070E878012800D12761207820B9CA
:1024B0002146284609F0FFFA03E02146284609F0A4
:1024C000C9FC0020BDE8F08108B500220092009A06
:1024D00061F30A12009202691268009B1A430369B1
:1024E0001A6008BD70B506460C4604F080008028CE
:1024F00008D104F07F0000EB800106F58E7000EB40
:10250000C10505E004EB840106F55D7000EBC10533
:102510000120A87004F07F002870C4F3C010687018
:102520002946304609F064FC002070BD2DE9F041D9
:1025300007460D461646984605F07F0000EB8001E1
:1025400007F58E7000EBC1040120607005F07F007C
:102550002070E66026610020A061C4F81480207815
:1025600020B92146384609F0A6FA03E0214638464C
:1025700009F070FC0020BDE8F081000030B587B0A4
:102580000546594C284609F05CFA01A807F060FBA3
:10259000029CE868C0680590059820F4705005908A
:1025A0000598E968C860284609F026FE03280BD183
:1025B0000020A8704FF40070A880059820F4705097
:1025C00000F5105005907EE00120A8704020A88002
:1025D0004648844209D34648844206D2059820F4EE
:1025E000705000F5605005906DE04148844209D379
:1025F0004048844206D2059820F4705000F55050AF
:10260000059060E03B48844209D33B48844206D2AF
:10261000059820F4705000F54050059053E036487E
:10262000844209D33548844206D2059820F470507C
:1026300000F53050059046E03048844209D33048D8
:10264000844206D2059820F4705000F52050059081
:1026500039E02B48844209D32A48844206D205989F
:1026600020F4705000F5105005902CE0254884426D
:1026700009D32548844206D2059820F4705000F50D
:10268000005005901FE02048844209D31F4884422F
:1026900006D2059820F4705000F5E050059012E045
:1026A0001A48844209D31A48844206D2059820F475
:1026B000705000F5C050059005E0059820F470506A
:1026C00000F5A05005900598E968C86000200690C4
:1026D000069820F4005000F5005006900698E9682E
:1026E0004861012007B030BD007A030AC0E1E40070
:1026F0000024F400E0EC040100C31801002D3101B6
:1027000040A44C0100366E0140E2950180C3C9012E
:1027100060600B02F8B505460024002000902846B2
:1027200009F0ABFD064681E006F0010000287BD0F1
:10273000E1B2284600F00CFB0090009800F0010088
:1027400030B3012000FA04F72869406BB8432969C7
:10275000486300200090009820F00100401C009089
:1027600005F1180050F8240000998160E1B2324868
:102770000068426828469047E878012808D13CB9AB
:1027800040F21110405D042802D1284609F03EFABB
:102790000098C0F3C00060B100200090009820F0C5
:1027A00008000830009005F1180050F82400009946
:1027B00081600098C0F3001060B100200090009884
:1027C00020F010001030009005F1180050F824009F
:1027D000009981600098C0F3801060B100200090E3
:1027E000009820F040004030009005F1180050F8AB
:1027F0002400009981600098C0F3400060B100207F
:102800000090009820F00200801C009005F1180054
:1028100050F82400009981600098C0F3C01018B1EE
:102820002146284600F0BEFA641C7608002E7FF48C
:102830007BAF0120F8BD0000100200207CB50446EB
:10284000002500200190204609F01FFD06466FE09C
:1028500006F00100002869D0E9B2204609F01DFD0C
:102860000190019800F00100C8B300200190019888
:1028700020F00100401C019004F1540050F82500A4
:1028800001998160E078012817D104F1540050F8D3
:1028900025000069009005EB850104F55D7000EBF3
:1028A000C10080680099C1F31201411A05EB85024D
:1028B00004F55D7000EBC2008161E9B21E4800685A
:1028C000026820469047E078012808D13DB940F2DF
:1028D0001110005D052802D1204609F097F90198F2
:1028E000C0F3400060B100200190019820F0020088
:1028F000801C019004F1540050F82500019981607A
:102900000198C0F3C00088B10B4800688168204678
:10291000884700200190019820F0080008300190BD
:1029200004F1540050F82500019981606D1C76086F
:10293000002E8DD101207CBD100200203EB5044642
:10294000A07A78B1D4F80C0100680090009820F0CB
:1029500002000090009820F0010000900099D4F847
:102960000C01016000200190019820F00100401C42
:1029700001902069406801998843216948600948AD
:10298000006881692046884700200290029820F064
:10299000004000F1004002900298E1684861012087
:1029A0003EBD0000100200207CB5044600200190CE
:1029B000019820F0100010300190E06880690199C2
:1029C0008843E1688861E068006A0090009800F040
:1029D0000F0000EB800104F55D7000EBC10500986D
:1029E000C0F3434007282DD2DFE800F02C04051D7A
:1029F0001E2C1F0027E00098C0F30A1090B1009829
:102A0000C0F30A122046E96809F051FCE868009911
:102A1000C1F30A110844E860A8690099C1F30A11DA
:102A20000844A8610FE00EE00DE0082204F2CC514A
:102A3000204609F03CFCA8690099C1F30A1108443A
:102A4000A86100E000BF00BFE06880690199084309
:102A5000E168886101207CBD38B5044608480068FB
:102A6000C1682046884700200090009820F00800A8
:102A7000083000900098E1684861012038BD0000EE
:102A8000100200201FB50446002000904FF489700A
:102A9000005D00902348006841692046884720690E
:102AA0008068019000200390039820F4006000F5F6
:102AB000006003900398E1684861A07A70B30198C0
:102AC00000F0010050B340F21510005D012825D13F
:102AD0009DF80000032821D100200290029820F0E8
:102AE0000100401C0290D4F80C01006802990843D0
:102AF000D4F80C110860029820F00200801C0290AB
:102B0000D4F80C01006802990843D4F80C1108604D
:102B10000548006840F0060003490860012004B041
:102B200010BD00001002002010ED00E030B587B0AD
:102B300004460020029006900590049003900190B6
:102B4000029820F00100401C029020694068029920
:102B50008843216948600021204609F023FB0025B5
:102B60000BE0FF2104F1180050F82500816004F10A
:102B7000540050F8250081606D1C6078A842F0D8A0
:102B80004FF0FF312069816106986FF30F00401C00
:102B90000690069880B200F580300690069920696C
:102BA000C161059820F0080008300590059820F0D4
:102BB0000100401C0590059820F00200801C059043
:102BC000059920694161049820F00100401C04909F
:102BD000049820F0080008300490049820F00200C7
:102BE000801C0490049920690161206900680390A9
:102BF000039820F4FE600390039920690160204649
:102C000009F004F800200190019820F4805000F5AC
:102C1000805001900198E1684861044800680169AA
:102C200020468847012007B030BD00001002002078
:102C30002DE9F04106460F463946304609F04CFB77
:102C400001214FF4897081550021801C8155002598
:102C500011E005EB850106F58E7000EBC104012043
:102C600060702570E5800020E0704020A0600020AA
:102C7000E06060616D1C7078A842EAD8002510E021
:102C800005EB850106F55D7000EBC1040020607066
:102C90002570E580E0704020A0600020E060606169
:102CA0006D1C7078A842EBD8304608F0B9FE30466B
:102CB00008F0E9FC0021304609F076FB304608F0C8
:102CC0006FFD304609F037FABDE8F08138B50446AB
:102CD0000020009007480068C16920468847009896
:102CE00020F4801000F5801000900098E1684861A1
:102CF000012038BD1002002038B5044600200090A5
:102D000007480068016A20468847009820F40010B0
:102D100000F5001000900098E1684861012038BD7E
:102D20001002002038B50446E06840680090009822
:102D3000C0F3800020B105480068816A20468847BA
:102D40000098E1684860012038BD000010020020B2
:102D500030B5024615692B6915696C6B24FA01F5CB
:102D600005F0010543EAC51302F1180555F8215095
:102D7000AD6805EA030030BD38B504460848006870
:102D8000416A2046884700200090009820F080404B
:102D900000F1804000900098E1684861012038BD52
:102DA000100200202DE9F84306460F4600250020BA
:102DB000009007EB870106F58E7000EBC104D4E9A3
:102DC0000501451AA068A84200D2A568E81C4FEA90
:102DD000900806F1180050F827008069009029E05B
:102DE000D4E90501451AA068A84200D2A568E81CEC
:102DF0004FEA9008ABB2FAB23046E16809F0FBFA4C
:102E0000E0682844E060A0692844A06106F1180049
:102E100050F8270080690090D4E90501884209D163
:102E20002178012000FA01F93069406B20EA09009D
:102E300031694863009880B2404506D9D4E905104D
:102E4000884202D260690028CAD10120BDE8F88317
:102E500010B502F041F900F07DFA02F053F910BD0F
:102E600010B502F039F900F075FA02F04BF910BD17
:102E70000246094B9A4201D2084801E00648103840
:102E800001F000531BB1064B0B40C36002E0044B42
:102E90000B408360704700001064024000600240F5
:102EA0007D0F7D0F0246094B9A4201D2084801E08E
:102EB0000648103801F000531BB1064B0B40C360AD
:102EC00002E0044B0B408360704700001064024036
:102ED000006002407D0F7D0F21B1026842F00102C7
:102EE000026003E0026822F00102026070470146BE
:102EF000486880B27047000070B502460020002488
:102F00000025124EB24201D2114B01E00F4B103B93
:102F1000104E0E4036B11E2606EAD124166806EA87
:102F2000040502E0566906F0800501F000560EB176
:102F30005C6800E01C68084E344004EA010616B1E3
:102F40000DB1012000E0002070BD000010640240BF
:102F5000006002403C0F3C0F7D0F7D0F10B501F06B
:102F600080034BB122B1436943F08003436103E026
:102F7000436923F08003436180290BD02AB10368A1
:102F800001F01E042343036004E0036801F01E0403
:102F9000A343036010BD000010B500220268134B6C
:102FA0001A40CC680B6823434C6923438C69234344
:102FB000CC6923430C6A23434C6A23438C6A234322
:102FC0004C6B23438C6B23431A430260426922F00B
:102FD0000702D1E90B3423431A4342610B69436072
:102FE0004B6883608B68C36010BD00003F801CF09D
:102FF0004160704770B504460D464FF48041224849
:1030000000F0BAFC49F20101204806F0CEFF4FF46F
:103010007A6000F059F94FF480411B4800F0AEFC93
:103020004FF4FA6000F050F94FF48041164800F078
:10303000A3FC4FF4805040EA0511144806F0B5FF98
:103040004FF47A6000F040F94FF480410E4800F0F0
:1030500095FC4FF4FA6000F037F94FF480410A48CC
:1030600000F08AFC4FF4004040EA0411074806F0E3
:103070009CFF4FF47A6000F027F94FF4804102483A
:1030800000F07CFC70BD000000040240003C0040E9
:1030900070B504460D464FF40051224800F06CFC18
:1030A00049F20101204806F080FF4FF47A6000F0F9
:1030B0000BF94FF400511B4800F060FC4FF4FA602C
:1030C00000F002F94FF40051164800F055FC4FF49F
:1030D000805040EA0511144806F067FF4FF47A600B
:1030E00000F0F2F84FF400510E4800F047FC4FF4A6
:1030F000FA6000F0E9F84FF400510A4800F03CFC97
:103100004FF4004040EA0411074806F04EFF4FF428
:103110007A6000F0D9F84FF40051024800F02EFC1C
:1031200070BD000000040240003C00401FB5044692
:103130000121480706F06CFD3C2000900020019022
:1031400002900220039069462046FFF7C7F801214C
:103150002046FFF7AFF81FBD70B504460D460026A8
:10316000204600F09BF80646012E02D0022E56D1D2
:1031700056E0E07930384FF47A7110FB01F1207A93
:10318000303800EBC00202EB001001EB8001607AE6
:10319000303800EB800001EB4001A07A3038084461
:1031A00080B23C4908814881102D1AD1207B3038EB
:1031B0004FF47A7110FB01F1607B303800EBC002F4
:1031C00002EB001001EB8001A07B303800EB8000A7
:1031D00001EB4001E07B3038084480B22D49888102
:1031E000C8810F2D11D1207B3038642110FB01F1F3
:1031F000607B303800EB800001EB4001A07B303871
:10320000084480B223498881C8810120214908717E
:10321000FEF7F8FEFDF7C4FE01201E49887136E076
:10322000E07930384FF47A7110FB01F1207A3038B0
:1032300000EBC00202EB001001EB8001607A303835
:1032400000EB800001EB4001A07A3038084480B2E6
:10325000104908814881207B3038642110FB01F13E
:10326000607B303800EB800001EB4001A07B303800
:10327000084480B207498881C88101204871FEF75F
:10328000C1FEFDF73DFE01200249C87100BF00BF2D
:10329000304670BD4C2A00207047000070B50546CE
:1032A00000240BE0074850F8241006222846FDF7BA
:1032B000A1F810B9601CC0B270BD641C022CF1DB17
:1032C0000020F9E76000002000BF411E89B2081EFF
:1032D000FBD170472DE9F04F8FB004460D461646DE
:1032E0001F46DDE91AABDDE918891948844204D28A
:1032F0000121480506F06CFC03E00121880506F079
:1033000067FC009501960297CDF80C80CDF81090DF
:10331000002005904FF480600690CDF81CA0CDF8F9
:1033200020B01C9809901D980A9000200B90032053
:103330000C9000200D900E9069462046FFF72CFE61
:1033400000212046FFF7C8FD0FB0BDE8F08F000058
:103350000064024010B509490948FFF7CDFD58B196
:1033600000210748FFF7B8FD64210548FFF740FE3C
:1033700002490348FFF796FD10BD000000802020A1
:10338000A060024070B504460D46164601F0A4FA4E
:10339000FE2101EA440001F053FA01F0DFFA10B116
:1033A00010A0FCF7ABFF284601F04AFA01F0D6FA6C
:1033B00010B10CA0FCF7A2FF01F08EFA012101EB85
:1033C0004401C8B201F03CFA01F0C8FA10B105A0FE
:1033D000FCF794FF01F0E8F9307001F05BFA01F0BE
:1033E0009DFA70BD494943204552524F52200D0A63
:1033F000000000002DE9F04104460F4615461E4628
:103400004FF0000801F068FAFE2101EA440001F0E3
:1034100017FA01F0A3FA10B119A0FCF76FFF3846B4
:1034200001F00EFA01F09AFA10B115A0FCF766FF50
:1034300001F052FA012101EB4401C8B201F000FA97
:1034400001F08CFA10B10EA0FCF758FF00BF0A2063
:10345000FFF73AFF01F0A8F905F8010B08F10100A8
:10346000C0B28046B04202D101F014FA01E001F08E
:10347000C5F9B045EBD101F051FABDE8F08100008B
:10348000494943204552524F52200D0A0000000086
:1034900070B504460D46164601F01EFAFE2101EAFB
:1034A000440001F0CDF901F059FA10B10BA0FCF77E
:1034B00025FF284601F0C4F901F050FA10B107A029
:1034C000FCF71CFF304601F0BBF901F047FA10B1E0
:1034D00002A0FCF713FF01F021FA70BD4949432017
:1034E0004552524F52200D0A0000000010B500F066
:1034F00095F810BD10B5464890F8401090F83F0080
:10350000814205DB424890F840004249087004E0DF
:103510003F4890F83F003F4908703D4890F841000F
:103520003C490978884204DC3A48007839490870F7
:1035300004E0374890F84100364908703548007873
:1035400035490978884262D032480078324908709B
:1035500030480078322819DC0C2230212C20FFF76B
:1035600097FF0C2240212C20FFF792FF0C225021C4
:103570002C20FFF78DFF0C2260212C20FFF788FF05
:103580000C2270212C20FFF783FF40E021480078B7
:10359000322823DD1F4800785F281FDA1D48007895
:1035A00000EB80000C30C4B2224630212C20FFF703
:1035B0006FFF224640212C20FFF76AFF2246502150
:1035C0002C20FFF765FF224660212C20FFF760FFCB
:1035D000224670212C20FFF75BFF18E0FF223021EC
:1035E0002C20FFF755FFFF2240212C20FFF750FF32
:1035F000FF2250212C20FFF74BFFFF2260212C20BF
:10360000FFF746FFFF2270212C20FFF741FF10BD7E
:103610004C2A0020720000207300002008B5802290
:1036200020212C20FFF734FF6A4620212C20FFF7B1
:10363000A9FE00222A212C20FFF72AFF1F222B217E
:103640002C20FFF725FF00222C210846FFF720FF42
:1036500000222D212C20FFF71BFF0C2230212C20D3
:10366000FFF716FF0C2240212C20FFF711FF0C2240
:1036700050212C20FFF70CFF0C2260212C20FFF79B
:1036800007FF0C2270212C20FFF702FF08BD00006D
:103690002DE9F04186B0022305AA3E212C20FFF738
:1036A000A9FE022304AA4E212C20FFF7A3FE022329
:1036B00003AA5E212C20FFF79DFE022302AA6E21A1
:1036C0002C20FFF797FE022301AA7E212C20FFF772
:1036D00091FE9DF815009DF8141000EB0120C0101C
:1036E0004FF4F00191FBF0F084B29DF811009DF8C9
:1036F000101000EB0120C0104FF4F00191FBF0F02E
:1037000085B29DF80D009DF80C1000EB0120C01053
:103710004FF4F00191FBF0F086B29DF809009DF89E
:10372000081000EB0120C0104FF4F00191FBF0F005
:1037300087B29DF805009DF8041000EB0120C01031
:103740004FF4F00191FBF0F01FFA80F8B4F5707FB0
:1037500001DD204600E000202B49A1F84200B5F52C
:10376000707F01DD294600E000212748A0F84410C1
:10377000B6F5707F01DD314600E000212248A0F857
:103780004610B7F5707F01DD394600E000211E4884
:10379000A0F84810B8F5707F01DD414600E0002137
:1037A0001948A0F84A10B4F5707F01DC012100E04F
:1037B0000021154880F84C10B5F5707F01DC01211F
:1037C00000E00021104880F84D10B6F5707F01DC54
:1037D000012100E000210C4880F84E10B7F5707F01
:1037E00001DC012100E00021074880F84F10B8F506
:1037F000707F01DC012100E00021034880F85010B7
:1038000006B0BDE8F08100004C2A002010B500226F
:103810001E4949781D4B9B7819441C4BDB78194491
:103820001A4B197200BF09E01849097A174B5B68F7
:103830009B5C1944154B1972511CCAB21349C978C3
:103840009142F1DC114909780170104949784170C1
:103850000E49897881700D49C978C170002105E051
:103860000A4B5B685C5C0B1DC454491C074BDB783E
:103870008B42F5DC05490B7AC978091D435403498D
:103880004B7AC978491D435410BD00002000002028
:10389000F0B50A4600210023002400BF3DE00125C9
:1038A00005FA01F3156805EA03049C4234D1056862
:1038B0004F000326BE40B543056015794E00B54064
:1038C0000668354305601579012D02D01579022D62
:1038D00016D185684F000326BE40B54385605579F3
:1038E0004E00B540866835438560456801268E40A8
:1038F000B5434560456896798E40B6B2354345601C
:10390000C5684F000326BE40B543C560D5794E005B
:10391000B540C6683543C560491C1029BFD3F0BD0A
:10392000F0B5002300244D07ED0E02FA05F3CE108A
:1039300000F1200555F826504E07F70E0F26BE4021
:10394000B543CF1000F1200646F82750CE1000F105
:10395000200555F8265045EA0304CE1000F1200555
:1039600045F82640F0BD0246002013690B400BB11C
:10397000012000E0002070474183704701837047B9
:1039800042694A404261704710B519484068407822
:1039900017494968097840EA012016490881144806
:1039A0004068C07812494968897840EA0120114985
:1039B00048810F48406840790D494968097940EAD3
:1039C00001200C4988810A484068C0790849496843
:1039D000897940EA01200749C88101204871FEF732
:1039E00011FBFDF78DFA01200249C87110BD0000DE
:1039F000140000204C2A002010B50120194908703D
:103A000019484068407818494968097840EA012017
:103A10001449088114484068C07813494968897876
:103A200040EA01200F4948810F48406840790E491B
:103A30004968097940EA01200A4988810A484068B2
:103A4000C07909494968897940EA01200549C88156
:103A500001200871FEF7D6FAFDF7A2FA012001490C
:103A6000887110BD4C2A002014000020012102485A
:103A700080F85610704700004C2A002001210248AF
:103A800080F85A10704700004C2A0020012102489B
:103A900080F85810704700004C2A0020012102488D
:103AA00080F85510704700004C2A00200121024880
:103AB00080F85910704700004C2A002070B50A4861
:103AC0000468001D0568001D0668344454B10822CE
:103AD0000649204601F0F0F8042204491031284636
:103AE00001F0EAF870BD0000107AFF1F12010020FB
:103AF0000121024880F85710704700004C2A00202E
:103B000008B501217F2006F063F80121080706F0BF
:103B10007FF8012005F01AFF002006F00DF90020C3
:103B200005F014FF08220021FE48FFF7F9FE0822E5
:103B30000121FC48FFF7F4FE002003460222012188
:103B40000090F84800F0EAFA0020034602221146ED
:103B50000090F44800F0E2FA00200346032204211A
:103B60000090F04800F0DAFA002003460322082112
:103B70000090EC4800F0D2FA02200023032210212A
:103B80000090E84800F0CAFA022000230322202116
:103B90000090E44800F0C2FA00200346012211021E
:103BA0000090E04800F0BAFA00200346012291029A
:103BB0000090DC4800F0B2FA4FF48061D948FFF77A
:103BC000DDFE01200023024601460090D64800F0A9
:103BD000A5FA002001231A4640210090D24800F0A7
:103BE0009DFA002001231A4680210090CE4800F063
:103BF00095FA01200023024601020090CA4800F015
:103C00008DFA01200023024641020090C64800F0D0
:103C100085FA01200346024681020090C24800F066
:103C20007DFA012003460246C1020090BE4800F022
:103C300075FA01200023024641030090BA4800F0C3
:103C40006DFA01200023024681030090B64800F07F
:103C500065FA00200346032201210090B34800F0DA
:103C60005DFA00200346032202210090AF4800F0D5
:103C700055FA00200346032204210090AB4800F0CF
:103C80004DFA00200346032208210090A74800F0C7
:103C900045FA00200346032220210090A34800F0AB
:103CA0003DFA002003460122510200909F4800F097
:103CB00035FA06220A219D48FFF732FE0120002333
:103CC000022281020090994800F028FA06220B2176
:103CD0009648FFF725FE012000230222C102009032
:103CE000924800F01BFA06220C219048FFF718FEBC
:103CF000012000230222010300908C4800F00EFAFC
:103D000000200346012251030090884800F006FA83
:103D10004FF400518548FFF731FE00200346012291
:103D200091030090814800F0F9F94FF480417F48F9
:103D3000FFF724FE002003460122D10300907B48B8
:103D400000F0ECF90020034601220221009078489F
:103D500000F0E4F900200346012204210090744899
:103D600000F0DCF904217248FFF708FE002003464A
:103D70000122082100906E4800F0D0F908216C481B
:103D8000FFF7FCFD00200346012210210090684847
:103D900000F0C4F910216648FFF7F0FD0722052165
:103DA0006348FFF7BDFD072206216148FFF7B8FD14
:103DB000002003460222202100905D4800F0AEF969
:103DC00000200346022240210090594800F0A6F945
:103DD00000200346012280210090554800F09EF902
:103DE00080215348FFF7CAFD00200346012211023B
:103DF00000904F4800F092F94FF480714C48FFF763
:103E0000BDFD00200346012251020090484800F009
:103E100085F94FF400714648FFF7B0FD00200346D6
:103E2000012291020090424800F078F900200346F8
:103E30000122D10200903E4800F070F900200346B4
:103E40000122110300903A4800F068F94FF48051C4
:103E50003748FFF793FD00200346012251030090ED
:103E6000334800F05BF900200346012291030090E3
:103E70002F4800F053F9012000231A46C103009097
:103E80002B4800F04BF9012000231A460146009010
:103E9000284800F043F9022000231A46014600900A
:103EA000244800F03BF90020034601220421009041
:103EB000204800F033F90020034602460821009014
:103EC0001C4800F02BF90020034602461021009008
:103ED000184800F023F900200346024620210090F4
:103EE000144800F01BF90020034601221102009043
:103EF000104800F013F90020034602464FF4007109
:103F000000900C4800F00AF9002001231A4699029B
:103F10000090084800F002F94FF480610548FFF76F
:103F20002DFD09E0000002400004024000080240AC
:103F3000000C024000100240002003460122D10282
:103F40000090734800F0EAF80020034602464FF460
:103F5000805100906E4800F0E1F8002003460246D0
:103F60004FF4005100906A4800F0D8F80020012377
:103F70001A4619460090674800F0D0F80020012347
:103F80001A4602210090634800F0C8F8002003465A
:103F90000122042100905F4800F0C0F80020034691
:103FA0000322082100905B4800F0B8F80020034687
:103FB000032210210090574800F0B0F8002003467B
:103FC000032220210090534800F0A8F80020034667
:103FD0000322402100904F4800F0A0F80020034643
:103FE0000322802100904B4800F098F800200346FF
:103FF00003224FF480710090464800F08FF80020B3
:10400000034603224FF400710090424800F086F806
:104010000020034603224FF4806100903D4800F0E9
:104020007DF8002003460122D1020090394800F0BB
:1040300075F800200346012211030090354800F076
:104040006DF800200346012251030090314800F032
:1040500065F8002003460122910300902D4800F0EE
:104060005DF8002003460122D1030090294800F0AA
:1040700055F800200346012211460090264800F022
:104080004DF800200346012202210090224800F052
:1040900045F8002003460122042100901E4800F04C
:1040A0003DF8002003460122082100901A4800F044
:1040B00035F800200346012210210090164800F038
:1040C0002DF800200346012280210090124800F0C4
:1040D00025F880211048FFF74FFC002003460122FD
:1040E000910300900C4800F019F84FF480410A4801
:1040F000FFF744FC002003460122D103009006484C
:1041000000F00CF84FF400410348FFF737FC08BDFE
:104110000010024000140240001802402DE9FC414A
:1041200007460C4615461E46DDF8208000948DF8A3
:10413000045003208DF805008DF806608DF8078087
:1041400069463846FFF7A4FBBDE8FC8170B506461A
:104150003048007800285BD12F480068B0F5006F28
:1041600002D100202C4908602B4800682B490968BF
:10417000884203D100202749087070BD2648006896
:1041800026490968884206D923480068C0F50060BE
:104190002349086006E0214800681F490968401A61
:1041A0001F4908601E480068402811D91A48008835
:1041B00085B2402418480068403017490860184804
:1041C000006840381649086001201249087018E05C
:1041D0001148008885B21248008884B20E480068F1
:1041E0000F49096808440C49086000200C49086020
:1041F000402C03D102200749087002E00120054944
:10420000087008484219234681213046FEF78EF98E
:1042100000BFB2E7600100205801002054010020D7
:104220005C0100207A35002000BFFEE770B505F084
:104230001DFE02211248FFF79FFB80241CE0012194
:104240000F48FFF790FB08B9A54300E025434FF462
:10425000E160FFF739F802210948FFF78FFB4FF4BF
:10426000E160FFF731F802210548FFF785FB4FF4C5
:10427000E160FFF729F86410002CE0D1284670BDFA
:10428000001402402DE9F04106460F4614461D4633
:104290004FF0000800F0B2F8304600F05DF800F092
:1042A000F1F810B10020BDE8F081384600F054F874
:1042B00000F0E8F808B10020F5E700F09FF846F0BC
:1042C000010000F049F800F0DDF808B10020EAE74D
:1042D00000BF4FF4E160FEF7F7FFFFF7A7FF04F818
:1042E000010B08F10100C0B28046A84202D100F0E3
:1042F0005FF801E000F00AF8A845EAD14FF4E16068
:10430000FEF7E2FF00F09CF80120CCE710B505F0C5
:10431000C7FD02210F48FFF72FFB4FF4E160FEF7C6
:10432000D3FF01210B48FFF727FB4FF4E160FEF7B5
:10433000CBFF02210748FFF721FB4FF4E160FEF7B6
:10434000C3FF02210348FFF717FB4FF4E160FEF7BC
:10435000BBFF10BD0014024070B5054605F0A0FD7E
:10436000802420E004EA050020B901210F48FFF76E
:1043700003FB03E001210D48FFF700FB4FF4E16070
:10438000FEF7A2FF02210948FFF7F8FA4FF4E160B7
:10439000FEF79AFF02210548FFF7EEFA4FF4E160BD
:1043A000FEF792FF6410002CDCD170BD00140240B7
:1043B00010B505F075FD02210F48FFF7DDFA4FF447
:1043C000E160FEF781FF01210B48FFF7D7FA4FF4B8
:1043D000E160FEF779FF02210748FFF7CFFA4FF4BB
:1043E000E160FEF771FF02210348FFF7C5FA4FF4C1
:1043F000E160FEF769FF10BD0014024010B505F042
:104400004FFD02210D48FFF7B9FA01210B48FFF7D4
:10441000B5FA4FF4E160FEF757FF01210748FFF7B7
:10442000ABFA4FF4E160FEF74FFF02210348FFF7BC
:10443000A3FA4FF4E160FEF747FF10BD00140240FD
:1044400010B505F02DFD02210D48FFF795FA012169
:104450000B48FFF791FA4FF4E160FEF735FF0221B8
:104460000748FFF78BFA4FF4E160FEF72DFF0121BB
:104470000348FFF783FA4FF4E160FEF725FF10BD14
:104480000014024010B54FF4FA6405F0EFFC4FF44D
:10449000E160FEF719FF05E0601E80B2041E01D145
:1044A000012010BD01210B48FFF75DFA0028F3D170
:1044B00002210848FFF762FA4FF4E160FEF704FFBB
:1044C00002210448FFF758FA4FF4E160FEF7FCFEC2
:1044D0000020E6E70014024070B505F0FBFC4FF445
:1044E00080711348FFF748FA80241CE04FF40071F4
:1044F0001048FFF738FA08B9A54300E025430F201C
:10450000FEF7E2FE4FF480710948FFF737FA0F20FB
:10451000FEF7DAFE4FF480710548FFF72DFA0F2001
:10452000FEF7D2FE6410002CE0D1284670BD0000DA
:1045300000000240000802402DE9F04106460F4607
:1045400014461D464FF0000800F0B8F8304600F061
:104550005DF800F0FDF810B10020BDE8F0813846AC
:1045600000F054F800F0F4F808B10020F5E700F08E
:10457000A5F846F0010000F049F800F0E9F808B1AC
:104580000020EAE700BF3220FEF79EFEFFF7A4FFFF
:1045900004F8010B08F10100C0B28046A84202D124
:1045A00000F064F801E000F009F8A845EBD13C20E8
:1045B000FEF78AFE00F0A6F80120CEE710B505F060
:1045C000A3FC4FF480710F48FFF7D6F90A20FEF7DD
:1045D0007BFE4FF400710C48FFF7CEF90A20FEF77E
:1045E00073FE4FF480710748FFF7C8F90A20FEF701
:1045F0006BFE4FF480710348FFF7BEF90A20FEF707
:1046000063FE10BD000002400008024070B5054680
:1046100005F07AFC802421E004EA050028B94FF473
:1046200000711048FFF7A8F904E04FF400710D483D
:10463000FFF7A4F90520FEF747FE4FF480710A4802
:10464000FFF79CF90520FEF73FFE4FF48071064806
:10465000FFF792F90520FEF737FE6410002CDBD13E
:1046600070BD0000000802400000024010B505F0D7
:104670004BFC4FF480710F48FFF77EF90A20FEF7DC
:1046800023FE4FF400710C48FFF778F90A20FEF77B
:104690001BFE4FF480710748FFF770F90A20FEF700
:1046A00013FE4FF480710348FFF766F90A20FEF706
:1046B0000BFE10BD000002400008024010B54FF490
:1046C00080710E48FFF75AF94FF400710C48FFF75C
:1046D00055F90520FEF7F8FD4FF400710848FFF783
:1046E0004BF90520FEF7F0FD4FF480710348FFF70A
:1046F00043F90520FEF7E8FD10BD00000000024070
:104700000008024010B505F0FFFB4FF480710E4821
:10471000FFF732F94FF400710C48FFF72DF905202F
:10472000FEF7D2FD4FF480710748FFF727F9052007
:10473000FEF7CAFD4FF400710448FFF71FF905208A
:10474000FEF7C2FD10BD000000000240000802405C
:1047500010B54FF4FA6405F0BDFB0520FEF7B4FD7B
:1047600005E0601E80B2041E01D1012010BD4FF48F
:1047700000710B48FFF7F7F80028F2D14FF4807171
:104780000848FFF7FBF80520FEF79EFD4FF4807107
:104790000448FFF7F1F80520FEF796FD0020E5E755
:1047A000000802400000024070B505F02BFB4021DC
:1047B0001148FFF7E1F8802419E080210E48FFF747
:1047C000D2F808B9A54300E025430A20FEF77CFD96
:1047D00040210948FFF7D2F80A20FEF775FD402175
:1047E0000548FFF7C9F80A20FEF76EFD6410002C9B
:1047F000E3D1284670BD00000004024010B505F06A
:104800001BFB40210D48FFF7B7F80A20FEF75CFDBF
:1048100080210A48FFF7B0F80A20FEF755FD402135
:104820000648FFF7ABF80A20FEF74EFD402103488B
:10483000FFF7A2F80A20FEF747FD10BD0004024072
:1048400070B5054605F0F8FA80241DE004EA05007D
:1048500020B980210E48FFF78FF803E080210C4833
:10486000FFF78CF80A20FEF72FFD40210848FFF7DC
:1048700085F80A20FEF728FD40210548FFF77CF85F
:104880000A20FEF721FD6410002CDFD170BD00006E
:104890000004024010B505F0CFFA40210D48FFF7A3
:1048A0006BF80A20FEF710FD80210A48FFF766F832
:1048B0000A20FEF709FD40210648FFF75FF80A20AD
:1048C000FEF702FD40210348FFF756F80A20FEF7E5
:1048D000FBFC10BD0004024010B505F0ADFA40210C
:1048E0000D48FFF74BF80A20FEF7EEFC80210A483E
:1048F000FFF744F80A20FEF7E7FC80210648FFF79F
:104900003BF80A20FEF7E0FC40210348FFF734F8AB
:104910000A20FEF7D9FC10BD0004024010B505F0D6
:104920008BFA40210C48FFF727F880210A48FFF74F
:1049300023F80A20FEF7C8FC40210748FFF71EF8BD
:104940000A20FEF7C1FC80210348FFF717F80A2070
:10495000FEF7BAFC10BD00000004024010B54FF491
:10496000FA6405F04FFA0520FEF7AEFC05E0601E84
:1049700080B2041E01D1012010BD80210A48FEF73B
:10498000F2FF0028F3D140210748FEF7F7FF0A2085
:10499000FEF79AFC40210448FEF7EEFF0A20FEF7DE
:1049A00093FC0020E8E700000004024070B500F02E
:1049B00017F94FF480711348FEF7DEFF80241CE0E6
:1049C0004FF400710F48FEF7CEFF08B9A54300E091
:1049D0002543C820FEF778FC4FF480710948FEF7A4
:1049E000CDFFC820FEF770FC4FF480710548FEF73C
:1049F000C3FFC820FEF768FC6410002CE0D12846F5
:104A000070BD00000004024010B500F001F94FF441
:104A100080710F48FEF7B0FFC820FEF755FC4FF439
:104A200000710B48FEF7A8FFC820FEF74DFC4FF4BD
:104A300080710748FEF7A2FFC820FEF745FC4FF43F
:104A400080710348FEF798FFC820FEF73DFC10BDBB
:104A50000004024070B5054600F0DAF8C820FEF701
:104A600033FC802421E004EA050028B94FF40071EA
:104A70000F48FEF781FF04E04FF400710C48FEF789
:104A80007DFFC820FEF720FC4FF480710848FEF738
:104A900075FFC820FEF718FC4FF480710448FEF73C
:104AA0006BFFC820FEF710FC6410002CDBD170BD3A
:104AB0000004024010B500F0ABF84FF480710F48CD
:104AC000FEF75AFFC820FEF7FFFB4FF400710B48BA
:104AD000FEF754FFC820FEF7F7FB4FF4807107483C
:104AE000FEF74CFFC820FEF7EFFB4FF48071034840
:104AF000FEF742FFC820FEF7E7FB10BD00040240AE
:104B000010B500F085F84FF480710E48FEF736FFBF
:104B10004FF400710B48FEF731FFC820FEF7D4FBBD
:104B20004FF400710748FEF727FFC820FEF7CCFBC3
:104B30004FF480710348FEF71FFFC820FEF7C4FB47
:104B400010BD00000004024010B500F061F84FF401
:104B500080710E48FEF710FF4FF400710B48FEF70E
:104B60000BFFC820FEF7B0FB4FF480710748FEF73B
:104B700005FFC820FEF7A8FB4FF400710348FEF7BD
:104B8000FDFEC820FEF7A0FB10BD0000000402409F
:104B900010B541F2883400F023F805E0601E80B2C1
:104BA000041E01D1012010BD4FF400710B48FEF727
:104BB000DAFE0028F2D14FF480710848FEF7DEFEDD
:104BC000C820FEF781FB4FF480710448FEF7D4FE45
:104BD000C820FEF779FB0020E5E700000004024052
:104BE0001CB54FF40070009000208DF804000320E5
:104BF0008DF8050000208DF8060001208DF80700D3
:104C000069460248FEF744FE1CBD00000004024055
:104C10001CB54FF40070009001208DF804000320B3
:104C20008DF8050000208DF8060001208DF80700A2
:104C300069460248FEF72CFE1CBD0000000402403D
:104C400000B587B0FBF784FE4FF440304FF480711D
:104C50004A01CB00CDE90232CDE904102820002121
:104C60000D4B0E4ACDE900100D48FEF733FB012134
:104C70000B48FEF731F9012108484C38FBF7BBFD22
:104C8000012106484C38FBF7ABFD04484C38FBF7D4
:104C900043FE07B000BD0000A83300204C200140B7
:104CA0001064024001200349C870F120496808706F
:104CB000704700002000002030B50B46002100BFE7
:104CC00016E00A24B4EB107F05D9302404EB1074ED
:104CD00003F8114005E0412404EB10740A3C03F88A
:104CE0001140000100254C00641C1D554C1CE1B214
:104CF0009142E6DB30BD00BFFEE730B505460C460D
:104D000022460021284600F001F830BD2DE9F0418F
:104D100005460B4694460027002402E03F021F434D
:104D2000641C042CFAD3604605F00306294646B1FC
:104D3000344603E001F8013B401E641C08B1042C1A
:104D4000F8D30A4601E080C2001F0428FBD21146B6
:104D500002E001F8013B401E0028FAD1BDE8F081D5
:104D60007047000070B5002100230F22C4781CB3E7
:104D7000174C246804F4E064C4F5E064C4F307212C
:104D8000C1F10404E3B20A4144789C40E1B2847862
:104D9000144021430C07210E0E4C05786155047810
:104DA00004F01F050124AC4005786D11AD0005F13C
:104DB000E025C5F8004109E0047804F01F0501244E
:104DC000AC40054D0678761145F8264070BD0000D0
:104DD0000CED00E000E400E080E100E00249014366
:104DE000024A1160704700000000FA050CED00E077
:104DF000024A0A400243024B1A60704780FFFF1FBD
:104E000008ED00E070B52DED088B0446204608F053
:104E10004BF941EC1B0B9FED0F0B53EC102B08F0E3
:104E200057F941EC1A0B9FED0D0B53EC102B07F0CB
:104E30006FFF41EC190B9FED0B0B53EC102B08F09F
:104E400045FA41EC180B08F0EBF885B22846BDECAA
:104E5000088B70BD3333333333333D4000000000E3
:104E6000000059400000000000E0734008B54FF416
:104E7000E060FFF7B3FF34208DF8000000208DF8CC
:104E8000010001208DF802008DF803006846FFF74D
:104E900069FF11208DF8000000208DF8010002202C
:104EA0008DF8020001208DF803006846FFF75AFFD5
:104EB0000F208DF8000000208DF8010003208DF8F0
:104EC000020001208DF803006846FFF74BFF262003
:104ED0008DF8000000208DF8010004208DF80200FC
:104EE00001208DF803006846FFF73CFF1C208DF879
:104EF000000000208DF8010005208DF8020001203F
:104F00008DF803006846FFF72DFF08BD70470000CD
:104F100010B50348006810B101480068804710BD13
:104F20003C02002070B5044600F0C2F80020484959
:104F3000087048490870484908704849086048495D
:104F4000086048490870484908704849087048494D
:104F5000086048490860484908604849087048485E
:104F600000680A21B0FBF1F0464908604648006835
:104F700058B14648056845B14348066803E0761EC7
:104F8000002028602D1D002EF9D100204049086026
:104F9000404908604049086040490860404908604D
:104FA00040490860404908604049087002F0F2FD3D
:104FB00002F0D2FE204601F03DFF208800B170BD16
:104FC000204602F01DFB208800B1F8E7204602F0E1
:104FD00023FB208800B1F2E7204602F01FFC208866
:104FE00000B1ECE7204602F005FE208800B1E6E7BC
:104FF000204603F025F8208800B1E0E7204603F0C2
:105000003FFB208800B1DAE7204602F065FA2088ED
:1050100000B1D4E7204602F07FF8208800B1CEE747
:10502000204604F0BDFA208800B1C8E7204603F00E
:1050300071FA208800B1C2E7204604F029FB2088DD
:1050400000B1BCE701F020FEFFF760FF00BFB6E74C
:105050005002002051020020980200200803002086
:105060000C0300207E0200207F020020800200202E
:105070008C0200209002002094020020A002002058
:1050800024D500089C020020F4D40008F0D40008C5
:105090003002002034020020380200203C020020B0
:1050A000400200204402002048020020CE020020DE
:1050B000064800680649096800EB81000549086058
:1050C0000846006820F0070008607047F0D4000828
:1050D000F4D400081003002008480078012800D00C
:1050E000704707480078FA2800DBF9E704480078A1
:1050F000401C0349087000BFF2E700005102002085
:105100005002002010B500242D480078012800D05E
:1051100010BD00BFFBF7DAF8044600BF294800784D
:1051200028B900BF2046FBF7D5F800BFF0E72548B7
:105130000078401E2349087008460078002805DDE5
:1051400000BF2046FBF7C6F800BFE1E71E48007825
:10515000002805DD00BF2046FBF7BCF800BFD7E7FD
:1051600002F004FD194908700846007800EB400081
:10517000174951F820001749086008460068164989
:105180000968884205D100BF2046FBF7A3F800BF9D
:10519000BEE710480068D0F88C00401C0D49096833
:1051A000C1F88C000D480068401C0C490860FBF7F2
:1051B000B3FA00BF2046FBF78DF800BF00BFA7E79A
:1051C0005102002050020020980200207F0200209F
:1051D000985200200C03002008030020C402002085
:1051E0002DE9F04104460E4615460027294800786F
:1051F000002804DD42F6E1602880BDE8F0811CB99A
:1052000045F6C3502880F8E700BF00BF00BFFBF79A
:105210005DF8074600BF00BF1F480078401C1E49CC
:10522000087000BF00BF3846FBF754F800BF00BF4E
:1052300000BF1A48206066600020206284F82500C4
:10524000A062402084F8240004F1080002F09DFBD5
:10525000204602F0CBFA12480088401C1049088012
:1052600000BF00BF00BFFBF731F8074600BF00BF1B
:1052700009480078401E0849087000BF00BF384642
:10528000FBF728F800BF00BF00BF0020288000BF48
:10529000B3E7000050020020980200204D555458FA
:1052A0007C0200202DE9F04788B0054689469046EB
:1052B0001C46109E4FF0000AAB480078002805DD20
:1052C00046F2AE10308008B0BDE8F0871DB945F653
:1052D000C3503080F7E7B8F1000F03D0B8F5004FA6
:1052E00002D100E000BF03E045F625603080EAE728
:1052F00000BF9E492868884203D045F6C4503080DC
:10530000E1E70CB10020206000BF00BFFAF7DEFF2C
:10531000824600BF00BF95F82500C0B994480068D8
:1053200028629348006890F8370085F8240001202F
:1053300085F825000CB1A86A206000BF00BF504668
:10534000FAF7C8FF00BF00BF00203080BBE78849E4
:10535000286A0968884212D195F82500401C85F812
:1053600025000CB1A86A206000BF00BF5046FAF7C4
:10537000B1FF00BF00BF45F282703080A3E708F4A0
:10538000004050B100BF00BF5046FAF7A3FF00BF76
:1053900000BF46F2B010308095E7764800780028CC
:1053A0000ADD00BF00BF5046FAF794FF00BF00BF00
:1053B00046F66350308086E700BF6E480078401C98
:1053C0006C49087000BF00BF5046FAF783FF00BF6A
:1053D00000BF00BF2F6A97F837006549096891F848
:1053E0003710884260DD97F8360008282AD2DFE8B7
:1053F00000F004151E1F17162021384602F034FD58
:105400005B48006890F8370087F8370097F8370056
:1054100002F0CCFB384602F0C7FC44E000BF00BFFE
:105420005348006890F8370087F837003BE000BF2A
:1054300000BF00BF4E48006890F83710384602F0B1
:1054400081FA30E000BF00BF00BFFAF73FFF82469D
:1054500000BF00BF47480078401E46490870084614
:105460000078A0B944480088002809DD00BF00BFCB
:105470005046FAF72FFF00BF00BF02F023FD0DE0FA
:1054800000BF00BF5046FAF725FF00BF06E000BF8F
:1054900000BF5046FAF71EFF00BF00BF00BF46F630
:1054A0002D6030800FE700BF4B4604222946684636
:1054B00002F0C0F900BF00BF00BFFAF707FF824645
:1054C00000BF00BF2B480078401E2A49087000BF6B
:1054D00000BF5046FAF7FEFE00BF00BF00BF00F05D
:1054E00073F900BF00BFFAF7F1FE824600BF00BFAC
:1054F0001F48006890F8350030B101280CD0022810
:105500001AD0032821D110E01CB119480068006CA2
:105510002060002030801CE01CB115480068006C41
:10552000206046F2A910308013E00CB1002020600A
:1055300047F2D92030800CE01CB10D480068006CA7
:10554000206045F6C250308003E046F62E60308081
:1055500000BF00BF00BF00BF5046FAF7BBFE00BF50
:1055600000BF00BFAFE60000500200204D55545868
:1055700008030020980200205C0200202DE9F84F6B
:105580000446884615464FF0000A894800780028EE
:1055900004DD46F20E202880BDE8F88F1CB945F6E0
:1055A000C3502880F8E7B8F1000F03D0B8F5004FDA
:1055B00002D100E000BF03E045F625602880EBE75C
:1055C00000BF7C492068884203D045F6C45028803B
:1055D000E2E700BF00BFFAF779FE824600BF00BFD6
:1055E0007549206A096888420AD000BF00BF50464A
:1055F000FAF770FE00BF00BF45F281702880CBE74C
:1056000000BF6E480078401C6C49087000BF00BFA6
:105610005046FAF75FFE00BF00BF00BFFCF7ECFC8E
:105620000746A76294F82500401E84F8250094F8E8
:105630002500002830DD00BF00BF00BFFAF746FE9E
:10564000824600BF00BF5D480078401E5B4908707D
:1056500008460078A0B95A480088002809DD00BF34
:1056600000BF5046FAF736FE00BF00BF02F02AFC2A
:105670000DE000BF00BF5046FAF72CFE00BF06E069
:1056800000BF00BF5046FAF725FE00BF00BF00BFB5
:1056900045F2837028807FE704F10809B9F8080013
:1056A00098BB0020206284F8250000BF00BF00BF27
:1056B000FAF70CFE824600BF00BF40480078401E4B
:1056C0003E49087008460078A0B93D480088002887
:1056D00009DD00BF00BF5046FAF7FCFD00BF00BF68
:1056E00002F0F0FB0DE000BF00BF5046FAF7F2FDFC
:1056F00000BF06E000BF00BF5046FAF7EBFD00BF59
:1057000000BF00BF0020288046E7FFE72A48006866
:1057100090F8370094F82410884219D02648006881
:1057200002F0A2FB94F824002349096881F83700AD
:105730002149096891F8370002F038FA1E480068DC
:1057400002F052FB1C48006890F837001D490870B1
:10575000D9F800008668266296F8370084F824009D
:10576000012084F8250000231A4631462046009780
:1057700002F07CF900BF00BF00BFFAF7A7FD824628
:1057800000BF00BF0D480078401E0C49087000BFE4
:1057900000BF5046FAF79EFD00BF00BF00BF08F4EF
:1057A000004008B900F010F80020288000BFF3E6A0
:1057B000500200204D555458080300209802002044
:1057C0005C0200207E02002010B500241F480078F3
:1057D000002800DD10BD1E480078002800DDF9E734
:1057E00000BFFAF773FD044600BF02F0BFF9194984
:1057F00008700846007800EB4000174951F8200077
:10580000164908600846006815490968884205D1AC
:1058100000BF2046FAF75EFD00BFDBE70F480068D7
:10582000D0F88C00401C0D490968C1F88C000D4867
:105830000068401C0B490860FAF769FF00BF20466A
:10584000FAF748FD00BF00BFC4E700005002002087
:10585000980200207F020020985200200C030020B4
:1058600008030020C402002070B504460025184833
:105870000078002803DD46F66250208070BD154890
:105880000078012803D045F689602080F6E71248A9
:105890000078FA2803DB45F209202080EEE700BFFC
:1058A00000BFFAF713FD054600BF00BF0A480078A5
:1058B000401C0949087002F02FFB00BF00BF2846BA
:1058C000FAF708FD00BF00BF0020208000BFD5E729
:1058D0005002002051020020980200202DE9F041E2
:1058E00005460C461646002700BF00BFFAF7EEFC3F
:1058F000074600BF00BF012D03D000200D490870EE
:1059000002E001200B49087014B10B48046006E066
:105910000A4800680A21B0FBF1F00749086000BF9F
:1059200000BF3846FAF7D6FC00BF00BF0020308029
:10593000BDE8F081A00200209C02002024D50008D0
:1059400070B50446002520480078002803DD46F69F
:105950006550208070BD1D480078012803D045F6B1
:1059600089602080F6E71A48007818B946F6645036
:105970002080EFE700BF00BFFAF7A8FC054600BF94
:1059800000BF13480078401E11490870084600788F
:1059900000280ADD00BF00BF2846FAF79BFC00BFC5
:1059A00000BF46F663502080D4E702F0C3FA00BF80
:1059B00000BF2846FAF78EFC00BF00BFFFF704FFC8
:1059C0000020208000BFC5E75002002051020020C7
:1059D0009802002010B5044612480078E8B902F099
:1059E000C5F81149087008460078104908700E483B
:1059F000007800EB40000E4951F820000D49086086
:105A0000084600680C490860012006490870FAF74A
:105A10006DFE43F69920208002E045F68A602080E2
:105A200010BD0000510200207F0200207E020020F5
:105A3000985200200C030020080300202DE9F041BB
:105A400007464FF0000800BF00BFFAF73FFC804652
:105A500000BF00BF00203D4908603D4908803D4926
:105A600008803D4908603D4908603D4908603D495E
:105A700008603D49088100BF00BF4046FAF72AFC94
:105A800000BF00BF00BF00BFFAF720FC804600BF88
:105A900000BF3648046800BF00BF4046FAF71AFC52
:105AA00000BF00BF21E000BF00BFFAF70FFC804637
:105AB00000BF00BF00207434E06320602063A06159
:105AC000A082E0826062A062FCF796FA2062743CD9
:105AD00004F160060020B081D4F8B84000BF00BFD8
