:020000040800F2
:10000000084F002069020008412A0008B5270008AF
:10001000D72900086D0C0008F196000800000000C8
:10002000000000000000000000000000D77500087C
:10003000791C0008000000008F030008DD7700082D
:10004000830200088302000883020008830200087C
:10005000830200088302000883020008830200086C
:10006000830200088302000883020008830200085C
:10007000830200088302000883020008051A0008B2
:1000800083020008151A0008830200088302000892
:10009000830200088302000883020008830200082C
:1000A000830200088302000883020008830200081C
:1000B000830200088302000883020008830200080C
:1000C00083020008830200088302000883020008FC
:1000D0008302000883020008657900088302000893
:1000E00083020008830200088302000883020008DC
:1000F00083020008830200088302000883020008CC
:1001000083020008830200088302000883020008BB
:100110005579000883020008830200088302000862
:10012000830200088302000883020008830200089B
:10013000830200088302000883020008830200088B
:10014000830200088302000883020008E5720008A9
:10015000830200088302000883020008830200086B
:10016000830200088302000883020008830200085B
:10017000830200088302000883020008830200084B
:10018000830200088302000800F002F800F05CF827
:100190000AA090E8000C82448344AAF10107DA45E2
:1001A00001D100F051F8AFF2090EBAE80F0013F0D8
:1001B000010F18BFFB1A43F00103184798A600006F
:1001C000B8A600000A444FF0000C10F8013B13F0F1
:1001D000070408BF10F8014B1D1108BF10F8015BA0
:1001E000641E05D010F8016B641E01F8016BF9D193
:1001F00013F0080F1EBF10F8014BAD1C0C1B09D1EA
:100200006D1E58BF01F801CBFAD505E014F8016B5B
:1002100001F8016B6D1EF9D59142D6D370470000ED
:100220000023002400250026103A28BF78C1FBD8FF
:10023000520728BF30C148BF0B6070471FB50AF096
:1002400005FA1FBD10B510BD00F04BF81146FFF7C1
:10025000F5FF09F029FC00F069F803B4FFF7F2FF9D
:1002600003BC00F071F800000948804709480047C6
:10027000FEE7FEE7FEE7FEE7FEE7FEE7FEE7FEE756
:10028000FEE7FEE704480549054A064B70470000B3
:100290004D7800088901000808490020084F002017
:1002A000084B0020084B002072B6704762B67047BA
:1002B000EFF3108072B6704780F31088704730BF3C
:1002C000704720BF7047B0FA80F0704790FAA0F0F6
:1002D000B0FA80F0704790FAA0F07047704770470E
:1002E0007047754600F02CF8AE4605006946534647
:1002F00020F00700854618B020B5FFF7C3FFBDE822
:1003000020404FF000064FF000074FF000084FF07C
:10031000000B21F00701AC46ACE8C009ACE8C0090D
:10032000ACE8C009ACE8C0098D46704710B504467A
:10033000AFF300802046BDE81040FFF78EBF0000FD
:1003400000487047A848002001491820ABBEFEE7CE
:10035000260002007047000022484FF6FF7101702E
:10036000002080F309882048016881F308881F482D
:100370004FF08051016062B6FEE71C484FF080519B
:100380000160704719484FF080510160704772B6A4
:10039000EFF3098050B11EF0100F08BF20ED108A56
:1003A000203880E8F00F12490968086000B511484C
:1003B00080475DF804EB104810490A7802700C4839
:1003C0000F490A680260106890E8F00F20301EF0B4
:1003D000100F08BFB0EC108A80F309884EF0040EAD
:1003E00062B6704722ED00E0BC02002004ED00E0A0
:1003F000B40200204D4200083202002033020020E7
:10040000B802002021B1826842F00102826003E05C
:10041000826822F001028260704700000021084AD1
:100420001168084A1140D0E900231A4383681A432F
:10043000C3681A431143044AC2F80413704700000A
:1004400004230140E030FCFF0020014021B182681C
:1004500042F48072826003E0826822F480728260DB
:100460007047000030B50246002000235068104C51
:1004700020400D790C6844EA0524204350609068C0
:100480000C4C2040D1E903542C438D682C434D790A
:1004900044EA450420439060D06A20F470000C7D4B
:1004A000641EE4B2234340EA0350D06230BD000032
:1004B000FFFEFFFCFDF7FFC0F0B504460D4600202F
:1004C0000021092D11DDE068A5F10A0606EB4607BB
:1004D000072606FA07F18843A5F10A0606EB460649
:1004E00003FA06F10843E0600CE0206905EB4507DC
:1004F000072606FA07F1884305EB450603FA06F1DD
:1005000008432061072A0FDA606B561E06EB860748
:100510001F2606FA07F18843561E06EB860605FAE3
:1005200006F10843606322E00D2A0FDA206BD61F24
:1005300006EB86071F2606FA07F18843D61F06EB4F
:10054000860605FA06F10843206310E0E06AA2F18E
:100550000D0606EB86071F2606FA07F18843A2F16F
:100560000D0606EB860605FA06F10843E062F0BDCB
:10057000816841F0804181607047000030B58BB0E8
:1005800004460D461D48844203D10121801506F022
:10059000EBFE1B48844203D10121401506F0E4FE26
:1005A0001848844203D10121001506F0DDFE002029
:1005B00007904FF480300890002009904FF470604D
:1005C0000A9007A8FFF72AFF0020019001208DF86C
:1005D00008008DF80900002003904FF0706004902F
:1005E000002005908DF8185001A92046FFF73AFF2A
:1005F00001212046FFF706FF0BB030BD002001406F
:10060000002101400022014010B51B48408841F6FE
:100610004C5188422FDD18484088B0F57A7F2ADA9D
:1006200015488088884226DD13488088B0F57A7F97
:1006300021DA11484089B0F5FA7F1CDD0E48408967
:10064000FA2818DA0C488089B0F5FA7F13DD0A48D9
:100650008089FA280FDA0849488800F06AF80649C4
:10066000888800F050F80449488900F041F80249B0
:10067000888900F03DF810BD901B002010B51B4884
:10068000408841F64C5188422FDD18484088B0F52B
:100690007A7F2ADA15488088884226DD13488088C8
:1006A000B0F57A7F21DA1148C08888421DDD0F48F5
:1006B000C088B0F5FA7F18DA0C480089884214DD4A
:1006C0000A480089B0F5FA7F0FDA0849488800F037
:1006D00030F80649888800F016F80449C88800F008
:1006E00037F80249088900F019F810BD901B002066
:1006F00070B50446204606F003FE0546E9B2022026
:1007000001F052FA70BD70B50446204609F0FEF8BB
:100710000546E9B2012001F07BFA70BD70B50446D0
:10072000204609F0F3F80546E9B2022001F070FA1C
:1007300070BD70B50446204609F040F905462946CB
:10074000002000F0CFFB0121002000F0DBFB70BD9A
:1007500070B50446204609F031F9054629460020C7
:1007600000F0C0FB0121102000F0CCFB70BD0000A8
:100770000EB51BE00E480078012804D100200C497A
:100780000870FFF77BFF0A484078012804D1002059
:1007900007494870FFF738FF02A8082132230022DA
:1007A000CDE900101146104603F01AFEE2E7000002
:1007B000901B002000B58BB00AA8032100220592EF
:1007C000CDE90621089010464FF480711922074B9D
:1007D000CDE90132CDE9031006200023044A05A12A
:1007E0000090084802F0FAFF0BB000BD1012002084
:1007F000710700084170705F41646A566F6C5F5406
:1008000061736B00581100200EB577E04FF48071D2
:100810003B4801F0F4FB02A8082132230022CDE975
:1008200000101146104603F0DBFD4FF40071344810
:1008300001F0E5FB02A8082132230022CDE90010D7
:100840001146104603F0CCFD4FF480612C4801F0B6
:10085000D6FB02A8082132230022CDE90010114660
:10086000104603F0BDFD4FF40061254801F0C7FBC1
:1008700002A8082132230022CDE9001011461046BB
:1008800003F0AEFD4FF480711D4801F0BAFB02A8E1
:10089000082132230022CDE900101146104603F052
:1008A0009FFD4FF40071164801F0ABFB02A8082130
:1008B00032230022CDE900101146104603F090FDCE
:1008C0004FF480610E4801F09CFB02A808213223FE
:1008D0000022CDE900101146104603F081FD4FF4CF
:1008E0000061074801F08DFB02A808213223002295
:1008F000CDE900101146104603F072FD86E70000B6
:100900000010024000B58BB00AA803210022059216
:10091000CDE90621089010464FF480711922074B4B
:10092000CDE90132CDE9031004200023044A05A1DA
:100930000090084802F052FF0BB000BD6008002094
:10094000090800084170705F4C65645F5461736B07
:1009500000000000A807002010B586B0002400F0B9
:1009600087F905A802F0B8FE00BF00BF00BFFFF77F
:100970009FFC044600BF00BF2C480078401C2B4958
:10098000087000BF00BF2046FFF796FC00BF00BF05
:1009900000BF05A80021264A0223CDE90032CDE997
:1009A000021001231A4623A1274803F039FE05A9A6
:1009B000254803F08FFEFFF7A5FF00F0FBF8FFF7D7
:1009C000F9FE00F0A7F805A9204803F00FFC00BFCE
:1009D00000BF00BFFFF76CFC044600BF00BF134818
:1009E0000078401E1149087008460078A0B91848E0
:1009F0000088002809DD00BF00BF2046FFF75CFC2F
:100A000000BF00BF04F0D6FF0DE000BF00BF2046CE
:100A1000FFF752FC00BF06E000BF00BF2046FFF713
:100A20004BFC00BF00BF00BF06B010BD4C02002051
:100A30009B9A00085379735F537461746543686BC4
:100A40005F546D720000000078030020C002002097
:100A50001002002000B58BB00AA8032100220592E5
:100A6000CDE90621089010464FF480711922074BFA
:100A7000CDE90132CDE9031003200023044A05A18A
:100A80000090084802F0AAFE0BB000BDA8030020A9
:100A9000590900084170705F53746172745F54614A
:100AA000736B0000C00200200EB52EE01748007FD7
:100AB00001280FD18102164801F098FA28B14FF4AD
:100AC0008061134801F09BFA04E04FF48061104804
:100AD00001F097FA0D48007F20B94FF480610C486F
:100AE00001F08DFA0948007F022803D1410208482D
:100AF00001F087FA02A808214FF4FA730022CDE929
:100B000000101146104603F06BFCCFE7901B00204D
:100B1000000C024000B58BB00AA803210022059208
:100B2000CDE90621089010464FF480711922074B39
:100B3000CDE90132CDE9031009200023044A05A1C3
:100B40000090094802F04AFE0BB000BDC816002014
:100B5000A90A00084170705F53797353746174651A
:100B60005F5461736B0000001016002019E008F05C
:100B70000DFEB0B10B480068C1B20B4806F08EFC08
:100B800001280BD100F0C6F8084801F079F90748B0
:100B9000C078811D0648C26804489047002001497A
:100BA0000860E4E76800002006260020600C0020B2
:100BB0007400002000B58BB00AA803210022059222
:100BC000CDE90621089010464FF480711922074B99
:100BD000CDE90132CDE9031005200023044A05A127
:100BE0000090084802F0FAFD0BB000BD580D00203F
:100BF0006D0B00084170705F5573625F5461736BD9
:100C000000000000A00C00201FB5684606F0BCFBE9
:100C1000019804B010BD000008B500214FF000603D
:100C200001F056FF01F05EFF01F098FA0B480C4B03
:100C30000C4A012100900C4807F017FA06F0D8FD85
:100C400000F0F0F801F01AF806F044FD08F0D4FDC9
:100C500001F060FE01F0E6F808BD0000E0000020B1
:100C60002001002088000020B01B002000BFFEE70C
:100C700010B500F01FF800F019F810BD10B50024F1
:100C800000BF00BFFFF714FB044600BF00BF1021E8
:100C9000054801F0A2FE00BF00BF2046FFF70CFB95
:100CA00000BF00BF10BD0000462E002010B5FFF7AA
:100CB000E5FF10BD10B500200249086000F00AF8F9
:100CC00010BD0000D80100200149086070470000F5
:100CD000D801002010B5FFF797FF044608480068C8
:100CE00040F08070064908600020064948600846C8
:100CF000006840F0010008602046FFF7E5FF10BDE6
:100D0000FCED00E0001000E0014948687047000079
:100D1000001000E000B50D48807830B1012807D000
:100D2000022808D003280CD108E001F0F1F90BE00B
:100D300001F0CAF908E001F097F905E001F064F963
:100D400002E001F01FFE00BF00BF00BD1400002044
:100D500010B540F224412D4806F030FE18B340F2A1
:100D600024412A4806F006FE284800882748001D2E
:100D700000880021264800F089FE2649244800F01A
:100D800051FE234800F08DFEC0F104002249087195
:100D9000084600681E494039C8640420486401219F
:100DA0001B4800F073FE40F224411C4806F006FE8A
:100DB00050B340F22441194806F0DCFD1748008882
:100DC0001648001D008800211148483000F05EFEE2
:100DD00010490F48483000F025FE0D48483000F01B
:100DE00060FEC0F104000E49087108460068084919
:100DF00054310860042006494039C1F88C000121B3
:100E00000348483000F042FE10BD0000004C004096
:100E100040600240200000203800002000440040D4
:100E20004800002000B585B04FF4E131294808F0B2
:100E300061FC002240F22551264806F0E9FD00221F
:100E400040F22771234806F0E3FD012240F22441DD
:100E5000204806F0DDFD012240211E4806F0A5FDD8
:100E6000012280211B4806F0A0FD4FF440300021F4
:100E700001910291CDE90310042000901648154A13
:100E8000121D51060368154800F062FF4FF4403010
:100E9000002101910291CDE9031004200090104837
:100EA0000C4A121D510603680C48183000F050FF20
:100EB00001210A4800F0EAFD00210848183000F03E
:100EC000E5FD012210210548183000F021FE05B093
:100ED00000BD00000044004048000020886002403F
:100EE0005000002008B500220092054A009200F14F
:100EF0000802009B1A440092009A116008BD00008D
:100F00000074004010B541B1084A12680409012379
:100F1000A3401A43054B1A6007E0044A126804090B
:100F20000123A3409A43014B1A6010BD0474004092
:100F300070B506460C4604F08000802808D104F005
:100F40007F0000EB800106F58E7000EBC10507E025
:100F500004F07F0000EB800106F55D7000EBC10539
:100F600004F07F00287004F08000C00968702946F2
:100F7000304608F04EF8002070BD70B506460C46AD
:100F800004F08000802808D104F07F0000EB80018D
:100F900006F58E7000EBC10505E004EB840106F553
:100FA0005D7000EBC1050020A87004F07F00287080
:100FB000C4F3C01068702946304608F002F80020DB
:100FC00070BD2DE9F04106460D4690461F4605F0DE
:100FD0008000802808D105F07F0000EB800106F535
:100FE0008E7000EBC10407E005F07F0000EB80018C
:100FF00006F55D7000EBC10405F07F00207005F080
:101000008000C0096070C4F80880E770607808B19B
:101010002078E080022F01D1002020712146304647
:1010200007F083FF0020BDE8F0812DE9F04105467F
:101030000E461746984606F07F0000EB800105F546
:101040005D7000EBC104E760C4F814800020A0616B
:10105000607006F07F002070E878012800D12761D9
:10106000207820B92146284607F083FE03E0214678
:10107000284608F04DF80020BDE8F08108B50022B0
:101080000092009A61F30A12009202691268009BB2
:101090001A4303691A6008BD70B506460C4604F091
:1010A0008000802808D104F07F0000EB800106F565
:1010B0008E7000EBC10505E004EB840106F55D7060
:1010C00000EBC1050120A87004F07F002870C4F374
:1010D000C01068702946304607F0E8FF002070BD58
:1010E0002DE9F04107460D461646984605F07F006B
:1010F00000EB800107F58E7000EBC10401206070E9
:1011000005F07F002070E66026610020A061C4F831
:101110001480207820B92146384607F02AFE03E0E3
:101120002146384607F0F4FF0020BDE8F0810000BA
:1011300030B587B00546594C284607F0E0FD01A8B8
:1011400006F022F9029CE868C0680590059820F432
:10115000705005900598E968C860284608F0AAF91B
:1011600003280BD10020A8704FF40070A8800598C8
:1011700020F4705000F5105005907EE00120A8701A
:101180004020A8804648844209D34648844206D27B
:10119000059820F4705000F5605005906DE04148CE
:1011A000844209D34048844206D2059820F4705006
:1011B00000F55050059060E03B48844209D33B481D
:1011C000844206D2059820F4705000F540500590F6
:1011D00053E03648844209D33548844206D2059804
:1011E00020F4705000F53050059046E030488442BD
:1011F00009D33048844206D2059820F4705000F597
:101200002050059039E02B48844209D32A48844273
:1012100006D2059820F4705000F5105005902CE08F
:101220002548844209D32548844206D2059820F4F3
:10123000705000F5005005901FE02048844209D30B
:101240001F48844206D2059820F4705000F5E05003
:10125000059012E01A48844209D31A48844206D203
:10126000059820F4705000F5C050059005E00598F1
:1012700020F4705000F5A05005900598E968C8600A
:1012800000200690069820F4005000F500500690CB
:101290000698E9684861012007B030BD007A030A6A
:1012A000C0E1E4000024F400E0EC040100C31801F4
:1012B000002D310140A44C0100366E0140E2950141
:1012C00080C3C90160600B02F8B505460024002008
:1012D0000090284608F02FF9064681E006F001004C
:1012E00000287BD0E1B2284600F00CFB009000986B
:1012F00000F0010030B3012000FA04F72869406BC8
:10130000B8432969486300200090009820F001004C
:10131000401C009005F1180050F8240000998160ED
:10132000E1B232480068426828469047E8780128D0
:1013300008D13CB940F21110405D042802D1284682
:1013400007F0C2FD0098C0F3C00060B1002000901B
:10135000009820F008000830009005F1180050F8BF
:101360002400009981600098C0F3001060B1002053
:101370000090009820F010001030009005F1180047
:1013800050F82400009981600098C0F3801060B18B
:1013900000200090009820F040004030009005F1BF
:1013A000180050F82400009981600098C0F34000B4
:1013B00060B100200090009820F00200801C009096
:1013C00005F1180050F82400009981600098C0F3DE
:1013D000C01018B12146284600F0BEFA641C7608F9
:1013E000002E7FF47BAF0120F8BD0000C401002077
:1013F0007CB50446002500200190204608F0A3F8A3
:1014000006466FE006F00100002869D0E9B22046E8
:1014100008F0A1F80190019800F00100C8B3002085
:101420000190019820F00100401C019004F154004B
:1014300050F8250001998160E078012817D104F166
:10144000540050F825000069009005EB850104F573
:101450005D7000EBC10080680099C1F31201411A70
:1014600005EB850204F55D7000EBC2008161E9B215
:101470001E480068026820469047E078012808D19D
:101480003DB940F21110005D052802D1204607F059
:101490001BFD0198C0F3400060B10020019001984D
:1014A00020F00200801C019004F1540050F8250047
:1014B000019981600198C0F3C00088B10B480068B1
:1014C00081682046884700200190019820F008009C
:1014D0000830019004F1540050F825000199816012
:1014E0006D1C7608002E8DD101207CBDC40100202A
:1014F0003EB50446A07A78B1D4F80C01006800909B
:10150000009820F002000090009820F00100009068
:101510000099D4F80C01016000200190019820F09E
:101520000100401C019020694068019988432169AD
:101530004860094800688169204688470020029079
:10154000029820F0004000F1004002900298E1680B
:10155000486101203EBD0000C40100207CB5044666
:1015600000200190019820F0100010300190E068F8
:10157000806901998843E1688861E068006A0090A9
:10158000009800F00F0000EB800104F55D7000EBA7
:10159000C1050098C0F3434007282DD2DFE800F0D2
:1015A0002C04051D1E2C1F0027E00098C0F30A1014
:1015B00090B10098C0F30A122046E96807F0D5FF01
:1015C000E8680099C1F30A110844E860A869009925
:1015D000C1F30A110844A8610FE00EE00DE00822F3
:1015E00004F2CC51204607F0C0FFA8690099C1F36E
:1015F0000A110844A86100E000BF00BFE0688069EC
:1016000001990843E168886101207CBD38B5044632
:1016100008480068C168204688470020009000986C
:1016200020F00800083000900098E168486101202F
:1016300038BD0000C40100201FB504460020009002
:101640004FF48970005D009023480068416920468E
:10165000884720698068019000200390039820F457
:10166000006000F5006003900398E1684861A07A8B
:1016700070B3019800F0010050B340F21510005D06
:10168000012825D19DF80000032821D100200290D7
:10169000029820F00100401C0290D4F80C01006870
:1016A00002990843D4F80C110860029820F0020057
:1016B000801C0290D4F80C01006802990843D4F809
:1016C0000C1108600548006840F0060003490860F6
:1016D000012004B010BD0000C401002010ED00E0A6
:1016E00030B587B004460020029006900590049023
:1016F00003900190029820F00100401C02902069A4
:10170000406802998843216948600021204607F01B
:10171000A7FE00250BE0FF2104F1180050F825007A
:10172000816004F1540050F8250081606D1C6078E0
:10173000A842F0D84FF0FF312069816106986FF31D
:101740000F00401C0690069880B200F5803006908D
:1017500006992069C161059820F0080008300590BD
:10176000059820F00100401C0590059820F002002B
:10177000801C0590059920694161049820F00100C2
:10178000401C0490049820F008000830049004984D
:1017900020F00200801C04900499206901612069F6
:1017A00000680390039820F4FE6003900399206979
:1017B0000160204607F088FB00200190019820F48A
:1017C000805000F5805001900198E168486104481C
:1017D0000068016920468847012007B030BD00003D
:1017E000C40100202DE9F04106460F463946304637
:1017F00007F0D0FE01214FF4897081550021801C33
:101800008155002511E005EB850106F58E7000EB92
:10181000C104012060702570E5800020E070402048
:10182000A0600020E06060616D1C7078A842EAD87A
:10183000002510E005EB850106F55D7000EBC104A5
:10184000002060702570E580E0704020A0600020DE
:10185000E06060616D1C7078A842EBD8304607F0FC
:101860003DFA304607F06DF80021304607F0FAFEE9
:10187000304607F0F3F8304607F0BBFDBDE8F081D5
:1018800038B504460020009007480068C16920462A
:101890008847009820F4801000F580100090009890
:1018A000E1684861012038BDC401002038B5044614
:1018B0000020009007480068016A20468847009889
:1018C00020F4001000F5001000900098E1684861D5
:1018D000012038BDC401002038B50446E0684068E6
:1018E00000900098C0F3800020B105480068816A2C
:1018F000204688470098E1684860012038BD000014
:10190000C401002030B5024615692B6915696C6B5E
:1019100024FA01F505F0010543EAC51302F11805A3
:1019200055F82150AD6805EA030030BD38B50446CE
:1019300008480068416A20468847002000900098C7
:1019400020F0804000F1804000900098E1684861FC
:10195000012038BDC40100202DE9F84306460F469A
:1019600000250020009007EB870106F58E7000EB44
:10197000C104D4E90501451AA068A84200D2A568AF
:10198000E81C4FEA900806F1180050F8270080691B
:10199000009029E0D4E90501451AA068A84200D2C8
:1019A000A568E81C4FEA9008ABB2FAB23046E1688D
:1019B00007F07FFEE0682844E060A0692844A06149
:1019C00006F1180050F8270080690090D4E905015D
:1019D000884209D12178012000FA01F93069406B71
:1019E00020EA090031694863009880B2404506D971
:1019F000D4E90510884202D260690028CAD10120CA
:101A0000BDE8F88310B501F04BF900F0DFF901F003
:101A10005DF910BD10B501F043F900F0D7F901F000
:101A200055F910BD0246094B9A4201D2084801E01F
:101A30000648103801F000531BB1064B0B40C36041
:101A400002E0044B0B4083607047000010640240CA
:101A5000006002407D0F7D0F0246094B9A4201D281
:101A6000084801E00648103801F000531BB1064B4E
:101A70000B40C36002E0044B0B40836070470000E2
:101A800010640240006002407D0F7D0F21B10268AA
:101A900042F00102026003E0026822F001020260EB
:101AA00070470146486880B27047000070B5024632
:101AB000002000240025124EB24201D2114B01E059
:101AC0000F4B103B104E0E4036B11E2606EAD124B5
:101AD000166806EA040502E0566906F0800501F082
:101AE00000560EB15C6800E01C68084E344004EA01
:101AF000010616B10DB1012000E0002070BD00000C
:101B000010640240006002403C0F3C0F7D0F7D0FCF
:101B100010B501F080034BB122B1436943F080035B
:101B2000436103E0436923F08003436180290BD0C4
:101B30002AB1036801F01E042343036004E0036834
:101B400001F01E04A343036010BD000010B5002285
:101B50000268134B1A40CC680B6823434C6923433B
:101B60008C692343CC6923430C6A23434C6A234387
:101B70008C6A23434C6B23438C6B23431A430260D0
:101B8000426922F00702D1E90B3423431A43426130
:101B90000B6943604B6883608B68C36010BD0000B5
:101BA0003F801CF04160704770B504460D46012C23
:101BB00013D18103144800F022FA4DF202011348B8
:101BC00005F0F1FC4FF4404040EA05110F4805F0E4
:101BD000EAFCA1030C4800F014FA022C12D16103B4
:101BE000094800F00CFA4DF20201084805F0DBFC50
:101BF000600340EA0511054805F0D5FC6103024881
:101C000000F0FFF970BD000000040240003C0040FD
:101C100070B504460D46012C13D14103144800F061
:101C2000EEF94DF20201134805F0BDFC4FF44040BF
:101C300040EA05110F4805F0B6FC61030C4800F0BE
:101C4000E0F9022C12D12103094800F0D8F94DF235
:101C50000201084805F0A7FC600340EA05110548A9
:101C600005F0A1FC2103024800F0CBF970BD000093
:101C700000040240003C00407047000000B585B001
:101C80004FF4E131294807F035FD002240F225519B
:101C9000264805F0BDFE002240F22771234805F0DA
:101CA000B7FE012240F22441204805F0B1FE012296
:101CB00040211E4805F079FE012280211B4805F0D5
:101CC00074FE4FF44030002101910291CDE90310E0
:101CD000042000901648154A121D51060368154845
:101CE00000F036F84FF44030002101910291CDE927
:101CF00003100420009010480C4A121D510603687E
:101D00000C48303000F024F801210A48FFF7BEFEED
:101D1000002108483030FFF7B9FE012210210548A4
:101D20003030FFF7F5FE05B000BD0000004C00406C
:101D300038000020406002404000002001B50098BB
:101D400005F0C0FC00BF00F0DDF90028FBD108BDA4
:101D50002DE9F04F8FB004460D4616461F46DDE9CB
:101D60001AABDDE918891848844204D201214805DC
:101D700005F0CAFA03E00121880505F0C5FA0095CF
:101D80000196029700200390CDF8108005904FF443
:101D900080600690CDF81C90CDF820A0CDF824B03E
:101DA0001C980A9000200B9003200C9000200D90AE
:101DB0000E9069462046FFF7C9FE00212046FFF736
:101DC00065FE0FB0BDE8F08F0064024010B5134906
:101DD0001348FFF76BFE58B100211148FFF756FE7C
:101DE00004210F48FFF7DEFE0C490D48FFF734FED3
:101DF0000A490B483030FFF759FE70B100210848FE
:101E00003030FFF743FE042105483030FFF7CAFEAB
:101E1000024903483030FFF71FFE10BD20000020AC
:101E20007060024010B500F001F810BD10B58021BF
:101E3000202007F011FE00212A2007F00DFE1F21AF
:101E40002B2007F009FE00212C2007F005FE0021C1
:101E50002D2007F001FE0C21302007F0FDFD0C21A4
:101E6000402007F0F9FD0C21502007F0F5FD0C2172
:101E7000602007F0F1FD0C21702007F0EDFD10BD92
:101E800010B500221E4949781D4B9B7819441C4B04
:101E9000DB7819441A4B197200BF09E01849097A16
:101EA000174B5B689B5C1944154B1972511CCAB2E5
:101EB0001349C9789142F1DC114909780170104940
:101EC000497841700E49897881700D49C978C1708F
:101ED000002105E00A4B5B685C5C0B1DC454491C87
:101EE000074BDB788B42F5DC05490B7AC978091D75
:101EF000435403494B7AC978491D435410BD00002F
:101F000020000020F0B50A4600210023002400BF75
:101F10003DE0012505FA01F3156805EA03049C423A
:101F200034D105684F000326BE40B54305601579DE
:101F30004E00B5400668354305601579012D02D085
:101F40001579022D16D185684F000326BE40B54392
:101F5000856055794E00B540866835438560456893
:101F600001268E40B5434560456896798E40B6B2ED
:101F700035434560C5684F000326BE40B543C56084
:101F8000D5794E00B540C6683543C560491C102957
:101F9000BFD3F0BDF0B5002300244D07ED0E02FACB
:101FA00005F3CE1000F1200555F826504E07F70E28
:101FB0000F26BE40B543CF1000F1200646F827504B
:101FC000CE1000F1200555F8265045EA0304CE1046
:101FD00000F1200545F82640F0BD024600201369B7
:101FE0000B400BB1012000E00020704702460020AA
:101FF00053690B400BB1012000E000207047418382
:10200000704701837047000001201549487015484A
:102010004068407813494968097840EA012010492E
:10202000488010484068C0780E494968897840EA7D
:1020300001200B4988800B4840684079094949686C
:10204000097940EA01200649488106484068C0797C
:1020500004494968897940EA01200149888170472B
:10206000901B00201400002001201549087015481D
:102070004068407813494968097840EA01201049CE
:10208000488010484068C0780E494968897840EA1D
:1020900001200B4988800B4840684079094949680C
:1020A000097940EA01200649C88006484068C0799D
:1020B00004494968897940EA01200149C88070478C
:1020C000901B00201400002013200B49C870084604
:1020D00040680A490A6802604A6842600A890281C7
:1020E000897A81720448406805490A6840F80B2FD4
:1020F0004968416070470000200000200000002077
:102100000B000020014800687047000034000020E8
:102110000020044988700120C870002049680870B8
:10212000704700002000002070B50A480468001DB8
:102130000568001D0668344454B10822064920464B
:1021400000F02AFC042204491031284600F024FC47
:1021500070BD0000107AFF1FC600002008B50121E5
:102160001F2005F0D1F80121080705F0EDF8012046
:1021700005F0C0F8002005F07BF9002005F0BAF862
:1021800008220021FE48FFF705FF08220121FC4834
:10219000FFF700FF00200346022201210090F848CB
:1021A00000F080FA00200346022211460090F44815
:1021B00000F078FA00200346022204210090F04843
:1021C00000F070FA00200346022208210090EC483B
:1021D00000F068FA00200346022210210090E8482F
:1021E00000F060FA00200346022220210090E4481B
:1021F00000F058FA00200346012211020090E04846
:1022000000F050FA00200346012211460090DD48FC
:1022100000F048FA00200346012240210090D948EE
:1022200000F040FA00200346012280210090D548AA
:1022300000F038FA00200346012211020090D14834
:1022400000F030FA00200346012251020090CD48F0
:1022500000F028FA00200346012251030090C948EB
:1022600000F020FA00200346012291030090C548A7
:1022700000F018FA00200346032201210090C24812
:1022800000F010FA00200346032202210090BE480D
:1022900000F008FA00200346032204210090BA4807
:1022A00000F000FA00200346032208210090B648FF
:1022B00000F0F8F900200346032220210090B248E4
:1022C00000F0F0F900200346012251020090AE48D0
:1022D00000F0E8F900200346022251020090AA48CB
:1022E00000F0E0F900200346022291020090A64887
:1022F00000F0D8F9002003460222D1020090A24843
:1023000000F0D0F9002003460122510300909E48BE
:1023100000F0C8F9002003460122910300909A487A
:1023200000F0C0F9002003460122D1030090964836
:1023300000F0B8F9002003460122022100909348E2
:1023400000F0B0F9002003460122042100908F48DC
:1023500000F0A8F9002003460122082100908B48D4
:1023600000F0A0F9002003460122102100908748C8
:1023700000F098F9072205218448FFF70BFE072299
:1023800006218248FFF706FE002003460222202194
:1023900000907E4800F086F900200346022240218A
:1023A00000907A4800F07EF9002003460122802147
:1023B0000090764800F076F90020034601221102D1
:1023C0000090724800F06EF900200346012251028D
:1023D00000906E4800F066F9002003460122910249
:1023E00000906A4800F05EF9002003460122D10205
:1023F0000090664800F056F90020034601221103C0
:102400000090624800F04EF900200346012251037B
:1024100000905E4800F046F9002003460122910337
:1024200000905A4800F03EF90020034602464FF45F
:1024300000410090554800F035F90020034602465F
:1024400001210090524800F02DF9022000231A4685
:10245000014600904E4800F025F900200346012275
:10246000042100904A4800F01DF90020034602466E
:1024700008210090464800F015F900200346024666
:1024800010210090424800F00DF90020034602465A
:10249000202100903E4800F005F90020034601226B
:1024A000110200903A4800F0FDF800200346024671
:1024B0004FF400710090364800F0F4F80020034615
:1024C000012291020090324800F0ECF84FF4806154
:1024D0002F48FFF796FD002003460122D10200900D
:1024E0002B4800F0DFF80020034602464FF48051ED
:1024F0000090274800F0D6F80020034602464FF42B
:1025000000510090224800F0CDF80020034601223F
:10251000022100901F4800F0C5F800200346012268
:10252000114600901B4800F0BDF800200346012230
:1025300004210090174800F0B5F80020034603225C
:1025400008210090134800F0ADF800200346032254
:10255000102100900F4800F0A5F800200346032248
:10256000202100900B4800F09DF800200346032234
:1025700040210090074800F095F8002003460BE04A
:10258000000002400004024000080240000C02402B
:1025900000100240001402400322802100903F48B6
:1025A00000F080F80020034603224FF48071009071
:1025B0003A4800F077F80020034603224FF40071F8
:1025C0000090364800F06EF80020034603224FF4D6
:1025D00080610090314800F065F800200346012238
:1025E000D10200902D4800F05DF800200346012242
:1025F00011030090294800F055F8002003460122FD
:1026000051030090254800F04DF8002003460122B8
:1026100091030090214800F045F800200346012274
:10262000D10300901D4800F03DF800200346012230
:10263000114600901A4800F035F8002003460122A8
:1026400002210090164800F02DF8002003460122D8
:1026500004210090124800F025F8002003460122D2
:10266000082100900E4800F01DF8002003460122CA
:10267000102100900A4800F015F8002003460122BE
:1026800091030090064800F00DF800200346012257
:10269000D1030090024800F005F808BD0014024084
:1026A000001802402DE9FC4106460C4615469846A6
:1026B000089F00948DF8045003208DF80500002039
:1026C0008DF8060001208DF8070069463046FFF7B7
:1026D00019FCBDE8FC81000070B506463048007862
:1026E00000285BD12F480068B0F5006F02D10020B0
:1026F0002C4908602B4800682B490968884203D19F
:1027000000202749087070BD2648006826490968DE
:10271000884206D923480068C0F500602349086054
:1027200006E0214800681F490968401A1F490860EF
:102730001E480068402811D91A48008885B24024F4
:102740001848006840301749086018480068403849
:102750001649086001201249087018E011480088E5
:1027600085B21248008884B20E4800680F49096893
:1027700008440C49086000200C490860402C03D133
:1027800002200749087002E0012005490870084846
:102790004219234681213046FEF7A2FC00BFB2E772
:1027A000140100200C01002008010020100100206D
:1027B0004626002000BFFEE770B5054618480068B1
:1027C00020F40040164908600846006840F4804044
:1027D00008600520FFF7B2FA80241DE004EA050036
:1027E00020B980210E48FFF70AFC03E080210C4845
:1027F000FFF705FC0520FFF7A1FA40210848FFF785
:1028000000FC0520FFF79AFA40210548FFF7F7FB87
:102810000520FFF793FA6410002CDFD170BD000093
:102820000004024010B51248006820F4004010492E
:1028300008600846006840F48040086040210C4869
:10284000FFF7DFFB80210A48FFF7DBFB0520FFF7DE
:1028500075FA80210648FFF7D2FB0520FFF76EFAD4
:1028600040210348FFF7CBFB0520FFF767FA10BDB7
:102870000004024010B51248006820F400401049DE
:1028800008600846006840F48040086040210C4819
:10289000FFF7B5FB80210A48FFF7B1FB0520FFF7E2
:1028A0004DFA40210648FFF7ACFB0520FFF746FA3A
:1028B00080210348FFF7A5FB0520FFF73FFA10BD75
:1028C0000004024010B541F288341148006820F439
:1028D00040400F49086005E0601E80B2041E01D12F
:1028E000012010BD80210A48FFF777FB0028F3D1B3
:1028F00040210748FFF785FB0520FFF71FFA40211D
:102900000348FFF77CFB0520FFF718FA0020E8E7F3
:102910000004024000B585B000F022F801210D4806
:10292000FDF794FD4FF4403000214FF40052931016
:10293000CDE90132CDE903101420074B054A4C3292
:1029400000900648FFF704FA01210448FFF79EF8BB
:1029500005B000BD00200140D423002010640240D7
:1029600010B501210648FDF709FE072301220A21BF
:102970000348FDF7A1FD0248FDF7FAFD10BD000078
:102980000020014001200349C870FF2049680870F9
:10299000704700002000002030B50B46002100BF2A
:1029A00016E00A24B4EB107F05D9302404EB107430
:1029B00003F8114005E0412404EB10740A3C03F8CD
:1029C0001140000100254C00641C1D554C1CE1B257
:1029D0009142E6DB30BD00BFFEE730B505460C4650
:1029E00022460021284600F001F830BD2DE9F041D3
:1029F00005460B4694460027002402E03F021F4391
:102A0000641C042CFAD3604605F00306294646B13F
:102A1000344603E001F8013B401E641C08B1042C5D
:102A2000F8D30A4601E080C2001F0428FBD21146F9
:102A300002E001F8013B401E0028FAD1BDE8F08118
:102A40007047000070B5002100230F22C4781CB32A
:102A5000174C246804F4E064C4F5E064C4F307216F
:102A6000C1F10404E3B20A4144789C40E1B28478A5
:102A7000144021430C07210E0E4C05786155047853
:102A800004F01F050124AC4005786D11AD0005F17F
:102A9000E025C5F8004109E0047804F01F05012491
:102AA000AC40054D0678761145F8264070BD000013
:102AB0000CED00E000E400E080E100E002490143A9
:102AC000024A1160704700000000FA050CED00E0BA
:102AD000024A0A400243024B1A60704780FFFF1F00
:102AE00008ED00E010B54FF4C060FFF7E7FF10BD40
:102AF0007047000010B50348006810B10148006835
:102B0000804710BDF001002070B5044600F0B4F815
:102B100000204449087044490870444908704449F9
:102B200008604449086044490870444908704449B1
:102B300008704449086044490860444908604448B2
:102B4000006858B14348056845B14148066803E04C
:102B5000761E002028602D1D002EF9D100203E4950
:102B600008603E4908603E4908603E4908603E49A9
:102B700008603E4908603E4908603E49087002F01E
:102B8000A3FD02F083FE204601F0FAFE208800B18A
:102B900070BD204602F0CEFA208800B1F8E720464A
:102BA00002F0D4FA208800B1F2E7204602F0D0FB10
:102BB000208800B1ECE7204602F0B6FD208800B185
:102BC000E6E7204602F04CFF208800B1E0E720460F
:102BD00003F066FA208800B1DAE7204602F016FA20
:102BE000208800B1D4E7204602F03CF8208800B1EC
:102BF000CEE7204604F0E0F9208800B1C8E720467F
:102C000003F098F9208800B1C2E7204604F04CFA9E
:102C1000208800B1BCE701F0DDFDFFF769FF00BFD0
:102C2000B6E7000004020020050200204C0200204C
:102C3000B4020020B802002032020020330200203B
:102C400034020020400200204402002048020020FC
:102C500088A6000884A60008E4010020E8010020FE
:102C6000EC010020F0010020F4010020F801002018
:102C7000FC0100207A020020064800680649096825
:102C800000EB8100054908600846006820F0070055
:102C90000860704784A6000888A60008BC020020CF
:102CA00008480078012800D0704707480078FA28C3
:102CB00000DBF9E704480078401C0349087000BFB6
:102CC000F2E70000050200200402002010B50024F5
:102CD0002D480078012800D010BD00BFFDF7E8FAAC
:102CE000044600BF2948007828B900BF2046FDF7F8
:102CF000E3FA00BFF0E725480078401E234908703A
:102D000008460078002805DD00BF2046FDF7D4FA0C
:102D100000BFE1E71E480078002805DD00BF20461F
:102D2000FDF7CAFA00BFD7E702F0BAFC19490870EC
:102D30000846007800EB4000174951F82000174979
:102D400008600846006816490968884205D100BF36
:102D50002046FDF7B1FA00BFBEE710480068D0F882
:102D60008400401C0D490968C1F884000D480068C2
:102D7000401C0C490860FDF705FB00BF2046FDF72D
:102D80009BFA00BF00BFA7E7050200200402002055
:102D90004C0200203302002054430020B8020020DF
:102DA000B4020020700200202DE9F04104460E46D6
:102DB0001546002729480078002804DD42F6E16026
:102DC0002880BDE8F0811CB945F6C3502880F8E79B
:102DD00000BF00BF00BFFDF76BFA074600BF00BF92
:102DE0001F480078401C1E49087000BF00BF3846CD
:102DF000FDF762FA00BF00BF00BF1A48206066609E
:102E00000020206284F82500A062402084F824007D
:102E100004F1080002F053FB204602F081FA124848
:102E20000088401C1049088000BF00BF00BFFDF7AC
:102E30003FFA074600BF00BF09480078401E084916
:102E4000087000BF00BF3846FDF736FA00BF00BF6C
:102E500000BF0020288000BFB3E70000040200206C
:102E60004C0200204D555458300200202DE9F04707
:102E700088B00546894690461C46109E4FF0000AD1
:102E8000AB480078002805DD46F2AE10308008B06F
:102E9000BDE8F0871DB945F6C3503080F7E7B8F1BB
:102EA000000F03D0B8F5004F02D100E000BF03E0EF
:102EB00045F625603080EAE700BF9E4928688842D1
:102EC00003D045F6C4503080E1E70CB1002020600B
:102ED00000BF00BFFDF7ECF9824600BF00BF95F8C8
:102EE0002500C0B99448006828629348006890F8AB
:102EF000370085F82400012085F825000CB1A86A68
:102F0000206000BF00BF5046FDF7D6F900BF00BFEC
:102F100000203080BBE78849286A0968884212D1BE
:102F200095F82500401C85F825000CB1A86A2060A2
:102F300000BF00BF5046FDF7BFF900BF00BF45F21C
:102F400082703080A3E708F4004050B100BF00BF9A
:102F50005046FDF7B1F900BF00BF46F2B010308017
:102F600095E77648007800280ADD00BF00BF50468C
:102F7000FDF7A2F900BF00BF46F66350308086E738
:102F800000BF6E480078401C6C49087000BF00BF4D
:102F90005046FDF791F900BF00BF00BF2F6A97F8B8
:102FA00037006549096891F83710884260DD97F865
:102FB000360008282AD2DFE800F004151E1F171675
:102FC0002021384602F0C8FC5B48006890F83700C2
:102FD00087F8370097F8370002F082FB384602F096
:102FE0007DFC44E000BF00BF5348006890F8370004
:102FF00087F837003BE000BF00BF00BF4E480068C5
:1030000090F83710384602F037FA30E000BF00BFC2
:1030100000BFFDF74DF9824600BF00BF474800786A
:10302000401E4649087008460078A0B94448008808
:10303000002809DD00BF00BF5046FDF73DF900BF85
:1030400000BF02F0B7FC0DE000BF00BF5046FDF727
:1030500033F900BF06E000BF00BF5046FDF72CF972
:1030600000BF00BF00BF46F62D6030800FE700BFF5
:103070004B4604222946684602F076F900BF00BF9D
:1030800000BFFDF715F9824600BF00BF2B4800784E
:10309000401E2A49087000BF00BF5046FDF70CF9DA
:1030A00000BF00BF00BF00F073F900BF00BFFDF715
:1030B000FFF8824600BF00BF1F48006890F8350047
:1030C00030B101280CD002281AD0032821D110E0F9
:1030D0001CB119480068006C2060002030801CE0A2
:1030E0001CB115480068006C206046F2A9103080C1
:1030F00013E00CB10020206047F2D92030800CE0B2
:103100001CB10D480068006C206045F6C25030804C
:1031100003E046F62E60308000BF00BF00BF00BF56
:103120005046FDF7C9F800BF00BF00BFAFE6000082
:10313000040200204D555458B40200204C020020D7
:10314000100200202DE9F84F0446884615464FF03E
:10315000000A89480078002804DD46F20E20288005
:10316000BDE8F88F1CB945F6C3502880F8E7B8F1E0
:10317000000F03D0B8F5004F02D100E000BF03E01C
:1031800045F625602880EBE700BF7C49206888422F
:1031900003D045F6C4502880E2E700BF00BFFDF72A
:1031A00087F8824600BF00BF7549206A09688842D7
:1031B0000AD000BF00BF5046FDF77EF800BF00BF39
:1031C00045F281702880CBE700BF6E480078401C34
:1031D0006C49087000BF00BF5046FDF76DF800BF96
:1031E00000BF00BFFDF790FD0746A76294F82500D9
:1031F000401E84F8250094F82500002830DD00BF2B
:1032000000BF00BFFDF754F8824600BF00BF5D4815
:103210000078401E5B49087008460078A0B95A48FB
:103220000088002809DD00BF00BF5046FDF744F8C4
:1032300000BF00BF02F0BEFB0DE000BF00BF504664
:10324000FDF73AF800BF06E000BF00BF5046FDF7AB
:1032500033F800BF00BF00BF45F2837028807FE7CE
:1032600004F10809B9F8080098BB0020206284F82E
:10327000250000BF00BF00BFFDF71AF8824600BF5F
:1032800000BF40480078401E3E490870084600785C
:10329000A0B93D480088002809DD00BF00BF5046A6
:1032A000FDF70AF800BF00BF02F084FB0DE000BF8D
:1032B00000BF5046FDF700F800BF06E000BF00BFAA
:1032C0005046FCF7F9FF00BF00BF00BF0020288078
:1032D00046E7FFE72A48006890F8370094F8241082
:1032E000884219D02648006802F036FB94F8240082
:1032F0002349096881F837002149096891F83700A6
:1033000002F0EEF91E48006802F008FB1C48006855
:1033100090F837001D490870D9F8000086682662C9
:1033200096F8370084F82400012084F82500002353
:103330001A4631462046009702F032F900BF00BF1E
:1033400000BFFCF7B5FF824600BF00BF0D48007804
:10335000401E0C49087000BF00BF5046FCF7ACFF90
:1033600000BF00BF00BF08F4004008B900F010F82B
:103370000020288000BFF3E6040200204D55545879
:10338000B40200204C020020100200203202002073
:1033900010B500241F480078002800DD10BD1E482D
:1033A0000078002800DDF9E700BFFCF781FF044644
:1033B00000BF02F075F9194908700846007800EB63
:1033C0004000174951F82000164908600846006877
:1033D00015490968884205D100BF2046FCF76CFFFB
:1033E00000BFDBE70F480068D0F88400401C0D499F
:1033F0000968C1F884000D480068401C0B4908604A
:10340000FCF7BBFF00BF2046FCF756FF00BF00BF24
:10341000C4E70000040200204C0200203302002018
:1034200054430020B8020020B402002070020020A3
:1034300070B50446002518480078002803DD46F6DC
:103440006250208070BD15480078012803D045F6F1
:1034500089602080F6E712480078FA2803DB45F2FD
:1034600009202080EEE700BF00BFFCF721FF0546E2
:1034700000BF00BF0A480078401C0949087002F0EC
:10348000C3FA00BF00BF2846FCF716FF00BF00BF0D
:103490000020208000BFD5E70402002005020020A4
:1034A0004C02002070B50446002520480078002812
:1034B00003DD46F66550208070BD1D480078012868
:1034C00003D045F689602080F6E71A48007818B9DD
:1034D00046F664502080EFE700BF00BFFCF7E8FE2F
:1034E000054600BF00BF13480078401E1149087010
:1034F0000846007800280ADD00BF00BF2846FCF718
:10350000DBFE00BF00BF46F663502080D4E702F028
:1035100089FA00BF00BF2846FCF7CEFE00BF00BFFF
:10352000FFF736FF0020208000BFC5E7040200201F
:10353000050200204C02002010B504461248007815
:10354000E8B902F0ADF81149087008460078104952
:1035500008700E48007800EB40000E4951F820003A
:103560000D490860084600680C49086001200649BA
:103570000870FCF7F1FE43F69920208002E045F642
:103580008A60208010BD0000050200203302002068
:103590003202002054430020B8020020B402002070
:1035A0002DE9F04107464FF0000800BF00BFFCF7CF
:1035B0007FFE804600BF00BF00203D4908603D49B6
:1035C00008803D4908803D4908603D4908603D4903
:1035D00008603D4908603D49088100BF00BF404682
:1035E000FCF76AFE00BF00BF00BF00BFFCF760FE33
:1035F000804600BF00BF3648046800BF00BF404699
:10360000FCF75AFE00BF00BF21E000BF00BFFCF77F
:103610004FFE804600BF00BF00206C34E063206096
:103620002063A061A082E0826062A062FDF76CFB73
:1036300020626C3C04F158060020B081D4F8B04000
:1036400000BF00BF4046FCF737FE00BF00BF002CA4
:10365000DBD100BF00BFFCF72BFE804600BF00BFE0
:103660001C48056800BF00BF4046FCF725FE00BFB0
:1036700000BF12E000BF00BFFCF71AFE804600BF8B
:1036800000BF05F120060020B081AD6900BF00BF7A
:103690004046FCF711FE00BF00BF002DEAD103F049
:1036A000F3FA03F0A7FD00203880BDE8F0810000A8
:1036B00018020020120200205A0200206C02002092
:1036C00080020020A4020020440200204843002081
:1036D0007402002038020020F8B50446002669462E
:1036E000324800F083FDBDF8000018B1BDF80000BD
:1036F0002080F8BD6A460021022000F0EBFDBDF8F5
:10370000000018B1BDF800002080F2E700BF00BF44
:10371000FCF7CEFD064600BF00BF0020244908602C
:1037200000BF00BF3046FCF7C7FD00BF00BF00254B
:103730002048006820490968884205D91D4800686A
:103740001D490968B0FBF1F525B91A4800680A213E
:10375000B0FBF1F56A460021284600F0BBFD694642
:10376000124800F057FABDF8000018B1BDF800008B
:103770002080BEE700BF00BFFCF79AFD064600BFF1
:1037800000BF00200D490860094800680C49086026
:1037900001200C49087000BF00BF3046FCF78CFDCB
:1037A00000BF00BF0020208000BFA2E7F04700203C
:1037B0005C020020B8A60008A0A600086C02002049
:1037C000600200206802002010B50348006810B1B4
:1037D00001480068804710BDF40100202DE9FF4F2B
:1037E00087B004469046DDE91BA5DDE91496179FD6
:1037F0000020039082480078002805DD47F24A1037
:1038000028800BB0BDE8F08F1CB947F2AD102880BE
:10381000F7E7B8F1000F03D147F24F102880F0E727
:103820001EB946F62F602880EBE77648006887428D
:1038300003D246F630602880E3E71698B84203D3F7
:1038400046F631602880DCE7B9F1400F03D346F239
:1038500073202880D5E7B9F1000F06D16A48844269
:1038600003D046F273202880CBE7B9F13F0F06D191
:103870006648844203D046F273202880C1E7204680
:1038800002F01EFC002028800AF0010090B10AF02E
:10389000020078B105960020069008E00021059806
:1038A00001600598001D05900698401C069006983A
:1038B000B842F3D3169806EB80000490CDE9007A65
:1038C00032464046049B0A9900F062FB0590C4F81A
:1038D00028800A98E0620898206284F8379005985A
:1038E00020600498A0601A9860606662A763A4F8DC
:1038F0003CA04FF0000B08E0002104F1700040F8FC
:103900002B100BF1010000F0FF0BBBF1000FF3D007
:1039100004F15800189901F079FC204600F080F875
:1039200000BF00BF00BFFCF7C3FC039000BF00BF97
:1039300037480078401C3649087000BF00BF039824
:10394000FCF7BAFC00BF00BF00BF94F8370001F0DD
:10395000C7FE204601F0E2FF204602F067FB2D483B
:103960000088401C2B4908802B48007801282DD066
:1039700000BF00BF00BFFCF79BFC039000BF00BF6F
:1039800023480078401E2249087008460078A0B9F4
:1039900022480088002809DD00BF00BF0398FCF71B
:1039A0008BFC00BF00BF02F005F80DE000BF00BFB8
:1039B0000398FCF781FC00BF06E000BF00BF03983E
:1039C000FCF77AFC00BF00BF00BF1AE700BF00BFD2
:1039D00000BFFCF76DFC039000BF00BF0C480078EF
:1039E000401E0B49087000BF00BF0398FCF764FC41
:1039F00000BF00BF00BFFFF7CBFC00BF01E7000026
:103A000004020020B4A6000890420020D841002003
:103A10004C02002078020020050200201002002045
:103A200010B504460348006818B1204601490968EA
:103A3000884710BDE401002070B504460D460026FD
:103A400067480078002803DD47F24E10288070BDDB
:103A50006448844203D147F24C102880F7E762485B
:103A6000844203D147F24D102880F0E77CB900BFB3
:103A700000BFFCF71DFC064600BF00BF5B480468A2
:103A800000BF00BF3046FCF717FC00BF00BF00BFFF
:103A900000BF00BFFCF70CFC064600BF00BF544847
:103AA0000078401C5249087000BF00BF3046FCF748
:103AB00003FC00BF00BF00BF94F8360008282DD2D9
:103AC000DFE800F004090E10080A0F11204601F08B
:103AD00043FF54E053E000BF204603F0A9F84EE056
:103AE00000BF00BF00BF94F83400082810D2DFE800
:103AF00000F004070508090A0B0600BF00BF08E034
:103B000000BF00BF00BF00BF204601F010FD00E075
:103B100000BF00BF204603F08BF830E000BF00BFBD
:103B200000BFFCF7C5FB064600BF00BF3048007869
:103B3000401E2F49087008460078A0B92D4800881B
:103B4000002809DD00BF00BF3046FCF7B5FB00BF11
:103B500000BF01F02FFF0DE000BF00BF3046FCF7B3
:103B6000ABFB00BF06E000BF00BF3046FCF7A4FB84
:103B700000BF00BF00BF46F62D60288067E700BF8A
:103B800004F1580001F020FB204600F037F82046F1
:103B900002F064FA18480088401E17490880204641
:103BA00002F08EFAFF2084F8360000BF00BF00BF8D
:103BB000FCF77EFB064600BF00BF0D480078401EA4
:103BC0000B49087000BF00BF3046FCF775FB00BF13
:103BD00000BF00BF00202880FFF7DAFB00BF36E7F8
:103BE00004020020D841002090420020B4020020AE
:103BF0004C020020100200207802002010B504467C
:103C00000348006818B1204601490968884710BD7B
:103C1000E80100207FB504460D46002600BF00BF26
:103C2000FCF746FB064600BF00BF1CB11548006804
:103C300084420AD100BF00BF3046FCF73DFB00BF05
:103C400000BF47F2571028807FBD00BF00BF30463D
:103C5000FCF732FB00BF00BF0B48007800280BDDEB
:103C6000002000900190034602462146CDE902055E
:103C7000064801F02FF8E7E72946204602F080FBCE
:103C800000BFE1E7B4020020040200205452455373
:103C900010B504460348006818B120460149096878
:103CA000884710BDEC0100202DE9F04780460E4604
:103CB00014461D464FF000097D480078002805DDB8
:103CC00046F2AE1028800020BDE8F0871EB1B6F5A0
:103CD000004F02D100E000BF04E045F625602880D7
:103CE0000020F1E700BF0CB10020206000BF00BF42
:103CF000FCF7DEFA814600BF00BF6E480068406CEA
:103D0000A8B36C480068406C401E6A490968486462
:103D100068480068476C1CB166480068006C206009
:103D2000FCF7F2FF63490968096C401A61490968A8
:103D3000C1F898005F480068D0F89C005D490968A8
:103D4000D1F89810884207D25A480068D0F89800F5
:103D500058490968C1F89C0000BF00BF4846FCF7FD
:103D6000ABFA00BF00BF002028803846ACE7FFE771
:103D700006F4004058B100BF00BF4846FCF79CFA6B
:103D800000BF00BF46F2B010288000209CE74A48E0
:103D9000007800280BDD00BF00BF4846FCF78CFA16
:103DA00000BF00BF46F66350288000208CE700BFAC
:103DB00041480078401C4049087000BF00BF484699
:103DC000FCF77AFA00BF00BF00BF4346072200217C
:103DD000084601F0C9FA00BF00BF00BFFCF768FA4F
:103DE000814600BF00BF34480078401E3249087049
:103DF00000BF00BF4846FCF75FFA00BF00BF00BF2E
:103E0000FFF7C6FA00BF00BFFCF752FA814600BFB9
:103E100000BF2848006890F8350020B1012826D05E
:103E2000032834D12CE0FCB122480068006C2060EB
:103E3000FCF76AFF1F490968096C401A1D490968A7
:103E4000C1F898001B480068D0F89C00194909681F
:103E5000D1F89810884207D216480068D0F8980028
:103E600014490968C1F89C000020288013E01CB1A7
:103E700010480068006C206046F2A91028800AE013
:103E80000CB10020206047F2D920288003E046F6DC
:103E90002E60288000BF00BF06480068476C00BF46
:103EA00000BF4846FCF708FA00BF00BF38460BE7E2
:103EB00004020020B40200204C0200202DE9F0474B
:103EC00005460E4617461C464FF0000A2E4800785D
:103ED000002804DD47F259102080BDE8F0871EB9A4
:103EE00046F2D5202080F8E71FB946F2D520208081
:103EF000F3E700BF00BFFCF7DBF9824600BF00BF5D
:103F00000DB922480568286868B900BF00BF50464F
:103F1000FCF7D2F900BF00BF00203060386047F2E4
:103F200052102080D9E795F83C0000F0010068B9F4
:103F300000BF00BF5046FCF7BFF900BF00BF002024
:103F40003060386047F254102080C6E700BF00BFE1
:103F50005046FCF7B1F900BF00BF4FF00008D5F89C
:103F6000249003E009F1040908F10108D9F80000E0
:103F70000028F7D0C6F80080A86BA0EB08003860D6
:103F80000020208000BFA8E704020020B402002027
:103F9000F0B50446DDE9055602EB850020F0070088
:103FA0004FF0000C071F3846C7F800C04FF4805C84
:103FB000071F3846C7F800C04FF0150C071F3846DA
:103FC000C7F800C04FF0140C071F3846C7F800C0F0
:103FD0004FF0130C071F3846C7F800C04FF0120C03
:103FE000071F3846C7F800C04FF0110C071F3846AE
:103FF000C7F800C04FF0100C071F3846C7F800C0C4
:104000004FF0090C071F3846C7F800C04FF0080CE6
:10401000071F3846C7F800C04FF0070C071F384687
:10402000C7F800C04FF0060C071F3846C7F800C09D
:104030004FF0050C071F3846C7F800C04FF0040CBE
:10404000071F3846C7F800C04FF0030C071F38465B
:10405000C7F800C04FF0020C071F3846C7F800C071
:104060004FF0010C071F3846C7F800C04FF0000C96
:10407000071F3846C7F800C04FF0807C071F38463E
:10408000C7F800C0071F38463C60DFF85CC1071F57
:104090003846C7F800C04FF0123C071F3846C7F833
:1040A00000C04FF0033C071F3846C7F800C04FF070
:1040B000023C071F3846C7F800C0071F38463B6060
:1040C000071F384639604FF0310C071F3846C7F8D4
:1040D00000C04FF0300C071F3846C7F800C04FF043
:1040E000290C071F3846C7F800C04FF0280C071FDF
:1040F0003846C7F800C04FF0270C071F3846C7F8EE
:1041000000C04FF0260C071F3846C7F800C04FF01C
:10411000250C071F3846C7F800C04FF0240C071FB6
:104120003846C7F800C04FF0230C071F3846C7F8C1
:1041300000C04FF0220C071F3846C7F800C04FF0F0
:10414000210C071F3846C7F800C04FF0200C071F8E
:104150003846C7F800C04FF0190C071F3846C7F89B
:1041600000C04FF0180C071F3846C7F800C04FF0CA
:10417000170C071F3846C7F800C04FF0160C071F72
:104180003846C7F800C04FF0113C071F3846C7F843
:1041900000C04FF0103C071F3846C7F800C04FF072
:1041A000093C071F3846C7F800C04FF0083C071FFE
:1041B0003846C7F800C04FF0073C071F3846C7F81D
:1041C00000C04FF0063C071F3846C7F800C04FF04C
:1041D000053C071F3846C7F800C04FF0043C071FD6
:1041E0003846C7F800C0F0BDC16400087FB5054679
:1041F0000C461248854203D147F25B1020807FBDF8
:104200000F48854203D147F25C102080F7E70D4844
:10421000007800280BDD0020009001900346024644
:104220002946CDE90204084800F054FDE7E721469D
:10423000284602F0B3FB00BFE1E70000D8410020B0
:1042400090420020040200205453555310B51D48DD
:10425000006810B11B4800688047FCF755FD044614
:104260001948006819490968884215D0164800683D
:10427000D0F88C00201A14490968C1F88800124847
:104280000068D0F8900010490968D1F888100844F7
:104290000D490968C1F890000C480068C0F88C40CE
:1042A00009480068D0F8A80009490968884205D281
:1042B0000748006804490968C1F8A80000200449BB
:1042C000086010BDF8010020B4020020B8020020F0
:1042D000480200202DE9F04105460E46144600270D
:1042E0003C480078002804DD47F275202080BDE8B6
:1042F000F08139480078002803DD46F663502080BD
:10430000F5E736B1022E05D0042E0AD0082E09D1C9
:1043100001E000BF00BF1DB947F27E202080E6E724
:1043200004E003E045F625602080E0E700BF00BF21
:1043300000BF00BFFBF7BCFF074600BF00BF264819
:104340000078401C2449087000BF00BF3846FBF7C6
:10435000B3FF00BF00BF00BF2346324629461F48B7
:10436000006802F007FC2088A8B100BF00BF00BFB2
:10437000FBF79EFF074600BF00BF17480078401EAE
:104380001549087000BF00BF3846FBF795FF00BF16
:1043900000BF00BFABE71148006801F0DDFA00BFC5
:1043A00000BF00BFFBF784FF074600BF00BF0A48FD
:1043B0000078401E0849087000BF00BF3846FBF770
:1043C0007BFF00BF00BF00BFFEF7E2FF00202080A0
:1043D00000BF8CE7040200204C020020B402002041
:1043E0002DE9FF5F05460E4617469846DDE90EA407
:1043F0000020009070480078002804DD47F2752006
:104400002080BDE8FF9F6D480078002803DD46F658
:1044100063502080F5E70AF00E0BBBF1000F09D0C6
:10442000BBF1020F07D0BBF1040F10D0BBF1080F96
:104430000ED101E000BF00BFB8F1000F06D12FB9C7
:1044400026B91DB947F27E202080DAE704E003E0B8
:1044500045F625602080D4E700BF2AF01E0008B191
:10446000012000E0002003900398012803D145F6C5
:1044700025602080C5E7CAF3001002900298C0B9F9
:10448000B8F57A7F03D347F27B202080B9E73B2F32
:1044900003DD47F27A202080B3E73B2E03DD47F2AD
:1044A00079202080ADE7632D12DD47F2782020804F
:1044B000A7E742F20F70864203DD47F279202080A1
:1044C0009FE7B5F57A7F03DB47F27820208098E7F5
:1044D0003B48D0F800904FF4FA70B0FBF9F040443C
:1044E00000FB09F04FF47A71B0FBF1F14FF4616019
:1044F0006843C6EB061200EB8200384400FB09104B
:1045000001900198002851D000BF00BF00BFFBF709
:10451000CFFE009000BF00BF28480078401C27490C
:10452000087000BF00BF0098FBF7C6FE00BF00BFC9
:1045300000BF23465A4623480199006802F01AFB3F
:104540002088A8B100BF00BF00BFFBF7B1FE0090FC
:1045500000BF00BF19480078401E1849087000BF0E
:1045600000BF0098FBF7A8FE00BF00BF00BF48E7F0
:104570001448006801F0F0F900BF00BF00BFFBF76E
:1045800097FE009000BF00BF0C480078401E0B490A
:10459000087000BF00BF0098FBF78EFE00BF00BF91
:1045A00000BFFEF7F5FE0020208002E047F27E20EB
:1045B000208000BF25E70000040200204C020020FC
:1045C000B8A60008B402002010B586B000F01EF8AE
:1045D000FCF79AFB044605A800210091CDE90114DF
:1045E00003900748007800EB4000064A02EB800188
:1045F00000231A46044800F06DFB06B010BD000011
:1046000032020020544300205449434B10B5034864
:10461000006810B101480068804710BDFC0100200F
:104620002DE9F05F0446884616461F46DDE90BABD0
:10463000DDF828900D9D24480078002804DD47F21D
:1046400043302880BDE8F09F1CB945F6C350288050
:10465000F8E7B9F1010F08D0B9F1020F0BD11FB97A
:1046600047F240302880EDE709E01EB947F23F30BD
:104670002880E7E703E045F625602880E2E700BFF1
:1046800002F0ACFD012084F8260010482060C4F838
:104690000480E6610020A0612762A4F82490C4F899
:1046A00008A0C4F80CB020616061204602F0E8FC6C
:1046B00007480088401C0649088002F009FE0020D7
:1046C000288000BFBEE7000004020020544D5220A5
:1046D000A00200202DE9F04104460D464FF00008ED
:1046E00038480078002805DD47F243302880002054
:1046F000BDE8F08124B947F2423028800020F7E776
:1047000031492068884204D045F6C45028800020F2
:10471000EEE794F82600002847D0012818D0022898
:1047200002D0032846D114E000BF00BFFBF7C0FD54
:10473000804600BF00BFE069A06100BF00BF4046E7
:10474000FBF7BAFD00BF00BF00202880012636E03D
:1047500000BF02F043FD022084F82600E06910B992
:10476000206AA06101E0E069A0611848006840B9D2
:104770000020206160611548046001201449088010
:104780000DE01248076800682061002060617C61CC
:104790000E4804600E480088401C0D49088002F055
:1047A00097FD00202880012609E047F23D3028804F
:1047B000002604E047F241302880002600BF00BFF9
:1047C000304695E704020020544D52209C02002000
:1047D00098020020244A2549254A264A2649274A84
:1047E0002748284A284A294A294A2A482A482B4839
:1047F0002B4A2C482C4A2D482D4A2E482E482F480B
:104800002F48304A304A314A3148324A324A3348D6
:10481000334834483448354835483648364A374AAC
:10482000374A384A3848394839483A4A3A4A3B4A76
:104830003B483C483C483D493D483E4A3E4A3F4A49
:104840003F4A404A404A414A4148424A424A434814
:104850004348444A444A4548454A464A46484748E8
:1048600000BF00BF00BF7047ECA6000850A80008BA
:10487000EDA60008EEA60008F0A60008F4A60008C1
:10488000F8A60008F5A6000820A7000821A7000840
:1048900022A7000824A7000826A7000828A70008C8
:1048A0002AA700082CA700084CA700084EA700085C
:1048B00050A7000852A7000854A7000856A70008F0
:1048C00058A7000884A7000885A7000886A7000845
:1048D00088A700088AA700088BA700088CA70008F3
:1048E0008EA7000890A7000892A7000894A70008C8
:1048F00096A7000898A70008C8A70008C9A700083D
:10490000CAA70008CBA70008CCA70008CEA70008BC
:10491000D0A70008F8A70008F9A70008FAA7000820
:10492000FBA70008FCA70008FEA7000800A80008D5
:1049300004A8000805A8000806A8000807A80008A1
:1049400008A8000809A800080AA800080BA8000881
:104950000CA800080EA800080FA8000810A800085E
:1049600012A8000814A8000815A8000818A8000834
:1049700048A8000849A800084AA800084CA8000850
:104980000021034A1160034A118001807047000032
:104990001C020020200200202DE9F04F85B00446C3
:1049A000894692469B46DDF838800020009000BF83
:1049B00000BFFBF77DFC009000BF00BFBAF1000F05
:1049C0000AD0BAF1010F0DD0BAF5004F05D06FF43F
:1049D0000040504460B906E000BF206A40EA090088
:1049E000206214E000BF206A20EA090020620EE085
:1049F00000BF00BF0098FBF75FFC00BF00BF45F69B
:104A00002560A8F80000002005B0BDE8F08F00BFC9
:104A1000C4F824B004F1080001900198008958B945
:104A200000BF00BF0098FBF747FC00BF00BF00209D
:104A3000A8F80000206AE7E700BF5E480078401C45
:104A40005C49087000BF00BF0098FBF735FC00BF51
:104A500000BF00BF01980768BD6879E078680290E0
:104A600095F87C0000F00F000390039801281ED0F9
:104A7000022829D0042802D0082830D10CE0206A6E
:104A8000696F00EA0106686FB04204D15A463146A8
:104A9000284600F093F855E0206A696F00EA0106A5
:104AA00026B15A463146284600F088F84AE0686F39
:104AB000216A20EA0106686FB04204D15A463146A5
:104AC000284600F07BF83DE0686F216A20EA010685
:104AD00026B15A463146284600F070F832E000BF51
:104AE00000BF00BFFBF7E4FB009000BF00BF3148F0
:104AF0000078401E2F49087008460078A0B92E485B
:104B00000088002809DD00BF00BF0098FBF7D4FB38
:104B100000BF00BF00F04EFF0DE000BF00BF0098D7
:104B2000FBF7CAFB00BF06E000BF00BF0098FBF721
:104B3000C3FB00BF00BF00BF43F6FF20A8F8000082
:104B4000002061E700BF029F0FB1BD6800E00025B3
:104B5000002D83D100BF00BF00BFFBF7A9FB009071
:104B600000BF00BF13480078401E1249087000BF04
:104B700000BF0098FBF7A0FB00BF00BF00BF0AF416
:104B8000004008B9FEF704FC00BF00BFFBF790FB34
:104B9000009000BF00BF206A049000BF00BF0098D3
:104BA000FBF78AFB00BF00BF0020A8F800000498B4
:104BB0002AE700004C0200201002002070B50446D5
:104BC0000E46154634346664002060702070E5603F
:104BD000A078343C08281DD2DFE800F0040508095D
:104BE0000706171800BF00BF00BF14E000BF94F80D
:104BF0003600032802D1204602F01AF8204600F0C1
:104C000057FE002084F8360005E000BF042084F839
:104C1000360000E000BF00BF204600F088FC70BDF9
:104C2000002419E000BF00BFFBF742FB044600BFB1
:104C300000BF0A480068401C08490860084800682E
:104C4000401C0749086000BF00BF2046FBF734FB4B
:104C500000BF00BFFDF74EFFE4E7000000020020A8
:104C60005C02002010B58AB0044600200E4908609E
:104C70000B2000210591CDE90704069108460B4958
:104C800009680B4A12680B4B1B68CDE90132CDE96C
:104C900003103F200023084A08A100900C48FEF7AB
:104CA0009DFD0AB010BD00000002002060A60008B3
:104CB0005CA6000858A60008214C000875432F4F39
:104CC000532D4949492049646C65205461736B0038
:104CD000D84100202DE9F84F04460D4616461F46E0
:104CE000DDE90BABDDF82890DDF834800020009082
:104CF00000BF00BFFBF7DCFA009000BF00BF2B48ED
:104D000000882B49098888423EDA28480088401CE0
:104D100026490880274800880988884203DA234802
:104D200000882449088024480068046022480068FC
:104D3000856021480068C6601F48006807821E48D9
:104D40000068C0F814901C480068A0F818A01A4821
:104D50000068C0F81CB01848006840681649086030
:104D6000012016490881164808604860002000F0BC
:104D7000B7FC1448007818B112480078124908703E
:104D80000020A8F8000008E010480088401C0F49E7
:104D9000088044F25360A8F8000000BF00BF0098EC
:104DA000FBF78AFA00BF00BFBDE8F88F10020020B1
:104DB0006CA60008120200200802002054430020C4
:104DC0009042002032020020340200201402002011
:104DD0003EB555480068554A0168881A914279D015
:104DE0000FDC5348084400283ED052490844A8B17B
:104DF00051490844002860D05049084400286AD12D
:104E00003FE04F490844002850D04E49084400284C
:104E100062D04D4908440028F1D110E002A8424D6B
:104E200000902D68EB69404D2D682A8B3E4D2D6812
:104E300069693D4D2D68A868FFF7AEFD71E002A9D4
:104E400039480068C069384DCDE900012D682B8BC9
:104E5000354D2D682A8A344D2D68E968324D2D680C
:104E6000A86800F06DFC5CE02F4B1B68DA692E4BE4
:104E70001B68198B2C4B1B68986802AB00F0FCFD7B
:104E80004FE002A928480068C069274DCDE900011C
:104E90002D682B8B244D2D682A8A234D2D68E968B7
:104EA000214D2D68A86801F065F93AE01E490968AE
:104EB000886802A901F064FA33E01B4B1B68DA69C9
:104EC000194B1B68198B184B1B68986802AB01F0D3
:104ED00003FB26E007E023E013490968886802A97C
:104EE00001F05CFD1DE01048006802AB0021C269C2
:104EF000164801F0F1FA16480068401E144908608F
:104F00000846006858B9134800680860FBF7FCFEC3
:104F1000044602AB224600210F4801F0DDFA00E012
:104F200000BF00BF3EBD00000C0200205449434BAF
:104F3000ADBAB2BE0DF90BFAF2F8F7FF0006F6FFB4
:104F400000F7FDF700FFEFFF03FE0FFE0C47002008
:104F5000B0020020AC020020F047002000274CE007
:104F6000002648E000BF00BFFBF7A2F9074600BFDC
:104F700000BF2248008888B90020214908810860C4
:104F8000486000F0BFFB00BF00BF3846FBF794F954
:104F900000BF00BFFEF7FCF901262CE000BF00BFF8
:104FA0003846FBF789F900BF00BFFBF7ADFE0546A9
:104FB000FFF70EFFFBF7A8FE441B12480068A04253
:104FC00001D21048046000BF00BFFBF771F907462B
:104FD00000BF00BF0C48006840680B4908600748E4
:104FE0000088401E0549088000BF00BF3846FBF717
:104FF00063F900BF00BF002EB4D0B1E7100200205B
:1050000054430020180200200C020020F0B589B0A3
:1050100005460020314908803148006820B944F233
:105020005260288009B0F0BD2E480088022803DABB
:1050300044F254602880F5E700202B490860284896
:1050400004682646203600270CE02848206000200F
:10505000A060E0602082606120836660203420369A
:10506000781C87B21F4800888742EEDB203C1C4832
:10507000066866601E4806601E48066000201E49DD
:1050800008801E4908801E48006818B944F255601F
:105090002880C7E71B4800681B490968884203D27B
:1050A00044F256602880BDE7032000210591CDE938
:1050B0000705069113480068144A1268104B1B68D4
:1050C000CDE90301CDE9013200910B46104A11A14F
:1050D0001748FEF783FB00BFA4E70000140200207E
:1050E00068A600086CA60008180200204E4F4E4526
:1050F000080200200C0200201002002012020020F2
:1051000074A600087CA60008B4A6000878A60008CB
:105110005D4F000875432F4F532D4949492049538E
:1051200052205175657565205461736B0000000055
:10513000904200200021034A1160034A118001803F
:1051400070470000240200202802002070B50146AC
:105150001A4D2D681DB945F21E750D8070BD184D94
:105160002D881DB945F21D750D80F7E7134D286890
:105170002A681032124D2D886D1EACB2002308E053
:105180000260002545600581C560103010325D1C4D
:10519000ABB2A342F4DB0025056045600581C56024
:1051A000064D2D68074E3560054D2D88B5800025CC
:1051B000F58035810D8000BFD0E7000098A600087B
:1051C00090A600084843002010B5014648894B8945
:1051D000002B17DD0A680C4B1B6813600A4C4B68E8
:1051E00023602346DB884C891B1B074CE380234646
:1051F0009B884C892344044CA38000234B818B81E2
:105200000B604B6010BD000048430020018100226C
:105210004281828102604260704700002DE9F041C6
:105220000D46DDE90674B0F80AC0B0F80880C44540
:1052300005DB46F2935CA4F800C0BDE8F081DFF81E
:10524000DCC0BCF804C0BCF1000F04D145F21D7CE9
:10525000A4F800C0F1E7DFF8C4C0DCF80010DFF804
:10526000BC80D1F800C0C8F800C0C446BCF804C077
:10527000ACF1010CA8F804C0C446BCF806C00CF19F
:10528000010CA8F806C0C446BCF808C0B8F80680EF
:10529000C44507DADFF884C0BCF806C0DFF87C80BC
:1052A000A8F808C0B0F80AC0BCF1000F0AD101602C
:1052B00041604FF0010CA0F80AC04FF0000CC1F89B
:1052C00000C017E003F0100CBCF1000F07D1066816
:1052D000316001604FF0000CC1F800C004E0D0F86C
:1052E00004C0C1F800C04160B0F80AC00CF1010C64
:1052F000A0F80AC0B0F80CC0B0F80A80C44503DAC0
:10530000B0F80AC0A0F80CC04D600A81CF604FF021
:10531000000CA4F800C000BF8FE700004843002045
:1053200009A1C161002141610849096811B9002141
:10533000816105E00549096881610449096848619E
:105340000249086070470000200000002C02002085
:105350000021034A1160034A118001807047000058
:105360002C020020300200202DE9F04105460C46B9
:1053700016461F461548006880F83460002013491F
:10538000096881F8350039461048006800F038FE99
:105390006CB104F10808EC60012229460B48006852
:1053A00000F016F82946404600F08EF806E000208E
:1053B00006490968C8870549096808630348016800
:1053C000204600F019F8BDE8F0810000B40200208A
:1053D00010B5C287016300230AE000244C600C6012
:1053E0000C614C610C83CC61886020315C1CA3B2E1
:1053F0009342F2DB10BD000030B548B14568C1F8FA
:10540000B45000F10804226893681D6AC56113E076
:1054100091F83450022D02D0072D08D103E007A5E2
:10542000C1F8B45007E007A5C1F8B45003E008A5DF
:10543000C1F8B45000BF00BF30BD00005461736BB1
:10544000205100005461736B2053656D0000000013
:105450002000000030B507A5C1F8B45000F10804E1
:1054600022681AB193681D6AC56101E001A5C56192
:1054700030BD0000200000002DE9F04304460F4637
:1054800084F83770256BB4F83E8013E0D5F80C90A3
:1054900009F108063089012807D92946304600F06D
:1054A0005EF82946304600F00FF82035A8F10100DB
:1054B0001FFA80F8B8F1000FE8D1BDE8F0830021B1
:1054C0000160416001817047F0B58E6896F83750F1
:1054D00007893FB90127078100274F600F600160EE
:1054E000416023E007897F1C0781026806E0946819
:1054F00094F83770AF4200DD02E05268002AF6D11E
:1055000000BF32B900274F6043680B6059604160AB
:105510000CE017682FB9116000270F604A60016026
:1055200004E013680B604A6059601160F0BD2DE91A
:10553000F0410446256BE68F0AE0D5F80C8008F1AF
:1055400008072946384600F00AF82035701E86B252
:10555000002EF2DC0020E0872063BDE8F08110B56A
:105560000489012C03D100240460446011E00C681C
:1055700024B94A680024146002600AE04C6824B927
:105580000B6800245C60436003E00B684A685A6063
:1055900013600489641E048100244C600C6010BDFB
:1055A0002DE9F84306460C4617469846089D94F8A0
:1055B000360008285BD2DFE800F00405080906077A
:1055C000323300BF00BF00BF52E000BF94F8340088
:1055D000032807D143463A4621463046009500F05D
:1055E0004AF803E02765A4F85480256436B12046C4
:1055F000FFF79DFF21463046FFF72CFF94F8360059
:10560000032802D1204601F013FB204600F050F998
:1056100000203434A070607004F8340928E000BF22
:1056200094F83400032807D143463A4621463046D1
:10563000009500F020F803E02765A4F85480256465
:1056400036B12046FFF773FF21463046FFF702FFD1
:1056500094F83600072802D1204601F0E9FA042028
:105660003434A0700020607004F8340900E000BFFA
:1056700000BFBDE8F883F0B50446059E086BCD8FEA
:105680000AE0C768A74204D1046142610383C6618E
:1056900004E020306F1EBDB2002DF2DC00BFF0BD73
:1056A00070B50025074C03E005F12000C5B2241DAC
:1056B00020680028F8D02068FAF705FE2844C5B213
:1056C000284670BDDC010020002004E00021034AD0
:1056D00042F82010401C0228F8D37047DC0100205B
:1056E00030B5420900F01F030121C3F11F04A1409E
:1056F000034C54F822400C43014D45F8224030BD84
:10570000DC01002030B5420900F01F030121C3F184
:105710001F04A140034C54F822408C43014D45F82E
:10572000224030BDDC0100200021034A1160034A01
:105730001180018070470000380200203C020020E8
:105740002DE9F04F85B007468A4693461C46002057
:10575000029000BF00BF00BFFAF7AAFD029000BF91
:1057600000BF48480078401C4649087000BF00BF91
:105770000298FAF7A1FD00BF00BF00BF07F10806BD
:105780003089002842D104F0100010B94FF0000811
:1057900001E04FF01008DDE90E0143465A46CDE91D
:1057A0000001514607F12000FFF738FD00BF00BFA0
:1057B00000BFFAF77DFD029000BF00BF31480078BE
:1057C000401E3049087008460078A0B92E4800886D
:1057D000002809DD00BF00BF0298FAF76DFD00BF89
:1057E00000BF00F0E7F80DE000BF00BF0298FAF735
:1057F00063FD00BF06E000BF00BF0298FAF75CFD42
:1058000000BF00BF00BF05B0BDE8F08F04F400701A
:1058100008B1358900E00125D6F8009011E0D9F8EB
:1058200008000390D9F8040004900E985B46524695
:10583000009038460399FFF7B3FEDDF81090681E1C
:1058400085B2002DEBD100BF00BF00BFFAF730FDDD
:10585000029000BF00BF0B480078401E0949087045
:1058600000BF00BF0298FAF727FD00BF00BF00BFCE
:1058700004F4004008B9FDF78BFD00210F9801806A
:1058800000BFC0E74C0200201002002000210AE007
:1058900001EB4102054B03EB820000220281026012
:1058A00042604A1CD1B24029F2D3704754430020D1
:1058B00010B5044694F83700FFF712FF94F837004C
:1058C00005490978884203D1204600F027F802E014
:1058D000204600F003F810BD3202002010B590F809
:1058E000373003EB43030C4C04EB83010B893BB9CA
:1058F00001230B810023C36003610860486009E055
:105900000B895B1C0B810B68C360002303610A6871
:105910001061086010BD00005443002010B590F8DD
:10592000373003EB43030B4C04EB83010B893BB98A
:1059300001230B810023C36003610860486008E015
:105940000B895B1C0B810023C3604A680261D06035
:10595000486010BD544300202DE9F041054695F8FC
:10596000370000EB4000124901EB80042F69EE681C
:1059700087B946B9002020812060606095F8370023
:10598000FFF7C0FE0EE02089401E2081002030611C
:10599000266007E02089401E2081FE600EB9676006
:1059A00000E0376100202861E860BDE8F081000078
:1059B0005443002010B5002400BFFAF779FC0446D8
:1059C00000BF00200C4908700C480D4908600846CB
:1059D0000068D0F88400401C0968C1F884000948B8
:1059E0000068401C07490860FAF7C7FC00BF204662
:1059F000FAF762FC00BF10BD330200209042002085
:105A0000B80200207002002010B504480078012878
:105A100003D1FBF779F90249086010BD4C02002060
:105A20004002002010B50A48007880B9FBF76CF9F5
:105A300008490968441A08480068A04201D206488B
:105A4000046006480068A04201D20448046010BD0A
:105A50004C020020400200204402002048020020A6
:105A60000021034A1160034A118001807047000041
:105A700050020020540200202DE9FF5F04468846B2
:105A800091461D460020019000BF00BFFAF710FCB0
:105A9000019000BF00BF04F10807388900284FD1EA
:105AA0000420012804D0022814D0042834D123E093
:105AB000206AFF280DD100BF00BF0198FAF7FCFB58
:105AC00000BF00BF46F6C5502880002004B0BDE8E6
:105AD000F09F22E04FF6FF71206A88420BD100BF91
