:020000040800F2
:10000000D84A00206902000831320008ED300008AB
:10001000C7310008611300080DA4000800000000AB
:100020000000000000000000000000001380000835
:10003000E1250008000000008F0300080982000885
:10004000830200088302000883020008830200087C
:10005000830200088302000883020008830200086C
:10006000830200088302000883020008830200085C
:10007000830200088302000883020008A12200080E
:1000800083020008B12200088302000883020008EE
:10009000830200088302000883020008830200082C
:1000A000830200088302000883020008830200081C
:1000B000830200088302000883020008830200080C
:1000C00083020008830200088302000883020008FC
:1000D000830200088302000881860008830200086A
:1000E00083020008830200088302000883020008DC
:1000F00083020008830200088302000883020008CC
:1001000083020008830200088302000883020008BB
:100110007186000883020008830200088302000839
:10012000830200088302000883020008830200089B
:10013000830200088302000883020008830200088B
:10014000830200088302000883020008A17C0008E3
:10015000830200088302000883020008830200086B
:10016000830200088302000883020008830200085B
:10017000830200088302000883020008830200084B
:10018000830200088302000800F002F800F05CF827
:100190000AA090E8000C82448344AAF10107DA45E2
:1001A00001D100F051F8AFF2090EBAE80F0013F0D8
:1001B000010F18BFFB1A43F00103184740B50000B8
:1001C00060B500000A444FF0000C10F8013B13F03A
:1001D000070408BF10F8014B1D1108BF10F8015BA0
:1001E000641E05D010F8016B641E01F8016BF9D193
:1001F00013F0080F1EBF10F8014BAD1C0C1B09D1EA
:100200006D1E58BF01F801CBFAD505E014F8016B5B
:1002100001F8016B6D1EF9D59142D6D370470000ED
:100220000023002400250026103A28BF78C1FBD8FF
:10023000520728BF30C148BF0B6070471FB50BF095
:1002400059F91FBD10B510BD00F04BF81146FFF76E
:10025000F5FF0AF035FB00F069F803B4FFF7F2FF91
:1002600003BC00F071F800000948804709480047C6
:10027000FEE7FEE7FEE7FEE7FEE7FEE7FEE7FEE756
:10028000FEE7FEE704480549054A064B70470000B3
:100290007982000889010008D8440020D84A00204B
:1002A000D8460020D846002072B6704762B6704724
:1002B000EFF3108072B6704780F31088704730BF3C
:1002C000704720BF7047B0FA80F0704790FAA0F0F6
:1002D000B0FA80F0704790FAA0F07047704770470E
:1002E0007047754600F02CF8AE4605006946534647
:1002F00020F00700854618B020B5FFF7C3FFBDE822
:1003000020404FF000064FF000074FF000084FF07C
:10031000000B21F00701AC46ACE8C009ACE8C0090D
:10032000ACE8C009ACE8C0098D46704710B504467A
:10033000AFF300802046BDE81040FFF78EBF0000FD
:10034000004870477844002001491820ABBEFEE702
:10035000260002007047000022484FF6FF7101702E
:10036000002080F309882048016881F308881F482D
:100370004FF08051016062B6FEE71C484FF080519B
:100380000160704719484FF080510160704772B6A4
:10039000EFF3098050B11EF0100F08BF20ED108A56
:1003A000203880E8F00F12490968086000B511484C
:1003B00080475DF804EB104810490A7802700C4839
:1003C0000F490A680260106890E8F00F20301EF0B4
:1003D000100F08BFB0EC108A80F309884EF0040EAD
:1003E00062B6704722ED00E0CC02002004ED00E090
:1003F000C4020020D54A00083A0200203B02002037
:10040000C802002021B1826842F00102826003E04C
:10041000826822F001028260704700000021084AD1
:100420001168084A1140D0E900231A4383681A432F
:10043000C3681A431143044AC2F80413704700000A
:1004400004230140E030FCFF0020014021B182681C
:1004500042F48072826003E0826822F480728260DB
:10046000704721B1826842F40072826003E08268C2
:1004700022F400728260704730B5024600200023EB
:100480005068104C20400D790C6844EA0524204344
:10049000506090680C4C2040D1E903542C438D6887
:1004A0002C434D7944EA450420439060D06A20F4FF
:1004B00070000C7D641EE4B2234340EA0350D06216
:1004C00030BD0000FFFEFFFCFDF7FFC0F0B50446A5
:1004D0000D4600200021092D11DDE068A5F10A0676
:1004E00006EB4607072606FA07F18843A5F10A0638
:1004F00006EB460603FA06F10843E0600CE02069CB
:1005000005EB4507072606FA07F1884305EB450684
:1005100003FA06F108432061072A0FDA606B561EC2
:1005200006EB86071F2606FA07F18843561E06EBE0
:10053000860605FA06F10843606322E00D2A0FDA09
:10054000206BD61F06EB86071F2606FA07F18843A5
:10055000D61F06EB860605FA06F10843206310E075
:10056000E06AA2F10D0606EB86071F2606FA07F1E0
:100570008843A2F10D0606EB860605FA06F108434C
:10058000E062F0BD816841F0804181607047000009
:1005900010B52DED0C8B012000F068FB04460AF02D
:1005A000A1FD41EC1D0B9FEDFE0B53EC102B0AF04F
:1005B000ADFD41EC1C0B9FEDFC0B53EC102B0AF036
:1005C000C5FB41EC1B0B9FEDFA0B53EC102B0AF013
:1005D000BDFB41EC1A0B9FEDF80B53EC102B0AF00E
:1005E00095FD41EC190B9FEDF60B53EC102B0AF027
:1005F0008DFD41EC180B0AF031FDF34948830220D0
:1006000000F034FB04460AF06DFD41EC1D0B9FED3C
:10061000E40B53EC102B0AF079FD41EC1C0B9FED21
:10062000E20B53EC102B0AF091FB41EC1B0B9FEDFE
:10063000E70B53EC102B0AF089FB41EC1A0B9FEDF2
:10064000E50B53EC102B0AF061FD41EC190B9FED0B
:10065000DC0B53EC102B0AF059FD41EC180B0AF09F
:10066000FDFCD9498883032000F000FB04460AF012
:1006700039FD41EC1D0B9FEDCA0B53EC102B0AF01A
:1006800045FD41EC1C0B9FEDC80B53EC102B0AF001
:100690005DFB41EC1B0B9FEDC60B53EC102B0AF0DE
:1006A00055FB41EC1A0B9FEDC40B53EC102B0AF0D9
:1006B0002DFD41EC190B9FEDC20B53EC102B0AF0F2
:1006C00025FD41EC180B0AF0C9FCBF49C883042082
:1006D00000F0CCFA04460AF005FD41EC1D0B9FED3D
:1006E000B00B53EC102B0AF011FD41EC1C0B9FEDED
:1006F000AE0B53EC102B0AF029FB41EC1B0B9FEDCA
:10070000B30B53EC102B0AF021FB41EC1A0B9FEDBD
:10071000B10B53EC102B0AF0F9FC41EC190B9FEDD7
:10072000A80B53EC102B0AF0F1FC41EC180B0AF06B
:1007300095FCA5498883052000F098FA04460AF044
:10074000D1FC41EC1D0B9FED960B53EC102B0AF0E6
:10075000DDFC41EC1C0B9FED940B53EC102B0AF0CD
:10076000F5FA41EC1B0B9FED9D0B53EC102B0AF09F
:10077000EDFA41EC1A0B9FED9B0B53EC102B0AF09A
:10078000C5FC41EC190B9FED8E0B53EC102B0AF0BE
:10079000BDFC41EC180B0AF061FC8B494884062033
:1007A00000F064FA04460AF09DFC41EC1D0B9FED3D
:1007B0007C0B53EC102B0AF0A9FC41EC1C0B9FEDB9
:1007C0007A0B53EC102B0AF0C1FA41EC1B0B9FED96
:1007D000830B53EC102B0AF0B9FA41EC1A0B9FED86
:1007E000810B53EC102B0AF091FC41EC190B9FED9F
:1007F000740B53EC102B0AF089FC41EC180B0AF037
:100800002DFC71498884072000F030FA04460AF074
:1008100069FC41EC1D0B9FED620B53EC102B0AF0B1
:1008200075FC41EC1C0B9FED600B53EC102B0AF098
:100830008DFA41EC1B0B9FED6D0B53EC102B0AF066
:1008400085FA41EC1A0B9FED6B0B53EC102B0AF061
:100850005DFC41EC190B9FED5A0B53EC102B0AF089
:1008600055FC41EC180B0AF0F9FB5749C8840820E5
:1008700000F0FCF904460AF035FC41EC1D0B9FED3D
:10088000480B53EC102B0AF041FC41EC1C0B9FED84
:10089000460B53EC102B0AF059FA41EC1B0B9FED61
:1008A000530B53EC102B0AF051FA41EC1A0B9FED4D
:1008B000530B53EC102B0AF029FC41EC190B9FED64
:1008C000400B53EC102B0AF021FC41EC180B0AF002
:1008D000C5FB3D490885092000F0C8F904460AF027
:1008E00001FC41EC1D0B9FED2E0B53EC102B0AF07D
:1008F0000DFC41EC1C0B9FED2C0B53EC102B0AF064
:1009000025FA41EC1B0B9FED350B53EC102B0AF035
:100910001DFA41EC1A0B9FED330B53EC102B0AF030
:10092000F5FB41EC190B9FED260B53EC102B0AF055
:10093000EDFB41EC180B0AF091FB234948850A2096
:1009400000F094F904460AF0CDFB41EC1D0B9FED3D
:10095000140B53EC102B0AF0D9FB41EC180B9FED54
:10096000120B53EC102B0AF0F1F941EC1C0B9FED2C
:100970001B0B53EC102B0AF0E9F941EC1B0B9FED1C
:10098000190B53EC102B0AF0C1FB41EC1A0B9FED35
:100990000C0B53EC102B0AF0B9FB41EC190B31E0B6
:1009A0006666666666660A400000000000FEAF40AC
:1009B000E17A14AE47E11040AE47E17A140E5A4096
:1009C0000000000000005940081700205C8FC2F5AD
:1009D000285C05407B14AE47E1AA594000000000A6
:1009E00000002E403333333333F34340F6285C8F1B
:1009F000C2F51340A4703D0AD7E33D408FC2F528ED
:100A00005CBF5C400AF02AFB6A4988850B2000F035
:100A10002DF904460AF066FB41EC1D0B1FED200B7F
:100A200053EC102B0AF072FB41EC1C0B1FED220B58
:100A300053EC102B0AF08AF941EC190B1FED150B42
:100A400053EC102B0AF082F941EC180B9FED5A0B76
:100A500053EC102B0AF05AFB41EC1B0B1FED280B3B
:100A600053EC102B0AF052FB41EC1A0B0AF0F6FA89
:100A70005049C8850C2000F0F9F804460AF032FB12
:100A800041EC1D0B1FED3A0B53EC102B0AF03EFB13
:100A900041EC1C0B1FED3C0B53EC102B0AF056F9EC
:100AA00041EC1B0B1FED330B53EC102B0AF04EF9EE
:100AB00041EC1A0B1FED350B53EC102B0AF026FB03
:100AC00041EC190B1FED420B53EC102B0AF01EFBEF
:100AD00041EC180B0AF0C2FA364908860D2000F0E6
:100AE000C5F804460AF0FEFA41EC1D0B1FED540B4D
:100AF00053EC102B0AF00AFB41EC1C0B1FED560BBC
:100B000053EC102B0AF022F941EC180B9FED2C0B43
:100B100053EC102B0AF01AF941EC1B0B9FED2A0B3A
:100B200053EC102B0AF0F2FA41EC1A0B1FED5C0BA0
:100B300053EC102B0AF0EAFA41EC190B0AF08EFA8A
:100B40001C4948860E2000F091F804460AF0CAFAC3
:100B500041EC1D0B1FED6E0B53EC102B0AF0D6FA77
:100B600041EC190B1FED700B53EC102B0AF0EEF853
:100B700041EC180B9FED120B53EC102B0AF0E6F82A
:100B800041EC1C0B9FED100B53EC102B0AF0BEFA3E
:100B900041EC1B0B1FED760B53EC102B0AF0B6FA51
:100BA00041EC1A0B0AF05AFA02498886BDEC0C8B0C
:100BB00010BD0000081700207B14AE47E1FA2D405D
:100BC000000000000000244000000000000034404D
:100BD00030B58BB004460D462148844203D1012133
:100BE000801507F0CFF81F48844203D1012140153A
:100BF00007F0C8F81C48844203D10121001507F012
:100C0000C1F801214FF4A06007F0CCF800214FF4A7
:100C1000A06007F0C7F8002007904FF480300890DC
:100C2000002009900A9007A8FFF7F8FB0020019028
:100C300001208DF808008DF80900002003904FF086
:100C400070600490002005908DF8185001A920468E
:100C5000FFF712FC01212046FFF7D4FB0BB030BD9B
:100C6000002001400021014000220140F0B58AB07F
:100C70000346002400210BE0C1EBC1001B4E06EB34
:100C80008006581E36F810002DF81100481CC1B21D
:100C90001429F1DB00211AE0002212E03DF8126075
:100CA000501C3DF81000864209DD3DF81250501CE2
:100CB0003DF810002DF81200501C2DF81050501C5B
:100CC000C2B2C1F113009042E8DC481CC1B2142941
:100CD000E2DB022104E03DF811000444481CC1B2EB
:100CE0001229F8DBC4F30F100AB0F0BD141E002067
:100CF00010B51B48408841F64C5188422FDD1848FA
:100D00004088B0F57A7F2ADA15488088884226DD47
:100D100013488088B0F57A7F21DA1148C088B0F591
:100D2000FA7F1CDD0E48C088FA2818DA0C480089C2
:100D3000B0F5FA7F13DD0A480089FA280FDA08496E
:100D4000488800F06AF80649888800F050F804499D
:100D5000C88800F041F80249088900F03DF810BD4C
:100D60000817002010B51B48408841F64C518842B6
:100D70002FDD18484088B0F57A7F2ADA1548808838
:100D8000884226DD13488088B0F57A7F21DA114841
:100D9000C08888421DDD0F48C088B0F5FA7F18DA98
:100DA0000C480089884214DD0A480089B0F5FA7FB2
:100DB0000FDA0849488800F030F80649888800F0C2
:100DC00016F80449C88800F037F80249088900F08D
:100DD00019F810BD0817002070B50446204606F02B
:100DE0006DFF0546E9B2012001F02CFB70BD70B526
:100DF0000446204609F01CFC0546E9B2012001F03A
:100E00007DFB70BD70B50446204609F011FC054617
:100E1000E9B2022001F072FB70BD70B504462046B5
:100E200009F056FC05462946002000F099FC0121F6
:100E3000002000F0B5FC70BD70B50446204609F0F6
:100E400047FC05462946002000F09AFC01211020AD
:100E500000F0A6FC70BD00000EB50FE04FF48061FD
:100E6000074801F03DFD02A808214FF4FA73002263
:100E7000CDE900101146104603F0F6FEEEE7000043
:100E8000000C024000B58BB00AA803210022059295
:100E9000CDE90621089010464FF480711922074BC6
:100EA000CDE90132CDE9031003200023044A05A156
:100EB0000090084803F0CAF80BB000BD800800207D
:100EC000590E00084170705F4C65645F5461736B2C
:100ED00000000000C007002010B586B0002400F01C
:100EE00041FA05A803F030F805AA0121084602F0EE
:100EF000DFFE00BF00BF00BFFFF7DAF9044600BF06
:100F000000BF2C480078401C2A49087000BF00BF71
:100F10002046FFF7D1F900BF00BF00BFFFF7B2FFC7
:100F200000F0BEF900F09AF805A80021224A022339
:100F3000CDE90032CDE9021001231A461FA1244851
:100F400003F0B2FF05A9224804F008F805A92148DA
:100F500003F090FD00BF00BF00BFFFF7A9F90446F2
:100F600000BF00BF13480078401E124908700846B1
:100F70000078A0B918480088002809DD00BF00BF2C
:100F80002046FFF799F900BF00BF05F085F90DE095
:100F900000BF00BF2046FFF78FF900BF06E000BF8B
:100FA00000BF2046FFF788F900BF00BF00BF06B0B2
:100FB00010BD00005402002075A700085379735F2C
:100FC000537461746543686B5F546D720000000078
:100FD00090030020D00200201802002000B58BB042
:100FE0000AA8032100220592CDE9062108901046A7
:100FF0004FF480711922074BCDE90132CDE903107E
:101000001E200023044A05A10090084803F01EF8A2
:101010000BB000BDC0030020D90E00084170705F06
:1010200053746172745F5461736B0000D0020020CE
:101030000EB511E0BDF8080007F07CF9BDF8080016
:1010400007F080FA02A808210A230022CDE9001047
:101050001146104603F008FEECE7000000B58BB027
:101060000AA8032100220592CDE906210890104626
:101070004FF480711922074BCDE90132CDE90310FD
:1010800008200023044A05A10090084802F0DEFF72
:101090000BB000BD40120020311000085379734F8F
:1010A0006E4F66665461736B54636200801100205A
:1010B0000EB5E3E009F0F8F960B171480068C1B21B
:1010C000704806F009FF012801D100F033FA002032
:1010D0006B4908606C4890F8450001283ED100211A
:1010E000694880F845100220684988700820C87057
:1010F0006548408B0012496808706348807E6349E8
:10110000496848706048808B00126049496888705F
:101110005D48007F5D494968C8705B48C08B00121C
:101120005A49496808715848807F58494968487148
:101130005548008C0012554949688871524890F80A
:10114000200052494968C871514801F00FFB5048CE
:10115000C078811D4F48C2684D4890474A4890F872
:10116000460001283ED10021474880F84610032060
:10117000464988700820C8704348408B001249686F
:1011800008704148807E4149496848703E48808BDC
:1011900000123E49496888703B48007F3B494968D6
:1011A000C8703948C08B0012384949680871364800
:1011B000807F3649496848713348008C00123349B2
:1011C00049688871304890F8200030494968C871F2
:1011D0002F4801F0CBFA2E48C078811D2D48C268F7
:1011E0002B489047284890F84700A8B1012126488D
:1011F00080F847100020254988700120C870002021
:1012000049680870224801F0B1FA2148C078811D70
:101210002048C2681E4890471B4890F8480018B301
:101220000121194880F8481013201849C870084651
:101230004168194802680A6042684A6002890A8166
:10124000807A88721148406814490A6840F80B2F68
:10125000496841600E4801F089FA0D48C078811D47
:101260000C48C2680A48904702A808210A230022B5
:10127000CDE900101146104603F0F6FC1AE7000015
:1012800070000020AE21002008170020240000205C
:10129000800C00207C000020000000200B000020BB
:1012A00000B58BB00AA8032100220592CDE90621E2
:1012B000089010464FF480711922074BCDE9013296
:1012C000CDE9031004200023044A05A1009008483A
:1012D00002F0BCFE0BB000BD800D0020B110000874
:1012E0004170705F5573625F5461736B0000000062
:1012F000C00C00201FB5684606F064FD019804B0DC
:1013000010BD000008B500214FF0006001F0D8FFCB
:1013100001F0E0FF01F07EFB0D480E4B0E4A01216B
:1013200000900E4807F02FFD06F078FF00F08AF9D4
:1013300001F058F906F0E4FE09F0ECF801F0D8FEEF
:10134000002001F037F9102001F034F908BD000049
:10135000E8000020280100209000002058170020FD
:1013600000BFFEE710B500F01FF800F019F810BD3F
:1013700010B5002400BF00BFFEF79AFF044600BF6F
:1013800000BF1021054801F020FF00BF00BF20462C
:10139000FEF792FF00BF00BF10BD0000EE29002045
:1013A00010B5FFF7E5FF10BD10B500200249086039
:1013B00000F00AF810BD0000E001002001490860BB
:1013C00070470000E001002010B5FFF793FF0446CE
:1013D0000848006840F0807006490860002006490F
:1013E00048600846006840F0010008602046FFF7AA
:1013F000E5FF10BDFCED00E0001000E00149486889
:1014000070470000001000E010B52DED048B464938
:10141000488809F067FE41EC190B9FED440B53EC33
:10142000102B09F073FE41EC180B09F017FE3E4932
:101430004881488809F056FE41EC190B9FED3B0BA3
:1014400053EC102B09F062FE41EC180B09F006FE7C
:1014500035498881888809F045FE41EC190B9FEDDC
:10146000330B53EC102B09F051FE41EC180B09F033
:10147000F5FD2D49C881888809F034FE41EC190B2F
:101480009FED2A0B53EC102B09F040FE41EC180B9A
:1014900009F0E4FD24490882C88809F023FE41ECE4
:1014A000190B9FED220B53EC102B09F02FFE41EC92
:1014B000180B09F0D3FD1C494882C88809F012FEB8
:1014C00041EC190B9FED190B53EC102B09F01EFE8C
:1014D00041EC180B09F0C2FD13498882088909F014
:1014E00001FE41EC190B9FED110B53EC102B09F091
:1014F0000DFE41EC180B09F0B1FD0B49C8820889BB
:1015000009F0F0FD41EC190B9FED080B53EC102B8B
:1015100009F0FCFD41EC180B09F0A0FD024908831D
:10152000BDEC048B10BD0000081700209A99999912
:101530009999C93F10B50D48807830B1012807D07E
:10154000022808D003280CD108E001F041FA0BE092
:1015500001F036FA08E001F0FDF905E001F0C4F908
:1015600002E001F007FE00BF00BF10BD1800002020
:1015700010B540F224412D4807F0AEF818B340F200
:1015800024412A4807F084F8284800882748001D8D
:1015900000880021264800F0C7FE2649244800F0B4
:1015A0008FFE234800F0CBFEC0F1040022490871F1
:1015B000084600681E494039C86404204864012177
:1015C0001B4800F0B1FE40F224411C4807F084F8AB
:1015D00050B340F22441194807F05AF817480088E0
:1015E0001648001D008800211148483000F09CFE7C
:1015F00010490F48483000F063FE0D48483000F0B5
:101600009EFEC0F104000E490871084600680849B2
:1016100054310860042006494039C1F88C0001218A
:101620000348483000F080FE10BD0000004C004030
:1016300040600240200000204000002000440040A4
:101640005000002000B585B04FF4E131294808F082
:10165000DFFE002240F22551264807F067F80022FD
:1016600040F22771234807F061F8012240F224413B
:10167000204807F05BF8012240211E4807F023F8BC
:10168000012280211B4807F01EF84FF44030002152
:1016900001910291CDE90310042000901648154AEB
:1016A000121D51060368154801F002F84FF440304E
:1016B000002101910291CDE903100420009010480F
:1016C0000C4A121D510603680C48183000F0F0FF58
:1016D00001210A4800F028FE00210848183000F0D7
:1016E00023FE012210210548183000F05FFE05B0EE
:1016F00000BD00000044004050000020886002400F
:101700005800002039B1084A1268012383401A4367
:10171000054B1A6006E0044A1268012383409A438D
:10172000014B1A60704700000074004030B5002281
:1017300000230A4C226840F6FE748440A243D1E99B
:1017400000452C438D682C43CD6844EA050303FA19
:1017500000F42243014C226030BD000000740040C0
:1017600008B500220092054A009200F10802009B91
:101770001A440092009A116008BD000000740040F5
:1017800008B500220092054A009200F11402009B65
:101790001A440092009A116008BD000000740040D5
:1017A00010B541B1084A126804090123A3401A4345
:1017B000054B1A6007E0044A126804090123A3409C
:1017C0009A43014B1A6010BD0474004070B5064680
:1017D0000C4604F08000802808D104F07F0000EB64
:1017E000800106F58E7000EBC10507E004F07F0074
:1017F00000EB800106F55D7000EBC10504F07F0091
:10180000287004F08000C00968702946304608F04E
:101810008EFA002070BD70B506460C4604F08000BC
:10182000802808D104F07F0000EB800106F58E705F
:1018300000EBC10505E004EB840106F55D7000EBEB
:10184000C1050020A87004F07F002870C4F3C01008
:1018500068702946304608F042FA002070BD2DE934
:10186000F04106460D4690461F4605F08000802850
:1018700008D105F07F0000EB800106F58E7000EBCB
:10188000C10407E005F07F0000EB800106F55D7004
:1018900000EBC10405F07F00207005F08000C00956
:1018A0006070C4F80880E770607808B12078E08044
:1018B000022F01D1002020712146304608F0C3F9E3
:1018C0000020BDE8F0812DE9F04105460E4617469F
:1018D000984606F07F0000EB800105F55D7000EB97
:1018E000C104E760C4F814800020A061607006F0B5
:1018F0007F002070E878012800D12761207820B986
:101900002146284608F0C3F803E02146284608F09F
:101910008DFA0020BDE8F08108B500220092009AFF
:1019200061F30A12009202691268009B1A4303696C
:101930001A6008BD70B506460C4604F08000802889
:1019400008D104F07F0000EB800106F58E7000EBFB
:10195000C10505E004EB840106F55D7000EBC105EF
:101960000120A87004F07F002870C4F3C0106870D4
:101970002946304608F028FA002070BD2DE9F041D4
:1019800007460D461646984605F07F0000EB80019D
:1019900007F58E7000EBC1040120607005F07F0038
:1019A0002070E66026610020A061C4F814802078D1
:1019B00020B92146384608F06AF803E02146384647
:1019C00008F034FA0020BDE8F081000030B587B09F
:1019D0000546594C284608F020F801A806F0F2F90F
:1019E000029CE868C0680590059820F47050059046
:1019F0000598E968C860284608F0EAFB03280BD17F
:101A00000020A8704FF40070A880059820F4705052
:101A100000F5105005907EE00120A8704020A880BD
:101A20004648844209D34648844206D2059820F4A9
:101A3000705000F5605005906DE04148844209D334
:101A40004048844206D2059820F4705000F550506A
:101A5000059060E03B48844209D33B48844206D26B
:101A6000059820F4705000F54050059053E036483A
:101A7000844209D33548844206D2059820F4705038
:101A800000F53050059046E03048844209D3304894
:101A9000844206D2059820F4705000F5205005903D
:101AA00039E02B48844209D32A48844206D205985B
:101AB00020F4705000F5105005902CE02548844229
:101AC00009D32548844206D2059820F4705000F5C9
:101AD000005005901FE02048844209D31F488442EB
:101AE00006D2059820F4705000F5E050059012E001
:101AF0001A48844209D31A48844206D2059820F431
:101B0000705000F5C050059005E0059820F4705025
:101B100000F5A05005900598E968C860002006907F
:101B2000069820F4005000F5005006900698E968E9
:101B30004861012007B030BD007A030AC0E1E4002B
:101B40000024F400E0EC040100C31801002D310171
:101B500040A44C0100366E0140E2950180C3C901EA
:101B600060600B02F8B5054600240020009028466E
:101B700008F06FFB064681E006F0010000287BD0EC
:101B8000E1B2284600F00CFB0090009800F0010044
:101B900030B3012000FA04F72869406BB843296983
:101BA000486300200090009820F00100401C009045
:101BB00005F1180050F8240000998160E1B2324824
:101BC0000068426828469047E878012808D13CB967
:101BD00040F21110405D042802D1284608F002F8B6
:101BE0000098C0F3C00060B100200090009820F081
:101BF00008000830009005F1180050F82400009902
:101C000081600098C0F3001060B10020009000983F
:101C100020F010001030009005F1180050F824005A
:101C2000009981600098C0F3801060B1002000909E
:101C3000009820F040004030009005F1180050F866
:101C40002400009981600098C0F3400060B100203A
:101C50000090009820F00200801C009005F1180010
:101C600050F82400009981600098C0F3C01018B1AA
:101C70002146284600F0BEFA641C7608002E7FF448
:101C80007BAF0120F8BD0000CC0100207CB50446EC
:101C9000002500200190204608F0E3FA06466FE098
:101CA00006F00100002869D0E9B2204608F0E1FA08
:101CB0000190019800F00100C8B300200190019844
:101CC00020F00100401C019004F1540050F8250060
:101CD00001998160E078012817D104F1540050F88F
:101CE00025000069009005EB850104F55D7000EBAF
:101CF000C10080680099C1F31201411A05EB850209
:101D000004F55D7000EBC2008161E9B21E48006815
:101D1000026820469047E078012808D13DB940F29A
:101D20001110005D052802D1204607F05BFF0198E5
:101D3000C0F3400060B100200190019820F0020043
:101D4000801C019004F1540050F825000199816035
:101D50000198C0F3C00088B10B4800688168204634
:101D6000884700200190019820F008000830019079
:101D700004F1540050F82500019981606D1C76082B
:101D8000002E8DD101207CBDCC0100203EB5044643
:101D9000A07A78B1D4F80C0100680090009820F087
:101DA00002000090009820F0010000900099D4F803
:101DB0000C01016000200190019820F00100401CFE
:101DC0000190206940680199884321694860094869
:101DD000006881692046884700200290029820F020
:101DE000004000F1004002900298E1684861012043
:101DF0003EBD0000CC0100207CB5044600200190CF
:101E0000019820F0100010300190E068806901997D
:101E10008843E1688861E068006A0090009800F0FB
:101E20000F0000EB800104F55D7000EBC105009828
:101E3000C0F3434007282DD2DFE800F02C04051D35
:101E40001E2C1F0027E00098C0F30A1090B10098E4
:101E5000C0F30A122046E96808F015FAE86800990C
:101E6000C1F30A110844E860A8690099C1F30A1196
:101E70000844A8610FE00EE00DE0082204F2CC5106
:101E8000204608F000FAA8690099C1F30A11084435
:101E9000A86100E000BF00BFE068806901990843C5
:101EA000E168886101207CBD38B5044608480068B7
:101EB000C1682046884700200090009820F0080064
:101EC000083000900098E1684861012038BD0000AA
:101ED000CC0100201FB50446002000904FF489700B
:101EE000005D0090234800684169204688472069CA
:101EF0008068019000200390039820F4006000F5B2
:101F0000006003900398E1684861A07A70B301987B
:101F100000F0010050B340F21510005D012825D1FA
:101F20009DF80000032821D100200290029820F0A3
:101F30000100401C0290D4F80C010068029908438B
:101F4000D4F80C110860029820F00200801C029066
:101F5000D4F80C01006802990843D4F80C11086009
:101F60000548006840F0060003490860012004B0FD
:101F700010BD0000CC01002010ED00E030B587B0AE
:101F80000446002002900690059004900390019072
:101F9000029820F00100401C0290206940680299DC
:101FA0008843216948600021204608F0E7F80025B1
:101FB0000BE0FF2104F1180050F82500816004F1C6
:101FC000540050F8250081606D1C6078A842F0D85C
:101FD0004FF0FF312069816106986FF30F00401CBC
:101FE0000690069880B200F5803006900699206928
:101FF000C161059820F0080008300590059820F090
:102000000100401C0590059820F00200801C0590FE
:10201000059920694161049820F00100401C04905A
:10202000049820F0080008300490049820F0020082
:10203000801C049004992069016120690068039064
:10204000039820F4FE600390039920690160204604
:1020500007F0C8FD00200190019820F4805000F5A1
:10206000805001900198E168486104480068016966
:1020700020468847012007B030BD0000CC01002079
:102080002DE9F04106460F463946304608F010F972
:1020900001214FF4897081550021801C8155002554
:1020A00011E005EB850106F58E7000EBC1040120FF
:1020B00060702570E5800020E0704020A060002066
:1020C000E06060616D1C7078A842EAD8002510E0DD
:1020D00005EB850106F55D7000EBC1040020607022
:1020E0002570E580E0704020A0600020E060606125
:1020F0006D1C7078A842EBD8304607F07DFC304666
:1021000007F0ADFA0021304608F03AF9304607F002
:1021100033FB304607F0FBFFBDE8F08138B50446DD
:102120000020009007480068C16920468847009851
:1021300020F4801000F5801000900098E16848615C
:10214000012038BDCC01002038B5044600200090A5
:1021500007480068016A20468847009820F400106C
:1021600000F5001000900098E1684861012038BD3A
:10217000CC01002038B50446E06840680090009823
:10218000C0F3800020B105480068816A2046884776
:102190000098E1684860012038BD0000CC010020B3
:1021A00030B5024615692B6915696C6B24FA01F587
:1021B00005F0010543EAC51302F1180555F8215051
:1021C000AD6805EA030030BD38B50446084800682C
:1021D000416A2046884700200090009820F0804007
:1021E00000F1804000900098E1684861012038BD0E
:1021F000CC0100202DE9F84306460F4600250020BB
:10220000009007EB870106F58E7000EBC104D4E95E
:102210000501451AA068A84200D2A568E81C4FEA4B
:10222000900806F1180050F827008069009029E016
:10223000D4E90501451AA068A84200D2A568E81CA7
:102240004FEA9008ABB2FAB23046E16808F0BFF846
:10225000E0682844E060A0692844A06106F1180005
:1022600050F8270080690090D4E90501884209D11F
:102270002178012000FA01F93069406B20EA090059
:1022800031694863009880B2404506D9D4E9051009
:10229000884202D260690028CAD10120BDE8F883D3
:1022A00010B501F003F900F035FA01F015F910BD91
:1022B00010B501F0FBF800F02DFA01F00DF910BD9A
:1022C0000246094B9A4201D2084801E006481038FC
:1022D00001F000531BB1064B0B40C36002E0044BFE
:1022E0000B408360704700001064024000600240B1
:1022F0007D0F7D0F0246094B9A4201D2084801E04A
:102300000648103801F000531BB1064B0B40C36068
:1023100002E0044B0B4083607047000010640240F1
:10232000006002407D0F7D0F21B1026842F0010282
:10233000026003E0026822F0010202607047014679
:10234000486880B27047000070B502460020002443
:102350000025124EB24201D2114B01E00F4B103B4F
:10236000104E0E4036B11E2606EAD124166806EA43
:10237000040502E0566906F0800501F000560EB132
:102380005C6800E01C68084E344004EA010616B19F
:102390000DB1012000E0002070BD0000106402407B
:1023A000006002403C0F3C0F7D0F7D0F10B501F027
:1023B00080034BB122B1436943F08003436103E0E2
:1023C000436923F08003436180290BD02AB103685D
:1023D00001F01E042343036004E0036801F01E04BF
:1023E000A343036010BD000010B500220268134B28
:1023F0001A40CC680B6823434C6923438C69234300
:10240000CC6923430C6A23434C6A23438C6A2343DD
:102410004C6B23438C6B23431A430260426922F0C6
:102420000702D1E90B3423431A4342610B6943602D
:102430004B6883608B68C36010BD00003F801CF058
:102440004160704770B504460D46012C27D18103C9
:10245000284800F041FA4DF20101274805F0C1FD7E
:102460004FF47A6000F01EF9A103224800F036FA1A
:102470004FF4FA6000F016F9A1031E4800F02CFAA0
:102480004FF4404040EA05111B4805F0AAFD4FF407
:102490007A6000F007F9A103164800F01FFA022C39
:1024A00026D16103134800F017FA4DF201011248DA
:1024B00005F097FD4FF47A6000F0F4F861030D48E1
:1024C00000F00CFA4FF4FA6000F0ECF861030948F0
:1024D00000F002FA600340EA0511074805F081FDAB
:1024E0004FF47A6000F0DEF86103024800F0F6F97C
:1024F00070BD000000040240003C004070B504467E
:102500000D46012C27D14103284800F0E5F94DF292
:102510000101274805F065FD4FF47A6000F0C2F82C
:102520006103224800F0DAF94FF4FA6000F0BAF8DB
:1025300061031E4800F0D0F94FF4404040EA051115
:102540001B4805F04EFD4FF47A6000F0ABF86103D4
:10255000164800F0C3F9022C26D12103134800F0DD
:10256000BBF94DF20101124805F03BFD4FF47A60D2
:1025700000F098F821030D4800F0B0F94FF4FA602C
:1025800000F090F82103094800F0A6F9600340EA42
:102590000511074805F025FD4FF47A6000F082F838
:1025A0002103024800F09AF970BD000000040240C7
:1025B000003C00401FB504460121480705F0D2FB4E
:1025C0003C20009000200190029002200390694678
:1025D0002046FFF7ABF801212046FFF793F81FBD17
:1025E0007047000000B585B04FF4E131294807F08D
:1025F0000FFF002240F22551264806F097F80022EE
:1026000040F22771234806F091F8012240F224415C
:10261000204806F08BF8012240211E4806F053F8AE
:10262000012280211B4806F04EF84FF44030002173
:1026300001910291CDE90310042000901648154A3B
:10264000121D51060368154800F032F84FF440306F
:10265000002101910291CDE903100420009010485F
:102660000C4A121D510603680C48303000F020F867
:1026700001210A48FFF758FE002108483030FFF7D3
:1026800053FE0122102105483030FFF78FFE05B0C0
:1026900000BD0000004C00404000002040600240AF
:1026A0004800002000BF411E89B2081EFBD17047C0
:1026B0002DE9FF4F8FB00C4615461E461CAF97E81C
:1026C000800F0121880505F02DFB009401950296ED
:1026D00000200390049705904FF480600690CDF899
:1026E0001C80CDF82090CDF824A0CDF828B0002093
:1026F0000B9003200C9000200D900E9069460F98CF
:10270000FFF772FE00210F98FFF70EFE13B0BDE831
:10271000F08F000010B513491348FFF715FE58B1AC
:1027200000211148FFF700FE04210F48FFF788FE43
:102730000C490D48FFF7DEFD0A490B483030FFF722
:1027400003FE70B1002108483030FFF7EDFD042191
:1027500005483030FFF774FE024903483030FFF778
:10276000C9FD10BD200000207060024010B500229D
:102770001E4949781D4B9B7819441C4BDB78194442
:102780001A4B197200BF09E01849097A174B5B68A8
:102790009B5C1944154B1972511CCAB21349C97874
:1027A0009142F1DC11490978017010494978417072
:1027B0000E49897881700D49C978C170002105E002
:1027C0000A4B5B685C5C0B1DC454491C074BDB78EF
:1027D0008B42F5DC05490B7AC978091D435403493E
:1027E0004B7AC978491D435410BD000024000020D5
:1027F000F0B50A4600210023002400BF3DE001257A
:1028000005FA01F3156805EA03049C4234D1056812
:102810004F000326BE40B543056015794E00B54014
:102820000668354305601579012D02D01579022D12
:1028300016D185684F000326BE40B54385605579A3
:102840004E00B540866835438560456801268E4058
:10285000B5434560456896798E40B6B235434560CC
:10286000C5684F000326BE40B543C560D5794E000C
:10287000B540C6683543C560491C1029BFD3F0BDBB
:10288000F0B5002300244D07ED0E02FA05F3CE103B
:1028900000F1200555F826504E07F70E0F26BE40D2
:1028A000B543CF1000F1200646F82750CE1000F1B6
:1028B000200555F8265045EA0304CE1000F1200506
:1028C00045F82640F0BD0246002013690B400BB1CD
:1028D000012000E00020704741837047018370476A
:1028E00042694A404261704710B5184840684078D4
:1028F00016494968097840EA01201549488013487B
:102900004068C07811494968897840EA0120104937
:1029100088800E48406840790C494968097940EA46
:1029200001200B49C88009484068C07907494968B7
:10293000897940EA012006490881FEF765FDFEF726
:10294000D7F901200249487010BD0000180000208E
:102950000817002010B518484068407816494968A3
:10296000097840EA01201549488013484068C0783A
:1029700011494968897840EA0120104988800E4849
:10298000406840790C494968097940EA01200B49BF
:10299000C88009484068C07907494968897940EA90
:1029A00001200649C880FEF72FFDFEF7DBF9012064
:1029B0000249087010BD0000180000200817002010
:1029C0000121024880F848107047000008170020D5
:1029D0000121024880F847107047000008170020C6
:1029E00070B50A480468001D0568001D0668344477
:1029F00054B108220649204600F0C6FB04220449CF
:102A00001031284600F0C0FB70BD0000107AFF1F97
:102A1000CE00002008B501217F2005F083F90121B7
:102A2000080705F09FF9012005F042F9002005F0A4
:102A30003DFA002005F03CF908220021FE48FFF78E
:102A40001FFF08220121FC48FFF71AFF0020034660
:102A5000022201210090F84800F0C0FA002003464D
:102A6000022211460090F44800F0B8FA0020034614
:102A7000022204210090F04800F0B0FA0020034642
:102A8000022208210090EC4800F0A8FA022000235E
:102A9000032210210090E84800F0A0FA0220002351
:102AA000032220210090E44800F098FA0020034619
:102AB000012211020090E04800F090FA012000236A
:102AC000024601460090DD4800F088FA00200346E7
:102AD000012240210090D94800F080FA00200346EE
:102AE000012280210090D54800F078FA00200346AA
:102AF000012211020090D14800F070FA0020034634
:102B0000012251020090CD4800F068FA0120002314
:102B1000024641030090C94800F060FA01200023FA
:102B2000024681030090C54800F058FA0020034691
:102B3000032201210090C24800F050FA0020034611
:102B4000032202210090BE4800F048FA002003460C
:102B5000032204210090BA4800F040FA0020034606
:102B6000032208210090B64800F038FA00200346FE
:102B7000032220210090B24800F030FA00200346E2
:102B8000012251020090AE4800F028FA06220A21E4
:102B9000AB48FFF775FE012000230222810200905E
:102BA000A74800F01BFA06220B21A548FFF768FE94
:102BB000012000230222C1020090A14800F00EFA79
:102BC00006220C219E48FFF75BFE01200023022213
:102BD000010300909A4800F001FA00200346012208
:102BE00051030090964800F0F9F94FF400519448D1
:102BF000FFF774FE002003460122910300909048E5
:102C000000F0ECF94FF480418D48FFF767FE00209B
:102C100003460122D1030090894800F0DFF900202B
:102C20000346012202210090864800F0D7F90020D7
:102C30000346012204210090824800F0CFF90421CC
:102C40008048FFF74BFE0020034601220821009038
:102C50007C4800F0C3F908217A48FFF73FFE0020C6
:102C60000346012210210090764800F0B7F91021A8
:102C70007448FFF733FE072205217248FFF700FE74
:102C8000072206216F48FFF7FBFD002003460222C2
:102C9000202100906B4800F0A1F900200346022299
:102CA00040210090674800F099F900200346012276
:102CB00080210090634800F091F980216148FFF77E
:102CC0000DFE002003460122110200905D4800F035
:102CD00085F94FF480715B48FFF700FE0020034642
:102CE000012251020090574800F078F94FF400712A
:102CF0005448FFF7F3FD00200346012291020090A3
:102D0000504800F06BF9002003460122D1020090E8
:102D10004C4800F063F900200346012211030090A3
:102D2000484800F05BF94FF480514648FFF7D6FD64
:102D300000200346012251030090424800F04EF962
:102D4000002003460122910300903E4800F046F91E
:102D50000020034602464FF400410090394800F03D
:102D60003DF900200346024601210090364800F05C
:102D700035F9022000231A4601460090324800F03F
:102D80002DF9002003460122042100902E4800F076
:102D900025F9002003460246082100902A4800F049
:102DA0001DF900200346024610210090264800F03D
:102DB00015F900200346024620210090224800F029
:102DC0000DF9002003460122110200901E4800F078
:102DD00005F90020034602464FF4007100901A489E
:102DE00000F0FCF8002003460122910200901648F2
:102DF00000F0F4F84FF480611348FFF76FFD0020F6
:102E000003460122D10200900F4800F0E7F80020AD
:102E1000034602464FF4805100900B4800F0DEF864
:102E20000020034602464FF400510090064800F08F
:102E3000D5F80020034609E00000024000040240EB
:102E400000080240000C0240001002400122022152
:102E50000090604800F0C2F80020034601221146AD
:102E600000905C4800F0BAF80020034601220421DB
:102E70000090584800F0B2F80020034603220821D1
:102E80000090544800F0AAF80020034603221021C5
:102E90000090504800F0A2F80020034603222021B1
:102EA00000904C4800F09AF800200346032240218D
:102EB0000090484800F092F8002003460322802149
:102EC0000090444800F08AF80020034603224FF4A3
:102ED000807100903F4800F081F8002003460322F3
:102EE0004FF4007100903B4800F078F80020034652
:102EF00003224FF480610090364800F06FF8002004
:102F000003460122D1020090324800F067F8002009
:102F100003460122110300902E4800F05FF80020C4
:102F200003460122510300902A4800F057F8002080
:102F30000346012291030090264800F04FF800203C
:102F400003460122D1030090224800F047F80020F8
:102F500003460122114600901F4800F03FF8002070
:102F600003460122022100901B4800F037F80020A0
:102F70000346012204210090174800F02FF800209A
:102F80000346012208210090134800F027F8002092
:102F900003460122102100900F4800F01FF8002086
:102FA00003460122910300900B4800F017F84FF4FC
:102FB00080410948FFF792FC002003460122D1031B
:102FC0000090054800F00AF84FF400410248FFF76E
:102FD00085FC08BD00140240001802402DE9FC41A8
:102FE00006460C4615469846089F00948DF80450F6
:102FF00003208DF8050000208DF8060001208DF8D3
:10300000070069463046FFF7F3FBBDE8FC8100008E
:1030100070B506463048007800285BD12F4800681C
:10302000B0F5006F02D100202C4908602B480068E1
:103030002B490968884203D100202749087070BDD8
:103040002648006826490968884206D9234800684E
:10305000C0F500602349086006E0214800681F4968
:103060000968401A1F4908601E480068402811D9A5
:103070001A48008885B24024184800684030174933
:103080000860184800684038164908600120124955
:10309000087018E01148008885B21248008884B290
:1030A0000E4800680F49096808440C490860002070
:1030B0000C490860402C03D102200749087002E047
:1030C00001200549087008484219234681213046ED
:1030D000FEF754FC00BFB2E71C01002014010020E1
:1030E0001001002018010020EE21002000BFFEE7A3
:1030F00000B585B000F02CF84FF440304FF48071EB
:103100004A01CB00CDE90132CDE9031014200D4B6B
:103110000D4A002100900D48FFF7CAFA01210B4823
:10312000FFF702F9012108484C38FDF79AF901210F
:1031300005484C38FDF78AF903484C38FDF722FA68
:1031400005B000BD442000204C2001401064024026
:1031500010B501210648FDF73BFD072301220A2196
:103160000348FDF7B3F90248FDF70CFA10BD000063
:103170000020014001200349C870FF204968087001
:10318000704700002400002030B50B46002100BF2E
:1031900016E00A24B4EB107F05D9302404EB107438
:1031A00003F8114005E0412404EB10740A3C03F8D5
:1031B0001140000100254C00641C1D554C1CE1B25F
:1031C0009142E6DB30BD00BFFEE730B505460C4658
:1031D00022460021284600F001F830BD2DE9F041DB
:1031E00005460B4694460027002402E03F021F4399
:1031F000641C042CFAD3604605F00306294646B148
:10320000344603E001F8013B401E641C08B1042C65
:10321000F8D30A4601E080C2001F0428FBD2114601
:1032200002E001F8013B401E0028FAD1BDE8F08120
:103230007047000070B5002100230F22C4781CB332
:10324000174C246804F4E064C4F5E064C4F3072177
:10325000C1F10404E3B20A4144789C40E1B28478AD
:10326000144021430C07210E0E4C0578615504785B
:1032700004F01F050124AC4005786D11AD0005F187
:10328000E025C5F8004109E0047804F01F05012499
:10329000AC40054D0678761145F8264070BD00001B
:1032A0000CED00E000E400E080E100E002490143B1
:1032B000024A1160704700000000FA050CED00E0C2
:1032C000024A0A400243024B1A60704780FFFF1F08
:1032D00008ED00E010B54FF4C060FFF7E7FF10BD48
:1032E0007047000010B50348006810B1014800683D
:1032F000804710BDF801002070B5044600F0C2F808
:1033000000204849087048490870484908704849F1
:1033100008604849086048490870484908704849A9
:1033200008704849086048490860484908604849A9
:103330000870484800680A21B0FBF1F0464908606F
:103340004648006858B14648056845B14348066894
:1033500003E0761E002028602D1D002EF9D10020EC
:103360004049086040490860404908604049086099
:103370004049086040490860404908604049087079
:1033800002F0F2FD02F0D2FE204601F03DFF20885F
:1033900000B170BD204602F01DFB208800B1F8E7A7
:1033A000204602F023FB208800B1F2E7204602F01D
:1033B0001FFC208800B1ECE7204602F005FE2088C3
:1033C00000B1E6E7204603F025F8208800B1E0E7E9
:1033D000204603F03FFB208800B1DAE7204602F0E8
:1033E00065FA208800B1D4E7204602F07FF82088F3
:1033F00000B1CEE7204604F0BDFA208800B1C8E74E
:10340000204603F071FA208800B1C2E7204604F09C
:1034100029FB208800B1BCE701F020FEFFF760FF28
:1034200000BFB6E70C0200200D020020540200206D
:10343000C4020020C80200203A0200203B02002003
:103440003C020020480200204C02002050020020D4
:103450005C02002060B500085802002030B500086A
:103460002CB50008EC010020F0010020F401002040
:10347000F8010020FC0100200002002004020020CE
:103480008A020020064800680649096800EB8100AE
:10349000054908600846006820F00700086070478A
:1034A0002CB5000830B50008CC0200200848007890
:1034B000012800D0704707480078FA2800DBF9E7B8
:1034C00004480078401C0349087000BFF2E7000080
:1034D0000D0200200C02002010B500242D480078B9
:1034E000012800D010BD00BFFCF7E2FE044600BF7B
:1034F0002948007828B900BF2046FCF7DDFE00BF50
:10350000F0E725480078401E2349087008460078F7
:10351000002805DD00BF2046FCF7CEFE00BFE1E736
:103520001E480078002805DD00BF2046FCF7C4FED9
:1035300000BFD7E702F004FD19490870084600787B
:1035400000EB4000174951F8200017490860084671
:10355000006816490968884205D100BF2046FCF77B
:10356000ABFE00BFBEE710480068D0F88C00401CDE
:103570000D490968C1F88C000D480068401C0C49D1
:103580000860FCF7FFFE00BF2046FCF795FE00BF79
:1035900000BFA7E70D0200200C020020540200200B
:1035A0003B0200200C3F0020C8020020C402002083
:1035B000800200202DE9F04104460E461546002702
:1035C00029480078002804DD42F6E1602880BDE843
:1035D000F0811CB945F6C3502880F8E700BF00BF52
:1035E00000BFFCF765FE074600BF00BF1F4800781C
:1035F000401C1E49087000BF00BF3846FCF75CFE47
:1036000000BF00BF00BF1A48206066600020206233
:1036100084F82500A062402084F8240004F108000A
:1036200002F09DFB204602F0CBFA12480088401CB5
:103630001049088000BF00BF00BFFCF739FE0746F5
:1036400000BF00BF09480078401E0849087000BF4D
:1036500000BF3846FCF730FE00BF00BF00BF0020AF
:10366000288000BFB3E700000C02002054020020B5
:103670004D555458380200202DE9F04788B00546D2
:10368000894690461C46109E4FF0000AAB480078D1
:10369000002805DD46F2AE10308008B0BDE8F087A6
:1036A0001DB945F6C3503080F7E7B8F1000F03D0DD
:1036B000B8F5004F02D100E000BF03E045F62560F9
:1036C0003080EAE700BF9E492868884203D045F66B
:1036D000C4503080E1E70CB10020206000BF00BF83
:1036E000FCF7E6FD824600BF00BF95F82500C0B993
:1036F0009448006828629348006890F8370085F87D
:103700002400012085F825000CB1A86A206000BFC4
:1037100000BF5046FCF7D0FD00BF00BF0020308046
:10372000BBE78849286A0968884212D195F82500C4
:10373000401C85F825000CB1A86A206000BF00BFBE
:103740005046FCF7B9FD00BF00BF45F282703080E3
:10375000A3E708F4004050B100BF00BF5046FCF79B
:10376000ABFD00BF00BF46F2B010308095E7764851
:10377000007800280ADD00BF00BF5046FCF79CFD22
:1037800000BF00BF46F66350308086E700BF6E483A
:103790000078401C6C49087000BF00BF5046FCF721
:1037A0008BFD00BF00BF00BF2F6A97F83700654947
:1037B000096891F83710884260DD97F836000828CC
:1037C0002AD2DFE800F004151E1F17162021384604
:1037D00002F034FD5B48006890F8370087F8370046
:1037E00097F8370002F0CCFB384602F0C7FC44E003
:1037F00000BF00BF5348006890F8370087F83700D3
:103800003BE000BF00BF00BF4E48006890F8371093
:10381000384602F081FA30E000BF00BF00BFFCF77D
:1038200047FD824600BF00BF47480078401E46491A
:10383000087008460078A0B944480088002809DDCF
:1038400000BF00BF5046FCF737FD00BF00BF02F0CD
:1038500023FD0DE000BF00BF5046FCF72DFD00BF6B
:1038600006E000BF00BF5046FCF726FD00BF00BFCA
:1038700000BF46F62D6030800FE700BF4B460422A4
:103880002946684602F0C0F900BF00BF00BFFCF740
:103890000FFD824600BF00BF2B480078401E2A491A
:1038A000087000BF00BF5046FCF706FD00BF00BF18
:1038B00000BF00F073F900BF00BFFCF7F9FC8246BF
:1038C00000BF00BF1F48006890F8350030B10128E4
:1038D0000CD002281AD0032821D110E01CB11948BD
:1038E0000068006C2060002030801CE01CB115488E
:1038F0000068006C206046F2A910308013E00CB123
:103900000020206047F2D92030800CE01CB10D4827
:103910000068006C206045F6C250308003E046F637
:103920002E60308000BF00BF00BF00BF5046FCF7D4
:10393000C3FC00BF00BF00BFAFE600000C020020C8
:103940004D555458C4020020540200201802002093
:103950002DE9F84F0446884615464FF0000A89487D
:103960000078002804DD46F20E202880BDE8F88F9C
:103970001CB945F6C3502880F8E7B8F1000F03D012
:10398000B8F5004F02D100E000BF03E045F6256026
:103990002880EBE700BF7C492068884203D045F6C9
:1039A000C4502880E2E700BF00BFFCF781FC8246DC
:1039B00000BF00BF7549206A096888420AD000BF6D
:1039C00000BF5046FCF778FC00BF00BF45F2817095
:1039D0002880CBE700BF6E480078401C6C49087017
:1039E00000BF00BF5046FCF767FC00BF00BF00BF30
:1039F000FDF704FD0746A76294F82500401E84F8F1
:103A0000250094F82500002830DD00BF00BF00BF6E
:103A1000FCF74EFC824600BF00BF5D480078401EA8
:103A20005B49087008460078A0B95A480088002809
:103A300009DD00BF00BF5046FCF73EFC00BF00BFE1
:103A400002F02AFC0DE000BF00BF5046FCF734FC3A
:103A500000BF06E000BF00BF5046FCF72DFC00BFD2
:103A600000BF00BF45F2837028807FE704F108099A
:103A7000B9F8080098BB0020206284F8250000BF38
:103A800000BF00BFFCF714FC824600BF00BF4048E7
:103A90000078401E3E49087008460078A0B93D48AD
:103AA0000088002809DD00BF00BF5046FCF704FC79
:103AB00000BF00BF02F0F0FB0DE000BF00BF5046AA
:103AC000FCF7FAFB00BF06E000BF00BF5046FCF762
:103AD000F3FB00BF00BF00BF0020288046E7FFE7E0
:103AE0002A48006890F8370094F82410884219D0CA
:103AF0002648006802F0A2FB94F8240023490968D4
:103B000081F837002149096891F8370002F038FA46
:103B10001E48006802F052FB1C48006890F837000D
:103B20001D490870D9F800008668266296F83700AB
:103B300084F82400012084F8250000231A46314629
:103B40002046009702F07CF900BF00BF00BFFCF7E1
:103B5000AFFB824600BF00BF0D480078401E0C49F5
:103B6000087000BF00BF5046FCF7A6FB00BF00BFB7
:103B700000BF08F4004008B900F010F800202880C9
:103B800000BFF3E60C0200204D555458C40200203B
:103B900054020020180200203A02002010B5002430
:103BA0001F480078002800DD10BD1E48007800285E
:103BB00000DDF9E700BFFCF77BFB044600BF02F025
:103BC000BFF9194908700846007800EB4000174912
:103BD00051F8200016490860084600681549096830
:103BE000884205D100BF2046FCF766FB00BFDBE73B
:103BF0000F480068D0F88C00401C0D490968C1F8D6
:103C00008C000D480068401C0B490860FCF7B5FBB0
:103C100000BF2046FCF750FB00BF00BFC4E7000018
:103C20000C020020540200203B0200200C3F002028
:103C3000C8020020C40200208002002070B50446A3
:103C4000002518480078002803DD46F662502080E1
:103C500070BD15480078012803D045F689602080A2
:103C6000F6E712480078FA2803DB45F209202080A5
:103C7000EEE700BF00BFFCF71BFB054600BF00BF1F
:103C80000A480078401C0949087002F02FFB00BF69
:103C900000BF2846FCF710FB00BF00BF00202080BB
:103CA00000BFD5E70C0200200D02002054020020C6
:103CB0002DE9F04105460C461646002700BF00BF1F
:103CC000FCF7F6FA074600BF00BF012D03D0002025
:103CD0000D49087002E001200B49087014B10B482F
:103CE000046006E00A4800680A21B0FBF1F00749C9
:103CF000086000BF00BF3846FCF7DEFA00BF00BF17
:103D000000203080BDE8F0815C02002058020020D5
:103D100060B5000870B504460025204800780028EA
:103D200003DD46F66550208070BD1D4800780128EF
:103D300003D045F689602080F6E71A48007818B964
:103D400046F664502080EFE700BF00BFFCF7B0FAF2
:103D5000054600BF00BF13480078401E1149087097
:103D60000846007800280ADD00BF00BF2846FCF79F
:103D7000A3FA00BF00BF46F663502080D4E702F0EC
:103D8000C3FA00BF00BF2846FCF796FA00BF00BF89
:103D9000FFF704FF0020208000BFC5E70C020020D1
:103DA0000D0200205402002010B50446124800788D
:103DB000E8B902F0C5F811490870084600781049C2
:103DC00008700E48007800EB40000E4951F82000C2
:103DD0000D490860084600680C4908600120064942
:103DE0000870FCF7B9FA43F69920208002E045F606
:103DF0008A60208010BD00000D0200203B020020E0
:103E00003A0200200C3F0020C8020020C40200201B
:103E10002DE9F04107464FF0000800BF00BFFCF756
:103E200047FA804600BF00BF00203D4908603D4979
:103E300008803D4908803D4908603D4908603D498A
:103E400008603D4908603D49088100BF00BF404609
:103E5000FCF732FA00BF00BF00BF00BFFCF728FA32
:103E6000804600BF00BF3648046800BF00BF404620
:103E7000FCF722FA00BF00BF21E000BF00BFFCF743
:103E800017FA804600BF00BF00207434E063206052
:103E90002063A061A082E0826062A062FDF7AEFABA
:103EA0002062743C04F160060020B081D4F8B84070
:103EB00000BF00BF4046FCF7FFF900BF00BF002C69
:103EC000DBD100BF00BFFCF7F3F9804600BF00BFA5
:103ED0001C48056800BF00BF4046FCF7EDF900BF75
:103EE00000BF12E000BF00BFFCF7E2F9804600BF50
:103EF00000BF05F120060020B081AD6900BF00BF02
:103F00004046FCF7D9F900BF00BF002DEAD103F00D
:103F100099FB03F04DFE00203880BDE8F0810000E1
:103F2000200200201A0200206A0200207C020020E9
:103F300090020020B40200204C020020003F00202C
:103F40008402002040020020F8B50446002669469D
:103F5000324800F08FFDBDF8000018B1BDF8000038
:103F60002080F8BD6A460021022000F0F7FDBDF870
:103F7000000018B1BDF800002080F2E700BF00BFCC
:103F8000FCF796F9064600BF00BF002024490860F0
:103F900000BF00BF3046FCF78FF900BF00BF00250F
:103FA0002048006820490968884205D91D480068F2
:103FB0001D490968B0FBF1F525B91A4800680A21C6
:103FC000B0FBF1F56A460021284600F0C7FD6946BE
:103FD000124800F063FABDF8000018B1BDF8000007
:103FE0002080BEE700BF00BFFCF762F9064600BFB5
:103FF00000BF00200D490860094800680C490860AE
:1040000001200C49087000BF00BF3046FCF754F98E
:1040100000BF00BF0020208000BFA2E7B8430020FF
:104020006C02002060B5000848B500087C02002042
:10403000700200207802002010B50348006810B11B
:1040400001480068804710BDFC0100202DE9FF4FAA
:1040500087B004469046DDE91BA5DDE91496179F5D
:104060000020039087480078002805DD47F24A10B9
:1040700028800BB0BDE8F08F1CB947F2AD10288046
:10408000F7E7B8F1000F03D147F24F102880F0E7AF
:104090001EB946F62F602880EBE77B480068874210
:1040A00003D246F630602880E3E71698B84203D37F
:1040B00046F631602880DCE7B9F1400F03D346F2C1
:1040C00073202880D5E7B9F1000F06D16F488442EC
:1040D00003D046F273202880CBE7B9F13F0F06D119
:1040E0006B48844203D046F273202880C1E7204603
:1040F00002F0C0FC002028800AF0010090B10AF014
:10410000020078B105960020069008E0002105988D
:1041100001600598001D05900698401C06900698C1
:10412000B842F3D3169806EB80000490CDE9007AEC
:1041300032464046049B0A9900F06EFB0590C4F895
:1041400028800A98E0620898206284F837900598E1
:1041500020600498A06019982065199818B94D48F6
:104160000068606501E0199860651A986060666291
:10417000A763A4F83CA04FF0000B08E0002104F175
:10418000780040F82B100BF1010000F0FF0BBBF1A1
:10419000000FF3D004F16000189901F087FC20466D
:1041A00000F082F800BF00BF00BFFCF781F8039069
:1041B00000BF00BF38480078401C3749087000BF76
:1041C00000BF0398FCF778F800BF00BF00BF94F869
:1041D000370001F0D5FE204601F0F0FF204602F046
:1041E000FFFB2E480088401C2C4908802C48007892
:1041F00001282DD000BF00BF00BFFCF759F8039085
:1042000000BF00BF24480078401E234908700846BC
:104210000078A0B923480088002809DD00BF00BF4E
:104220000398FCF749F800BF00BF02F035F80DE035
:1042300000BF00BF0398FCF73FF800BF06E000BFD7
:1042400000BF0398FCF738F800BF00BF00BF10E7BD
:1042500000BF00BF00BFFCF72BF8039000BF00BFFA
:104260000D480078401E0C49087000BF00BF03983D
:10427000FCF722F800BF00BF00BFFFF78FFC00BFB4
:10428000F7E600000C0200205CB50008403E00206C
:10429000803D0020580200205402002088020020A7
:1042A0000D0200201802002010B5044603480068E3
:1042B00018B1204601490968884710BDEC0100206B
:1042C00070B504460D46002667480078002803DDD7
:1042D00047F24E10288070BD6448844203D147F2F3
:1042E0004C102880F7E76248844203D147F24D1012
:1042F0002880F0E77CB900BF00BFFBF7D9FF064676
:1043000000BF00BF5B48046800BF00BF3046FBF73A
:10431000D3FF00BF00BF00BF00BF00BFFBF7C8FF57
:10432000064600BF00BF54480078401C5249087040
:1043300000BF00BF3046FBF7BFFF00BF00BF00BF9C
:1043400094F8360008282DD2DFE800F004090E109A
:10435000080A0F11204601F071FF54E053E000BF3E
:10436000204603F043F94EE000BF00BF00BF94F8C1
:104370003400082810D2DFE800F004070508090A15
:104380000B0600BF00BF08E000BF00BF00BF00BFBA
:10439000204601F01CFD00E000BF00BF204603F0F6
:1043A00025F930E000BF00BF00BFFBF781FF0646E4
:1043B00000BF00BF30480078401E2F4908700846F3
:1043C0000078A0B92D480088002809DD00BF00BF93
:1043D0003046FBF771FF00BF00BF01F05DFF0DE04D
:1043E00000BF00BF3046FBF767FF00BF06E000BF1D
:1043F00000BF3046FBF760FF00BF00BF00BF46F6BE
:104400002D60288067E700BF04F1600001F02CFBFD
:10441000204600F037F8204602F0FAFA18480088E3
:10442000401E17490880204602F024FBFF2084F834
:10443000360000BF00BF00BFFBF73AFF064600BFD3
:1044400000BF0D480078401E0B49087000BF00BF38
:104450003046FBF731FF00BF00BF00BF00202880BF
:10446000FFF79CFB00BF36E70C020020803D0020D8
:10447000403E0020C4020020540200201802002008
:104480008802002010B504460348006818B1204691
:1044900001490968884710BDF00100207FB5044636
:1044A0000D46002600BF00BFFBF702FF064600BF17
:1044B00000BF1CB11548006884420AD100BF00BF8C
:1044C0003046FBF7F9FE00BF00BF47F257102880C7
:1044D0007FBD00BF00BF3046FBF7EEFE00BF00BF50
:1044E0000B48007800280BDD002000900190034667
:1044F00002462146CDE90205064801F02FF8E7E71C
:104500002946204602F01AFC00BFE1E7C402002061
:104510000C0200205452455310B50446034800686D
:1045200018B1204601490968884710BDF4010020F0
:104530002DE9F04780460E4614461D464FF000090F
:104540007D480078002805DD46F2AE102880002066
:10455000BDE8F0871EB1B6F5004F02D100E000BF04
:1045600004E045F6256028800020F1E700BF0CB18B
:104570000020206000BF00BFFBF79AFE814600BF0D
:1045800000BF6E480068406CA8B36C480068406C7F
:10459000401E6A490968486468480068476C1CB155
:1045A00066480068006C2060FCF728FF63490968D2
:1045B000096C401A61490968C1F8A0005F480068A9
:1045C000D0F8A4005D490968D1F8A010884207D24C
:1045D0005A480068D0F8A00058490968C1F8A400FA
:1045E00000BF00BF4846FBF767FE00BF00BF0020CA
:1045F00028803846ACE7FFE706F4004058B100BF1A
:1046000000BF4846FBF758FE00BF00BF46F2B0109F
:10461000288000209CE74A48007800280BDD00BF76
:1046200000BF4846FBF748FE00BF00BF46F6635098
:10463000288000208CE700BF41480078401C40499A
:10464000087000BF00BF4846FBF736FE00BF00BF42
:1046500000BF434607220021084601F0D5FA00BFFB
:1046600000BF00BFFBF724FE814600BF00BF3448F7
:104670000078401E3249087000BF00BF4846FBF773
:104680001BFE00BF00BF00BFFFF788FA00BF00BFDE
:10469000FBF70EFE814600BF00BF2848006890F877
:1046A000350020B1012826D0032834D12CE0FCB1FC
:1046B00022480068006C2060FCF7A0FE1F490968D2
:1046C000096C401A1D490968C1F8A0001B48006820
:1046D000D0F8A40019490968D1F8A010884207D27F
:1046E00016480068D0F8A00014490968C1F8A40071
:1046F0000020288013E01CB110480068006C206086
:1047000046F2A91028800AE00CB10020206047F290
:10471000D920288003E046F62E60288000BF00BF25
:1047200006480068476C00BF00BF4846FBF7C4FD61
:1047300000BF00BF38460BE70C020020C402002077
:10474000540200202DE9F04705460E4617461C4648
:104750004FF0000A2E480078002804DD47F2591077
:104760002080BDE8F0871EB946F2D5202080F8E70A
:104770001FB946F2D5202080F3E700BF00BFFBF74A
:1047800097FD824600BF00BF0DB922480568286822
:1047900068B900BF00BF5046FBF78EFD00BF00BFE9
:1047A00000203060386047F252102080D9E795F839
:1047B0003C0000F0010068B900BF00BF5046FBF7A5
:1047C0007BFD00BF00BF00203060386047F254100E
:1047D0002080C6E700BF00BF5046FBF76DFD00BF5D
:1047E00000BF4FF00008D5F8249003E009F1040958
:1047F00008F10108D9F800000028F7D0C6F80080B9
:10480000A86BA0EB080038600020208000BFA8E75C
:104810000C020020C4020020F0B50446DDE9055674
:1048200002EB850020F007004FF0000C071F384610
:10483000C7F800C04FF4805C071F3846C7F800C0B7
:104840004FF0150C071F3846C7F800C04FF0140C86
:10485000071F3846C7F800C04FF0130C071F384633
:10486000C7F800C04FF0120C071F3846C7F800C049
:104870004FF0110C071F3846C7F800C04FF0100C5E
:10488000071F3846C7F800C04FF0090C071F38460D
:10489000C7F800C04FF0080C071F3846C7F800C023
:1048A0004FF0070C071F3846C7F800C04FF0060C42
:1048B000071F3846C7F800C04FF0050C071F3846E1
:1048C000C7F800C04FF0040C071F3846C7F800C0F7
:1048D0004FF0030C071F3846C7F800C04FF0020C1A
:1048E000071F3846C7F800C04FF0010C071F3846B5
:1048F000C7F800C04FF0000C071F3846C7F800C0CB
:104900004FF0807C071F3846C7F800C0071F3846A5
:104910003C60DFF85CC1071F3846C7F800C04FF0A5
:10492000123C071F3846C7F800C04FF0033C071F72
:104930003846C7F800C04FF0023C071F3846C7F89A
:1049400000C0071F38463B60071F384639604FF0EC
:10495000310C071F3846C7F800C04FF0300C071F56
:104960003846C7F800C04FF0290C071F3846C7F873
:1049700000C04FF0280C071F3846C7F800C04FF0A2
:10498000270C071F3846C7F800C04FF0260C071F3A
:104990003846C7F800C04FF0250C071F3846C7F847
:1049A00000C04FF0240C071F3846C7F800C04FF076
:1049B000230C071F3846C7F800C04FF0220C071F12
:1049C0003846C7F800C04FF0210C071F3846C7F81B
:1049D00000C04FF0200C071F3846C7F800C04FF04A
:1049E000190C071F3846C7F800C04FF0180C071FF6
:1049F0003846C7F800C04FF0170C071F3846C7F8F5
:104A000000C04FF0160C071F3846C7F800C04FF023
:104A1000113C071F3846C7F800C04FF0103C071F75
:104A20003846C7F800C04FF0093C071F3846C7F8A2
:104A300000C04FF0083C071F3846C7F800C04FF0D1
:104A4000073C071F3846C7F800C04FF0063C071F59
:104A50003846C7F800C04FF0053C071F3846C7F876
:104A600000C04FF0043C071F3846C7F800C0F0BD37
:104A70007D6E00087FB505460C461248854203D17D
:104A800047F25B1020807FBD0F48854203D147F27B
:104A90005C102080F7E70D48007800280BDD00202F
:104AA00000900190034602462946CDE902040848D9
:104AB00000F054FDE7E72146284602F04DFC00BF18
:104AC000E1E70000803D0020403E00200C02002075
:104AD0005453555310B51D48006810B11B48006869
:104AE0008047FCF78BFC044619480068194909689F
:104AF000884215D016480068D0F89400201A14494E
:104B00000968C1F8900012480068D0F89800104970
:104B10000968D1F8901008440D490968C1F8980057
:104B20000C480068C0F8944009480068D0F8B0000C
:104B300009490968884205D207480068044909689C
:104B4000C1F8B00000200449086010BD0002002038
:104B5000C4020020C8020020500200202DE9F041CC
:104B600005460E46144600273C480078002804DD20
:104B700047F275202080BDE8F08139480078002890
:104B800003DD46F663502080F5E736B1022E05D0EE
:104B9000042E0AD0082E09D101E000BF00BF1DB9C4
:104BA00047F27E202080E6E704E003E045F625603A
:104BB0002080E0E700BF00BF00BF00BFFBF778FB2D
:104BC000074600BF00BF26480078401C24490870F3
:104BD00000BF00BF3846FBF76FFB00BF00BF00BF40
:104BE0002346324629461F48006802F0A1FC20886F
:104BF000A8B100BF00BF00BFFBF75AFB074600BFCC
:104C000000BF17480078401E1549087000BF00BF5C
:104C10003846FBF751FB00BF00BF00BFABE71148B0
:104C2000006801F00BFB00BF00BF00BFFBF740FBBB
:104C3000074600BF00BF0A480078401E08490870B8
:104C400000BF00BF3846FBF737FB00BF00BF00BF07
:104C5000FEF7A4FF0020208000BF8CE70C0200209C
:104C600054020020C40200202DE9FF5F05460E46D5
:104C700017469846DDE90EA40020009070480078A1
:104C8000002804DD47F275202080BDE8FF9F6D48B5
:104C90000078002803DD46F663502080F5E70AF02F
:104CA0000E0BBBF1000F09D0BBF1020F07D0BBF117
:104CB000040F10D0BBF1080F0ED101E000BF00BF00
:104CC000B8F1000F06D12FB926B91DB947F27E20E1
:104CD0002080DAE704E003E045F625602080D4E791
:104CE00000BF2AF01E0008B1012000E00020039060
:104CF0000398012803D145F625602080C5E7CAF353
:104D0000001002900298C0B9B8F57A7F03D347F239
:104D10007B202080B9E73B2F03DD47F27A202080FB
:104D2000B3E73B2E03DD47F279202080ADE7632D0A
:104D300012DD47F278202080A7E742F20F7086420A
:104D400003DD47F2792020809FE7B5F57A7F03DB0A
:104D500047F27820208098E73B48D0F800904FF445
:104D6000FA70B0FBF9F0404400FB09F04FF47A719F
:104D7000B0FBF1F14FF461606843C6EB061200EB43
:104D80008200384400FB091001900198002851D09E
:104D900000BF00BF00BFFBF78BFA009000BF00BF51
:104DA00028480078401C2749087000BF00BF0098C1
:104DB000FBF782FA00BF00BF00BF23465A462348D4
:104DC0000199006802F0B4FB2088A8B100BF00BFC1
:104DD00000BFFBF76DFA009000BF00BF19480078D4
:104DE000401E1849087000BF00BF0098FBF764FA26
:104DF00000BF00BF00BF48E71448006801F01EFA7A
:104E000000BF00BF00BFFBF753FA009000BF00BF18
:104E10000C480078401E0B49087000BF00BF009886
:104E2000FBF74AFA00BF00BF00BFFEF7B7FE002045
:104E3000208002E047F27E20208000BF25E70000AE
:104E40000C0200205402002060B50008C4020020BB
:104E500010B586B000F01EF8FCF7D0FA044605A89D
:104E600000210091CDE9011403900748007800EB80
:104E70004000064A02EB800100231A46044800F075
:104E80006DFB06B010BD00003A0200200C3F002070
:104E90005449434B10B50348006810B101480068FD
:104EA000804710BD040200202DE9F05F04468846CB
:104EB00016461F46DDE90BABDDF828900D9D244812
:104EC0000078002804DD47F243302880BDE8F09FD9
:104ED0001CB945F6C3502880F8E7B9F1010F08D096
:104EE000B9F1020F0BD11FB947F240302880EDE72E
:104EF00009E01EB947F23F302880E7E703E045F6B6
:104F000025602880E2E700BF02F046FE012084F819
:104F1000260010482060C4F80480E6610020A061EB
:104F20002762A4F82490C4F808A0C4F80CB020614B
:104F30006061204602F082FD07480088401C064957
:104F4000088002F0A3FE0020288000BFBEE700001A
:104F50000C020020544D5220B00200202DE9F041F7
:104F600004460D464FF0000838480078002805DD5B
:104F700047F2433028800020BDE8F08124B947F291
:104F8000423028800020F7E731492068884204D069
:104F900045F6C45028800020EEE794F8260000284B
:104FA00047D0012818D0022802D0032846D114E0A7
:104FB00000BF00BFFBF77CF9804600BF00BFE0697F
:104FC000A06100BF00BF4046FBF776F900BF00BFFD
:104FD00000202880012636E000BF02F0DDFD02201F
:104FE00084F82600E06910B9206AA06101E0E06958
:104FF000A0611848006840B9002020616061154830
:1050000004600120144908800DE012480768006818
:105010002061002060617C610E4804600E480088B9
:10502000401C0D49088002F031FE00202880012636
:1050300009E047F23D302880002604E047F2413085
:105040002880002600BF00BF304695E70C020020F4
:10505000544D5220AC020020A8020020244A2549C9
:10506000254A264A2649274A2748284A284A294ABB
:10507000294A2A482A482B482B4A2C482C4A2D4892
:105080002D4A2E482E482F482F48304A304A314A60
:105090003148324A324A3348334834483448354834
:1050A00035483648364A374A374A384A3848394800
:1050B00039483A4A3A4A3B4A3B483C483C483D49D1
:1050C0003D483E4A3E4A3F4A3F4A404A404A414A9A
:1050D0004148424A424A43484348444A444A454870
:1050E000454A464A4648474800BF00BF00BF704790
:1050F00094B50008F8B6000895B5000896B5000804
:1051000098B500089CB50008A0B500089DB500083A
:10511000C8B50008C9B50008CAB50008CCB5000874
:10512000CEB50008D0B50008D2B50008D4B5000847
:10513000F4B50008F6B50008F8B50008FAB500089F
:10514000FCB50008FEB5000800B600082CB6000843
:105150002DB600082EB6000830B6000832B600089A
:1051600033B6000834B6000836B6000838B6000872
:105170003AB600083CB600083EB6000840B6000843
:1051800070B6000871B6000872B6000873B6000861
:1051900074B6000876B6000878B60008A0B6000815
:1051A000A1B60008A2B60008A3B60008A4B600087D
:1051B000A6B60008A8B60008ACB60008ADB6000850
:1051C000AEB60008AFB60008B0B60008B1B6000829
:1051D000B2B60008B3B60008B4B60008B6B6000808
:1051E000B7B60008B8B60008BAB60008BCB60008E2
:1051F000BDB60008C0B60008F0B60008F1B6000859
:10520000F2B60008F4B600080021034A1160034A10
:105210001180018070470000240200202802002035
:105220002DE9F04F85B00446894692469B46DDF84D
:1052300038800020009000BF00BFFBF739F80090D5
:1052400000BF00BFBAF1000F0AD0BAF1010F0DD0B4
:10525000BAF5004F05D06FF40040504460B906E045
:1052600000BF206A40EA0900206214E000BF206A03
:1052700020EA090020620EE000BF00BF0098FBF7A3
:105280001BF800BF00BF45F62560A8F8000000200D
:1052900005B0BDE8F08F00BFC4F824B004F10800E9
:1052A00001900198008958B900BF00BF0098FBF732
:1052B00003F800BF00BF0020A8F80000206AE7E75D
:1052C00000BF5E480078401C5C49087000BF00BF0A
:1052D0000098FAF7F1FF00BF00BF00BF0198076810
:1052E000BD6879E07868029095F8840000F00F00BE
:1052F0000390039801281ED0022829D0042802D048
:10530000082830D10CE0206AE96F00EA0106E86F56
:10531000B04204D15A463146284600F093F855E091
:10532000206AE96F00EA010626B15A46314628464E
:1053300000F088F84AE0E86F216A20EA0106E86F89
:10534000B04204D15A463146284600F07BF83DE091
:10535000E86F216A20EA010626B15A4631462846FE
:1053600000F070F832E000BF00BF00BFFAF7A0FF06
:10537000009000BF00BF31480078401E2F490870E0
:1053800008460078A0B92E480088002809DD00BF33
:1053900000BF0098FAF790FF00BF00BF00F07CFF4D
:1053A0000DE000BF00BF0098FAF786FF00BF06E0DF
:1053B00000BF00BF0098FAF77FFF00BF00BF00BF2B
:1053C00043F6FF20A8F80000002061E700BF029F1D
:1053D0000FB1BD6800E00025002D83D100BF00BFE4
:1053E00000BFFAF765FF009000BF00BF13480078C8
:1053F000401E1249087000BF00BF0098FAF75CFF1A
:1054000000BF00BF00BF0AF4004008B9FEF7C6FBAA
:1054100000BF00BFFAF74CFF009000BF00BF206A3A
:10542000049000BF00BF0098FAF746FF00BF00BF1E
:105430000020A8F8000004982AE700005402002089
:105440001802002070B504460E4615463434E66452
:10545000002060702070E560A078343C08281DD2E0
:10546000DFE800F0040508090706171800BF00BFB1
:1054700000BF14E000BF94F83600032802D1204694
:1054800002F0B4F8204600F063FE002084F83600F5
:1054900005E000BF042084F8360000E000BF00BF34
:1054A000204600F094FC70BD002419E000BF00BF4E
:1054B000FAF7FEFE044600BF00BF0A480068401C21
:1054C0000849086008480068401C0749086000BF98
:1054D00000BF2046FAF7F0FE00BF00BFFDF702FF55
:1054E000E4E70000080200206C02002010B58AB03A
:1054F000044600200E4908600B2000210591CDE9EB
:105500000704069108460B4909680B4A12680B4BC1
:105510001B68CDE90132CDE903103F200023084A82
:1055200008A100900C48FEF791FD0AB010BD0000E4
:105530000802002008B5000804B5000800B50008FE
:10554000A954000875432F4F532D494949204964F8
:105550006C65205461736B00803D00202DE9F84F8D
:1055600004460D4616461F46DDE90BABDDF82890D4
:10557000DDF834800020009000BF00BFFAF798FEED
:10558000009000BF00BF2B4800882B490988884243
:105590003EDA28480088401C2649088027480088B1
:1055A0000988884203DA234800882449088024486F
:1055B0000068046022480068856021480068C66071
:1055C0001F48006807821E480068C0F814901C48F5
:1055D0000068A0F818A01A480068C0F81CB0184865
:1055E000006840681649086001201649088116487D
:1055F00008604860002000F0C3FC1448007818B12F
:1056000012480078124908700020A8F8000008E04D
:1056100010480088401C0F49088044F25360A8F8E5
:10562000000000BF00BF0098FAF746FE00BF00BFB1
:10563000BDE8F88F1802002014B500081A020020F7
:10564000100200200C3F0020403E00203A020020C3
:105650003C0200201C0200203EB55948006800684A
:10566000584A811A904279D00FDC574908440028E3
:105670003ED056490844A8B155490844002860D096
:105680005449084400286AD13FE0534808440028A0
:1056900050D052490844002862D05149084400289B
:1056A000F1D110E002A8464D00902D68EB69444D01
:1056B0002D682A8B424D2D686969414D2D68A86877
:1056C000FFF7AEFD7AE002A93D480068C0693C4D95
:1056D000CDE900012D682B8B394D2D682A8A384D74
:1056E0002D68E968364D2D68A86800F079FC65E002
:1056F000334B1B68DA69324B1B68198B304B1B68C4
:10570000986802AB00F092FE58E002A92C480068AD
:10571000C0692B4DCDE900012D682B8B284D2D68DC
:105720002A8A274D2D68E968254D2D68A86801F063
:10573000FFF943E022490968886802A901F0FEFAEE
:105740003CE01F4B1B68DA691D4B1B68198B1C4B17
:105750001B68986802AB01F09DFB2FE007E02CE08E
:1057600017490968886802A901F0F6FD26E01D497D
:10577000097801EB41011C4A02EB810000F0E2FDD7
:105780000F48006802AB0021C269184801F082FB93
:1057900017480068401E164908600846006858B956
:1057A000144800680860FBF729FE044602AB224655
:1057B0000021114801F06EFB00E000BF00BF3EBDBC
:1057C000140200205449434BADBAB2BE0DF90BFA96
:1057D000F2F8F7FF0006F6FF00F7FDF700FFEFFF16
:1057E00003FE0FFE3C0200200C3F0020CC420020B4
:1057F000C0020020BC020020B843002000274CE07B
:10580000002648E000BF00BFFAF752FD074600BF80
:1058100000BF2248008888B900202149088108601B
:10582000486000F0BFFB00BF00BF3846FAF744FDF8
:1058300000BF00BFFEF7B2F901262CE000BF00BF99
:105840003846FAF739FD00BF00BFFBF7D7FD054624
:10585000FFF702FFFBF7D2FD441B12480068A0428D
:1058600001D21048046000BF00BFFAF721FD0746CF
:1058700000BF00BF0C48006840680B49086007483B
:105880000088401E0549088000BF00BF3846FAF76F
:1058900013FD00BF00BF002EB4D0B1E718020020F6
:1058A0000C3F00202002002014020020F0B589B037
:1058B00005460020314908803148006820B944F28B
:1058C0005260288009B0F0BD2E480088022803DA13
:1058D00044F254602880F5E700202B4908602848EE
:1058E00004682646203600270CE028482060002067
:1058F000A060E060208260612083666020342036F2
:10590000781C87B21F4800888742EEDB203C1C4889
:10591000066866601E4806601E48066000201E4934
:1059200008801E4908801E48006818B944F2556076
:105930002880C7E71B4800681B490968884203D2D2
:1059400044F256602880BDE7032000210591CDE98F
:105950000705069113480068144A1268104B1B682B
:10596000CDE90301CDE9013200910B46104A11A1A6
:105970001748FEF76BFB00BFA4E700001C020020E5
:1059800010B5000814B50008200200204E4F4E4507
:105990001002002014020020180200201A02002029
:1059A0001CB5000824B500085CB5000820B5000847
:1059B000FD57000875432F4F532D4949492049533E
:1059C00052205175657565205461736B00000000AD
:1059D000403E00200021034A1160034A11800180EB
:1059E000704700002C0200203002002070B50146F4
:1059F0001A4D2D681DB945F21E750D8070BD184DEC
:105A00002D881DB945F21D750D80F7E7134D2868E7
:105A10002A681032124D2D886D1EACB2002308E0AA
:105A20000260002545600581C560103010325D1CA4
:105A3000ABB2A342F4DB0025056045600581C5607B
:105A4000064D2D68074E3560054D2D88B580002523
:105A5000F58035810D8000BFD0E7000040B500081B
:105A600038B50008003F002010B5014648894B8931
:105A7000002B17DD0A680C4B1B6813600A4C4B683F
:105A800023602346DB884C891B1B074CE38023469D
:105A90009B884C892344044CA38000234B818B8139
:105AA0000B604B6010BD0000003F00200181002210
:105AB0004281828102604260704700002DE9F0411E
:105AC0000D46DDE90674B0F80AC0B0F80880C44598
:105AD00005DB46F2935CA4F800C0BDE8F081DFF876
